{
  "_format": "hh-sol-artifact-1",
  "contractName": "DynaStripes",
  "sourceName": "contracts/DynaStripes.sol",
  "abi": [
    {
      "inputs": [],
      "stateMutability": "nonpayable",
      "type": "constructor"
    },
    {
      "inputs": [],
      "name": "ApprovalCallerNotOwnerNorApproved",
      "type": "error"
    },
    {
      "inputs": [],
      "name": "ApprovalQueryForNonexistentToken",
      "type": "error"
    },
    {
      "inputs": [],
      "name": "ApprovalToCurrentOwner",
      "type": "error"
    },
    {
      "inputs": [],
      "name": "ApproveToCaller",
      "type": "error"
    },
    {
      "inputs": [],
      "name": "BalanceQueryForZeroAddress",
      "type": "error"
    },
    {
      "inputs": [],
      "name": "MintToZeroAddress",
      "type": "error"
    },
    {
      "inputs": [],
      "name": "MintZeroQuantity",
      "type": "error"
    },
    {
      "inputs": [],
      "name": "OwnerIndexOutOfBounds",
      "type": "error"
    },
    {
      "inputs": [],
      "name": "OwnerQueryForNonexistentToken",
      "type": "error"
    },
    {
      "inputs": [],
      "name": "TokenIndexOutOfBounds",
      "type": "error"
    },
    {
      "inputs": [],
      "name": "TransferCallerNotOwnerNorApproved",
      "type": "error"
    },
    {
      "inputs": [],
      "name": "TransferFromIncorrectOwner",
      "type": "error"
    },
    {
      "inputs": [],
      "name": "TransferToNonERC721ReceiverImplementer",
      "type": "error"
    },
    {
      "inputs": [],
      "name": "TransferToZeroAddress",
      "type": "error"
    },
    {
      "anonymous": false,
      "inputs": [
        {
          "indexed": true,
          "internalType": "address",
          "name": "owner",
          "type": "address"
        },
        {
          "indexed": true,
          "internalType": "address",
          "name": "approved",
          "type": "address"
        },
        {
          "indexed": true,
          "internalType": "uint256",
          "name": "tokenId",
          "type": "uint256"
        }
      ],
      "name": "Approval",
      "type": "event"
    },
    {
      "anonymous": false,
      "inputs": [
        {
          "indexed": true,
          "internalType": "address",
          "name": "owner",
          "type": "address"
        },
        {
          "indexed": true,
          "internalType": "address",
          "name": "operator",
          "type": "address"
        },
        {
          "indexed": false,
          "internalType": "bool",
          "name": "approved",
          "type": "bool"
        }
      ],
      "name": "ApprovalForAll",
      "type": "event"
    },
    {
      "anonymous": false,
      "inputs": [
        {
          "indexed": true,
          "internalType": "address",
          "name": "previousOwner",
          "type": "address"
        },
        {
          "indexed": true,
          "internalType": "address",
          "name": "newOwner",
          "type": "address"
        }
      ],
      "name": "OwnershipTransferred",
      "type": "event"
    },
    {
      "anonymous": false,
      "inputs": [
        {
          "indexed": false,
          "internalType": "address",
          "name": "account",
          "type": "address"
        }
      ],
      "name": "Paused",
      "type": "event"
    },
    {
      "anonymous": false,
      "inputs": [
        {
          "indexed": true,
          "internalType": "address",
          "name": "from",
          "type": "address"
        },
        {
          "indexed": true,
          "internalType": "address",
          "name": "to",
          "type": "address"
        },
        {
          "indexed": true,
          "internalType": "uint256",
          "name": "tokenId",
          "type": "uint256"
        }
      ],
      "name": "Transfer",
      "type": "event"
    },
    {
      "anonymous": false,
      "inputs": [
        {
          "indexed": false,
          "internalType": "address",
          "name": "account",
          "type": "address"
        }
      ],
      "name": "Unpaused",
      "type": "event"
    },
    {
      "inputs": [],
      "name": "ROYALTY_BPS",
      "outputs": [
        {
          "internalType": "uint16",
          "name": "",
          "type": "uint16"
        }
      ],
      "stateMutability": "view",
      "type": "function"
    },
    {
      "inputs": [],
      "name": "TOKEN_LIMIT",
      "outputs": [
        {
          "internalType": "uint16",
          "name": "",
          "type": "uint16"
        }
      ],
      "stateMutability": "view",
      "type": "function"
    },
    {
      "inputs": [
        {
          "internalType": "address",
          "name": "to",
          "type": "address"
        },
        {
          "internalType": "uint256",
          "name": "tokenId",
          "type": "uint256"
        }
      ],
      "name": "approve",
      "outputs": [],
      "stateMutability": "nonpayable",
      "type": "function"
    },
    {
      "inputs": [
        {
          "internalType": "address",
          "name": "owner",
          "type": "address"
        }
      ],
      "name": "balanceOf",
      "outputs": [
        {
          "internalType": "uint256",
          "name": "",
          "type": "uint256"
        }
      ],
      "stateMutability": "view",
      "type": "function"
    },
    {
      "inputs": [
        {
          "internalType": "uint24[]",
          "name": "seeds",
          "type": "uint24[]"
        }
      ],
      "name": "banRandomSeeds",
      "outputs": [],
      "stateMutability": "nonpayable",
      "type": "function"
    },
    {
      "inputs": [],
      "name": "contractURI",
      "outputs": [
        {
          "internalType": "string",
          "name": "",
          "type": "string"
        }
      ],
      "stateMutability": "pure",
      "type": "function"
    },
    {
      "inputs": [
        {
          "internalType": "uint256",
          "name": "tokenId",
          "type": "uint256"
        }
      ],
      "name": "generateSvg",
      "outputs": [
        {
          "internalType": "string",
          "name": "",
          "type": "string"
        }
      ],
      "stateMutability": "view",
      "type": "function"
    },
    {
      "inputs": [
        {
          "internalType": "uint256",
          "name": "tokenId",
          "type": "uint256"
        }
      ],
      "name": "getApproved",
      "outputs": [
        {
          "internalType": "address",
          "name": "",
          "type": "address"
        }
      ],
      "stateMutability": "view",
      "type": "function"
    },
    {
      "inputs": [],
      "name": "getMintPrice",
      "outputs": [
        {
          "internalType": "uint256",
          "name": "",
          "type": "uint256"
        }
      ],
      "stateMutability": "view",
      "type": "function"
    },
    {
      "inputs": [],
      "name": "getTokenLimit",
      "outputs": [
        {
          "internalType": "uint16",
          "name": "",
          "type": "uint16"
        }
      ],
      "stateMutability": "view",
      "type": "function"
    },
    {
      "inputs": [
        {
          "internalType": "address",
          "name": "_owner",
          "type": "address"
        },
        {
          "internalType": "address",
          "name": "_operator",
          "type": "address"
        }
      ],
      "name": "isApprovedForAll",
      "outputs": [
        {
          "internalType": "bool",
          "name": "isOperator",
          "type": "bool"
        }
      ],
      "stateMutability": "view",
      "type": "function"
    },
    {
      "inputs": [
        {
          "internalType": "uint24",
          "name": "randomSeed",
          "type": "uint24"
        },
        {
          "internalType": "uint8",
          "name": "zoom",
          "type": "uint8"
        },
        {
          "internalType": "uint8",
          "name": "tintRed",
          "type": "uint8"
        },
        {
          "internalType": "uint8",
          "name": "tintGreen",
          "type": "uint8"
        },
        {
          "internalType": "uint8",
          "name": "tintBlue",
          "type": "uint8"
        },
        {
          "internalType": "uint8",
          "name": "tintAlpha",
          "type": "uint8"
        },
        {
          "internalType": "uint16",
          "name": "rotationDegrees",
          "type": "uint16"
        },
        {
          "internalType": "uint8",
          "name": "rotationRange",
          "type": "uint8"
        },
        {
          "internalType": "uint8",
          "name": "stripeWidthMin",
          "type": "uint8"
        },
        {
          "internalType": "uint8",
          "name": "stripeWidthMax",
          "type": "uint8"
        },
        {
          "internalType": "uint8",
          "name": "speedMin",
          "type": "uint8"
        },
        {
          "internalType": "uint8",
          "name": "speedMax",
          "type": "uint8"
        }
      ],
      "name": "mintStripes",
      "outputs": [],
      "stateMutability": "payable",
      "type": "function"
    },
    {
      "inputs": [],
      "name": "name",
      "outputs": [
        {
          "internalType": "string",
          "name": "",
          "type": "string"
        }
      ],
      "stateMutability": "view",
      "type": "function"
    },
    {
      "inputs": [],
      "name": "owner",
      "outputs": [
        {
          "internalType": "address",
          "name": "",
          "type": "address"
        }
      ],
      "stateMutability": "view",
      "type": "function"
    },
    {
      "inputs": [
        {
          "internalType": "uint256",
          "name": "tokenId",
          "type": "uint256"
        }
      ],
      "name": "ownerOf",
      "outputs": [
        {
          "internalType": "address",
          "name": "",
          "type": "address"
        }
      ],
      "stateMutability": "view",
      "type": "function"
    },
    {
      "inputs": [],
      "name": "pause",
      "outputs": [],
      "stateMutability": "nonpayable",
      "type": "function"
    },
    {
      "inputs": [],
      "name": "paused",
      "outputs": [
        {
          "internalType": "bool",
          "name": "",
          "type": "bool"
        }
      ],
      "stateMutability": "view",
      "type": "function"
    },
    {
      "inputs": [
        {
          "internalType": "uint256",
          "name": "amount",
          "type": "uint256"
        }
      ],
      "name": "payOwner",
      "outputs": [],
      "stateMutability": "nonpayable",
      "type": "function"
    },
    {
      "inputs": [],
      "name": "renounceOwnership",
      "outputs": [],
      "stateMutability": "nonpayable",
      "type": "function"
    },
    {
      "inputs": [
        {
          "internalType": "uint256",
          "name": "tokenId",
          "type": "uint256"
        },
        {
          "internalType": "uint256",
          "name": "value",
          "type": "uint256"
        }
      ],
      "name": "royaltyInfo",
      "outputs": [
        {
          "internalType": "address",
          "name": "receiver",
          "type": "address"
        },
        {
          "internalType": "uint256",
          "name": "royaltyAmount",
          "type": "uint256"
        }
      ],
      "stateMutability": "view",
      "type": "function"
    },
    {
      "inputs": [
        {
          "internalType": "address",
          "name": "from",
          "type": "address"
        },
        {
          "internalType": "address",
          "name": "to",
          "type": "address"
        },
        {
          "internalType": "uint256",
          "name": "tokenId",
          "type": "uint256"
        }
      ],
      "name": "safeTransferFrom",
      "outputs": [],
      "stateMutability": "nonpayable",
      "type": "function"
    },
    {
      "inputs": [
        {
          "internalType": "address",
          "name": "from",
          "type": "address"
        },
        {
          "internalType": "address",
          "name": "to",
          "type": "address"
        },
        {
          "internalType": "uint256",
          "name": "tokenId",
          "type": "uint256"
        },
        {
          "internalType": "bytes",
          "name": "_data",
          "type": "bytes"
        }
      ],
      "name": "safeTransferFrom",
      "outputs": [],
      "stateMutability": "nonpayable",
      "type": "function"
    },
    {
      "inputs": [
        {
          "internalType": "address",
          "name": "operator",
          "type": "address"
        },
        {
          "internalType": "bool",
          "name": "approved",
          "type": "bool"
        }
      ],
      "name": "setApprovalForAll",
      "outputs": [],
      "stateMutability": "nonpayable",
      "type": "function"
    },
    {
      "inputs": [
        {
          "internalType": "uint256",
          "name": "_mintPrice",
          "type": "uint256"
        }
      ],
      "name": "setMintPrice",
      "outputs": [],
      "stateMutability": "nonpayable",
      "type": "function"
    },
    {
      "inputs": [
        {
          "internalType": "uint16",
          "name": "limit",
          "type": "uint16"
        }
      ],
      "name": "setTokenLimit",
      "outputs": [],
      "stateMutability": "nonpayable",
      "type": "function"
    },
    {
      "inputs": [
        {
          "internalType": "bytes4",
          "name": "interfaceId",
          "type": "bytes4"
        }
      ],
      "name": "supportsInterface",
      "outputs": [
        {
          "internalType": "bool",
          "name": "",
          "type": "bool"
        }
      ],
      "stateMutability": "view",
      "type": "function"
    },
    {
      "inputs": [],
      "name": "symbol",
      "outputs": [
        {
          "internalType": "string",
          "name": "",
          "type": "string"
        }
      ],
      "stateMutability": "view",
      "type": "function"
    },
    {
      "inputs": [
        {
          "internalType": "uint256",
          "name": "index",
          "type": "uint256"
        }
      ],
      "name": "tokenByIndex",
      "outputs": [
        {
          "internalType": "uint256",
          "name": "",
          "type": "uint256"
        }
      ],
      "stateMutability": "view",
      "type": "function"
    },
    {
      "inputs": [
        {
          "internalType": "address",
          "name": "owner",
          "type": "address"
        },
        {
          "internalType": "uint256",
          "name": "index",
          "type": "uint256"
        }
      ],
      "name": "tokenOfOwnerByIndex",
      "outputs": [
        {
          "internalType": "uint256",
          "name": "",
          "type": "uint256"
        }
      ],
      "stateMutability": "view",
      "type": "function"
    },
    {
      "inputs": [
        {
          "internalType": "uint256",
          "name": "_tokenId",
          "type": "uint256"
        }
      ],
      "name": "tokenURI",
      "outputs": [
        {
          "internalType": "string",
          "name": "",
          "type": "string"
        }
      ],
      "stateMutability": "view",
      "type": "function"
    },
    {
      "inputs": [],
      "name": "totalSupply",
      "outputs": [
        {
          "internalType": "uint256",
          "name": "",
          "type": "uint256"
        }
      ],
      "stateMutability": "view",
      "type": "function"
    },
    {
      "inputs": [
        {
          "internalType": "address",
          "name": "from",
          "type": "address"
        },
        {
          "internalType": "address",
          "name": "to",
          "type": "address"
        },
        {
          "internalType": "uint256",
          "name": "tokenId",
          "type": "uint256"
        }
      ],
      "name": "transferFrom",
      "outputs": [],
      "stateMutability": "nonpayable",
      "type": "function"
    },
    {
      "inputs": [
        {
          "internalType": "address",
          "name": "newOwner",
          "type": "address"
        }
      ],
      "name": "transferOwnership",
      "outputs": [],
      "stateMutability": "nonpayable",
      "type": "function"
    },
    {
      "inputs": [],
      "name": "unpause",
      "outputs": [],
      "stateMutability": "nonpayable",
      "type": "function"
    },
    {
      "stateMutability": "payable",
      "type": "receive"
    }
  ],
  "bytecode": "0x60806040526009805461ffff19166064179055662386f26fc10000600c553480156200002a57600080fd5b50604080518082018252600d81526c44796e6153747269706573353560981b6020808301918252835180850190945260048452634453353560e01b9084015281519192918391839162000080916001916200011e565b508051620000969060029060208401906200011e565b505050620000b3620000ad620000c860201b60201c565b620000cc565b50506007805460ff60a01b1916905562000201565b3390565b600780546001600160a01b038381166001600160a01b0319831681179093556040519116919082907f8be0079c531659141344cd1fd0a4f28419497f9722a3daafe3b4186f6b6457e090600090a35050565b8280546200012c90620001c4565b90600052602060002090601f0160209004810192826200015057600085556200019b565b82601f106200016b57805160ff19168380011785556200019b565b828001600101855582156200019b579182015b828111156200019b5782518255916020019190600101906200017e565b50620001a9929150620001ad565b5090565b5b80821115620001a95760008155600101620001ae565b600181811c90821680620001d957607f821691505b60208210811415620001fb57634e487b7160e01b600052602260045260246000fd5b50919050565b6138f180620002116000396000f3fe6080604052600436106101fd5760003560e01c806370a082311161010d578063a6c8445a116100a0578063c87b56dd1161006f578063c87b56dd146105c7578063e8a3d485146105e7578063e985e9c5146105fc578063f2fde38b1461061c578063f4a0a5281461063c57600080fd5b8063a6c8445a1461055f578063a7f93ebd14610572578063b88d4fde14610587578063bc921dc2146105a757600080fd5b80638456cb59116100dc5780638456cb59146104f75780638da5cb5b1461050c57806395d89b411461052a578063a22cb4651461053f57600080fd5b806370a0823114610482578063715018a6146104a257806377c39a89146104b75780638331be32146104d757600080fd5b8063284855861161019057806342842e0e1161015f57806342842e0e146103ed57806349c657db1461040d5780634f6ccce7146104235780635c975abb146104435780636352211e1461046257600080fd5b806328485586146103605780632a55205a146103795780632f745c59146103b85780633f4ba83a146103d857600080fd5b806308d78c3c116101cc57806308d78c3c146102c1578063095ea7b3146102e357806318160ddd1461030357806323b872dd1461034057600080fd5b806301ffc9a714610209578063031bd4c41461023e57806306fdde0314610267578063081812fc1461028957600080fd5b3661020457005b600080fd5b34801561021557600080fd5b50610229610224366004612d09565b61065c565b60405190151581526020015b60405180910390f35b34801561024a57600080fd5b5061025461045f81565b60405161ffff9091168152602001610235565b34801561027357600080fd5b5061027c61066d565b604051610235919061359f565b34801561029557600080fd5b506102a96102a4366004612e36565b6106ff565b6040516001600160a01b039091168152602001610235565b3480156102cd57600080fd5b506102e16102dc366004612e36565b610743565b005b3480156102ef57600080fd5b506102e16102fe366004612c31565b610824565b34801561030f57600080fd5b506103326000546001600160801b03600160801b82048116918116919091031690565b604051908152602001610235565b34801561034c57600080fd5b506102e161035b366004612b04565b6108ad565b34801561036c57600080fd5b5060095461ffff16610254565b34801561038557600080fd5b50610399610394366004612e4e565b6108b8565b604080516001600160a01b039093168352602083019190915201610235565b3480156103c457600080fd5b506103326103d3366004612c31565b610911565b3480156103e457600080fd5b506102e1610a0e565b3480156103f957600080fd5b506102e1610408366004612b04565b610a60565b34801561041957600080fd5b506102546103e881565b34801561042f57600080fd5b5061033261043e366004612e36565b610a7b565b34801561044f57600080fd5b50600754600160a01b900460ff16610229565b34801561046e57600080fd5b506102a961047d366004612e36565b610b26565b34801561048e57600080fd5b5061033261049d366004612ab8565b610b38565b3480156104ae57600080fd5b506102e1610b87565b3480156104c357600080fd5b506102e16104d2366004612d41565b610bd9565b3480156104e357600080fd5b506102e16104f2366004612c5a565b610c4c565b34801561050357600080fd5b506102e1610d0a565b34801561051857600080fd5b506007546001600160a01b03166102a9565b34801561053657600080fd5b5061027c610d5a565b34801561054b57600080fd5b506102e161055a366004612bf7565b610d69565b6102e161056d366004612d5b565b610dff565b34801561057e57600080fd5b50600c54610332565b34801561059357600080fd5b506102e16105a2366004612b3f565b61137d565b3480156105b357600080fd5b5061027c6105c2366004612e36565b6113b7565b3480156105d357600080fd5b5061027c6105e2366004612e36565b6115e0565b3480156105f357600080fd5b5061027c61168e565b34801561060857600080fd5b50610229610617366004612ad2565b6116ae565b34801561062857600080fd5b506102e1610637366004612ab8565b61170e565b34801561064857600080fd5b506102e1610657366004612e36565b6117c7565b600061066782611814565b92915050565b60606001805461067c906136b9565b80601f01602080910402602001604051908101604052809291908181526020018280546106a8906136b9565b80156106f55780601f106106ca576101008083540402835291602001916106f5565b820191906000526020600020905b8154815290600101906020018083116106d857829003601f168201915b5050505050905090565b600061070a82611839565b610727576040516333d1c03960e21b815260040160405180910390fd5b506000908152600560205260409020546001600160a01b031690565b6007546001600160a01b031633146107905760405162461bcd60e51b8152602060048201819052602482015260008051602061389c83398151915260448201526064015b60405180910390fd5b478111156107d25760405162461bcd60e51b815260206004820152600f60248201526e082dadeeadce840e8dede40d0d2ced608b1b6044820152606401610787565b60006107e66007546001600160a01b031690565b6040519091506001600160a01b0382169083156108fc029084906000818181858888f1935050505015801561081f573d6000803e3d6000fd5b505050565b600061082f82610b26565b9050806001600160a01b0316836001600160a01b031614156108645760405163250fdee360e21b815260040160405180910390fd5b336001600160a01b03821614801590610884575061088281336116ae565b155b156108a2576040516367d9dca160e11b815260040160405180910390fd5b61081f83838361186d565b61081f8383836118c9565b6000828152600860209081526040808320815180830190925280546001600160a01b03168083526001909101549282018390528392612710906108fb9087613657565b6109059190613621565b92509250509250929050565b600061091c83610b38565b821061093b576040516306ed618760e11b815260040160405180910390fd5b600080546001600160801b03169080805b83811015610a0857600081815260036020908152604091829020825160608101845290546001600160a01b0381168252600160a01b810467ffffffffffffffff1692820192909252600160e01b90910460ff1615801592820192909252906109b45750610a00565b80516001600160a01b0316156109c957805192505b876001600160a01b0316836001600160a01b031614156109fe57868414156109f75750935061066792505050565b6001909301925b505b60010161094c565b50600080fd5b6007546001600160a01b03163314610a565760405162461bcd60e51b8152602060048201819052602482015260008051602061389c8339815191526044820152606401610787565b610a5e611af5565b565b61081f8383836040518060200160405280600081525061137d565b600080546001600160801b031681805b82811015610b0c57600081815260036020908152604091829020825160608101845290546001600160a01b0381168252600160a01b810467ffffffffffffffff1692820192909252600160e01b90910460ff16151591810182905290610b035785831415610afc5750949350505050565b6001909201915b50600101610a8b565b506040516329c8c00760e21b815260040160405180910390fd5b6000610b3182611b9b565b5192915050565b60006001600160a01b038216610b61576040516323d3ad8160e21b815260040160405180910390fd5b506001600160a01b031660009081526004602052604090205467ffffffffffffffff1690565b6007546001600160a01b03163314610bcf5760405162461bcd60e51b8152602060048201819052602482015260008051602061389c8339815191526044820152606401610787565b610a5e6000611cbf565b6007546001600160a01b03163314610c215760405162461bcd60e51b8152602060048201819052602482015260008051602061389c8339815191526044820152606401610787565b61045f61ffff82161115610c34575061045f5b6009805461ffff191661ffff92909216919091179055565b6007546001600160a01b03163314610c945760405162461bcd60e51b8152602060048201819052602482015260008051602061389c8339815191526044820152606401610787565b60005b8151811015610d06576001600b6000848481518110610cc657634e487b7160e01b600052603260045260246000fd5b60209081029190910181015162ffffff168252810191909152604001600020805460ff191691151591909117905580610cfe816136f4565b915050610c97565b5050565b6007546001600160a01b03163314610d525760405162461bcd60e51b8152602060048201819052602482015260008051602061389c8339815191526044820152606401610787565b610a5e611d11565b60606002805461067c906136b9565b6001600160a01b038216331415610d935760405163b06307db60e01b815260040160405180910390fd5b3360008181526006602090815260408083206001600160a01b03871680855290835292819020805460ff191686151590811790915590519081529192917f17307eab39ab6107e8899845ad3d59bd9653f200f220920489ca2b5937696c31910160405180910390a35050565b60095460005461ffff9091166001600160801b03909116108015610e31575060005461045f6001600160801b03909116105b610e7d5760405162461bcd60e51b815260206004820152601360248201527f546f6b656e206c696d69742072656163686564000000000000000000000000006044820152606401610787565b600c54341015610ec05760405162461bcd60e51b815260206004820152600e60248201526d09cdee840cadcdeeaced0408aa8960931b6044820152606401610787565b60648b60ff161115610eff5760405162461bcd60e51b8152602060048201526008602482015267626164207a6f6f6d60c01b6044820152606401610787565b60ff8a60ff1611158015610f17575060ff8960ff1611155b8015610f27575060ff8860ff1611155b8015610f36575060e68760ff16105b610f6e5760405162461bcd60e51b81526020600482015260096024820152683130b21031b7b637b960b91b6044820152606401610787565b6101688661ffff1611158015610f88575060b48560ff1611155b610fc35760405162461bcd60e51b815260206004820152600c60248201526b3130b2103937ba30ba34b7b760a11b6044820152606401610787565b60198460ff1610158015610fdb575060fa8360ff1611155b8015610fed57508260ff168460ff1611155b61102c5760405162461bcd60e51b815260206004820152601060248201526f0c4c2c840e6e8e4d2e0ca40eed2c8e8d60831b6044820152606401610787565b60198260ff1610158015611044575060fa8160ff1611155b801561105657508060ff168260ff1611155b61108e5760405162461bcd60e51b8152602060048201526009602482015268189859081cdc19595960ba1b6044820152606401610787565b624c4b408c62ffffff161080156110ba575062ffffff8c166000908152600b602052604090205460ff16155b6110f85760405162461bcd60e51b815260206004820152600f60248201526e189859081c985b991bdb481cd95959608a1b6044820152606401610787565b6000546001600160801b038116906111179061ffff16336103e8611d99565b6040518061018001604052808e62ffffff1681526020018d60ff1681526020018c60ff1681526020018b60ff1681526020018a60ff1681526020018960ff1681526020018861ffff1681526020018760ff1681526020018660ff1681526020018560ff1681526020018460ff1681526020018360ff16815250600a60008361ffff1661ffff16815260200190815260200160002060008201518160000160006101000a81548162ffffff021916908362ffffff16021790555060208201518160000160036101000a81548160ff021916908360ff16021790555060408201518160000160046101000a81548160ff021916908360ff16021790555060608201518160000160056101000a81548160ff021916908360ff16021790555060808201518160000160066101000a81548160ff021916908360ff16021790555060a08201518160000160076101000a81548160ff021916908360ff16021790555060c08201518160000160086101000a81548161ffff021916908361ffff16021790555060e082015181600001600a6101000a81548160ff021916908360ff16021790555061010082015181600001600b6101000a81548160ff021916908360ff16021790555061012082015181600001600c6101000a81548160ff021916908360ff16021790555061014082015181600001600d6101000a81548160ff021916908360ff16021790555061016082015181600001600e6101000a81548160ff021916908360ff16021790555090505061134f336001611e33565b50505062ffffff9099166000908152600b60205260409020805460ff19166001179055505050505050505050565b6113888484846118c9565b61139484848484611e4d565b6113b1576040516368d2bf6b60e11b815260040160405180910390fd5b50505050565b60606113c282611839565b80156113cf575061045f82105b61140a5760405162461bcd60e51b815260206004820152600c60248201526b189859081d1bdad95b88125160a21b6044820152606401610787565b61ffff8083166000908152600a60209081526040808320815161018081018352905462ffffff8116825260ff63010000008204811694830185905264010000000082048116938301939093526501000000000081048316606083015266010000000000008104831660808301526701000000000000008104831660a083015268010000000000000000810490951660c08201526a01000000000000000000008504821660e08201526b010000000000000000000000850482166101008201526c01000000000000000000000000850482166101208201526d0100000000000000000000000000850482166101408201526e01000000000000000000000000000090940416610160840152819061151f90611f5c565b9150915060008360e0015160ff1660001461155657604051806040016040528060048152602001636175746f60e01b81525061157a565b6040518060400160405280600a8152602001696372697370456467657360b01b8152505b905060008260405160200161158f91906134f2565b604051602081830303815290604052905060006115ab86612076565b9050848383836040516020016115c49493929190613292565b6040516020818303038152906040529650505050505050919050565b60606115eb82611839565b61162a5760405162461bcd60e51b815260206004820152601060248201526f125108191bd95cdb89dd08195e1a5cdd60821b6044820152606401610787565b61045f821061166e5760405162461bcd60e51b815260206004820152601060248201526f125108191bd95cdb89dd08195e1a5cdd60821b6044820152606401610787565b60405180610120016040528060f1815260200161377c60f1913992915050565b60606040518060600160405280602f815260200161386d602f9139905090565b60006001600160a01b0382167358807bad0b376efc12f5ad86aac70e78ed67deae14156116dd57506001610667565b6001600160a01b0380841660009081526006602090815260408083209386168352929052205460ff165b9392505050565b6007546001600160a01b031633146117565760405162461bcd60e51b8152602060048201819052602482015260008051602061389c8339815191526044820152606401610787565b6001600160a01b0381166117bb5760405162461bcd60e51b815260206004820152602660248201527f4f776e61626c653a206e6577206f776e657220697320746865207a65726f206160448201526564647265737360d01b6064820152608401610787565b6117c481611cbf565b50565b6007546001600160a01b0316331461180f5760405162461bcd60e51b8152602060048201819052602482015260008051602061389c8339815191526044820152606401610787565b600c55565b60006001600160e01b0319821663152a902d60e11b1480610667575061066782612219565b600080546001600160801b031682108015610667575050600090815260036020526040902054600160e01b900460ff161590565b60008281526005602052604080822080546001600160a01b0319166001600160a01b0387811691821790925591518593918516917f8c5be1e5ebec7d5bd14f71427d1e84f3dd0314c0f7b2291e5b200ac8c7c3b92591a4505050565b60006118d482611b9b565b80519091506000906001600160a01b0316336001600160a01b031614806119025750815161190290336116ae565b8061191d575033611912846106ff565b6001600160a01b0316145b90508061193d57604051632ce44b5f60e11b815260040160405180910390fd5b846001600160a01b031682600001516001600160a01b0316146119725760405162a1148160e81b815260040160405180910390fd5b6001600160a01b03841661199957604051633a954ecd60e21b815260040160405180910390fd5b6119a68585856001612224565b6119b6600084846000015161186d565b6001600160a01b038581166000908152600460209081526040808320805467ffffffffffffffff1980821667ffffffffffffffff92831660001901831617909255898616808652838620805493841693831660019081018416949094179055898652600390945282852080546001600160e01b031916909417600160a01b429092169190910217909255908601808352912054909116611aab576000546001600160801b0316811015611aab578251600082815260036020908152604090912080549186015167ffffffffffffffff16600160a01b026001600160e01b03199092166001600160a01b03909316929092171790555b5082846001600160a01b0316866001600160a01b03167fddf252ad1be2c89b69c2b068fc378daa952ba7f163c4a11628f55a4df523b3ef60405160405180910390a45b5050505050565b600754600160a01b900460ff16611b4e5760405162461bcd60e51b815260206004820152601460248201527f5061757361626c653a206e6f74207061757365640000000000000000000000006044820152606401610787565b6007805460ff60a01b191690557f5db9ee0a495bf2e6ff9c91a7834c1ba4fdd244a5e8aa4e537bd38aeae4b073aa335b6040516001600160a01b03909116815260200160405180910390a1565b60408051606081018252600080825260208201819052918101829052905482906001600160801b0316811015611ca657600081815260036020908152604091829020825160608101845290546001600160a01b0381168252600160a01b810467ffffffffffffffff1692820192909252600160e01b90910460ff16151591810182905290611ca45780516001600160a01b031615611c3a579392505050565b5060001901600081815260036020908152604091829020825160608101845290546001600160a01b038116808352600160a01b820467ffffffffffffffff1693830193909352600160e01b900460ff1615159281019290925215611c9f579392505050565b611c3a565b505b604051636f96cda160e11b815260040160405180910390fd5b600780546001600160a01b038381166001600160a01b0319831681179093556040519116919082907f8be0079c531659141344cd1fd0a4f28419497f9722a3daafe3b4186f6b6457e090600090a35050565b600754600160a01b900460ff1615611d5e5760405162461bcd60e51b815260206004820152601060248201526f14185d5cd8589b194e881c185d5cd95960821b6044820152606401610787565b6007805460ff60a01b1916600160a01b1790557f62e78cea01bee320cd4e420270b5ea74000d11b0c9f74754ebdbfc544b05a258611b7e3390565b612710811115611deb5760405162461bcd60e51b815260206004820152601a60248201527f45524332393831526f79616c746965733a20546f6f20686967680000000000006044820152606401610787565b6040805180820182526001600160a01b03938416815260208082019384526000958652600890529320925183546001600160a01b031916921691909117825551600190910155565b610d06828260405180602001604052806000815250612276565b60006001600160a01b0384163b15611f5057604051630a85bd0160e11b81526001600160a01b0385169063150b7a0290611e9190339089908890889060040161356d565b602060405180830381600087803b158015611eab57600080fd5b505af1925050508015611edb575060408051601f3d908101601f19168201909252611ed891810190612d25565b60015b611f36573d808015611f09576040519150601f19603f3d011682016040523d82523d6000602084013e611f0e565b606091505b508051611f2e576040516368d2bf6b60e11b815260040160405180910390fd5b805181602001fd5b6001600160e01b031916630a85bd0160e11b149050611f54565b5060015b949350505050565b606080611f6a836014613657565b92506000611f82611f7d856103e8613609565b612283565b90506103e884111561200e576000611fab6002611fa16103e888613676565b611f7d9190613621565b9050600081828485604051602001611fc69493929190613467565b6040516020818303038152906040529050600082838586604051602001611ff09493929190613163565b60408051601f19818403018152919052919791965090945050505050565b6000612031856103e81461202a576002611fa1876103e8613676565b6000612283565b905060008182848560405160200161204c9493929190613091565b6040516020818303038152906040529050600082838586604051602001611ff094939291906133b3565b80516040805160208101909152600080825260609262ffffff16915b60006120a0836107d0613676565b1115611f545760006120c38487610100015160ff1688610120015160ff1661237c565b6120ce906002613657565b90506120dc836107d0613676565b8111156120f6576120ef836107d0613676565b9050612140565b61010086015160ff168161210c856107d0613676565b6121169190613676565b10156121405780612129846107d0613676565b6121339190613676565b61213d9082613609565b90505b6000612156612150866003613609565b886123e3565b905060008161216f61216988600d613609565b8a6123e3565b8360405160200161218293929190613109565b60405160208183030381529060405290508361219d86612283565b6121a685612283565b846121bb6121b58b6001613609565b8d612480565b6121cf6121c98c6002613609565b8e61255b565b866040516020016121e69796959493929190612eb7565b60408051601f1981840301815291905293506122028386613609565b945061220f606487613609565b9550505050612092565b600061066782612590565b600754600160a01b900460ff16156122715760405162461bcd60e51b815260206004820152601060248201526f14185d5cd8589b194e881c185d5cd95960821b6044820152606401610787565b6113b1565b61081f83838360016125fb565b6060816122a75750506040805180820190915260018152600360fc1b602082015290565b8160005b81156122bf57600101600a820491506122ab565b60008167ffffffffffffffff8111156122e857634e487b7160e01b600052604160045260246000fd5b6040519080825280601f01601f191660200182016040528015612312576020820181803683370190505b508593509050815b831561237357600a840660300160f81b8282600190039250828151811061235157634e487b7160e01b600052603260045260246000fd5b60200101906001600160f81b031916908160001a905350600a8404935061231a565b50949350505050565b600082821161238c575081611707565b6000846040516020016123a191815260200190565b60408051601f1981840301815291905280516020909101209050836123c68185613676565b6123d0908361370f565b6123da9190613609565b95945050505050565b6060600061240c6123f785600060ff61237c565b846040015160ff168560a0015160ff166127a3565b9050600061243f61242a612421876001613609565b600060ff61237c565b856060015160ff168660a0015160ff166127a3565b90506000612469612454612421886002613609565b866080015160ff168760a0015160ff166127a3565b90506124768383836127e4565b9695505050505050565b606060006124978460008560e0015160ff1661237c565b90506000816124af575060c083015161ffff16612539565b8360e0015160ff168210156125045760028460e001516124cf9190613635565b60ff16828560c001516101686124e591906135e3565b61ffff166124f39190613676565b6124fd9190613609565b9050612539565b60028460e001516125159190613635565b60ff16828560c0015161ffff1661252c9190613609565b6125369190613676565b90505b6101688111156125525761254f61016882613676565b90505b6123da81612283565b6060600061257a8484610140015160ff1685610160015160ff1661237c565b612585906014613657565b9050611f5481612283565b60006001600160e01b031982166380ac58cd60e01b14806125c157506001600160e01b03198216635b5e139f60e01b145b806125dc57506001600160e01b0319821663780e9d6360e01b145b8061066757506301ffc9a760e01b6001600160e01b0319831614610667565b6000546001600160801b03166001600160a01b03851661262d57604051622e076360e81b815260040160405180910390fd5b8361264b5760405163b562e8dd60e01b815260040160405180910390fd5b6126586000868387612224565b6001600160a01b038516600081815260046020908152604080832080546fffffffffffffffffffffffffffffffff19811667ffffffffffffffff8083168c0181169182176801000000000000000067ffffffffffffffff1990941690921783900481168c018116909202179091558584526003909252822080546001600160e01b031916909317600160a01b42909216919091021790915581905b858110156127745760405182906001600160a01b038916906000907fddf252ad1be2c89b69c2b068fc378daa952ba7f163c4a11628f55a4df523b3ef908290a483801561274a57506127486000888488611e4d565b155b15612768576040516368d2bf6b60e11b815260040160405180910390fd5b600191820191016126f3565b50600080546fffffffffffffffffffffffffffffffff19166001600160801b0392909216919091179055611aee565b6000816127b4575060ff8316611707565b60008385116127cd575060ff84840383020484016127d9565b5060ff83850383020484035b60ff16949350505050565b60606127ef8461282b565b6127f88461282b565b6128018461282b565b60405160200161281393929190613219565b60405160208183030381529060405290509392505050565b6060610100821061286e5760405162461bcd60e51b815260206004820152600d60248201526c696e70757420746f6f2062696760981b6044820152606401610787565b816128905750506040805180820190915260018152600360fc1b602082015290565b6060600a8310156129025760408051600180825281830190925290602082018180368337019050509050600a835b0660300160f81b816000815181106128e657634e487b7160e01b600052603260045260246000fd5b60200101906001600160f81b031916908160001a905350610667565b60648310156129765760408051600280825281830190925290602082018180368337019050509050600a830660300160f81b8160018151811061295557634e487b7160e01b600052603260045260246000fd5b60200101906001600160f81b031916908160001a905350600a8084046128be565b60408051600380825281830190925290602082018180368337019050509050600a830660300160f81b816002815181106129c057634e487b7160e01b600052603260045260246000fd5b60200101906001600160f81b031916908160001a905350600a8084040660300160f81b81600181518110612a0457634e487b7160e01b600052603260045260246000fd5b60200101906001600160f81b031916908160001a905350600a606484040660300160f81b81600081518110612a4957634e487b7160e01b600052603260045260246000fd5b60200101906001600160f81b031916908160001a90535092915050565b80356001600160a01b0381168114612a7d57600080fd5b919050565b803561ffff81168114612a7d57600080fd5b803562ffffff81168114612a7d57600080fd5b803560ff81168114612a7d57600080fd5b600060208284031215612ac9578081fd5b61170782612a66565b60008060408385031215612ae4578081fd5b612aed83612a66565b9150612afb60208401612a66565b90509250929050565b600080600060608486031215612b18578081fd5b612b2184612a66565b9250612b2f60208501612a66565b9150604084013590509250925092565b60008060008060808587031215612b54578081fd5b612b5d85612a66565b93506020612b6c818701612a66565b935060408601359250606086013567ffffffffffffffff80821115612b8f578384fd5b818801915088601f830112612ba2578384fd5b813581811115612bb457612bb461374f565b612bc6601f8201601f191685016135b2565b91508082528984828501011115612bdb578485fd5b8084840185840137810190920192909252939692955090935050565b60008060408385031215612c09578182fd5b612c1283612a66565b915060208301358015158114612c26578182fd5b809150509250929050565b60008060408385031215612c43578182fd5b612c4c83612a66565b946020939093013593505050565b60006020808385031215612c6c578182fd5b823567ffffffffffffffff80821115612c83578384fd5b818501915085601f830112612c96578384fd5b813581811115612ca857612ca861374f565b8060051b9150612cb98483016135b2565b8181528481019084860184860187018a1015612cd3578788fd5b8795505b83861015612cfc57612ce881612a94565b835260019590950194918601918601612cd7565b5098975050505050505050565b600060208284031215612d1a578081fd5b813561170781613765565b600060208284031215612d36578081fd5b815161170781613765565b600060208284031215612d52578081fd5b61170782612a82565b6000806000806000806000806000806000806101808d8f031215612d7d578788fd5b612d868d612a94565b9b50612d9460208e01612aa7565b9a50612da260408e01612aa7565b9950612db060608e01612aa7565b9850612dbe60808e01612aa7565b9750612dcc60a08e01612aa7565b9650612dda60c08e01612a82565b9550612de860e08e01612aa7565b9450612df76101008e01612aa7565b9350612e066101208e01612aa7565b9250612e156101408e01612aa7565b9150612e246101608e01612aa7565b90509295989b509295989b509295989b565b600060208284031215612e47578081fd5b5035919050565b60008060408385031215612e60578182fd5b50508035926020909101359150565b60008151808452612e8781602086016020860161368d565b601f01601f19169290920160200192915050565b60008151612ead81856020860161368d565b9290920192915050565b60008851612ec9818460208d0161368d565b683c7265637420783d2760b81b9083019081528851612eef816009840160208d0161368d565b6e2720793d2730272077696474683d2760881b600992909101918201528751612f1f816018840160208c0161368d565b7f27206865696768743d2732303030272066696c6c3d2700000000000000000000601892909101918201528651612f5d81602e840160208b0161368d565b6e27206f7061636974793d27302e382760881b602e92909101918201527f207472616e73666f726d3d27726f746174652800000000000000000000000000603d82015261308361303461302e612ffb612ff5612fbc605087018c612e9b565b7f2031303030203130303029273e3c616e696d61746520626567696e3d2027307381526627206475723d2760c81b602082015260270190565b89612e9b565b7f6d7327206174747269627574654e616d653d2766696c6c272076616c7565733d8152602760f81b602082015260210190565b86612e9b565b7f3b272066696c6c3d27667265657a652720726570656174436f756e743d27696e81527f646566696e697465272f3e3c2f726563743e0000000000000000000000000000602082015260320190565b9a9950505050505050505050565b600085516130a3818460208a0161368d565b8083019050600160fd1b80825286516130c3816001850160208b0161368d565b6001920191820181905285516130e0816002850160208a0161368d565b600292019182015283516130fb81600384016020880161368d565b016003019695505050505050565b6000845161311b81846020890161368d565b8083019050603b60f81b808252855161313b816001850160208a0161368d565b6001920191820152835161315681600284016020880161368d565b0160020195945050505050565b63783d272d60e01b815260008551613182816004850160208a0161368d565b652720793d272d60d01b60049184019182015285516131a881600a840160208a0161368d565b68272077696474683d2760b81b600a929091019182015284516131d281601384016020890161368d565b6927206865696768743d2760b01b6013929091019182015283516131fd81601d84016020880161368d565b602760f81b601d9290910191820152601e019695505050505050565b630e4cec4560e31b81526000845161323881600485016020890161368d565b808301905061016160f51b806004830152855161325c816006850160208a0161368d565b6006920191820152835161327781600884016020880161368d565b602960f81b6008929091019182015260090195945050505050565b7f3c73766720786d6c6e733d27687474703a2f2f7777772e77332e6f72672f323081527f30302f737667272076696577426f783d270000000000000000000000000000006020820152600085516132f0816031850160208a0161368d565b7f272073686170652d72656e646572696e673d2700000000000000000000000000603191840191820152855161332d816044840160208a0161368d565b61139f60f11b60449290910191820152845161335081604684016020890161368d565b7f3c6720636c69702d706174683d2775726c28236d6173746572436c697029273e60469290910191820152835161338e81606684016020880161368d565b691e17b39f1e17b9bb339f60b11b606692909101918201526070019695505050505050565b62783d2760e81b8152600085516133d1816003850160208a0161368d565b642720793d2760d81b60039184019182015285516133f6816008840160208a0161368d565b68272077696474683d2760b81b60089290910191820152845161342081601184016020890161368d565b6927206865696768743d2760b01b60119290910191820152835161344b81601b84016020880161368d565b602760f81b601b9290910191820152601c019695505050505050565b602d60f81b815260008551613483816001850160208a0161368d565b61202d60f01b60019184019182015285516134a5816003840160208a0161368d565b808201915050600160fd1b80600383015285516134c9816004850160208a0161368d565b600492019182015283516134e481600584016020880161368d565b016005019695505050505050565b7f3c646566733e3c636c6970506174682069643d276d6173746572436c6970273e81526501e3932b1ba160d51b60208201526000825161353981602685016020870161368d565b7f2f3e3c2f636c6970506174683e3c2f646566733e0000000000000000000000006026939091019283015250603a01919050565b60006001600160a01b038087168352808616602084015250836040830152608060608301526124766080830184612e6f565b6020815260006117076020830184612e6f565b604051601f8201601f1916810167ffffffffffffffff811182821017156135db576135db61374f565b604052919050565b600061ffff80831681851680830382111561360057613600613723565b01949350505050565b6000821982111561361c5761361c613723565b500190565b60008261363057613630613739565b500490565b600060ff83168061364857613648613739565b8060ff84160491505092915050565b600081600019048311821515161561367157613671613723565b500290565b60008282101561368857613688613723565b500390565b60005b838110156136a8578181015183820152602001613690565b838111156113b15750506000910152565b600181811c908216806136cd57607f821691505b602082108114156136ee57634e487b7160e01b600052602260045260246000fd5b50919050565b600060001982141561370857613708613723565b5060010190565b60008261371e5761371e613739565b500690565b634e487b7160e01b600052601160045260246000fd5b634e487b7160e01b600052601260045260246000fd5b634e487b7160e01b600052604160045260246000fd5b6001600160e01b0319811681146117c457600080fdfe646174613a6170706c69636174696f6e2f6a736f6e3b6261736536342c65794a755957316c496a6f67496b5254557942595743497349434a6b5a584e6a636d6c7764476c766269493649434a4249477876646d56736553424565573568553352796158426c6379423362334a724c69497349434a686448527961574a316447567a496a6f675733736961584e7a645755694f6941695a6d3931636e526f496e31644c434169615731685a3255694f6941696148523063484d364c793933643363755a486c7559584e30636d6c775a584d75593239744c325235626d467a595731776247557563335a6e496e304b43673d3d68747470733a2f2f7777772e64796e61737472697065732e636f6d2f73746f726566726f6e742d6d657461646174614f776e61626c653a2063616c6c6572206973206e6f7420746865206f776e6572a2646970667358221220d17f8e8bac9b3718701a39f159d4c7505415095ba65b052ff5efbca1a37f5f2d64736f6c63430008040033",
  "linkReferences": {},
  "deployedLinkReferences": {}
}