{
  "_format": "hh-sol-artifact-1",
  "contractName": "DynaStripes",
  "sourceName": "contracts/DynaStripes.sol",
  "abi": [
    {
      "inputs": [],
      "stateMutability": "nonpayable",
      "type": "constructor"
    },
    {
      "anonymous": false,
      "inputs": [
        {
          "indexed": true,
          "internalType": "address",
          "name": "owner",
          "type": "address"
        },
        {
          "indexed": true,
          "internalType": "address",
          "name": "approved",
          "type": "address"
        },
        {
          "indexed": true,
          "internalType": "uint256",
          "name": "tokenId",
          "type": "uint256"
        }
      ],
      "name": "Approval",
      "type": "event"
    },
    {
      "anonymous": false,
      "inputs": [
        {
          "indexed": true,
          "internalType": "address",
          "name": "owner",
          "type": "address"
        },
        {
          "indexed": true,
          "internalType": "address",
          "name": "operator",
          "type": "address"
        },
        {
          "indexed": false,
          "internalType": "bool",
          "name": "approved",
          "type": "bool"
        }
      ],
      "name": "ApprovalForAll",
      "type": "event"
    },
    {
      "anonymous": false,
      "inputs": [
        {
          "indexed": true,
          "internalType": "address",
          "name": "previousOwner",
          "type": "address"
        },
        {
          "indexed": true,
          "internalType": "address",
          "name": "newOwner",
          "type": "address"
        }
      ],
      "name": "OwnershipTransferred",
      "type": "event"
    },
    {
      "anonymous": false,
      "inputs": [
        {
          "indexed": false,
          "internalType": "address",
          "name": "account",
          "type": "address"
        }
      ],
      "name": "Paused",
      "type": "event"
    },
    {
      "anonymous": false,
      "inputs": [
        {
          "indexed": true,
          "internalType": "address",
          "name": "from",
          "type": "address"
        },
        {
          "indexed": true,
          "internalType": "address",
          "name": "to",
          "type": "address"
        },
        {
          "indexed": true,
          "internalType": "uint256",
          "name": "tokenId",
          "type": "uint256"
        }
      ],
      "name": "Transfer",
      "type": "event"
    },
    {
      "anonymous": false,
      "inputs": [
        {
          "indexed": false,
          "internalType": "address",
          "name": "account",
          "type": "address"
        }
      ],
      "name": "Unpaused",
      "type": "event"
    },
    {
      "inputs": [],
      "name": "ROYALTY_BPS",
      "outputs": [
        {
          "internalType": "uint16",
          "name": "",
          "type": "uint16"
        }
      ],
      "stateMutability": "view",
      "type": "function"
    },
    {
      "inputs": [],
      "name": "TOKEN_LIMIT",
      "outputs": [
        {
          "internalType": "uint16",
          "name": "",
          "type": "uint16"
        }
      ],
      "stateMutability": "view",
      "type": "function"
    },
    {
      "inputs": [
        {
          "internalType": "address",
          "name": "to",
          "type": "address"
        },
        {
          "internalType": "uint256",
          "name": "tokenId",
          "type": "uint256"
        }
      ],
      "name": "approve",
      "outputs": [],
      "stateMutability": "nonpayable",
      "type": "function"
    },
    {
      "inputs": [
        {
          "internalType": "address",
          "name": "owner",
          "type": "address"
        }
      ],
      "name": "balanceOf",
      "outputs": [
        {
          "internalType": "uint256",
          "name": "",
          "type": "uint256"
        }
      ],
      "stateMutability": "view",
      "type": "function"
    },
    {
      "inputs": [
        {
          "internalType": "uint32[]",
          "name": "seeds",
          "type": "uint32[]"
        }
      ],
      "name": "banRandomSeeds",
      "outputs": [],
      "stateMutability": "nonpayable",
      "type": "function"
    },
    {
      "inputs": [
        {
          "internalType": "uint256",
          "name": "tokenId",
          "type": "uint256"
        }
      ],
      "name": "burn",
      "outputs": [],
      "stateMutability": "nonpayable",
      "type": "function"
    },
    {
      "inputs": [],
      "name": "contractURI",
      "outputs": [
        {
          "internalType": "string",
          "name": "",
          "type": "string"
        }
      ],
      "stateMutability": "pure",
      "type": "function"
    },
    {
      "inputs": [
        {
          "internalType": "uint256",
          "name": "_tokenId",
          "type": "uint256"
        }
      ],
      "name": "generateSvg",
      "outputs": [
        {
          "internalType": "string",
          "name": "",
          "type": "string"
        }
      ],
      "stateMutability": "view",
      "type": "function"
    },
    {
      "inputs": [
        {
          "internalType": "uint256",
          "name": "tokenId",
          "type": "uint256"
        }
      ],
      "name": "getApproved",
      "outputs": [
        {
          "internalType": "address",
          "name": "",
          "type": "address"
        }
      ],
      "stateMutability": "view",
      "type": "function"
    },
    {
      "inputs": [],
      "name": "getMintPrice",
      "outputs": [
        {
          "internalType": "uint256",
          "name": "",
          "type": "uint256"
        }
      ],
      "stateMutability": "view",
      "type": "function"
    },
    {
      "inputs": [],
      "name": "getTokenLimit",
      "outputs": [
        {
          "internalType": "uint16",
          "name": "",
          "type": "uint16"
        }
      ],
      "stateMutability": "view",
      "type": "function"
    },
    {
      "inputs": [
        {
          "internalType": "address",
          "name": "owner",
          "type": "address"
        },
        {
          "internalType": "address",
          "name": "operator",
          "type": "address"
        }
      ],
      "name": "isApprovedForAll",
      "outputs": [
        {
          "internalType": "bool",
          "name": "",
          "type": "bool"
        }
      ],
      "stateMutability": "view",
      "type": "function"
    },
    {
      "inputs": [
        {
          "internalType": "uint32",
          "name": "_randomSeed",
          "type": "uint32"
        },
        {
          "internalType": "uint8",
          "name": "_zoom",
          "type": "uint8"
        },
        {
          "internalType": "uint8",
          "name": "_tintRed",
          "type": "uint8"
        },
        {
          "internalType": "uint8",
          "name": "_tintGreen",
          "type": "uint8"
        },
        {
          "internalType": "uint8",
          "name": "_tintBlue",
          "type": "uint8"
        },
        {
          "internalType": "uint8",
          "name": "_tintAlpha",
          "type": "uint8"
        },
        {
          "internalType": "uint8",
          "name": "_rotationMin",
          "type": "uint8"
        },
        {
          "internalType": "uint8",
          "name": "_rotationMax",
          "type": "uint8"
        },
        {
          "internalType": "uint8",
          "name": "_stripeWidthMin",
          "type": "uint8"
        },
        {
          "internalType": "uint8",
          "name": "_stripeWidthMax",
          "type": "uint8"
        },
        {
          "internalType": "uint8",
          "name": "_speedMin",
          "type": "uint8"
        },
        {
          "internalType": "uint8",
          "name": "_speedMax",
          "type": "uint8"
        }
      ],
      "name": "mintStripes",
      "outputs": [],
      "stateMutability": "payable",
      "type": "function"
    },
    {
      "inputs": [],
      "name": "name",
      "outputs": [
        {
          "internalType": "string",
          "name": "",
          "type": "string"
        }
      ],
      "stateMutability": "view",
      "type": "function"
    },
    {
      "inputs": [],
      "name": "owner",
      "outputs": [
        {
          "internalType": "address",
          "name": "",
          "type": "address"
        }
      ],
      "stateMutability": "view",
      "type": "function"
    },
    {
      "inputs": [
        {
          "internalType": "uint256",
          "name": "tokenId",
          "type": "uint256"
        }
      ],
      "name": "ownerOf",
      "outputs": [
        {
          "internalType": "address",
          "name": "",
          "type": "address"
        }
      ],
      "stateMutability": "view",
      "type": "function"
    },
    {
      "inputs": [],
      "name": "pause",
      "outputs": [],
      "stateMutability": "nonpayable",
      "type": "function"
    },
    {
      "inputs": [],
      "name": "paused",
      "outputs": [
        {
          "internalType": "bool",
          "name": "",
          "type": "bool"
        }
      ],
      "stateMutability": "view",
      "type": "function"
    },
    {
      "inputs": [
        {
          "internalType": "uint256",
          "name": "amount",
          "type": "uint256"
        }
      ],
      "name": "payOwner",
      "outputs": [],
      "stateMutability": "nonpayable",
      "type": "function"
    },
    {
      "inputs": [],
      "name": "renounceOwnership",
      "outputs": [],
      "stateMutability": "nonpayable",
      "type": "function"
    },
    {
      "inputs": [
        {
          "internalType": "uint256",
          "name": "tokenId",
          "type": "uint256"
        },
        {
          "internalType": "uint256",
          "name": "value",
          "type": "uint256"
        }
      ],
      "name": "royaltyInfo",
      "outputs": [
        {
          "internalType": "address",
          "name": "receiver",
          "type": "address"
        },
        {
          "internalType": "uint256",
          "name": "royaltyAmount",
          "type": "uint256"
        }
      ],
      "stateMutability": "view",
      "type": "function"
    },
    {
      "inputs": [
        {
          "internalType": "address",
          "name": "to",
          "type": "address"
        }
      ],
      "name": "safeMint",
      "outputs": [],
      "stateMutability": "nonpayable",
      "type": "function"
    },
    {
      "inputs": [
        {
          "internalType": "address",
          "name": "from",
          "type": "address"
        },
        {
          "internalType": "address",
          "name": "to",
          "type": "address"
        },
        {
          "internalType": "uint256",
          "name": "tokenId",
          "type": "uint256"
        }
      ],
      "name": "safeTransferFrom",
      "outputs": [],
      "stateMutability": "nonpayable",
      "type": "function"
    },
    {
      "inputs": [
        {
          "internalType": "address",
          "name": "from",
          "type": "address"
        },
        {
          "internalType": "address",
          "name": "to",
          "type": "address"
        },
        {
          "internalType": "uint256",
          "name": "tokenId",
          "type": "uint256"
        },
        {
          "internalType": "bytes",
          "name": "_data",
          "type": "bytes"
        }
      ],
      "name": "safeTransferFrom",
      "outputs": [],
      "stateMutability": "nonpayable",
      "type": "function"
    },
    {
      "inputs": [
        {
          "internalType": "address",
          "name": "operator",
          "type": "address"
        },
        {
          "internalType": "bool",
          "name": "approved",
          "type": "bool"
        }
      ],
      "name": "setApprovalForAll",
      "outputs": [],
      "stateMutability": "nonpayable",
      "type": "function"
    },
    {
      "inputs": [
        {
          "internalType": "uint256",
          "name": "_mintPrice",
          "type": "uint256"
        }
      ],
      "name": "setMintPrice",
      "outputs": [],
      "stateMutability": "nonpayable",
      "type": "function"
    },
    {
      "inputs": [
        {
          "internalType": "uint16",
          "name": "_tokenLimit",
          "type": "uint16"
        }
      ],
      "name": "setTokenLimit",
      "outputs": [],
      "stateMutability": "nonpayable",
      "type": "function"
    },
    {
      "inputs": [
        {
          "internalType": "bytes4",
          "name": "interfaceId",
          "type": "bytes4"
        }
      ],
      "name": "supportsInterface",
      "outputs": [
        {
          "internalType": "bool",
          "name": "",
          "type": "bool"
        }
      ],
      "stateMutability": "view",
      "type": "function"
    },
    {
      "inputs": [],
      "name": "symbol",
      "outputs": [
        {
          "internalType": "string",
          "name": "",
          "type": "string"
        }
      ],
      "stateMutability": "view",
      "type": "function"
    },
    {
      "inputs": [
        {
          "internalType": "uint256",
          "name": "index",
          "type": "uint256"
        }
      ],
      "name": "tokenByIndex",
      "outputs": [
        {
          "internalType": "uint256",
          "name": "",
          "type": "uint256"
        }
      ],
      "stateMutability": "view",
      "type": "function"
    },
    {
      "inputs": [
        {
          "internalType": "address",
          "name": "owner",
          "type": "address"
        },
        {
          "internalType": "uint256",
          "name": "index",
          "type": "uint256"
        }
      ],
      "name": "tokenOfOwnerByIndex",
      "outputs": [
        {
          "internalType": "uint256",
          "name": "",
          "type": "uint256"
        }
      ],
      "stateMutability": "view",
      "type": "function"
    },
    {
      "inputs": [
        {
          "internalType": "uint256",
          "name": "_tokenId",
          "type": "uint256"
        }
      ],
      "name": "tokenURI",
      "outputs": [
        {
          "internalType": "string",
          "name": "",
          "type": "string"
        }
      ],
      "stateMutability": "view",
      "type": "function"
    },
    {
      "inputs": [],
      "name": "totalSupply",
      "outputs": [
        {
          "internalType": "uint256",
          "name": "",
          "type": "uint256"
        }
      ],
      "stateMutability": "view",
      "type": "function"
    },
    {
      "inputs": [
        {
          "internalType": "address",
          "name": "from",
          "type": "address"
        },
        {
          "internalType": "address",
          "name": "to",
          "type": "address"
        },
        {
          "internalType": "uint256",
          "name": "tokenId",
          "type": "uint256"
        }
      ],
      "name": "transferFrom",
      "outputs": [],
      "stateMutability": "nonpayable",
      "type": "function"
    },
    {
      "inputs": [
        {
          "internalType": "address",
          "name": "newOwner",
          "type": "address"
        }
      ],
      "name": "transferOwnership",
      "outputs": [],
      "stateMutability": "nonpayable",
      "type": "function"
    },
    {
      "inputs": [],
      "name": "unpause",
      "outputs": [],
      "stateMutability": "nonpayable",
      "type": "function"
    },
    {
      "stateMutability": "payable",
      "type": "receive"
    }
  ],
  "bytecode": "0x6080604052600d805461ffff19166103e8179055662386f26fc100006010553480156200002b57600080fd5b50604080518082018252600b81526a44796e615374726970657360a81b60208083019182528351808501909452600384526244535360e81b908401528151919291839183916200007e916000916200010e565b508051620000949060019060208401906200010e565b5050600a805460ff1916905550620000ac33620000b4565b5050620001f1565b600a80546001600160a01b03838116610100818102610100600160a81b031985161790945560405193909204169182907f8be0079c531659141344cd1fd0a4f28419497f9722a3daafe3b4186f6b6457e090600090a35050565b8280546200011c90620001b4565b90600052602060002090601f0160209004810192826200014057600085556200018b565b82601f106200015b57805160ff19168380011785556200018b565b828001600101855582156200018b579182015b828111156200018b5782518255916020019190600101906200016e565b50620001999291506200019d565b5090565b5b808211156200019957600081556001016200019e565b600181811c90821680620001c957607f821691505b60208210811415620001eb57634e487b7160e01b600052602260045260246000fd5b50919050565b614f0680620002016000396000f3fe6080604052600436106102535760003560e01c80635c975abb11610138578063a7f93ebd116100b0578063e8a3d4851161007f578063eb3af37411610064578063eb3af3741461069b578063f2fde38b146106bb578063f4a0a528146106db57600080fd5b8063e8a3d4851461063d578063e985e9c51461065257600080fd5b8063a7f93ebd146105c8578063b88d4fde146105dd578063bc921dc2146105fd578063c87b56dd1461061d57600080fd5b806377c39a89116101075780638da5cb5b116100ec5780638da5cb5b1461057057806395d89b4114610593578063a22cb465146105a857600080fd5b806377c39a891461053b5780638456cb591461055b57600080fd5b80635c975abb146104ce5780636352211e146104e657806370a0823114610506578063715018a61461052657600080fd5b80632a55205a116101cb57806342842e0e1161019a57806349c657db1161017f57806349c657db146104855780634f6ccce71461049b57806350fd2749146104bb57600080fd5b806342842e0e1461044557806342966c681461046557600080fd5b80632a55205a146103b15780632f745c59146103f05780633f4ba83a1461041057806340d097c31461042557600080fd5b806308d78c3c1161022257806318160ddd1161020757806318160ddd1461035957806323b872dd14610378578063284855861461039857600080fd5b806308d78c3c14610317578063095ea7b31461033957600080fd5b806301ffc9a71461025f578063031bd4c41461029457806306fdde03146102bd578063081812fc146102df57600080fd5b3661025a57005b600080fd5b34801561026b57600080fd5b5061027f61027a366004613bf3565b6106fb565b60405190151581526020015b60405180910390f35b3480156102a057600080fd5b506102aa61271081565b60405161ffff909116815260200161028b565b3480156102c957600080fd5b506102d261070c565b60405161028b9190614bf0565b3480156102eb57600080fd5b506102ff6102fa366004613c4d565b61079e565b6040516001600160a01b03909116815260200161028b565b34801561032357600080fd5b50610337610332366004613c4d565b610838565b005b34801561034557600080fd5b50610337610354366004613b1b565b61092d565b34801561036557600080fd5b506008545b60405190815260200161028b565b34801561038457600080fd5b506103376103933660046139ee565b610a5a565b3480156103a457600080fd5b50600d5461ffff166102aa565b3480156103bd57600080fd5b506103d16103cc366004613c65565b610ae2565b604080516001600160a01b03909316835260208301919091520161028b565b3480156103fc57600080fd5b5061036a61040b366004613b1b565b610b3b565b34801561041c57600080fd5b50610337610be3565b34801561043157600080fd5b506103376104403660046139a2565b610c4d565b34801561045157600080fd5b506103376104603660046139ee565b610cd0565b34801561047157600080fd5b50610337610480366004613c4d565b610ceb565b34801561049157600080fd5b506102aa6103e881565b3480156104a757600080fd5b5061036a6104b6366004613c4d565b610d6f565b6103376104c9366004613c86565b610e21565b3480156104da57600080fd5b50600a5460ff1661027f565b3480156104f257600080fd5b506102ff610501366004613c4d565b6114e4565b34801561051257600080fd5b5061036a6105213660046139a2565b61156f565b34801561053257600080fd5b50610337611609565b34801561054757600080fd5b50610337610556366004613c2b565b611673565b34801561056757600080fd5b506103376116fe565b34801561057c57600080fd5b50600a5461010090046001600160a01b03166102ff565b34801561059f57600080fd5b506102d2611766565b3480156105b457600080fd5b506103376105c3366004613ae1565b611775565b3480156105d457600080fd5b5060105461036a565b3480156105e957600080fd5b506103376105f8366004613a29565b61183a565b34801561060957600080fd5b506102d2610618366004613c4d565b6118c8565b34801561062957600080fd5b506102d2610638366004613c4d565b611b78565b34801561064957600080fd5b506102d26122ab565b34801561065e57600080fd5b5061027f61066d3660046139bc565b6001600160a01b03918216600090815260056020908152604080832093909416825291909152205460ff1690565b3480156106a757600080fd5b506103376106b6366004613b44565b6122cb565b3480156106c757600080fd5b506103376106d63660046139a2565b61239b565b3480156106e757600080fd5b506103376106f6366004613c4d565b612480565b6000610706826124e5565b92915050565b60606000805461071b90614dbd565b80601f016020809104026020016040519081016040528092919081815260200182805461074790614dbd565b80156107945780601f1061076957610100808354040283529160200191610794565b820191906000526020600020905b81548152906001019060200180831161077757829003601f168201915b5050505050905090565b6000818152600260205260408120546001600160a01b031661081c5760405162461bcd60e51b815260206004820152602c60248201527f4552433732313a20617070726f76656420717565727920666f72206e6f6e657860448201526b34b9ba32b73a103a37b5b2b760a11b60648201526084015b60405180910390fd5b506000908152600460205260409020546001600160a01b031690565b600a546001600160a01b036101009091041633146108985760405162461bcd60e51b815260206004820181905260248201527f4f776e61626c653a2063616c6c6572206973206e6f7420746865206f776e65726044820152606401610813565b478111156108e85760405162461bcd60e51b815260206004820152600f60248201527f416d6f756e7420746f6f206869676800000000000000000000000000000000006044820152606401610813565b600a546040516101009091046001600160a01b031690819083156108fc029084906000818181858888f19350505050158015610928573d6000803e3d6000fd5b505050565b6000610938826114e4565b9050806001600160a01b0316836001600160a01b031614156109c25760405162461bcd60e51b815260206004820152602160248201527f4552433732313a20617070726f76616c20746f2063757272656e74206f776e6560448201527f72000000000000000000000000000000000000000000000000000000000000006064820152608401610813565b336001600160a01b03821614806109de57506109de813361066d565b610a505760405162461bcd60e51b815260206004820152603860248201527f4552433732313a20617070726f76652063616c6c6572206973206e6f74206f7760448201527f6e6572206e6f7220617070726f76656420666f7220616c6c00000000000000006064820152608401610813565b6109288383612523565b610a65335b82612591565b610ad75760405162461bcd60e51b815260206004820152603160248201527f4552433732313a207472616e736665722063616c6c6572206973206e6f74206f60448201527f776e6572206e6f7220617070726f7665640000000000000000000000000000006064820152608401610813565b610928838383612688565b6000828152600c60209081526040808320815180830190925280546001600160a01b0316808352600190910154928201839052839261271090610b259087614d15565b610b2f9190614cd7565b92509250509250929050565b6000610b468361156f565b8210610bba5760405162461bcd60e51b815260206004820152602b60248201527f455243373231456e756d657261626c653a206f776e657220696e646578206f7560448201527f74206f6620626f756e64730000000000000000000000000000000000000000006064820152608401610813565b506001600160a01b03919091166000908152600660209081526040808320938352929052205490565b600a546001600160a01b03610100909104163314610c435760405162461bcd60e51b815260206004820181905260248201527f4f776e61626c653a2063616c6c6572206973206e6f7420746865206f776e65726044820152606401610813565b610c4b612860565b565b600a546001600160a01b03610100909104163314610cad5760405162461bcd60e51b815260206004820181905260248201527f4f776e61626c653a2063616c6c6572206973206e6f7420746865206f776e65726044820152606401610813565b610cbf81610cba600b5490565b6128fc565b610ccd600b80546001019055565b50565b6109288383836040518060200160405280600081525061183a565b610cf433610a5f565b610d665760405162461bcd60e51b815260206004820152603060248201527f4552433732314275726e61626c653a2063616c6c6572206973206e6f74206f7760448201527f6e6572206e6f7220617070726f766564000000000000000000000000000000006064820152608401610813565b610ccd81612916565b6000610d7a60085490565b8210610dee5760405162461bcd60e51b815260206004820152602c60248201527f455243373231456e756d657261626c653a20676c6f62616c20696e646578206f60448201527f7574206f6620626f756e647300000000000000000000000000000000000000006064820152608401610813565b60088281548110610e0f57634e487b7160e01b600052603260045260246000fd5b90600052602060002001549050919050565b6000610e2c600b5490565b600d5490915061ffff1681108015610e45575061271081105b610e915760405162461bcd60e51b815260206004820152601360248201527f546f6b656e206c696d69742072656163686564000000000000000000000000006044820152606401610813565b601054341015610ee35760405162461bcd60e51b815260206004820152601060248201527f4e6f7420656e6f756768206574686572000000000000000000000000000000006044820152606401610813565b60648c60ff161115610f375760405162461bcd60e51b815260206004820152600c60248201527f5a6f6f6d20696e76616c696400000000000000000000000000000000000000006044820152606401610813565b60ff8b60ff161115610f8b5760405162461bcd60e51b815260206004820152601060248201527f74696e742072656420696e76616c6964000000000000000000000000000000006044820152606401610813565b60ff8a60ff161115610fdf5760405162461bcd60e51b815260206004820152601260248201527f74696e7420677265656e20696e76616c696400000000000000000000000000006044820152606401610813565b60ff8960ff1611156110335760405162461bcd60e51b815260206004820152601160248201527f74696e7420626c756520696e76616c69640000000000000000000000000000006044820152606401610813565b60ff8860ff1611156110875760405162461bcd60e51b815260206004820152601260248201527f74696e7420616c70686120696e76616c696400000000000000000000000000006044820152606401610813565b60b48660ff16111580156110a157508560ff168760ff1611155b6110ed5760405162461bcd60e51b815260206004820152601060248201527f526f746174696f6e20696e76616c6964000000000000000000000000000000006044820152606401610813565b60198560ff1610158015611105575060fa8460ff1611155b801561111757508360ff168560ff1611155b6111635760405162461bcd60e51b815260206004820152601460248201527f53747269706520776964746820696e76616c69640000000000000000000000006044820152606401610813565b60198360ff161015801561117b575060fa8260ff1611155b801561118d57508160ff168360ff1611155b6111d95760405162461bcd60e51b815260206004820152601360248201527f53706565642076616c756520696e76616c6964000000000000000000000000006044820152606401610813565b624c4b408d63ffffffff16108015611207575063ffffffff8d166000908152600e602052604090205460ff16155b6112535760405162461bcd60e51b815260206004820152601360248201527f52616e646f6d207365656420696e76616c6964000000000000000000000000006044820152606401610813565b61125d33826128fc565b61126a81336103e86129bd565b6040518061018001604052808e63ffffffff1681526020018d60ff1681526020018c60ff1681526020018b60ff1681526020018a60ff1681526020018960ff1681526020018860ff1681526020018760ff1681526020018660ff1681526020018560ff1681526020018460ff1681526020018360ff16815250600f600083815260200190815260200160002060008201518160000160006101000a81548163ffffffff021916908363ffffffff16021790555060208201518160000160046101000a81548160ff021916908360ff16021790555060408201518160000160056101000a81548160ff021916908360ff16021790555060608201518160000160066101000a81548160ff021916908360ff16021790555060808201518160000160076101000a81548160ff021916908360ff16021790555060a08201518160000160086101000a81548160ff021916908360ff16021790555060c08201518160000160096101000a81548160ff021916908360ff16021790555060e082015181600001600a6101000a81548160ff021916908360ff16021790555061010082015181600001600b6101000a81548160ff021916908360ff16021790555061012082015181600001600c6101000a81548160ff021916908360ff16021790555061014082015181600001600d6101000a81548160ff021916908360ff16021790555061016082015181600001600e6101000a81548160ff021916908360ff1602179055509050506001600e60008f63ffffffff1663ffffffff16815260200190815260200160002060006101000a81548160ff0219169083151502179055506114d5600b80546001019055565b50505050505050505050505050565b6000818152600260205260408120546001600160a01b0316806107065760405162461bcd60e51b815260206004820152602960248201527f4552433732313a206f776e657220717565727920666f72206e6f6e657869737460448201527f656e7420746f6b656e00000000000000000000000000000000000000000000006064820152608401610813565b60006001600160a01b0382166115ed5760405162461bcd60e51b815260206004820152602a60248201527f4552433732313a2062616c616e636520717565727920666f7220746865207a6560448201527f726f2061646472657373000000000000000000000000000000000000000000006064820152608401610813565b506001600160a01b031660009081526003602052604090205490565b600a546001600160a01b036101009091041633146116695760405162461bcd60e51b815260206004820181905260248201527f4f776e61626c653a2063616c6c6572206973206e6f7420746865206f776e65726044820152606401610813565b610c4b6000612a57565b600a546001600160a01b036101009091041633146116d35760405162461bcd60e51b815260206004820181905260248201527f4f776e61626c653a2063616c6c6572206973206e6f7420746865206f776e65726044820152606401610813565b61271061ffff821611156116e657506127105b600d805461ffff191661ffff92909216919091179055565b600a546001600160a01b0361010090910416331461175e5760405162461bcd60e51b815260206004820181905260248201527f4f776e61626c653a2063616c6c6572206973206e6f7420746865206f776e65726044820152606401610813565b610c4b612ac8565b60606001805461071b90614dbd565b6001600160a01b0382163314156117ce5760405162461bcd60e51b815260206004820152601960248201527f4552433732313a20617070726f766520746f2063616c6c6572000000000000006044820152606401610813565b3360008181526005602090815260408083206001600160a01b03871680855290835292819020805460ff191686151590811790915590519081529192917f17307eab39ab6107e8899845ad3d59bd9653f200f220920489ca2b5937696c31910160405180910390a35050565b6118443383612591565b6118b65760405162461bcd60e51b815260206004820152603160248201527f4552433732313a207472616e736665722063616c6c6572206973206e6f74206f60448201527f776e6572206e6f7220617070726f7665640000000000000000000000000000006064820152608401610813565b6118c284848484612b50565b50505050565b60606118d3600b5490565b821061196d5760405162461bcd60e51b815260206004820152604160248201527f417474656d7074656420746f2067656e65726174652053564720666f7220746f60448201527f6b656e207468617420686173206e6f7420796574206265656e206d696e74656460648201527f2e00000000000000000000000000000000000000000000000000000000000000608482015260a401610813565b6000828152600f60209081526040808320815161018081018352905463ffffffff8116825260ff640100000000820481169483018590526501000000000082048116938301939093526601000000000000810483166060830152670100000000000000810483166080830152680100000000000000008104831660a083015269010000000000000000008104831660c08301526a01000000000000000000008104831660e08301526b010000000000000000000000810483166101008301526c01000000000000000000000000810483166101208301526d0100000000000000000000000000810483166101408301526e010000000000000000000000000000900490911661016082015291908190611a8590612bce565b9150915060008360e0015160ff168460c0015160ff1614611adb576040518060400160405280600481526020017f6175746f00000000000000000000000000000000000000000000000000000000815250611b12565b6040518060400160405280600a81526020017f63726973704564676573000000000000000000000000000000000000000000008152505b9050600082604051602001611b279190614b2c565b60405160208183030381529060405290506000611b4386612d03565b905084838383604051602001611b5c949392919061431a565b6040516020818303038152906040529650505050505050919050565b6000818152600f6020908152604091829020825161018081018452905463ffffffff8116825260ff6401000000008204811693830193909352650100000000008104831693820193909352660100000000000083048216606082810191909152670100000000000000840483166080830152680100000000000000008404831660a083015269010000000000000000008404831660c083018190526a01000000000000000000008504841660e084018190526b010000000000000000000000860485166101008501526c01000000000000000000000000860485166101208501526d0100000000000000000000000000860485166101408501526e0100000000000000000000000000009095049093166101608301529290918391148015611cb15750602d8260e00151611cac9190614e27565b60ff16155b15611cf0575060408051808201909152600681527f73717561726500000000000000000000000000000000000000000000000000006020820152611f2e565b8160e0015160ff168260c0015160ff161415611d40575060408051808201909152600781527f6469616d6f6e64000000000000000000000000000000000000000000000000006020820152611f2e565b603c82610120015160ff16108015611d6e5750601e8260c001518360e00151611d699190614d6e565b60ff16105b15611dad575060408051808201909152600c81527f6d6174636820737469636b7300000000000000000000000000000000000000006020820152611f2e565b603c82610120015160ff16108015611ddb575060828260c001518360e00151611dd69190614d6e565b60ff16115b8015611dee5750601e826020015160ff16115b15611e2d575060408051808201909152600a81527f6269726473206e657374000000000000000000000000000000000000000000006020820152611f2e565b603c82610120015160ff16108015611e5b575060828260c001518360e00151611e569190614d6e565b60ff16115b8015611e6e5750601e826020015160ff16105b15611ead575060408051808201909152600b81527f6c61736572206265616d730000000000000000000000000000000000000000006020820152611f2e565b60c882610100015160ff161115611ef8575060408051808201909152600c81527f6769616e742073746f6e657300000000000000000000000000000000000000006020820152611f2e565b5060408051808201909152600b81527f64796e617374726970657300000000000000000000000000000000000000000060208201525b600081604051602001611f4191906145bb565b60405160208183030381529060405290506000611f64846020015160ff16612ecb565b604051602001611f749190614815565b60405160208183030381529060405290506000611f97856040015160ff16612ecb565b611fa7866060015160ff16612ecb565b611fb7876080015160ff16612ecb565b611fc78860a0015160ff16612ecb565b604051602001611fda9493929190613fc9565b6040516020818303038152906040529050600081604051602001611ffe9190614544565b604051602081830303815290604052905060006120218760c0015160ff16612ecb565b6120318860e0015160ff16612ecb565b604051602001612042929190614865565b6040516020818303038152906040529050600061206688610100015160ff16612ecb565b61207789610120015160ff16612ecb565b604051602001612088929190614469565b604051602081830303815290604052905060006120ac89610140015160ff16612ecb565b6120bd8a610160015160ff16612ecb565b6040516020016120ce9291906141a6565b604051602081830303815290604052905060008787868686866040516020016120fc96959493929190614632565b6040516020818303038152906040529050600060405160200161224c907f22636f70797269676874223a2022546865206f776e6572206f6620746869732081527f4e465420697320697473206c6567616c20636f7079726967687420686f6c646560208201527f722e2042792073656c6c696e672074686973204e46542c207468652073656c6c60408201527f65722f6f776e65722061677265657320746f2061737369676e20636f7079726960608201527f67687420746f207468652062757965722e20416c6c2062757965727320616e6460808201527f2073656c6c65727320616772656520746f207061796d656e74206f6620726f7960a08201527f616c7469657320746f20746865206f726967696e616c206d696e746572206f6e60c08201527f2073616c65206f662074686520617274776f726b2e220000000000000000000060e082015260f60190565b604051602081830303815290604052905060006122688e6118c8565b90506122738e612ecb565b82848360405160200161228994939291906149ed565b6040516020818303038152906040529c50505050505050505050505050919050565b60606040518060600160405280602f8152602001614ea2602f9139905090565b600a546001600160a01b0361010090910416331461232b5760405162461bcd60e51b815260206004820181905260248201527f4f776e61626c653a2063616c6c6572206973206e6f7420746865206f776e65726044820152606401610813565b60005b815181101561239757600082828151811061235957634e487b7160e01b600052603260045260246000fd5b60209081029190910181015163ffffffff166000908152600e90915260409020805460ff19166001179055508061238f81614df8565b91505061232e565b5050565b600a546001600160a01b036101009091041633146123fb5760405162461bcd60e51b815260206004820181905260248201527f4f776e61626c653a2063616c6c6572206973206e6f7420746865206f776e65726044820152606401610813565b6001600160a01b0381166124775760405162461bcd60e51b815260206004820152602660248201527f4f776e61626c653a206e6577206f776e657220697320746865207a65726f206160448201527f64647265737300000000000000000000000000000000000000000000000000006064820152608401610813565b610ccd81612a57565b600a546001600160a01b036101009091041633146124e05760405162461bcd60e51b815260206004820181905260248201527f4f776e61626c653a2063616c6c6572206973206e6f7420746865206f776e65726044820152606401610813565b601055565b60006001600160e01b031982167f2a55205a000000000000000000000000000000000000000000000000000000001480610706575061070682613044565b600081815260046020526040902080546001600160a01b0319166001600160a01b0384169081179091558190612558826114e4565b6001600160a01b03167f8c5be1e5ebec7d5bd14f71427d1e84f3dd0314c0f7b2291e5b200ac8c7c3b92560405160405180910390a45050565b6000818152600260205260408120546001600160a01b031661260a5760405162461bcd60e51b815260206004820152602c60248201527f4552433732313a206f70657261746f7220717565727920666f72206e6f6e657860448201526b34b9ba32b73a103a37b5b2b760a11b6064820152608401610813565b6000612615836114e4565b9050806001600160a01b0316846001600160a01b031614806126505750836001600160a01b03166126458461079e565b6001600160a01b0316145b8061268057506001600160a01b0380821660009081526005602090815260408083209388168352929052205460ff165b949350505050565b826001600160a01b031661269b826114e4565b6001600160a01b0316146127175760405162461bcd60e51b815260206004820152602960248201527f4552433732313a207472616e73666572206f6620746f6b656e2074686174206960448201527f73206e6f74206f776e00000000000000000000000000000000000000000000006064820152608401610813565b6001600160a01b0382166127925760405162461bcd60e51b8152602060048201526024808201527f4552433732313a207472616e7366657220746f20746865207a65726f2061646460448201527f72657373000000000000000000000000000000000000000000000000000000006064820152608401610813565b61279d83838361304f565b6127a8600082612523565b6001600160a01b03831660009081526003602052604081208054600192906127d1908490614d57565b90915550506001600160a01b03821660009081526003602052604081208054600192906127ff908490614c5a565b909155505060008181526002602052604080822080546001600160a01b0319166001600160a01b0386811691821790925591518493918716917fddf252ad1be2c89b69c2b068fc378daa952ba7f163c4a11628f55a4df523b3ef91a4505050565b600a5460ff166128b25760405162461bcd60e51b815260206004820152601460248201527f5061757361626c653a206e6f74207061757365640000000000000000000000006044820152606401610813565b600a805460ff191690557f5db9ee0a495bf2e6ff9c91a7834c1ba4fdd244a5e8aa4e537bd38aeae4b073aa335b6040516001600160a01b03909116815260200160405180910390a1565b6123978282604051806020016040528060008152506130ad565b6000612921826114e4565b905061292f8160008461304f565b61293a600083612523565b6001600160a01b0381166000908152600360205260408120805460019290612963908490614d57565b909155505060008281526002602052604080822080546001600160a01b0319169055518391906001600160a01b038416907fddf252ad1be2c89b69c2b068fc378daa952ba7f163c4a11628f55a4df523b3ef908390a45050565b612710811115612a0f5760405162461bcd60e51b815260206004820152601a60248201527f45524332393831526f79616c746965733a20546f6f20686967680000000000006044820152606401610813565b6040805180820182526001600160a01b03938416815260208082019384526000958652600c90529320925183546001600160a01b031916921691909117825551600190910155565b600a80546001600160a01b038381166101008181027fffffffffffffffffffffff0000000000000000000000000000000000000000ff85161790945560405193909204169182907f8be0079c531659141344cd1fd0a4f28419497f9722a3daafe3b4186f6b6457e090600090a35050565b600a5460ff1615612b1b5760405162461bcd60e51b815260206004820152601060248201527f5061757361626c653a20706175736564000000000000000000000000000000006044820152606401610813565b600a805460ff191660011790557f62e78cea01bee320cd4e420270b5ea74000d11b0c9f74754ebdbfc544b05a2586128df3390565b612b5b848484612688565b612b678484848461312b565b6118c25760405162461bcd60e51b815260206004820152603260248201527f4552433732313a207472616e7366657220746f206e6f6e20455243373231526560448201527131b2b4bb32b91034b6b83632b6b2b73a32b960711b6064820152608401610813565b606080612bdc836014614ceb565b92506000612bf8612bef856103e8614c34565b61ffff16612ecb565b90506103e88461ffff161115612c88576000612c256002612c1b6103e888614d34565b612bef9190614cb6565b9050600081828485604051602001612c40949392919061492b565b6040516020818303038152906040529050600082838586604051602001612c6a94939291906140c0565b60408051601f19818403018152919052919791965090945050505050565b6000612cbe8561ffff166103e814612cb7576002612ca8876103e8614d34565b612cb29190614cb6565b612bef565b6000612ecb565b9050600081828485604051602001612cd99493929190613fc9565b6040516020818303038152906040529050600082838586604051602001612c6a949392919061472f565b805160408051602081019091526000808252606092915b6000612d28836107d0614d34565b61ffff161115612680576000612d4f8487610100015160ff1688610120015160ff16613283565b612d5a906002614ceb565b9050612d68836107d0614d34565b61ffff168161ffff161115612d8a57612d83836107d0614d34565b9050612dd8565b61010086015160ff1681612da0856107d0614d34565b612daa9190614d34565b61ffff161015612dd85780612dc1846107d0614d34565b612dcb9190614d34565b612dd59082614c34565b90505b6000612dee612de8866001614c72565b886132f1565b90506000612e06612e00876002614c72565b8961331d565b90506000612e1e612e18886003614c72565b8a613347565b90506000612e36612e3089600d614c72565b8b613347565b90506000828284604051602001612e4f93929190614041565b604051602081830303815290604052905086612e6e8961ffff16612ecb565b612e7b8861ffff16612ecb565b85888886604051602001612e959796959493929190613da9565b60408051601f198184030181529190529650612eb18689614c34565b9750612ebe60648a614c72565b9850505050505050612d1a565b606081612f0b57505060408051808201909152600181527f3000000000000000000000000000000000000000000000000000000000000000602082015290565b8160005b8115612f355780612f1f81614df8565b9150612f2e9050600a83614cd7565b9150612f0f565b60008167ffffffffffffffff811115612f5e57634e487b7160e01b600052604160045260246000fd5b6040519080825280601f01601f191660200182016040528015612f88576020820181803683370190505b509050815b851561303b57612f9e600182614d57565b90506000612fad600a88614cd7565b612fb890600a614d15565b612fc29088614d57565b612fcd906030614c91565b905060008160f81b905080848481518110612ff857634e487b7160e01b600052603260045260246000fd5b60200101907effffffffffffffffffffffffffffffffffffffffffffffffffffffffffffff1916908160001a905350613032600a89614cd7565b97505050612f8d565b50949350505050565b600061070682613434565b600a5460ff16156130a25760405162461bcd60e51b815260206004820152601060248201527f5061757361626c653a20706175736564000000000000000000000000000000006044820152606401610813565b610928838383613472565b6130b7838361352a565b6130c4600084848461312b565b6109285760405162461bcd60e51b815260206004820152603260248201527f4552433732313a207472616e7366657220746f206e6f6e20455243373231526560448201527131b2b4bb32b91034b6b83632b6b2b73a32b960711b6064820152608401610813565b60006001600160a01b0384163b1561327857604051630a85bd0160e11b81526001600160a01b0385169063150b7a029061316f903390899088908890600401614bbe565b602060405180830381600087803b15801561318957600080fd5b505af19250505080156131b9575060408051601f3d908101601f191682019092526131b691810190613c0f565b60015b61325e573d8080156131e7576040519150601f19603f3d011682016040523d82523d6000602084013e6131ec565b606091505b5080516132565760405162461bcd60e51b815260206004820152603260248201527f4552433732313a207472616e7366657220746f206e6f6e20455243373231526560448201527131b2b4bb32b91034b6b83632b6b2b73a32b960711b6064820152608401610813565b805181602001fd5b6001600160e01b031916630a85bd0160e11b149050612680565b506001949350505050565b60008261ffff168261ffff161161329b5750816132ea565b6040805163ffffffff86166020808301919091528251808303820181529183019092528051910120836132ce8185614d34565b6132dc9061ffff1683614e13565b6132e69190614c34565b9150505b9392505050565b6060600061330e848460c0015160ff168560e0015160ff16613283565b90506126808161ffff16612ecb565b6060600061333c8484610140015160ff1685610160015160ff16613283565b61330e906014614ceb565b6060600061335884600060ff613283565b9050600061337361336a866001614c72565b600060ff613283565b9050600061338561336a876002614c72565b905060006133a284876040015160ff168860a0015160ff16613678565b905060006133bf83886060015160ff168960a0015160ff16613678565b905060006133dc85896080015160ff168a60a0015160ff16613678565b90506133eb8361ffff16612ecb565b6133f88361ffff16612ecb565b6134058361ffff16612ecb565b6040516020016134179392919061426c565b604051602081830303815290604052965050505050505092915050565b60006001600160e01b031982167f780e9d6300000000000000000000000000000000000000000000000000000000148061070657506107068261370c565b6001600160a01b0383166134cd576134c881600880546000838152600960205260408120829055600182018355919091527ff3f7a9fe364faab93b216da50a3214154f22a0a2b415b23a84c8169e8b636ee30155565b6134f0565b816001600160a01b0316836001600160a01b0316146134f0576134f083826137a7565b6001600160a01b0382166135075761092881613844565b826001600160a01b0316826001600160a01b03161461092857610928828261391d565b6001600160a01b0382166135805760405162461bcd60e51b815260206004820181905260248201527f4552433732313a206d696e7420746f20746865207a65726f20616464726573736044820152606401610813565b6000818152600260205260409020546001600160a01b0316156135e55760405162461bcd60e51b815260206004820152601c60248201527f4552433732313a20746f6b656e20616c7265616479206d696e746564000000006044820152606401610813565b6135f16000838361304f565b6001600160a01b038216600090815260036020526040812080546001929061361a908490614c5a565b909155505060008181526002602052604080822080546001600160a01b0319166001600160a01b03861690811790915590518392907fddf252ad1be2c89b69c2b068fc378daa952ba7f163c4a11628f55a4df523b3ef908290a45050565b600061ffff821661368b575060006132ea565b60008361ffff168561ffff16116136d357600060ff846136ab8888614d34565b6136b59190614ceb565b6136bf9190614cb6565b90506136cb8187614c34565b915050612680565b600060ff846136e28789614d34565b6136ec9190614ceb565b6136f69190614cb6565b90506137028187614d34565b9695505050505050565b60006001600160e01b031982167f80ac58cd00000000000000000000000000000000000000000000000000000000148061376f57506001600160e01b031982167f5b5e139f00000000000000000000000000000000000000000000000000000000145b8061070657507f01ffc9a7000000000000000000000000000000000000000000000000000000006001600160e01b0319831614610706565b600060016137b48461156f565b6137be9190614d57565b600083815260076020526040902054909150808214613811576001600160a01b03841660009081526006602090815260408083208584528252808320548484528184208190558352600790915290208190555b5060009182526007602090815260408084208490556001600160a01b039094168352600681528383209183525290812055565b60085460009061385690600190614d57565b6000838152600960205260408120546008805493945090928490811061388c57634e487b7160e01b600052603260045260246000fd5b9060005260206000200154905080600883815481106138bb57634e487b7160e01b600052603260045260246000fd5b600091825260208083209091019290925582815260099091526040808220849055858252812055600880548061390157634e487b7160e01b600052603160045260246000fd5b6001900381819060005260206000200160009055905550505050565b60006139288361156f565b6001600160a01b039093166000908152600660209081526040808320868452825280832085905593825260079052919091209190915550565b80356001600160a01b038116811461397857600080fd5b919050565b803563ffffffff8116811461397857600080fd5b803560ff8116811461397857600080fd5b6000602082840312156139b3578081fd5b6132ea82613961565b600080604083850312156139ce578081fd5b6139d783613961565b91506139e560208401613961565b90509250929050565b600080600060608486031215613a02578081fd5b613a0b84613961565b9250613a1960208501613961565b9150604084013590509250925092565b60008060008060808587031215613a3e578081fd5b613a4785613961565b93506020613a56818701613961565b935060408601359250606086013567ffffffffffffffff80821115613a79578384fd5b818801915088601f830112613a8c578384fd5b813581811115613a9e57613a9e614e75565b613ab0601f8201601f19168501614c03565b91508082528984828501011115613ac5578485fd5b8084840185840137810190920192909252939692955090935050565b60008060408385031215613af3578182fd5b613afc83613961565b915060208301358015158114613b10578182fd5b809150509250929050565b60008060408385031215613b2d578182fd5b613b3683613961565b946020939093013593505050565b60006020808385031215613b56578182fd5b823567ffffffffffffffff80821115613b6d578384fd5b818501915085601f830112613b80578384fd5b813581811115613b9257613b92614e75565b8060051b9150613ba3848301614c03565b8181528481019084860184860187018a1015613bbd578788fd5b8795505b83861015613be657613bd28161397d565b835260019590950194918601918601613bc1565b5098975050505050505050565b600060208284031215613c04578081fd5b81356132ea81614e8b565b600060208284031215613c20578081fd5b81516132ea81614e8b565b600060208284031215613c3c578081fd5b813561ffff811681146132ea578182fd5b600060208284031215613c5e578081fd5b5035919050565b60008060408385031215613c77578182fd5b50508035926020909101359150565b6000806000806000806000806000806000806101808d8f031215613ca857898afd5b613cb18d61397d565b9b50613cbf60208e01613991565b9a50613ccd60408e01613991565b9950613cdb60608e01613991565b9850613ce960808e01613991565b9750613cf760a08e01613991565b9650613d0560c08e01613991565b9550613d1360e08e01613991565b9450613d226101008e01613991565b9350613d316101208e01613991565b9250613d406101408e01613991565b9150613d4f6101608e01613991565b90509295989b509295989b509295989b565b60008151808452613d79816020860160208601614d91565b601f01601f19169290920160200192915050565b60008151613d9f818560208601614d91565b9290920192915050565b60008851613dbb818460208d01614d91565b7f3c7265637420783d2700000000000000000000000000000000000000000000009083019081528851613df5816009840160208d01614d91565b7f2720793d2730272077696474683d270000000000000000000000000000000000600992909101918201528751613e33816018840160208c01614d91565b7f27206865696768743d2732303030272066696c6c3d2700000000000000000000601892909101918201528651613e7181602e840160208b01614d91565b7f27206f7061636974793d27302e38270000000000000000000000000000000000602e92909101918201527f207472616e73666f726d3d27726f746174652800000000000000000000000000603d820152613fbb613f6c613f66613f33613f2d613ede605087018c613d8d565b7f2031303030203130303029273e3c616e696d61746520626567696e3d2027307381527f27206475723d2700000000000000000000000000000000000000000000000000602082015260270190565b89613d8d565b7f6d7327206174747269627574654e616d653d2766696c6c272076616c7565733d8152602760f81b602082015260210190565b86613d8d565b7f272066696c6c3d27667265657a652720726570656174436f756e743d27696e6481527f6566696e697465272f3e3c2f726563743e000000000000000000000000000000602082015260310190565b9a9950505050505050505050565b60008551613fdb818460208a01614d91565b8083019050600160fd1b8082528651613ffb816001850160208b01614d91565b600192019182018190528551614018816002850160208a01614d91565b60029201918201528351614033816003840160208801614d91565b016003019695505050505050565b60008451614053818460208901614d91565b80830190507f3b00000000000000000000000000000000000000000000000000000000000000808252855161408f816001850160208a01614d91565b6001920191820181905284516140ac816002850160208901614d91565b600292019182015260030195945050505050565b7f783d272d000000000000000000000000000000000000000000000000000000008152600085516140f8816004850160208a01614d91565b7f2720793d272d0000000000000000000000000000000000000000000000000000600491840191820152855161413581600a840160208a01614d91565b68272077696474683d2760b81b600a9290910191820152845161415f816013840160208901614d91565b6927206865696768743d2760b01b60139290910191820152835161418a81601d840160208801614d91565b602760f81b601d9290910191820152601e019695505050505050565b7f7b2274726169745f74797065223a20227370656564206d696e222c202276616c81527f7565223a20000000000000000000000000000000000000000000000000000000602082015260008351614204816025850160208801614d91565b7f7d2c207b2274726169745f74797065223a20227370656564206d6178222c20226025918401918201526703b30b63ab2911d160c51b6045820152835161425281604d840160208801614d91565b607d60f81b604d9290910191820152604e01949350505050565b7f72676228000000000000000000000000000000000000000000000000000000008152600084516142a4816004850160208901614d91565b808301905061016160f51b80600483015285516142c8816006850160208a01614d91565b600692019182015283516142e3816008840160208801614d91565b7f29000000000000000000000000000000000000000000000000000000000000006008929091019182015260090195945050505050565b7f3c73766720786d6c6e733d27687474703a2f2f7777772e77332e6f72672f323081527f30302f737667272076696577426f783d27000000000000000000000000000000602082015260008551614378816031850160208a01614d91565b7f272073686170652d72656e646572696e673d270000000000000000000000000060319184019182015285516143b5816044840160208a01614d91565b7f273e0000000000000000000000000000000000000000000000000000000000006044929091019182015284516143f3816046840160208901614d91565b7f3c6720636c69702d706174683d2775726c28236d6173746572436c697029273e604692909101918201528351614431816066840160208801614d91565b7f3c2f673e3c2f7376673e00000000000000000000000000000000000000000000606692909101918201526070019695505050505050565b7f7b2274726169745f74797065223a2022737472697065207769647468206d696e81527f222c202276616c7565223a2000000000000000000000000000000000000000006020820152600083516144c781602c850160208801614d91565b7f7d2c207b2274726169745f74797065223a202273747269706520776964746820602c918401918201527f6d6178222c202276616c7565223a200000000000000000000000000000000000604c820152835161452a81605b840160208801614d91565b607d60f81b605b9290910191820152605c01949350505050565b7f7b2274726169745f74797065223a202274696e7420636f6c6f7572222c20227681527f616c7565223a20220000000000000000000000000000000000000000000000006020820152600082516145a2816028850160208701614d91565b61227d60f01b6028939091019283015250602a01919050565b7f7b2274726169745f74797065223a2022666f726d222c202276616c7565223a2081527f2200000000000000000000000000000000000000000000000000000000000000602082015260008251614619816021850160208701614d91565b61227d60f01b6021939091019283015250602301919050565b7f2261747472696275746573223a205b000000000000000000000000000000000081526000875161466a81600f850160208c01614d91565b808301905061016160f51b80600f830152885161468e816011850160208d01614d91565b6011920191820181905287516146ab816013850160208c01614d91565b6013920191820181905286516146c8816015850160208b01614d91565b601592019182015284516146e3816017840160208901614d91565b613fbb61470661470060178486010161016160f51b815260020190565b87613d8d565b7f5d00000000000000000000000000000000000000000000000000000000000000815260010190565b7f783d270000000000000000000000000000000000000000000000000000000000815260008551614767816003850160208a01614d91565b7f2720793d2700000000000000000000000000000000000000000000000000000060039184019182015285516147a4816008840160208a01614d91565b68272077696474683d2760b81b6008929091019182015284516147ce816011840160208901614d91565b6927206865696768743d2760b01b6011929091019182015283516147f981601b840160208801614d91565b602760f81b601b9290910191820152601c019695505050505050565b7f7b2274726169745f74797065223a20227a6f6f6d222c202276616c7565223a2081526000825161484d816020850160208701614d91565b607d60f81b6020939091019283015250602101919050565b7f7b2274726169745f74797065223a2022726f746174696f6e206d696e222c202281526703b30b63ab2911d160c51b6020820152600083516148ae816028850160208801614d91565b7f7d2c207b2274726169745f74797065223a2022726f746174696f6e206d6178226028918401918201527f2c202276616c7565223a2000000000000000000000000000000000000000000060488201528351614911816053840160208801614d91565b607d60f81b60539290910191820152605401949350505050565b7f2d00000000000000000000000000000000000000000000000000000000000000815260008551614963816001850160208a01614d91565b7f202d00000000000000000000000000000000000000000000000000000000000060019184019182015285516149a0816003840160208a01614d91565b808201915050600160fd1b80600383015285516149c4816004850160208a01614d91565b600492019182015283516149df816005840160208801614d91565b016005019695505050505050565b7f646174613a746578742f706c61696e2c7b226e616d65223a2244796e6153747281527f6970657320230000000000000000000000000000000000000000000000000000602082015260008551614a4b816026850160208a01614d91565b7f222c20226465736372697074696f6e223a226f6e2d636861696e2c2067656e656026918401918201527f7261746976652044796e615374726970657320617274776f726b222c2000000060468201528551614aae816063840160208a01614d91565b61016160f51b606392909101918201528451614ad1816065840160208901614d91565b7f2c2022696d616765223a22646174613a696d6167652f7376672b786d6c2c0000606592909101918201528351614b0f816083840160208801614d91565b61227d60f01b608392909101918201526085019695505050505050565b7f3c646566733e3c636c6970506174682069643d276d6173746572436c6970273e81527f3c72656374200000000000000000000000000000000000000000000000000000602082015260008251614b8a816026850160208701614d91565b7f2f3e3c2f636c6970506174683e3c2f646566733e0000000000000000000000006026939091019283015250603a01919050565b60006001600160a01b038087168352808616602084015250836040830152608060608301526137026080830184613d61565b6020815260006132ea6020830184613d61565b604051601f8201601f1916810167ffffffffffffffff81118282101715614c2c57614c2c614e75565b604052919050565b600061ffff808316818516808303821115614c5157614c51614e49565b01949350505050565b60008219821115614c6d57614c6d614e49565b500190565b600063ffffffff808316818516808303821115614c5157614c51614e49565b600060ff821660ff84168060ff03821115614cae57614cae614e49565b019392505050565b600061ffff80841680614ccb57614ccb614e5f565b92169190910492915050565b600082614ce657614ce6614e5f565b500490565b600061ffff80831681851681830481118215151615614d0c57614d0c614e49565b02949350505050565b6000816000190483118215151615614d2f57614d2f614e49565b500290565b600061ffff83811690831681811015614d4f57614d4f614e49565b039392505050565b600082821015614d6957614d69614e49565b500390565b600060ff821660ff841680821015614d8857614d88614e49565b90039392505050565b60005b83811015614dac578181015183820152602001614d94565b838111156118c25750506000910152565b600181811c90821680614dd157607f821691505b60208210811415614df257634e487b7160e01b600052602260045260246000fd5b50919050565b6000600019821415614e0c57614e0c614e49565b5060010190565b600082614e2257614e22614e5f565b500690565b600060ff831680614e3a57614e3a614e5f565b8060ff84160691505092915050565b634e487b7160e01b600052601160045260246000fd5b634e487b7160e01b600052601260045260246000fd5b634e487b7160e01b600052604160045260246000fd5b6001600160e01b031981168114610ccd57600080fdfe68747470733a2f2f7777772e64796e61737472697065732e636f6d2f73746f726566726f6e742d6d65746164617461a2646970667358221220b014a3297fc9480d660781e74f674021ce313efe494a1ccce904321fce56372064736f6c63430008040033",
  "linkReferences": {},
  "deployedLinkReferences": {}
}