{
  "_format": "hh-sol-artifact-1",
  "contractName": "DynaStripes",
  "sourceName": "contracts/DynaStripes.sol",
  "abi": [
    {
      "inputs": [],
      "stateMutability": "nonpayable",
      "type": "constructor"
    },
    {
      "inputs": [],
      "name": "ApprovalCallerNotOwnerNorApproved",
      "type": "error"
    },
    {
      "inputs": [],
      "name": "ApprovalQueryForNonexistentToken",
      "type": "error"
    },
    {
      "inputs": [],
      "name": "ApprovalToCurrentOwner",
      "type": "error"
    },
    {
      "inputs": [],
      "name": "ApproveToCaller",
      "type": "error"
    },
    {
      "inputs": [],
      "name": "BalanceQueryForZeroAddress",
      "type": "error"
    },
    {
      "inputs": [],
      "name": "MintToZeroAddress",
      "type": "error"
    },
    {
      "inputs": [],
      "name": "MintZeroQuantity",
      "type": "error"
    },
    {
      "inputs": [],
      "name": "OwnerIndexOutOfBounds",
      "type": "error"
    },
    {
      "inputs": [],
      "name": "OwnerQueryForNonexistentToken",
      "type": "error"
    },
    {
      "inputs": [],
      "name": "TokenIndexOutOfBounds",
      "type": "error"
    },
    {
      "inputs": [],
      "name": "TransferCallerNotOwnerNorApproved",
      "type": "error"
    },
    {
      "inputs": [],
      "name": "TransferFromIncorrectOwner",
      "type": "error"
    },
    {
      "inputs": [],
      "name": "TransferToNonERC721ReceiverImplementer",
      "type": "error"
    },
    {
      "inputs": [],
      "name": "TransferToZeroAddress",
      "type": "error"
    },
    {
      "anonymous": false,
      "inputs": [
        {
          "indexed": true,
          "internalType": "address",
          "name": "owner",
          "type": "address"
        },
        {
          "indexed": true,
          "internalType": "address",
          "name": "approved",
          "type": "address"
        },
        {
          "indexed": true,
          "internalType": "uint256",
          "name": "tokenId",
          "type": "uint256"
        }
      ],
      "name": "Approval",
      "type": "event"
    },
    {
      "anonymous": false,
      "inputs": [
        {
          "indexed": true,
          "internalType": "address",
          "name": "owner",
          "type": "address"
        },
        {
          "indexed": true,
          "internalType": "address",
          "name": "operator",
          "type": "address"
        },
        {
          "indexed": false,
          "internalType": "bool",
          "name": "approved",
          "type": "bool"
        }
      ],
      "name": "ApprovalForAll",
      "type": "event"
    },
    {
      "anonymous": false,
      "inputs": [
        {
          "indexed": true,
          "internalType": "address",
          "name": "previousOwner",
          "type": "address"
        },
        {
          "indexed": true,
          "internalType": "address",
          "name": "newOwner",
          "type": "address"
        }
      ],
      "name": "OwnershipTransferred",
      "type": "event"
    },
    {
      "anonymous": false,
      "inputs": [
        {
          "indexed": false,
          "internalType": "address",
          "name": "account",
          "type": "address"
        }
      ],
      "name": "Paused",
      "type": "event"
    },
    {
      "anonymous": false,
      "inputs": [
        {
          "indexed": true,
          "internalType": "address",
          "name": "from",
          "type": "address"
        },
        {
          "indexed": true,
          "internalType": "address",
          "name": "to",
          "type": "address"
        },
        {
          "indexed": true,
          "internalType": "uint256",
          "name": "tokenId",
          "type": "uint256"
        }
      ],
      "name": "Transfer",
      "type": "event"
    },
    {
      "anonymous": false,
      "inputs": [
        {
          "indexed": false,
          "internalType": "address",
          "name": "account",
          "type": "address"
        }
      ],
      "name": "Unpaused",
      "type": "event"
    },
    {
      "inputs": [],
      "name": "ROYALTY_BPS",
      "outputs": [
        {
          "internalType": "uint16",
          "name": "",
          "type": "uint16"
        }
      ],
      "stateMutability": "view",
      "type": "function"
    },
    {
      "inputs": [],
      "name": "TOKEN_LIMIT",
      "outputs": [
        {
          "internalType": "uint16",
          "name": "",
          "type": "uint16"
        }
      ],
      "stateMutability": "view",
      "type": "function"
    },
    {
      "inputs": [
        {
          "internalType": "address",
          "name": "to",
          "type": "address"
        },
        {
          "internalType": "uint256",
          "name": "tokenId",
          "type": "uint256"
        }
      ],
      "name": "approve",
      "outputs": [],
      "stateMutability": "nonpayable",
      "type": "function"
    },
    {
      "inputs": [
        {
          "internalType": "address",
          "name": "owner",
          "type": "address"
        }
      ],
      "name": "balanceOf",
      "outputs": [
        {
          "internalType": "uint256",
          "name": "",
          "type": "uint256"
        }
      ],
      "stateMutability": "view",
      "type": "function"
    },
    {
      "inputs": [
        {
          "internalType": "uint24[]",
          "name": "seeds",
          "type": "uint24[]"
        }
      ],
      "name": "banRandomSeeds",
      "outputs": [],
      "stateMutability": "nonpayable",
      "type": "function"
    },
    {
      "inputs": [
        {
          "internalType": "uint256",
          "name": "tokenId",
          "type": "uint256"
        }
      ],
      "name": "generateSvg",
      "outputs": [
        {
          "internalType": "string",
          "name": "",
          "type": "string"
        }
      ],
      "stateMutability": "view",
      "type": "function"
    },
    {
      "inputs": [
        {
          "internalType": "uint256",
          "name": "tokenId",
          "type": "uint256"
        }
      ],
      "name": "getApproved",
      "outputs": [
        {
          "internalType": "address",
          "name": "",
          "type": "address"
        }
      ],
      "stateMutability": "view",
      "type": "function"
    },
    {
      "inputs": [],
      "name": "getMintPrice",
      "outputs": [
        {
          "internalType": "uint256",
          "name": "",
          "type": "uint256"
        }
      ],
      "stateMutability": "view",
      "type": "function"
    },
    {
      "inputs": [],
      "name": "getTokenLimit",
      "outputs": [
        {
          "internalType": "uint16",
          "name": "",
          "type": "uint16"
        }
      ],
      "stateMutability": "view",
      "type": "function"
    },
    {
      "inputs": [
        {
          "internalType": "address",
          "name": "_owner",
          "type": "address"
        },
        {
          "internalType": "address",
          "name": "_operator",
          "type": "address"
        }
      ],
      "name": "isApprovedForAll",
      "outputs": [
        {
          "internalType": "bool",
          "name": "isOperator",
          "type": "bool"
        }
      ],
      "stateMutability": "view",
      "type": "function"
    },
    {
      "inputs": [
        {
          "internalType": "uint24",
          "name": "randomSeed",
          "type": "uint24"
        },
        {
          "internalType": "uint8",
          "name": "zoom",
          "type": "uint8"
        },
        {
          "internalType": "uint8",
          "name": "tintRed",
          "type": "uint8"
        },
        {
          "internalType": "uint8",
          "name": "tintGreen",
          "type": "uint8"
        },
        {
          "internalType": "uint8",
          "name": "tintBlue",
          "type": "uint8"
        },
        {
          "internalType": "uint8",
          "name": "tintAlpha",
          "type": "uint8"
        },
        {
          "internalType": "uint16",
          "name": "rotationDegrees",
          "type": "uint16"
        },
        {
          "internalType": "uint8",
          "name": "rotationRange",
          "type": "uint8"
        },
        {
          "internalType": "uint8",
          "name": "stripeWidthMin",
          "type": "uint8"
        },
        {
          "internalType": "uint8",
          "name": "stripeWidthMax",
          "type": "uint8"
        },
        {
          "internalType": "uint8",
          "name": "speedMin",
          "type": "uint8"
        },
        {
          "internalType": "uint8",
          "name": "speedMax",
          "type": "uint8"
        }
      ],
      "name": "mintStripes",
      "outputs": [],
      "stateMutability": "payable",
      "type": "function"
    },
    {
      "inputs": [],
      "name": "name",
      "outputs": [
        {
          "internalType": "string",
          "name": "",
          "type": "string"
        }
      ],
      "stateMutability": "view",
      "type": "function"
    },
    {
      "inputs": [],
      "name": "owner",
      "outputs": [
        {
          "internalType": "address",
          "name": "",
          "type": "address"
        }
      ],
      "stateMutability": "view",
      "type": "function"
    },
    {
      "inputs": [
        {
          "internalType": "uint256",
          "name": "tokenId",
          "type": "uint256"
        }
      ],
      "name": "ownerOf",
      "outputs": [
        {
          "internalType": "address",
          "name": "",
          "type": "address"
        }
      ],
      "stateMutability": "view",
      "type": "function"
    },
    {
      "inputs": [],
      "name": "pause",
      "outputs": [],
      "stateMutability": "nonpayable",
      "type": "function"
    },
    {
      "inputs": [],
      "name": "paused",
      "outputs": [
        {
          "internalType": "bool",
          "name": "",
          "type": "bool"
        }
      ],
      "stateMutability": "view",
      "type": "function"
    },
    {
      "inputs": [
        {
          "internalType": "uint256",
          "name": "amount",
          "type": "uint256"
        }
      ],
      "name": "payOwner",
      "outputs": [],
      "stateMutability": "nonpayable",
      "type": "function"
    },
    {
      "inputs": [],
      "name": "renounceOwnership",
      "outputs": [],
      "stateMutability": "nonpayable",
      "type": "function"
    },
    {
      "inputs": [
        {
          "internalType": "uint256",
          "name": "tokenId",
          "type": "uint256"
        },
        {
          "internalType": "uint256",
          "name": "value",
          "type": "uint256"
        }
      ],
      "name": "royaltyInfo",
      "outputs": [
        {
          "internalType": "address",
          "name": "receiver",
          "type": "address"
        },
        {
          "internalType": "uint256",
          "name": "royaltyAmount",
          "type": "uint256"
        }
      ],
      "stateMutability": "view",
      "type": "function"
    },
    {
      "inputs": [
        {
          "internalType": "address",
          "name": "from",
          "type": "address"
        },
        {
          "internalType": "address",
          "name": "to",
          "type": "address"
        },
        {
          "internalType": "uint256",
          "name": "tokenId",
          "type": "uint256"
        }
      ],
      "name": "safeTransferFrom",
      "outputs": [],
      "stateMutability": "nonpayable",
      "type": "function"
    },
    {
      "inputs": [
        {
          "internalType": "address",
          "name": "from",
          "type": "address"
        },
        {
          "internalType": "address",
          "name": "to",
          "type": "address"
        },
        {
          "internalType": "uint256",
          "name": "tokenId",
          "type": "uint256"
        },
        {
          "internalType": "bytes",
          "name": "_data",
          "type": "bytes"
        }
      ],
      "name": "safeTransferFrom",
      "outputs": [],
      "stateMutability": "nonpayable",
      "type": "function"
    },
    {
      "inputs": [
        {
          "internalType": "address",
          "name": "operator",
          "type": "address"
        },
        {
          "internalType": "bool",
          "name": "approved",
          "type": "bool"
        }
      ],
      "name": "setApprovalForAll",
      "outputs": [],
      "stateMutability": "nonpayable",
      "type": "function"
    },
    {
      "inputs": [
        {
          "internalType": "uint256",
          "name": "_mintPrice",
          "type": "uint256"
        }
      ],
      "name": "setMintPrice",
      "outputs": [],
      "stateMutability": "nonpayable",
      "type": "function"
    },
    {
      "inputs": [
        {
          "internalType": "uint16",
          "name": "limit",
          "type": "uint16"
        }
      ],
      "name": "setTokenLimit",
      "outputs": [],
      "stateMutability": "nonpayable",
      "type": "function"
    },
    {
      "inputs": [
        {
          "internalType": "bytes4",
          "name": "interfaceId",
          "type": "bytes4"
        }
      ],
      "name": "supportsInterface",
      "outputs": [
        {
          "internalType": "bool",
          "name": "",
          "type": "bool"
        }
      ],
      "stateMutability": "view",
      "type": "function"
    },
    {
      "inputs": [],
      "name": "symbol",
      "outputs": [
        {
          "internalType": "string",
          "name": "",
          "type": "string"
        }
      ],
      "stateMutability": "view",
      "type": "function"
    },
    {
      "inputs": [
        {
          "internalType": "uint256",
          "name": "index",
          "type": "uint256"
        }
      ],
      "name": "tokenByIndex",
      "outputs": [
        {
          "internalType": "uint256",
          "name": "",
          "type": "uint256"
        }
      ],
      "stateMutability": "view",
      "type": "function"
    },
    {
      "inputs": [
        {
          "internalType": "address",
          "name": "owner",
          "type": "address"
        },
        {
          "internalType": "uint256",
          "name": "index",
          "type": "uint256"
        }
      ],
      "name": "tokenOfOwnerByIndex",
      "outputs": [
        {
          "internalType": "uint256",
          "name": "",
          "type": "uint256"
        }
      ],
      "stateMutability": "view",
      "type": "function"
    },
    {
      "inputs": [
        {
          "internalType": "uint256",
          "name": "_tokenId",
          "type": "uint256"
        }
      ],
      "name": "tokenURI",
      "outputs": [
        {
          "internalType": "string",
          "name": "",
          "type": "string"
        }
      ],
      "stateMutability": "view",
      "type": "function"
    },
    {
      "inputs": [],
      "name": "totalSupply",
      "outputs": [
        {
          "internalType": "uint256",
          "name": "",
          "type": "uint256"
        }
      ],
      "stateMutability": "view",
      "type": "function"
    },
    {
      "inputs": [
        {
          "internalType": "address",
          "name": "from",
          "type": "address"
        },
        {
          "internalType": "address",
          "name": "to",
          "type": "address"
        },
        {
          "internalType": "uint256",
          "name": "tokenId",
          "type": "uint256"
        }
      ],
      "name": "transferFrom",
      "outputs": [],
      "stateMutability": "nonpayable",
      "type": "function"
    },
    {
      "inputs": [
        {
          "internalType": "address",
          "name": "newOwner",
          "type": "address"
        }
      ],
      "name": "transferOwnership",
      "outputs": [],
      "stateMutability": "nonpayable",
      "type": "function"
    },
    {
      "inputs": [],
      "name": "unpause",
      "outputs": [],
      "stateMutability": "nonpayable",
      "type": "function"
    },
    {
      "stateMutability": "payable",
      "type": "receive"
    }
  ],
  "bytecode": "0x60806040526009805461ffff19166064179055662386f26fc10000600c553480156200002a57600080fd5b50604080518082018252600d81526c44796e6153747269706573353560981b6020808301918252835180850190945260048452634453353560e01b9084015281519192918391839162000080916001916200011e565b508051620000969060029060208401906200011e565b505050620000b3620000ad620000c860201b60201c565b620000cc565b50506007805460ff60a01b1916905562000201565b3390565b600780546001600160a01b038381166001600160a01b0319831681179093556040519116919082907f8be0079c531659141344cd1fd0a4f28419497f9722a3daafe3b4186f6b6457e090600090a35050565b8280546200012c90620001c4565b90600052602060002090601f0160209004810192826200015057600085556200019b565b82601f106200016b57805160ff19168380011785556200019b565b828001600101855582156200019b579182015b828111156200019b5782518255916020019190600101906200017e565b50620001a9929150620001ad565b5090565b5b80821115620001a95760008155600101620001ae565b600181811c90821680620001d957607f821691505b60208210811415620001fb57634e487b7160e01b600052602260045260246000fd5b50919050565b6150c480620002116000396000f3fe6080604052600436106101f25760003560e01c80636352211e1161010d578063a22cb465116100a0578063bc921dc21161006f578063bc921dc21461059c578063c87b56dd146105bc578063e985e9c5146105dc578063f2fde38b146105fc578063f4a0a5281461061c57600080fd5b8063a22cb46514610534578063a6c8445a14610554578063a7f93ebd14610567578063b88d4fde1461057c57600080fd5b80638331be32116100dc5780638331be32146104cc5780638456cb59146104ec5780638da5cb5b1461050157806395d89b411461051f57600080fd5b80636352211e1461045757806370a0823114610477578063715018a61461049757806377c39a89146104ac57600080fd5b8063284855861161018557806342842e0e1161015457806342842e0e146103e257806349c657db146104025780634f6ccce7146104185780635c975abb1461043857600080fd5b806328485586146103555780632a55205a1461036e5780632f745c59146103ad5780633f4ba83a146103cd57600080fd5b806308d78c3c116101c157806308d78c3c146102b6578063095ea7b3146102d857806318160ddd146102f857806323b872dd1461033557600080fd5b806301ffc9a7146101fe578063031bd4c41461023357806306fdde031461025c578063081812fc1461027e57600080fd5b366101f957005b600080fd5b34801561020a57600080fd5b5061021e6102193660046143bc565b61063c565b60405190151581526020015b60405180910390f35b34801561023f57600080fd5b5061024961045f81565b60405161ffff909116815260200161022a565b34801561026857600080fd5b5061027161064d565b60405161022a9190614e4e565b34801561028a57600080fd5b5061029e6102993660046144e9565b6106df565b6040516001600160a01b03909116815260200161022a565b3480156102c257600080fd5b506102d66102d13660046144e9565b610723565b005b3480156102e457600080fd5b506102d66102f33660046142e4565b610804565b34801561030457600080fd5b506103276000546001600160801b03600160801b82048116918116919091031690565b60405190815260200161022a565b34801561034157600080fd5b506102d66103503660046141b7565b61088d565b34801561036157600080fd5b5060095461ffff16610249565b34801561037a57600080fd5b5061038e610389366004614501565b610898565b604080516001600160a01b03909316835260208301919091520161022a565b3480156103b957600080fd5b506103276103c83660046142e4565b6108f1565b3480156103d957600080fd5b506102d66109ee565b3480156103ee57600080fd5b506102d66103fd3660046141b7565b610a40565b34801561040e57600080fd5b506102496103e881565b34801561042457600080fd5b506103276104333660046144e9565b610a5b565b34801561044457600080fd5b50600754600160a01b900460ff1661021e565b34801561046357600080fd5b5061029e6104723660046144e9565b610b06565b34801561048357600080fd5b5061032761049236600461416b565b610b18565b3480156104a357600080fd5b506102d6610b67565b3480156104b857600080fd5b506102d66104c73660046143f4565b610bb9565b3480156104d857600080fd5b506102d66104e736600461430d565b610c2c565b3480156104f857600080fd5b506102d6610cea565b34801561050d57600080fd5b506007546001600160a01b031661029e565b34801561052b57600080fd5b50610271610d3a565b34801561054057600080fd5b506102d661054f3660046142aa565b610d49565b6102d661056236600461440e565b610ddf565b34801561057357600080fd5b50600c54610327565b34801561058857600080fd5b506102d66105973660046141f2565b61135d565b3480156105a857600080fd5b506102716105b73660046144e9565b611397565b3480156105c857600080fd5b506102716105d73660046144e9565b61158e565b3480156105e857600080fd5b5061021e6105f7366004614185565b611732565b34801561060857600080fd5b506102d661061736600461416b565b611792565b34801561062857600080fd5b506102d66106373660046144e9565b61184b565b600061064782611898565b92915050565b60606001805461065c90614f8b565b80601f016020809104026020016040519081016040528092919081815260200182805461068890614f8b565b80156106d55780601f106106aa576101008083540402835291602001916106d5565b820191906000526020600020905b8154815290600101906020018083116106b857829003601f168201915b5050505050905090565b60006106ea826118bd565b610707576040516333d1c03960e21b815260040160405180910390fd5b506000908152600560205260409020546001600160a01b031690565b6007546001600160a01b031633146107705760405162461bcd60e51b8152602060048201819052602482015260008051602061506f83398151915260448201526064015b60405180910390fd5b478111156107b25760405162461bcd60e51b815260206004820152600f60248201526e082dadeeadce840e8dede40d0d2ced608b1b6044820152606401610767565b60006107c66007546001600160a01b031690565b6040519091506001600160a01b0382169083156108fc029084906000818181858888f193505050501580156107ff573d6000803e3d6000fd5b505050565b600061080f82610b06565b9050806001600160a01b0316836001600160a01b031614156108445760405163250fdee360e21b815260040160405180910390fd5b336001600160a01b0382161480159061086457506108628133611732565b155b15610882576040516367d9dca160e11b815260040160405180910390fd5b6107ff8383836118f1565b6107ff83838361194d565b6000828152600860209081526040808320815180830190925280546001600160a01b03168083526001909101549282018390528392612710906108db9087614f06565b6108e59190614ed0565b92509250509250929050565b60006108fc83610b18565b821061091b576040516306ed618760e11b815260040160405180910390fd5b600080546001600160801b03169080805b838110156109e857600081815260036020908152604091829020825160608101845290546001600160a01b0381168252600160a01b810467ffffffffffffffff1692820192909252600160e01b90910460ff16158015928201929092529061099457506109e0565b80516001600160a01b0316156109a957805192505b876001600160a01b0316836001600160a01b031614156109de57868414156109d75750935061064792505050565b6001909301925b505b60010161092c565b50600080fd5b6007546001600160a01b03163314610a365760405162461bcd60e51b8152602060048201819052602482015260008051602061506f8339815191526044820152606401610767565b610a3e611b79565b565b6107ff8383836040518060200160405280600081525061135d565b600080546001600160801b031681805b82811015610aec57600081815260036020908152604091829020825160608101845290546001600160a01b0381168252600160a01b810467ffffffffffffffff1692820192909252600160e01b90910460ff16151591810182905290610ae35785831415610adc5750949350505050565b6001909201915b50600101610a6b565b506040516329c8c00760e21b815260040160405180910390fd5b6000610b1182611c1f565b5192915050565b60006001600160a01b038216610b41576040516323d3ad8160e21b815260040160405180910390fd5b506001600160a01b031660009081526004602052604090205467ffffffffffffffff1690565b6007546001600160a01b03163314610baf5760405162461bcd60e51b8152602060048201819052602482015260008051602061506f8339815191526044820152606401610767565b610a3e6000611d43565b6007546001600160a01b03163314610c015760405162461bcd60e51b8152602060048201819052602482015260008051602061506f8339815191526044820152606401610767565b61045f61ffff82161115610c14575061045f5b6009805461ffff191661ffff92909216919091179055565b6007546001600160a01b03163314610c745760405162461bcd60e51b8152602060048201819052602482015260008051602061506f8339815191526044820152606401610767565b60005b8151811015610ce6576001600b6000848481518110610ca657634e487b7160e01b600052603260045260246000fd5b60209081029190910181015162ffffff168252810191909152604001600020805460ff191691151591909117905580610cde81614fc6565b915050610c77565b5050565b6007546001600160a01b03163314610d325760405162461bcd60e51b8152602060048201819052602482015260008051602061506f8339815191526044820152606401610767565b610a3e611d95565b60606002805461065c90614f8b565b6001600160a01b038216331415610d735760405163b06307db60e01b815260040160405180910390fd5b3360008181526006602090815260408083206001600160a01b03871680855290835292819020805460ff191686151590811790915590519081529192917f17307eab39ab6107e8899845ad3d59bd9653f200f220920489ca2b5937696c31910160405180910390a35050565b60095460005461ffff9091166001600160801b03909116108015610e11575060005461045f6001600160801b03909116105b610e5d5760405162461bcd60e51b815260206004820152601360248201527f546f6b656e206c696d69742072656163686564000000000000000000000000006044820152606401610767565b600c54341015610ea05760405162461bcd60e51b815260206004820152600e60248201526d09cdee840cadcdeeaced0408aa8960931b6044820152606401610767565b60648b60ff161115610edf5760405162461bcd60e51b8152602060048201526008602482015267626164207a6f6f6d60c01b6044820152606401610767565b60ff8a60ff1611158015610ef7575060ff8960ff1611155b8015610f07575060ff8860ff1611155b8015610f16575060e68760ff16105b610f4e5760405162461bcd60e51b81526020600482015260096024820152683130b21031b7b637b960b91b6044820152606401610767565b6101688661ffff1611158015610f68575060b48560ff1611155b610fa35760405162461bcd60e51b815260206004820152600c60248201526b3130b2103937ba30ba34b7b760a11b6044820152606401610767565b60198460ff1610158015610fbb575060fa8360ff1611155b8015610fcd57508260ff168460ff1611155b61100c5760405162461bcd60e51b815260206004820152601060248201526f0c4c2c840e6e8e4d2e0ca40eed2c8e8d60831b6044820152606401610767565b60198260ff1610158015611024575060fa8160ff1611155b801561103657508060ff168260ff1611155b61106e5760405162461bcd60e51b8152602060048201526009602482015268189859081cdc19595960ba1b6044820152606401610767565b624c4b408c62ffffff1610801561109a575062ffffff8c166000908152600b602052604090205460ff16155b6110d85760405162461bcd60e51b815260206004820152600f60248201526e189859081c985b991bdb481cd95959608a1b6044820152606401610767565b6000546001600160801b038116906110f79061ffff16336103e8611e1d565b6040518061018001604052808e62ffffff1681526020018d60ff1681526020018c60ff1681526020018b60ff1681526020018a60ff1681526020018960ff1681526020018861ffff1681526020018760ff1681526020018660ff1681526020018560ff1681526020018460ff1681526020018360ff16815250600a60008361ffff1661ffff16815260200190815260200160002060008201518160000160006101000a81548162ffffff021916908362ffffff16021790555060208201518160000160036101000a81548160ff021916908360ff16021790555060408201518160000160046101000a81548160ff021916908360ff16021790555060608201518160000160056101000a81548160ff021916908360ff16021790555060808201518160000160066101000a81548160ff021916908360ff16021790555060a08201518160000160076101000a81548160ff021916908360ff16021790555060c08201518160000160086101000a81548161ffff021916908361ffff16021790555060e082015181600001600a6101000a81548160ff021916908360ff16021790555061010082015181600001600b6101000a81548160ff021916908360ff16021790555061012082015181600001600c6101000a81548160ff021916908360ff16021790555061014082015181600001600d6101000a81548160ff021916908360ff16021790555061016082015181600001600e6101000a81548160ff021916908360ff16021790555090505061132f336001611eb7565b50505062ffffff9099166000908152600b60205260409020805460ff19166001179055505050505050505050565b61136884848461194d565b61137484848484611ed1565b611391576040516368d2bf6b60e11b815260040160405180910390fd5b50505050565b60606113a2826118bd565b80156113af575061045f82105b6113ea5760405162461bcd60e51b815260206004820152600c60248201526b189859081d1bdad95b88125160a21b6044820152606401610767565b61ffff8083166000908152600a60209081526040808320815161018081018352905462ffffff8116825260ff63010000008204811694830185905264010000000082048116938301939093526501000000000081048316606083015266010000000000008104831660808301526701000000000000008104831660a0830152600160401b810490951660c0820152600160501b8504821660e0820152600160581b85048216610100820152600160601b85048216610120820152600160681b85048216610140820152600160701b9094041661016084015281906114cd90611fe0565b9150915060008360e0015160ff1660001461150457604051806040016040528060048152602001636175746f60e01b815250611528565b6040518060400160405280600a8152602001696372697370456467657360b01b8152505b905060008260405160200161153d9190614da1565b60405160208183030381529060405290506000611559866120fa565b90508483838360405160200161157294939291906149ad565b6040516020818303038152906040529650505050505050919050565b6060611599826118bd565b6115d85760405162461bcd60e51b815260206004820152601060248201526f125108191bd95cdb89dd08195e1a5cdd60821b6044820152606401610767565b61045f821061161c5760405162461bcd60e51b815260206004820152601060248201526f125108191bd95cdb89dd08195e1a5cdd60821b6044820152606401610767565b61ffff8083166000908152600a60209081526040808320815161018081018352905462ffffff8116825260ff6301000000820481169483019490945264010000000081048416928201929092526501000000000082048316606082015266010000000000008204831660808201526701000000000000008204831660a0820152600160401b820490941660c0850152600160501b8104821660e0850152600160581b81048216610100850152600160601b81048216610120850152600160681b81048216610140850152600160701b900416610160830152906116fe9061229d565b90506117098361231f565b8160405160200161171b929190614b82565b604051602081830303815290604052915050919050565b60006001600160a01b0382167358807bad0b376efc12f5ad86aac70e78ed67deae141561176157506001610647565b6001600160a01b0380841660009081526006602090815260408083209386168352929052205460ff165b9392505050565b6007546001600160a01b031633146117da5760405162461bcd60e51b8152602060048201819052602482015260008051602061506f8339815191526044820152606401610767565b6001600160a01b03811661183f5760405162461bcd60e51b815260206004820152602660248201527f4f776e61626c653a206e6577206f776e657220697320746865207a65726f206160448201526564647265737360d01b6064820152608401610767565b61184881611d43565b50565b6007546001600160a01b031633146118935760405162461bcd60e51b8152602060048201819052602482015260008051602061506f8339815191526044820152606401610767565b600c55565b60006001600160e01b0319821663152a902d60e11b1480610647575061064782612418565b600080546001600160801b031682108015610647575050600090815260036020526040902054600160e01b900460ff161590565b60008281526005602052604080822080546001600160a01b0319166001600160a01b0387811691821790925591518593918516917f8c5be1e5ebec7d5bd14f71427d1e84f3dd0314c0f7b2291e5b200ac8c7c3b92591a4505050565b600061195882611c1f565b80519091506000906001600160a01b0316336001600160a01b03161480611986575081516119869033611732565b806119a1575033611996846106df565b6001600160a01b0316145b9050806119c157604051632ce44b5f60e11b815260040160405180910390fd5b846001600160a01b031682600001516001600160a01b0316146119f65760405162a1148160e81b815260040160405180910390fd5b6001600160a01b038416611a1d57604051633a954ecd60e21b815260040160405180910390fd5b611a2a8585856001612423565b611a3a60008484600001516118f1565b6001600160a01b038581166000908152600460209081526040808320805467ffffffffffffffff1980821667ffffffffffffffff92831660001901831617909255898616808652838620805493841693831660019081018416949094179055898652600390945282852080546001600160e01b031916909417600160a01b429092169190910217909255908601808352912054909116611b2f576000546001600160801b0316811015611b2f578251600082815260036020908152604090912080549186015167ffffffffffffffff16600160a01b026001600160e01b03199092166001600160a01b03909316929092171790555b5082846001600160a01b0316866001600160a01b03167fddf252ad1be2c89b69c2b068fc378daa952ba7f163c4a11628f55a4df523b3ef60405160405180910390a45b5050505050565b600754600160a01b900460ff16611bd25760405162461bcd60e51b815260206004820152601460248201527f5061757361626c653a206e6f74207061757365640000000000000000000000006044820152606401610767565b6007805460ff60a01b191690557f5db9ee0a495bf2e6ff9c91a7834c1ba4fdd244a5e8aa4e537bd38aeae4b073aa335b6040516001600160a01b03909116815260200160405180910390a1565b60408051606081018252600080825260208201819052918101829052905482906001600160801b0316811015611d2a57600081815260036020908152604091829020825160608101845290546001600160a01b0381168252600160a01b810467ffffffffffffffff1692820192909252600160e01b90910460ff16151591810182905290611d285780516001600160a01b031615611cbe579392505050565b5060001901600081815260036020908152604091829020825160608101845290546001600160a01b038116808352600160a01b820467ffffffffffffffff1693830193909352600160e01b900460ff1615159281019290925215611d23579392505050565b611cbe565b505b604051636f96cda160e11b815260040160405180910390fd5b600780546001600160a01b038381166001600160a01b0319831681179093556040519116919082907f8be0079c531659141344cd1fd0a4f28419497f9722a3daafe3b4186f6b6457e090600090a35050565b600754600160a01b900460ff1615611de25760405162461bcd60e51b815260206004820152601060248201526f14185d5cd8589b194e881c185d5cd95960821b6044820152606401610767565b6007805460ff60a01b1916600160a01b1790557f62e78cea01bee320cd4e420270b5ea74000d11b0c9f74754ebdbfc544b05a258611c023390565b612710811115611e6f5760405162461bcd60e51b815260206004820152601a60248201527f45524332393831526f79616c746965733a20546f6f20686967680000000000006044820152606401610767565b6040805180820182526001600160a01b03938416815260208082019384526000958652600890529320925183546001600160a01b031916921691909117825551600190910155565b610ce6828260405180602001604052806000815250612475565b60006001600160a01b0384163b15611fd457604051630a85bd0160e11b81526001600160a01b0385169063150b7a0290611f15903390899088908890600401614e1c565b602060405180830381600087803b158015611f2f57600080fd5b505af1925050508015611f5f575060408051601f3d908101601f19168201909252611f5c918101906143d8565b60015b611fba573d808015611f8d576040519150601f19603f3d011682016040523d82523d6000602084013e611f92565b606091505b508051611fb2576040516368d2bf6b60e11b815260040160405180910390fd5b805181602001fd5b6001600160e01b031916630a85bd0160e11b149050611fd8565b5060015b949350505050565b606080611fee836014614f06565b92506000612006612001856103e8614eb8565b61231f565b90506103e884111561209257600061202f60026120256103e888614f25565b6120019190614ed0565b905060008182848560405160200161204a9493929190614c84565b6040516020818303038152906040529050600082838586604051602001612074949392919061487e565b60408051601f19818403018152919052919791965090945050505050565b60006120b5856103e8146120ae576002612025876103e8614f25565b600061231f565b90506000818284856040516020016120d0949392919061479e565b60405160208183030381529060405290506000828385866040516020016120749493929190614ace565b80516040805160208101909152600080825260609262ffffff16915b6000612124836107d0614f25565b1115611fd85760006121478487610100015160ff1688610120015160ff16612482565b612152906002614f06565b9050612160836107d0614f25565b81111561217a57612173836107d0614f25565b90506121c4565b61010086015160ff1681612190856107d0614f25565b61219a9190614f25565b10156121c457806121ad846107d0614f25565b6121b79190614f25565b6121c19082614eb8565b90505b60006121da6121d4866003614eb8565b886124e9565b90506000816121f36121ed88600d614eb8565b8a6124e9565b8360405160200161220693929190614816565b6040516020818303038152906040529050836122218661231f565b61222a8561231f565b8461223f6122398b6001614eb8565b8d612586565b61225361224d8c6002614eb8565b8e612661565b8660405160200161226a979695949392919061456a565b60408051601f1981840301815291905293506122868386614eb8565b9450612293606487614eb8565b9550505050612116565b60606122b88260a00151836101400151846101600151612696565b6122d48360400151846060015185608001518660a00151612a80565b6122f784602001518560c001518660e00151876101000151886101200151613015565b60405160200161230993929190614744565b6040516020818303038152906040529050919050565b6060816123435750506040805180820190915260018152600360fc1b602082015290565b8160005b811561235b57600101600a82049150612347565b60008167ffffffffffffffff81111561238457634e487b7160e01b600052604160045260246000fd5b6040519080825280601f01601f1916602001820160405280156123ae576020820181803683370190505b508593509050815b831561240f57600a840660300160f81b828260019003925082815181106123ed57634e487b7160e01b600052603260045260246000fd5b60200101906001600160f81b031916908160001a905350600a840493506123b6565b50949350505050565b600061064782613c48565b600754600160a01b900460ff16156124705760405162461bcd60e51b815260206004820152601060248201526f14185d5cd8589b194e881c185d5cd95960821b6044820152606401610767565b611391565b6107ff8383836001613cb3565b600082821161249257508161178b565b6000846040516020016124a791815260200190565b60408051601f1981840301815291905280516020909101209050836124cc8185614f25565b6124d69083615002565b6124e09190614eb8565b95945050505050565b606060006125126124fd85600060ff612482565b846040015160ff168560a0015160ff16613e56565b90506000612545612530612527876001614eb8565b600060ff612482565b856060015160ff168660a0015160ff16613e56565b9050600061256f61255a612527886002614eb8565b866080015160ff168760a0015160ff16613e56565b905061257c838383613e97565b9695505050505050565b6060600061259d8460008560e0015160ff16612482565b90506000816125b5575060c083015161ffff1661263f565b8360e0015160ff1682101561260a5760028460e001516125d59190614ee4565b60ff16828560c001516101686125eb9190614e92565b61ffff166125f99190614f25565b6126039190614eb8565b905061263f565b60028460e0015161261b9190614ee4565b60ff16828560c0015161ffff166126329190614eb8565b61263c9190614f25565b90505b6101688111156126585761265561016882614f25565b90505b6124e08161231f565b606060006126808484610140015160ff1685610160015160ff16612482565b61268b906014614f06565b9050611fd88161231f565b60608060828560ff161180156126af575060dc8460ff16115b156126d857506040805180820190915260078152661b185b99dd5a5960ca1b6020820152611fd8565b60828560ff161180156126ee575060c88460ff16115b1561271a575060408051808201909152600a8152693832b232b9ba3934b0b760b11b6020820152611fd8565b60198360ff1611158015612731575060b48560ff16105b1561275857506040805180820190915260058152646d616e696360d81b60208201526129dd565b8260ff168460ff1614156127ed57601e8360ff1610156127975750604080518082019091526008815267626c696e6b696e6760c01b60208201526129dd565b60c88360ff1611156127c957506040805180820190915260098152687468726f6262696e6760b81b60208201526129dd565b5060408051808201909152600781526670756c73696e6760c81b60208201526129dd565b60238360ff16101561281e5750604080518082019091526008815267666c617368696e6760c01b60208201526129dd565b60468360ff161015612851575060408051808201909152600a815269666c69636b6572696e6760b01b60208201526129dd565b60698360ff1610156128835750604080518082019091526009815268717569766572696e6760b81b60208201526129dd565b60968360ff1610156128b55750604080518082019091526009815268766962726174696e6760b81b60208201526129dd565b60c88460ff1611156128e8575060408051808201909152600a8152696d65616e646572696e6760b01b60208201526129dd565b60968460ff16111561291957506040805180820190915260088152676472696674696e6760c01b60208201526129dd565b60788460ff1611156129495750604080518082019091526007815266666c6f77696e6760c81b60208201526129dd565b60648460ff16111561297a57506040805180820190915260088152677368696674696e6760c01b60208201526129dd565b60966129868585614f3c565b60ff1611156129b9575060408051808201909152600d81526c7363696e74696c6c6174696e6760981b60208201526129dd565b5060408051808201909152600b81526a6f7363696c6c6174696e6760a81b60208201525b60d58560ff161115612a1057806040516020016129fa9190614d42565b6040516020818303038152906040529050611fd8565b60c88560ff161115612a2d57806040516020016129fa9190614d71565b60148560ff161015612a4a57806040516020016129fa9190614848565b60328560ff161015611fd85780604051602001612a679190614d0f565b6040516020818303038152906040529050949350505050565b606080607f8360ff161115612f2d57609660c860ff8516118015612aa7575060328760ff16105b8015612ab6575060328660ff16105b8015612ac5575060328560ff16105b15612af05760405180604001604052806006815260200165676c6f6f6d7960d01b8152509150612f27565b60c88460ff16118015612b06575060c88760ff16115b8015612b15575060c88660ff16115b8015612b24575060c88560ff16115b15612b4d576040518060400160405280600481526020016370616c6560e01b8152509150612f27565b8560ff168760ff16118015612b6e575080612b688789614f3c565b60ff1610155b8015612b7f57508460ff168760ff16115b8015612b97575080612b918689614f3c565b60ff1610155b15612bbf57604051806040016040528060038152602001621c995960ea1b8152509150612f27565b8660ff168660ff16118015612bd5575060ff8516155b15612bff576040518060400160405280600581526020016433b932b2b760d91b8152509150612f27565b8660ff168660ff16118015612c20575080612c1a8888614f3c565b60ff1610155b8015612c3157508460ff168660ff16115b8015612c49575080612c438688614f3c565b60ff1610155b15612c73576040518060400160405280600581526020016433b932b2b760d91b8152509150612f27565b8660ff168560ff16118015612c94575080612c8e8887614f3c565b60ff1610155b8015612ca557508560ff168560ff16115b8015612cbd575080612cb78787614f3c565b60ff1610155b15612ce65760405180604001604052806004815260200163626c756560e01b8152509150612f27565b8660ff1660ff148015612cfa575060ff8616155b8015612d09575060648560ff16115b15612d32576040518060400160405280600481526020016370696e6b60e01b8152509150612f27565b8560ff168760ff16118015612d53575080612d4d8789614f3c565b60ff1610155b8015612d6457508560ff168560ff16115b8015612d7c575080612d768787614f3c565b60ff1610155b8015612d8b575060c88760ff16115b15612db65760405180604001604052806006815260200165707572706c6560d01b8152509150612f27565b8660ff1660ff148015612dca575060ff8516155b8015612dd9575060c88660ff16115b15612e04576040518060400160405280600681526020016579656c6c6f7760d01b8152509150612f27565b8660ff1660ff148015612e18575060ff8516155b15612e4357604051806040016040528060068152602001656f72616e676560d01b8152509150612f27565b60ff8716158015612e57575060c88660ff16105b8015612e6657508460ff1660ff145b15612e8f5760405180604001604052806004815260200163626c756560e01b8152509150612f27565b8660ff168560ff16118015612eb0575080612eaa8887614f3c565b60ff1610155b8015612ec157508660ff168660ff16115b8015612ed9575080612ed38888614f3c565b60ff1610155b15612f02576040518060400160405280600481526020016331bcb0b760e11b8152509150612f27565b604051806040016040528060098152602001681cd85d1d5c985d195960ba1b81525091505b506124e0565b60ff8316612f5f575060408051808201909152600d81526c6b616c6569646f73636f70696360981b60208201526124e0565b60198360ff161015612f9157506040805180820190915260098152686368726f6d6174696360b81b60208201526124e0565b60328360ff161015612fbf57506040805180820190915260058152641d9a5d9a5960da1b60208201526124e0565b60558360ff161015612fee57506040805180820190915260068152651d1a5b99d95960d21b60208201526124e0565b506040805180820190915260068152651d1a5b9d195960d21b602082015295945050505050565b60608061302360b487614fe1565b955060ff85166131dc5760328760ff1611801561304c5750613046605a87614fe1565b61ffff16155b1561307c575060408051808201909152600e81526d706572666563742073717561726560901b602082015261257c565b605b8760ff161180156130a157508561ffff16602d14806130a157508561ffff166087145b156130d2575060408051808201909152600f81526e1c195c999958dd08191a585b5bdb99608a1b602082015261257c565b60328760ff16111580156130e8575061ffff8616155b1561311a575060408051808201909152601081526f766572746963616c207374726970657360801b602082015261257c565b60328760ff161115801561313a5750613134605a87614fe1565b61ffff16155b15613179575060408051808201909152601281527f686f72697a6f6e74616c20737472697065730000000000000000000000000000602082015261257c565b60198760ff16116131b1575060408051808201909152601081526f646961676f6e616c207374726970657360801b602082015261257c565b5060408051808201909152600e81526d726f74617465642073717561726560901b602082015261257c565b601e8760ff1610156134265760148760ff161080156131fe575060468460ff16115b801561320d5750603c8560ff16105b801561321c5750600a8560ff16115b156132455750604080518082019091526007815266726962626f6e7360c81b602082015261257c565b60148760ff1610801561325b5750601e8560ff16105b801561326a575060c88460ff16115b15613293575060408051808201909152600781526662616e6e65727360c81b602082015261257c565b60148760ff161080156132a95750604b8360ff16105b80156132b85750603c8560ff16105b80156132c75750600a8560ff16115b156132f2575060408051808201909152600981526873747265616d65727360b81b602082015261257c565b603c8360ff16108015613308575060828560ff16115b15613335575060408051808201909152600b81526a6c61736572206265616d7360a81b602082015261257c565b60788360ff1610801561334d5750602d8661ffff1610155b801561335d575060878661ffff16105b1561338457506040805180820190915260058152646265616d7360d81b602082015261257c565b60788360ff1610801561339a5750605a8560ff16105b156133c15750604080518082019091526005815264706f6c657360d81b602082015261257c565b602d8661ffff16101580156133da575060878661ffff16105b15613403575060408051808201909152600781526673747265616b7360c81b602082015261257c565b5060408051808201909152600681526573686166747360d01b602082015261257c565b60328760ff1611801561343c5750603c8360ff16105b801561344b5750601e8560ff16105b15613479575060408051808201909152600c81526b6d6174636820737469636b7360a01b602082015261257c565b60328760ff1611801561348f5750603c8360ff16105b801561349e5750603c8560ff16105b156134dd575060408051808201909152601681527f736361747465726564206d6174636820737469636b7300000000000000000000602082015261257c565b60328760ff161180156134f3575060468460ff16115b80156135025750606e8360ff16105b80156135115750600a8560ff16115b8015613520575060288560ff16105b156135475750604080518082019091526005815264747769677360d81b602082015261257c565b60328760ff1611801561355d575060468460ff16115b801561356c5750606e8360ff16105b801561357b5750600a8560ff16115b801561358a5750603c8560ff16105b156135bb575060408051808201909152600f81526e73636174746572656420747769677360881b602082015261257c565b60508760ff161180156135d15750603c8360ff16105b80156135e0575060828560ff16115b1561360c575060408051808201909152600a815269189a5c991cc81b995cdd60b21b602082015261257c565b60468760ff16118015613622575060468560ff16105b8015613631575060c88460ff16115b8015613651575060198661ffff161115806136515750609b8661ffff1610155b1561367a575060408051808201909152600781526670696c6c61727360c81b602082015261257c565b60468760ff16118015613690575060468560ff16105b801561369f575060c88460ff16115b80156136c0575060738661ffff16111580156136c0575060418661ffff1610155b156136e85750604080518082019091526006815265627269636b7360d01b602082015261257c565b60378760ff161180156136fe575060468460ff16115b801561370e575060058560ff1610155b801561371e5750601e8560ff1611155b801561373e5750600a8661ffff1611158061373e575060aa8661ffff1610155b1561376f575060408051808201909152600f81526e636c7574746572656420626f6f6b7360881b602082015261257c565b60378760ff16118015613785575060468460ff16115b80156137955750601e8560ff1611155b80156137a6575060508661ffff1610155b80156137b7575060648661ffff1611155b156137e6575060408051808201909152600d81526c737461636b656420626f6f6b7360981b602082015261257c565b60378760ff161180156137fc575060468460ff16115b801561380b5750603c8560ff16105b801561381c575060328661ffff1610155b801561382d575060828661ffff1611155b1561385d575060408051808201909152600e81526d74756d626c696e6720626f6f6b7360901b602082015261257c565b60378760ff16118015613873575060328460ff16115b8015613882575060968360ff16105b8015613891575060328560ff16105b80156138a2575060508661ffff1610155b80156138b3575060648661ffff1611155b156138e2575060408051808201909152600d81526c313937b5b2b7103630b23232b960991b602082015261257c565b60378760ff161180156138f85750600a8560ff16115b80156139075750603c8560ff16105b8015613918575060328661ffff1610155b8015613929575060828661ffff1611155b80156139425750609661393c8585614f3c565b60ff1610155b15613981575060408051808201909152601381527f636f6c6c617073696e67206275696c64696e6700000000000000000000000000602082015261257c565b60198460ff16118015613997575060c88360ff16105b80156139a75750600f8560ff1611155b156139d057506040805180820190915260078152666a69747465727360c81b602082015261257c565b60198460ff161180156139e6575060c88360ff16105b80156139f65750602d8560ff1611155b15613a1f5750604080518082019091526007815266776f62626c657360c81b602082015261257c565b60328760ff16118015613a35575060c88460ff16115b15613a5d5750604080518082019091526006815265626c6f636b7360d01b602082015261257c565b605a8760ff16118015613a7d57506096613a778585614f3c565b60ff1610155b8015613a8c575060968560ff16115b15613ab9575060408051808201909152600b81526a6d6173746572706965636560a81b602082015261257c565b60648560ff16118015613acf575060968360ff16105b15613af757506040805180820190915260068152656c756e61637960d01b602082015261257c565b603c8560ff16108015613b0d575060968460ff16115b15613b3a575060408051808201909152600b81526a7472616e7175696c69747960a81b602082015261257c565b60788460ff161115613b6757506040805180820190915260048152636261727360e01b602082015261257c565b60648360ff16108015613b7d5750603c8560ff16115b15613bae575060408051808201909152600f81526e736361747465726564206c696e657360881b602082015261257c565b60648360ff161015613bdc57506040805180820190915260058152646c696e657360d81b602082015261257c565b60288760ff16118015613bf25750605a8560ff16115b15613c1b57506040805180820190915260078152667265766572696560c81b602082015261257c565b5060408051808201909152600b81526a30b139ba3930b1ba34b7b760a91b60208201529695505050505050565b60006001600160e01b031982166380ac58cd60e01b1480613c7957506001600160e01b03198216635b5e139f60e01b145b80613c9457506001600160e01b0319821663780e9d6360e01b145b8061064757506301ffc9a760e01b6001600160e01b0319831614610647565b6000546001600160801b03166001600160a01b038516613ce557604051622e076360e81b815260040160405180910390fd5b83613d035760405163b562e8dd60e01b815260040160405180910390fd5b613d106000868387612423565b6001600160a01b038516600081815260046020908152604080832080546fffffffffffffffffffffffffffffffff19811667ffffffffffffffff8083168c018116918217600160401b67ffffffffffffffff1990941690921783900481168c018116909202179091558584526003909252822080546001600160e01b031916909317600160a01b42909216919091021790915581905b85811015613e275760405182906001600160a01b038916906000907fddf252ad1be2c89b69c2b068fc378daa952ba7f163c4a11628f55a4df523b3ef908290a4838015613dfd5750613dfb6000888488611ed1565b155b15613e1b576040516368d2bf6b60e11b815260040160405180910390fd5b60019182019101613da6565b50600080546fffffffffffffffffffffffffffffffff19166001600160801b0392909216919091179055611b72565b600081613e67575060ff831661178b565b6000838511613e80575060ff8484038302048401613e8c565b5060ff83850383020484035b60ff16949350505050565b6060613ea284613ede565b613eab84613ede565b613eb484613ede565b604051602001613ec693929190614934565b60405160208183030381529060405290509392505050565b60606101008210613f215760405162461bcd60e51b815260206004820152600d60248201526c696e70757420746f6f2062696760981b6044820152606401610767565b81613f435750506040805180820190915260018152600360fc1b602082015290565b6060600a831015613fb55760408051600180825281830190925290602082018180368337019050509050600a835b0660300160f81b81600081518110613f9957634e487b7160e01b600052603260045260246000fd5b60200101906001600160f81b031916908160001a905350610647565b60648310156140295760408051600280825281830190925290602082018180368337019050509050600a830660300160f81b8160018151811061400857634e487b7160e01b600052603260045260246000fd5b60200101906001600160f81b031916908160001a905350600a808404613f71565b60408051600380825281830190925290602082018180368337019050509050600a830660300160f81b8160028151811061407357634e487b7160e01b600052603260045260246000fd5b60200101906001600160f81b031916908160001a905350600a8084040660300160f81b816001815181106140b757634e487b7160e01b600052603260045260246000fd5b60200101906001600160f81b031916908160001a905350600a606484040660300160f81b816000815181106140fc57634e487b7160e01b600052603260045260246000fd5b60200101906001600160f81b031916908160001a90535092915050565b80356001600160a01b038116811461413057600080fd5b919050565b803561ffff8116811461413057600080fd5b803562ffffff8116811461413057600080fd5b803560ff8116811461413057600080fd5b60006020828403121561417c578081fd5b61178b82614119565b60008060408385031215614197578081fd5b6141a083614119565b91506141ae60208401614119565b90509250929050565b6000806000606084860312156141cb578081fd5b6141d484614119565b92506141e260208501614119565b9150604084013590509250925092565b60008060008060808587031215614207578081fd5b61421085614119565b9350602061421f818701614119565b935060408601359250606086013567ffffffffffffffff80821115614242578384fd5b818801915088601f830112614255578384fd5b81358181111561426757614267615042565b614279601f8201601f19168501614e61565b9150808252898482850101111561428e578485fd5b8084840185840137810190920192909252939692955090935050565b600080604083850312156142bc578182fd5b6142c583614119565b9150602083013580151581146142d9578182fd5b809150509250929050565b600080604083850312156142f6578182fd5b6142ff83614119565b946020939093013593505050565b6000602080838503121561431f578182fd5b823567ffffffffffffffff80821115614336578384fd5b818501915085601f830112614349578384fd5b81358181111561435b5761435b615042565b8060051b915061436c848301614e61565b8181528481019084860184860187018a1015614386578788fd5b8795505b838610156143af5761439b81614147565b83526001959095019491860191860161438a565b5098975050505050505050565b6000602082840312156143cd578081fd5b813561178b81615058565b6000602082840312156143e9578081fd5b815161178b81615058565b600060208284031215614405578081fd5b61178b82614135565b6000806000806000806000806000806000806101808d8f031215614430578788fd5b6144398d614147565b9b5061444760208e0161415a565b9a5061445560408e0161415a565b995061446360608e0161415a565b985061447160808e0161415a565b975061447f60a08e0161415a565b965061448d60c08e01614135565b955061449b60e08e0161415a565b94506144aa6101008e0161415a565b93506144b96101208e0161415a565b92506144c86101408e0161415a565b91506144d76101608e0161415a565b90509295989b509295989b509295989b565b6000602082840312156144fa578081fd5b5035919050565b60008060408385031215614513578182fd5b50508035926020909101359150565b6000815180845261453a816020860160208601614f5f565b601f01601f19169290920160200192915050565b60008151614560818560208601614f5f565b9290920192915050565b6000885161457c818460208d01614f5f565b683c7265637420783d2760b81b90830190815288516145a2816009840160208d01614f5f565b6e2720793d2730272077696474683d2760881b6009929091019182015287516145d2816018840160208c01614f5f565b7f27206865696768743d2732303030272066696c6c3d270000000000000000000060189290910191820152865161461081602e840160208b01614f5f565b6e27206f7061636974793d27302e382760881b602e92909101918201527f207472616e73666f726d3d27726f746174652800000000000000000000000000603d8201526147366146e76146e16146ae6146a861466f605087018c61454e565b7f2031303030203130303029273e3c616e696d61746520626567696e3d2027307381526627206475723d2760c81b602082015260270190565b8961454e565b7f6d7327206174747269627574654e616d653d2766696c6c272076616c7565733d8152602760f81b602082015260210190565b8661454e565b7f3b272066696c6c3d27667265657a652720726570656174436f756e743d27696e81527f646566696e697465272f3e3c2f726563743e0000000000000000000000000000602082015260320190565b9a9950505050505050505050565b60008451614756818460208901614f5f565b8083019050600160fd1b8082528551614776816001850160208a01614f5f565b60019201918201528351614791816002840160208801614f5f565b0160020195945050505050565b600085516147b0818460208a01614f5f565b8083019050600160fd1b80825286516147d0816001850160208b01614f5f565b6001920191820181905285516147ed816002850160208a01614f5f565b60029201918201528351614808816003840160208801614f5f565b016003019695505050505050565b60008451614828818460208901614f5f565b8083019050603b60f81b8082528551614776816001850160208a01614f5f565b6d036b0b3b734b334b1b2b73a363c960951b81526000825161487181600e850160208701614f5f565b91909101600e0192915050565b63783d272d60e01b81526000855161489d816004850160208a01614f5f565b652720793d272d60d01b60049184019182015285516148c381600a840160208a01614f5f565b68272077696474683d2760b81b600a929091019182015284516148ed816013840160208901614f5f565b6927206865696768743d2760b01b60139290910191820152835161491881601d840160208801614f5f565b602760f81b601d9290910191820152601e019695505050505050565b630e4cec4560e31b815260008451614953816004850160208901614f5f565b808301905061016160f51b8060048301528551614977816006850160208a01614f5f565b60069201918201528351614992816008840160208801614f5f565b602960f81b6008929091019182015260090195945050505050565b7f3c73766720786d6c6e733d27687474703a2f2f7777772e77332e6f72672f323081527f30302f737667272076696577426f783d27000000000000000000000000000000602082015260008551614a0b816031850160208a01614f5f565b7f272073686170652d72656e646572696e673d27000000000000000000000000006031918401918201528551614a48816044840160208a01614f5f565b61139f60f11b604492909101918201528451614a6b816046840160208901614f5f565b7f3c6720636c69702d706174683d2775726c28236d6173746572436c697029273e604692909101918201528351614aa9816066840160208801614f5f565b691e17b39f1e17b9bb339f60b11b606692909101918201526070019695505050505050565b62783d2760e81b815260008551614aec816003850160208a01614f5f565b642720793d2760d81b6003918401918201528551614b11816008840160208a01614f5f565b68272077696474683d2760b81b600892909101918201528451614b3b816011840160208901614f5f565b6927206865696768743d2760b01b601192909101918201528351614b6681601b840160208801614f5f565b602760f81b601b9290910191820152601c019695505050505050565b7f646174613a746578742f706c61696e2c7b226e616d65223a2244532023000000815260008351614bba81601d850160208801614f5f565b6101d160f51b601d918401918201528351614bdc81601f840160208801614f5f565b7f222c20226465736372697074696f6e223a226f6e2d636861696e2067656e6572601f92909101918201527f61746976652044796e615374726970657320617274776f726b222c2000000000603f8201527f2c2022696d616765223a22687474703a2f2f7777772e64796e61737472697065605b8201527f732e636f6d2f64796e6173616d706c652e737667227d00000000000000000000607b820152609101949350505050565b602d60f81b815260008551614ca0816001850160208a01614f5f565b61202d60f01b6001918401918201528551614cc2816003840160208a01614f5f565b808201915050600160fd1b8060038301528551614ce6816004850160208a01614f5f565b60049201918201528351614d01816005840160208801614f5f565b016005019695505050505050565b6a03837bbb2b9333ab6363c960ad1b815260008251614d3581600b850160208701614f5f565b91909101600b0192915050565b66033b2b73a363c960cd1b815260008251614d64816007850160208701614f5f565b9190910160070192915050565b6703a32b834b2363c960c51b815260008251614d94816008850160208701614f5f565b9190910160080192915050565b7f3c646566733e3c636c6970506174682069643d276d6173746572436c6970273e81526501e3932b1ba160d51b602082015260008251614de8816026850160208701614f5f565b7f2f3e3c2f636c6970506174683e3c2f646566733e0000000000000000000000006026939091019283015250603a01919050565b60006001600160a01b0380871683528086166020840152508360408301526080606083015261257c6080830184614522565b60208152600061178b6020830184614522565b604051601f8201601f1916810167ffffffffffffffff81118282101715614e8a57614e8a615042565b604052919050565b600061ffff808316818516808303821115614eaf57614eaf615016565b01949350505050565b60008219821115614ecb57614ecb615016565b500190565b600082614edf57614edf61502c565b500490565b600060ff831680614ef757614ef761502c565b8060ff84160491505092915050565b6000816000190483118215151615614f2057614f20615016565b500290565b600082821015614f3757614f37615016565b500390565b600060ff821660ff841680821015614f5657614f56615016565b90039392505050565b60005b83811015614f7a578181015183820152602001614f62565b838111156113915750506000910152565b600181811c90821680614f9f57607f821691505b60208210811415614fc057634e487b7160e01b600052602260045260246000fd5b50919050565b6000600019821415614fda57614fda615016565b5060010190565b600061ffff80841680614ff657614ff661502c565b92169190910692915050565b6000826150115761501161502c565b500690565b634e487b7160e01b600052601160045260246000fd5b634e487b7160e01b600052601260045260246000fd5b634e487b7160e01b600052604160045260246000fd5b6001600160e01b03198116811461184857600080fdfe4f776e61626c653a2063616c6c6572206973206e6f7420746865206f776e6572a2646970667358221220858836c1aa3ab9327101c349c559a5c090826c715bfdd1b67c1ca02b1afe5c6f64736f6c63430008040033",
  "linkReferences": {},
  "deployedLinkReferences": {}
}