{
  "_format": "hh-sol-artifact-1",
  "contractName": "DynaStripes",
  "sourceName": "contracts/DynaStripes.sol",
  "abi": [
    {
      "inputs": [],
      "stateMutability": "nonpayable",
      "type": "constructor"
    },
    {
      "anonymous": false,
      "inputs": [
        {
          "indexed": true,
          "internalType": "address",
          "name": "owner",
          "type": "address"
        },
        {
          "indexed": true,
          "internalType": "address",
          "name": "approved",
          "type": "address"
        },
        {
          "indexed": true,
          "internalType": "uint256",
          "name": "tokenId",
          "type": "uint256"
        }
      ],
      "name": "Approval",
      "type": "event"
    },
    {
      "anonymous": false,
      "inputs": [
        {
          "indexed": true,
          "internalType": "address",
          "name": "owner",
          "type": "address"
        },
        {
          "indexed": true,
          "internalType": "address",
          "name": "operator",
          "type": "address"
        },
        {
          "indexed": false,
          "internalType": "bool",
          "name": "approved",
          "type": "bool"
        }
      ],
      "name": "ApprovalForAll",
      "type": "event"
    },
    {
      "anonymous": false,
      "inputs": [
        {
          "indexed": true,
          "internalType": "address",
          "name": "previousOwner",
          "type": "address"
        },
        {
          "indexed": true,
          "internalType": "address",
          "name": "newOwner",
          "type": "address"
        }
      ],
      "name": "OwnershipTransferred",
      "type": "event"
    },
    {
      "anonymous": false,
      "inputs": [
        {
          "indexed": false,
          "internalType": "address",
          "name": "account",
          "type": "address"
        }
      ],
      "name": "Paused",
      "type": "event"
    },
    {
      "anonymous": false,
      "inputs": [
        {
          "indexed": true,
          "internalType": "address",
          "name": "from",
          "type": "address"
        },
        {
          "indexed": true,
          "internalType": "address",
          "name": "to",
          "type": "address"
        },
        {
          "indexed": true,
          "internalType": "uint256",
          "name": "tokenId",
          "type": "uint256"
        }
      ],
      "name": "Transfer",
      "type": "event"
    },
    {
      "anonymous": false,
      "inputs": [
        {
          "indexed": false,
          "internalType": "address",
          "name": "account",
          "type": "address"
        }
      ],
      "name": "Unpaused",
      "type": "event"
    },
    {
      "inputs": [],
      "name": "BASE_MINT_PRICE",
      "outputs": [
        {
          "internalType": "uint256",
          "name": "",
          "type": "uint256"
        }
      ],
      "stateMutability": "view",
      "type": "function"
    },
    {
      "inputs": [],
      "name": "ROYALTY_BPS",
      "outputs": [
        {
          "internalType": "uint16",
          "name": "",
          "type": "uint16"
        }
      ],
      "stateMutability": "view",
      "type": "function"
    },
    {
      "inputs": [],
      "name": "TOKEN_LIMIT",
      "outputs": [
        {
          "internalType": "uint16",
          "name": "",
          "type": "uint16"
        }
      ],
      "stateMutability": "view",
      "type": "function"
    },
    {
      "inputs": [
        {
          "internalType": "address",
          "name": "to",
          "type": "address"
        },
        {
          "internalType": "uint256",
          "name": "tokenId",
          "type": "uint256"
        }
      ],
      "name": "approve",
      "outputs": [],
      "stateMutability": "nonpayable",
      "type": "function"
    },
    {
      "inputs": [
        {
          "internalType": "address",
          "name": "owner",
          "type": "address"
        }
      ],
      "name": "balanceOf",
      "outputs": [
        {
          "internalType": "uint256",
          "name": "",
          "type": "uint256"
        }
      ],
      "stateMutability": "view",
      "type": "function"
    },
    {
      "inputs": [
        {
          "internalType": "uint256",
          "name": "tokenId",
          "type": "uint256"
        }
      ],
      "name": "burn",
      "outputs": [],
      "stateMutability": "nonpayable",
      "type": "function"
    },
    {
      "inputs": [],
      "name": "currentMintPrice",
      "outputs": [
        {
          "internalType": "uint256",
          "name": "",
          "type": "uint256"
        }
      ],
      "stateMutability": "view",
      "type": "function"
    },
    {
      "inputs": [
        {
          "internalType": "uint256",
          "name": "_tokenId",
          "type": "uint256"
        }
      ],
      "name": "generateSvg",
      "outputs": [
        {
          "internalType": "string",
          "name": "",
          "type": "string"
        }
      ],
      "stateMutability": "view",
      "type": "function"
    },
    {
      "inputs": [
        {
          "internalType": "uint256",
          "name": "tokenId",
          "type": "uint256"
        }
      ],
      "name": "getApproved",
      "outputs": [
        {
          "internalType": "address",
          "name": "",
          "type": "address"
        }
      ],
      "stateMutability": "view",
      "type": "function"
    },
    {
      "inputs": [
        {
          "internalType": "address",
          "name": "owner",
          "type": "address"
        },
        {
          "internalType": "address",
          "name": "operator",
          "type": "address"
        }
      ],
      "name": "isApprovedForAll",
      "outputs": [
        {
          "internalType": "bool",
          "name": "",
          "type": "bool"
        }
      ],
      "stateMutability": "view",
      "type": "function"
    },
    {
      "inputs": [],
      "name": "isSenderOwner",
      "outputs": [
        {
          "internalType": "bool",
          "name": "",
          "type": "bool"
        }
      ],
      "stateMutability": "view",
      "type": "function"
    },
    {
      "inputs": [
        {
          "internalType": "uint32",
          "name": "_randomSeed",
          "type": "uint32"
        },
        {
          "internalType": "uint8",
          "name": "_rotationDegreesMin",
          "type": "uint8"
        },
        {
          "internalType": "uint8",
          "name": "_rotationDegreesMax",
          "type": "uint8"
        },
        {
          "internalType": "uint8",
          "name": "_stripeWidthMin",
          "type": "uint8"
        },
        {
          "internalType": "uint8",
          "name": "_stripeWidthMax",
          "type": "uint8"
        },
        {
          "internalType": "uint8",
          "name": "_paletteMin",
          "type": "uint8"
        },
        {
          "internalType": "uint8",
          "name": "_paletteMax",
          "type": "uint8"
        },
        {
          "internalType": "uint8",
          "name": "_speedMin",
          "type": "uint8"
        },
        {
          "internalType": "uint8",
          "name": "_speedMax",
          "type": "uint8"
        }
      ],
      "name": "mintStripes",
      "outputs": [],
      "stateMutability": "payable",
      "type": "function"
    },
    {
      "inputs": [],
      "name": "name",
      "outputs": [
        {
          "internalType": "string",
          "name": "",
          "type": "string"
        }
      ],
      "stateMutability": "view",
      "type": "function"
    },
    {
      "inputs": [],
      "name": "owner",
      "outputs": [
        {
          "internalType": "address",
          "name": "",
          "type": "address"
        }
      ],
      "stateMutability": "view",
      "type": "function"
    },
    {
      "inputs": [
        {
          "internalType": "uint256",
          "name": "tokenId",
          "type": "uint256"
        }
      ],
      "name": "ownerOf",
      "outputs": [
        {
          "internalType": "address",
          "name": "",
          "type": "address"
        }
      ],
      "stateMutability": "view",
      "type": "function"
    },
    {
      "inputs": [],
      "name": "pause",
      "outputs": [],
      "stateMutability": "nonpayable",
      "type": "function"
    },
    {
      "inputs": [],
      "name": "paused",
      "outputs": [
        {
          "internalType": "bool",
          "name": "",
          "type": "bool"
        }
      ],
      "stateMutability": "view",
      "type": "function"
    },
    {
      "inputs": [
        {
          "internalType": "uint256",
          "name": "amount",
          "type": "uint256"
        }
      ],
      "name": "payOwner",
      "outputs": [],
      "stateMutability": "payable",
      "type": "function"
    },
    {
      "inputs": [],
      "name": "renounceOwnership",
      "outputs": [],
      "stateMutability": "nonpayable",
      "type": "function"
    },
    {
      "inputs": [
        {
          "internalType": "uint256",
          "name": "tokenId",
          "type": "uint256"
        },
        {
          "internalType": "uint256",
          "name": "value",
          "type": "uint256"
        }
      ],
      "name": "royaltyInfo",
      "outputs": [
        {
          "internalType": "address",
          "name": "receiver",
          "type": "address"
        },
        {
          "internalType": "uint256",
          "name": "royaltyAmount",
          "type": "uint256"
        }
      ],
      "stateMutability": "view",
      "type": "function"
    },
    {
      "inputs": [
        {
          "internalType": "address",
          "name": "to",
          "type": "address"
        }
      ],
      "name": "safeMint",
      "outputs": [],
      "stateMutability": "nonpayable",
      "type": "function"
    },
    {
      "inputs": [
        {
          "internalType": "address",
          "name": "from",
          "type": "address"
        },
        {
          "internalType": "address",
          "name": "to",
          "type": "address"
        },
        {
          "internalType": "uint256",
          "name": "tokenId",
          "type": "uint256"
        }
      ],
      "name": "safeTransferFrom",
      "outputs": [],
      "stateMutability": "nonpayable",
      "type": "function"
    },
    {
      "inputs": [
        {
          "internalType": "address",
          "name": "from",
          "type": "address"
        },
        {
          "internalType": "address",
          "name": "to",
          "type": "address"
        },
        {
          "internalType": "uint256",
          "name": "tokenId",
          "type": "uint256"
        },
        {
          "internalType": "bytes",
          "name": "_data",
          "type": "bytes"
        }
      ],
      "name": "safeTransferFrom",
      "outputs": [],
      "stateMutability": "nonpayable",
      "type": "function"
    },
    {
      "inputs": [
        {
          "internalType": "address",
          "name": "operator",
          "type": "address"
        },
        {
          "internalType": "bool",
          "name": "approved",
          "type": "bool"
        }
      ],
      "name": "setApprovalForAll",
      "outputs": [],
      "stateMutability": "nonpayable",
      "type": "function"
    },
    {
      "inputs": [
        {
          "internalType": "bytes4",
          "name": "interfaceId",
          "type": "bytes4"
        }
      ],
      "name": "supportsInterface",
      "outputs": [
        {
          "internalType": "bool",
          "name": "",
          "type": "bool"
        }
      ],
      "stateMutability": "view",
      "type": "function"
    },
    {
      "inputs": [],
      "name": "symbol",
      "outputs": [
        {
          "internalType": "string",
          "name": "",
          "type": "string"
        }
      ],
      "stateMutability": "view",
      "type": "function"
    },
    {
      "inputs": [
        {
          "internalType": "uint256",
          "name": "index",
          "type": "uint256"
        }
      ],
      "name": "tokenByIndex",
      "outputs": [
        {
          "internalType": "uint256",
          "name": "",
          "type": "uint256"
        }
      ],
      "stateMutability": "view",
      "type": "function"
    },
    {
      "inputs": [
        {
          "internalType": "address",
          "name": "owner",
          "type": "address"
        },
        {
          "internalType": "uint256",
          "name": "index",
          "type": "uint256"
        }
      ],
      "name": "tokenOfOwnerByIndex",
      "outputs": [
        {
          "internalType": "uint256",
          "name": "",
          "type": "uint256"
        }
      ],
      "stateMutability": "view",
      "type": "function"
    },
    {
      "inputs": [
        {
          "internalType": "uint256",
          "name": "_tokenId",
          "type": "uint256"
        }
      ],
      "name": "tokenURI",
      "outputs": [
        {
          "internalType": "string",
          "name": "",
          "type": "string"
        }
      ],
      "stateMutability": "view",
      "type": "function"
    },
    {
      "inputs": [],
      "name": "totalSupply",
      "outputs": [
        {
          "internalType": "uint256",
          "name": "",
          "type": "uint256"
        }
      ],
      "stateMutability": "view",
      "type": "function"
    },
    {
      "inputs": [
        {
          "internalType": "address",
          "name": "from",
          "type": "address"
        },
        {
          "internalType": "address",
          "name": "to",
          "type": "address"
        },
        {
          "internalType": "uint256",
          "name": "tokenId",
          "type": "uint256"
        }
      ],
      "name": "transferFrom",
      "outputs": [],
      "stateMutability": "nonpayable",
      "type": "function"
    },
    {
      "inputs": [
        {
          "internalType": "address",
          "name": "newOwner",
          "type": "address"
        }
      ],
      "name": "transferOwnership",
      "outputs": [],
      "stateMutability": "nonpayable",
      "type": "function"
    },
    {
      "inputs": [],
      "name": "unpause",
      "outputs": [],
      "stateMutability": "nonpayable",
      "type": "function"
    },
    {
      "stateMutability": "payable",
      "type": "receive"
    }
  ],
  "bytecode": "0x60806040523480156200001157600080fd5b50604080518082018252600b81526a44796e615374726970657360a81b60208083019182528351808501909452600384526244535360e81b908401528151919291839183916200006491600091620000f4565b5080516200007a906001906020840190620000f4565b5050600a805460ff191690555062000092336200009a565b5050620001d7565b600a80546001600160a01b03838116610100818102610100600160a81b031985161790945560405193909204169182907f8be0079c531659141344cd1fd0a4f28419497f9722a3daafe3b4186f6b6457e090600090a35050565b82805462000102906200019a565b90600052602060002090601f01602090048101928262000126576000855562000171565b82601f106200014157805160ff191683800117855562000171565b8280016001018555821562000171579182015b828111156200017157825182559160200191906001019062000154565b506200017f92915062000183565b5090565b5b808211156200017f576000815560010162000184565b600181811c90821680620001af57607f821691505b60208210811415620001d157634e487b7160e01b600052602260045260246000fd5b50919050565b6134d380620001e76000396000f3fe6080604052600436106102025760003560e01c806342966c681161011d5780638456cb59116100b0578063b88d4fde1161007f578063c87b56dd11610064578063c87b56dd146105ca578063e985e9c5146105ea578063f2fde38b1461063357600080fd5b8063b88d4fde1461058a578063bc921dc2146105aa57600080fd5b80638456cb591461051d5780638da5cb5b1461053257806395d89b4114610555578063a22cb4651461056a57600080fd5b80635c975abb116100ec5780635c975abb146104b05780636352211e146104c857806370a08231146104e8578063715018a61461050857600080fd5b806342966c6814610435578063479fe5441461045557806349c657db1461047a5780634f6ccce71461049057600080fd5b80630ed9ec06116101955780632f745c59116101645780632f745c59146103c05780633f4ba83a146103e057806340d097c3146103f557806342842e0e1461041557600080fd5b80630ed9ec061461033957806318160ddd1461034c57806323b872dd146103615780632a55205a1461038157600080fd5b806306fdde03116101d157806306fdde03146102aa578063081812fc146102cc57806308d78c3c14610304578063095ea7b31461031957600080fd5b806301ffc9a71461020e578063031bd4c414610243578063054ee7891461026c5780630561942a1461029557600080fd5b3661020957005b600080fd5b34801561021a57600080fd5b5061022e610229366004612baf565b610653565b60405190151581526020015b60405180910390f35b34801561024f57600080fd5b5061025961138881565b60405161ffff909116815260200161023a565b34801561027857600080fd5b50610287662386f26fc1000081565b60405190815260200161023a565b3480156102a157600080fd5b50610287610664565b3480156102b657600080fd5b506102bf6106a3565b60405161023a919061321a565b3480156102d857600080fd5b506102ec6102e7366004612be7565b610735565b6040516001600160a01b03909116815260200161023a565b610317610312366004612be7565b6107cf565b005b34801561032557600080fd5b50610317610334366004612b86565b6108c4565b610317610347366004612c20565b6109f1565b34801561035857600080fd5b50600854610287565b34801561036d57600080fd5b5061031761037c366004612a3c565b610e4e565b34801561038d57600080fd5b506103a161039c366004612bff565b610ed6565b604080516001600160a01b03909316835260208301919091520161023a565b3480156103cc57600080fd5b506102876103db366004612b86565b610f2f565b3480156103ec57600080fd5b50610317610fd7565b34801561040157600080fd5b506103176104103660046129f0565b611041565b34801561042157600080fd5b50610317610430366004612a3c565b6110c4565b34801561044157600080fd5b50610317610450366004612be7565b6110df565b34801561046157600080fd5b50600a5461010090046001600160a01b0316331461022e565b34801561048657600080fd5b506102596103e881565b34801561049c57600080fd5b506102876104ab366004612be7565b611163565b3480156104bc57600080fd5b50600a5460ff1661022e565b3480156104d457600080fd5b506102ec6104e3366004612be7565b611215565b3480156104f457600080fd5b506102876105033660046129f0565b6112a0565b34801561051457600080fd5b5061031761133a565b34801561052957600080fd5b506103176113a4565b34801561053e57600080fd5b50600a5461010090046001600160a01b03166102ec565b34801561056157600080fd5b506102bf61140c565b34801561057657600080fd5b50610317610585366004612b4c565b61141b565b34801561059657600080fd5b506103176105a5366004612a77565b6114e0565b3480156105b657600080fd5b506102bf6105c5366004612be7565b61156e565b3480156105d657600080fd5b506102bf6105e5366004612be7565b61187e565b3480156105f657600080fd5b5061022e610605366004612a0a565b6001600160a01b03918216600090815260056020908152604080832093909416825291909152205460ff1690565b34801561063f57600080fd5b5061031761064e3660046129f0565b6118bf565b600061065e826119a4565b92915050565b6000662386f26fc10000606461067960085490565b61068391906132a6565b61068d91906132e4565b61069e90662386f26fc1000061324a565b905090565b6060600080546106b29061338c565b80601f01602080910402602001604051908101604052809291908181526020018280546106de9061338c565b801561072b5780601f106107005761010080835404028352916020019161072b565b820191906000526020600020905b81548152906001019060200180831161070e57829003601f168201915b5050505050905090565b6000818152600260205260408120546001600160a01b03166107b35760405162461bcd60e51b815260206004820152602c60248201527f4552433732313a20617070726f76656420717565727920666f72206e6f6e657860448201526b34b9ba32b73a103a37b5b2b760a11b60648201526084015b60405180910390fd5b506000908152600460205260409020546001600160a01b031690565b600a546001600160a01b0361010090910416331461082f5760405162461bcd60e51b815260206004820181905260248201527f4f776e61626c653a2063616c6c6572206973206e6f7420746865206f776e657260448201526064016107aa565b4781111561087f5760405162461bcd60e51b815260206004820152600f60248201527f416d6f756e7420746f6f2068696768000000000000000000000000000000000060448201526064016107aa565b600a546040516101009091046001600160a01b031690819083156108fc029084906000818181858888f193505050501580156108bf573d6000803e3d6000fd5b505050565b60006108cf82611215565b9050806001600160a01b0316836001600160a01b031614156109595760405162461bcd60e51b815260206004820152602160248201527f4552433732313a20617070726f76616c20746f2063757272656e74206f776e6560448201527f720000000000000000000000000000000000000000000000000000000000000060648201526084016107aa565b336001600160a01b038216148061097557506109758133610605565b6109e75760405162461bcd60e51b815260206004820152603860248201527f4552433732313a20617070726f76652063616c6c6572206973206e6f74206f7760448201527f6e6572206e6f7220617070726f76656420666f7220616c6c000000000000000060648201526084016107aa565b6108bf83836119e2565b60006109fc600b5490565b90506113888110610a4f5760405162461bcd60e51b815260206004820152601260248201527f416c6c20746f6b656e73206d696e7465642e000000000000000000000000000060448201526064016107aa565b610a57610664565b341015610aa65760405162461bcd60e51b815260206004820152601160248201527f4e6f7420656e6f7567682065746865722e00000000000000000000000000000060448201526064016107aa565b60b48860ff1611158015610ac057508760ff168960ff1611155b610b325760405162461bcd60e51b815260206004820152602360248201527f526f746174696f6e206d757374206265206265747765656e203020616e64203160448201527f38302e000000000000000000000000000000000000000000000000000000000060648201526084016107aa565b60ff8660ff1611158015610b4c57508560ff168760ff1611155b610ba85760405162461bcd60e51b815260206004820152602760248201527f537472697065207769647468206d757374206265206265747765656e20302061604482015266373210191a9a9760c91b60648201526084016107aa565b60ff8460ff1611158015610bc257508360ff168560ff1611155b610c345760405162461bcd60e51b815260206004820152602860248201527f50616c657474652076616c7565206d757374206265206265747765656e20302060448201527f616e64203235352e00000000000000000000000000000000000000000000000060648201526084016107aa565b60148360ff1610158015610c4c575060ff8260ff1611155b8015610c5e57508160ff168360ff1611155b610cba5760405162461bcd60e51b815260206004820152602760248201527f53706565642076616c7565206d757374206265206265747765656e2032302061604482015266373210191a9a9760c91b60648201526084016107aa565b604080516101208101825263ffffffff9b8c16815260ff9a8b1660208083019182529a8c16828401908152998c1660608301908152988c1660808301908152978c1660a08301908152968c1660c08301908152958c1660e08301908152948c1661010083019081526000948552600d909b529190922091518254915198519751965195519451935199519b1664ffffffffff1990911617640100000000978a16979097029690961766ffff00000000001916650100000000009589169590950266ff0000000000001916949094176601000000000000938816939093029290921768ffff0000000000000019166701000000000000009187169190910268ff00000000000000001916176801000000000000000091861691909102176affff00000000000000000019166901000000000000000000918516919091026aff000000000000000000001916176a010000000000000000000092841692909202919091176bff000000000000000000000019166b0100000000000000000000009390921692909202179055600b80546001019055565b610e59335b82611a5d565b610ecb5760405162461bcd60e51b815260206004820152603160248201527f4552433732313a207472616e736665722063616c6c6572206973206e6f74206f60448201527f776e6572206e6f7220617070726f76656400000000000000000000000000000060648201526084016107aa565b6108bf838383611b54565b6000828152600c60209081526040808320815180830190925280546001600160a01b0316808352600190910154928201839052839261271090610f1990876132e4565b610f2391906132a6565b92509250509250929050565b6000610f3a836112a0565b8210610fae5760405162461bcd60e51b815260206004820152602b60248201527f455243373231456e756d657261626c653a206f776e657220696e646578206f7560448201527f74206f6620626f756e647300000000000000000000000000000000000000000060648201526084016107aa565b506001600160a01b03919091166000908152600660209081526040808320938352929052205490565b600a546001600160a01b036101009091041633146110375760405162461bcd60e51b815260206004820181905260248201527f4f776e61626c653a2063616c6c6572206973206e6f7420746865206f776e657260448201526064016107aa565b61103f611d39565b565b600a546001600160a01b036101009091041633146110a15760405162461bcd60e51b815260206004820181905260248201527f4f776e61626c653a2063616c6c6572206973206e6f7420746865206f776e657260448201526064016107aa565b6110b3816110ae600b5490565b611dd5565b6110c1600b80546001019055565b50565b6108bf838383604051806020016040528060008152506114e0565b6110e833610e53565b61115a5760405162461bcd60e51b815260206004820152603060248201527f4552433732314275726e61626c653a2063616c6c6572206973206e6f74206f7760448201527f6e6572206e6f7220617070726f7665640000000000000000000000000000000060648201526084016107aa565b6110c181611df3565b600061116e60085490565b82106111e25760405162461bcd60e51b815260206004820152602c60248201527f455243373231456e756d657261626c653a20676c6f62616c20696e646578206f60448201527f7574206f6620626f756e6473000000000000000000000000000000000000000060648201526084016107aa565b6008828154811061120357634e487b7160e01b600052603260045260246000fd5b90600052602060002001549050919050565b6000818152600260205260408120546001600160a01b03168061065e5760405162461bcd60e51b815260206004820152602960248201527f4552433732313a206f776e657220717565727920666f72206e6f6e657869737460448201527f656e7420746f6b656e000000000000000000000000000000000000000000000060648201526084016107aa565b60006001600160a01b03821661131e5760405162461bcd60e51b815260206004820152602a60248201527f4552433732313a2062616c616e636520717565727920666f7220746865207a6560448201527f726f20616464726573730000000000000000000000000000000000000000000060648201526084016107aa565b506001600160a01b031660009081526003602052604090205490565b600a546001600160a01b0361010090910416331461139a5760405162461bcd60e51b815260206004820181905260248201527f4f776e61626c653a2063616c6c6572206973206e6f7420746865206f776e657260448201526064016107aa565b61103f6000611ea7565b600a546001600160a01b036101009091041633146114045760405162461bcd60e51b815260206004820181905260248201527f4f776e61626c653a2063616c6c6572206973206e6f7420746865206f776e657260448201526064016107aa565b61103f611f18565b6060600180546106b29061338c565b6001600160a01b0382163314156114745760405162461bcd60e51b815260206004820152601960248201527f4552433732313a20617070726f766520746f2063616c6c65720000000000000060448201526064016107aa565b3360008181526005602090815260408083206001600160a01b03871680855290835292819020805460ff191686151590811790915590519081529192917f17307eab39ab6107e8899845ad3d59bd9653f200f220920489ca2b5937696c31910160405180910390a35050565b6114ea3383611a5d565b61155c5760405162461bcd60e51b815260206004820152603160248201527f4552433732313a207472616e736665722063616c6c6572206973206e6f74206f60448201527f776e6572206e6f7220617070726f76656400000000000000000000000000000060648201526084016107aa565b61156884848484611fa0565b50505050565b6060611579600b5490565b82106116135760405162461bcd60e51b815260206004820152604160248201527f417474656d7074656420746f2067656e65726174652053564720666f7220746f60448201527f6b656e207468617420686173206e6f7420796574206265656e206d696e74656460648201527f2e00000000000000000000000000000000000000000000000000000000000000608482015260a4016107aa565b6000828152600d60209081526040808320815161012081018352905463ffffffff811680835260ff6401000000008304811684870152650100000000008304811684860152660100000000000083048116606080860191909152670100000000000000840482166080860152680100000000000000008404821660a086015269010000000000000000008404821660c08601526a01000000000000000000008404821660e08601526b01000000000000000000000090930416610100840152835191820184528382529194936107d09385929161345e9083013990505b60006116fc8585613326565b61ffff16111561185257600061172183876060015160ff16886080015160ff1661201e565b61172c90603261322d565b905061ffff811661173d8686613326565b61ffff161015611754576117518585613326565b90505b600061176f84886020015160ff16896040015160ff1661201e565b9050600061178d858960e0015160ff168a610100015160ff1661201e565b61179890600a6132ba565b905060006117a98861ffff16612063565b6117b68561ffff16612063565b6117c38561ffff16612063565b6117d08561ffff16612063565b6117e38a8e60a001518f60c001516121dc565b6040516020016117f7959493929190612e08565b6040516020818303038152906040529050848160405160200161181b929190612d19565b60408051601f198184030181529190529450611837848961322d565b975061184761ffff891687613262565b9550505050506116f0565b806040516020016118639190612dc7565b60408051601f19818403018152919052979650505050505050565b6060600061188b8361156e565b905061189683612063565b816040516020016118a89291906130e7565b604051602081830303815290604052915050919050565b600a546001600160a01b0361010090910416331461191f5760405162461bcd60e51b815260206004820181905260248201527f4f776e61626c653a2063616c6c6572206973206e6f7420746865206f776e657260448201526064016107aa565b6001600160a01b03811661199b5760405162461bcd60e51b815260206004820152602660248201527f4f776e61626c653a206e6577206f776e657220697320746865207a65726f206160448201527f646472657373000000000000000000000000000000000000000000000000000060648201526084016107aa565b6110c181611ea7565b60006001600160e01b031982167f2a55205a00000000000000000000000000000000000000000000000000000000148061065e575061065e82612235565b6000818152600460205260409020805473ffffffffffffffffffffffffffffffffffffffff19166001600160a01b0384169081179091558190611a2482611215565b6001600160a01b03167f8c5be1e5ebec7d5bd14f71427d1e84f3dd0314c0f7b2291e5b200ac8c7c3b92560405160405180910390a45050565b6000818152600260205260408120546001600160a01b0316611ad65760405162461bcd60e51b815260206004820152602c60248201527f4552433732313a206f70657261746f7220717565727920666f72206e6f6e657860448201526b34b9ba32b73a103a37b5b2b760a11b60648201526084016107aa565b6000611ae183611215565b9050806001600160a01b0316846001600160a01b03161480611b1c5750836001600160a01b0316611b1184610735565b6001600160a01b0316145b80611b4c57506001600160a01b0380821660009081526005602090815260408083209388168352929052205460ff165b949350505050565b826001600160a01b0316611b6782611215565b6001600160a01b031614611be35760405162461bcd60e51b815260206004820152602960248201527f4552433732313a207472616e73666572206f6620746f6b656e2074686174206960448201527f73206e6f74206f776e000000000000000000000000000000000000000000000060648201526084016107aa565b6001600160a01b038216611c5e5760405162461bcd60e51b8152602060048201526024808201527f4552433732313a207472616e7366657220746f20746865207a65726f2061646460448201527f726573730000000000000000000000000000000000000000000000000000000060648201526084016107aa565b611c69838383612240565b611c746000826119e2565b6001600160a01b0383166000908152600360205260408120805460019290611c9d908490613349565b90915550506001600160a01b0382166000908152600360205260408120805460019290611ccb90849061324a565b9091555050600081815260026020526040808220805473ffffffffffffffffffffffffffffffffffffffff19166001600160a01b0386811691821790925591518493918716917fddf252ad1be2c89b69c2b068fc378daa952ba7f163c4a11628f55a4df523b3ef91a4505050565b600a5460ff16611d8b5760405162461bcd60e51b815260206004820152601460248201527f5061757361626c653a206e6f742070617573656400000000000000000000000060448201526064016107aa565b600a805460ff191690557f5db9ee0a495bf2e6ff9c91a7834c1ba4fdd244a5e8aa4e537bd38aeae4b073aa335b6040516001600160a01b03909116815260200160405180910390a1565b611def82826040518060200160405280600081525061229e565b5050565b6000611dfe82611215565b9050611e0c81600084612240565b611e176000836119e2565b6001600160a01b0381166000908152600360205260408120805460019290611e40908490613349565b9091555050600082815260026020526040808220805473ffffffffffffffffffffffffffffffffffffffff19169055518391906001600160a01b038416907fddf252ad1be2c89b69c2b068fc378daa952ba7f163c4a11628f55a4df523b3ef908390a45050565b600a80546001600160a01b038381166101008181027fffffffffffffffffffffff0000000000000000000000000000000000000000ff85161790945560405193909204169182907f8be0079c531659141344cd1fd0a4f28419497f9722a3daafe3b4186f6b6457e090600090a35050565b600a5460ff1615611f6b5760405162461bcd60e51b815260206004820152601060248201527f5061757361626c653a207061757365640000000000000000000000000000000060448201526064016107aa565b600a805460ff191660011790557f62e78cea01bee320cd4e420270b5ea74000d11b0c9f74754ebdbfc544b05a258611db83390565b611fab848484611b54565b611fb78484848461231c565b6115685760405162461bcd60e51b815260206004820152603260248201527f4552433732313a207472616e7366657220746f206e6f6e20455243373231526560448201527131b2b4bb32b91034b6b83632b6b2b73a32b960711b60648201526084016107aa565b60008261ffff168261ffff161161203657508161205c565b826120418184613326565b61204f9061ffff16866133e2565b612059919061322d565b90505b9392505050565b6060816120a357505060408051808201909152600181527f3000000000000000000000000000000000000000000000000000000000000000602082015290565b8160005b81156120cd57806120b7816133c7565b91506120c69050600a836132a6565b91506120a7565b60008167ffffffffffffffff8111156120f657634e487b7160e01b600052604160045260246000fd5b6040519080825280601f01601f191660200182016040528015612120576020820181803683370190505b509050815b85156121d357612136600182613349565b90506000612145600a886132a6565b61215090600a6132e4565b61215a9088613349565b612165906030613281565b905060008160f81b90508084848151811061219057634e487b7160e01b600052603260045260246000fd5b60200101907effffffffffffffffffffffffffffffffffffffffffffffffffffffffffffff1916908160001a9053506121ca600a896132a6565b97505050612125565b50949350505050565b606060006121eb858585612474565b905060006122046121fd876002613303565b8686612474565b905081818360405160200161221b93929190612d48565b604051602081830303815290604052925050509392505050565b600061065e8261251d565b600a5460ff16156122935760405162461bcd60e51b815260206004820152601060248201527f5061757361626c653a207061757365640000000000000000000000000000000060448201526064016107aa565b6108bf83838361255b565b6122a88383612613565b6122b5600084848461231c565b6108bf5760405162461bcd60e51b815260206004820152603260248201527f4552433732313a207472616e7366657220746f206e6f6e20455243373231526560448201527131b2b4bb32b91034b6b83632b6b2b73a32b960711b60648201526084016107aa565b60006001600160a01b0384163b1561246957604051630a85bd0160e11b81526001600160a01b0385169063150b7a02906123609033908990889088906004016131de565b602060405180830381600087803b15801561237a57600080fd5b505af19250505080156123aa575060408051601f3d908101601f191682019092526123a791810190612bcb565b60015b61244f573d8080156123d8576040519150601f19603f3d011682016040523d82523d6000602084013e6123dd565b606091505b5080516124475760405162461bcd60e51b815260206004820152603260248201527f4552433732313a207472616e7366657220746f206e6f6e20455243373231526560448201527131b2b4bb32b91034b6b83632b6b2b73a32b960711b60648201526084016107aa565b805181602001fd5b6001600160e01b031916630a85bd0160e11b149050611b4c565b506001949350505050565b60606000612489858560ff168560ff1661201e565b905060006124a861249b876002613303565b8660ff168660ff1661201e565b905060006124c76124ba886003613303565b8760ff168760ff1661201e565b90506124d68361ffff16612063565b6124e38361ffff16612063565b6124f08361ffff16612063565b6040516020016125029392919061301e565b60405160208183030381529060405293505050509392505050565b60006001600160e01b031982167f780e9d6300000000000000000000000000000000000000000000000000000000148061065e575061065e8261276e565b6001600160a01b0383166125b6576125b181600880546000838152600960205260408120829055600182018355919091527ff3f7a9fe364faab93b216da50a3214154f22a0a2b415b23a84c8169e8b636ee30155565b6125d9565b816001600160a01b0316836001600160a01b0316146125d9576125d98382612809565b6001600160a01b0382166125f0576108bf816128a6565b826001600160a01b0316826001600160a01b0316146108bf576108bf828261297f565b6001600160a01b0382166126695760405162461bcd60e51b815260206004820181905260248201527f4552433732313a206d696e7420746f20746865207a65726f206164647265737360448201526064016107aa565b6000818152600260205260409020546001600160a01b0316156126ce5760405162461bcd60e51b815260206004820152601c60248201527f4552433732313a20746f6b656e20616c7265616479206d696e7465640000000060448201526064016107aa565b6126da60008383612240565b6001600160a01b038216600090815260036020526040812080546001929061270390849061324a565b9091555050600081815260026020526040808220805473ffffffffffffffffffffffffffffffffffffffff19166001600160a01b03861690811790915590518392907fddf252ad1be2c89b69c2b068fc378daa952ba7f163c4a11628f55a4df523b3ef908290a45050565b60006001600160e01b031982167f80ac58cd0000000000000000000000000000000000000000000000000000000014806127d157506001600160e01b031982167f5b5e139f00000000000000000000000000000000000000000000000000000000145b8061065e57507f01ffc9a7000000000000000000000000000000000000000000000000000000006001600160e01b031983161461065e565b60006001612816846112a0565b6128209190613349565b600083815260076020526040902054909150808214612873576001600160a01b03841660009081526006602090815260408083208584528252808320548484528184208190558352600790915290208190555b5060009182526007602090815260408084208490556001600160a01b039094168352600681528383209183525290812055565b6008546000906128b890600190613349565b600083815260096020526040812054600880549394509092849081106128ee57634e487b7160e01b600052603260045260246000fd5b90600052602060002001549050806008838154811061291d57634e487b7160e01b600052603260045260246000fd5b600091825260208083209091019290925582815260099091526040808220849055858252812055600880548061296357634e487b7160e01b600052603160045260246000fd5b6001900381819060005260206000200160009055905550505050565b600061298a836112a0565b6001600160a01b039093166000908152600660209081526040808320868452825280832085905593825260079052919091209190915550565b80356001600160a01b03811681146129da57600080fd5b919050565b803560ff811681146129da57600080fd5b600060208284031215612a01578081fd5b61205c826129c3565b60008060408385031215612a1c578081fd5b612a25836129c3565b9150612a33602084016129c3565b90509250929050565b600080600060608486031215612a50578081fd5b612a59846129c3565b9250612a67602085016129c3565b9150604084013590509250925092565b60008060008060808587031215612a8c578081fd5b612a95856129c3565b9350612aa3602086016129c3565b925060408501359150606085013567ffffffffffffffff80821115612ac6578283fd5b818701915087601f830112612ad9578283fd5b813581811115612aeb57612aeb613431565b604051601f8201601f19908116603f01168101908382118183101715612b1357612b13613431565b816040528281528a6020848701011115612b2b578586fd5b82602086016020830137918201602001949094529598949750929550505050565b60008060408385031215612b5e578182fd5b612b67836129c3565b915060208301358015158114612b7b578182fd5b809150509250929050565b60008060408385031215612b98578182fd5b612ba1836129c3565b946020939093013593505050565b600060208284031215612bc0578081fd5b813561205c81613447565b600060208284031215612bdc578081fd5b815161205c81613447565b600060208284031215612bf8578081fd5b5035919050565b60008060408385031215612c11578182fd5b50508035926020909101359150565b60008060008060008060008060006101208a8c031215612c3e578485fd5b893563ffffffff81168114612c51578586fd5b9850612c5f60208b016129df565b9750612c6d60408b016129df565b9650612c7b60608b016129df565b9550612c8960808b016129df565b9450612c9760a08b016129df565b9350612ca560c08b016129df565b9250612cb360e08b016129df565b9150612cc26101008b016129df565b90509295985092959850929598565b60008151808452612ce9816020860160208601613360565b601f01601f19169290920160200192915050565b60008151612d0f818560208601613360565b9290920192915050565b60008351612d2b818460208801613360565b835190830190612d3f818360208801613360565b01949350505050565b60008451612d5a818460208901613360565b80830190507f3b000000000000000000000000000000000000000000000000000000000000008082528551612d96816001850160208a01613360565b600192019182018190528451612db3816002850160208901613360565b600292019182015260030195945050505050565b60008251612dd9818460208701613360565b7f3c2f7376673e0000000000000000000000000000000000000000000000000000920191825250600601919050565b7f3c7265637420783d270000000000000000000000000000000000000000000000815260008651612e40816009850160208b01613360565b7f2720793d2730272077696474683d2700000000000000000000000000000000006009918401918201528651612e7d816018840160208b01613360565b7f27206865696768743d2732303030272073686170652d72656e646572696e673d601892909101918201527f27637269737045646765732720206f7061636974793d27302e3827000000000060388201527f207472616e73666f726d3d27726f74617465280000000000000000000000000060538201528551612f07816066840160208a01613360565b7f2031303030203130303029273e3c616e696d61746520626567696e3d20273073606692909101918201527f27206475723d27000000000000000000000000000000000000000000000000006086820152613012612fc3612fbd612f6e608d850189612cfd565b7f6d7327206174747269627574654e616d653d2766696c6c272076616c7565733d81527f2700000000000000000000000000000000000000000000000000000000000000602082015260210190565b86612cfd565b7f272066696c6c3d27667265657a652720726570656174436f756e743d27696e6481527f6566696e697465272f3e3c2f726563743e000000000000000000000000000000602082015260310190565b98975050505050505050565b7f7267622800000000000000000000000000000000000000000000000000000000815260008451613056816004850160208901613360565b80830190507f2c200000000000000000000000000000000000000000000000000000000000008060048301528551613095816006850160208a01613360565b600692019182015283516130b0816008840160208801613360565b7f29000000000000000000000000000000000000000000000000000000000000006008929091019182015260090195945050505050565b7f7b226e616d65223a2244796e615374726970657320230000000000000000000081526000835161311f816016850160208801613360565b7f222c20226465736372697074696f6e223a2244796e61537472697065732061726016918401918201527f74776f726b222c2022696d616765223a22646174613a696d6167652f7376672b60368201527f786d6c2c00000000000000000000000000000000000000000000000000000000605682015283516131a881605a840160208801613360565b7f227d000000000000000000000000000000000000000000000000000000000000605a9290910191820152605c01949350505050565b60006001600160a01b038087168352808616602084015250836040830152608060608301526132106080830184612cd1565b9695505050505050565b60208152600061205c6020830184612cd1565b600061ffff808316818516808303821115612d3f57612d3f613405565b6000821982111561325d5761325d613405565b500190565b600063ffffffff808316818516808303821115612d3f57612d3f613405565b600060ff821660ff84168060ff0382111561329e5761329e613405565b019392505050565b6000826132b5576132b561341b565b500490565b600061ffff808316818516818304811182151516156132db576132db613405565b02949350505050565b60008160001904831182151516156132fe576132fe613405565b500290565b600063ffffffff808316818516818304811182151516156132db576132db613405565b600061ffff8381169083168181101561334157613341613405565b039392505050565b60008282101561335b5761335b613405565b500390565b60005b8381101561337b578181015183820152602001613363565b838111156115685750506000910152565b600181811c908216806133a057607f821691505b602082108114156133c157634e487b7160e01b600052602260045260246000fd5b50919050565b60006000198214156133db576133db613405565b5060010190565b600063ffffffff808416806133f9576133f961341b565b92169190910692915050565b634e487b7160e01b600052601160045260246000fd5b634e487b7160e01b600052601260045260246000fd5b634e487b7160e01b600052604160045260246000fd5b6001600160e01b0319811681146110c157600080fdfe3c73766720786d6c6e733d27687474703a2f2f7777772e77332e6f72672f323030302f737667272076696577426f783d2730203020323030302032303030273ea26469706673582212202a86efa2c96a33152fbddd26bc18dbc8e02b6da21245ffad07e365a6d52be9bb64736f6c63430008040033",
  "linkReferences": {},
  "deployedLinkReferences": {}
}