{
  "_format": "hh-sol-artifact-1",
  "contractName": "DynaStripes",
  "sourceName": "contracts/DynaStripes.sol",
  "abi": [
    {
      "inputs": [],
      "stateMutability": "nonpayable",
      "type": "constructor"
    },
    {
      "anonymous": false,
      "inputs": [
        {
          "indexed": true,
          "internalType": "address",
          "name": "owner",
          "type": "address"
        },
        {
          "indexed": true,
          "internalType": "address",
          "name": "approved",
          "type": "address"
        },
        {
          "indexed": true,
          "internalType": "uint256",
          "name": "tokenId",
          "type": "uint256"
        }
      ],
      "name": "Approval",
      "type": "event"
    },
    {
      "anonymous": false,
      "inputs": [
        {
          "indexed": true,
          "internalType": "address",
          "name": "owner",
          "type": "address"
        },
        {
          "indexed": true,
          "internalType": "address",
          "name": "operator",
          "type": "address"
        },
        {
          "indexed": false,
          "internalType": "bool",
          "name": "approved",
          "type": "bool"
        }
      ],
      "name": "ApprovalForAll",
      "type": "event"
    },
    {
      "anonymous": false,
      "inputs": [
        {
          "indexed": false,
          "internalType": "address",
          "name": "account",
          "type": "address"
        }
      ],
      "name": "Paused",
      "type": "event"
    },
    {
      "anonymous": false,
      "inputs": [
        {
          "indexed": true,
          "internalType": "bytes32",
          "name": "role",
          "type": "bytes32"
        },
        {
          "indexed": true,
          "internalType": "bytes32",
          "name": "previousAdminRole",
          "type": "bytes32"
        },
        {
          "indexed": true,
          "internalType": "bytes32",
          "name": "newAdminRole",
          "type": "bytes32"
        }
      ],
      "name": "RoleAdminChanged",
      "type": "event"
    },
    {
      "anonymous": false,
      "inputs": [
        {
          "indexed": true,
          "internalType": "bytes32",
          "name": "role",
          "type": "bytes32"
        },
        {
          "indexed": true,
          "internalType": "address",
          "name": "account",
          "type": "address"
        },
        {
          "indexed": true,
          "internalType": "address",
          "name": "sender",
          "type": "address"
        }
      ],
      "name": "RoleGranted",
      "type": "event"
    },
    {
      "anonymous": false,
      "inputs": [
        {
          "indexed": true,
          "internalType": "bytes32",
          "name": "role",
          "type": "bytes32"
        },
        {
          "indexed": true,
          "internalType": "address",
          "name": "account",
          "type": "address"
        },
        {
          "indexed": true,
          "internalType": "address",
          "name": "sender",
          "type": "address"
        }
      ],
      "name": "RoleRevoked",
      "type": "event"
    },
    {
      "anonymous": false,
      "inputs": [
        {
          "indexed": true,
          "internalType": "address",
          "name": "from",
          "type": "address"
        },
        {
          "indexed": true,
          "internalType": "address",
          "name": "to",
          "type": "address"
        },
        {
          "indexed": true,
          "internalType": "uint256",
          "name": "tokenId",
          "type": "uint256"
        }
      ],
      "name": "Transfer",
      "type": "event"
    },
    {
      "anonymous": false,
      "inputs": [
        {
          "indexed": false,
          "internalType": "address",
          "name": "account",
          "type": "address"
        }
      ],
      "name": "Unpaused",
      "type": "event"
    },
    {
      "inputs": [],
      "name": "DEFAULT_ADMIN_ROLE",
      "outputs": [
        {
          "internalType": "bytes32",
          "name": "",
          "type": "bytes32"
        }
      ],
      "stateMutability": "view",
      "type": "function"
    },
    {
      "inputs": [],
      "name": "MINTER_ROLE",
      "outputs": [
        {
          "internalType": "bytes32",
          "name": "",
          "type": "bytes32"
        }
      ],
      "stateMutability": "view",
      "type": "function"
    },
    {
      "inputs": [],
      "name": "PAUSER_ROLE",
      "outputs": [
        {
          "internalType": "bytes32",
          "name": "",
          "type": "bytes32"
        }
      ],
      "stateMutability": "view",
      "type": "function"
    },
    {
      "inputs": [],
      "name": "ROYALTY_BPS",
      "outputs": [
        {
          "internalType": "uint16",
          "name": "",
          "type": "uint16"
        }
      ],
      "stateMutability": "view",
      "type": "function"
    },
    {
      "inputs": [],
      "name": "TOKEN_LIMIT",
      "outputs": [
        {
          "internalType": "uint16",
          "name": "",
          "type": "uint16"
        }
      ],
      "stateMutability": "view",
      "type": "function"
    },
    {
      "inputs": [
        {
          "internalType": "address",
          "name": "to",
          "type": "address"
        },
        {
          "internalType": "uint256",
          "name": "tokenId",
          "type": "uint256"
        }
      ],
      "name": "approve",
      "outputs": [],
      "stateMutability": "nonpayable",
      "type": "function"
    },
    {
      "inputs": [
        {
          "internalType": "address",
          "name": "owner",
          "type": "address"
        }
      ],
      "name": "balanceOf",
      "outputs": [
        {
          "internalType": "uint256",
          "name": "",
          "type": "uint256"
        }
      ],
      "stateMutability": "view",
      "type": "function"
    },
    {
      "inputs": [
        {
          "internalType": "uint256",
          "name": "tokenId",
          "type": "uint256"
        }
      ],
      "name": "burn",
      "outputs": [],
      "stateMutability": "nonpayable",
      "type": "function"
    },
    {
      "inputs": [
        {
          "internalType": "uint256",
          "name": "_tokenId",
          "type": "uint256"
        }
      ],
      "name": "generateSvg",
      "outputs": [
        {
          "internalType": "string",
          "name": "",
          "type": "string"
        }
      ],
      "stateMutability": "view",
      "type": "function"
    },
    {
      "inputs": [
        {
          "internalType": "uint256",
          "name": "tokenId",
          "type": "uint256"
        }
      ],
      "name": "getApproved",
      "outputs": [
        {
          "internalType": "address",
          "name": "",
          "type": "address"
        }
      ],
      "stateMutability": "view",
      "type": "function"
    },
    {
      "inputs": [
        {
          "internalType": "bytes32",
          "name": "role",
          "type": "bytes32"
        }
      ],
      "name": "getRoleAdmin",
      "outputs": [
        {
          "internalType": "bytes32",
          "name": "",
          "type": "bytes32"
        }
      ],
      "stateMutability": "view",
      "type": "function"
    },
    {
      "inputs": [
        {
          "internalType": "bytes32",
          "name": "role",
          "type": "bytes32"
        },
        {
          "internalType": "address",
          "name": "account",
          "type": "address"
        }
      ],
      "name": "grantRole",
      "outputs": [],
      "stateMutability": "nonpayable",
      "type": "function"
    },
    {
      "inputs": [
        {
          "internalType": "bytes32",
          "name": "role",
          "type": "bytes32"
        },
        {
          "internalType": "address",
          "name": "account",
          "type": "address"
        }
      ],
      "name": "hasRole",
      "outputs": [
        {
          "internalType": "bool",
          "name": "",
          "type": "bool"
        }
      ],
      "stateMutability": "view",
      "type": "function"
    },
    {
      "inputs": [
        {
          "internalType": "address",
          "name": "owner",
          "type": "address"
        },
        {
          "internalType": "address",
          "name": "operator",
          "type": "address"
        }
      ],
      "name": "isApprovedForAll",
      "outputs": [
        {
          "internalType": "bool",
          "name": "",
          "type": "bool"
        }
      ],
      "stateMutability": "view",
      "type": "function"
    },
    {
      "inputs": [],
      "name": "isSenderAdmin",
      "outputs": [
        {
          "internalType": "bool",
          "name": "",
          "type": "bool"
        }
      ],
      "stateMutability": "view",
      "type": "function"
    },
    {
      "inputs": [
        {
          "internalType": "uint32",
          "name": "_randomSeed",
          "type": "uint32"
        },
        {
          "internalType": "uint8",
          "name": "_rotationDegreesMin",
          "type": "uint8"
        },
        {
          "internalType": "uint8",
          "name": "_rotationDegreesMax",
          "type": "uint8"
        },
        {
          "internalType": "uint8",
          "name": "_stripeWidthMin",
          "type": "uint8"
        },
        {
          "internalType": "uint8",
          "name": "_stripeWidthMax",
          "type": "uint8"
        },
        {
          "internalType": "uint8",
          "name": "_paletteMin",
          "type": "uint8"
        },
        {
          "internalType": "uint8",
          "name": "_paletteMax",
          "type": "uint8"
        },
        {
          "internalType": "uint8",
          "name": "_speedMin",
          "type": "uint8"
        },
        {
          "internalType": "uint8",
          "name": "_speedMax",
          "type": "uint8"
        }
      ],
      "name": "mintStripes",
      "outputs": [],
      "stateMutability": "nonpayable",
      "type": "function"
    },
    {
      "inputs": [],
      "name": "name",
      "outputs": [
        {
          "internalType": "string",
          "name": "",
          "type": "string"
        }
      ],
      "stateMutability": "view",
      "type": "function"
    },
    {
      "inputs": [
        {
          "internalType": "uint256",
          "name": "tokenId",
          "type": "uint256"
        }
      ],
      "name": "ownerOf",
      "outputs": [
        {
          "internalType": "address",
          "name": "",
          "type": "address"
        }
      ],
      "stateMutability": "view",
      "type": "function"
    },
    {
      "inputs": [],
      "name": "pause",
      "outputs": [],
      "stateMutability": "nonpayable",
      "type": "function"
    },
    {
      "inputs": [],
      "name": "paused",
      "outputs": [
        {
          "internalType": "bool",
          "name": "",
          "type": "bool"
        }
      ],
      "stateMutability": "view",
      "type": "function"
    },
    {
      "inputs": [
        {
          "internalType": "bytes32",
          "name": "role",
          "type": "bytes32"
        },
        {
          "internalType": "address",
          "name": "account",
          "type": "address"
        }
      ],
      "name": "renounceRole",
      "outputs": [],
      "stateMutability": "nonpayable",
      "type": "function"
    },
    {
      "inputs": [
        {
          "internalType": "bytes32",
          "name": "role",
          "type": "bytes32"
        },
        {
          "internalType": "address",
          "name": "account",
          "type": "address"
        }
      ],
      "name": "revokeRole",
      "outputs": [],
      "stateMutability": "nonpayable",
      "type": "function"
    },
    {
      "inputs": [
        {
          "internalType": "uint256",
          "name": "tokenId",
          "type": "uint256"
        },
        {
          "internalType": "uint256",
          "name": "value",
          "type": "uint256"
        }
      ],
      "name": "royaltyInfo",
      "outputs": [
        {
          "internalType": "address",
          "name": "receiver",
          "type": "address"
        },
        {
          "internalType": "uint256",
          "name": "royaltyAmount",
          "type": "uint256"
        }
      ],
      "stateMutability": "view",
      "type": "function"
    },
    {
      "inputs": [
        {
          "internalType": "address",
          "name": "from",
          "type": "address"
        },
        {
          "internalType": "address",
          "name": "to",
          "type": "address"
        },
        {
          "internalType": "uint256",
          "name": "tokenId",
          "type": "uint256"
        }
      ],
      "name": "safeTransferFrom",
      "outputs": [],
      "stateMutability": "nonpayable",
      "type": "function"
    },
    {
      "inputs": [
        {
          "internalType": "address",
          "name": "from",
          "type": "address"
        },
        {
          "internalType": "address",
          "name": "to",
          "type": "address"
        },
        {
          "internalType": "uint256",
          "name": "tokenId",
          "type": "uint256"
        },
        {
          "internalType": "bytes",
          "name": "_data",
          "type": "bytes"
        }
      ],
      "name": "safeTransferFrom",
      "outputs": [],
      "stateMutability": "nonpayable",
      "type": "function"
    },
    {
      "inputs": [
        {
          "internalType": "address",
          "name": "operator",
          "type": "address"
        },
        {
          "internalType": "bool",
          "name": "approved",
          "type": "bool"
        }
      ],
      "name": "setApprovalForAll",
      "outputs": [],
      "stateMutability": "nonpayable",
      "type": "function"
    },
    {
      "inputs": [
        {
          "internalType": "bytes4",
          "name": "interfaceId",
          "type": "bytes4"
        }
      ],
      "name": "supportsInterface",
      "outputs": [
        {
          "internalType": "bool",
          "name": "",
          "type": "bool"
        }
      ],
      "stateMutability": "view",
      "type": "function"
    },
    {
      "inputs": [],
      "name": "symbol",
      "outputs": [
        {
          "internalType": "string",
          "name": "",
          "type": "string"
        }
      ],
      "stateMutability": "view",
      "type": "function"
    },
    {
      "inputs": [
        {
          "internalType": "uint256",
          "name": "index",
          "type": "uint256"
        }
      ],
      "name": "tokenByIndex",
      "outputs": [
        {
          "internalType": "uint256",
          "name": "",
          "type": "uint256"
        }
      ],
      "stateMutability": "view",
      "type": "function"
    },
    {
      "inputs": [
        {
          "internalType": "address",
          "name": "owner",
          "type": "address"
        },
        {
          "internalType": "uint256",
          "name": "index",
          "type": "uint256"
        }
      ],
      "name": "tokenOfOwnerByIndex",
      "outputs": [
        {
          "internalType": "uint256",
          "name": "",
          "type": "uint256"
        }
      ],
      "stateMutability": "view",
      "type": "function"
    },
    {
      "inputs": [
        {
          "internalType": "uint256",
          "name": "tokenId",
          "type": "uint256"
        }
      ],
      "name": "tokenURI",
      "outputs": [
        {
          "internalType": "string",
          "name": "",
          "type": "string"
        }
      ],
      "stateMutability": "view",
      "type": "function"
    },
    {
      "inputs": [],
      "name": "totalSupply",
      "outputs": [
        {
          "internalType": "uint256",
          "name": "",
          "type": "uint256"
        }
      ],
      "stateMutability": "view",
      "type": "function"
    },
    {
      "inputs": [
        {
          "internalType": "address",
          "name": "from",
          "type": "address"
        },
        {
          "internalType": "address",
          "name": "to",
          "type": "address"
        },
        {
          "internalType": "uint256",
          "name": "tokenId",
          "type": "uint256"
        }
      ],
      "name": "transferFrom",
      "outputs": [],
      "stateMutability": "nonpayable",
      "type": "function"
    },
    {
      "inputs": [],
      "name": "unpause",
      "outputs": [],
      "stateMutability": "nonpayable",
      "type": "function"
    }
  ],
  "bytecode": "0x60806040523480156200001157600080fd5b506040518060400160405280600b81526020017f44796e61537472697065730000000000000000000000000000000000000000008152506040518060400160405280600381526020017f4453530000000000000000000000000000000000000000000000000000000000815250816000908051906020019062000096929190620002c7565b508060019080519060200190620000af929190620002c7565b5050506000600b60006101000a81548160ff021916908315150217905550620000e26000801b336200014c60201b60201c565b620001147f65d7a28e3265b37a6474929f336521b332c1681b933f6cb9f3376673440d862a336200014c60201b60201c565b620001467f9f2df0fed2c77648de5860a4cc508cd0818c85b8b8a1ab4ceeef8d981c8956a6336200014c60201b60201c565b620003dc565b6200015e82826200016260201b60201c565b5050565b6200017482826200025460201b60201c565b62000250576001600c600084815260200190815260200160002060000160008373ffffffffffffffffffffffffffffffffffffffff1673ffffffffffffffffffffffffffffffffffffffff16815260200190815260200160002060006101000a81548160ff021916908315150217905550620001f5620002bf60201b60201c565b73ffffffffffffffffffffffffffffffffffffffff168173ffffffffffffffffffffffffffffffffffffffff16837f2f8788117e7eff1d82e926ec794901d17c78024a50270940304540a733656f0d60405160405180910390a45b5050565b6000600c600084815260200190815260200160002060000160008373ffffffffffffffffffffffffffffffffffffffff1673ffffffffffffffffffffffffffffffffffffffff16815260200190815260200160002060009054906101000a900460ff16905092915050565b600033905090565b828054620002d59062000377565b90600052602060002090601f016020900481019282620002f9576000855562000345565b82601f106200031457805160ff191683800117855562000345565b8280016001018555821562000345579182015b828111156200034457825182559160200191906001019062000327565b5b50905062000354919062000358565b5090565b5b808211156200037357600081600090555060010162000359565b5090565b600060028204905060018216806200039057607f821691505b60208210811415620003a757620003a6620003ad565b5b50919050565b7f4e487b7100000000000000000000000000000000000000000000000000000000600052602260045260246000fd5b615dd180620003ec6000396000f3fe608060405234801561001057600080fd5b50600436106102065760003560e01c806349c657db1161011a578063a217fddf116100ad578063c87b56dd1161007c578063c87b56dd146105ec578063d53913931461061c578063d547741f1461063a578063e63ab1e914610656578063e985e9c51461067457610206565b8063a217fddf14610566578063a22cb46514610584578063b88d4fde146105a0578063bc921dc2146105bc57610206565b806370a08231116100e957806370a08231146104de5780638456cb591461050e57806391d148541461051857806395d89b411461054857610206565b806349c657db146104425780634f6ccce7146104605780635c975abb146104905780636352211e146104ae57610206565b806323b872dd1161019d5780632f745c591161016c5780632f745c59146103b457806336568abe146103e45780633f4ba83a1461040057806342842e0e1461040a57806342966c681461042657610206565b806323b872dd1461031b578063248a9ca3146103375780632a55205a146103675780632f2ff15d1461039857610206565b8063095ea7b3116101d9578063095ea7b3146102a75780630ed9ec06146102c357806318160ddd146102df5780631d0d4e8b146102fd57610206565b806301ffc9a71461020b578063031bd4c41461023b57806306fdde0314610259578063081812fc14610277575b600080fd5b61022560048036038101906102209190613db8565b6106a4565b604051610232919061485b565b60405180910390f35b6102436106b6565b6040516102509190614c53565b60405180910390f35b6102616106bc565b60405161026e9190614891565b60405180910390f35b610291600480360381019061028c9190613e0a565b61074e565b60405161029e91906147cb565b60405180910390f35b6102c160048036038101906102bc9190613d17565b6107d3565b005b6102dd60048036038101906102d89190613e6f565b6108eb565b005b6102e7610cba565b6040516102f49190614c6e565b60405180910390f35b610305610cc7565b604051610312919061485b565b60405180910390f35b61033560048036038101906103309190613c11565b610cdb565b005b610351600480360381019061034c9190613d53565b610d3b565b60405161035e9190614876565b60405180910390f35b610381600480360381019061037c9190613e33565b610d5b565b60405161038f929190614832565b60405180910390f35b6103b260048036038101906103ad9190613d7c565b610e0e565b005b6103ce60048036038101906103c99190613d17565b610e37565b6040516103db9190614c6e565b60405180910390f35b6103fe60048036038101906103f99190613d7c565b610edc565b005b610408610f5f565b005b610424600480360381019061041f9190613c11565b610f9c565b005b610440600480360381019061043b9190613e0a565b610fbc565b005b61044a611018565b6040516104579190614c53565b60405180910390f35b61047a60048036038101906104759190613e0a565b61101e565b6040516104879190614c6e565b60405180910390f35b6104986110b5565b6040516104a5919061485b565b60405180910390f35b6104c860048036038101906104c39190613e0a565b6110cc565b6040516104d591906147cb565b60405180910390f35b6104f860048036038101906104f39190613bac565b61117e565b6040516105059190614c6e565b60405180910390f35b610516611236565b005b610532600480360381019061052d9190613d7c565b611273565b60405161053f919061485b565b60405180910390f35b6105506112de565b60405161055d9190614891565b60405180910390f35b61056e611370565b60405161057b9190614876565b60405180910390f35b61059e60048036038101906105999190613cdb565b611377565b005b6105ba60048036038101906105b59190613c60565b6114f8565b005b6105d660048036038101906105d19190613e0a565b61155a565b6040516105e39190614891565b60405180910390f35b61060660048036038101906106019190613e0a565b611861565b6040516106139190614891565b60405180910390f35b610624611873565b6040516106319190614876565b60405180910390f35b610654600480360381019061064f9190613d7c565b611897565b005b61065e6118c0565b60405161066b9190614876565b60405180910390f35b61068e60048036038101906106899190613bd5565b6118e4565b60405161069b919061485b565b60405180910390f35b60006106af82611978565b9050919050565b610fa081565b6060600080546106cb9061502b565b80601f01602080910402602001604051908101604052809291908181526020018280546106f79061502b565b80156107445780601f1061071957610100808354040283529160200191610744565b820191906000526020600020905b81548152906001019060200180831161072757829003601f168201915b5050505050905090565b6000610759826119f2565b610798576040517f08c379a000000000000000000000000000000000000000000000000000000000815260040161078f90614af3565b60405180910390fd5b6004600083815260200190815260200160002060009054906101000a900473ffffffffffffffffffffffffffffffffffffffff169050919050565b60006107de826110cc565b90508073ffffffffffffffffffffffffffffffffffffffff168373ffffffffffffffffffffffffffffffffffffffff16141561084f576040517f08c379a000000000000000000000000000000000000000000000000000000000815260040161084690614b53565b60405180910390fd5b8073ffffffffffffffffffffffffffffffffffffffff1661086e611a5e565b73ffffffffffffffffffffffffffffffffffffffff16148061089d575061089c81610897611a5e565b6118e4565b5b6108dc576040517f08c379a00000000000000000000000000000000000000000000000000000000081526004016108d390614a33565b60405180910390fd5b6108e68383611a66565b505050565b60006108f7600e611b1f565b9050610fa061ffff168110610941576040517f08c379a000000000000000000000000000000000000000000000000000000000815260040161093890614993565b60405180910390fd5b60008960ff1610158015610959575060b48860ff1611155b801561096b57508760ff168960ff1611155b6109aa576040517f08c379a00000000000000000000000000000000000000000000000000000000081526004016109a1906148f3565b60405180910390fd5b60008760ff16101580156109c2575060ff8660ff1611155b80156109d457508560ff168760ff1611155b610a13576040517f08c379a0000000000000000000000000000000000000000000000000000000008152600401610a0a90614c13565b60405180910390fd5b60008560ff1610158015610a2b575060ff8460ff1611155b8015610a3d57508360ff168560ff1611155b610a7c576040517f08c379a0000000000000000000000000000000000000000000000000000000008152600401610a7390614b73565b60405180910390fd5b60148360ff1610158015610a94575060ff8260ff1611155b8015610aa657508160ff168360ff1611155b610ae5576040517f08c379a0000000000000000000000000000000000000000000000000000000008152600401610adc90614ad3565b60405180910390fd5b610aef3382611b2d565b610b0081336103e861ffff16611b4b565b6040518061012001604052808b63ffffffff1681526020018a60ff1681526020018960ff1681526020018860ff1681526020018760ff1681526020018660ff1681526020018560ff1681526020018460ff1681526020018360ff16815250600f600083815260200190815260200160002060008201518160000160006101000a81548163ffffffff021916908363ffffffff16021790555060208201518160000160046101000a81548160ff021916908360ff16021790555060408201518160000160056101000a81548160ff021916908360ff16021790555060608201518160000160066101000a81548160ff021916908360ff16021790555060808201518160000160076101000a81548160ff021916908360ff16021790555060a08201518160000160086101000a81548160ff021916908360ff16021790555060c08201518160000160096101000a81548160ff021916908360ff16021790555060e082015181600001600a6101000a81548160ff021916908360ff16021790555061010082015181600001600b6101000a81548160ff021916908360ff160217905550905050610cae600e611c27565b50505050505050505050565b6000600880549050905090565b6000610cd66000801b33611273565b905090565b610cec610ce6611a5e565b82611c3d565b610d2b576040517f08c379a0000000000000000000000000000000000000000000000000000000008152600401610d2290614b93565b60405180910390fd5b610d36838383611d1b565b505050565b6000600c6000838152602001908152602001600020600101549050919050565b6000806000600d60008681526020019081526020016000206040518060400160405290816000820160009054906101000a900473ffffffffffffffffffffffffffffffffffffffff1673ffffffffffffffffffffffffffffffffffffffff1673ffffffffffffffffffffffffffffffffffffffff16815260200160018201548152505090508060000151612710826020015186610df89190614e54565b610e029190614de7565b92509250509250929050565b610e1782610d3b565b610e2881610e23611a5e565b611f77565b610e328383612014565b505050565b6000610e428361117e565b8210610e83576040517f08c379a0000000000000000000000000000000000000000000000000000000008152600401610e7a90614933565b60405180910390fd5b600660008473ffffffffffffffffffffffffffffffffffffffff1673ffffffffffffffffffffffffffffffffffffffff168152602001908152602001600020600083815260200190815260200160002054905092915050565b610ee4611a5e565b73ffffffffffffffffffffffffffffffffffffffff168173ffffffffffffffffffffffffffffffffffffffff1614610f51576040517f08c379a0000000000000000000000000000000000000000000000000000000008152600401610f4890614c33565b60405180910390fd5b610f5b82826120f5565b5050565b7f65d7a28e3265b37a6474929f336521b332c1681b933f6cb9f3376673440d862a610f9181610f8c611a5e565b611f77565b610f996121d7565b50565b610fb7838383604051806020016040528060008152506114f8565b505050565b610fcd610fc7611a5e565b82611c3d565b61100c576040517f08c379a000000000000000000000000000000000000000000000000000000000815260040161100390614bf3565b60405180910390fd5b61101581612279565b50565b6103e881565b6000611028610cba565b8210611069576040517f08c379a000000000000000000000000000000000000000000000000000000000815260040161106090614bb3565b60405180910390fd5b600882815481106110a3577f4e487b7100000000000000000000000000000000000000000000000000000000600052603260045260246000fd5b90600052602060002001549050919050565b6000600b60009054906101000a900460ff16905090565b6000806002600084815260200190815260200160002060009054906101000a900473ffffffffffffffffffffffffffffffffffffffff169050600073ffffffffffffffffffffffffffffffffffffffff168173ffffffffffffffffffffffffffffffffffffffff161415611175576040517f08c379a000000000000000000000000000000000000000000000000000000000815260040161116c90614a73565b60405180910390fd5b80915050919050565b60008073ffffffffffffffffffffffffffffffffffffffff168273ffffffffffffffffffffffffffffffffffffffff1614156111ef576040517f08c379a00000000000000000000000000000000000000000000000000000000081526004016111e690614a53565b60405180910390fd5b600360008373ffffffffffffffffffffffffffffffffffffffff1673ffffffffffffffffffffffffffffffffffffffff168152602001908152602001600020549050919050565b7f65d7a28e3265b37a6474929f336521b332c1681b933f6cb9f3376673440d862a61126881611263611a5e565b611f77565b611270612285565b50565b6000600c600084815260200190815260200160002060000160008373ffffffffffffffffffffffffffffffffffffffff1673ffffffffffffffffffffffffffffffffffffffff16815260200190815260200160002060009054906101000a900460ff16905092915050565b6060600180546112ed9061502b565b80601f01602080910402602001604051908101604052809291908181526020018280546113199061502b565b80156113665780601f1061133b57610100808354040283529160200191611366565b820191906000526020600020905b81548152906001019060200180831161134957829003601f168201915b5050505050905090565b6000801b81565b61137f611a5e565b73ffffffffffffffffffffffffffffffffffffffff168273ffffffffffffffffffffffffffffffffffffffff1614156113ed576040517f08c379a00000000000000000000000000000000000000000000000000000000081526004016113e4906149d3565b60405180910390fd5b80600560006113fa611a5e565b73ffffffffffffffffffffffffffffffffffffffff1673ffffffffffffffffffffffffffffffffffffffff16815260200190815260200160002060008473ffffffffffffffffffffffffffffffffffffffff1673ffffffffffffffffffffffffffffffffffffffff16815260200190815260200160002060006101000a81548160ff0219169083151502179055508173ffffffffffffffffffffffffffffffffffffffff166114a7611a5e565b73ffffffffffffffffffffffffffffffffffffffff167f17307eab39ab6107e8899845ad3d59bd9653f200f220920489ca2b5937696c31836040516114ec919061485b565b60405180910390a35050565b611509611503611a5e565b83611c3d565b611548576040517f08c379a000000000000000000000000000000000000000000000000000000000815260040161153f90614b93565b60405180910390fd5b61155484848484612328565b50505050565b6060611566600e611b1f565b82106115a7576040517f08c379a000000000000000000000000000000000000000000000000000000000815260040161159e90614bd3565b60405180910390fd5b6000600f6000848152602001908152602001600020604051806101200160405290816000820160009054906101000a900463ffffffff1663ffffffff1663ffffffff1681526020016000820160049054906101000a900460ff1660ff1660ff1681526020016000820160059054906101000a900460ff1660ff1660ff1681526020016000820160069054906101000a900460ff1660ff1660ff1681526020016000820160079054906101000a900460ff1660ff1660ff1681526020016000820160089054906101000a900460ff1660ff1660ff1681526020016000820160099054906101000a900460ff1660ff1660ff16815260200160008201600a9054906101000a900460ff1660ff1660ff16815260200160008201600b9054906101000a900460ff1660ff1660ff168152505090506000806107d090506000836000015163ffffffff1690506000604051806060016040528060408152602001615d5c6040913990505b6000848461171b9190614eae565b61ffff16111561183257600061174083876060015160ff16886080015160ff16612384565b90508061ffff1685856117539190614eae565b61ffff16101561176c5784846117699190614eae565b90505b600061177b8661ffff166123a6565b6117888361ffff166123a6565b61179b868a602001518b6040015161257b565b6117af878b60e001518c61010001516125a3565b6117c2888c60a001518d60c001516125d7565b6040516020016117d695949392919061469c565b604051602081830303815290604052905082816040516020016117fa929190614604565b604051602081830303815290604052925081866118179190614d22565b95508561ffff16846118299190614d5a565b9350505061170d565b80604051602001611843919061467a565b60405160208183030381529060405290508095505050505050919050565b606061186c82612632565b9050919050565b7f9f2df0fed2c77648de5860a4cc508cd0818c85b8b8a1ab4ceeef8d981c8956a681565b6118a082610d3b565b6118b1816118ac611a5e565b611f77565b6118bb83836120f5565b505050565b7f65d7a28e3265b37a6474929f336521b332c1681b933f6cb9f3376673440d862a81565b6000600560008473ffffffffffffffffffffffffffffffffffffffff1673ffffffffffffffffffffffffffffffffffffffff16815260200190815260200160002060008373ffffffffffffffffffffffffffffffffffffffff1673ffffffffffffffffffffffffffffffffffffffff16815260200190815260200160002060009054906101000a900460ff16905092915050565b60007f2a55205a000000000000000000000000000000000000000000000000000000007bffffffffffffffffffffffffffffffffffffffffffffffffffffffff1916827bffffffffffffffffffffffffffffffffffffffffffffffffffffffff191614806119eb57506119ea82612784565b5b9050919050565b60008073ffffffffffffffffffffffffffffffffffffffff166002600084815260200190815260200160002060009054906101000a900473ffffffffffffffffffffffffffffffffffffffff1673ffffffffffffffffffffffffffffffffffffffff1614159050919050565b600033905090565b816004600083815260200190815260200160002060006101000a81548173ffffffffffffffffffffffffffffffffffffffff021916908373ffffffffffffffffffffffffffffffffffffffff160217905550808273ffffffffffffffffffffffffffffffffffffffff16611ad9836110cc565b73ffffffffffffffffffffffffffffffffffffffff167f8c5be1e5ebec7d5bd14f71427d1e84f3dd0314c0f7b2291e5b200ac8c7c3b92560405160405180910390a45050565b600081600001549050919050565b611b478282604051806020016040528060008152506127fe565b5050565b612710811115611b90576040517f08c379a0000000000000000000000000000000000000000000000000000000008152600401611b8790614913565b60405180910390fd5b60405180604001604052808373ffffffffffffffffffffffffffffffffffffffff16815260200182815250600d600085815260200190815260200160002060008201518160000160006101000a81548173ffffffffffffffffffffffffffffffffffffffff021916908373ffffffffffffffffffffffffffffffffffffffff16021790555060208201518160010155905050505050565b6001816000016000828254019250508190555050565b6000611c48826119f2565b611c87576040517f08c379a0000000000000000000000000000000000000000000000000000000008152600401611c7e906149f3565b60405180910390fd5b6000611c92836110cc565b90508073ffffffffffffffffffffffffffffffffffffffff168473ffffffffffffffffffffffffffffffffffffffff161480611d0157508373ffffffffffffffffffffffffffffffffffffffff16611ce98461074e565b73ffffffffffffffffffffffffffffffffffffffff16145b80611d125750611d1181856118e4565b5b91505092915050565b8273ffffffffffffffffffffffffffffffffffffffff16611d3b826110cc565b73ffffffffffffffffffffffffffffffffffffffff1614611d91576040517f08c379a0000000000000000000000000000000000000000000000000000000008152600401611d8890614b13565b60405180910390fd5b600073ffffffffffffffffffffffffffffffffffffffff168273ffffffffffffffffffffffffffffffffffffffff161415611e01576040517f08c379a0000000000000000000000000000000000000000000000000000000008152600401611df8906149b3565b60405180910390fd5b611e0c838383612859565b611e17600082611a66565b6001600360008573ffffffffffffffffffffffffffffffffffffffff1673ffffffffffffffffffffffffffffffffffffffff1681526020019081526020016000206000828254611e679190614ee2565b925050819055506001600360008473ffffffffffffffffffffffffffffffffffffffff1673ffffffffffffffffffffffffffffffffffffffff1681526020019081526020016000206000828254611ebe9190614d5a565b92505081905550816002600083815260200190815260200160002060006101000a81548173ffffffffffffffffffffffffffffffffffffffff021916908373ffffffffffffffffffffffffffffffffffffffff160217905550808273ffffffffffffffffffffffffffffffffffffffff168473ffffffffffffffffffffffffffffffffffffffff167fddf252ad1be2c89b69c2b068fc378daa952ba7f163c4a11628f55a4df523b3ef60405160405180910390a4505050565b611f818282611273565b61201057611fa68173ffffffffffffffffffffffffffffffffffffffff1660146128b1565b611fb48360001c60206128b1565b604051602001611fc5929190614791565b6040516020818303038152906040526040517f08c379a00000000000000000000000000000000000000000000000000000000081526004016120079190614891565b60405180910390fd5b5050565b61201e8282611273565b6120f1576001600c600084815260200190815260200160002060000160008373ffffffffffffffffffffffffffffffffffffffff1673ffffffffffffffffffffffffffffffffffffffff16815260200190815260200160002060006101000a81548160ff021916908315150217905550612096611a5e565b73ffffffffffffffffffffffffffffffffffffffff168173ffffffffffffffffffffffffffffffffffffffff16837f2f8788117e7eff1d82e926ec794901d17c78024a50270940304540a733656f0d60405160405180910390a45b5050565b6120ff8282611273565b156121d3576000600c600084815260200190815260200160002060000160008373ffffffffffffffffffffffffffffffffffffffff1673ffffffffffffffffffffffffffffffffffffffff16815260200190815260200160002060006101000a81548160ff021916908315150217905550612178611a5e565b73ffffffffffffffffffffffffffffffffffffffff168173ffffffffffffffffffffffffffffffffffffffff16837ff6391f5c32d9c69d2a47ea670b442974b53935d1edc7fd64eb21e047a839171b60405160405180910390a45b5050565b6121df6110b5565b61221e576040517f08c379a0000000000000000000000000000000000000000000000000000000008152600401612215906148d3565b60405180910390fd5b6000600b60006101000a81548160ff0219169083151502179055507f5db9ee0a495bf2e6ff9c91a7834c1ba4fdd244a5e8aa4e537bd38aeae4b073aa612262611a5e565b60405161226f91906147cb565b60405180910390a1565b61228281612bab565b50565b61228d6110b5565b156122cd576040517f08c379a00000000000000000000000000000000000000000000000000000000081526004016122c490614a13565b60405180910390fd5b6001600b60006101000a81548160ff0219169083151502179055507f62e78cea01bee320cd4e420270b5ea74000d11b0c9f74754ebdbfc544b05a258612311611a5e565b60405161231e91906147cb565b60405180910390a1565b612333848484611d1b565b61233f84848484612bfe565b61237e576040517f08c379a000000000000000000000000000000000000000000000000000000000815260040161237590614953565b60405180910390fd5b50505050565b60006032612393858585612d95565b61239d9190614d22565b90509392505050565b606060008214156123ee576040518060400160405280600181526020017f30000000000000000000000000000000000000000000000000000000000000008152509050612576565b600082905060005b600082146124205780806124099061508e565b915050600a826124199190614de7565b91506123f6565b60008167ffffffffffffffff811115612462577f4e487b7100000000000000000000000000000000000000000000000000000000600052604160045260246000fd5b6040519080825280601f01601f1916602001820160405280156124945781602001600182028036833780820191505090505b50905060008290505b6000861461256e576001816124b29190614ee2565b90506000600a80886124c49190614de7565b6124ce9190614e54565b876124d99190614ee2565b60306124e59190614db0565b905060008160f81b905080848481518110612529577f4e487b7100000000000000000000000000000000000000000000000000000000600052603260045260246000fd5b60200101907effffffffffffffffffffffffffffffffffffffffffffffffffffffffffffff1916908160001a905350600a886125659190614de7565b9750505061249d565b819450505050505b919050565b606061259a612591858560ff168560ff16612d95565b61ffff166123a6565b90509392505050565b60606125ce600a6125bb868660ff168660ff16612d95565b6125c59190614e18565b61ffff166123a6565b90509392505050565b606060006125e6858585612dde565b905060006126016002876125fa9190614e54565b8686612dde565b905081818360405160200161261893929190614628565b604051602081830303815290604052925050509392505050565b606061263d826119f2565b61267c576040517f08c379a000000000000000000000000000000000000000000000000000000000815260040161267390614ab3565b60405180910390fd5b6000600a6000848152602001908152602001600020805461269c9061502b565b80601f01602080910402602001604051908101604052809291908181526020018280546126c89061502b565b80156127155780601f106126ea57610100808354040283529160200191612715565b820191906000526020600020905b8154815290600101906020018083116126f857829003601f168201915b505050505090506000612726612e8b565b905060008151141561273c57819250505061277f565b600082511115612771578082604051602001612759929190614604565b6040516020818303038152906040529250505061277f565b61277a84612ea2565b925050505b919050565b60007f7965db0b000000000000000000000000000000000000000000000000000000007bffffffffffffffffffffffffffffffffffffffffffffffffffffffff1916827bffffffffffffffffffffffffffffffffffffffffffffffffffffffff191614806127f757506127f682612f49565b5b9050919050565b6128088383612fc3565b6128156000848484612bfe565b612854576040517f08c379a000000000000000000000000000000000000000000000000000000000815260040161284b90614953565b60405180910390fd5b505050565b6128616110b5565b156128a1576040517f08c379a000000000000000000000000000000000000000000000000000000000815260040161289890614a13565b60405180910390fd5b6128ac838383613191565b505050565b6060600060028360026128c49190614e54565b6128ce9190614d5a565b67ffffffffffffffff81111561290d577f4e487b7100000000000000000000000000000000000000000000000000000000600052604160045260246000fd5b6040519080825280601f01601f19166020018201604052801561293f5781602001600182028036833780820191505090505b5090507f30000000000000000000000000000000000000000000000000000000000000008160008151811061299d577f4e487b7100000000000000000000000000000000000000000000000000000000600052603260045260246000fd5b60200101907effffffffffffffffffffffffffffffffffffffffffffffffffffffffffffff1916908160001a9053507f780000000000000000000000000000000000000000000000000000000000000081600181518110612a27577f4e487b7100000000000000000000000000000000000000000000000000000000600052603260045260246000fd5b60200101907effffffffffffffffffffffffffffffffffffffffffffffffffffffffffffff1916908160001a90535060006001846002612a679190614e54565b612a719190614d5a565b90505b6001811115612b5d577f3031323334353637383961626364656600000000000000000000000000000000600f861660108110612ad9577f4e487b7100000000000000000000000000000000000000000000000000000000600052603260045260246000fd5b1a60f81b828281518110612b16577f4e487b7100000000000000000000000000000000000000000000000000000000600052603260045260246000fd5b60200101907effffffffffffffffffffffffffffffffffffffffffffffffffffffffffffff1916908160001a905350600485901c945080612b5690615001565b9050612a74565b5060008414612ba1576040517f08c379a0000000000000000000000000000000000000000000000000000000008152600401612b98906148b3565b60405180910390fd5b8091505092915050565b612bb4816132a5565b6000600a60008381526020019081526020016000208054612bd49061502b565b905014612bfb57600a60008281526020019081526020016000206000612bfa9190613a3f565b5b50565b6000612c1f8473ffffffffffffffffffffffffffffffffffffffff166133b6565b15612d88578373ffffffffffffffffffffffffffffffffffffffff1663150b7a02612c48611a5e565b8786866040518563ffffffff1660e01b8152600401612c6a94939291906147e6565b602060405180830381600087803b158015612c8457600080fd5b505af1925050508015612cb557506040513d601f19601f82011682018060405250810190612cb29190613de1565b60015b612d38573d8060008114612ce5576040519150601f19603f3d011682016040523d82523d6000602084013e612cea565b606091505b50600081511415612d30576040517f08c379a0000000000000000000000000000000000000000000000000000000008152600401612d2790614953565b60405180910390fd5b805181602001fd5b63150b7a0260e01b7bffffffffffffffffffffffffffffffffffffffffffffffffffffffff1916817bffffffffffffffffffffffffffffffffffffffffffffffffffffffff191614915050612d8d565b600190505b949350505050565b60008261ffff168261ffff1611612dae57829050612dd7565b828383612dbb9190614eae565b61ffff1685612dca91906150d7565b612dd49190614d22565b90505b9392505050565b60606000612df3858560ff168560ff16612d95565b61ffff1690506000612e18600287612e0b9190614e54565b8660ff168660ff16612d95565b61ffff1690506000612e3d600388612e309190614e54565b8760ff168760ff16612d95565b61ffff169050612e4c836123a6565b612e55836123a6565b612e5e836123a6565b604051602001612e7093929190614734565b60405160208183030381529060405293505050509392505050565b606060405180602001604052806000815250905090565b6060612ead826119f2565b612eec576040517f08c379a0000000000000000000000000000000000000000000000000000000008152600401612ee390614b33565b60405180910390fd5b6000612ef6612e8b565b90506000815111612f165760405180602001604052806000815250612f41565b80612f20846133c9565b604051602001612f31929190614604565b6040516020818303038152906040525b915050919050565b60007f780e9d63000000000000000000000000000000000000000000000000000000007bffffffffffffffffffffffffffffffffffffffffffffffffffffffff1916827bffffffffffffffffffffffffffffffffffffffffffffffffffffffff19161480612fbc5750612fbb82613576565b5b9050919050565b600073ffffffffffffffffffffffffffffffffffffffff168273ffffffffffffffffffffffffffffffffffffffff161415613033576040517f08c379a000000000000000000000000000000000000000000000000000000000815260040161302a90614a93565b60405180910390fd5b61303c816119f2565b1561307c576040517f08c379a000000000000000000000000000000000000000000000000000000000815260040161307390614973565b60405180910390fd5b61308860008383612859565b6001600360008473ffffffffffffffffffffffffffffffffffffffff1673ffffffffffffffffffffffffffffffffffffffff16815260200190815260200160002060008282546130d89190614d5a565b92505081905550816002600083815260200190815260200160002060006101000a81548173ffffffffffffffffffffffffffffffffffffffff021916908373ffffffffffffffffffffffffffffffffffffffff160217905550808273ffffffffffffffffffffffffffffffffffffffff16600073ffffffffffffffffffffffffffffffffffffffff167fddf252ad1be2c89b69c2b068fc378daa952ba7f163c4a11628f55a4df523b3ef60405160405180910390a45050565b61319c838383613658565b600073ffffffffffffffffffffffffffffffffffffffff168373ffffffffffffffffffffffffffffffffffffffff1614156131df576131da8161365d565b61321e565b8173ffffffffffffffffffffffffffffffffffffffff168373ffffffffffffffffffffffffffffffffffffffff161461321d5761321c83826136a6565b5b5b600073ffffffffffffffffffffffffffffffffffffffff168273ffffffffffffffffffffffffffffffffffffffff1614156132615761325c81613813565b6132a0565b8273ffffffffffffffffffffffffffffffffffffffff168273ffffffffffffffffffffffffffffffffffffffff161461329f5761329e8282613956565b5b5b505050565b60006132b0826110cc565b90506132be81600084612859565b6132c9600083611a66565b6001600360008373ffffffffffffffffffffffffffffffffffffffff1673ffffffffffffffffffffffffffffffffffffffff16815260200190815260200160002060008282546133199190614ee2565b925050819055506002600083815260200190815260200160002060006101000a81549073ffffffffffffffffffffffffffffffffffffffff021916905581600073ffffffffffffffffffffffffffffffffffffffff168273ffffffffffffffffffffffffffffffffffffffff167fddf252ad1be2c89b69c2b068fc378daa952ba7f163c4a11628f55a4df523b3ef60405160405180910390a45050565b600080823b905060008111915050919050565b60606000821415613411576040518060400160405280600181526020017f30000000000000000000000000000000000000000000000000000000000000008152509050613571565b600082905060005b6000821461344357808061342c9061508e565b915050600a8261343c9190614de7565b9150613419565b60008167ffffffffffffffff811115613485577f4e487b7100000000000000000000000000000000000000000000000000000000600052604160045260246000fd5b6040519080825280601f01601f1916602001820160405280156134b75781602001600182028036833780820191505090505b5090505b6000851461356a576001826134d09190614ee2565b9150600a856134df91906150d7565b60306134eb9190614d5a565b60f81b818381518110613527577f4e487b7100000000000000000000000000000000000000000000000000000000600052603260045260246000fd5b60200101907effffffffffffffffffffffffffffffffffffffffffffffffffffffffffffff1916908160001a905350600a856135639190614de7565b94506134bb565b8093505050505b919050565b60007f80ac58cd000000000000000000000000000000000000000000000000000000007bffffffffffffffffffffffffffffffffffffffffffffffffffffffff1916827bffffffffffffffffffffffffffffffffffffffffffffffffffffffff1916148061364157507f5b5e139f000000000000000000000000000000000000000000000000000000007bffffffffffffffffffffffffffffffffffffffffffffffffffffffff1916827bffffffffffffffffffffffffffffffffffffffffffffffffffffffff1916145b806136515750613650826139d5565b5b9050919050565b505050565b6008805490506009600083815260200190815260200160002081905550600881908060018154018082558091505060019003906000526020600020016000909190919091505550565b600060016136b38461117e565b6136bd9190614ee2565b90506000600760008481526020019081526020016000205490508181146137a2576000600660008673ffffffffffffffffffffffffffffffffffffffff1673ffffffffffffffffffffffffffffffffffffffff168152602001908152602001600020600084815260200190815260200160002054905080600660008773ffffffffffffffffffffffffffffffffffffffff1673ffffffffffffffffffffffffffffffffffffffff168152602001908152602001600020600084815260200190815260200160002081905550816007600083815260200190815260200160002081905550505b6007600084815260200190815260200160002060009055600660008573ffffffffffffffffffffffffffffffffffffffff1673ffffffffffffffffffffffffffffffffffffffff16815260200190815260200160002060008381526020019081526020016000206000905550505050565b600060016008805490506138279190614ee2565b905060006009600084815260200190815260200160002054905060006008838154811061387d577f4e487b7100000000000000000000000000000000000000000000000000000000600052603260045260246000fd5b9060005260206000200154905080600883815481106138c5577f4e487b7100000000000000000000000000000000000000000000000000000000600052603260045260246000fd5b90600052602060002001819055508160096000838152602001908152602001600020819055506009600085815260200190815260200160002060009055600880548061393a577f4e487b7100000000000000000000000000000000000000000000000000000000600052603160045260246000fd5b6001900381819060005260206000200160009055905550505050565b60006139618361117e565b905081600660008573ffffffffffffffffffffffffffffffffffffffff1673ffffffffffffffffffffffffffffffffffffffff168152602001908152602001600020600083815260200190815260200160002081905550806007600084815260200190815260200160002081905550505050565b60007f01ffc9a7000000000000000000000000000000000000000000000000000000007bffffffffffffffffffffffffffffffffffffffffffffffffffffffff1916827bffffffffffffffffffffffffffffffffffffffffffffffffffffffff1916149050919050565b508054613a4b9061502b565b6000825580601f10613a5d5750613a7c565b601f016020900490600052602060002090810190613a7b9190613a7f565b5b50565b5b80821115613a98576000816000905550600101613a80565b5090565b6000613aaf613aaa84614cae565b614c89565b905082815260208101848484011115613ac757600080fd5b613ad2848285614fbf565b509392505050565b600081359050613ae981615cba565b92915050565b600081359050613afe81615cd1565b92915050565b600081359050613b1381615ce8565b92915050565b600081359050613b2881615cff565b92915050565b600081519050613b3d81615cff565b92915050565b600082601f830112613b5457600080fd5b8135613b64848260208601613a9c565b91505092915050565b600081359050613b7c81615d16565b92915050565b600081359050613b9181615d2d565b92915050565b600081359050613ba681615d44565b92915050565b600060208284031215613bbe57600080fd5b6000613bcc84828501613ada565b91505092915050565b60008060408385031215613be857600080fd5b6000613bf685828601613ada565b9250506020613c0785828601613ada565b9150509250929050565b600080600060608486031215613c2657600080fd5b6000613c3486828701613ada565b9350506020613c4586828701613ada565b9250506040613c5686828701613b6d565b9150509250925092565b60008060008060808587031215613c7657600080fd5b6000613c8487828801613ada565b9450506020613c9587828801613ada565b9350506040613ca687828801613b6d565b925050606085013567ffffffffffffffff811115613cc357600080fd5b613ccf87828801613b43565b91505092959194509250565b60008060408385031215613cee57600080fd5b6000613cfc85828601613ada565b9250506020613d0d85828601613aef565b9150509250929050565b60008060408385031215613d2a57600080fd5b6000613d3885828601613ada565b9250506020613d4985828601613b6d565b9150509250929050565b600060208284031215613d6557600080fd5b6000613d7384828501613b04565b91505092915050565b60008060408385031215613d8f57600080fd5b6000613d9d85828601613b04565b9250506020613dae85828601613ada565b9150509250929050565b600060208284031215613dca57600080fd5b6000613dd884828501613b19565b91505092915050565b600060208284031215613df357600080fd5b6000613e0184828501613b2e565b91505092915050565b600060208284031215613e1c57600080fd5b6000613e2a84828501613b6d565b91505092915050565b60008060408385031215613e4657600080fd5b6000613e5485828601613b6d565b9250506020613e6585828601613b6d565b9150509250929050565b60008060008060008060008060006101208a8c031215613e8e57600080fd5b6000613e9c8c828d01613b82565b9950506020613ead8c828d01613b97565b9850506040613ebe8c828d01613b97565b9750506060613ecf8c828d01613b97565b9650506080613ee08c828d01613b97565b95505060a0613ef18c828d01613b97565b94505060c0613f028c828d01613b97565b93505060e0613f138c828d01613b97565b925050610100613f258c828d01613b97565b9150509295985092959850929598565b613f3e81614f16565b82525050565b613f4d81614f28565b82525050565b613f5c81614f34565b82525050565b6000613f6d82614cdf565b613f778185614cf5565b9350613f87818560208601614fce565b613f90816151c4565b840191505092915050565b6000613fa682614cea565b613fb08185614d06565b9350613fc0818560208601614fce565b613fc9816151c4565b840191505092915050565b6000613fdf82614cea565b613fe98185614d17565b9350613ff9818560208601614fce565b80840191505092915050565b6000614012602083614d06565b915061401d826151d5565b602082019050919050565b6000614035600983614d17565b9150614040826151fe565b600982019050919050565b6000614058601483614d06565b915061406382615227565b602082019050919050565b600061407b602b83614d06565b915061408682615250565b604082019050919050565b600061409e601a83614d06565b91506140a98261529f565b602082019050919050565b60006140c1602b83614d06565b91506140cc826152c8565b604082019050919050565b60006140e4603283614d06565b91506140ef82615317565b604082019050919050565b6000614107602783614d17565b915061411282615366565b602782019050919050565b600061412a601c83614d06565b9150614135826153b5565b602082019050919050565b600061414d603b83614d17565b9150614158826153de565b603b82019050919050565b6000614170602883614d06565b915061417b8261542d565b604082019050919050565b6000614193602183614d17565b915061419e8261547c565b602182019050919050565b60006141b6600483614d17565b91506141c1826154cb565b600482019050919050565b60006141d9602483614d06565b91506141e4826154f4565b604082019050919050565b60006141fc601983614d06565b915061420782615543565b602082019050919050565b600061421f603183614d17565b915061422a8261556c565b603182019050919050565b6000614242602c83614d06565b915061424d826155bb565b604082019050919050565b6000614265600183614d17565b91506142708261560a565b600182019050919050565b6000614288601083614d06565b915061429382615633565b602082019050919050565b60006142ab600183614d17565b91506142b68261565c565b600182019050919050565b60006142ce603883614d06565b91506142d982615685565b604082019050919050565b60006142f1602a83614d06565b91506142fc826156d4565b604082019050919050565b6000614314602983614d06565b915061431f82615723565b604082019050919050565b6000614337602083614d06565b915061434282615772565b602082019050919050565b600061435a603183614d06565b91506143658261579b565b604082019050919050565b600061437d602783614d06565b9150614388826157ea565b604082019050919050565b60006143a0602c83614d06565b91506143ab82615839565b604082019050919050565b60006143c3601383614d17565b91506143ce82615888565b601382019050919050565b60006143e6602983614d06565b91506143f1826158b1565b604082019050919050565b6000614409602f83614d06565b915061441482615900565b604082019050919050565b600061442c602183614d06565b91506144378261594f565b604082019050919050565b600061444f600283614d17565b915061445a8261599e565b600282019050919050565b6000614472602883614d06565b915061447d826159c7565b604082019050919050565b6000614495603183614d06565b91506144a082615a16565b604082019050919050565b60006144b8602c83614d06565b91506144c382615a65565b604082019050919050565b60006144db604183614d06565b91506144e682615ab4565b606082019050919050565b60006144fe600f83614d17565b915061450982615b29565b600f82019050919050565b6000614521601783614d17565b915061452c82615b52565b601782019050919050565b6000614544600683614d17565b915061454f82615b7b565b600682019050919050565b6000614567603083614d06565b915061457282615ba4565b604082019050919050565b600061458a602783614d06565b915061459582615bf3565b604082019050919050565b60006145ad601183614d17565b91506145b882615c42565b601182019050919050565b60006145d0602f83614d06565b91506145db82615c6b565b604082019050919050565b6145ef81614f6a565b82525050565b6145fe81614f98565b82525050565b60006146108285613fd4565b915061461c8284613fd4565b91508190509392505050565b60006146348286613fd4565b915061463f8261429e565b915061464b8285613fd4565b91506146568261429e565b91506146628284613fd4565b915061466d8261429e565b9150819050949350505050565b60006146868284613fd4565b915061469182614537565b915081905092915050565b60006146a782614028565b91506146b38288613fd4565b91506146be826144f1565b91506146ca8287613fd4565b91506146d582614140565b91506146e0826143b6565b91506146ec8286613fd4565b91506146f7826140fa565b91506147038285613fd4565b915061470e82614186565b915061471a8284613fd4565b915061472582614212565b91508190509695505050505050565b600061473f826141a9565b915061474b8286613fd4565b915061475682614442565b91506147628285613fd4565b915061476d82614442565b91506147798284613fd4565b915061478482614258565b9150819050949350505050565b600061479c82614514565b91506147a88285613fd4565b91506147b3826145a0565b91506147bf8284613fd4565b91508190509392505050565b60006020820190506147e06000830184613f35565b92915050565b60006080820190506147fb6000830187613f35565b6148086020830186613f35565b61481560408301856145f5565b81810360608301526148278184613f62565b905095945050505050565b60006040820190506148476000830185613f35565b61485460208301846145f5565b9392505050565b60006020820190506148706000830184613f44565b92915050565b600060208201905061488b6000830184613f53565b92915050565b600060208201905081810360008301526148ab8184613f9b565b905092915050565b600060208201905081810360008301526148cc81614005565b9050919050565b600060208201905081810360008301526148ec8161404b565b9050919050565b6000602082019050818103600083015261490c8161406e565b9050919050565b6000602082019050818103600083015261492c81614091565b9050919050565b6000602082019050818103600083015261494c816140b4565b9050919050565b6000602082019050818103600083015261496c816140d7565b9050919050565b6000602082019050818103600083015261498c8161411d565b9050919050565b600060208201905081810360008301526149ac81614163565b9050919050565b600060208201905081810360008301526149cc816141cc565b9050919050565b600060208201905081810360008301526149ec816141ef565b9050919050565b60006020820190508181036000830152614a0c81614235565b9050919050565b60006020820190508181036000830152614a2c8161427b565b9050919050565b60006020820190508181036000830152614a4c816142c1565b9050919050565b60006020820190508181036000830152614a6c816142e4565b9050919050565b60006020820190508181036000830152614a8c81614307565b9050919050565b60006020820190508181036000830152614aac8161432a565b9050919050565b60006020820190508181036000830152614acc8161434d565b9050919050565b60006020820190508181036000830152614aec81614370565b9050919050565b60006020820190508181036000830152614b0c81614393565b9050919050565b60006020820190508181036000830152614b2c816143d9565b9050919050565b60006020820190508181036000830152614b4c816143fc565b9050919050565b60006020820190508181036000830152614b6c8161441f565b9050919050565b60006020820190508181036000830152614b8c81614465565b9050919050565b60006020820190508181036000830152614bac81614488565b9050919050565b60006020820190508181036000830152614bcc816144ab565b9050919050565b60006020820190508181036000830152614bec816144ce565b9050919050565b60006020820190508181036000830152614c0c8161455a565b9050919050565b60006020820190508181036000830152614c2c8161457d565b9050919050565b60006020820190508181036000830152614c4c816145c3565b9050919050565b6000602082019050614c6860008301846145e6565b92915050565b6000602082019050614c8360008301846145f5565b92915050565b6000614c93614ca4565b9050614c9f828261505d565b919050565b6000604051905090565b600067ffffffffffffffff821115614cc957614cc8615195565b5b614cd2826151c4565b9050602081019050919050565b600081519050919050565b600081519050919050565b600082825260208201905092915050565b600082825260208201905092915050565b600081905092915050565b6000614d2d82614f6a565b9150614d3883614f6a565b92508261ffff03821115614d4f57614d4e615108565b5b828201905092915050565b6000614d6582614f98565b9150614d7083614f98565b9250827fffffffffffffffffffffffffffffffffffffffffffffffffffffffffffffffff03821115614da557614da4615108565b5b828201905092915050565b6000614dbb82614fb2565b9150614dc683614fb2565b92508260ff03821115614ddc57614ddb615108565b5b828201905092915050565b6000614df282614f98565b9150614dfd83614f98565b925082614e0d57614e0c615137565b5b828204905092915050565b6000614e2382614f6a565b9150614e2e83614f6a565b92508161ffff0483118215151615614e4957614e48615108565b5b828202905092915050565b6000614e5f82614f98565b9150614e6a83614f98565b9250817fffffffffffffffffffffffffffffffffffffffffffffffffffffffffffffffff0483118215151615614ea357614ea2615108565b5b828202905092915050565b6000614eb982614f6a565b9150614ec483614f6a565b925082821015614ed757614ed6615108565b5b828203905092915050565b6000614eed82614f98565b9150614ef883614f98565b925082821015614f0b57614f0a615108565b5b828203905092915050565b6000614f2182614f78565b9050919050565b60008115159050919050565b6000819050919050565b60007fffffffff0000000000000000000000000000000000000000000000000000000082169050919050565b600061ffff82169050919050565b600073ffffffffffffffffffffffffffffffffffffffff82169050919050565b6000819050919050565b600063ffffffff82169050919050565b600060ff82169050919050565b82818337600083830152505050565b60005b83811015614fec578082015181840152602081019050614fd1565b83811115614ffb576000848401525b50505050565b600061500c82614f98565b915060008214156150205761501f615108565b5b600182039050919050565b6000600282049050600182168061504357607f821691505b6020821081141561505757615056615166565b5b50919050565b615066826151c4565b810181811067ffffffffffffffff8211171561508557615084615195565b5b80604052505050565b600061509982614f98565b91507fffffffffffffffffffffffffffffffffffffffffffffffffffffffffffffffff8214156150cc576150cb615108565b5b600182019050919050565b60006150e282614f98565b91506150ed83614f98565b9250826150fd576150fc615137565b5b828206905092915050565b7f4e487b7100000000000000000000000000000000000000000000000000000000600052601160045260246000fd5b7f4e487b7100000000000000000000000000000000000000000000000000000000600052601260045260246000fd5b7f4e487b7100000000000000000000000000000000000000000000000000000000600052602260045260246000fd5b7f4e487b7100000000000000000000000000000000000000000000000000000000600052604160045260246000fd5b6000601f19601f8301169050919050565b7f537472696e67733a20686578206c656e67746820696e73756666696369656e74600082015250565b7f3c7265637420783d270000000000000000000000000000000000000000000000600082015250565b7f5061757361626c653a206e6f7420706175736564000000000000000000000000600082015250565b7f526f746174696f6e2064656772656573206d757374206265206265747765656e60008201527f203020616e64203138302e000000000000000000000000000000000000000000602082015250565b7f45524332393831526f79616c746965733a20546f6f2068696768000000000000600082015250565b7f455243373231456e756d657261626c653a206f776e657220696e646578206f7560008201527f74206f6620626f756e6473000000000000000000000000000000000000000000602082015250565b7f4552433732313a207472616e7366657220746f206e6f6e20455243373231526560008201527f63656976657220696d706c656d656e7465720000000000000000000000000000602082015250565b7f2031303030203130303029273e3c616e696d61746520626567696e3d2027307360008201527f27206475723d2700000000000000000000000000000000000000000000000000602082015250565b7f4552433732313a20746f6b656e20616c7265616479206d696e74656400000000600082015250565b7f27206865696768743d2732303030272073686170652d72656e646572696e673d60008201527f27637269737045646765732720206f7061636974793d27302e38270000000000602082015250565b7f416c6c2044796e615374726970657320746f6b656e732068617665206265656e60008201527f206d696e7465642e000000000000000000000000000000000000000000000000602082015250565b7f6d7327206174747269627574654e616d653d2766696c6c272076616c7565733d60008201527f2700000000000000000000000000000000000000000000000000000000000000602082015250565b7f7267622800000000000000000000000000000000000000000000000000000000600082015250565b7f4552433732313a207472616e7366657220746f20746865207a65726f2061646460008201527f7265737300000000000000000000000000000000000000000000000000000000602082015250565b7f4552433732313a20617070726f766520746f2063616c6c657200000000000000600082015250565b7f272066696c6c3d27667265657a652720726570656174436f756e743d27696e6460008201527f6566696e697465272f3e3c2f726563743e000000000000000000000000000000602082015250565b7f4552433732313a206f70657261746f7220717565727920666f72206e6f6e657860008201527f697374656e7420746f6b656e0000000000000000000000000000000000000000602082015250565b7f2900000000000000000000000000000000000000000000000000000000000000600082015250565b7f5061757361626c653a2070617573656400000000000000000000000000000000600082015250565b7f3b00000000000000000000000000000000000000000000000000000000000000600082015250565b7f4552433732313a20617070726f76652063616c6c6572206973206e6f74206f7760008201527f6e6572206e6f7220617070726f76656420666f7220616c6c0000000000000000602082015250565b7f4552433732313a2062616c616e636520717565727920666f7220746865207a6560008201527f726f206164647265737300000000000000000000000000000000000000000000602082015250565b7f4552433732313a206f776e657220717565727920666f72206e6f6e657869737460008201527f656e7420746f6b656e0000000000000000000000000000000000000000000000602082015250565b7f4552433732313a206d696e7420746f20746865207a65726f2061646472657373600082015250565b7f45524337323155524953746f726167653a2055524920717565727920666f722060008201527f6e6f6e6578697374656e7420746f6b656e000000000000000000000000000000602082015250565b7f53706565642076616c7565206d757374206265206265747765656e203230206160008201527f6e64203235352e00000000000000000000000000000000000000000000000000602082015250565b7f4552433732313a20617070726f76656420717565727920666f72206e6f6e657860008201527f697374656e7420746f6b656e0000000000000000000000000000000000000000602082015250565b7f207472616e73666f726d3d27726f746174652800000000000000000000000000600082015250565b7f4552433732313a207472616e73666572206f6620746f6b656e2074686174206960008201527f73206e6f74206f776e0000000000000000000000000000000000000000000000602082015250565b7f4552433732314d657461646174613a2055524920717565727920666f72206e6f60008201527f6e6578697374656e7420746f6b656e0000000000000000000000000000000000602082015250565b7f4552433732313a20617070726f76616c20746f2063757272656e74206f776e6560008201527f7200000000000000000000000000000000000000000000000000000000000000602082015250565b7f2c20000000000000000000000000000000000000000000000000000000000000600082015250565b7f50616c657474652076616c7565206d757374206265206265747765656e20302060008201527f616e64203235352e000000000000000000000000000000000000000000000000602082015250565b7f4552433732313a207472616e736665722063616c6c6572206973206e6f74206f60008201527f776e6572206e6f7220617070726f766564000000000000000000000000000000602082015250565b7f455243373231456e756d657261626c653a20676c6f62616c20696e646578206f60008201527f7574206f6620626f756e64730000000000000000000000000000000000000000602082015250565b7f417474656d7074656420746f2067656e65726174652053564720666f7220746f60008201527f6b656e207468617420686173206e6f7420796574206265656e206d696e74656460208201527f2e00000000000000000000000000000000000000000000000000000000000000604082015250565b7f2720793d2730272077696474683d270000000000000000000000000000000000600082015250565b7f416363657373436f6e74726f6c3a206163636f756e7420000000000000000000600082015250565b7f3c2f7376673e0000000000000000000000000000000000000000000000000000600082015250565b7f4552433732314275726e61626c653a2063616c6c6572206973206e6f74206f7760008201527f6e6572206e6f7220617070726f76656400000000000000000000000000000000602082015250565b7f537472697065207769647468206d757374206265206265747765656e2030206160008201527f6e64203235352e00000000000000000000000000000000000000000000000000602082015250565b7f206973206d697373696e6720726f6c6520000000000000000000000000000000600082015250565b7f416363657373436f6e74726f6c3a2063616e206f6e6c792072656e6f756e636560008201527f20726f6c657320666f722073656c660000000000000000000000000000000000602082015250565b615cc381614f16565b8114615cce57600080fd5b50565b615cda81614f28565b8114615ce557600080fd5b50565b615cf181614f34565b8114615cfc57600080fd5b50565b615d0881614f3e565b8114615d1357600080fd5b50565b615d1f81614f98565b8114615d2a57600080fd5b50565b615d3681614fa2565b8114615d4157600080fd5b50565b615d4d81614fb2565b8114615d5857600080fd5b5056fe3c73766720786d6c6e733d27687474703a2f2f7777772e77332e6f72672f323030302f737667272076696577426f783d2730203020323030302032303030273ea26469706673582212201f9823ae777f880ea425fbfe0de11017651353839e77ac2ccc6cc97845fb224564736f6c63430008040033",
  "linkReferences": {},
  "deployedLinkReferences": {}
}