{
  "_format": "hh-sol-artifact-1",
  "contractName": "DynaStripes",
  "sourceName": "contracts/DynaStripes.sol",
  "abi": [
    {
      "inputs": [],
      "stateMutability": "nonpayable",
      "type": "constructor"
    },
    {
      "inputs": [],
      "name": "ApprovalCallerNotOwnerNorApproved",
      "type": "error"
    },
    {
      "inputs": [],
      "name": "ApprovalQueryForNonexistentToken",
      "type": "error"
    },
    {
      "inputs": [],
      "name": "ApprovalToCurrentOwner",
      "type": "error"
    },
    {
      "inputs": [],
      "name": "ApproveToCaller",
      "type": "error"
    },
    {
      "inputs": [],
      "name": "BalanceQueryForZeroAddress",
      "type": "error"
    },
    {
      "inputs": [],
      "name": "MintToZeroAddress",
      "type": "error"
    },
    {
      "inputs": [],
      "name": "MintZeroQuantity",
      "type": "error"
    },
    {
      "inputs": [],
      "name": "OwnerIndexOutOfBounds",
      "type": "error"
    },
    {
      "inputs": [],
      "name": "OwnerQueryForNonexistentToken",
      "type": "error"
    },
    {
      "inputs": [],
      "name": "TokenIndexOutOfBounds",
      "type": "error"
    },
    {
      "inputs": [],
      "name": "TransferCallerNotOwnerNorApproved",
      "type": "error"
    },
    {
      "inputs": [],
      "name": "TransferFromIncorrectOwner",
      "type": "error"
    },
    {
      "inputs": [],
      "name": "TransferToNonERC721ReceiverImplementer",
      "type": "error"
    },
    {
      "inputs": [],
      "name": "TransferToZeroAddress",
      "type": "error"
    },
    {
      "anonymous": false,
      "inputs": [
        {
          "indexed": true,
          "internalType": "address",
          "name": "owner",
          "type": "address"
        },
        {
          "indexed": true,
          "internalType": "address",
          "name": "approved",
          "type": "address"
        },
        {
          "indexed": true,
          "internalType": "uint256",
          "name": "tokenId",
          "type": "uint256"
        }
      ],
      "name": "Approval",
      "type": "event"
    },
    {
      "anonymous": false,
      "inputs": [
        {
          "indexed": true,
          "internalType": "address",
          "name": "owner",
          "type": "address"
        },
        {
          "indexed": true,
          "internalType": "address",
          "name": "operator",
          "type": "address"
        },
        {
          "indexed": false,
          "internalType": "bool",
          "name": "approved",
          "type": "bool"
        }
      ],
      "name": "ApprovalForAll",
      "type": "event"
    },
    {
      "anonymous": false,
      "inputs": [
        {
          "indexed": true,
          "internalType": "address",
          "name": "previousOwner",
          "type": "address"
        },
        {
          "indexed": true,
          "internalType": "address",
          "name": "newOwner",
          "type": "address"
        }
      ],
      "name": "OwnershipTransferred",
      "type": "event"
    },
    {
      "anonymous": false,
      "inputs": [
        {
          "indexed": false,
          "internalType": "address",
          "name": "account",
          "type": "address"
        }
      ],
      "name": "Paused",
      "type": "event"
    },
    {
      "anonymous": false,
      "inputs": [
        {
          "indexed": true,
          "internalType": "address",
          "name": "from",
          "type": "address"
        },
        {
          "indexed": true,
          "internalType": "address",
          "name": "to",
          "type": "address"
        },
        {
          "indexed": true,
          "internalType": "uint256",
          "name": "tokenId",
          "type": "uint256"
        }
      ],
      "name": "Transfer",
      "type": "event"
    },
    {
      "anonymous": false,
      "inputs": [
        {
          "indexed": false,
          "internalType": "address",
          "name": "account",
          "type": "address"
        }
      ],
      "name": "Unpaused",
      "type": "event"
    },
    {
      "inputs": [],
      "name": "ROYALTY_BPS",
      "outputs": [
        {
          "internalType": "uint16",
          "name": "",
          "type": "uint16"
        }
      ],
      "stateMutability": "view",
      "type": "function"
    },
    {
      "inputs": [],
      "name": "TOKEN_LIMIT",
      "outputs": [
        {
          "internalType": "uint16",
          "name": "",
          "type": "uint16"
        }
      ],
      "stateMutability": "view",
      "type": "function"
    },
    {
      "inputs": [
        {
          "internalType": "address",
          "name": "to",
          "type": "address"
        },
        {
          "internalType": "uint256",
          "name": "tokenId",
          "type": "uint256"
        }
      ],
      "name": "approve",
      "outputs": [],
      "stateMutability": "nonpayable",
      "type": "function"
    },
    {
      "inputs": [
        {
          "internalType": "address",
          "name": "owner",
          "type": "address"
        }
      ],
      "name": "balanceOf",
      "outputs": [
        {
          "internalType": "uint256",
          "name": "",
          "type": "uint256"
        }
      ],
      "stateMutability": "view",
      "type": "function"
    },
    {
      "inputs": [
        {
          "internalType": "uint24[]",
          "name": "seeds",
          "type": "uint24[]"
        }
      ],
      "name": "banRandomSeeds",
      "outputs": [],
      "stateMutability": "nonpayable",
      "type": "function"
    },
    {
      "inputs": [
        {
          "internalType": "uint256",
          "name": "tokenId",
          "type": "uint256"
        }
      ],
      "name": "generateSvg",
      "outputs": [
        {
          "internalType": "string",
          "name": "",
          "type": "string"
        }
      ],
      "stateMutability": "view",
      "type": "function"
    },
    {
      "inputs": [
        {
          "internalType": "uint256",
          "name": "tokenId",
          "type": "uint256"
        }
      ],
      "name": "getApproved",
      "outputs": [
        {
          "internalType": "address",
          "name": "",
          "type": "address"
        }
      ],
      "stateMutability": "view",
      "type": "function"
    },
    {
      "inputs": [],
      "name": "getMintPrice",
      "outputs": [
        {
          "internalType": "uint256",
          "name": "",
          "type": "uint256"
        }
      ],
      "stateMutability": "view",
      "type": "function"
    },
    {
      "inputs": [],
      "name": "getTokenLimit",
      "outputs": [
        {
          "internalType": "uint16",
          "name": "",
          "type": "uint16"
        }
      ],
      "stateMutability": "view",
      "type": "function"
    },
    {
      "inputs": [
        {
          "internalType": "address",
          "name": "_owner",
          "type": "address"
        },
        {
          "internalType": "address",
          "name": "_operator",
          "type": "address"
        }
      ],
      "name": "isApprovedForAll",
      "outputs": [
        {
          "internalType": "bool",
          "name": "isOperator",
          "type": "bool"
        }
      ],
      "stateMutability": "view",
      "type": "function"
    },
    {
      "inputs": [
        {
          "internalType": "uint24",
          "name": "randomSeed",
          "type": "uint24"
        },
        {
          "internalType": "uint8",
          "name": "zoom",
          "type": "uint8"
        },
        {
          "internalType": "uint8",
          "name": "tintRed",
          "type": "uint8"
        },
        {
          "internalType": "uint8",
          "name": "tintGreen",
          "type": "uint8"
        },
        {
          "internalType": "uint8",
          "name": "tintBlue",
          "type": "uint8"
        },
        {
          "internalType": "uint8",
          "name": "tintAlpha",
          "type": "uint8"
        },
        {
          "internalType": "uint16",
          "name": "rotationDegrees",
          "type": "uint16"
        },
        {
          "internalType": "uint8",
          "name": "rotationRange",
          "type": "uint8"
        },
        {
          "internalType": "uint8",
          "name": "stripeWidthMin",
          "type": "uint8"
        },
        {
          "internalType": "uint8",
          "name": "stripeWidthMax",
          "type": "uint8"
        },
        {
          "internalType": "uint8",
          "name": "speedMin",
          "type": "uint8"
        },
        {
          "internalType": "uint8",
          "name": "speedMax",
          "type": "uint8"
        }
      ],
      "name": "mintStripes",
      "outputs": [],
      "stateMutability": "payable",
      "type": "function"
    },
    {
      "inputs": [],
      "name": "name",
      "outputs": [
        {
          "internalType": "string",
          "name": "",
          "type": "string"
        }
      ],
      "stateMutability": "view",
      "type": "function"
    },
    {
      "inputs": [],
      "name": "owner",
      "outputs": [
        {
          "internalType": "address",
          "name": "",
          "type": "address"
        }
      ],
      "stateMutability": "view",
      "type": "function"
    },
    {
      "inputs": [
        {
          "internalType": "uint256",
          "name": "tokenId",
          "type": "uint256"
        }
      ],
      "name": "ownerOf",
      "outputs": [
        {
          "internalType": "address",
          "name": "",
          "type": "address"
        }
      ],
      "stateMutability": "view",
      "type": "function"
    },
    {
      "inputs": [],
      "name": "pause",
      "outputs": [],
      "stateMutability": "nonpayable",
      "type": "function"
    },
    {
      "inputs": [],
      "name": "paused",
      "outputs": [
        {
          "internalType": "bool",
          "name": "",
          "type": "bool"
        }
      ],
      "stateMutability": "view",
      "type": "function"
    },
    {
      "inputs": [
        {
          "internalType": "uint256",
          "name": "amount",
          "type": "uint256"
        }
      ],
      "name": "payOwner",
      "outputs": [],
      "stateMutability": "nonpayable",
      "type": "function"
    },
    {
      "inputs": [],
      "name": "renounceOwnership",
      "outputs": [],
      "stateMutability": "nonpayable",
      "type": "function"
    },
    {
      "inputs": [
        {
          "internalType": "uint256",
          "name": "tokenId",
          "type": "uint256"
        },
        {
          "internalType": "uint256",
          "name": "value",
          "type": "uint256"
        }
      ],
      "name": "royaltyInfo",
      "outputs": [
        {
          "internalType": "address",
          "name": "receiver",
          "type": "address"
        },
        {
          "internalType": "uint256",
          "name": "royaltyAmount",
          "type": "uint256"
        }
      ],
      "stateMutability": "view",
      "type": "function"
    },
    {
      "inputs": [
        {
          "internalType": "address",
          "name": "from",
          "type": "address"
        },
        {
          "internalType": "address",
          "name": "to",
          "type": "address"
        },
        {
          "internalType": "uint256",
          "name": "tokenId",
          "type": "uint256"
        }
      ],
      "name": "safeTransferFrom",
      "outputs": [],
      "stateMutability": "nonpayable",
      "type": "function"
    },
    {
      "inputs": [
        {
          "internalType": "address",
          "name": "from",
          "type": "address"
        },
        {
          "internalType": "address",
          "name": "to",
          "type": "address"
        },
        {
          "internalType": "uint256",
          "name": "tokenId",
          "type": "uint256"
        },
        {
          "internalType": "bytes",
          "name": "_data",
          "type": "bytes"
        }
      ],
      "name": "safeTransferFrom",
      "outputs": [],
      "stateMutability": "nonpayable",
      "type": "function"
    },
    {
      "inputs": [
        {
          "internalType": "address",
          "name": "operator",
          "type": "address"
        },
        {
          "internalType": "bool",
          "name": "approved",
          "type": "bool"
        }
      ],
      "name": "setApprovalForAll",
      "outputs": [],
      "stateMutability": "nonpayable",
      "type": "function"
    },
    {
      "inputs": [
        {
          "internalType": "uint256",
          "name": "_mintPrice",
          "type": "uint256"
        }
      ],
      "name": "setMintPrice",
      "outputs": [],
      "stateMutability": "nonpayable",
      "type": "function"
    },
    {
      "inputs": [
        {
          "internalType": "uint16",
          "name": "limit",
          "type": "uint16"
        }
      ],
      "name": "setTokenLimit",
      "outputs": [],
      "stateMutability": "nonpayable",
      "type": "function"
    },
    {
      "inputs": [
        {
          "internalType": "bytes4",
          "name": "interfaceId",
          "type": "bytes4"
        }
      ],
      "name": "supportsInterface",
      "outputs": [
        {
          "internalType": "bool",
          "name": "",
          "type": "bool"
        }
      ],
      "stateMutability": "view",
      "type": "function"
    },
    {
      "inputs": [],
      "name": "symbol",
      "outputs": [
        {
          "internalType": "string",
          "name": "",
          "type": "string"
        }
      ],
      "stateMutability": "view",
      "type": "function"
    },
    {
      "inputs": [
        {
          "internalType": "uint256",
          "name": "index",
          "type": "uint256"
        }
      ],
      "name": "tokenByIndex",
      "outputs": [
        {
          "internalType": "uint256",
          "name": "",
          "type": "uint256"
        }
      ],
      "stateMutability": "view",
      "type": "function"
    },
    {
      "inputs": [
        {
          "internalType": "address",
          "name": "owner",
          "type": "address"
        },
        {
          "internalType": "uint256",
          "name": "index",
          "type": "uint256"
        }
      ],
      "name": "tokenOfOwnerByIndex",
      "outputs": [
        {
          "internalType": "uint256",
          "name": "",
          "type": "uint256"
        }
      ],
      "stateMutability": "view",
      "type": "function"
    },
    {
      "inputs": [
        {
          "internalType": "uint256",
          "name": "_tokenId",
          "type": "uint256"
        }
      ],
      "name": "tokenURI",
      "outputs": [
        {
          "internalType": "string",
          "name": "",
          "type": "string"
        }
      ],
      "stateMutability": "view",
      "type": "function"
    },
    {
      "inputs": [],
      "name": "totalSupply",
      "outputs": [
        {
          "internalType": "uint256",
          "name": "",
          "type": "uint256"
        }
      ],
      "stateMutability": "view",
      "type": "function"
    },
    {
      "inputs": [
        {
          "internalType": "address",
          "name": "from",
          "type": "address"
        },
        {
          "internalType": "address",
          "name": "to",
          "type": "address"
        },
        {
          "internalType": "uint256",
          "name": "tokenId",
          "type": "uint256"
        }
      ],
      "name": "transferFrom",
      "outputs": [],
      "stateMutability": "nonpayable",
      "type": "function"
    },
    {
      "inputs": [
        {
          "internalType": "address",
          "name": "newOwner",
          "type": "address"
        }
      ],
      "name": "transferOwnership",
      "outputs": [],
      "stateMutability": "nonpayable",
      "type": "function"
    },
    {
      "inputs": [],
      "name": "unpause",
      "outputs": [],
      "stateMutability": "nonpayable",
      "type": "function"
    },
    {
      "stateMutability": "payable",
      "type": "receive"
    }
  ],
  "bytecode": "0x60806040526009805461ffff19166064179055662386f26fc10000600c553480156200002a57600080fd5b50604080518082018252600d81526c44796e6153747269706573353560981b6020808301918252835180850190945260048452634453353560e01b9084015281519192918391839162000080916001916200011e565b508051620000969060029060208401906200011e565b505050620000b3620000ad620000c860201b60201c565b620000cc565b50506007805460ff60a01b1916905562000201565b3390565b600780546001600160a01b038381166001600160a01b0319831681179093556040519116919082907f8be0079c531659141344cd1fd0a4f28419497f9722a3daafe3b4186f6b6457e090600090a35050565b8280546200012c90620001c4565b90600052602060002090601f0160209004810192826200015057600085556200019b565b82601f106200016b57805160ff19168380011785556200019b565b828001600101855582156200019b579182015b828111156200019b5782518255916020019190600101906200017e565b50620001a9929150620001ad565b5090565b5b80821115620001a95760008155600101620001ae565b600181811c90821680620001d957607f821691505b60208210811415620001fb57634e487b7160e01b600052602260045260246000fd5b50919050565b6137b880620002116000396000f3fe6080604052600436106101f25760003560e01c80636352211e1161010d578063a22cb465116100a0578063bc921dc21161006f578063bc921dc21461059c578063c87b56dd146105bc578063e985e9c5146105dc578063f2fde38b146105fc578063f4a0a5281461061c57600080fd5b8063a22cb46514610534578063a6c8445a14610554578063a7f93ebd14610567578063b88d4fde1461057c57600080fd5b80638331be32116100dc5780638331be32146104cc5780638456cb59146104ec5780638da5cb5b1461050157806395d89b411461051f57600080fd5b80636352211e1461045757806370a0823114610477578063715018a61461049757806377c39a89146104ac57600080fd5b8063284855861161018557806342842e0e1161015457806342842e0e146103e257806349c657db146104025780634f6ccce7146104185780635c975abb1461043857600080fd5b806328485586146103555780632a55205a1461036e5780632f745c59146103ad5780633f4ba83a146103cd57600080fd5b806308d78c3c116101c157806308d78c3c146102b6578063095ea7b3146102d857806318160ddd146102f857806323b872dd1461033557600080fd5b806301ffc9a7146101fe578063031bd4c41461023357806306fdde031461025c578063081812fc1461027e57600080fd5b366101f957005b600080fd5b34801561020a57600080fd5b5061021e610219366004612cc8565b61063c565b60405190151581526020015b60405180910390f35b34801561023f57600080fd5b5061024961045f81565b60405161ffff909116815260200161022a565b34801561026857600080fd5b5061027161064d565b60405161022a919061355e565b34801561028a57600080fd5b5061029e610299366004612df5565b6106df565b6040516001600160a01b03909116815260200161022a565b3480156102c257600080fd5b506102d66102d1366004612df5565b610723565b005b3480156102e457600080fd5b506102d66102f3366004612bf0565b610804565b34801561030457600080fd5b506103276000546001600160801b03600160801b82048116918116919091031690565b60405190815260200161022a565b34801561034157600080fd5b506102d6610350366004612ac3565b61088d565b34801561036157600080fd5b5060095461ffff16610249565b34801561037a57600080fd5b5061038e610389366004612e0d565b610898565b604080516001600160a01b03909316835260208301919091520161022a565b3480156103b957600080fd5b506103276103c8366004612bf0565b6108f1565b3480156103d957600080fd5b506102d66109ee565b3480156103ee57600080fd5b506102d66103fd366004612ac3565b610a40565b34801561040e57600080fd5b506102496103e881565b34801561042457600080fd5b50610327610433366004612df5565b610a5b565b34801561044457600080fd5b50600754600160a01b900460ff1661021e565b34801561046357600080fd5b5061029e610472366004612df5565b610b06565b34801561048357600080fd5b50610327610492366004612a77565b610b18565b3480156104a357600080fd5b506102d6610b67565b3480156104b857600080fd5b506102d66104c7366004612d00565b610bb9565b3480156104d857600080fd5b506102d66104e7366004612c19565b610c2c565b3480156104f857600080fd5b506102d6610cea565b34801561050d57600080fd5b506007546001600160a01b031661029e565b34801561052b57600080fd5b50610271610d3a565b34801561054057600080fd5b506102d661054f366004612bb6565b610d49565b6102d6610562366004612d1a565b610ddf565b34801561057357600080fd5b50600c54610327565b34801561058857600080fd5b506102d6610597366004612afe565b61135d565b3480156105a857600080fd5b506102716105b7366004612df5565b611397565b3480156105c857600080fd5b506102716105d7366004612df5565b6115c0565b3480156105e857600080fd5b5061021e6105f7366004612a91565b61166d565b34801561060857600080fd5b506102d6610617366004612a77565b6116cd565b34801561062857600080fd5b506102d6610637366004612df5565b611786565b6000610647826117d3565b92915050565b60606001805461065c90613678565b80601f016020809104026020016040519081016040528092919081815260200182805461068890613678565b80156106d55780601f106106aa576101008083540402835291602001916106d5565b820191906000526020600020905b8154815290600101906020018083116106b857829003601f168201915b5050505050905090565b60006106ea826117f8565b610707576040516333d1c03960e21b815260040160405180910390fd5b506000908152600560205260409020546001600160a01b031690565b6007546001600160a01b031633146107705760405162461bcd60e51b8152602060048201819052602482015260008051602061373b83398151915260448201526064015b60405180910390fd5b478111156107b25760405162461bcd60e51b815260206004820152600f60248201526e082dadeeadce840e8dede40d0d2ced608b1b6044820152606401610767565b60006107c66007546001600160a01b031690565b6040519091506001600160a01b0382169083156108fc029084906000818181858888f193505050501580156107ff573d6000803e3d6000fd5b505050565b600061080f82610b06565b9050806001600160a01b0316836001600160a01b031614156108445760405163250fdee360e21b815260040160405180910390fd5b336001600160a01b038216148015906108645750610862813361166d565b155b15610882576040516367d9dca160e11b815260040160405180910390fd5b6107ff83838361182c565b6107ff838383611888565b6000828152600860209081526040808320815180830190925280546001600160a01b03168083526001909101549282018390528392612710906108db9087613616565b6108e591906135e0565b92509250509250929050565b60006108fc83610b18565b821061091b576040516306ed618760e11b815260040160405180910390fd5b600080546001600160801b03169080805b838110156109e857600081815260036020908152604091829020825160608101845290546001600160a01b0381168252600160a01b810467ffffffffffffffff1692820192909252600160e01b90910460ff16158015928201929092529061099457506109e0565b80516001600160a01b0316156109a957805192505b876001600160a01b0316836001600160a01b031614156109de57868414156109d75750935061064792505050565b6001909301925b505b60010161092c565b50600080fd5b6007546001600160a01b03163314610a365760405162461bcd60e51b8152602060048201819052602482015260008051602061373b8339815191526044820152606401610767565b610a3e611ab4565b565b6107ff8383836040518060200160405280600081525061135d565b600080546001600160801b031681805b82811015610aec57600081815260036020908152604091829020825160608101845290546001600160a01b0381168252600160a01b810467ffffffffffffffff1692820192909252600160e01b90910460ff16151591810182905290610ae35785831415610adc5750949350505050565b6001909201915b50600101610a6b565b506040516329c8c00760e21b815260040160405180910390fd5b6000610b1182611b5a565b5192915050565b60006001600160a01b038216610b41576040516323d3ad8160e21b815260040160405180910390fd5b506001600160a01b031660009081526004602052604090205467ffffffffffffffff1690565b6007546001600160a01b03163314610baf5760405162461bcd60e51b8152602060048201819052602482015260008051602061373b8339815191526044820152606401610767565b610a3e6000611c7e565b6007546001600160a01b03163314610c015760405162461bcd60e51b8152602060048201819052602482015260008051602061373b8339815191526044820152606401610767565b61045f61ffff82161115610c14575061045f5b6009805461ffff191661ffff92909216919091179055565b6007546001600160a01b03163314610c745760405162461bcd60e51b8152602060048201819052602482015260008051602061373b8339815191526044820152606401610767565b60005b8151811015610ce6576001600b6000848481518110610ca657634e487b7160e01b600052603260045260246000fd5b60209081029190910181015162ffffff168252810191909152604001600020805460ff191691151591909117905580610cde816136b3565b915050610c77565b5050565b6007546001600160a01b03163314610d325760405162461bcd60e51b8152602060048201819052602482015260008051602061373b8339815191526044820152606401610767565b610a3e611cd0565b60606002805461065c90613678565b6001600160a01b038216331415610d735760405163b06307db60e01b815260040160405180910390fd5b3360008181526006602090815260408083206001600160a01b03871680855290835292819020805460ff191686151590811790915590519081529192917f17307eab39ab6107e8899845ad3d59bd9653f200f220920489ca2b5937696c31910160405180910390a35050565b60095460005461ffff9091166001600160801b03909116108015610e11575060005461045f6001600160801b03909116105b610e5d5760405162461bcd60e51b815260206004820152601360248201527f546f6b656e206c696d69742072656163686564000000000000000000000000006044820152606401610767565b600c54341015610ea05760405162461bcd60e51b815260206004820152600e60248201526d09cdee840cadcdeeaced0408aa8960931b6044820152606401610767565b60648b60ff161115610edf5760405162461bcd60e51b8152602060048201526008602482015267626164207a6f6f6d60c01b6044820152606401610767565b60ff8a60ff1611158015610ef7575060ff8960ff1611155b8015610f07575060ff8860ff1611155b8015610f16575060e68760ff16105b610f4e5760405162461bcd60e51b81526020600482015260096024820152683130b21031b7b637b960b91b6044820152606401610767565b6101688661ffff1611158015610f68575060b48560ff1611155b610fa35760405162461bcd60e51b815260206004820152600c60248201526b3130b2103937ba30ba34b7b760a11b6044820152606401610767565b60198460ff1610158015610fbb575060fa8360ff1611155b8015610fcd57508260ff168460ff1611155b61100c5760405162461bcd60e51b815260206004820152601060248201526f0c4c2c840e6e8e4d2e0ca40eed2c8e8d60831b6044820152606401610767565b60198260ff1610158015611024575060fa8160ff1611155b801561103657508060ff168260ff1611155b61106e5760405162461bcd60e51b8152602060048201526009602482015268189859081cdc19595960ba1b6044820152606401610767565b624c4b408c62ffffff1610801561109a575062ffffff8c166000908152600b602052604090205460ff16155b6110d85760405162461bcd60e51b815260206004820152600f60248201526e189859081c985b991bdb481cd95959608a1b6044820152606401610767565b6000546001600160801b038116906110f79061ffff16336103e8611d58565b6040518061018001604052808e62ffffff1681526020018d60ff1681526020018c60ff1681526020018b60ff1681526020018a60ff1681526020018960ff1681526020018861ffff1681526020018760ff1681526020018660ff1681526020018560ff1681526020018460ff1681526020018360ff16815250600a60008361ffff1661ffff16815260200190815260200160002060008201518160000160006101000a81548162ffffff021916908362ffffff16021790555060208201518160000160036101000a81548160ff021916908360ff16021790555060408201518160000160046101000a81548160ff021916908360ff16021790555060608201518160000160056101000a81548160ff021916908360ff16021790555060808201518160000160066101000a81548160ff021916908360ff16021790555060a08201518160000160076101000a81548160ff021916908360ff16021790555060c08201518160000160086101000a81548161ffff021916908361ffff16021790555060e082015181600001600a6101000a81548160ff021916908360ff16021790555061010082015181600001600b6101000a81548160ff021916908360ff16021790555061012082015181600001600c6101000a81548160ff021916908360ff16021790555061014082015181600001600d6101000a81548160ff021916908360ff16021790555061016082015181600001600e6101000a81548160ff021916908360ff16021790555090505061132f336001611df2565b50505062ffffff9099166000908152600b60205260409020805460ff19166001179055505050505050505050565b611368848484611888565b61137484848484611e0c565b611391576040516368d2bf6b60e11b815260040160405180910390fd5b50505050565b60606113a2826117f8565b80156113af575061045f82105b6113ea5760405162461bcd60e51b815260206004820152600c60248201526b189859081d1bdad95b88125160a21b6044820152606401610767565b61ffff8083166000908152600a60209081526040808320815161018081018352905462ffffff8116825260ff63010000008204811694830185905264010000000082048116938301939093526501000000000081048316606083015266010000000000008104831660808301526701000000000000008104831660a083015268010000000000000000810490951660c08201526a01000000000000000000008504821660e08201526b010000000000000000000000850482166101008201526c01000000000000000000000000850482166101208201526d0100000000000000000000000000850482166101408201526e0100000000000000000000000000009094041661016084015281906114ff90611f1b565b9150915060008360e0015160ff1660001461153657604051806040016040528060048152602001636175746f60e01b81525061155a565b6040518060400160405280600a8152602001696372697370456467657360b01b8152505b905060008260405160200161156f91906134b1565b6040516020818303038152906040529050600061158b86612035565b9050848383836040516020016115a49493929190613251565b6040516020818303038152906040529650505050505050919050565b60606115cb826117f8565b61160a5760405162461bcd60e51b815260206004820152601060248201526f125108191bd95cdb89dd08195e1a5cdd60821b6044820152606401610767565b61045f821061164e5760405162461bcd60e51b815260206004820152601060248201526f125108191bd95cdb89dd08195e1a5cdd60821b6044820152606401610767565b60405180606001604052806028815260200161375b6028913992915050565b60006001600160a01b0382167358807bad0b376efc12f5ad86aac70e78ed67deae141561169c57506001610647565b6001600160a01b0380841660009081526006602090815260408083209386168352929052205460ff165b9392505050565b6007546001600160a01b031633146117155760405162461bcd60e51b8152602060048201819052602482015260008051602061373b8339815191526044820152606401610767565b6001600160a01b03811661177a5760405162461bcd60e51b815260206004820152602660248201527f4f776e61626c653a206e6577206f776e657220697320746865207a65726f206160448201526564647265737360d01b6064820152608401610767565b61178381611c7e565b50565b6007546001600160a01b031633146117ce5760405162461bcd60e51b8152602060048201819052602482015260008051602061373b8339815191526044820152606401610767565b600c55565b60006001600160e01b0319821663152a902d60e11b14806106475750610647826121d8565b600080546001600160801b031682108015610647575050600090815260036020526040902054600160e01b900460ff161590565b60008281526005602052604080822080546001600160a01b0319166001600160a01b0387811691821790925591518593918516917f8c5be1e5ebec7d5bd14f71427d1e84f3dd0314c0f7b2291e5b200ac8c7c3b92591a4505050565b600061189382611b5a565b80519091506000906001600160a01b0316336001600160a01b031614806118c1575081516118c1903361166d565b806118dc5750336118d1846106df565b6001600160a01b0316145b9050806118fc57604051632ce44b5f60e11b815260040160405180910390fd5b846001600160a01b031682600001516001600160a01b0316146119315760405162a1148160e81b815260040160405180910390fd5b6001600160a01b03841661195857604051633a954ecd60e21b815260040160405180910390fd5b61196585858560016121e3565b611975600084846000015161182c565b6001600160a01b038581166000908152600460209081526040808320805467ffffffffffffffff1980821667ffffffffffffffff92831660001901831617909255898616808652838620805493841693831660019081018416949094179055898652600390945282852080546001600160e01b031916909417600160a01b429092169190910217909255908601808352912054909116611a6a576000546001600160801b0316811015611a6a578251600082815260036020908152604090912080549186015167ffffffffffffffff16600160a01b026001600160e01b03199092166001600160a01b03909316929092171790555b5082846001600160a01b0316866001600160a01b03167fddf252ad1be2c89b69c2b068fc378daa952ba7f163c4a11628f55a4df523b3ef60405160405180910390a45b5050505050565b600754600160a01b900460ff16611b0d5760405162461bcd60e51b815260206004820152601460248201527f5061757361626c653a206e6f74207061757365640000000000000000000000006044820152606401610767565b6007805460ff60a01b191690557f5db9ee0a495bf2e6ff9c91a7834c1ba4fdd244a5e8aa4e537bd38aeae4b073aa335b6040516001600160a01b03909116815260200160405180910390a1565b60408051606081018252600080825260208201819052918101829052905482906001600160801b0316811015611c6557600081815260036020908152604091829020825160608101845290546001600160a01b0381168252600160a01b810467ffffffffffffffff1692820192909252600160e01b90910460ff16151591810182905290611c635780516001600160a01b031615611bf9579392505050565b5060001901600081815260036020908152604091829020825160608101845290546001600160a01b038116808352600160a01b820467ffffffffffffffff1693830193909352600160e01b900460ff1615159281019290925215611c5e579392505050565b611bf9565b505b604051636f96cda160e11b815260040160405180910390fd5b600780546001600160a01b038381166001600160a01b0319831681179093556040519116919082907f8be0079c531659141344cd1fd0a4f28419497f9722a3daafe3b4186f6b6457e090600090a35050565b600754600160a01b900460ff1615611d1d5760405162461bcd60e51b815260206004820152601060248201526f14185d5cd8589b194e881c185d5cd95960821b6044820152606401610767565b6007805460ff60a01b1916600160a01b1790557f62e78cea01bee320cd4e420270b5ea74000d11b0c9f74754ebdbfc544b05a258611b3d3390565b612710811115611daa5760405162461bcd60e51b815260206004820152601a60248201527f45524332393831526f79616c746965733a20546f6f20686967680000000000006044820152606401610767565b6040805180820182526001600160a01b03938416815260208082019384526000958652600890529320925183546001600160a01b031916921691909117825551600190910155565b610ce6828260405180602001604052806000815250612235565b60006001600160a01b0384163b15611f0f57604051630a85bd0160e11b81526001600160a01b0385169063150b7a0290611e5090339089908890889060040161352c565b602060405180830381600087803b158015611e6a57600080fd5b505af1925050508015611e9a575060408051601f3d908101601f19168201909252611e9791810190612ce4565b60015b611ef5573d808015611ec8576040519150601f19603f3d011682016040523d82523d6000602084013e611ecd565b606091505b508051611eed576040516368d2bf6b60e11b815260040160405180910390fd5b805181602001fd5b6001600160e01b031916630a85bd0160e11b149050611f13565b5060015b949350505050565b606080611f29836014613616565b92506000611f41611f3c856103e86135c8565b612242565b90506103e8841115611fcd576000611f6a6002611f606103e888613635565b611f3c91906135e0565b9050600081828485604051602001611f859493929190613426565b6040516020818303038152906040529050600082838586604051602001611faf9493929190613122565b60408051601f19818403018152919052919791965090945050505050565b6000611ff0856103e814611fe9576002611f60876103e8613635565b6000612242565b905060008182848560405160200161200b9493929190613050565b6040516020818303038152906040529050600082838586604051602001611faf9493929190613372565b80516040805160208101909152600080825260609262ffffff16915b600061205f836107d0613635565b1115611f135760006120828487610100015160ff1688610120015160ff1661233b565b61208d906002613616565b905061209b836107d0613635565b8111156120b5576120ae836107d0613635565b90506120ff565b61010086015160ff16816120cb856107d0613635565b6120d59190613635565b10156120ff57806120e8846107d0613635565b6120f29190613635565b6120fc90826135c8565b90505b600061211561210f8660036135c8565b886123a2565b905060008161212e61212888600d6135c8565b8a6123a2565b83604051602001612141939291906130c8565b60405160208183030381529060405290508361215c86612242565b61216585612242565b8461217a6121748b60016135c8565b8d61243f565b61218e6121888c60026135c8565b8e61251a565b866040516020016121a59796959493929190612e76565b60408051601f1981840301815291905293506121c183866135c8565b94506121ce6064876135c8565b9550505050612051565b60006106478261254f565b600754600160a01b900460ff16156122305760405162461bcd60e51b815260206004820152601060248201526f14185d5cd8589b194e881c185d5cd95960821b6044820152606401610767565b611391565b6107ff83838360016125ba565b6060816122665750506040805180820190915260018152600360fc1b602082015290565b8160005b811561227e57600101600a8204915061226a565b60008167ffffffffffffffff8111156122a757634e487b7160e01b600052604160045260246000fd5b6040519080825280601f01601f1916602001820160405280156122d1576020820181803683370190505b508593509050815b831561233257600a840660300160f81b8282600190039250828151811061231057634e487b7160e01b600052603260045260246000fd5b60200101906001600160f81b031916908160001a905350600a840493506122d9565b50949350505050565b600082821161234b5750816116c6565b60008460405160200161236091815260200190565b60408051601f1981840301815291905280516020909101209050836123858185613635565b61238f90836136ce565b61239991906135c8565b95945050505050565b606060006123cb6123b685600060ff61233b565b846040015160ff168560a0015160ff16612762565b905060006123fe6123e96123e08760016135c8565b600060ff61233b565b856060015160ff168660a0015160ff16612762565b905060006124286124136123e08860026135c8565b866080015160ff168760a0015160ff16612762565b90506124358383836127a3565b9695505050505050565b606060006124568460008560e0015160ff1661233b565b905060008161246e575060c083015161ffff166124f8565b8360e0015160ff168210156124c35760028460e0015161248e91906135f4565b60ff16828560c001516101686124a491906135a2565b61ffff166124b29190613635565b6124bc91906135c8565b90506124f8565b60028460e001516124d491906135f4565b60ff16828560c0015161ffff166124eb91906135c8565b6124f59190613635565b90505b6101688111156125115761250e61016882613635565b90505b61239981612242565b606060006125398484610140015160ff1685610160015160ff1661233b565b612544906014613616565b9050611f1381612242565b60006001600160e01b031982166380ac58cd60e01b148061258057506001600160e01b03198216635b5e139f60e01b145b8061259b57506001600160e01b0319821663780e9d6360e01b145b8061064757506301ffc9a760e01b6001600160e01b0319831614610647565b6000546001600160801b03166001600160a01b0385166125ec57604051622e076360e81b815260040160405180910390fd5b8361260a5760405163b562e8dd60e01b815260040160405180910390fd5b61261760008683876121e3565b6001600160a01b038516600081815260046020908152604080832080546fffffffffffffffffffffffffffffffff19811667ffffffffffffffff8083168c0181169182176801000000000000000067ffffffffffffffff1990941690921783900481168c018116909202179091558584526003909252822080546001600160e01b031916909317600160a01b42909216919091021790915581905b858110156127335760405182906001600160a01b038916906000907fddf252ad1be2c89b69c2b068fc378daa952ba7f163c4a11628f55a4df523b3ef908290a483801561270957506127076000888488611e0c565b155b15612727576040516368d2bf6b60e11b815260040160405180910390fd5b600191820191016126b2565b50600080546fffffffffffffffffffffffffffffffff19166001600160801b0392909216919091179055611aad565b600081612773575060ff83166116c6565b600083851161278c575060ff8484038302048401612798565b5060ff83850383020484035b60ff16949350505050565b60606127ae846127ea565b6127b7846127ea565b6127c0846127ea565b6040516020016127d2939291906131d8565b60405160208183030381529060405290509392505050565b6060610100821061282d5760405162461bcd60e51b815260206004820152600d60248201526c696e70757420746f6f2062696760981b6044820152606401610767565b8161284f5750506040805180820190915260018152600360fc1b602082015290565b6060600a8310156128c15760408051600180825281830190925290602082018180368337019050509050600a835b0660300160f81b816000815181106128a557634e487b7160e01b600052603260045260246000fd5b60200101906001600160f81b031916908160001a905350610647565b60648310156129355760408051600280825281830190925290602082018180368337019050509050600a830660300160f81b8160018151811061291457634e487b7160e01b600052603260045260246000fd5b60200101906001600160f81b031916908160001a905350600a80840461287d565b60408051600380825281830190925290602082018180368337019050509050600a830660300160f81b8160028151811061297f57634e487b7160e01b600052603260045260246000fd5b60200101906001600160f81b031916908160001a905350600a8084040660300160f81b816001815181106129c357634e487b7160e01b600052603260045260246000fd5b60200101906001600160f81b031916908160001a905350600a606484040660300160f81b81600081518110612a0857634e487b7160e01b600052603260045260246000fd5b60200101906001600160f81b031916908160001a90535092915050565b80356001600160a01b0381168114612a3c57600080fd5b919050565b803561ffff81168114612a3c57600080fd5b803562ffffff81168114612a3c57600080fd5b803560ff81168114612a3c57600080fd5b600060208284031215612a88578081fd5b6116c682612a25565b60008060408385031215612aa3578081fd5b612aac83612a25565b9150612aba60208401612a25565b90509250929050565b600080600060608486031215612ad7578081fd5b612ae084612a25565b9250612aee60208501612a25565b9150604084013590509250925092565b60008060008060808587031215612b13578081fd5b612b1c85612a25565b93506020612b2b818701612a25565b935060408601359250606086013567ffffffffffffffff80821115612b4e578384fd5b818801915088601f830112612b61578384fd5b813581811115612b7357612b7361370e565b612b85601f8201601f19168501613571565b91508082528984828501011115612b9a578485fd5b8084840185840137810190920192909252939692955090935050565b60008060408385031215612bc8578182fd5b612bd183612a25565b915060208301358015158114612be5578182fd5b809150509250929050565b60008060408385031215612c02578182fd5b612c0b83612a25565b946020939093013593505050565b60006020808385031215612c2b578182fd5b823567ffffffffffffffff80821115612c42578384fd5b818501915085601f830112612c55578384fd5b813581811115612c6757612c6761370e565b8060051b9150612c78848301613571565b8181528481019084860184860187018a1015612c92578788fd5b8795505b83861015612cbb57612ca781612a53565b835260019590950194918601918601612c96565b5098975050505050505050565b600060208284031215612cd9578081fd5b81356116c681613724565b600060208284031215612cf5578081fd5b81516116c681613724565b600060208284031215612d11578081fd5b6116c682612a41565b6000806000806000806000806000806000806101808d8f031215612d3c578788fd5b612d458d612a53565b9b50612d5360208e01612a66565b9a50612d6160408e01612a66565b9950612d6f60608e01612a66565b9850612d7d60808e01612a66565b9750612d8b60a08e01612a66565b9650612d9960c08e01612a41565b9550612da760e08e01612a66565b9450612db66101008e01612a66565b9350612dc56101208e01612a66565b9250612dd46101408e01612a66565b9150612de36101608e01612a66565b90509295989b509295989b509295989b565b600060208284031215612e06578081fd5b5035919050565b60008060408385031215612e1f578182fd5b50508035926020909101359150565b60008151808452612e4681602086016020860161364c565b601f01601f19169290920160200192915050565b60008151612e6c81856020860161364c565b9290920192915050565b60008851612e88818460208d0161364c565b683c7265637420783d2760b81b9083019081528851612eae816009840160208d0161364c565b6e2720793d2730272077696474683d2760881b600992909101918201528751612ede816018840160208c0161364c565b7f27206865696768743d2732303030272066696c6c3d2700000000000000000000601892909101918201528651612f1c81602e840160208b0161364c565b6e27206f7061636974793d27302e382760881b602e92909101918201527f207472616e73666f726d3d27726f746174652800000000000000000000000000603d820152613042612ff3612fed612fba612fb4612f7b605087018c612e5a565b7f2031303030203130303029273e3c616e696d61746520626567696e3d2027307381526627206475723d2760c81b602082015260270190565b89612e5a565b7f6d7327206174747269627574654e616d653d2766696c6c272076616c7565733d8152602760f81b602082015260210190565b86612e5a565b7f3b272066696c6c3d27667265657a652720726570656174436f756e743d27696e81527f646566696e697465272f3e3c2f726563743e0000000000000000000000000000602082015260320190565b9a9950505050505050505050565b60008551613062818460208a0161364c565b8083019050600160fd1b8082528651613082816001850160208b0161364c565b60019201918201819052855161309f816002850160208a0161364c565b600292019182015283516130ba81600384016020880161364c565b016003019695505050505050565b600084516130da81846020890161364c565b8083019050603b60f81b80825285516130fa816001850160208a0161364c565b6001920191820152835161311581600284016020880161364c565b0160020195945050505050565b63783d272d60e01b815260008551613141816004850160208a0161364c565b652720793d272d60d01b600491840191820152855161316781600a840160208a0161364c565b68272077696474683d2760b81b600a9290910191820152845161319181601384016020890161364c565b6927206865696768743d2760b01b6013929091019182015283516131bc81601d84016020880161364c565b602760f81b601d9290910191820152601e019695505050505050565b630e4cec4560e31b8152600084516131f781600485016020890161364c565b808301905061016160f51b806004830152855161321b816006850160208a0161364c565b6006920191820152835161323681600884016020880161364c565b602960f81b6008929091019182015260090195945050505050565b7f3c73766720786d6c6e733d27687474703a2f2f7777772e77332e6f72672f323081527f30302f737667272076696577426f783d270000000000000000000000000000006020820152600085516132af816031850160208a0161364c565b7f272073686170652d72656e646572696e673d270000000000000000000000000060319184019182015285516132ec816044840160208a0161364c565b61139f60f11b60449290910191820152845161330f81604684016020890161364c565b7f3c6720636c69702d706174683d2775726c28236d6173746572436c697029273e60469290910191820152835161334d81606684016020880161364c565b691e17b39f1e17b9bb339f60b11b606692909101918201526070019695505050505050565b62783d2760e81b815260008551613390816003850160208a0161364c565b642720793d2760d81b60039184019182015285516133b5816008840160208a0161364c565b68272077696474683d2760b81b6008929091019182015284516133df81601184016020890161364c565b6927206865696768743d2760b01b60119290910191820152835161340a81601b84016020880161364c565b602760f81b601b9290910191820152601c019695505050505050565b602d60f81b815260008551613442816001850160208a0161364c565b61202d60f01b6001918401918201528551613464816003840160208a0161364c565b808201915050600160fd1b8060038301528551613488816004850160208a0161364c565b600492019182015283516134a381600584016020880161364c565b016005019695505050505050565b7f3c646566733e3c636c6970506174682069643d276d6173746572436c6970273e81526501e3932b1ba160d51b6020820152600082516134f881602685016020870161364c565b7f2f3e3c2f636c6970506174683e3c2f646566733e0000000000000000000000006026939091019283015250603a01919050565b60006001600160a01b038087168352808616602084015250836040830152608060608301526124356080830184612e2e565b6020815260006116c66020830184612e2e565b604051601f8201601f1916810167ffffffffffffffff8111828210171561359a5761359a61370e565b604052919050565b600061ffff8083168185168083038211156135bf576135bf6136e2565b01949350505050565b600082198211156135db576135db6136e2565b500190565b6000826135ef576135ef6136f8565b500490565b600060ff831680613607576136076136f8565b8060ff84160491505092915050565b6000816000190483118215151615613630576136306136e2565b500290565b600082821015613647576136476136e2565b500390565b60005b8381101561366757818101518382015260200161364f565b838111156113915750506000910152565b600181811c9082168061368c57607f821691505b602082108114156136ad57634e487b7160e01b600052602260045260246000fd5b50919050565b60006000198214156136c7576136c76136e2565b5060010190565b6000826136dd576136dd6136f8565b500690565b634e487b7160e01b600052601160045260246000fd5b634e487b7160e01b600052601260045260246000fd5b634e487b7160e01b600052604160045260246000fd5b6001600160e01b03198116811461178357600080fdfe4f776e61626c653a2063616c6c6572206973206e6f7420746865206f776e6572687474703a2f2f6d756d6261692e64796e61737472697065732e636f6d2f64796e6173616d706c65a2646970667358221220c5c1ffd337ffb8ddbd198845fb260950be6c78cb42a6452ce51fe031b9d601f864736f6c63430008040033",
  "linkReferences": {},
  "deployedLinkReferences": {}
}