{
  "_format": "hh-sol-artifact-1",
  "contractName": "DynaStripes",
  "sourceName": "contracts/DynaStripes.sol",
  "abi": [
    {
      "inputs": [],
      "stateMutability": "nonpayable",
      "type": "constructor"
    },
    {
      "anonymous": false,
      "inputs": [
        {
          "indexed": true,
          "internalType": "address",
          "name": "owner",
          "type": "address"
        },
        {
          "indexed": true,
          "internalType": "address",
          "name": "approved",
          "type": "address"
        },
        {
          "indexed": true,
          "internalType": "uint256",
          "name": "tokenId",
          "type": "uint256"
        }
      ],
      "name": "Approval",
      "type": "event"
    },
    {
      "anonymous": false,
      "inputs": [
        {
          "indexed": true,
          "internalType": "address",
          "name": "owner",
          "type": "address"
        },
        {
          "indexed": true,
          "internalType": "address",
          "name": "operator",
          "type": "address"
        },
        {
          "indexed": false,
          "internalType": "bool",
          "name": "approved",
          "type": "bool"
        }
      ],
      "name": "ApprovalForAll",
      "type": "event"
    },
    {
      "anonymous": false,
      "inputs": [
        {
          "indexed": true,
          "internalType": "address",
          "name": "previousOwner",
          "type": "address"
        },
        {
          "indexed": true,
          "internalType": "address",
          "name": "newOwner",
          "type": "address"
        }
      ],
      "name": "OwnershipTransferred",
      "type": "event"
    },
    {
      "anonymous": false,
      "inputs": [
        {
          "indexed": false,
          "internalType": "address",
          "name": "account",
          "type": "address"
        }
      ],
      "name": "Paused",
      "type": "event"
    },
    {
      "anonymous": false,
      "inputs": [
        {
          "indexed": true,
          "internalType": "address",
          "name": "from",
          "type": "address"
        },
        {
          "indexed": true,
          "internalType": "address",
          "name": "to",
          "type": "address"
        },
        {
          "indexed": true,
          "internalType": "uint256",
          "name": "tokenId",
          "type": "uint256"
        }
      ],
      "name": "Transfer",
      "type": "event"
    },
    {
      "anonymous": false,
      "inputs": [
        {
          "indexed": false,
          "internalType": "address",
          "name": "account",
          "type": "address"
        }
      ],
      "name": "Unpaused",
      "type": "event"
    },
    {
      "inputs": [],
      "name": "BASE_MINT_PRICE",
      "outputs": [
        {
          "internalType": "uint256",
          "name": "",
          "type": "uint256"
        }
      ],
      "stateMutability": "view",
      "type": "function"
    },
    {
      "inputs": [],
      "name": "ROYALTY_BPS",
      "outputs": [
        {
          "internalType": "uint16",
          "name": "",
          "type": "uint16"
        }
      ],
      "stateMutability": "view",
      "type": "function"
    },
    {
      "inputs": [],
      "name": "TOKEN_LIMIT",
      "outputs": [
        {
          "internalType": "uint16",
          "name": "",
          "type": "uint16"
        }
      ],
      "stateMutability": "view",
      "type": "function"
    },
    {
      "inputs": [
        {
          "internalType": "address",
          "name": "to",
          "type": "address"
        },
        {
          "internalType": "uint256",
          "name": "tokenId",
          "type": "uint256"
        }
      ],
      "name": "approve",
      "outputs": [],
      "stateMutability": "nonpayable",
      "type": "function"
    },
    {
      "inputs": [
        {
          "internalType": "address",
          "name": "owner",
          "type": "address"
        }
      ],
      "name": "balanceOf",
      "outputs": [
        {
          "internalType": "uint256",
          "name": "",
          "type": "uint256"
        }
      ],
      "stateMutability": "view",
      "type": "function"
    },
    {
      "inputs": [
        {
          "internalType": "uint32[]",
          "name": "seeds",
          "type": "uint32[]"
        }
      ],
      "name": "banRandomSeeds",
      "outputs": [],
      "stateMutability": "nonpayable",
      "type": "function"
    },
    {
      "inputs": [
        {
          "internalType": "uint256",
          "name": "tokenId",
          "type": "uint256"
        }
      ],
      "name": "burn",
      "outputs": [],
      "stateMutability": "nonpayable",
      "type": "function"
    },
    {
      "inputs": [],
      "name": "currentMintPrice",
      "outputs": [
        {
          "internalType": "uint256",
          "name": "",
          "type": "uint256"
        }
      ],
      "stateMutability": "view",
      "type": "function"
    },
    {
      "inputs": [
        {
          "internalType": "uint256",
          "name": "_tokenId",
          "type": "uint256"
        }
      ],
      "name": "generateSvg",
      "outputs": [
        {
          "internalType": "string",
          "name": "",
          "type": "string"
        }
      ],
      "stateMutability": "view",
      "type": "function"
    },
    {
      "inputs": [
        {
          "internalType": "uint256",
          "name": "tokenId",
          "type": "uint256"
        }
      ],
      "name": "getApproved",
      "outputs": [
        {
          "internalType": "address",
          "name": "",
          "type": "address"
        }
      ],
      "stateMutability": "view",
      "type": "function"
    },
    {
      "inputs": [
        {
          "internalType": "address",
          "name": "owner",
          "type": "address"
        },
        {
          "internalType": "address",
          "name": "operator",
          "type": "address"
        }
      ],
      "name": "isApprovedForAll",
      "outputs": [
        {
          "internalType": "bool",
          "name": "",
          "type": "bool"
        }
      ],
      "stateMutability": "view",
      "type": "function"
    },
    {
      "inputs": [],
      "name": "isSenderOwner",
      "outputs": [
        {
          "internalType": "bool",
          "name": "",
          "type": "bool"
        }
      ],
      "stateMutability": "view",
      "type": "function"
    },
    {
      "inputs": [
        {
          "internalType": "uint32",
          "name": "_randomSeed",
          "type": "uint32"
        },
        {
          "internalType": "uint8",
          "name": "_rotationDegreesMin",
          "type": "uint8"
        },
        {
          "internalType": "uint8",
          "name": "_rotationDegreesMax",
          "type": "uint8"
        },
        {
          "internalType": "uint8",
          "name": "_stripeWidthMin",
          "type": "uint8"
        },
        {
          "internalType": "uint8",
          "name": "_stripeWidthMax",
          "type": "uint8"
        },
        {
          "internalType": "uint8",
          "name": "_paletteMin",
          "type": "uint8"
        },
        {
          "internalType": "uint8",
          "name": "_paletteMax",
          "type": "uint8"
        },
        {
          "internalType": "uint8",
          "name": "_speedMin",
          "type": "uint8"
        },
        {
          "internalType": "uint8",
          "name": "_speedMax",
          "type": "uint8"
        }
      ],
      "name": "mintStripes",
      "outputs": [],
      "stateMutability": "payable",
      "type": "function"
    },
    {
      "inputs": [],
      "name": "name",
      "outputs": [
        {
          "internalType": "string",
          "name": "",
          "type": "string"
        }
      ],
      "stateMutability": "view",
      "type": "function"
    },
    {
      "inputs": [],
      "name": "owner",
      "outputs": [
        {
          "internalType": "address",
          "name": "",
          "type": "address"
        }
      ],
      "stateMutability": "view",
      "type": "function"
    },
    {
      "inputs": [
        {
          "internalType": "uint256",
          "name": "tokenId",
          "type": "uint256"
        }
      ],
      "name": "ownerOf",
      "outputs": [
        {
          "internalType": "address",
          "name": "",
          "type": "address"
        }
      ],
      "stateMutability": "view",
      "type": "function"
    },
    {
      "inputs": [],
      "name": "pause",
      "outputs": [],
      "stateMutability": "nonpayable",
      "type": "function"
    },
    {
      "inputs": [],
      "name": "paused",
      "outputs": [
        {
          "internalType": "bool",
          "name": "",
          "type": "bool"
        }
      ],
      "stateMutability": "view",
      "type": "function"
    },
    {
      "inputs": [
        {
          "internalType": "uint256",
          "name": "amount",
          "type": "uint256"
        }
      ],
      "name": "payOwner",
      "outputs": [],
      "stateMutability": "nonpayable",
      "type": "function"
    },
    {
      "inputs": [
        {
          "internalType": "uint32",
          "name": "_randomSeed",
          "type": "uint32"
        },
        {
          "internalType": "uint16",
          "name": "_min",
          "type": "uint16"
        },
        {
          "internalType": "uint16",
          "name": "_max",
          "type": "uint16"
        }
      ],
      "name": "randomIntFromInterval",
      "outputs": [
        {
          "internalType": "uint16",
          "name": "",
          "type": "uint16"
        }
      ],
      "stateMutability": "pure",
      "type": "function"
    },
    {
      "inputs": [],
      "name": "renounceOwnership",
      "outputs": [],
      "stateMutability": "nonpayable",
      "type": "function"
    },
    {
      "inputs": [
        {
          "internalType": "uint256",
          "name": "tokenId",
          "type": "uint256"
        },
        {
          "internalType": "uint256",
          "name": "value",
          "type": "uint256"
        }
      ],
      "name": "royaltyInfo",
      "outputs": [
        {
          "internalType": "address",
          "name": "receiver",
          "type": "address"
        },
        {
          "internalType": "uint256",
          "name": "royaltyAmount",
          "type": "uint256"
        }
      ],
      "stateMutability": "view",
      "type": "function"
    },
    {
      "inputs": [
        {
          "internalType": "address",
          "name": "to",
          "type": "address"
        }
      ],
      "name": "safeMint",
      "outputs": [],
      "stateMutability": "nonpayable",
      "type": "function"
    },
    {
      "inputs": [
        {
          "internalType": "address",
          "name": "from",
          "type": "address"
        },
        {
          "internalType": "address",
          "name": "to",
          "type": "address"
        },
        {
          "internalType": "uint256",
          "name": "tokenId",
          "type": "uint256"
        }
      ],
      "name": "safeTransferFrom",
      "outputs": [],
      "stateMutability": "nonpayable",
      "type": "function"
    },
    {
      "inputs": [
        {
          "internalType": "address",
          "name": "from",
          "type": "address"
        },
        {
          "internalType": "address",
          "name": "to",
          "type": "address"
        },
        {
          "internalType": "uint256",
          "name": "tokenId",
          "type": "uint256"
        },
        {
          "internalType": "bytes",
          "name": "_data",
          "type": "bytes"
        }
      ],
      "name": "safeTransferFrom",
      "outputs": [],
      "stateMutability": "nonpayable",
      "type": "function"
    },
    {
      "inputs": [
        {
          "internalType": "address",
          "name": "operator",
          "type": "address"
        },
        {
          "internalType": "bool",
          "name": "approved",
          "type": "bool"
        }
      ],
      "name": "setApprovalForAll",
      "outputs": [],
      "stateMutability": "nonpayable",
      "type": "function"
    },
    {
      "inputs": [
        {
          "internalType": "bytes4",
          "name": "interfaceId",
          "type": "bytes4"
        }
      ],
      "name": "supportsInterface",
      "outputs": [
        {
          "internalType": "bool",
          "name": "",
          "type": "bool"
        }
      ],
      "stateMutability": "view",
      "type": "function"
    },
    {
      "inputs": [],
      "name": "symbol",
      "outputs": [
        {
          "internalType": "string",
          "name": "",
          "type": "string"
        }
      ],
      "stateMutability": "view",
      "type": "function"
    },
    {
      "inputs": [
        {
          "internalType": "uint256",
          "name": "index",
          "type": "uint256"
        }
      ],
      "name": "tokenByIndex",
      "outputs": [
        {
          "internalType": "uint256",
          "name": "",
          "type": "uint256"
        }
      ],
      "stateMutability": "view",
      "type": "function"
    },
    {
      "inputs": [
        {
          "internalType": "address",
          "name": "owner",
          "type": "address"
        },
        {
          "internalType": "uint256",
          "name": "index",
          "type": "uint256"
        }
      ],
      "name": "tokenOfOwnerByIndex",
      "outputs": [
        {
          "internalType": "uint256",
          "name": "",
          "type": "uint256"
        }
      ],
      "stateMutability": "view",
      "type": "function"
    },
    {
      "inputs": [
        {
          "internalType": "uint256",
          "name": "_tokenId",
          "type": "uint256"
        }
      ],
      "name": "tokenURI",
      "outputs": [
        {
          "internalType": "string",
          "name": "",
          "type": "string"
        }
      ],
      "stateMutability": "view",
      "type": "function"
    },
    {
      "inputs": [],
      "name": "totalSupply",
      "outputs": [
        {
          "internalType": "uint256",
          "name": "",
          "type": "uint256"
        }
      ],
      "stateMutability": "view",
      "type": "function"
    },
    {
      "inputs": [
        {
          "internalType": "address",
          "name": "from",
          "type": "address"
        },
        {
          "internalType": "address",
          "name": "to",
          "type": "address"
        },
        {
          "internalType": "uint256",
          "name": "tokenId",
          "type": "uint256"
        }
      ],
      "name": "transferFrom",
      "outputs": [],
      "stateMutability": "nonpayable",
      "type": "function"
    },
    {
      "inputs": [
        {
          "internalType": "address",
          "name": "newOwner",
          "type": "address"
        }
      ],
      "name": "transferOwnership",
      "outputs": [],
      "stateMutability": "nonpayable",
      "type": "function"
    },
    {
      "inputs": [],
      "name": "unpause",
      "outputs": [],
      "stateMutability": "nonpayable",
      "type": "function"
    },
    {
      "stateMutability": "payable",
      "type": "receive"
    }
  ],
  "bytecode": "0x60806040523480156200001157600080fd5b50604080518082018252600b81526a44796e615374726970657360a81b60208083019182528351808501909452600384526244535360e81b908401528151919291839183916200006491600091620000f4565b5080516200007a906001906020840190620000f4565b5050600a805460ff191690555062000092336200009a565b5050620001d7565b600a80546001600160a01b03838116610100818102610100600160a81b031985161790945560405193909204169182907f8be0079c531659141344cd1fd0a4f28419497f9722a3daafe3b4186f6b6457e090600090a35050565b82805462000102906200019a565b90600052602060002090601f01602090048101928262000126576000855562000171565b82601f106200014157805160ff191683800117855562000171565b8280016001018555821562000171579182015b828111156200017157825182559160200191906001019062000154565b506200017f92915062000183565b5090565b5b808211156200017f576000815560010162000184565b600181811c90821680620001af57607f821691505b60208210811415620001d157634e487b7160e01b600052602260045260246000fd5b50919050565b6139e480620001e76000396000f3fe6080604052600436106102385760003560e01c806342966c68116101385780638da5cb5b116100b0578063bc921dc21161007f578063e985e9c511610064578063e985e9c51461064d578063eb3af37414610696578063f2fde38b146106b657600080fd5b8063bc921dc21461060d578063c87b56dd1461062d57600080fd5b80638da5cb5b1461059557806395d89b41146105b8578063a22cb465146105cd578063b88d4fde146105ed57600080fd5b80635c975abb1161010757806370a08231116100ec57806370a082311461054b578063715018a61461056b5780638456cb591461058057600080fd5b80635c975abb146105135780636352211e1461052b57600080fd5b806342966c6814610498578063479fe544146104b857806349c657db146104dd5780634f6ccce7146104f357600080fd5b80630ed9ec06116101cb5780632a55205a1161019a5780633f4ba83a1161017f5780633f4ba83a1461044357806340d097c31461045857806342842e0e1461047857600080fd5b80632a55205a146103e45780632f745c591461042357600080fd5b80630ed9ec061461037c578063140db8a61461038f57806318160ddd146103af57806323b872dd146103c457600080fd5b806306fdde031161020757806306fdde03146102e0578063081812fc1461030257806308d78c3c1461033a578063095ea7b31461035c57600080fd5b806301ffc9a714610244578063031bd4c414610279578063054ee789146102a25780630561942a146102cb57600080fd5b3661023f57005b600080fd5b34801561025057600080fd5b5061026461025f366004613043565b6106d6565b60405190151581526020015b60405180910390f35b34801561028557600080fd5b5061028f61138881565b60405161ffff9091168152602001610270565b3480156102ae57600080fd5b506102bd662386f26fc1000081565b604051908152602001610270565b3480156102d757600080fd5b506102bd6106e7565b3480156102ec57600080fd5b506102f5610726565b60405161027091906136e6565b34801561030e57600080fd5b5061032261031d36600461307b565b6107b8565b6040516001600160a01b039091168152602001610270565b34801561034657600080fd5b5061035a61035536600461307b565b610852565b005b34801561036857600080fd5b5061035a610377366004612f6b565b610947565b61035a61038a3660046130f6565b610a74565b34801561039b57600080fd5b5061028f6103aa3660046130b4565b610f4e565b3480156103bb57600080fd5b506008546102bd565b3480156103d057600080fd5b5061035a6103df366004612e3e565b610fbc565b3480156103f057600080fd5b506104046103ff366004613093565b611044565b604080516001600160a01b039093168352602083019190915201610270565b34801561042f57600080fd5b506102bd61043e366004612f6b565b61109d565b34801561044f57600080fd5b5061035a611145565b34801561046457600080fd5b5061035a610473366004612df2565b6111af565b34801561048457600080fd5b5061035a610493366004612e3e565b611232565b3480156104a457600080fd5b5061035a6104b336600461307b565b61124d565b3480156104c457600080fd5b50600a5461010090046001600160a01b03163314610264565b3480156104e957600080fd5b5061028f6103e881565b3480156104ff57600080fd5b506102bd61050e36600461307b565b6112d1565b34801561051f57600080fd5b50600a5460ff16610264565b34801561053757600080fd5b5061032261054636600461307b565b611383565b34801561055757600080fd5b506102bd610566366004612df2565b61140e565b34801561057757600080fd5b5061035a6114a8565b34801561058c57600080fd5b5061035a611512565b3480156105a157600080fd5b50600a5461010090046001600160a01b0316610322565b3480156105c457600080fd5b506102f561157a565b3480156105d957600080fd5b5061035a6105e8366004612f31565b611589565b3480156105f957600080fd5b5061035a610608366004612e79565b61164e565b34801561061957600080fd5b506102f561062836600461307b565b6116dc565b34801561063957600080fd5b506102f561064836600461307b565b6119ec565b34801561065957600080fd5b50610264610668366004612e0c565b6001600160a01b03918216600090815260056020908152604080832093909416825291909152205460ff1690565b3480156106a257600080fd5b5061035a6106b1366004612f94565b611bae565b3480156106c257600080fd5b5061035a6106d1366004612df2565b611c7e565b60006106e182611d63565b92915050565b6000662386f26fc1000060646106fc60085490565b61070691906137a3565b61071091906137e1565b61072190662386f26fc10000613747565b905090565b606060008054610735906138ac565b80601f0160208091040260200160405190810160405280929190818152602001828054610761906138ac565b80156107ae5780601f10610783576101008083540402835291602001916107ae565b820191906000526020600020905b81548152906001019060200180831161079157829003601f168201915b5050505050905090565b6000818152600260205260408120546001600160a01b03166108365760405162461bcd60e51b815260206004820152602c60248201527f4552433732313a20617070726f76656420717565727920666f72206e6f6e657860448201526b34b9ba32b73a103a37b5b2b760a11b60648201526084015b60405180910390fd5b506000908152600460205260409020546001600160a01b031690565b600a546001600160a01b036101009091041633146108b25760405162461bcd60e51b815260206004820181905260248201527f4f776e61626c653a2063616c6c6572206973206e6f7420746865206f776e6572604482015260640161082d565b478111156109025760405162461bcd60e51b815260206004820152600f60248201527f416d6f756e7420746f6f20686967680000000000000000000000000000000000604482015260640161082d565b600a546040516101009091046001600160a01b031690819083156108fc029084906000818181858888f19350505050158015610942573d6000803e3d6000fd5b505050565b600061095282611383565b9050806001600160a01b0316836001600160a01b031614156109dc5760405162461bcd60e51b815260206004820152602160248201527f4552433732313a20617070726f76616c20746f2063757272656e74206f776e6560448201527f7200000000000000000000000000000000000000000000000000000000000000606482015260840161082d565b336001600160a01b03821614806109f857506109f88133610668565b610a6a5760405162461bcd60e51b815260206004820152603860248201527f4552433732313a20617070726f76652063616c6c6572206973206e6f74206f7760448201527f6e6572206e6f7220617070726f76656420666f7220616c6c0000000000000000606482015260840161082d565b6109428383611da1565b6000610a7f600b5490565b90506113888110610ad25760405162461bcd60e51b815260206004820152601160248201527f416c6c20746f6b656e73206d696e746564000000000000000000000000000000604482015260640161082d565b610ada6106e7565b341015610b295760405162461bcd60e51b815260206004820152601060248201527f4e6f7420656e6f75676820657468657200000000000000000000000000000000604482015260640161082d565b60b48860ff1611158015610b4357508760ff168960ff1611155b610b8f5760405162461bcd60e51b815260206004820152601060248201527f526f746174696f6e20696e76616c696400000000000000000000000000000000604482015260640161082d565b60ff8660ff1611158015610ba957508560ff168760ff1611155b610bf55760405162461bcd60e51b815260206004820152601460248201527f53747269706520776964746820696e76616c6964000000000000000000000000604482015260640161082d565b60ff8460ff1611158015610c195750610c0f60148561385d565b60ff168560ff1611155b610c655760405162461bcd60e51b815260206004820152601560248201527f50616c657474652076616c756520696e76616c69640000000000000000000000604482015260640161082d565b60148360ff1610158015610c7d575060ff8260ff1611155b8015610c8f57508160ff168360ff1611155b610cdb5760405162461bcd60e51b815260206004820152601360248201527f53706565642076616c756520696e76616c696400000000000000000000000000604482015260640161082d565b63ffffffff8a166000908152600e602052604090205460ff1615610d415760405162461bcd60e51b815260206004820152601360248201527f52616e646f6d207365656420696e76616c696400000000000000000000000000604482015260640161082d565b610d4b3382611e0f565b610d5881336103e8611e29565b6040518061012001604052808b63ffffffff1681526020018a60ff1681526020018960ff1681526020018860ff1681526020018760ff1681526020018660ff1681526020018560ff1681526020018460ff1681526020018360ff16815250600d600083815260200190815260200160002060008201518160000160006101000a81548163ffffffff021916908363ffffffff16021790555060208201518160000160046101000a81548160ff021916908360ff16021790555060408201518160000160056101000a81548160ff021916908360ff16021790555060608201518160000160066101000a81548160ff021916908360ff16021790555060808201518160000160076101000a81548160ff021916908360ff16021790555060a08201518160000160086101000a81548160ff021916908360ff16021790555060c08201518160000160096101000a81548160ff021916908360ff16021790555060e082015181600001600a6101000a81548160ff021916908360ff16021790555061010082015181600001600b6101000a81548160ff021916908360ff1602179055509050506001600e60008c63ffffffff1663ffffffff16815260200190815260200160002060006101000a81548160ff021916908315150217905550610f42600b80546001019055565b50505050505050505050565b60008261ffff168261ffff1611610f66575081610fb5565b6040805163ffffffff8616602080830191909152825180830382018152918301909252805191012083610f998185613823565b610fa79061ffff1683613902565b610fb1919061372a565b9150505b9392505050565b610fc7335b82611ec3565b6110395760405162461bcd60e51b815260206004820152603160248201527f4552433732313a207472616e736665722063616c6c6572206973206e6f74206f60448201527f776e6572206e6f7220617070726f766564000000000000000000000000000000606482015260840161082d565b610942838383611fba565b6000828152600c60209081526040808320815180830190925280546001600160a01b031680835260019091015492820183905283926127109061108790876137e1565b61109191906137a3565b92509250509250929050565b60006110a88361140e565b821061111c5760405162461bcd60e51b815260206004820152602b60248201527f455243373231456e756d657261626c653a206f776e657220696e646578206f7560448201527f74206f6620626f756e6473000000000000000000000000000000000000000000606482015260840161082d565b506001600160a01b03919091166000908152600660209081526040808320938352929052205490565b600a546001600160a01b036101009091041633146111a55760405162461bcd60e51b815260206004820181905260248201527f4f776e61626c653a2063616c6c6572206973206e6f7420746865206f776e6572604482015260640161082d565b6111ad612192565b565b600a546001600160a01b0361010090910416331461120f5760405162461bcd60e51b815260206004820181905260248201527f4f776e61626c653a2063616c6c6572206973206e6f7420746865206f776e6572604482015260640161082d565b6112218161121c600b5490565b611e0f565b61122f600b80546001019055565b50565b6109428383836040518060200160405280600081525061164e565b61125633610fc1565b6112c85760405162461bcd60e51b815260206004820152603060248201527f4552433732314275726e61626c653a2063616c6c6572206973206e6f74206f7760448201527f6e6572206e6f7220617070726f76656400000000000000000000000000000000606482015260840161082d565b61122f8161222e565b60006112dc60085490565b82106113505760405162461bcd60e51b815260206004820152602c60248201527f455243373231456e756d657261626c653a20676c6f62616c20696e646578206f60448201527f7574206f6620626f756e64730000000000000000000000000000000000000000606482015260840161082d565b6008828154811061137157634e487b7160e01b600052603260045260246000fd5b90600052602060002001549050919050565b6000818152600260205260408120546001600160a01b0316806106e15760405162461bcd60e51b815260206004820152602960248201527f4552433732313a206f776e657220717565727920666f72206e6f6e657869737460448201527f656e7420746f6b656e0000000000000000000000000000000000000000000000606482015260840161082d565b60006001600160a01b03821661148c5760405162461bcd60e51b815260206004820152602a60248201527f4552433732313a2062616c616e636520717565727920666f7220746865207a6560448201527f726f206164647265737300000000000000000000000000000000000000000000606482015260840161082d565b506001600160a01b031660009081526003602052604090205490565b600a546001600160a01b036101009091041633146115085760405162461bcd60e51b815260206004820181905260248201527f4f776e61626c653a2063616c6c6572206973206e6f7420746865206f776e6572604482015260640161082d565b6111ad60006122d5565b600a546001600160a01b036101009091041633146115725760405162461bcd60e51b815260206004820181905260248201527f4f776e61626c653a2063616c6c6572206973206e6f7420746865206f776e6572604482015260640161082d565b6111ad612346565b606060018054610735906138ac565b6001600160a01b0382163314156115e25760405162461bcd60e51b815260206004820152601960248201527f4552433732313a20617070726f766520746f2063616c6c657200000000000000604482015260640161082d565b3360008181526005602090815260408083206001600160a01b03871680855290835292819020805460ff191686151590811790915590519081529192917f17307eab39ab6107e8899845ad3d59bd9653f200f220920489ca2b5937696c31910160405180910390a35050565b6116583383611ec3565b6116ca5760405162461bcd60e51b815260206004820152603160248201527f4552433732313a207472616e736665722063616c6c6572206973206e6f74206f60448201527f776e6572206e6f7220617070726f766564000000000000000000000000000000606482015260840161082d565b6116d6848484846123ce565b50505050565b60606116e7600b5490565b82106117815760405162461bcd60e51b815260206004820152604160248201527f417474656d7074656420746f2067656e65726174652053564720666f7220746f60448201527f6b656e207468617420686173206e6f7420796574206265656e206d696e74656460648201527f2e00000000000000000000000000000000000000000000000000000000000000608482015260a40161082d565b6000828152600d60209081526040808320815161012081018352905463ffffffff811680835260ff6401000000008304811684870152650100000000008304811684860152660100000000000083048116606080860191909152670100000000000000840482166080860152680100000000000000008404821660a086015269010000000000000000008404821660c08601526a01000000000000000000008404821660e08601526b01000000000000000000000090930416610100840152835191820184528382529194936107d09385929161396f9083013990505b600061186a8585613823565b61ffff1611156119c057600061188f83876060015160ff16886080015160ff16610f4e565b61189a90603261372a565b905061ffff81166118ab8686613823565b61ffff1610156118c2576118bf8585613823565b90505b60006118dd84886020015160ff16896040015160ff16610f4e565b905060006118fb858960e0015160ff168a610100015160ff16610f4e565b61190690600a6137b7565b905060006119178861ffff1661244c565b6119248561ffff1661244c565b6119318561ffff1661244c565b61193e8561ffff1661244c565b6119518a8e60a001518f60c001516125c5565b6040516020016119659594939291906132d4565b604051602081830303815290604052905084816040516020016119899291906131e5565b60408051601f1981840301815291905294506119a5848961372a565b97506119b561ffff89168761375f565b95505050505061185e565b806040516020016119d19190613293565b60408051601f19818403018152919052979650505050505050565b6000818152600d60209081526040808320815161012081018352905463ffffffff8116825260ff64010000000082048116838601526501000000000082048116838501526601000000000000820481166060848101829052670100000000000000840483166080860152680100000000000000008404831660a086015269010000000000000000008404831660c08601526a01000000000000000000008404831660e08601526b0100000000000000000000009093049091166101008401529251909491939192611b5c929091017f617474726962757465733a205b207b74726169745f747970653a20227374726981527f7065207769647468206d696e222c2076616c75653a2022000000000000000000602082015260f89190911b7fff000000000000000000000000000000000000000000000000000000000000001660378201527f227d5d00000000000000000000000000000000000000000000000000000000006038820152603b0190565b60405160208183030381529060405290506000611b78856116dc565b9050611b838561244c565b81604051602001611b959291906135b3565b6040516020818303038152906040529350505050919050565b600a546001600160a01b03610100909104163314611c0e5760405162461bcd60e51b815260206004820181905260248201527f4f776e61626c653a2063616c6c6572206973206e6f7420746865206f776e6572604482015260640161082d565b60005b8151811015611c7a576000828281518110611c3c57634e487b7160e01b600052603260045260246000fd5b60209081029190910181015163ffffffff166000908152600e90915260409020805460ff191660011790555080611c72816138e7565b915050611c11565b5050565b600a546001600160a01b03610100909104163314611cde5760405162461bcd60e51b815260206004820181905260248201527f4f776e61626c653a2063616c6c6572206973206e6f7420746865206f776e6572604482015260640161082d565b6001600160a01b038116611d5a5760405162461bcd60e51b815260206004820152602660248201527f4f776e61626c653a206e6577206f776e657220697320746865207a65726f206160448201527f6464726573730000000000000000000000000000000000000000000000000000606482015260840161082d565b61122f816122d5565b60006001600160e01b031982167f2a55205a0000000000000000000000000000000000000000000000000000000014806106e157506106e18261261e565b600081815260046020526040902080546001600160a01b0319166001600160a01b0384169081179091558190611dd682611383565b6001600160a01b03167f8c5be1e5ebec7d5bd14f71427d1e84f3dd0314c0f7b2291e5b200ac8c7c3b92560405160405180910390a45050565b611c7a828260405180602001604052806000815250612629565b612710811115611e7b5760405162461bcd60e51b815260206004820152601a60248201527f45524332393831526f79616c746965733a20546f6f2068696768000000000000604482015260640161082d565b6040805180820182526001600160a01b03938416815260208082019384526000958652600c90529320925183546001600160a01b031916921691909117825551600190910155565b6000818152600260205260408120546001600160a01b0316611f3c5760405162461bcd60e51b815260206004820152602c60248201527f4552433732313a206f70657261746f7220717565727920666f72206e6f6e657860448201526b34b9ba32b73a103a37b5b2b760a11b606482015260840161082d565b6000611f4783611383565b9050806001600160a01b0316846001600160a01b03161480611f825750836001600160a01b0316611f77846107b8565b6001600160a01b0316145b80611fb257506001600160a01b0380821660009081526005602090815260408083209388168352929052205460ff165b949350505050565b826001600160a01b0316611fcd82611383565b6001600160a01b0316146120495760405162461bcd60e51b815260206004820152602960248201527f4552433732313a207472616e73666572206f6620746f6b656e2074686174206960448201527f73206e6f74206f776e0000000000000000000000000000000000000000000000606482015260840161082d565b6001600160a01b0382166120c45760405162461bcd60e51b8152602060048201526024808201527f4552433732313a207472616e7366657220746f20746865207a65726f2061646460448201527f7265737300000000000000000000000000000000000000000000000000000000606482015260840161082d565b6120cf8383836126a7565b6120da600082611da1565b6001600160a01b0383166000908152600360205260408120805460019290612103908490613846565b90915550506001600160a01b0382166000908152600360205260408120805460019290612131908490613747565b909155505060008181526002602052604080822080546001600160a01b0319166001600160a01b0386811691821790925591518493918716917fddf252ad1be2c89b69c2b068fc378daa952ba7f163c4a11628f55a4df523b3ef91a4505050565b600a5460ff166121e45760405162461bcd60e51b815260206004820152601460248201527f5061757361626c653a206e6f7420706175736564000000000000000000000000604482015260640161082d565b600a805460ff191690557f5db9ee0a495bf2e6ff9c91a7834c1ba4fdd244a5e8aa4e537bd38aeae4b073aa335b6040516001600160a01b03909116815260200160405180910390a1565b600061223982611383565b9050612247816000846126a7565b612252600083611da1565b6001600160a01b038116600090815260036020526040812080546001929061227b908490613846565b909155505060008281526002602052604080822080546001600160a01b0319169055518391906001600160a01b038416907fddf252ad1be2c89b69c2b068fc378daa952ba7f163c4a11628f55a4df523b3ef908390a45050565b600a80546001600160a01b038381166101008181027fffffffffffffffffffffff0000000000000000000000000000000000000000ff85161790945560405193909204169182907f8be0079c531659141344cd1fd0a4f28419497f9722a3daafe3b4186f6b6457e090600090a35050565b600a5460ff16156123995760405162461bcd60e51b815260206004820152601060248201527f5061757361626c653a2070617573656400000000000000000000000000000000604482015260640161082d565b600a805460ff191660011790557f62e78cea01bee320cd4e420270b5ea74000d11b0c9f74754ebdbfc544b05a2586122113390565b6123d9848484611fba565b6123e584848484612705565b6116d65760405162461bcd60e51b815260206004820152603260248201527f4552433732313a207472616e7366657220746f206e6f6e20455243373231526560448201527131b2b4bb32b91034b6b83632b6b2b73a32b960711b606482015260840161082d565b60608161248c57505060408051808201909152600181527f3000000000000000000000000000000000000000000000000000000000000000602082015290565b8160005b81156124b657806124a0816138e7565b91506124af9050600a836137a3565b9150612490565b60008167ffffffffffffffff8111156124df57634e487b7160e01b600052604160045260246000fd5b6040519080825280601f01601f191660200182016040528015612509576020820181803683370190505b509050815b85156125bc5761251f600182613846565b9050600061252e600a886137a3565b61253990600a6137e1565b6125439088613846565b61254e90603061377e565b905060008160f81b90508084848151811061257957634e487b7160e01b600052603260045260246000fd5b60200101907effffffffffffffffffffffffffffffffffffffffffffffffffffffffffffff1916908160001a9053506125b3600a896137a3565b9750505061250e565b50949350505050565b606060006125d485858561285d565b905060006125ed6125e6876002613800565b868661285d565b905081818360405160200161260493929190613214565b604051602081830303815290604052925050509392505050565b60006106e182612906565b6126338383612944565b6126406000848484612705565b6109425760405162461bcd60e51b815260206004820152603260248201527f4552433732313a207472616e7366657220746f206e6f6e20455243373231526560448201527131b2b4bb32b91034b6b83632b6b2b73a32b960711b606482015260840161082d565b600a5460ff16156126fa5760405162461bcd60e51b815260206004820152601060248201527f5061757361626c653a2070617573656400000000000000000000000000000000604482015260640161082d565b610942838383612a92565b60006001600160a01b0384163b1561285257604051630a85bd0160e11b81526001600160a01b0385169063150b7a02906127499033908990889088906004016136aa565b602060405180830381600087803b15801561276357600080fd5b505af1925050508015612793575060408051601f3d908101601f191682019092526127909181019061305f565b60015b612838573d8080156127c1576040519150601f19603f3d011682016040523d82523d6000602084013e6127c6565b606091505b5080516128305760405162461bcd60e51b815260206004820152603260248201527f4552433732313a207472616e7366657220746f206e6f6e20455243373231526560448201527131b2b4bb32b91034b6b83632b6b2b73a32b960711b606482015260840161082d565b805181602001fd5b6001600160e01b031916630a85bd0160e11b149050611fb2565b506001949350505050565b60606000612872858560ff168560ff16610f4e565b90506000612891612884876002613800565b8660ff168660ff16610f4e565b905060006128b06128a3886003613800565b8760ff168760ff16610f4e565b90506128bf8361ffff1661244c565b6128cc8361ffff1661244c565b6128d98361ffff1661244c565b6040516020016128eb939291906134ea565b60405160208183030381529060405293505050509392505050565b60006001600160e01b031982167f780e9d630000000000000000000000000000000000000000000000000000000014806106e157506106e182612b4a565b6001600160a01b03821661299a5760405162461bcd60e51b815260206004820181905260248201527f4552433732313a206d696e7420746f20746865207a65726f2061646472657373604482015260640161082d565b6000818152600260205260409020546001600160a01b0316156129ff5760405162461bcd60e51b815260206004820152601c60248201527f4552433732313a20746f6b656e20616c7265616479206d696e74656400000000604482015260640161082d565b612a0b600083836126a7565b6001600160a01b0382166000908152600360205260408120805460019290612a34908490613747565b909155505060008181526002602052604080822080546001600160a01b0319166001600160a01b03861690811790915590518392907fddf252ad1be2c89b69c2b068fc378daa952ba7f163c4a11628f55a4df523b3ef908290a45050565b6001600160a01b038316612aed57612ae881600880546000838152600960205260408120829055600182018355919091527ff3f7a9fe364faab93b216da50a3214154f22a0a2b415b23a84c8169e8b636ee30155565b612b10565b816001600160a01b0316836001600160a01b031614612b1057612b108382612be5565b6001600160a01b038216612b275761094281612c82565b826001600160a01b0316826001600160a01b031614610942576109428282612d5b565b60006001600160e01b031982167f80ac58cd000000000000000000000000000000000000000000000000000000001480612bad57506001600160e01b031982167f5b5e139f00000000000000000000000000000000000000000000000000000000145b806106e157507f01ffc9a7000000000000000000000000000000000000000000000000000000006001600160e01b03198316146106e1565b60006001612bf28461140e565b612bfc9190613846565b600083815260076020526040902054909150808214612c4f576001600160a01b03841660009081526006602090815260408083208584528252808320548484528184208190558352600790915290208190555b5060009182526007602090815260408084208490556001600160a01b039094168352600681528383209183525290812055565b600854600090612c9490600190613846565b60008381526009602052604081205460088054939450909284908110612cca57634e487b7160e01b600052603260045260246000fd5b906000526020600020015490508060088381548110612cf957634e487b7160e01b600052603260045260246000fd5b6000918252602080832090910192909255828152600990915260408082208490558582528120556008805480612d3f57634e487b7160e01b600052603160045260246000fd5b6001900381819060005260206000200160009055905550505050565b6000612d668361140e565b6001600160a01b039093166000908152600660209081526040808320868452825280832085905593825260079052919091209190915550565b80356001600160a01b0381168114612db657600080fd5b919050565b803561ffff81168114612db657600080fd5b803563ffffffff81168114612db657600080fd5b803560ff81168114612db657600080fd5b600060208284031215612e03578081fd5b610fb582612d9f565b60008060408385031215612e1e578081fd5b612e2783612d9f565b9150612e3560208401612d9f565b90509250929050565b600080600060608486031215612e52578081fd5b612e5b84612d9f565b9250612e6960208501612d9f565b9150604084013590509250925092565b60008060008060808587031215612e8e578081fd5b612e9785612d9f565b93506020612ea6818701612d9f565b935060408601359250606086013567ffffffffffffffff80821115612ec9578384fd5b818801915088601f830112612edc578384fd5b813581811115612eee57612eee613942565b612f00601f8201601f191685016136f9565b91508082528984828501011115612f15578485fd5b8084840185840137810190920192909252939692955090935050565b60008060408385031215612f43578182fd5b612f4c83612d9f565b915060208301358015158114612f60578182fd5b809150509250929050565b60008060408385031215612f7d578182fd5b612f8683612d9f565b946020939093013593505050565b60006020808385031215612fa6578182fd5b823567ffffffffffffffff80821115612fbd578384fd5b818501915085601f830112612fd0578384fd5b813581811115612fe257612fe2613942565b8060051b9150612ff38483016136f9565b8181528481019084860184860187018a101561300d578788fd5b8795505b838610156130365761302281612dcd565b835260019590950194918601918601613011565b5098975050505050505050565b600060208284031215613054578081fd5b8135610fb581613958565b600060208284031215613070578081fd5b8151610fb581613958565b60006020828403121561308c578081fd5b5035919050565b600080604083850312156130a5578182fd5b50508035926020909101359150565b6000806000606084860312156130c8578283fd5b6130d184612dcd565b92506130df60208501612dbb565b91506130ed60408501612dbb565b90509250925092565b60008060008060008060008060006101208a8c031215613114578687fd5b61311d8a612dcd565b985061312b60208b01612de1565b975061313960408b01612de1565b965061314760608b01612de1565b955061315560808b01612de1565b945061316360a08b01612de1565b935061317160c08b01612de1565b925061317f60e08b01612de1565b915061318e6101008b01612de1565b90509295985092959850929598565b600081518084526131b5816020860160208601613880565b601f01601f19169290920160200192915050565b600081516131db818560208601613880565b9290920192915050565b600083516131f7818460208801613880565b83519083019061320b818360208801613880565b01949350505050565b60008451613226818460208901613880565b80830190507f3b000000000000000000000000000000000000000000000000000000000000008082528551613262816001850160208a01613880565b60019201918201819052845161327f816002850160208901613880565b600292019182015260030195945050505050565b600082516132a5818460208701613880565b7f3c2f7376673e0000000000000000000000000000000000000000000000000000920191825250600601919050565b7f3c7265637420783d27000000000000000000000000000000000000000000000081526000865161330c816009850160208b01613880565b7f2720793d2730272077696474683d2700000000000000000000000000000000006009918401918201528651613349816018840160208b01613880565b7f27206865696768743d2732303030272073686170652d72656e646572696e673d601892909101918201527f27637269737045646765732720206f7061636974793d27302e3827000000000060388201527f207472616e73666f726d3d27726f746174652800000000000000000000000000605382015285516133d3816066840160208a01613880565b7f2031303030203130303029273e3c616e696d61746520626567696e3d20273073606692909101918201527f27206475723d270000000000000000000000000000000000000000000000000060868201526134de61348f61348961343a608d8501896131c9565b7f6d7327206174747269627574654e616d653d2766696c6c272076616c7565733d81527f2700000000000000000000000000000000000000000000000000000000000000602082015260210190565b866131c9565b7f272066696c6c3d27667265657a652720726570656174436f756e743d27696e6481527f6566696e697465272f3e3c2f726563743e000000000000000000000000000000602082015260310190565b98975050505050505050565b7f7267622800000000000000000000000000000000000000000000000000000000815260008451613522816004850160208901613880565b80830190507f2c200000000000000000000000000000000000000000000000000000000000008060048301528551613561816006850160208a01613880565b6006920191820152835161357c816008840160208801613880565b7f29000000000000000000000000000000000000000000000000000000000000006008929091019182015260090195945050505050565b7f7b226e616d65223a2244796e61537472697065732023000000000000000000008152600083516135eb816016850160208801613880565b7f222c20226465736372697074696f6e223a226f6e2d636861696e2c2067656e656016918401918201527f7261746976652044796e615374726970657320617274776f726b222c2022696d60368201527f616765223a22646174613a696d6167652f7376672b786d6c2c000000000000006056820152835161367481606f840160208801613880565b7f227d000000000000000000000000000000000000000000000000000000000000606f9290910191820152607101949350505050565b60006001600160a01b038087168352808616602084015250836040830152608060608301526136dc608083018461319d565b9695505050505050565b602081526000610fb5602083018461319d565b604051601f8201601f1916810167ffffffffffffffff8111828210171561372257613722613942565b604052919050565b600061ffff80831681851680830382111561320b5761320b613916565b6000821982111561375a5761375a613916565b500190565b600063ffffffff80831681851680830382111561320b5761320b613916565b600060ff821660ff84168060ff0382111561379b5761379b613916565b019392505050565b6000826137b2576137b261392c565b500490565b600061ffff808316818516818304811182151516156137d8576137d8613916565b02949350505050565b60008160001904831182151516156137fb576137fb613916565b500290565b600063ffffffff808316818516818304811182151516156137d8576137d8613916565b600061ffff8381169083168181101561383e5761383e613916565b039392505050565b60008282101561385857613858613916565b500390565b600060ff821660ff84168082101561387757613877613916565b90039392505050565b60005b8381101561389b578181015183820152602001613883565b838111156116d65750506000910152565b600181811c908216806138c057607f821691505b602082108114156138e157634e487b7160e01b600052602260045260246000fd5b50919050565b60006000198214156138fb576138fb613916565b5060010190565b6000826139115761391161392c565b500690565b634e487b7160e01b600052601160045260246000fd5b634e487b7160e01b600052601260045260246000fd5b634e487b7160e01b600052604160045260246000fd5b6001600160e01b03198116811461122f57600080fdfe3c73766720786d6c6e733d27687474703a2f2f7777772e77332e6f72672f323030302f737667272076696577426f783d2730203020323030302032303030273ea26469706673582212205ce790d993bbee9e4f6b943c0c2ed246a6a449405b2ba7d89a76f6f6031110a764736f6c63430008040033",
  "linkReferences": {},
  "deployedLinkReferences": {}
}