{
  "_format": "hh-sol-artifact-1",
  "contractName": "DynaStripes",
  "sourceName": "contracts/DynaStripes.sol",
  "abi": [
    {
      "inputs": [],
      "stateMutability": "nonpayable",
      "type": "constructor"
    },
    {
      "anonymous": false,
      "inputs": [
        {
          "indexed": true,
          "internalType": "address",
          "name": "owner",
          "type": "address"
        },
        {
          "indexed": true,
          "internalType": "address",
          "name": "approved",
          "type": "address"
        },
        {
          "indexed": true,
          "internalType": "uint256",
          "name": "tokenId",
          "type": "uint256"
        }
      ],
      "name": "Approval",
      "type": "event"
    },
    {
      "anonymous": false,
      "inputs": [
        {
          "indexed": true,
          "internalType": "address",
          "name": "owner",
          "type": "address"
        },
        {
          "indexed": true,
          "internalType": "address",
          "name": "operator",
          "type": "address"
        },
        {
          "indexed": false,
          "internalType": "bool",
          "name": "approved",
          "type": "bool"
        }
      ],
      "name": "ApprovalForAll",
      "type": "event"
    },
    {
      "anonymous": false,
      "inputs": [
        {
          "indexed": true,
          "internalType": "address",
          "name": "previousOwner",
          "type": "address"
        },
        {
          "indexed": true,
          "internalType": "address",
          "name": "newOwner",
          "type": "address"
        }
      ],
      "name": "OwnershipTransferred",
      "type": "event"
    },
    {
      "anonymous": false,
      "inputs": [
        {
          "indexed": false,
          "internalType": "address",
          "name": "account",
          "type": "address"
        }
      ],
      "name": "Paused",
      "type": "event"
    },
    {
      "anonymous": false,
      "inputs": [
        {
          "indexed": true,
          "internalType": "address",
          "name": "from",
          "type": "address"
        },
        {
          "indexed": true,
          "internalType": "address",
          "name": "to",
          "type": "address"
        },
        {
          "indexed": true,
          "internalType": "uint256",
          "name": "tokenId",
          "type": "uint256"
        }
      ],
      "name": "Transfer",
      "type": "event"
    },
    {
      "anonymous": false,
      "inputs": [
        {
          "indexed": false,
          "internalType": "address",
          "name": "account",
          "type": "address"
        }
      ],
      "name": "Unpaused",
      "type": "event"
    },
    {
      "inputs": [],
      "name": "ROYALTY_BPS",
      "outputs": [
        {
          "internalType": "uint16",
          "name": "",
          "type": "uint16"
        }
      ],
      "stateMutability": "view",
      "type": "function"
    },
    {
      "inputs": [],
      "name": "TOKEN_LIMIT",
      "outputs": [
        {
          "internalType": "uint16",
          "name": "",
          "type": "uint16"
        }
      ],
      "stateMutability": "view",
      "type": "function"
    },
    {
      "inputs": [
        {
          "internalType": "address",
          "name": "to",
          "type": "address"
        },
        {
          "internalType": "uint256",
          "name": "tokenId",
          "type": "uint256"
        }
      ],
      "name": "approve",
      "outputs": [],
      "stateMutability": "nonpayable",
      "type": "function"
    },
    {
      "inputs": [
        {
          "internalType": "address",
          "name": "owner",
          "type": "address"
        }
      ],
      "name": "balanceOf",
      "outputs": [
        {
          "internalType": "uint256",
          "name": "",
          "type": "uint256"
        }
      ],
      "stateMutability": "view",
      "type": "function"
    },
    {
      "inputs": [
        {
          "internalType": "uint32[]",
          "name": "seeds",
          "type": "uint32[]"
        }
      ],
      "name": "banRandomSeeds",
      "outputs": [],
      "stateMutability": "nonpayable",
      "type": "function"
    },
    {
      "inputs": [
        {
          "internalType": "uint256",
          "name": "tokenId",
          "type": "uint256"
        }
      ],
      "name": "burn",
      "outputs": [],
      "stateMutability": "nonpayable",
      "type": "function"
    },
    {
      "inputs": [],
      "name": "contractURI",
      "outputs": [
        {
          "internalType": "string",
          "name": "",
          "type": "string"
        }
      ],
      "stateMutability": "pure",
      "type": "function"
    },
    {
      "inputs": [
        {
          "internalType": "uint256",
          "name": "_tokenId",
          "type": "uint256"
        }
      ],
      "name": "generateSvg",
      "outputs": [
        {
          "internalType": "string",
          "name": "",
          "type": "string"
        }
      ],
      "stateMutability": "view",
      "type": "function"
    },
    {
      "inputs": [
        {
          "internalType": "uint256",
          "name": "tokenId",
          "type": "uint256"
        }
      ],
      "name": "getApproved",
      "outputs": [
        {
          "internalType": "address",
          "name": "",
          "type": "address"
        }
      ],
      "stateMutability": "view",
      "type": "function"
    },
    {
      "inputs": [],
      "name": "getMintPrice",
      "outputs": [
        {
          "internalType": "uint256",
          "name": "",
          "type": "uint256"
        }
      ],
      "stateMutability": "view",
      "type": "function"
    },
    {
      "inputs": [],
      "name": "getTokenLimit",
      "outputs": [
        {
          "internalType": "uint16",
          "name": "",
          "type": "uint16"
        }
      ],
      "stateMutability": "view",
      "type": "function"
    },
    {
      "inputs": [
        {
          "internalType": "address",
          "name": "owner",
          "type": "address"
        },
        {
          "internalType": "address",
          "name": "operator",
          "type": "address"
        }
      ],
      "name": "isApprovedForAll",
      "outputs": [
        {
          "internalType": "bool",
          "name": "",
          "type": "bool"
        }
      ],
      "stateMutability": "view",
      "type": "function"
    },
    {
      "inputs": [],
      "name": "isSenderOwner",
      "outputs": [
        {
          "internalType": "bool",
          "name": "",
          "type": "bool"
        }
      ],
      "stateMutability": "view",
      "type": "function"
    },
    {
      "inputs": [
        {
          "internalType": "uint32",
          "name": "_randomSeed",
          "type": "uint32"
        },
        {
          "internalType": "uint8",
          "name": "_zoom",
          "type": "uint8"
        },
        {
          "internalType": "uint8",
          "name": "_rotationMin",
          "type": "uint8"
        },
        {
          "internalType": "uint8",
          "name": "_rotationMax",
          "type": "uint8"
        },
        {
          "internalType": "uint8",
          "name": "_stripeWidthMin",
          "type": "uint8"
        },
        {
          "internalType": "uint8",
          "name": "_stripeWidthMax",
          "type": "uint8"
        },
        {
          "internalType": "uint8",
          "name": "_paletteMin",
          "type": "uint8"
        },
        {
          "internalType": "uint8",
          "name": "_paletteMax",
          "type": "uint8"
        },
        {
          "internalType": "uint8",
          "name": "_speedMin",
          "type": "uint8"
        },
        {
          "internalType": "uint8",
          "name": "_speedMax",
          "type": "uint8"
        }
      ],
      "name": "mintStripes",
      "outputs": [],
      "stateMutability": "payable",
      "type": "function"
    },
    {
      "inputs": [],
      "name": "name",
      "outputs": [
        {
          "internalType": "string",
          "name": "",
          "type": "string"
        }
      ],
      "stateMutability": "view",
      "type": "function"
    },
    {
      "inputs": [],
      "name": "owner",
      "outputs": [
        {
          "internalType": "address",
          "name": "",
          "type": "address"
        }
      ],
      "stateMutability": "view",
      "type": "function"
    },
    {
      "inputs": [
        {
          "internalType": "uint256",
          "name": "tokenId",
          "type": "uint256"
        }
      ],
      "name": "ownerOf",
      "outputs": [
        {
          "internalType": "address",
          "name": "",
          "type": "address"
        }
      ],
      "stateMutability": "view",
      "type": "function"
    },
    {
      "inputs": [],
      "name": "pause",
      "outputs": [],
      "stateMutability": "nonpayable",
      "type": "function"
    },
    {
      "inputs": [],
      "name": "paused",
      "outputs": [
        {
          "internalType": "bool",
          "name": "",
          "type": "bool"
        }
      ],
      "stateMutability": "view",
      "type": "function"
    },
    {
      "inputs": [
        {
          "internalType": "uint256",
          "name": "amount",
          "type": "uint256"
        }
      ],
      "name": "payOwner",
      "outputs": [],
      "stateMutability": "nonpayable",
      "type": "function"
    },
    {
      "inputs": [],
      "name": "renounceOwnership",
      "outputs": [],
      "stateMutability": "nonpayable",
      "type": "function"
    },
    {
      "inputs": [
        {
          "internalType": "uint256",
          "name": "tokenId",
          "type": "uint256"
        },
        {
          "internalType": "uint256",
          "name": "value",
          "type": "uint256"
        }
      ],
      "name": "royaltyInfo",
      "outputs": [
        {
          "internalType": "address",
          "name": "receiver",
          "type": "address"
        },
        {
          "internalType": "uint256",
          "name": "royaltyAmount",
          "type": "uint256"
        }
      ],
      "stateMutability": "view",
      "type": "function"
    },
    {
      "inputs": [
        {
          "internalType": "address",
          "name": "to",
          "type": "address"
        }
      ],
      "name": "safeMint",
      "outputs": [],
      "stateMutability": "nonpayable",
      "type": "function"
    },
    {
      "inputs": [
        {
          "internalType": "address",
          "name": "from",
          "type": "address"
        },
        {
          "internalType": "address",
          "name": "to",
          "type": "address"
        },
        {
          "internalType": "uint256",
          "name": "tokenId",
          "type": "uint256"
        }
      ],
      "name": "safeTransferFrom",
      "outputs": [],
      "stateMutability": "nonpayable",
      "type": "function"
    },
    {
      "inputs": [
        {
          "internalType": "address",
          "name": "from",
          "type": "address"
        },
        {
          "internalType": "address",
          "name": "to",
          "type": "address"
        },
        {
          "internalType": "uint256",
          "name": "tokenId",
          "type": "uint256"
        },
        {
          "internalType": "bytes",
          "name": "_data",
          "type": "bytes"
        }
      ],
      "name": "safeTransferFrom",
      "outputs": [],
      "stateMutability": "nonpayable",
      "type": "function"
    },
    {
      "inputs": [
        {
          "internalType": "address",
          "name": "operator",
          "type": "address"
        },
        {
          "internalType": "bool",
          "name": "approved",
          "type": "bool"
        }
      ],
      "name": "setApprovalForAll",
      "outputs": [],
      "stateMutability": "nonpayable",
      "type": "function"
    },
    {
      "inputs": [
        {
          "internalType": "uint256",
          "name": "_mintPrice",
          "type": "uint256"
        }
      ],
      "name": "setMintPrice",
      "outputs": [],
      "stateMutability": "nonpayable",
      "type": "function"
    },
    {
      "inputs": [
        {
          "internalType": "uint16",
          "name": "_tokenLimit",
          "type": "uint16"
        }
      ],
      "name": "setTokenLimit",
      "outputs": [],
      "stateMutability": "nonpayable",
      "type": "function"
    },
    {
      "inputs": [
        {
          "internalType": "bytes4",
          "name": "interfaceId",
          "type": "bytes4"
        }
      ],
      "name": "supportsInterface",
      "outputs": [
        {
          "internalType": "bool",
          "name": "",
          "type": "bool"
        }
      ],
      "stateMutability": "view",
      "type": "function"
    },
    {
      "inputs": [],
      "name": "symbol",
      "outputs": [
        {
          "internalType": "string",
          "name": "",
          "type": "string"
        }
      ],
      "stateMutability": "view",
      "type": "function"
    },
    {
      "inputs": [
        {
          "internalType": "uint256",
          "name": "index",
          "type": "uint256"
        }
      ],
      "name": "tokenByIndex",
      "outputs": [
        {
          "internalType": "uint256",
          "name": "",
          "type": "uint256"
        }
      ],
      "stateMutability": "view",
      "type": "function"
    },
    {
      "inputs": [
        {
          "internalType": "address",
          "name": "owner",
          "type": "address"
        },
        {
          "internalType": "uint256",
          "name": "index",
          "type": "uint256"
        }
      ],
      "name": "tokenOfOwnerByIndex",
      "outputs": [
        {
          "internalType": "uint256",
          "name": "",
          "type": "uint256"
        }
      ],
      "stateMutability": "view",
      "type": "function"
    },
    {
      "inputs": [
        {
          "internalType": "uint256",
          "name": "_tokenId",
          "type": "uint256"
        }
      ],
      "name": "tokenURI",
      "outputs": [
        {
          "internalType": "string",
          "name": "",
          "type": "string"
        }
      ],
      "stateMutability": "view",
      "type": "function"
    },
    {
      "inputs": [],
      "name": "totalSupply",
      "outputs": [
        {
          "internalType": "uint256",
          "name": "",
          "type": "uint256"
        }
      ],
      "stateMutability": "view",
      "type": "function"
    },
    {
      "inputs": [
        {
          "internalType": "address",
          "name": "from",
          "type": "address"
        },
        {
          "internalType": "address",
          "name": "to",
          "type": "address"
        },
        {
          "internalType": "uint256",
          "name": "tokenId",
          "type": "uint256"
        }
      ],
      "name": "transferFrom",
      "outputs": [],
      "stateMutability": "nonpayable",
      "type": "function"
    },
    {
      "inputs": [
        {
          "internalType": "address",
          "name": "newOwner",
          "type": "address"
        }
      ],
      "name": "transferOwnership",
      "outputs": [],
      "stateMutability": "nonpayable",
      "type": "function"
    },
    {
      "inputs": [],
      "name": "unpause",
      "outputs": [],
      "stateMutability": "nonpayable",
      "type": "function"
    },
    {
      "stateMutability": "payable",
      "type": "receive"
    }
  ],
  "bytecode": "0x6080604052662386f26fc10000600d55600e805461ffff19166103e81790553480156200002b57600080fd5b50604080518082018252600b81526a44796e615374726970657360a81b60208083019182528351808501909452600384526244535360e81b908401528151919291839183916200007e916000916200010e565b508051620000949060019060208401906200010e565b5050600a805460ff1916905550620000ac33620000b4565b5050620001f1565b600a80546001600160a01b03838116610100818102610100600160a81b031985161790945560405193909204169182907f8be0079c531659141344cd1fd0a4f28419497f9722a3daafe3b4186f6b6457e090600090a35050565b8280546200011c90620001b4565b90600052602060002090601f0160209004810192826200014057600085556200018b565b82601f106200015b57805160ff19168380011785556200018b565b828001600101855582156200018b579182015b828111156200018b5782518255916020019190600101906200016e565b50620001999291506200019d565b5090565b5b808211156200019957600081556001016200019e565b600181811c90821680620001c957607f821691505b60208210811415620001eb57634e487b7160e01b600052602260045260246000fd5b50919050565b61453d80620002016000396000f3fe60806040526004361061026e5760003560e01c80635c975abb11610153578063a7f93ebd116100cb578063e8a3d4851161007f578063eb3af37411610064578063eb3af374146106db578063f2fde38b146106fb578063f4a0a5281461071b57600080fd5b8063e8a3d4851461067d578063e985e9c51461069257600080fd5b8063b88d4fde116100b0578063b88d4fde1461061d578063bc921dc21461063d578063c87b56dd1461065d57600080fd5b8063a7f93ebd146105f5578063afbc98231461060a57600080fd5b806377c39a89116101225780638da5cb5b116101075780638da5cb5b1461059d57806395d89b41146105c0578063a22cb465146105d557600080fd5b806377c39a89146105685780638456cb591461058857600080fd5b80635c975abb146104fb5780636352211e1461051357806370a0823114610533578063715018a61461055357600080fd5b80632a55205a116101e657806342842e0e116101b5578063479fe5441161019a578063479fe544146104a057806349c657db146104c55780634f6ccce7146104db57600080fd5b806342842e0e1461046057806342966c681461048057600080fd5b80632a55205a146103cc5780632f745c591461040b5780633f4ba83a1461042b57806340d097c31461044057600080fd5b806308d78c3c1161023d57806318160ddd1161022257806318160ddd1461037457806323b872dd1461039357806328485586146103b357600080fd5b806308d78c3c14610332578063095ea7b31461035457600080fd5b806301ffc9a71461027a578063031bd4c4146102af57806306fdde03146102d8578063081812fc146102fa57600080fd5b3661027557005b600080fd5b34801561028657600080fd5b5061029a6102953660046135c7565b61073b565b60405190151581526020015b60405180910390f35b3480156102bb57600080fd5b506102c561271081565b60405161ffff90911681526020016102a6565b3480156102e457600080fd5b506102ed61074c565b6040516102a69190614258565b34801561030657600080fd5b5061031a610315366004613621565b6107de565b6040516001600160a01b0390911681526020016102a6565b34801561033e57600080fd5b5061035261034d366004613621565b610878565b005b34801561036057600080fd5b5061035261036f3660046134ef565b61096d565b34801561038057600080fd5b506008545b6040519081526020016102a6565b34801561039f57600080fd5b506103526103ae3660046133c2565b610a9a565b3480156103bf57600080fd5b50600e5461ffff166102c5565b3480156103d857600080fd5b506103ec6103e7366004613639565b610b22565b604080516001600160a01b0390931683526020830191909152016102a6565b34801561041757600080fd5b506103856104263660046134ef565b610b7b565b34801561043757600080fd5b50610352610c23565b34801561044c57600080fd5b5061035261045b366004613376565b610c8d565b34801561046c57600080fd5b5061035261047b3660046133c2565b610d10565b34801561048c57600080fd5b5061035261049b366004613621565b610d2b565b3480156104ac57600080fd5b50600a5461010090046001600160a01b0316331461029a565b3480156104d157600080fd5b506102c56103e881565b3480156104e757600080fd5b506103856104f6366004613621565b610daf565b34801561050757600080fd5b50600a5460ff1661029a565b34801561051f57600080fd5b5061031a61052e366004613621565b610e61565b34801561053f57600080fd5b5061038561054e366004613376565b610eec565b34801561055f57600080fd5b50610352610f86565b34801561057457600080fd5b506103526105833660046135ff565b610ff0565b34801561059457600080fd5b5061035261107b565b3480156105a957600080fd5b50600a5461010090046001600160a01b031661031a565b3480156105cc57600080fd5b506102ed6110e3565b3480156105e157600080fd5b506103526105f03660046134b5565b6110f2565b34801561060157600080fd5b50600d54610385565b61035261061836600461365a565b6111b7565b34801561062957600080fd5b506103526106383660046133fd565b611742565b34801561064957600080fd5b506102ed610658366004613621565b6117d0565b34801561066957600080fd5b506102ed610678366004613621565b611b7e565b34801561068957600080fd5b506102ed611f2b565b34801561069e57600080fd5b5061029a6106ad366004613390565b6001600160a01b03918216600090815260056020908152604080832093909416825291909152205460ff1690565b3480156106e757600080fd5b506103526106f6366004613518565b611f4b565b34801561070757600080fd5b50610352610716366004613376565b61201b565b34801561072757600080fd5b50610352610736366004613621565b612100565b600061074682612165565b92915050565b60606000805461075b9061441c565b80601f01602080910402602001604051908101604052809291908181526020018280546107879061441c565b80156107d45780601f106107a9576101008083540402835291602001916107d4565b820191906000526020600020905b8154815290600101906020018083116107b757829003601f168201915b5050505050905090565b6000818152600260205260408120546001600160a01b031661085c5760405162461bcd60e51b815260206004820152602c60248201527f4552433732313a20617070726f76656420717565727920666f72206e6f6e657860448201526b34b9ba32b73a103a37b5b2b760a11b60648201526084015b60405180910390fd5b506000908152600460205260409020546001600160a01b031690565b600a546001600160a01b036101009091041633146108d85760405162461bcd60e51b815260206004820181905260248201527f4f776e61626c653a2063616c6c6572206973206e6f7420746865206f776e65726044820152606401610853565b478111156109285760405162461bcd60e51b815260206004820152600f60248201527f416d6f756e7420746f6f206869676800000000000000000000000000000000006044820152606401610853565b600a546040516101009091046001600160a01b031690819083156108fc029084906000818181858888f19350505050158015610968573d6000803e3d6000fd5b505050565b600061097882610e61565b9050806001600160a01b0316836001600160a01b03161415610a025760405162461bcd60e51b815260206004820152602160248201527f4552433732313a20617070726f76616c20746f2063757272656e74206f776e6560448201527f72000000000000000000000000000000000000000000000000000000000000006064820152608401610853565b336001600160a01b0382161480610a1e5750610a1e81336106ad565b610a905760405162461bcd60e51b815260206004820152603860248201527f4552433732313a20617070726f76652063616c6c6572206973206e6f74206f7760448201527f6e6572206e6f7220617070726f76656420666f7220616c6c00000000000000006064820152608401610853565b61096883836121a3565b610aa5335b82612211565b610b175760405162461bcd60e51b815260206004820152603160248201527f4552433732313a207472616e736665722063616c6c6572206973206e6f74206f60448201527f776e6572206e6f7220617070726f7665640000000000000000000000000000006064820152608401610853565b610968838383612308565b6000828152600c60209081526040808320815180830190925280546001600160a01b0316808352600190910154928201839052839261271090610b659087614374565b610b6f9190614336565b92509250509250929050565b6000610b8683610eec565b8210610bfa5760405162461bcd60e51b815260206004820152602b60248201527f455243373231456e756d657261626c653a206f776e657220696e646578206f7560448201527f74206f6620626f756e64730000000000000000000000000000000000000000006064820152608401610853565b506001600160a01b03919091166000908152600660209081526040808320938352929052205490565b600a546001600160a01b03610100909104163314610c835760405162461bcd60e51b815260206004820181905260248201527f4f776e61626c653a2063616c6c6572206973206e6f7420746865206f776e65726044820152606401610853565b610c8b6124e0565b565b600a546001600160a01b03610100909104163314610ced5760405162461bcd60e51b815260206004820181905260248201527f4f776e61626c653a2063616c6c6572206973206e6f7420746865206f776e65726044820152606401610853565b610cff81610cfa600b5490565b61257c565b610d0d600b80546001019055565b50565b61096883838360405180602001604052806000815250611742565b610d3433610a9f565b610da65760405162461bcd60e51b815260206004820152603060248201527f4552433732314275726e61626c653a2063616c6c6572206973206e6f74206f7760448201527f6e6572206e6f7220617070726f766564000000000000000000000000000000006064820152608401610853565b610d0d81612596565b6000610dba60085490565b8210610e2e5760405162461bcd60e51b815260206004820152602c60248201527f455243373231456e756d657261626c653a20676c6f62616c20696e646578206f60448201527f7574206f6620626f756e647300000000000000000000000000000000000000006064820152608401610853565b60088281548110610e4f57634e487b7160e01b600052603260045260246000fd5b90600052602060002001549050919050565b6000818152600260205260408120546001600160a01b0316806107465760405162461bcd60e51b815260206004820152602960248201527f4552433732313a206f776e657220717565727920666f72206e6f6e657869737460448201527f656e7420746f6b656e00000000000000000000000000000000000000000000006064820152608401610853565b60006001600160a01b038216610f6a5760405162461bcd60e51b815260206004820152602a60248201527f4552433732313a2062616c616e636520717565727920666f7220746865207a6560448201527f726f2061646472657373000000000000000000000000000000000000000000006064820152608401610853565b506001600160a01b031660009081526003602052604090205490565b600a546001600160a01b03610100909104163314610fe65760405162461bcd60e51b815260206004820181905260248201527f4f776e61626c653a2063616c6c6572206973206e6f7420746865206f776e65726044820152606401610853565b610c8b600061263d565b600a546001600160a01b036101009091041633146110505760405162461bcd60e51b815260206004820181905260248201527f4f776e61626c653a2063616c6c6572206973206e6f7420746865206f776e65726044820152606401610853565b61271061ffff8216111561106357506127105b600e805461ffff191661ffff92909216919091179055565b600a546001600160a01b036101009091041633146110db5760405162461bcd60e51b815260206004820181905260248201527f4f776e61626c653a2063616c6c6572206973206e6f7420746865206f776e65726044820152606401610853565b610c8b6126ae565b60606001805461075b9061441c565b6001600160a01b03821633141561114b5760405162461bcd60e51b815260206004820152601960248201527f4552433732313a20617070726f766520746f2063616c6c6572000000000000006044820152606401610853565b3360008181526005602090815260408083206001600160a01b03871680855290835292819020805460ff191686151590811790915590519081529192917f17307eab39ab6107e8899845ad3d59bd9653f200f220920489ca2b5937696c31910160405180910390a35050565b60006111c2600b5490565b600e5490915061ffff16811080156111db575061271081105b6112275760405162461bcd60e51b815260206004820152601360248201527f546f6b656e206c696d69742072656163686564000000000000000000000000006044820152606401610853565b600d543410156112795760405162461bcd60e51b815260206004820152601060248201527f4e6f7420656e6f756768206574686572000000000000000000000000000000006044820152606401610853565b60648a60ff1611156112cd5760405162461bcd60e51b815260206004820152600c60248201527f5a6f6f6d20696e76616c696400000000000000000000000000000000000000006044820152606401610853565b60b48860ff16111580156112e757508760ff168960ff1611155b6113335760405162461bcd60e51b815260206004820152601060248201527f526f746174696f6e20696e76616c6964000000000000000000000000000000006044820152606401610853565b60198760ff161015801561134b575060fa8660ff1611155b801561135d57508560ff168760ff1611155b6113a95760405162461bcd60e51b815260206004820152601460248201527f53747269706520776964746820696e76616c69640000000000000000000000006044820152606401610853565b60ff8460ff16111580156113cd57506113c36014856143cd565b60ff168560ff1611155b6114195760405162461bcd60e51b815260206004820152601560248201527f50616c657474652076616c756520696e76616c696400000000000000000000006044820152606401610853565b60198360ff1610158015611431575060fa8260ff1611155b801561144357508160ff168360ff1611155b61148f5760405162461bcd60e51b815260206004820152601360248201527f53706565642076616c756520696e76616c6964000000000000000000000000006044820152606401610853565b624c4b408b63ffffffff161080156114bd575063ffffffff8b1660009081526010602052604090205460ff16155b6115095760405162461bcd60e51b815260206004820152601360248201527f52616e646f6d207365656420696e76616c6964000000000000000000000000006044820152606401610853565b611513338261257c565b61152081336103e8612736565b6040518061014001604052808c63ffffffff1681526020018b60ff1681526020018a60ff1681526020018960ff1681526020018860ff1681526020018760ff1681526020018660ff1681526020018560ff1681526020018460ff1681526020018360ff16815250600f600083815260200190815260200160002060008201518160000160006101000a81548163ffffffff021916908363ffffffff16021790555060208201518160000160046101000a81548160ff021916908360ff16021790555060408201518160000160056101000a81548160ff021916908360ff16021790555060608201518160000160066101000a81548160ff021916908360ff16021790555060808201518160000160076101000a81548160ff021916908360ff16021790555060a08201518160000160086101000a81548160ff021916908360ff16021790555060c08201518160000160096101000a81548160ff021916908360ff16021790555060e082015181600001600a6101000a81548160ff021916908360ff16021790555061010082015181600001600b6101000a81548160ff021916908360ff16021790555061012082015181600001600c6101000a81548160ff021916908360ff1602179055509050506001601060008d63ffffffff1663ffffffff16815260200190815260200160002060006101000a81548160ff021916908315150217905550611735600b80546001019055565b5050505050505050505050565b61174c3383612211565b6117be5760405162461bcd60e51b815260206004820152603160248201527f4552433732313a207472616e736665722063616c6c6572206973206e6f74206f60448201527f776e6572206e6f7220617070726f7665640000000000000000000000000000006064820152608401610853565b6117ca848484846127d0565b50505050565b60606117db600b5490565b82106118755760405162461bcd60e51b815260206004820152604160248201527f417474656d7074656420746f2067656e65726174652053564720666f7220746f60448201527f6b656e207468617420686173206e6f7420796574206265656e206d696e74656460648201527f2e00000000000000000000000000000000000000000000000000000000000000608482015260a401610853565b6000828152600f60209081526040808320815161014081018352905463ffffffff811680835260ff640100000000830481169584018690526501000000000083048116948401949094526601000000000000820484166060840152670100000000000000820484166080840152680100000000000000008204841660a084015269010000000000000000008204841660c08401526a01000000000000000000008204841660e08401526b010000000000000000000000820484166101008401526c010000000000000000000000009091049092166101208201529291829061195c9061284e565b60405160200161196c9190613d15565b60405160208183030381529060405290505b600061198c846107d0614393565b61ffff161115611b535760006119b183866080015160ff168760a0015160ff16612974565b6119bc90600261434a565b90506119ca846107d0614393565b61ffff168161ffff1611156119ec576119e5846107d0614393565b9050611a39565b608085015160ff1681611a01866107d0614393565b611a0b9190614393565b61ffff161015611a395780611a22856107d0614393565b611a2c9190614393565b611a36908261429c565b90505b6000611a5e611a498560016142d1565b876040015160ff16886060015160ff16612974565b90506000611a87611a708660026142d1565b88610100015160ff1689610120015160ff16612974565b611a9290601461434a565b90506000611aa38761ffff166129e2565b611ab08561ffff166129e2565b611abd8561ffff166129e2565b611aca8561ffff166129e2565b611ae7611ad88b60036142d1565b8d60c001518e60e00151612b5b565b604051602001611afb9594939291906138c2565b60405160208183030381529060405290508481604051602001611b1f92919061375b565b60408051601f198184030181529190529450611b3b848861429c565b9650611b486064876142d1565b95505050505061197e565b80604051602001611b649190613881565b60408051601f198184030181529190529695505050505050565b6000818152600f60209081526040808320815161014081018352905463ffffffff8116825260ff64010000000082048116948301949094526501000000000081048416928201839052660100000000000081048416606083810191909152670100000000000000820485166080840152680100000000000000008204851660a084015269010000000000000000008204851660c08401526a01000000000000000000008204851660e08401526b010000000000000000000000820485166101008401526c01000000000000000000000000909104909316610120820152919290611c67906129e2565b611c77836060015160ff166129e2565b604051602001611c88929190613b9b565b60405160208183030381529060405290506000611cab836080015160ff166129e2565b611cbb8460a0015160ff166129e2565b604051602001611ccc929190614150565b60405160208183030381529060405290506000611cef8460c0015160ff166129e2565b611cff8560e0015160ff166129e2565b604051602001611d10929190613abf565b60405160208183030381529060405290506000611d3485610100015160ff166129e2565b611d4586610120015160ff166129e2565b604051602001611d56929190613e73565b6040516020818303038152906040529050600084848484604051602001611d809493929190613da7565b60405160208183030381529060405290506000604051602001611ed0907f22636f70797269676874223a2022546865206f776e6572206f6620746869732081527f4e465420697320697473206c6567616c20636f7079726967687420686f6c646560208201527f722e2042792073656c6c696e672074686973204e46542c207468652073656c6c60408201527f65722f6f776e65722061677265657320746f2061737369676e20636f7079726960608201527f67687420746f207468652062757965722e20416c6c2062757965727320616e6460808201527f2073656c6c65727320616772656520746f207061796d656e74206f6620726f7960a08201527f616c7469657320746f20746865206f726967696e616c206d696e746572206f6e60c08201527f2073616c65206f662074686520617274776f726b2e220000000000000000000060e082015260f60190565b60405160208183030381529060405290506000611eec8a6117d0565b9050611ef78a6129e2565b828483604051602001611f0d9493929190614011565b60405160208183030381529060405298505050505050505050919050565b60606040518060600160405280602f81526020016144d9602f9139905090565b600a546001600160a01b03610100909104163314611fab5760405162461bcd60e51b815260206004820181905260248201527f4f776e61626c653a2063616c6c6572206973206e6f7420746865206f776e65726044820152606401610853565b60005b8151811015612017576000828281518110611fd957634e487b7160e01b600052603260045260246000fd5b60209081029190910181015163ffffffff166000908152601090915260409020805460ff19166001179055508061200f81614451565b915050611fae565b5050565b600a546001600160a01b0361010090910416331461207b5760405162461bcd60e51b815260206004820181905260248201527f4f776e61626c653a2063616c6c6572206973206e6f7420746865206f776e65726044820152606401610853565b6001600160a01b0381166120f75760405162461bcd60e51b815260206004820152602660248201527f4f776e61626c653a206e6577206f776e657220697320746865207a65726f206160448201527f64647265737300000000000000000000000000000000000000000000000000006064820152608401610853565b610d0d8161263d565b600a546001600160a01b036101009091041633146121605760405162461bcd60e51b815260206004820181905260248201527f4f776e61626c653a2063616c6c6572206973206e6f7420746865206f776e65726044820152606401610853565b600d55565b60006001600160e01b031982167f2a55205a000000000000000000000000000000000000000000000000000000001480610746575061074682612bb4565b600081815260046020526040902080546001600160a01b0319166001600160a01b03841690811790915581906121d882610e61565b6001600160a01b03167f8c5be1e5ebec7d5bd14f71427d1e84f3dd0314c0f7b2291e5b200ac8c7c3b92560405160405180910390a45050565b6000818152600260205260408120546001600160a01b031661228a5760405162461bcd60e51b815260206004820152602c60248201527f4552433732313a206f70657261746f7220717565727920666f72206e6f6e657860448201526b34b9ba32b73a103a37b5b2b760a11b6064820152608401610853565b600061229583610e61565b9050806001600160a01b0316846001600160a01b031614806122d05750836001600160a01b03166122c5846107de565b6001600160a01b0316145b8061230057506001600160a01b0380821660009081526005602090815260408083209388168352929052205460ff165b949350505050565b826001600160a01b031661231b82610e61565b6001600160a01b0316146123975760405162461bcd60e51b815260206004820152602960248201527f4552433732313a207472616e73666572206f6620746f6b656e2074686174206960448201527f73206e6f74206f776e00000000000000000000000000000000000000000000006064820152608401610853565b6001600160a01b0382166124125760405162461bcd60e51b8152602060048201526024808201527f4552433732313a207472616e7366657220746f20746865207a65726f2061646460448201527f72657373000000000000000000000000000000000000000000000000000000006064820152608401610853565b61241d838383612bbf565b6124286000826121a3565b6001600160a01b03831660009081526003602052604081208054600192906124519084906143b6565b90915550506001600160a01b038216600090815260036020526040812080546001929061247f9084906142b9565b909155505060008181526002602052604080822080546001600160a01b0319166001600160a01b0386811691821790925591518493918716917fddf252ad1be2c89b69c2b068fc378daa952ba7f163c4a11628f55a4df523b3ef91a4505050565b600a5460ff166125325760405162461bcd60e51b815260206004820152601460248201527f5061757361626c653a206e6f74207061757365640000000000000000000000006044820152606401610853565b600a805460ff191690557f5db9ee0a495bf2e6ff9c91a7834c1ba4fdd244a5e8aa4e537bd38aeae4b073aa335b6040516001600160a01b03909116815260200160405180910390a1565b612017828260405180602001604052806000815250612c1d565b60006125a182610e61565b90506125af81600084612bbf565b6125ba6000836121a3565b6001600160a01b03811660009081526003602052604081208054600192906125e39084906143b6565b909155505060008281526002602052604080822080546001600160a01b0319169055518391906001600160a01b038416907fddf252ad1be2c89b69c2b068fc378daa952ba7f163c4a11628f55a4df523b3ef908390a45050565b600a80546001600160a01b038381166101008181027fffffffffffffffffffffff0000000000000000000000000000000000000000ff85161790945560405193909204169182907f8be0079c531659141344cd1fd0a4f28419497f9722a3daafe3b4186f6b6457e090600090a35050565b600a5460ff16156127015760405162461bcd60e51b815260206004820152601060248201527f5061757361626c653a20706175736564000000000000000000000000000000006044820152606401610853565b600a805460ff191660011790557f62e78cea01bee320cd4e420270b5ea74000d11b0c9f74754ebdbfc544b05a25861255f3390565b6127108111156127885760405162461bcd60e51b815260206004820152601a60248201527f45524332393831526f79616c746965733a20546f6f20686967680000000000006044820152606401610853565b6040805180820182526001600160a01b03938416815260208082019384526000958652600c90529320925183546001600160a01b031916921691909117825551600190910155565b6127db848484612308565b6127e784848484612c9b565b6117ca5760405162461bcd60e51b815260206004820152603260248201527f4552433732313a207472616e7366657220746f206e6f6e20455243373231526560448201527131b2b4bb32b91034b6b83632b6b2b73a32b960711b6064820152608401610853565b606061285b82601461434a565b9150600061286b836103e861429c565b90506103e88361ffff1611156128f6576000600261288b6103e886614393565b6128959190614315565b90506128a48161ffff166129e2565b6128b18261ffff166129e2565b6128be8461ffff166129e2565b6128cb8561ffff166129e2565b6040516020016128de9493929190613f4f565b60405160208183030381529060405292505050919050565b60008361ffff166103e814612922576002612913856103e8614393565b61291d9190614315565b612925565b60005b90506129348161ffff166129e2565b6129418261ffff166129e2565b61294e8461ffff166129e2565b61295b8561ffff166129e2565b6040516020016128de949392919061378a565b50919050565b60008261ffff168261ffff161161298c5750816129db565b6040805163ffffffff86166020808301919091528251808303820181529183019092528051910120836129bf8185614393565b6129cd9061ffff168361446c565b6129d7919061429c565b9150505b9392505050565b606081612a2257505060408051808201909152600181527f3000000000000000000000000000000000000000000000000000000000000000602082015290565b8160005b8115612a4c5780612a3681614451565b9150612a459050600a83614336565b9150612a26565b60008167ffffffffffffffff811115612a7557634e487b7160e01b600052604160045260246000fd5b6040519080825280601f01601f191660200182016040528015612a9f576020820181803683370190505b509050815b8515612b5257612ab56001826143b6565b90506000612ac4600a88614336565b612acf90600a614374565b612ad990886143b6565b612ae49060306142f0565b905060008160f81b905080848481518110612b0f57634e487b7160e01b600052603260045260246000fd5b60200101907effffffffffffffffffffffffffffffffffffffffffffffffffffffffffffff1916908160001a905350612b49600a89614336565b97505050612aa4565b50949350505050565b60606000612b6a858585612df3565b90506000612b83612b7c87600a6142d1565b8686612df3565b9050818183604051602001612b9a93929190613802565b604051602081830303815290604052925050509392505050565b600061074682612e9c565b600a5460ff1615612c125760405162461bcd60e51b815260206004820152601060248201527f5061757361626c653a20706175736564000000000000000000000000000000006044820152606401610853565b610968838383612eda565b612c278383612f92565b612c346000848484612c9b565b6109685760405162461bcd60e51b815260206004820152603260248201527f4552433732313a207472616e7366657220746f206e6f6e20455243373231526560448201527131b2b4bb32b91034b6b83632b6b2b73a32b960711b6064820152608401610853565b60006001600160a01b0384163b15612de857604051630a85bd0160e11b81526001600160a01b0385169063150b7a0290612cdf90339089908890889060040161421c565b602060405180830381600087803b158015612cf957600080fd5b505af1925050508015612d29575060408051601f3d908101601f19168201909252612d26918101906135e3565b60015b612dce573d808015612d57576040519150601f19603f3d011682016040523d82523d6000602084013e612d5c565b606091505b508051612dc65760405162461bcd60e51b815260206004820152603260248201527f4552433732313a207472616e7366657220746f206e6f6e20455243373231526560448201527131b2b4bb32b91034b6b83632b6b2b73a32b960711b6064820152608401610853565b805181602001fd5b6001600160e01b031916630a85bd0160e11b149050612300565b506001949350505050565b60606000612e08858560ff168560ff16612974565b90506000612e27612e1a8760016142d1565b8660ff168660ff16612974565b90506000612e46612e398860026142d1565b8760ff168760ff16612974565b9050612e558361ffff166129e2565b612e628361ffff166129e2565b612e6f8361ffff166129e2565b604051602001612e8193929190613c67565b60405160208183030381529060405293505050509392505050565b60006001600160e01b031982167f780e9d630000000000000000000000000000000000000000000000000000000014806107465750610746826130e0565b6001600160a01b038316612f3557612f3081600880546000838152600960205260408120829055600182018355919091527ff3f7a9fe364faab93b216da50a3214154f22a0a2b415b23a84c8169e8b636ee30155565b612f58565b816001600160a01b0316836001600160a01b031614612f5857612f58838261317b565b6001600160a01b038216612f6f5761096881613218565b826001600160a01b0316826001600160a01b0316146109685761096882826132f1565b6001600160a01b038216612fe85760405162461bcd60e51b815260206004820181905260248201527f4552433732313a206d696e7420746f20746865207a65726f20616464726573736044820152606401610853565b6000818152600260205260409020546001600160a01b03161561304d5760405162461bcd60e51b815260206004820152601c60248201527f4552433732313a20746f6b656e20616c7265616479206d696e746564000000006044820152606401610853565b61305960008383612bbf565b6001600160a01b03821660009081526003602052604081208054600192906130829084906142b9565b909155505060008181526002602052604080822080546001600160a01b0319166001600160a01b03861690811790915590518392907fddf252ad1be2c89b69c2b068fc378daa952ba7f163c4a11628f55a4df523b3ef908290a45050565b60006001600160e01b031982167f80ac58cd00000000000000000000000000000000000000000000000000000000148061314357506001600160e01b031982167f5b5e139f00000000000000000000000000000000000000000000000000000000145b8061074657507f01ffc9a7000000000000000000000000000000000000000000000000000000006001600160e01b0319831614610746565b6000600161318884610eec565b61319291906143b6565b6000838152600760205260409020549091508082146131e5576001600160a01b03841660009081526006602090815260408083208584528252808320548484528184208190558352600790915290208190555b5060009182526007602090815260408084208490556001600160a01b039094168352600681528383209183525290812055565b60085460009061322a906001906143b6565b6000838152600960205260408120546008805493945090928490811061326057634e487b7160e01b600052603260045260246000fd5b90600052602060002001549050806008838154811061328f57634e487b7160e01b600052603260045260246000fd5b60009182526020808320909101929092558281526009909152604080822084905585825281205560088054806132d557634e487b7160e01b600052603160045260246000fd5b6001900381819060005260206000200160009055905550505050565b60006132fc83610eec565b6001600160a01b039093166000908152600660209081526040808320868452825280832085905593825260079052919091209190915550565b80356001600160a01b038116811461334c57600080fd5b919050565b803563ffffffff8116811461334c57600080fd5b803560ff8116811461334c57600080fd5b600060208284031215613387578081fd5b6129db82613335565b600080604083850312156133a2578081fd5b6133ab83613335565b91506133b960208401613335565b90509250929050565b6000806000606084860312156133d6578081fd5b6133df84613335565b92506133ed60208501613335565b9150604084013590509250925092565b60008060008060808587031215613412578081fd5b61341b85613335565b9350602061342a818701613335565b935060408601359250606086013567ffffffffffffffff8082111561344d578384fd5b818801915088601f830112613460578384fd5b813581811115613472576134726144ac565b613484601f8201601f1916850161426b565b91508082528984828501011115613499578485fd5b8084840185840137810190920192909252939692955090935050565b600080604083850312156134c7578182fd5b6134d083613335565b9150602083013580151581146134e4578182fd5b809150509250929050565b60008060408385031215613501578182fd5b61350a83613335565b946020939093013593505050565b6000602080838503121561352a578182fd5b823567ffffffffffffffff80821115613541578384fd5b818501915085601f830112613554578384fd5b813581811115613566576135666144ac565b8060051b915061357784830161426b565b8181528481019084860184860187018a1015613591578788fd5b8795505b838610156135ba576135a681613351565b835260019590950194918601918601613595565b5098975050505050505050565b6000602082840312156135d8578081fd5b81356129db816144c2565b6000602082840312156135f4578081fd5b81516129db816144c2565b600060208284031215613610578081fd5b813561ffff811681146129db578182fd5b600060208284031215613632578081fd5b5035919050565b6000806040838503121561364b578182fd5b50508035926020909101359150565b6000806000806000806000806000806101408b8d031215613679578788fd5b6136828b613351565b995061369060208c01613365565b985061369e60408c01613365565b97506136ac60608c01613365565b96506136ba60808c01613365565b95506136c860a08c01613365565b94506136d660c08c01613365565b93506136e460e08c01613365565b92506136f36101008c01613365565b91506137026101208c01613365565b90509295989b9194979a5092959850565b6000815180845261372b8160208601602086016143f0565b601f01601f19169290920160200192915050565b600081516137518185602086016143f0565b9290920192915050565b6000835161376d8184602088016143f0565b8351908301906137818183602088016143f0565b01949350505050565b6000855161379c818460208a016143f0565b8083019050600160fd1b80825286516137bc816001850160208b016143f0565b6001920191820181905285516137d9816002850160208a016143f0565b600292019182015283516137f48160038401602088016143f0565b016003019695505050505050565b600084516138148184602089016143f0565b80830190507f3b000000000000000000000000000000000000000000000000000000000000008082528551613850816001850160208a016143f0565b60019201918201819052845161386d8160028501602089016143f0565b600292019182015260030195945050505050565b600082516138938184602087016143f0565b7f3c2f7376673e0000000000000000000000000000000000000000000000000000920191825250600601919050565b7f3c7265637420783d2700000000000000000000000000000000000000000000008152600086516138fa816009850160208b016143f0565b7f2720793d2730272077696474683d2700000000000000000000000000000000006009918401918201528651613937816018840160208b016143f0565b7f27206865696768743d273230303027206f7061636974793d27302e3827000000601892909101918201527f207472616e73666f726d3d27726f7461746528000000000000000000000000006035820152855161399b816048840160208a016143f0565b7f2031303030203130303029273e3c616e696d61746520626567696e3d20273073604892909101918201527f27206475723d2700000000000000000000000000000000000000000000000000606882015284516139ff81606f8401602089016143f0565b613ab2613a63613a5d606f848601017f6d7327206174747269627574654e616d653d2766696c6c272076616c7565733d81527f2700000000000000000000000000000000000000000000000000000000000000602082015260210190565b8761373f565b7f272066696c6c3d27667265657a652720726570656174436f756e743d27696e6481527f6566696e697465272f3e3c2f726563743e000000000000000000000000000000602082015260310190565b9998505050505050505050565b7f7b2274726169745f74797065223a202270616c65747465206d696e222c20227681527f616c7565223a2022000000000000000000000000000000000000000000000000602082015260008351613b1d8160288501602088016143f0565b7f227d2c207b2274726169745f74797065223a202270616c65747465206d6178226028918401918201527f2c202276616c7565223a2022000000000000000000000000000000000000000060488201528351613b808160548401602088016143f0565b61227d60f01b60549290910191820152605601949350505050565b7f7b2274726169745f74797065223a2022726f746174696f6e206d696e222c202281527f76616c7565223a20220000000000000000000000000000000000000000000000602082015260008351613bf98160298501602088016143f0565b7f227d2c207b2274726169745f74797065223a2022726f746174696f6e206d61786029918401918201526c111610113b30b63ab2911d101160991b60498201528351613c4c8160568401602088016143f0565b61227d60f01b60569290910191820152605801949350505050565b7f7267622800000000000000000000000000000000000000000000000000000000815260008451613c9f8160048501602089016143f0565b808301905061016160f51b8060048301528551613cc3816006850160208a016143f0565b60069201918201528351613cde8160088401602088016143f0565b7f29000000000000000000000000000000000000000000000000000000000000006008929091019182015260090195945050505050565b7f3c73766720786d6c6e733d27687474703a2f2f7777772e77332e6f72672f323081527f30302f737667272076696577426f783d27000000000000000000000000000000602082015260008251613d738160318501602087016143f0565b7f273e0000000000000000000000000000000000000000000000000000000000006031939091019283015250603301919050565b7f2261747472696275746573223a205b0000000000000000000000000000000000815260008551613ddf81600f850160208a016143f0565b808301905061016160f51b80600f8301528651613e03816011850160208b016143f0565b601192019182018190528551613e20816013850160208a016143f0565b60139201918201528351613e3b8160158401602088016143f0565b7f5d00000000000000000000000000000000000000000000000000000000000000601592909101918201526016019695505050505050565b7f7b2274726169745f74797065223a20227370656564206d696e222c202276616c81527f7565223a20220000000000000000000000000000000000000000000000000000602082015260008351613ed18160268501602088016143f0565b7f227d2c207b2274726169745f74797065223a20227370656564206d6178222c206026918401918201527f2276616c7565223a20220000000000000000000000000000000000000000000060468201528351613f348160508401602088016143f0565b61227d60f01b60509290910191820152605201949350505050565b7f2d00000000000000000000000000000000000000000000000000000000000000815260008551613f87816001850160208a016143f0565b7f202d0000000000000000000000000000000000000000000000000000000000006001918401918201528551613fc4816003840160208a016143f0565b808201915050600160fd1b8060038301528551613fe8816004850160208a016143f0565b600492019182015283516140038160058401602088016143f0565b016005019695505050505050565b7f646174613a746578742f706c61696e2c7b226e616d65223a2244796e6153747281527f697065732023000000000000000000000000000000000000000000000000000060208201526000855161406f816026850160208a016143f0565b7f222c20226465736372697074696f6e223a226f6e2d636861696e2c2067656e656026918401918201527f7261746976652044796e615374726970657320617274776f726b222c20000000604682015285516140d2816063840160208a016143f0565b61016160f51b6063929091019182015284516140f58160658401602089016143f0565b7f2c2022696d616765223a22646174613a696d6167652f7376672b786d6c2c00006065929091019182015283516141338160838401602088016143f0565b61227d60f01b608392909101918201526085019695505050505050565b7f7b2274726169745f74797065223a2022737472697065207769647468206d696e81526c111610113b30b63ab2911d101160991b60208201526000835161419e81602d8501602088016143f0565b7f227d2c207b2274726169745f74797065223a2022737472697065207769647468602d918401918201527f206d6178222c202276616c7565223a2022000000000000000000000000000000604d820152835161420181605e8401602088016143f0565b61227d60f01b605e9290910191820152606001949350505050565b60006001600160a01b0380871683528086166020840152508360408301526080606083015261424e6080830184613713565b9695505050505050565b6020815260006129db6020830184613713565b604051601f8201601f1916810167ffffffffffffffff81118282101715614294576142946144ac565b604052919050565b600061ffff80831681851680830382111561378157613781614480565b600082198211156142cc576142cc614480565b500190565b600063ffffffff80831681851680830382111561378157613781614480565b600060ff821660ff84168060ff0382111561430d5761430d614480565b019392505050565b600061ffff8084168061432a5761432a614496565b92169190910492915050565b60008261434557614345614496565b500490565b600061ffff8083168185168183048111821515161561436b5761436b614480565b02949350505050565b600081600019048311821515161561438e5761438e614480565b500290565b600061ffff838116908316818110156143ae576143ae614480565b039392505050565b6000828210156143c8576143c8614480565b500390565b600060ff821660ff8416808210156143e7576143e7614480565b90039392505050565b60005b8381101561440b5781810151838201526020016143f3565b838111156117ca5750506000910152565b600181811c9082168061443057607f821691505b6020821081141561296e57634e487b7160e01b600052602260045260246000fd5b600060001982141561446557614465614480565b5060010190565b60008261447b5761447b614496565b500690565b634e487b7160e01b600052601160045260246000fd5b634e487b7160e01b600052601260045260246000fd5b634e487b7160e01b600052604160045260246000fd5b6001600160e01b031981168114610d0d57600080fdfe68747470733a2f2f7777772e64796e61737472697065732e636f6d2f73746f726566726f6e742d6d65746164617461a2646970667358221220d06fc602c6152eaceee90110875c728dede47e6956eb05ed870bd55534c81e4764736f6c63430008040033",
  "linkReferences": {},
  "deployedLinkReferences": {}
}