{
  "_format": "hh-sol-artifact-1",
  "contractName": "DynaStripes",
  "sourceName": "contracts/DynaStripes.sol",
  "abi": [
    {
      "inputs": [],
      "stateMutability": "nonpayable",
      "type": "constructor"
    },
    {
      "anonymous": false,
      "inputs": [
        {
          "indexed": true,
          "internalType": "address",
          "name": "owner",
          "type": "address"
        },
        {
          "indexed": true,
          "internalType": "address",
          "name": "approved",
          "type": "address"
        },
        {
          "indexed": true,
          "internalType": "uint256",
          "name": "tokenId",
          "type": "uint256"
        }
      ],
      "name": "Approval",
      "type": "event"
    },
    {
      "anonymous": false,
      "inputs": [
        {
          "indexed": true,
          "internalType": "address",
          "name": "owner",
          "type": "address"
        },
        {
          "indexed": true,
          "internalType": "address",
          "name": "operator",
          "type": "address"
        },
        {
          "indexed": false,
          "internalType": "bool",
          "name": "approved",
          "type": "bool"
        }
      ],
      "name": "ApprovalForAll",
      "type": "event"
    },
    {
      "anonymous": false,
      "inputs": [
        {
          "indexed": true,
          "internalType": "address",
          "name": "previousOwner",
          "type": "address"
        },
        {
          "indexed": true,
          "internalType": "address",
          "name": "newOwner",
          "type": "address"
        }
      ],
      "name": "OwnershipTransferred",
      "type": "event"
    },
    {
      "anonymous": false,
      "inputs": [
        {
          "indexed": false,
          "internalType": "address",
          "name": "account",
          "type": "address"
        }
      ],
      "name": "Paused",
      "type": "event"
    },
    {
      "anonymous": false,
      "inputs": [
        {
          "indexed": true,
          "internalType": "address",
          "name": "from",
          "type": "address"
        },
        {
          "indexed": true,
          "internalType": "address",
          "name": "to",
          "type": "address"
        },
        {
          "indexed": true,
          "internalType": "uint256",
          "name": "tokenId",
          "type": "uint256"
        }
      ],
      "name": "Transfer",
      "type": "event"
    },
    {
      "anonymous": false,
      "inputs": [
        {
          "indexed": false,
          "internalType": "address",
          "name": "account",
          "type": "address"
        }
      ],
      "name": "Unpaused",
      "type": "event"
    },
    {
      "inputs": [],
      "name": "BASE_MINT_PRICE",
      "outputs": [
        {
          "internalType": "uint256",
          "name": "",
          "type": "uint256"
        }
      ],
      "stateMutability": "view",
      "type": "function"
    },
    {
      "inputs": [],
      "name": "ROYALTY_BPS",
      "outputs": [
        {
          "internalType": "uint16",
          "name": "",
          "type": "uint16"
        }
      ],
      "stateMutability": "view",
      "type": "function"
    },
    {
      "inputs": [],
      "name": "TOKEN_LIMIT",
      "outputs": [
        {
          "internalType": "uint16",
          "name": "",
          "type": "uint16"
        }
      ],
      "stateMutability": "view",
      "type": "function"
    },
    {
      "inputs": [
        {
          "internalType": "address",
          "name": "to",
          "type": "address"
        },
        {
          "internalType": "uint256",
          "name": "tokenId",
          "type": "uint256"
        }
      ],
      "name": "approve",
      "outputs": [],
      "stateMutability": "nonpayable",
      "type": "function"
    },
    {
      "inputs": [
        {
          "internalType": "address",
          "name": "owner",
          "type": "address"
        }
      ],
      "name": "balanceOf",
      "outputs": [
        {
          "internalType": "uint256",
          "name": "",
          "type": "uint256"
        }
      ],
      "stateMutability": "view",
      "type": "function"
    },
    {
      "inputs": [
        {
          "internalType": "uint256",
          "name": "tokenId",
          "type": "uint256"
        }
      ],
      "name": "burn",
      "outputs": [],
      "stateMutability": "nonpayable",
      "type": "function"
    },
    {
      "inputs": [],
      "name": "currentMintPrice",
      "outputs": [
        {
          "internalType": "uint256",
          "name": "",
          "type": "uint256"
        }
      ],
      "stateMutability": "view",
      "type": "function"
    },
    {
      "inputs": [
        {
          "internalType": "uint256",
          "name": "_tokenId",
          "type": "uint256"
        }
      ],
      "name": "generateSvg",
      "outputs": [
        {
          "internalType": "string",
          "name": "",
          "type": "string"
        }
      ],
      "stateMutability": "view",
      "type": "function"
    },
    {
      "inputs": [
        {
          "internalType": "uint256",
          "name": "tokenId",
          "type": "uint256"
        }
      ],
      "name": "getApproved",
      "outputs": [
        {
          "internalType": "address",
          "name": "",
          "type": "address"
        }
      ],
      "stateMutability": "view",
      "type": "function"
    },
    {
      "inputs": [
        {
          "internalType": "address",
          "name": "owner",
          "type": "address"
        },
        {
          "internalType": "address",
          "name": "operator",
          "type": "address"
        }
      ],
      "name": "isApprovedForAll",
      "outputs": [
        {
          "internalType": "bool",
          "name": "",
          "type": "bool"
        }
      ],
      "stateMutability": "view",
      "type": "function"
    },
    {
      "inputs": [],
      "name": "isSenderOwner",
      "outputs": [
        {
          "internalType": "bool",
          "name": "",
          "type": "bool"
        }
      ],
      "stateMutability": "view",
      "type": "function"
    },
    {
      "inputs": [
        {
          "internalType": "uint32",
          "name": "_randomSeed",
          "type": "uint32"
        },
        {
          "internalType": "uint8",
          "name": "_rotationDegreesMin",
          "type": "uint8"
        },
        {
          "internalType": "uint8",
          "name": "_rotationDegreesMax",
          "type": "uint8"
        },
        {
          "internalType": "uint8",
          "name": "_stripeWidthMin",
          "type": "uint8"
        },
        {
          "internalType": "uint8",
          "name": "_stripeWidthMax",
          "type": "uint8"
        },
        {
          "internalType": "uint8",
          "name": "_paletteMin",
          "type": "uint8"
        },
        {
          "internalType": "uint8",
          "name": "_paletteMax",
          "type": "uint8"
        },
        {
          "internalType": "uint8",
          "name": "_speedMin",
          "type": "uint8"
        },
        {
          "internalType": "uint8",
          "name": "_speedMax",
          "type": "uint8"
        }
      ],
      "name": "mintStripes",
      "outputs": [],
      "stateMutability": "payable",
      "type": "function"
    },
    {
      "inputs": [],
      "name": "name",
      "outputs": [
        {
          "internalType": "string",
          "name": "",
          "type": "string"
        }
      ],
      "stateMutability": "view",
      "type": "function"
    },
    {
      "inputs": [],
      "name": "owner",
      "outputs": [
        {
          "internalType": "address",
          "name": "",
          "type": "address"
        }
      ],
      "stateMutability": "view",
      "type": "function"
    },
    {
      "inputs": [
        {
          "internalType": "uint256",
          "name": "tokenId",
          "type": "uint256"
        }
      ],
      "name": "ownerOf",
      "outputs": [
        {
          "internalType": "address",
          "name": "",
          "type": "address"
        }
      ],
      "stateMutability": "view",
      "type": "function"
    },
    {
      "inputs": [],
      "name": "pause",
      "outputs": [],
      "stateMutability": "nonpayable",
      "type": "function"
    },
    {
      "inputs": [],
      "name": "paused",
      "outputs": [
        {
          "internalType": "bool",
          "name": "",
          "type": "bool"
        }
      ],
      "stateMutability": "view",
      "type": "function"
    },
    {
      "inputs": [],
      "name": "payOwner",
      "outputs": [],
      "stateMutability": "nonpayable",
      "type": "function"
    },
    {
      "inputs": [],
      "name": "renounceOwnership",
      "outputs": [],
      "stateMutability": "nonpayable",
      "type": "function"
    },
    {
      "inputs": [
        {
          "internalType": "uint256",
          "name": "tokenId",
          "type": "uint256"
        },
        {
          "internalType": "uint256",
          "name": "value",
          "type": "uint256"
        }
      ],
      "name": "royaltyInfo",
      "outputs": [
        {
          "internalType": "address",
          "name": "receiver",
          "type": "address"
        },
        {
          "internalType": "uint256",
          "name": "royaltyAmount",
          "type": "uint256"
        }
      ],
      "stateMutability": "view",
      "type": "function"
    },
    {
      "inputs": [
        {
          "internalType": "address",
          "name": "to",
          "type": "address"
        }
      ],
      "name": "safeMint",
      "outputs": [],
      "stateMutability": "nonpayable",
      "type": "function"
    },
    {
      "inputs": [
        {
          "internalType": "address",
          "name": "from",
          "type": "address"
        },
        {
          "internalType": "address",
          "name": "to",
          "type": "address"
        },
        {
          "internalType": "uint256",
          "name": "tokenId",
          "type": "uint256"
        }
      ],
      "name": "safeTransferFrom",
      "outputs": [],
      "stateMutability": "nonpayable",
      "type": "function"
    },
    {
      "inputs": [
        {
          "internalType": "address",
          "name": "from",
          "type": "address"
        },
        {
          "internalType": "address",
          "name": "to",
          "type": "address"
        },
        {
          "internalType": "uint256",
          "name": "tokenId",
          "type": "uint256"
        },
        {
          "internalType": "bytes",
          "name": "_data",
          "type": "bytes"
        }
      ],
      "name": "safeTransferFrom",
      "outputs": [],
      "stateMutability": "nonpayable",
      "type": "function"
    },
    {
      "inputs": [
        {
          "internalType": "address",
          "name": "operator",
          "type": "address"
        },
        {
          "internalType": "bool",
          "name": "approved",
          "type": "bool"
        }
      ],
      "name": "setApprovalForAll",
      "outputs": [],
      "stateMutability": "nonpayable",
      "type": "function"
    },
    {
      "inputs": [
        {
          "internalType": "bytes4",
          "name": "interfaceId",
          "type": "bytes4"
        }
      ],
      "name": "supportsInterface",
      "outputs": [
        {
          "internalType": "bool",
          "name": "",
          "type": "bool"
        }
      ],
      "stateMutability": "view",
      "type": "function"
    },
    {
      "inputs": [],
      "name": "symbol",
      "outputs": [
        {
          "internalType": "string",
          "name": "",
          "type": "string"
        }
      ],
      "stateMutability": "view",
      "type": "function"
    },
    {
      "inputs": [
        {
          "internalType": "uint256",
          "name": "index",
          "type": "uint256"
        }
      ],
      "name": "tokenByIndex",
      "outputs": [
        {
          "internalType": "uint256",
          "name": "",
          "type": "uint256"
        }
      ],
      "stateMutability": "view",
      "type": "function"
    },
    {
      "inputs": [
        {
          "internalType": "address",
          "name": "owner",
          "type": "address"
        },
        {
          "internalType": "uint256",
          "name": "index",
          "type": "uint256"
        }
      ],
      "name": "tokenOfOwnerByIndex",
      "outputs": [
        {
          "internalType": "uint256",
          "name": "",
          "type": "uint256"
        }
      ],
      "stateMutability": "view",
      "type": "function"
    },
    {
      "inputs": [
        {
          "internalType": "uint256",
          "name": "_tokenId",
          "type": "uint256"
        }
      ],
      "name": "tokenURI",
      "outputs": [
        {
          "internalType": "string",
          "name": "",
          "type": "string"
        }
      ],
      "stateMutability": "view",
      "type": "function"
    },
    {
      "inputs": [],
      "name": "totalSupply",
      "outputs": [
        {
          "internalType": "uint256",
          "name": "",
          "type": "uint256"
        }
      ],
      "stateMutability": "view",
      "type": "function"
    },
    {
      "inputs": [
        {
          "internalType": "address",
          "name": "from",
          "type": "address"
        },
        {
          "internalType": "address",
          "name": "to",
          "type": "address"
        },
        {
          "internalType": "uint256",
          "name": "tokenId",
          "type": "uint256"
        }
      ],
      "name": "transferFrom",
      "outputs": [],
      "stateMutability": "nonpayable",
      "type": "function"
    },
    {
      "inputs": [
        {
          "internalType": "address",
          "name": "newOwner",
          "type": "address"
        }
      ],
      "name": "transferOwnership",
      "outputs": [],
      "stateMutability": "nonpayable",
      "type": "function"
    },
    {
      "inputs": [],
      "name": "unpause",
      "outputs": [],
      "stateMutability": "nonpayable",
      "type": "function"
    },
    {
      "stateMutability": "payable",
      "type": "receive"
    }
  ],
  "bytecode": "0x60806040523480156200001157600080fd5b50604080518082018252600b81526a44796e615374726970657360a81b60208083019182528351808501909452600384526244535360e81b908401528151919291839183916200006491600091620000f4565b5080516200007a906001906020840190620000f4565b5050600a805460ff191690555062000092336200009a565b5050620001d7565b600a80546001600160a01b03838116610100818102610100600160a81b031985161790945560405193909204169182907f8be0079c531659141344cd1fd0a4f28419497f9722a3daafe3b4186f6b6457e090600090a35050565b82805462000102906200019a565b90600052602060002090601f01602090048101928262000126576000855562000171565b82601f106200014157805160ff191683800117855562000171565b8280016001018555821562000171579182015b828111156200017157825182559160200191906001019062000154565b506200017f92915062000183565b5090565b5b808211156200017f576000815560010162000184565b600181811c90821680620001af57607f821691505b60208210811415620001d157634e487b7160e01b600052602260045260246000fd5b50919050565b6134bd80620001e76000396000f3fe6080604052600436106102025760003560e01c806342966c681161011d5780638456cb59116100b0578063b88d4fde1161007f578063c87b56dd11610064578063c87b56dd146105cc578063e985e9c5146105ec578063f2fde38b1461063557600080fd5b8063b88d4fde1461058c578063bc921dc2146105ac57600080fd5b80638456cb591461051f5780638da5cb5b1461053457806395d89b4114610557578063a22cb4651461056c57600080fd5b80635c975abb116100ec5780635c975abb146104b25780636352211e146104ca57806370a08231146104ea578063715018a61461050a57600080fd5b806342966c6814610437578063479fe5441461045757806349c657db1461047c5780634f6ccce71461049257600080fd5b806318160ddd116101955780633335a2b8116101645780633335a2b8146103cd5780633f4ba83a146103e257806340d097c3146103f757806342842e0e1461041757600080fd5b806318160ddd1461033957806323b872dd1461034e5780632a55205a1461036e5780632f745c59146103ad57600080fd5b806306fdde03116101d157806306fdde03146102aa578063081812fc146102cc578063095ea7b3146103045780630ed9ec061461032657600080fd5b806301ffc9a71461020e578063031bd4c414610243578063054ee7891461026c5780630561942a1461029557600080fd5b3661020957005b600080fd5b34801561021a57600080fd5b5061022e610229366004612bea565b610655565b60405190151581526020015b60405180910390f35b34801561024f57600080fd5b5061025961138881565b60405161ffff909116815260200161023a565b34801561027857600080fd5b50610287662386f26fc1000081565b60405190815260200161023a565b3480156102a157600080fd5b50610287610666565b3480156102b657600080fd5b506102bf6106a5565b60405161023a9190613255565b3480156102d857600080fd5b506102ec6102e7366004612c22565b610737565b6040516001600160a01b03909116815260200161023a565b34801561031057600080fd5b5061032461031f366004612bc1565b6107d1565b005b610324610334366004612c5b565b610903565b34801561034557600080fd5b50600854610287565b34801561035a57600080fd5b50610324610369366004612a77565b610d77565b34801561037a57600080fd5b5061038e610389366004612c3a565b610dff565b604080516001600160a01b03909316835260208301919091520161023a565b3480156103b957600080fd5b506102876103c8366004612bc1565b610e58565b3480156103d957600080fd5b50610324610f00565b3480156103ee57600080fd5b50610324610fb0565b34801561040357600080fd5b50610324610412366004612a2b565b61101a565b34801561042357600080fd5b50610324610432366004612a77565b61109d565b34801561044357600080fd5b50610324610452366004612c22565b6110b8565b34801561046357600080fd5b50600a5461010090046001600160a01b0316331461022e565b34801561048857600080fd5b506102596103e881565b34801561049e57600080fd5b506102876104ad366004612c22565b61113c565b3480156104be57600080fd5b50600a5460ff1661022e565b3480156104d657600080fd5b506102ec6104e5366004612c22565b6111ee565b3480156104f657600080fd5b50610287610505366004612a2b565b611279565b34801561051657600080fd5b50610324611313565b34801561052b57600080fd5b5061032461137d565b34801561054057600080fd5b50600a5461010090046001600160a01b03166102ec565b34801561056357600080fd5b506102bf6113e5565b34801561057857600080fd5b50610324610587366004612b87565b6113f4565b34801561059857600080fd5b506103246105a7366004612ab2565b6114b9565b3480156105b857600080fd5b506102bf6105c7366004612c22565b611547565b3480156105d857600080fd5b506102bf6105e7366004612c22565b611857565b3480156105f857600080fd5b5061022e610607366004612a45565b6001600160a01b03918216600090815260056020908152604080832093909416825291909152205460ff1690565b34801561064157600080fd5b50610324610650366004612a2b565b611898565b60006106608261197d565b92915050565b6000662386f26fc10000606461067b60085490565b61068591906132c2565b61068f9190613300565b6106a090662386f26fc10000613285565b905090565b6060600080546106b490613385565b80601f01602080910402602001604051908101604052809291908181526020018280546106e090613385565b801561072d5780601f106107025761010080835404028352916020019161072d565b820191906000526020600020905b81548152906001019060200180831161071057829003601f168201915b5050505050905090565b6000818152600260205260408120546001600160a01b03166107b55760405162461bcd60e51b815260206004820152602c60248201527f4552433732313a20617070726f76656420717565727920666f72206e6f6e657860448201526b34b9ba32b73a103a37b5b2b760a11b60648201526084015b60405180910390fd5b506000908152600460205260409020546001600160a01b031690565b60006107dc826111ee565b9050806001600160a01b0316836001600160a01b031614156108665760405162461bcd60e51b815260206004820152602160248201527f4552433732313a20617070726f76616c20746f2063757272656e74206f776e6560448201527f720000000000000000000000000000000000000000000000000000000000000060648201526084016107ac565b336001600160a01b038216148061088257506108828133610607565b6108f45760405162461bcd60e51b815260206004820152603860248201527f4552433732313a20617070726f76652063616c6c6572206973206e6f74206f7760448201527f6e6572206e6f7220617070726f76656420666f7220616c6c000000000000000060648201526084016107ac565b6108fe83836119bb565b505050565b600061090e600b5490565b905061138881106109615760405162461bcd60e51b815260206004820152601260248201527f416c6c20746f6b656e73206d696e7465642e000000000000000000000000000060448201526064016107ac565b610969610666565b3410156109b85760405162461bcd60e51b815260206004820152601160248201527f4e6f7420656e6f7567682065746865722e00000000000000000000000000000060448201526064016107ac565b60b48860ff16111580156109d257508760ff168960ff1611155b610a445760405162461bcd60e51b815260206004820152602360248201527f526f746174696f6e206d757374206265206265747765656e203020616e64203160448201527f38302e000000000000000000000000000000000000000000000000000000000060648201526084016107ac565b60ff8660ff1611158015610a5e57508560ff168760ff1611155b610aba5760405162461bcd60e51b815260206004820152602760248201527f537472697065207769647468206d757374206265206265747765656e20302061604482015266373210191a9a9760c91b60648201526084016107ac565b60ff8460ff1611158015610ad457508360ff168560ff1611155b610b465760405162461bcd60e51b815260206004820152602860248201527f50616c657474652076616c7565206d757374206265206265747765656e20302060448201527f616e64203235352e00000000000000000000000000000000000000000000000060648201526084016107ac565b60148360ff1610158015610b5e575060ff8260ff1611155b8015610b7057508160ff168360ff1611155b610bcc5760405162461bcd60e51b815260206004820152602760248201527f53706565642076616c7565206d757374206265206265747765656e2032302061604482015266373210191a9a9760c91b60648201526084016107ac565b610bd63382611a29565b610be381336103e8611a43565b604080516101208101825263ffffffff9b8c16815260ff9a8b1660208083019182529a8c16828401908152998c1660608301908152988c1660808301908152978c1660a08301908152968c1660c08301908152958c1660e08301908152948c1661010083019081526000948552600d909b529190922091518254915198519751965195519451935199519b1664ffffffffff1990911617640100000000978a16979097029690961766ffff00000000001916650100000000009589169590950266ff0000000000001916949094176601000000000000938816939093029290921768ffff0000000000000019166701000000000000009187169190910268ff00000000000000001916176801000000000000000091861691909102176affff00000000000000000019166901000000000000000000918516919091026aff000000000000000000001916176a010000000000000000000092841692909202919091176bff000000000000000000000019166b0100000000000000000000009390921692909202179055600b80546001019055565b610d82335b82611add565b610df45760405162461bcd60e51b815260206004820152603160248201527f4552433732313a207472616e736665722063616c6c6572206973206e6f74206f60448201527f776e6572206e6f7220617070726f76656400000000000000000000000000000060648201526084016107ac565b6108fe838383611bd4565b6000828152600c60209081526040808320815180830190925280546001600160a01b0316808352600190910154928201839052839261271090610e429087613300565b610e4c91906132c2565b92509250509250929050565b6000610e6383611279565b8210610ed75760405162461bcd60e51b815260206004820152602b60248201527f455243373231456e756d657261626c653a206f776e657220696e646578206f7560448201527f74206f6620626f756e647300000000000000000000000000000000000000000060648201526084016107ac565b506001600160a01b03919091166000908152600660209081526040808320938352929052205490565b600a546001600160a01b03610100909104163314610f605760405162461bcd60e51b815260206004820181905260248201527f4f776e61626c653a2063616c6c6572206973206e6f7420746865206f776e657260448201526064016107ac565b600a5460009061010090046001600160a01b03166040519091506001600160a01b038216904780156108fc02916000818181858888f19350505050158015610fac573d6000803e3d6000fd5b5050565b600a546001600160a01b036101009091041633146110105760405162461bcd60e51b815260206004820181905260248201527f4f776e61626c653a2063616c6c6572206973206e6f7420746865206f776e657260448201526064016107ac565b611018611dac565b565b600a546001600160a01b0361010090910416331461107a5760405162461bcd60e51b815260206004820181905260248201527f4f776e61626c653a2063616c6c6572206973206e6f7420746865206f776e657260448201526064016107ac565b61108c81611087600b5490565b611a29565b61109a600b80546001019055565b50565b6108fe838383604051806020016040528060008152506114b9565b6110c133610d7c565b6111335760405162461bcd60e51b815260206004820152603060248201527f4552433732314275726e61626c653a2063616c6c6572206973206e6f74206f7760448201527f6e6572206e6f7220617070726f7665640000000000000000000000000000000060648201526084016107ac565b61109a81611e48565b600061114760085490565b82106111bb5760405162461bcd60e51b815260206004820152602c60248201527f455243373231456e756d657261626c653a20676c6f62616c20696e646578206f60448201527f7574206f6620626f756e6473000000000000000000000000000000000000000060648201526084016107ac565b600882815481106111dc57634e487b7160e01b600052603260045260246000fd5b90600052602060002001549050919050565b6000818152600260205260408120546001600160a01b0316806106605760405162461bcd60e51b815260206004820152602960248201527f4552433732313a206f776e657220717565727920666f72206e6f6e657869737460448201527f656e7420746f6b656e000000000000000000000000000000000000000000000060648201526084016107ac565b60006001600160a01b0382166112f75760405162461bcd60e51b815260206004820152602a60248201527f4552433732313a2062616c616e636520717565727920666f7220746865207a6560448201527f726f20616464726573730000000000000000000000000000000000000000000060648201526084016107ac565b506001600160a01b031660009081526003602052604090205490565b600a546001600160a01b036101009091041633146113735760405162461bcd60e51b815260206004820181905260248201527f4f776e61626c653a2063616c6c6572206973206e6f7420746865206f776e657260448201526064016107ac565b6110186000611eef565b600a546001600160a01b036101009091041633146113dd5760405162461bcd60e51b815260206004820181905260248201527f4f776e61626c653a2063616c6c6572206973206e6f7420746865206f776e657260448201526064016107ac565b611018611f60565b6060600180546106b490613385565b6001600160a01b03821633141561144d5760405162461bcd60e51b815260206004820152601960248201527f4552433732313a20617070726f766520746f2063616c6c65720000000000000060448201526064016107ac565b3360008181526005602090815260408083206001600160a01b03871680855290835292819020805460ff191686151590811790915590519081529192917f17307eab39ab6107e8899845ad3d59bd9653f200f220920489ca2b5937696c31910160405180910390a35050565b6114c33383611add565b6115355760405162461bcd60e51b815260206004820152603160248201527f4552433732313a207472616e736665722063616c6c6572206973206e6f74206f60448201527f776e6572206e6f7220617070726f76656400000000000000000000000000000060648201526084016107ac565b61154184848484611fe8565b50505050565b6060611552600b5490565b82106115ec5760405162461bcd60e51b815260206004820152604160248201527f417474656d7074656420746f2067656e65726174652053564720666f7220746f60448201527f6b656e207468617420686173206e6f7420796574206265656e206d696e74656460648201527f2e00000000000000000000000000000000000000000000000000000000000000608482015260a4016107ac565b6000828152600d60209081526040808320815161012081018352905463ffffffff811680835260ff6401000000008304811684870152650100000000008304811684860152660100000000000083048116606080860191909152670100000000000000840482166080860152680100000000000000008404821660a086015269010000000000000000008404821660c08601526a01000000000000000000008404821660e08601526b01000000000000000000000090930416610100840152835191820184528382529194936107d0938592916134489083013990505b60006116d5858561331f565b61ffff16111561182b5760006116fa83876060015160ff16886080015160ff16612066565b611705906032613268565b905061ffff8116611716868661331f565b61ffff16101561172d5761172a858561331f565b90505b600061174884886020015160ff16896040015160ff16612066565b90506000611766858960e0015160ff168a610100015160ff16612066565b61177190600a6132d6565b905060006117828861ffff166120ab565b61178f8561ffff166120ab565b61179c8561ffff166120ab565b6117a98561ffff166120ab565b6117bc8a8e60a001518f60c00151612224565b6040516020016117d0959493929190612e43565b604051602081830303815290604052905084816040516020016117f4929190612d54565b60408051601f1981840301815291905294506118108489613268565b975061182061ffff891687613285565b9550505050506116c9565b8060405160200161183c9190612e02565b60408051601f19818403018152919052979650505050505050565b6060600061186483611547565b905061186f836120ab565b81604051602001611881929190613122565b604051602081830303815290604052915050919050565b600a546001600160a01b036101009091041633146118f85760405162461bcd60e51b815260206004820181905260248201527f4f776e61626c653a2063616c6c6572206973206e6f7420746865206f776e657260448201526064016107ac565b6001600160a01b0381166119745760405162461bcd60e51b815260206004820152602660248201527f4f776e61626c653a206e6577206f776e657220697320746865207a65726f206160448201527f646472657373000000000000000000000000000000000000000000000000000060648201526084016107ac565b61109a81611eef565b60006001600160e01b031982167f2a55205a00000000000000000000000000000000000000000000000000000000148061066057506106608261227d565b600081815260046020526040902080546001600160a01b0319166001600160a01b03841690811790915581906119f0826111ee565b6001600160a01b03167f8c5be1e5ebec7d5bd14f71427d1e84f3dd0314c0f7b2291e5b200ac8c7c3b92560405160405180910390a45050565b610fac828260405180602001604052806000815250612288565b612710811115611a955760405162461bcd60e51b815260206004820152601a60248201527f45524332393831526f79616c746965733a20546f6f206869676800000000000060448201526064016107ac565b6040805180820182526001600160a01b03938416815260208082019384526000958652600c90529320925183546001600160a01b031916921691909117825551600190910155565b6000818152600260205260408120546001600160a01b0316611b565760405162461bcd60e51b815260206004820152602c60248201527f4552433732313a206f70657261746f7220717565727920666f72206e6f6e657860448201526b34b9ba32b73a103a37b5b2b760a11b60648201526084016107ac565b6000611b61836111ee565b9050806001600160a01b0316846001600160a01b03161480611b9c5750836001600160a01b0316611b9184610737565b6001600160a01b0316145b80611bcc57506001600160a01b0380821660009081526005602090815260408083209388168352929052205460ff165b949350505050565b826001600160a01b0316611be7826111ee565b6001600160a01b031614611c635760405162461bcd60e51b815260206004820152602960248201527f4552433732313a207472616e73666572206f6620746f6b656e2074686174206960448201527f73206e6f74206f776e000000000000000000000000000000000000000000000060648201526084016107ac565b6001600160a01b038216611cde5760405162461bcd60e51b8152602060048201526024808201527f4552433732313a207472616e7366657220746f20746865207a65726f2061646460448201527f726573730000000000000000000000000000000000000000000000000000000060648201526084016107ac565b611ce9838383612306565b611cf46000826119bb565b6001600160a01b0383166000908152600360205260408120805460019290611d1d908490613342565b90915550506001600160a01b0382166000908152600360205260408120805460019290611d4b908490613285565b909155505060008181526002602052604080822080546001600160a01b0319166001600160a01b0386811691821790925591518493918716917fddf252ad1be2c89b69c2b068fc378daa952ba7f163c4a11628f55a4df523b3ef91a4505050565b600a5460ff16611dfe5760405162461bcd60e51b815260206004820152601460248201527f5061757361626c653a206e6f742070617573656400000000000000000000000060448201526064016107ac565b600a805460ff191690557f5db9ee0a495bf2e6ff9c91a7834c1ba4fdd244a5e8aa4e537bd38aeae4b073aa335b6040516001600160a01b03909116815260200160405180910390a1565b6000611e53826111ee565b9050611e6181600084612306565b611e6c6000836119bb565b6001600160a01b0381166000908152600360205260408120805460019290611e95908490613342565b909155505060008281526002602052604080822080546001600160a01b0319169055518391906001600160a01b038416907fddf252ad1be2c89b69c2b068fc378daa952ba7f163c4a11628f55a4df523b3ef908390a45050565b600a80546001600160a01b038381166101008181027fffffffffffffffffffffff0000000000000000000000000000000000000000ff85161790945560405193909204169182907f8be0079c531659141344cd1fd0a4f28419497f9722a3daafe3b4186f6b6457e090600090a35050565b600a5460ff1615611fb35760405162461bcd60e51b815260206004820152601060248201527f5061757361626c653a207061757365640000000000000000000000000000000060448201526064016107ac565b600a805460ff191660011790557f62e78cea01bee320cd4e420270b5ea74000d11b0c9f74754ebdbfc544b05a258611e2b3390565b611ff3848484611bd4565b611fff84848484612364565b6115415760405162461bcd60e51b815260206004820152603260248201527f4552433732313a207472616e7366657220746f206e6f6e20455243373231526560448201527131b2b4bb32b91034b6b83632b6b2b73a32b960711b60648201526084016107ac565b60008261ffff168261ffff161161207e5750816120a4565b82612089818461331f565b6120979061ffff16866133db565b6120a19190613268565b90505b9392505050565b6060816120eb57505060408051808201909152600181527f3000000000000000000000000000000000000000000000000000000000000000602082015290565b8160005b811561211557806120ff816133c0565b915061210e9050600a836132c2565b91506120ef565b60008167ffffffffffffffff81111561213e57634e487b7160e01b600052604160045260246000fd5b6040519080825280601f01601f191660200182016040528015612168576020820181803683370190505b509050815b851561221b5761217e600182613342565b9050600061218d600a886132c2565b61219890600a613300565b6121a29088613342565b6121ad90603061329d565b905060008160f81b9050808484815181106121d857634e487b7160e01b600052603260045260246000fd5b60200101907effffffffffffffffffffffffffffffffffffffffffffffffffffffffffffff1916908160001a905350612212600a896132c2565b9750505061216d565b50949350505050565b606060006122338585856124bc565b9050600061224c612245876002613300565b86866124bc565b905081818360405160200161226393929190612d83565b604051602081830303815290604052925050509392505050565b600061066082612565565b61229283836125a3565b61229f6000848484612364565b6108fe5760405162461bcd60e51b815260206004820152603260248201527f4552433732313a207472616e7366657220746f206e6f6e20455243373231526560448201527131b2b4bb32b91034b6b83632b6b2b73a32b960711b60648201526084016107ac565b600a5460ff16156123595760405162461bcd60e51b815260206004820152601060248201527f5061757361626c653a207061757365640000000000000000000000000000000060448201526064016107ac565b6108fe8383836126f1565b60006001600160a01b0384163b156124b157604051630a85bd0160e11b81526001600160a01b0385169063150b7a02906123a8903390899088908890600401613219565b602060405180830381600087803b1580156123c257600080fd5b505af19250505080156123f2575060408051601f3d908101601f191682019092526123ef91810190612c06565b60015b612497573d808015612420576040519150601f19603f3d011682016040523d82523d6000602084013e612425565b606091505b50805161248f5760405162461bcd60e51b815260206004820152603260248201527f4552433732313a207472616e7366657220746f206e6f6e20455243373231526560448201527131b2b4bb32b91034b6b83632b6b2b73a32b960711b60648201526084016107ac565b805181602001fd5b6001600160e01b031916630a85bd0160e11b149050611bcc565b506001949350505050565b606060006124d1858560ff168560ff16612066565b61ffff16905060006124f46124e7876002613300565b8660ff168660ff16612066565b61ffff169050600061251761250a886003613300565b8760ff168760ff16612066565b61ffff169050612526836120ab565b61252f836120ab565b612538836120ab565b60405160200161254a93929190613059565b60405160208183030381529060405293505050509392505050565b60006001600160e01b031982167f780e9d630000000000000000000000000000000000000000000000000000000014806106605750610660826127a9565b6001600160a01b0382166125f95760405162461bcd60e51b815260206004820181905260248201527f4552433732313a206d696e7420746f20746865207a65726f206164647265737360448201526064016107ac565b6000818152600260205260409020546001600160a01b03161561265e5760405162461bcd60e51b815260206004820152601c60248201527f4552433732313a20746f6b656e20616c7265616479206d696e7465640000000060448201526064016107ac565b61266a60008383612306565b6001600160a01b0382166000908152600360205260408120805460019290612693908490613285565b909155505060008181526002602052604080822080546001600160a01b0319166001600160a01b03861690811790915590518392907fddf252ad1be2c89b69c2b068fc378daa952ba7f163c4a11628f55a4df523b3ef908290a45050565b6001600160a01b03831661274c5761274781600880546000838152600960205260408120829055600182018355919091527ff3f7a9fe364faab93b216da50a3214154f22a0a2b415b23a84c8169e8b636ee30155565b61276f565b816001600160a01b0316836001600160a01b03161461276f5761276f8382612844565b6001600160a01b038216612786576108fe816128e1565b826001600160a01b0316826001600160a01b0316146108fe576108fe82826129ba565b60006001600160e01b031982167f80ac58cd00000000000000000000000000000000000000000000000000000000148061280c57506001600160e01b031982167f5b5e139f00000000000000000000000000000000000000000000000000000000145b8061066057507f01ffc9a7000000000000000000000000000000000000000000000000000000006001600160e01b0319831614610660565b6000600161285184611279565b61285b9190613342565b6000838152600760205260409020549091508082146128ae576001600160a01b03841660009081526006602090815260408083208584528252808320548484528184208190558352600790915290208190555b5060009182526007602090815260408084208490556001600160a01b039094168352600681528383209183525290812055565b6008546000906128f390600190613342565b6000838152600960205260408120546008805493945090928490811061292957634e487b7160e01b600052603260045260246000fd5b90600052602060002001549050806008838154811061295857634e487b7160e01b600052603260045260246000fd5b600091825260208083209091019290925582815260099091526040808220849055858252812055600880548061299e57634e487b7160e01b600052603160045260246000fd5b6001900381819060005260206000200160009055905550505050565b60006129c583611279565b6001600160a01b039093166000908152600660209081526040808320868452825280832085905593825260079052919091209190915550565b80356001600160a01b0381168114612a1557600080fd5b919050565b803560ff81168114612a1557600080fd5b600060208284031215612a3c578081fd5b6120a4826129fe565b60008060408385031215612a57578081fd5b612a60836129fe565b9150612a6e602084016129fe565b90509250929050565b600080600060608486031215612a8b578081fd5b612a94846129fe565b9250612aa2602085016129fe565b9150604084013590509250925092565b60008060008060808587031215612ac7578081fd5b612ad0856129fe565b9350612ade602086016129fe565b925060408501359150606085013567ffffffffffffffff80821115612b01578283fd5b818701915087601f830112612b14578283fd5b813581811115612b2657612b2661341b565b604051601f8201601f19908116603f01168101908382118183101715612b4e57612b4e61341b565b816040528281528a6020848701011115612b66578586fd5b82602086016020830137918201602001949094529598949750929550505050565b60008060408385031215612b99578182fd5b612ba2836129fe565b915060208301358015158114612bb6578182fd5b809150509250929050565b60008060408385031215612bd3578182fd5b612bdc836129fe565b946020939093013593505050565b600060208284031215612bfb578081fd5b81356120a481613431565b600060208284031215612c17578081fd5b81516120a481613431565b600060208284031215612c33578081fd5b5035919050565b60008060408385031215612c4c578182fd5b50508035926020909101359150565b60008060008060008060008060006101208a8c031215612c79578485fd5b893563ffffffff81168114612c8c578586fd5b9850612c9a60208b01612a1a565b9750612ca860408b01612a1a565b9650612cb660608b01612a1a565b9550612cc460808b01612a1a565b9450612cd260a08b01612a1a565b9350612ce060c08b01612a1a565b9250612cee60e08b01612a1a565b9150612cfd6101008b01612a1a565b90509295985092959850929598565b60008151808452612d24816020860160208601613359565b601f01601f19169290920160200192915050565b60008151612d4a818560208601613359565b9290920192915050565b60008351612d66818460208801613359565b835190830190612d7a818360208801613359565b01949350505050565b60008451612d95818460208901613359565b80830190507f3b000000000000000000000000000000000000000000000000000000000000008082528551612dd1816001850160208a01613359565b600192019182018190528451612dee816002850160208901613359565b600292019182015260030195945050505050565b60008251612e14818460208701613359565b7f3c2f7376673e0000000000000000000000000000000000000000000000000000920191825250600601919050565b7f3c7265637420783d270000000000000000000000000000000000000000000000815260008651612e7b816009850160208b01613359565b7f2720793d2730272077696474683d2700000000000000000000000000000000006009918401918201528651612eb8816018840160208b01613359565b7f27206865696768743d2732303030272073686170652d72656e646572696e673d601892909101918201527f27637269737045646765732720206f7061636974793d27302e3827000000000060388201527f207472616e73666f726d3d27726f74617465280000000000000000000000000060538201528551612f42816066840160208a01613359565b7f2031303030203130303029273e3c616e696d61746520626567696e3d20273073606692909101918201527f27206475723d2700000000000000000000000000000000000000000000000000608682015261304d612ffe612ff8612fa9608d850189612d38565b7f6d7327206174747269627574654e616d653d2766696c6c272076616c7565733d81527f2700000000000000000000000000000000000000000000000000000000000000602082015260210190565b86612d38565b7f272066696c6c3d27667265657a652720726570656174436f756e743d27696e6481527f6566696e697465272f3e3c2f726563743e000000000000000000000000000000602082015260310190565b98975050505050505050565b7f7267622800000000000000000000000000000000000000000000000000000000815260008451613091816004850160208901613359565b80830190507f2c2000000000000000000000000000000000000000000000000000000000000080600483015285516130d0816006850160208a01613359565b600692019182015283516130eb816008840160208801613359565b7f29000000000000000000000000000000000000000000000000000000000000006008929091019182015260090195945050505050565b7f7b226e616d65223a2244796e615374726970657320230000000000000000000081526000835161315a816016850160208801613359565b7f222c20226465736372697074696f6e223a2244796e61537472697065732061726016918401918201527f74776f726b222c2022696d616765223a22646174613a696d6167652f7376672b60368201527f786d6c2c00000000000000000000000000000000000000000000000000000000605682015283516131e381605a840160208801613359565b7f227d000000000000000000000000000000000000000000000000000000000000605a9290910191820152605c01949350505050565b60006001600160a01b0380871683528086166020840152508360408301526080606083015261324b6080830184612d0c565b9695505050505050565b6020815260006120a46020830184612d0c565b600061ffff808316818516808303821115612d7a57612d7a6133ef565b60008219821115613298576132986133ef565b500190565b600060ff821660ff84168060ff038211156132ba576132ba6133ef565b019392505050565b6000826132d1576132d1613405565b500490565b600061ffff808316818516818304811182151516156132f7576132f76133ef565b02949350505050565b600081600019048311821515161561331a5761331a6133ef565b500290565b600061ffff8381169083168181101561333a5761333a6133ef565b039392505050565b600082821015613354576133546133ef565b500390565b60005b8381101561337457818101518382015260200161335c565b838111156115415750506000910152565b600181811c9082168061339957607f821691505b602082108114156133ba57634e487b7160e01b600052602260045260246000fd5b50919050565b60006000198214156133d4576133d46133ef565b5060010190565b6000826133ea576133ea613405565b500690565b634e487b7160e01b600052601160045260246000fd5b634e487b7160e01b600052601260045260246000fd5b634e487b7160e01b600052604160045260246000fd5b6001600160e01b03198116811461109a57600080fdfe3c73766720786d6c6e733d27687474703a2f2f7777772e77332e6f72672f323030302f737667272076696577426f783d2730203020323030302032303030273ea2646970667358221220d955b8cd48e75003034fffb502d5319d2d7913aec6e72fe7a70ac78c4439bc8e64736f6c63430008040033",
  "linkReferences": {},
  "deployedLinkReferences": {}
}