{
  "_format": "hh-sol-artifact-1",
  "contractName": "DynaStripes",
  "sourceName": "contracts/DynaStripes.sol",
  "abi": [
    {
      "inputs": [],
      "stateMutability": "nonpayable",
      "type": "constructor"
    },
    {
      "anonymous": false,
      "inputs": [
        {
          "indexed": true,
          "internalType": "address",
          "name": "owner",
          "type": "address"
        },
        {
          "indexed": true,
          "internalType": "address",
          "name": "approved",
          "type": "address"
        },
        {
          "indexed": true,
          "internalType": "uint256",
          "name": "tokenId",
          "type": "uint256"
        }
      ],
      "name": "Approval",
      "type": "event"
    },
    {
      "anonymous": false,
      "inputs": [
        {
          "indexed": true,
          "internalType": "address",
          "name": "owner",
          "type": "address"
        },
        {
          "indexed": true,
          "internalType": "address",
          "name": "operator",
          "type": "address"
        },
        {
          "indexed": false,
          "internalType": "bool",
          "name": "approved",
          "type": "bool"
        }
      ],
      "name": "ApprovalForAll",
      "type": "event"
    },
    {
      "anonymous": false,
      "inputs": [
        {
          "indexed": true,
          "internalType": "address",
          "name": "previousOwner",
          "type": "address"
        },
        {
          "indexed": true,
          "internalType": "address",
          "name": "newOwner",
          "type": "address"
        }
      ],
      "name": "OwnershipTransferred",
      "type": "event"
    },
    {
      "anonymous": false,
      "inputs": [
        {
          "indexed": false,
          "internalType": "address",
          "name": "account",
          "type": "address"
        }
      ],
      "name": "Paused",
      "type": "event"
    },
    {
      "anonymous": false,
      "inputs": [
        {
          "indexed": true,
          "internalType": "address",
          "name": "from",
          "type": "address"
        },
        {
          "indexed": true,
          "internalType": "address",
          "name": "to",
          "type": "address"
        },
        {
          "indexed": true,
          "internalType": "uint256",
          "name": "tokenId",
          "type": "uint256"
        }
      ],
      "name": "Transfer",
      "type": "event"
    },
    {
      "anonymous": false,
      "inputs": [
        {
          "indexed": false,
          "internalType": "address",
          "name": "account",
          "type": "address"
        }
      ],
      "name": "Unpaused",
      "type": "event"
    },
    {
      "inputs": [],
      "name": "ROYALTY_BPS",
      "outputs": [
        {
          "internalType": "uint16",
          "name": "",
          "type": "uint16"
        }
      ],
      "stateMutability": "view",
      "type": "function"
    },
    {
      "inputs": [],
      "name": "TOKEN_LIMIT",
      "outputs": [
        {
          "internalType": "uint16",
          "name": "",
          "type": "uint16"
        }
      ],
      "stateMutability": "view",
      "type": "function"
    },
    {
      "inputs": [
        {
          "internalType": "address",
          "name": "to",
          "type": "address"
        },
        {
          "internalType": "uint256",
          "name": "tokenId",
          "type": "uint256"
        }
      ],
      "name": "approve",
      "outputs": [],
      "stateMutability": "nonpayable",
      "type": "function"
    },
    {
      "inputs": [
        {
          "internalType": "address",
          "name": "owner",
          "type": "address"
        }
      ],
      "name": "balanceOf",
      "outputs": [
        {
          "internalType": "uint256",
          "name": "",
          "type": "uint256"
        }
      ],
      "stateMutability": "view",
      "type": "function"
    },
    {
      "inputs": [
        {
          "internalType": "uint24[]",
          "name": "seeds",
          "type": "uint24[]"
        }
      ],
      "name": "banRandomSeeds",
      "outputs": [],
      "stateMutability": "nonpayable",
      "type": "function"
    },
    {
      "inputs": [
        {
          "internalType": "uint256",
          "name": "tokenId",
          "type": "uint256"
        }
      ],
      "name": "burn",
      "outputs": [],
      "stateMutability": "nonpayable",
      "type": "function"
    },
    {
      "inputs": [],
      "name": "contractURI",
      "outputs": [
        {
          "internalType": "string",
          "name": "",
          "type": "string"
        }
      ],
      "stateMutability": "pure",
      "type": "function"
    },
    {
      "inputs": [
        {
          "internalType": "uint256",
          "name": "_tokenId",
          "type": "uint256"
        }
      ],
      "name": "generateSvg",
      "outputs": [
        {
          "internalType": "string",
          "name": "",
          "type": "string"
        }
      ],
      "stateMutability": "view",
      "type": "function"
    },
    {
      "inputs": [
        {
          "internalType": "uint256",
          "name": "tokenId",
          "type": "uint256"
        }
      ],
      "name": "getApproved",
      "outputs": [
        {
          "internalType": "address",
          "name": "",
          "type": "address"
        }
      ],
      "stateMutability": "view",
      "type": "function"
    },
    {
      "inputs": [],
      "name": "getDescTraitsEnabled",
      "outputs": [
        {
          "internalType": "bool",
          "name": "",
          "type": "bool"
        }
      ],
      "stateMutability": "view",
      "type": "function"
    },
    {
      "inputs": [],
      "name": "getMintPrice",
      "outputs": [
        {
          "internalType": "uint256",
          "name": "",
          "type": "uint256"
        }
      ],
      "stateMutability": "view",
      "type": "function"
    },
    {
      "inputs": [],
      "name": "getTokenLimit",
      "outputs": [
        {
          "internalType": "uint16",
          "name": "",
          "type": "uint16"
        }
      ],
      "stateMutability": "view",
      "type": "function"
    },
    {
      "inputs": [
        {
          "internalType": "address",
          "name": "owner",
          "type": "address"
        },
        {
          "internalType": "address",
          "name": "operator",
          "type": "address"
        }
      ],
      "name": "isApprovedForAll",
      "outputs": [
        {
          "internalType": "bool",
          "name": "",
          "type": "bool"
        }
      ],
      "stateMutability": "view",
      "type": "function"
    },
    {
      "inputs": [
        {
          "internalType": "uint24",
          "name": "_randomSeed",
          "type": "uint24"
        },
        {
          "internalType": "uint8",
          "name": "_zoom",
          "type": "uint8"
        },
        {
          "internalType": "uint8",
          "name": "_tintRed",
          "type": "uint8"
        },
        {
          "internalType": "uint8",
          "name": "_tintGreen",
          "type": "uint8"
        },
        {
          "internalType": "uint8",
          "name": "_tintBlue",
          "type": "uint8"
        },
        {
          "internalType": "uint8",
          "name": "_tintAlpha",
          "type": "uint8"
        },
        {
          "internalType": "uint8",
          "name": "_rotationMin",
          "type": "uint8"
        },
        {
          "internalType": "uint8",
          "name": "_rotationMax",
          "type": "uint8"
        },
        {
          "internalType": "uint8",
          "name": "_stripeWidthMin",
          "type": "uint8"
        },
        {
          "internalType": "uint8",
          "name": "_stripeWidthMax",
          "type": "uint8"
        },
        {
          "internalType": "uint8",
          "name": "_speedMin",
          "type": "uint8"
        },
        {
          "internalType": "uint8",
          "name": "_speedMax",
          "type": "uint8"
        }
      ],
      "name": "mintStripes",
      "outputs": [],
      "stateMutability": "payable",
      "type": "function"
    },
    {
      "inputs": [],
      "name": "name",
      "outputs": [
        {
          "internalType": "string",
          "name": "",
          "type": "string"
        }
      ],
      "stateMutability": "view",
      "type": "function"
    },
    {
      "inputs": [],
      "name": "owner",
      "outputs": [
        {
          "internalType": "address",
          "name": "",
          "type": "address"
        }
      ],
      "stateMutability": "view",
      "type": "function"
    },
    {
      "inputs": [
        {
          "internalType": "uint256",
          "name": "tokenId",
          "type": "uint256"
        }
      ],
      "name": "ownerOf",
      "outputs": [
        {
          "internalType": "address",
          "name": "",
          "type": "address"
        }
      ],
      "stateMutability": "view",
      "type": "function"
    },
    {
      "inputs": [],
      "name": "pause",
      "outputs": [],
      "stateMutability": "nonpayable",
      "type": "function"
    },
    {
      "inputs": [],
      "name": "paused",
      "outputs": [
        {
          "internalType": "bool",
          "name": "",
          "type": "bool"
        }
      ],
      "stateMutability": "view",
      "type": "function"
    },
    {
      "inputs": [
        {
          "internalType": "uint256",
          "name": "amount",
          "type": "uint256"
        }
      ],
      "name": "payOwner",
      "outputs": [],
      "stateMutability": "nonpayable",
      "type": "function"
    },
    {
      "inputs": [],
      "name": "renounceOwnership",
      "outputs": [],
      "stateMutability": "nonpayable",
      "type": "function"
    },
    {
      "inputs": [
        {
          "internalType": "uint256",
          "name": "tokenId",
          "type": "uint256"
        },
        {
          "internalType": "uint256",
          "name": "value",
          "type": "uint256"
        }
      ],
      "name": "royaltyInfo",
      "outputs": [
        {
          "internalType": "address",
          "name": "receiver",
          "type": "address"
        },
        {
          "internalType": "uint256",
          "name": "royaltyAmount",
          "type": "uint256"
        }
      ],
      "stateMutability": "view",
      "type": "function"
    },
    {
      "inputs": [
        {
          "internalType": "address",
          "name": "to",
          "type": "address"
        }
      ],
      "name": "safeMint",
      "outputs": [],
      "stateMutability": "nonpayable",
      "type": "function"
    },
    {
      "inputs": [
        {
          "internalType": "address",
          "name": "from",
          "type": "address"
        },
        {
          "internalType": "address",
          "name": "to",
          "type": "address"
        },
        {
          "internalType": "uint256",
          "name": "tokenId",
          "type": "uint256"
        }
      ],
      "name": "safeTransferFrom",
      "outputs": [],
      "stateMutability": "nonpayable",
      "type": "function"
    },
    {
      "inputs": [
        {
          "internalType": "address",
          "name": "from",
          "type": "address"
        },
        {
          "internalType": "address",
          "name": "to",
          "type": "address"
        },
        {
          "internalType": "uint256",
          "name": "tokenId",
          "type": "uint256"
        },
        {
          "internalType": "bytes",
          "name": "_data",
          "type": "bytes"
        }
      ],
      "name": "safeTransferFrom",
      "outputs": [],
      "stateMutability": "nonpayable",
      "type": "function"
    },
    {
      "inputs": [
        {
          "internalType": "address",
          "name": "operator",
          "type": "address"
        },
        {
          "internalType": "bool",
          "name": "approved",
          "type": "bool"
        }
      ],
      "name": "setApprovalForAll",
      "outputs": [],
      "stateMutability": "nonpayable",
      "type": "function"
    },
    {
      "inputs": [
        {
          "internalType": "bool",
          "name": "_enabled",
          "type": "bool"
        }
      ],
      "name": "setDescTraitsEnabled",
      "outputs": [],
      "stateMutability": "nonpayable",
      "type": "function"
    },
    {
      "inputs": [
        {
          "internalType": "uint256",
          "name": "_mintPrice",
          "type": "uint256"
        }
      ],
      "name": "setMintPrice",
      "outputs": [],
      "stateMutability": "nonpayable",
      "type": "function"
    },
    {
      "inputs": [
        {
          "internalType": "uint16",
          "name": "_tokenLimit",
          "type": "uint16"
        }
      ],
      "name": "setTokenLimit",
      "outputs": [],
      "stateMutability": "nonpayable",
      "type": "function"
    },
    {
      "inputs": [
        {
          "internalType": "bytes4",
          "name": "interfaceId",
          "type": "bytes4"
        }
      ],
      "name": "supportsInterface",
      "outputs": [
        {
          "internalType": "bool",
          "name": "",
          "type": "bool"
        }
      ],
      "stateMutability": "view",
      "type": "function"
    },
    {
      "inputs": [],
      "name": "symbol",
      "outputs": [
        {
          "internalType": "string",
          "name": "",
          "type": "string"
        }
      ],
      "stateMutability": "view",
      "type": "function"
    },
    {
      "inputs": [
        {
          "internalType": "uint256",
          "name": "index",
          "type": "uint256"
        }
      ],
      "name": "tokenByIndex",
      "outputs": [
        {
          "internalType": "uint256",
          "name": "",
          "type": "uint256"
        }
      ],
      "stateMutability": "view",
      "type": "function"
    },
    {
      "inputs": [
        {
          "internalType": "address",
          "name": "owner",
          "type": "address"
        },
        {
          "internalType": "uint256",
          "name": "index",
          "type": "uint256"
        }
      ],
      "name": "tokenOfOwnerByIndex",
      "outputs": [
        {
          "internalType": "uint256",
          "name": "",
          "type": "uint256"
        }
      ],
      "stateMutability": "view",
      "type": "function"
    },
    {
      "inputs": [
        {
          "internalType": "uint256",
          "name": "_tokenId",
          "type": "uint256"
        }
      ],
      "name": "tokenURI",
      "outputs": [
        {
          "internalType": "string",
          "name": "",
          "type": "string"
        }
      ],
      "stateMutability": "view",
      "type": "function"
    },
    {
      "inputs": [],
      "name": "totalSupply",
      "outputs": [
        {
          "internalType": "uint256",
          "name": "",
          "type": "uint256"
        }
      ],
      "stateMutability": "view",
      "type": "function"
    },
    {
      "inputs": [
        {
          "internalType": "address",
          "name": "from",
          "type": "address"
        },
        {
          "internalType": "address",
          "name": "to",
          "type": "address"
        },
        {
          "internalType": "uint256",
          "name": "tokenId",
          "type": "uint256"
        }
      ],
      "name": "transferFrom",
      "outputs": [],
      "stateMutability": "nonpayable",
      "type": "function"
    },
    {
      "inputs": [
        {
          "internalType": "address",
          "name": "newOwner",
          "type": "address"
        }
      ],
      "name": "transferOwnership",
      "outputs": [],
      "stateMutability": "nonpayable",
      "type": "function"
    },
    {
      "inputs": [],
      "name": "unpause",
      "outputs": [],
      "stateMutability": "nonpayable",
      "type": "function"
    },
    {
      "stateMutability": "payable",
      "type": "receive"
    }
  ],
  "bytecode": "0x6080604052600d805462ffffff1916620103e8179055662386f26fc100006010553480156200002d57600080fd5b50604080518082018252600b81526a44796e615374726970657360a81b60208083019182528351808501909452600384526244535360e81b90840152815191929183918391620000809160009162000110565b5080516200009690600190602084019062000110565b5050600a805460ff1916905550620000ae33620000b6565b5050620001f3565b600a80546001600160a01b03838116610100818102610100600160a81b031985161790945560405193909204169182907f8be0079c531659141344cd1fd0a4f28419497f9722a3daafe3b4186f6b6457e090600090a35050565b8280546200011e90620001b6565b90600052602060002090601f0160209004810192826200014257600085556200018d565b82601f106200015d57805160ff19168380011785556200018d565b828001600101855582156200018d579182015b828111156200018d57825182559160200191906001019062000170565b506200019b9291506200019f565b5090565b5b808211156200019b5760008155600101620001a0565b600181811c90821680620001cb57607f821691505b60208210811415620001ed57634e487b7160e01b600052602260045260246000fd5b50919050565b615df180620002036000396000f3fe6080604052600436106102295760003560e01c80635c975abb1161012357806395d89b41116100ab578063c87b56dd1161006f578063c87b56dd14610651578063e8a3d48514610671578063e985e9c514610686578063f2fde38b146106cf578063f4a0a528146106ef57600080fd5b806395d89b41146105c7578063a22cb465146105dc578063a7f93ebd146105fc578063b88d4fde14610611578063bc921dc21461063157600080fd5b806377c39a89116100f257806377c39a89146105315780638331be3214610551578063842d9b6a146105715780638456cb591461058f5780638da5cb5b146105a457600080fd5b80635c975abb146104c45780636352211e146104dc57806370a08231146104fc578063715018a61461051c57600080fd5b806323b872dd116101b157806340d097c31161017557806340d097c31461042e57806342842e0e1461044e57806342966c681461046e57806349c657db1461048e5780634f6ccce7146104a457600080fd5b806323b872dd1461038157806328485586146103a15780632a55205a146103ba5780632f745c59146103f95780633f4ba83a1461041957600080fd5b806308d78c3c116101f857806308d78c3c146102ed578063095ea7b31461030f57806318160ddd1461032f5780631cbf0c071461034e5780631d6fdd0c1461036e57600080fd5b806301ffc9a714610235578063031bd4c41461026a57806306fdde0314610293578063081812fc146102b557600080fd5b3661023057005b600080fd5b34801561024157600080fd5b50610255610250366004614b23565b61070f565b60405190151581526020015b60405180910390f35b34801561027657600080fd5b5061028061271081565b60405161ffff9091168152602001610261565b34801561029f57600080fd5b506102a8610720565b6040516102619190615aff565b3480156102c157600080fd5b506102d56102d0366004614c58565b6107b2565b6040516001600160a01b039091168152602001610261565b3480156102f957600080fd5b5061030d610308366004614c58565b61084c565b005b34801561031b57600080fd5b5061030d61032a366004614a31565b61092f565b34801561033b57600080fd5b506008545b604051908152602001610261565b34801561035a57600080fd5b5061030d610369366004614b09565b610a40565b61030d61037c366004614b7d565b610aaa565b34801561038d57600080fd5b5061030d61039c366004614915565b611154565b3480156103ad57600080fd5b50600d5461ffff16610280565b3480156103c657600080fd5b506103da6103d5366004614c70565b6111d0565b604080516001600160a01b039093168352602083019190915201610261565b34801561040557600080fd5b50610340610414366004614a31565b611229565b34801561042557600080fd5b5061030d6112bf565b34801561043a57600080fd5b5061030d6104493660046148c9565b611317565b34801561045a57600080fd5b5061030d610469366004614915565b611388565b34801561047a57600080fd5b5061030d610489366004614c58565b6113a3565b34801561049a57600080fd5b506102806103e881565b3480156104b057600080fd5b506103406104bf366004614c58565b611427565b3480156104d057600080fd5b50600a5460ff16610255565b3480156104e857600080fd5b506102d56104f7366004614c58565b6114c8565b34801561050857600080fd5b506103406105173660046148c9565b61153f565b34801561052857600080fd5b5061030d6115c6565b34801561053d57600080fd5b5061030d61054c366004614b5b565b61161e565b34801561055d57600080fd5b5061030d61056c366004614a5a565b611697565b34801561057d57600080fd5b50600d5462010000900460ff16610255565b34801561059b57600080fd5b5061030d61175b565b3480156105b057600080fd5b50600a5461010090046001600160a01b03166102d5565b3480156105d357600080fd5b506102a86117b1565b3480156105e857600080fd5b5061030d6105f7366004614a08565b6117c0565b34801561060857600080fd5b50601054610340565b34801561061d57600080fd5b5061030d61062c366004614950565b611885565b34801561063d57600080fd5b506102a861064c366004614c58565b611907565b34801561065d57600080fd5b506102a861066c366004614c58565b611b48565b34801561067d57600080fd5b506102a8611dd9565b34801561069257600080fd5b506102556106a13660046148e3565b6001600160a01b03918216600090815260056020908152604080832093909416825291909152205460ff1690565b3480156106db57600080fd5b5061030d6106ea3660046148c9565b611df9565b3480156106fb57600080fd5b5061030d61070a366004614c58565b611eb5565b600061071a82611f08565b92915050565b60606000805461072f90615c88565b80601f016020809104026020016040519081016040528092919081815260200182805461075b90615c88565b80156107a85780601f1061077d576101008083540402835291602001916107a8565b820191906000526020600020905b81548152906001019060200180831161078b57829003601f168201915b5050505050905090565b6000818152600260205260408120546001600160a01b03166108305760405162461bcd60e51b815260206004820152602c60248201527f4552433732313a20617070726f76656420717565727920666f72206e6f6e657860448201526b34b9ba32b73a103a37b5b2b760a11b60648201526084015b60405180910390fd5b506000908152600460205260409020546001600160a01b031690565b600a546001600160a01b0361010090910416331461089a5760405162461bcd60e51b81526020600482018190526024820152600080516020615d9c8339815191526044820152606401610827565b478111156108ea5760405162461bcd60e51b815260206004820152600f60248201527f416d6f756e7420746f6f206869676800000000000000000000000000000000006044820152606401610827565b600a546040516101009091046001600160a01b031690819083156108fc029084906000818181858888f1935050505015801561092a573d6000803e3d6000fd5b505050565b600061093a826114c8565b9050806001600160a01b0316836001600160a01b031614156109a85760405162461bcd60e51b815260206004820152602160248201527f4552433732313a20617070726f76616c20746f2063757272656e74206f776e656044820152603960f91b6064820152608401610827565b336001600160a01b03821614806109c457506109c481336106a1565b610a365760405162461bcd60e51b815260206004820152603860248201527f4552433732313a20617070726f76652063616c6c6572206973206e6f74206f7760448201527f6e6572206e6f7220617070726f76656420666f7220616c6c00000000000000006064820152608401610827565b61092a8383611f2d565b600a546001600160a01b03610100909104163314610a8e5760405162461bcd60e51b81526020600482018190526024820152600080516020615d9c8339815191526044820152606401610827565b600d8054911515620100000262ff000019909216919091179055565b6000610ab5600b5490565b600d5490915061ffff1681108015610ace575061271081105b610b1a5760405162461bcd60e51b815260206004820152601360248201527f546f6b656e206c696d69742072656163686564000000000000000000000000006044820152606401610827565b601054341015610b6c5760405162461bcd60e51b815260206004820152601060248201527f4e6f7420656e6f756768206574686572000000000000000000000000000000006044820152606401610827565b60648c60ff161115610baf5760405162461bcd60e51b815260206004820152600c60248201526b169bdbdb481a5b9d985b1a5960a21b6044820152606401610827565b60ff8b60ff161115610c035760405162461bcd60e51b815260206004820152601060248201527f74696e742072656420696e76616c6964000000000000000000000000000000006044820152606401610827565b60ff8a60ff161115610c575760405162461bcd60e51b815260206004820152601260248201527f74696e7420677265656e20696e76616c696400000000000000000000000000006044820152606401610827565b60ff8960ff161115610cab5760405162461bcd60e51b815260206004820152601160248201527f74696e7420626c756520696e76616c69640000000000000000000000000000006044820152606401610827565b60e68860ff1610610cfe5760405162461bcd60e51b815260206004820152601260248201527f74696e7420616c70686120696e76616c696400000000000000000000000000006044820152606401610827565b60b48660ff1611158015610d1857508560ff168760ff1611155b610d645760405162461bcd60e51b815260206004820152601060248201527f526f746174696f6e20696e76616c6964000000000000000000000000000000006044820152606401610827565b60198560ff1610158015610d7c575060fa8460ff1611155b8015610d8e57508360ff168560ff1611155b610dda5760405162461bcd60e51b815260206004820152601460248201527f53747269706520776964746820696e76616c69640000000000000000000000006044820152606401610827565b60198360ff1610158015610df2575060fa8260ff1611155b8015610e0457508160ff168360ff1611155b610e505760405162461bcd60e51b815260206004820152601360248201527f53706565642076616c756520696e76616c6964000000000000000000000000006044820152606401610827565b624c4b408d62ffffff16108015610e7c575062ffffff8d166000908152600e602052604090205460ff16155b610ec85760405162461bcd60e51b815260206004820152601360248201527f52616e646f6d207365656420696e76616c6964000000000000000000000000006044820152606401610827565b610ed23382611f9b565b610edf81336103e8611fb5565b6040518061018001604052808e62ffffff1681526020018d60ff1681526020018c60ff1681526020018b60ff1681526020018a60ff1681526020018960ff1681526020018860ff1681526020018760ff1681526020018660ff1681526020018560ff1681526020018460ff1681526020018360ff16815250600f600083815260200190815260200160002060008201518160000160006101000a81548162ffffff021916908362ffffff16021790555060208201518160000160036101000a81548160ff021916908360ff16021790555060408201518160000160046101000a81548160ff021916908360ff16021790555060608201518160000160056101000a81548160ff021916908360ff16021790555060808201518160000160066101000a81548160ff021916908360ff16021790555060a08201518160000160076101000a81548160ff021916908360ff16021790555060c08201518160000160086101000a81548160ff021916908360ff16021790555060e08201518160000160096101000a81548160ff021916908360ff16021790555061010082015181600001600a6101000a81548160ff021916908360ff16021790555061012082015181600001600b6101000a81548160ff021916908360ff16021790555061014082015181600001600c6101000a81548160ff021916908360ff16021790555061016082015181600001600d6101000a81548160ff021916908360ff1602179055509050506001600e60008f62ffffff1662ffffff16815260200190815260200160002060006101000a81548160ff021916908315150217905550611145600b80546001019055565b50505050505050505050505050565b61115f335b8261204f565b6111c55760405162461bcd60e51b815260206004820152603160248201527f4552433732313a207472616e736665722063616c6c6572206973206e6f74206f6044820152701ddb995c881b9bdc88185c1c1c9bdd9959607a1b6064820152608401610827565b61092a838383612146565b6000828152600c60209081526040808320815180830190925280546001600160a01b03168083526001909101549282018390528392612710906112139087615be0565b61121d9190615ba2565b92509250509250929050565b60006112348361153f565b82106112965760405162461bcd60e51b815260206004820152602b60248201527f455243373231456e756d657261626c653a206f776e657220696e646578206f7560448201526a74206f6620626f756e647360a81b6064820152608401610827565b506001600160a01b03919091166000908152600660209081526040808320938352929052205490565b600a546001600160a01b0361010090910416331461130d5760405162461bcd60e51b81526020600482018190526024820152600080516020615d9c8339815191526044820152606401610827565b6113156122f1565b565b600a546001600160a01b036101009091041633146113655760405162461bcd60e51b81526020600482018190526024820152600080516020615d9c8339815191526044820152606401610827565b61137781611372600b5490565b611f9b565b611385600b80546001019055565b50565b61092a83838360405180602001604052806000815250611885565b6113ac33611159565b61141e5760405162461bcd60e51b815260206004820152603060248201527f4552433732314275726e61626c653a2063616c6c6572206973206e6f74206f7760448201527f6e6572206e6f7220617070726f766564000000000000000000000000000000006064820152608401610827565b6113858161238d565b600061143260085490565b82106114955760405162461bcd60e51b815260206004820152602c60248201527f455243373231456e756d657261626c653a20676c6f62616c20696e646578206f60448201526b7574206f6620626f756e647360a01b6064820152608401610827565b600882815481106114b657634e487b7160e01b600052603260045260246000fd5b90600052602060002001549050919050565b6000818152600260205260408120546001600160a01b03168061071a5760405162461bcd60e51b815260206004820152602960248201527f4552433732313a206f776e657220717565727920666f72206e6f6e657869737460448201526832b73a103a37b5b2b760b91b6064820152608401610827565b60006001600160a01b0382166115aa5760405162461bcd60e51b815260206004820152602a60248201527f4552433732313a2062616c616e636520717565727920666f7220746865207a65604482015269726f206164647265737360b01b6064820152608401610827565b506001600160a01b031660009081526003602052604090205490565b600a546001600160a01b036101009091041633146116145760405162461bcd60e51b81526020600482018190526024820152600080516020615d9c8339815191526044820152606401610827565b6113156000612434565b600a546001600160a01b0361010090910416331461166c5760405162461bcd60e51b81526020600482018190526024820152600080516020615d9c8339815191526044820152606401610827565b61271061ffff8216111561167f57506127105b600d805461ffff191661ffff92909216919091179055565b600a546001600160a01b036101009091041633146116e55760405162461bcd60e51b81526020600482018190526024820152600080516020615d9c8339815191526044820152606401610827565b60005b8151811015611757576001600e600084848151811061171757634e487b7160e01b600052603260045260246000fd5b60209081029190910181015162ffffff168252810191909152604001600020805460ff19169115159190911790558061174f81615cc3565b9150506116e8565b5050565b600a546001600160a01b036101009091041633146117a95760405162461bcd60e51b81526020600482018190526024820152600080516020615d9c8339815191526044820152606401610827565b61131561249b565b60606001805461072f90615c88565b6001600160a01b0382163314156118195760405162461bcd60e51b815260206004820152601960248201527f4552433732313a20617070726f766520746f2063616c6c6572000000000000006044820152606401610827565b3360008181526005602090815260408083206001600160a01b03871680855290835292819020805460ff191686151590811790915590519081529192917f17307eab39ab6107e8899845ad3d59bd9653f200f220920489ca2b5937696c31910160405180910390a35050565b61188f338361204f565b6118f55760405162461bcd60e51b815260206004820152603160248201527f4552433732313a207472616e736665722063616c6c6572206973206e6f74206f6044820152701ddb995c881b9bdc88185c1c1c9bdd9959607a1b6064820152608401610827565b61190184848484612516565b50505050565b6060611912600b5490565b82106119905760405162461bcd60e51b815260206004820152604160248201527f417474656d7074656420746f2067656e65726174652053564720666f7220746f60448201527f6b656e207468617420686173206e6f7420796574206265656e206d696e7465646064820152601760f91b608482015260a401610827565b6000828152600f60209081526040808320815161018081018352905462ffffff8116825260ff63010000008204811694830185905264010000000082048116938301939093526501000000000081048316606083015266010000000000008104831660808301526701000000000000008104831660a0830152680100000000000000008104831660c083015269010000000000000000008104831660e08301526a010000000000000000000081048316610100830152600160581b81048316610120830152600160601b81048316610140830152600160681b900490911661016082015291908190611a8190612594565b9150915060008360e0015160ff168460c0015160ff1614611abe57604051806040016040528060048152602001636175746f60e01b815250611ae2565b6040518060400160405280600a8152602001696372697370456467657360b01b8152505b9050600082604051602001611af79190615a48565b60405160208183030381529060405290506000611b13866126c9565b905084838383604051602001611b2c9493929190615246565b6040516020818303038152906040529650505050505050919050565b60606000604051602001611c89907f22636f70797269676874223a2022546865206f776e6572206f6620746869732081527f4e465420697320697473206c6567616c20636f7079726967687420686f6c646560208201527f722e2042792073656c6c696e672074686973204e46542c207468652073656c6c60408201527f65722f6f776e65722061677265657320746f2061737369676e20636f7079726960608201527f67687420746f207468652062757965722e20416c6c2062757965727320616e6460808201527f2073656c6c65727320616772656520746f207061796d656e74206f6620726f7960a08201527f616c7469657320746f20746865206f726967696e616c206d696e746572206f6e60c08201527f2073616c65206f662074686520617274776f726b2e220000000000000000000060e082015260f60190565b60408051808303601f19018152600d546000878152600f6020908152848220610180870186525462ffffff8116875260ff6301000000820481169288019290925264010000000081048216958701959095526501000000000085048116606087015266010000000000008504811660808701526701000000000000008504811660a0870152680100000000000000008504811660c087015269010000000000000000008504811660e08701526a010000000000000000000085048116610100870152600160581b85048116610120870152600160601b85048116610140870152600160681b90940484166101608601529194509092611d9292620100009092049091169061286c565b90506000611d9f85611907565b9050611daa85612a7b565b838383604051602001611dc09493929190615854565b6040516020818303038152906040529350505050919050565b60606040518060600160405280602f8152602001615d6d602f9139905090565b600a546001600160a01b03610100909104163314611e475760405162461bcd60e51b81526020600482018190526024820152600080516020615d9c8339815191526044820152606401610827565b6001600160a01b038116611eac5760405162461bcd60e51b815260206004820152602660248201527f4f776e61626c653a206e6577206f776e657220697320746865207a65726f206160448201526564647265737360d01b6064820152608401610827565b61138581612434565b600a546001600160a01b03610100909104163314611f035760405162461bcd60e51b81526020600482018190526024820152600080516020615d9c8339815191526044820152606401610827565b601055565b60006001600160e01b0319821663152a902d60e11b148061071a575061071a82612b74565b600081815260046020526040902080546001600160a01b0319166001600160a01b0384169081179091558190611f62826114c8565b6001600160a01b03167f8c5be1e5ebec7d5bd14f71427d1e84f3dd0314c0f7b2291e5b200ac8c7c3b92560405160405180910390a45050565b611757828260405180602001604052806000815250612b7f565b6127108111156120075760405162461bcd60e51b815260206004820152601a60248201527f45524332393831526f79616c746965733a20546f6f20686967680000000000006044820152606401610827565b6040805180820182526001600160a01b03938416815260208082019384526000958652600c90529320925183546001600160a01b031916921691909117825551600190910155565b6000818152600260205260408120546001600160a01b03166120c85760405162461bcd60e51b815260206004820152602c60248201527f4552433732313a206f70657261746f7220717565727920666f72206e6f6e657860448201526b34b9ba32b73a103a37b5b2b760a11b6064820152608401610827565b60006120d3836114c8565b9050806001600160a01b0316846001600160a01b0316148061210e5750836001600160a01b0316612103846107b2565b6001600160a01b0316145b8061213e57506001600160a01b0380821660009081526005602090815260408083209388168352929052205460ff165b949350505050565b826001600160a01b0316612159826114c8565b6001600160a01b0316146121c15760405162461bcd60e51b815260206004820152602960248201527f4552433732313a207472616e73666572206f6620746f6b656e2074686174206960448201526839903737ba1037bbb760b91b6064820152608401610827565b6001600160a01b0382166122235760405162461bcd60e51b8152602060048201526024808201527f4552433732313a207472616e7366657220746f20746865207a65726f206164646044820152637265737360e01b6064820152608401610827565b61222e838383612bfd565b612239600082611f2d565b6001600160a01b0383166000908152600360205260408120805460019290612262908490615c22565b90915550506001600160a01b0382166000908152600360205260408120805460019290612290908490615b69565b909155505060008181526002602052604080822080546001600160a01b0319166001600160a01b0386811691821790925591518493918716917fddf252ad1be2c89b69c2b068fc378daa952ba7f163c4a11628f55a4df523b3ef91a4505050565b600a5460ff166123435760405162461bcd60e51b815260206004820152601460248201527f5061757361626c653a206e6f74207061757365640000000000000000000000006044820152606401610827565b600a805460ff191690557f5db9ee0a495bf2e6ff9c91a7834c1ba4fdd244a5e8aa4e537bd38aeae4b073aa335b6040516001600160a01b03909116815260200160405180910390a1565b6000612398826114c8565b90506123a681600084612bfd565b6123b1600083611f2d565b6001600160a01b03811660009081526003602052604081208054600192906123da908490615c22565b909155505060008281526002602052604080822080546001600160a01b0319169055518391906001600160a01b038416907fddf252ad1be2c89b69c2b068fc378daa952ba7f163c4a11628f55a4df523b3ef908390a45050565b600a80546001600160a01b0383811661010081810274ffffffffffffffffffffffffffffffffffffffff001985161790945560405193909204169182907f8be0079c531659141344cd1fd0a4f28419497f9722a3daafe3b4186f6b6457e090600090a35050565b600a5460ff16156124e15760405162461bcd60e51b815260206004820152601060248201526f14185d5cd8589b194e881c185d5cd95960821b6044820152606401610827565b600a805460ff191660011790557f62e78cea01bee320cd4e420270b5ea74000d11b0c9f74754ebdbfc544b05a2586123703390565b612521848484612146565b61252d84848484612c4e565b6119015760405162461bcd60e51b815260206004820152603260248201527f4552433732313a207472616e7366657220746f206e6f6e20455243373231526560448201527131b2b4bb32b91034b6b83632b6b2b73a32b960711b6064820152608401610827565b6060806125a2836014615bb6565b925060006125be6125b5856103e8615b43565b61ffff16612a7b565b90506103e88461ffff16111561264e5760006125eb60026125e16103e888615bff565b6125b59190615b81565b905060008182848560405160200161260694939291906157c9565b6040516020818303038152906040529050600082838586604051602001612630949392919061505f565b60408051601f19818403018152919052919791965090945050505050565b60006126848561ffff166103e81461267d57600261266e876103e8615bff565b6126789190615b81565b6125b5565b6000612a7b565b905060008182848560405160200161269f9493929190614f0b565b60405160208183030381529060405290506000828385866040516020016126309493929190615663565b80516040805160208101909152600080825260609262ffffff16915b60006126f3836107d0615c22565b111561213e5760006127168487610100015160ff1688610120015160ff16612da6565b612721906002615be0565b905061272f836107d0615c22565b81111561274957612742836107d0615c22565b9050612793565b61010086015160ff168161275f856107d0615c22565b6127699190615c22565b1015612793578061277c846107d0615c22565b6127869190615c22565b6127909082615b69565b90505b60006127a96127a3866003615b69565b88612e0f565b90506000816127c26127bc88600d615b69565b8a612e0f565b836040516020016127d593929190614f83565b6040516020818303038152906040529050836127f086612a7b565b6127f985612a7b565b8461280e6128088b6001615b69565b8d612ede565b61282261281c8c6002615b69565b8e612f06565b866040516020016128399796959493929190614d15565b60408051601f1981840301815291905293506128558386615b69565b9450612862606487615b69565b95505050506126e5565b60606000612880836020015160ff16612f3b565b6040516020016128909190615367565b604051602081830303815290604052905060006128b3846040015160ff16612f3b565b6128c3856060015160ff16612f3b565b6128d3866080015160ff16612f3b565b6128e38760a0015160ff16612f3b565b6040516020016128f69493929190614f0b565b604051602081830303815290604052905060008160405160200161291a91906153c2565b6040516020818303038152906040529050600061293d8660c0015160ff16612f3b565b61294d8760e0015160ff16612f3b565b60405160200161295e929190615115565b6040516020818303038152906040529050600061298287610100015160ff16612f3b565b61299388610120015160ff16612f3b565b6040516020016129a492919061597c565b604051602081830303815290604052905060006129c888610140015160ff16612f3b565b6129d989610160015160ff16612f3b565b6040516020016129ea929190615717565b60405160208183030381529060405290508815612a46576000612a0c89613175565b9050808786868686604051602001612a29969594939291906154c7565b60405160208183030381529060405297505050505050505061071a565b8584848484604051602001612a5f9594939291906155a3565b604051602081830303815290604052965050505050505061071a565b606081612a9f5750506040805180820190915260018152600360fc1b602082015290565b8160005b8115612ab757600101600a82049150612aa3565b60008167ffffffffffffffff811115612ae057634e487b7160e01b600052604160045260246000fd5b6040519080825280601f01601f191660200182016040528015612b0a576020820181803683370190505b508593509050815b8315612b6b57600a840660300160f81b82826001900392508281518110612b4957634e487b7160e01b600052603260045260246000fd5b60200101906001600160f81b031916908160001a905350600a84049350612b12565b50949350505050565b600061071a82614403565b612b898383614428565b612b966000848484612c4e565b61092a5760405162461bcd60e51b815260206004820152603260248201527f4552433732313a207472616e7366657220746f206e6f6e20455243373231526560448201527131b2b4bb32b91034b6b83632b6b2b73a32b960711b6064820152608401610827565b600a5460ff1615612c435760405162461bcd60e51b815260206004820152601060248201526f14185d5cd8589b194e881c185d5cd95960821b6044820152606401610827565b61092a838383614576565b60006001600160a01b0384163b15612d9b57604051630a85bd0160e11b81526001600160a01b0385169063150b7a0290612c92903390899088908890600401615ac3565b602060405180830381600087803b158015612cac57600080fd5b505af1925050508015612cdc575060408051601f3d908101601f19168201909252612cd991810190614b3f565b60015b612d81573d808015612d0a576040519150601f19603f3d011682016040523d82523d6000602084013e612d0f565b606091505b508051612d795760405162461bcd60e51b815260206004820152603260248201527f4552433732313a207472616e7366657220746f206e6f6e20455243373231526560448201527131b2b4bb32b91034b6b83632b6b2b73a32b960711b6064820152608401610827565b805181602001fd5b6001600160e01b031916630a85bd0160e11b14905061213e565b506001949350505050565b6000828211612db6575081612e08565b600084604051602001612dcb91815260200190565b60408051601f198184030181529190528051602090910120905083612df08185615c22565b612dfa9083615cde565b612e049190615b69565b9150505b9392505050565b60606000612e38612e2385600060ff612da6565b846040015160ff168560a0015160ff1661462e565b90506000612e6b612e56612e4d876001615b69565b600060ff612da6565b856060015160ff168660a0015160ff1661462e565b90506000612e95612e80612e4d886002615b69565b866080015160ff168760a0015160ff1661462e565b9050612ea083612f3b565b612ea983612f3b565b612eb283612f3b565b604051602001612ec4939291906151cd565b604051602081830303815290604052935050505092915050565b60606000612efb848460c0015160ff168560e0015160ff16612da6565b905061213e81612f3b565b60606000612f258484610140015160ff1685610160015160ff16612da6565b612f30906014615be0565b905061213e81612a7b565b60606101008210612f7d5760405162461bcd60e51b815260206004820152600c60248201526b696e70757420746f2062696760a01b6044820152606401610827565b81612f9f5750506040805180820190915260018152600360fc1b602082015290565b6060600a8310156130115760408051600180825281830190925290602082018180368337019050509050600a835b0660300160f81b81600081518110612ff557634e487b7160e01b600052603260045260246000fd5b60200101906001600160f81b031916908160001a90535061071a565b60648310156130855760408051600280825281830190925290602082018180368337019050509050600a830660300160f81b8160018151811061306457634e487b7160e01b600052603260045260246000fd5b60200101906001600160f81b031916908160001a905350600a808404612fcd565b60408051600380825281830190925290602082018180368337019050509050600a830660300160f81b816002815181106130cf57634e487b7160e01b600052603260045260246000fd5b60200101906001600160f81b031916908160001a905350600a8084040660300160f81b8160018151811061311357634e487b7160e01b600052603260045260246000fd5b60200101906001600160f81b031916908160001a905350600a606484040660300160f81b8160008151811061315857634e487b7160e01b600052603260045260246000fd5b60200101906001600160f81b031916908160001a90535092915050565b6060808260e0015160ff168360c0015160ff1614156133ad576032836020015160ff161180156131b65750605a8360e001516131b19190615cf2565b60ff16155b156131f5575060408051808201909152600e81527f70657266656374207371756172650000000000000000000000000000000000006020820152613b6a565b8260e0015160ff16602d148061321257508260e0015160ff166087145b80156132255750605b836020015160ff16115b15613264575060408051808201909152600f81527f70657266656374206469616d6f6e6400000000000000000000000000000000006020820152613b6a565b6032836020015160ff161115801561328357508260e0015160ff16605a145b156132c2575060408051808201909152601281527f686f72697a6f6e74616c207374726970657300000000000000000000000000006020820152613b6a565b6032836020015160ff16111580156132eb575060b48360e001516132e69190615cf2565b60ff16155b1561332a575060408051808201909152601081527f766572746963616c2073747269706573000000000000000000000000000000006020820152613b6a565b6019836020015160ff1611613373575060408051808201909152601081527f646961676f6e616c2073747269706573000000000000000000000000000000006020820152613b6a565b5060408051808201909152600e81527f726f7461746564207371756172650000000000000000000000000000000000006020820152613b6a565b601e8360c001518460e001516133c39190615c39565b60ff161080156133db575060c883610100015160ff16115b80156133ee57506014836020015160ff16105b1561342d575060408051808201909152600f81527f62696720666174207374726970657300000000000000000000000000000000006020820152613b6a565b603c83610120015160ff1610801561345b5750601e8360c001518460e001516134569190615c39565b60ff16105b15613489575060408051808201909152600c81526b6d6174636820737469636b7360a01b6020820152613b6a565b603c83610120015160ff161080156134b7575060828360c001518460e001516134b29190615c39565b60ff16115b80156134ca5750601e836020015160ff16115b156134f6575060408051808201909152600a815269189a5c991cc81b995cdd60b21b6020820152613b6a565b603c83610120015160ff16108015613524575060828360c001518460e0015161351f9190615c39565b60ff16115b80156135375750601e836020015160ff16105b15613564575060408051808201909152600b81526a6c61736572206265616d7360a81b6020820152613b6a565b603c836020015160ff16118015613583575060b483610100015160ff16115b80156135a55750601e8360c001518460e001516135a09190615c39565b60ff16105b80156135c7575060058360c001518460e001516135c29190615c39565b60ff16115b80156135eb575060a08360c0015160ff1611806135eb5750601e8360e0015160ff16105b1561362a575060408051808201909152600f81527f636c7574746572656420626f6f6b7300000000000000000000000000000000006020820152613b6a565b60b483610100015160ff161180156136595750601e8360c001518460e001516136539190615c39565b60ff1611155b801561366c5750604b8360c0015160ff16115b801561367f575060698360e0015160ff16105b156136ae575060408051808201909152600d81526c737461636b656420626f6f6b7360981b6020820152613b6a565b603283610100015160ff161180156136ce5750609683610120015160ff16105b80156136f0575060328360c001518460e001516136eb9190615c39565b60ff16105b8015613703575060238360c0015160ff16115b8015613716575060918360e0015160ff16105b801561372957506037836020015160ff16115b15613758575060408051808201909152600d81526c313937b5b2b7103630b23232b960991b6020820152613b6a565b60c883610100015160ff1611801561377757506046836020015160ff16115b156137a6575060408051808201909152600d81526c6769616e742070696c6c61727360981b6020820152613b6a565b604683610100015160ff161180156137c557506014836020015160ff16105b80156137e75750602d8360c001518460e001516137e29190615c39565b60ff16105b80156138095750600f8360c001518460e001516138049190615c39565b60ff16115b156138325750604080518082019091526007815266726962626f6e7360c81b6020820152613b6a565b604b83610120015160ff1610801561385157506014836020015160ff16105b80156138735750602d8360c001518460e0015161386e9190615c39565b60ff16105b80156138955750600f8360c001518460e001516138909190615c39565b60ff16115b156138c0575060408051808201909152600981526873747265616d65727360b81b6020820152613b6a565b601983610100015160ff161180156138e0575060c883610120015160ff16105b80156139025750600f8360c001518460e001516138fd9190615c39565b60ff16105b1561392b57506040805180820190915260078152666a69747465727960c81b6020820152613b6a565b602883610120015160ff1610156139615750604080518082019091526008815267747769676c65747360c01b6020820152613b6a565b603c8360c001518460e001516139779190615c39565b60ff1610801561398f575060328360c0015160ff1610155b80156139a3575060828360e0015160ff1611155b80156139c8575060968361010001518461012001516139c29190615c39565b60ff1610155b156139f4575060408051808201909152600a815269636f6c6c617073696e6760b01b6020820152613b6a565b60c883610100015160ff16118015613a1357506032836020015160ff16115b15613a3b5750604080518082019091526006815265626c6f636b7960d01b6020820152613b6a565b60648360c001518460e00151613a519190615c39565b60ff16118015613a695750609683610120015160ff16105b15613a8f57506040805180820190915260048152631dda5b1960e21b6020820152613b6a565b60648360c001518460e00151613aa59190615c39565b60ff16108015613abd5750609683610100015160ff16115b15613ae3575060408051808201909152600481526374616d6560e01b6020820152613b6a565b609683610100015160ff161115613b165750604080518082019091526005815264746869636b60d81b6020820152613b6a565b606483610120015160ff161015613b4857506040805180820190915260048152633a3434b760e11b6020820152613b6a565b506040805180820190915260098152680e4c2dcc8dedad2e6d60bb1b60208201525b6060607f8460a0015160ff16111561403d5760006096905060c88560a0015160ff16118015613ba057506032856040015160ff16105b8015613bb357506032856060015160ff16105b8015613bc657506032856080015160ff16105b15613c08576040518060400160405280600e81526020017f646f6f6d20616e6420676c6f6f6d0000000000000000000000000000000000008152509150614037565b60c88560a0015160ff16118015613c26575060c8856040015160ff16115b8015613c39575060c8856060015160ff16115b8015613c4c575060c8856080015160ff16115b15613c7d576040518060400160405280600c81526020016b1cd9595b88184819da1bdcdd60a21b8152509150614037565b846060015160ff16856040015160ff16118015613cb057508085606001518660400151613caa9190615c39565b60ff1610155b8015613cc95750846080015160ff16856040015160ff16115b8015613ceb57508085608001518660400151613ce59190615c39565b60ff1610155b15613d1457604051806040016040528060048152602001637265647360e01b8152509150614037565b846040015160ff16856060015160ff16118015613d4757508085604001518660600151613d419190615c39565b60ff1610155b8015613d605750846080015160ff16856060015160ff16115b8015613d8257508085608001518660600151613d7c9190615c39565b60ff1610155b15613dad5760405180604001604052806006815260200165677265656e7360d01b8152509150614037565b846040015160ff16856080015160ff16118015613de057508085604001518660800151613dda9190615c39565b60ff1610155b8015613df95750846060015160ff16856080015160ff16115b8015613e1b57508085606001518660800151613e159190615c39565b60ff1610155b15613e455760405180604001604052806005815260200164626c75657360d81b8152509150614037565b846060015160ff16856040015160ff16118015613e7857508085606001518660400151613e729190615c39565b60ff1610155b8015613e915750846060015160ff16856080015160ff16115b8015613eb357508085606001518660800151613ead9190615c39565b60ff1610155b15613edf576040518060400160405280600781526020016676696f6c65747360c81b8152509150614037565b846080015160ff16856040015160ff16118015613f1257508085608001518660400151613f0c9190615c39565b60ff1610155b8015613f2b5750846080015160ff16856060015160ff16115b8015613f4d57508085608001518660600151613f479190615c39565b60ff1610155b15613f79576040518060400160405280600781526020016679656c6c6f777360c81b8152509150614037565b846040015160ff16856080015160ff16118015613fac57508085604001518660800151613fa69190615c39565b60ff1610155b8015613fc55750846040015160ff16856060015160ff16115b8015613fe757508085604001518660600151613fe19190615c39565b60ff1610155b1561401157604051806040016040528060058152602001646379616e7360d81b8152509150614037565b6040518060400160405280600a8152602001691a19585d9e481d1a5b9d60b21b81525091505b506140ce565b60a084015160ff16614073575060408051808201909152600d81526c73757065722064796e616d696360981b60208201526140ce565b603c8460a0015160ff1610156140aa575060408051808201909152600a8152691b1a59da1d081d1a5b9d60b21b60208201526140ce565b5060408051808201909152600b81526a1b59591a5d5b481d1a5b9d60aa1b60208201525b6060601985610160015160ff16111580156140f0575060b48560a0015160ff16105b1561412f575060408051808201909152600f81527f63616c6c2074686520706f6c69636500000000000000000000000000000000006020820152614305565b84610160015160ff1685610140015160ff161480156141565750601e85610160015160ff16105b156141805750604080518082019091526008815267626c696e6b696e6760c01b6020820152614305565b84610160015160ff1685610140015160ff161480156141a7575060c885610160015160ff16115b156141d3575060408051808201909152600a815269736c6f772070756c736560b01b6020820152614305565b84610160015160ff1685610140015160ff16141561420d575060408051808201909152600581526470756c736560d81b6020820152614305565b603285610160015160ff161015614245575060408051808201909152600a815269666c69636b6572696e6760b01b6020820152614305565b606485610160015160ff16101561427857506040805180820190915260058152647a6970707960d81b6020820152614305565b60c885610140015160ff1611156142b0575060408051808201909152600a8152693832b232b9ba3934b0b760b11b6020820152614305565b609685610140015160ff1611156142e45750604080518082019091526006815265736c6565707960d01b6020820152614305565b506040805180820190915260088152677368696674696e6760c01b60208201525b60608351600014614358576000846040516020016143239190615485565b6040516020818303038152906040529050806040516020016143459190614fdd565b6040516020818303038152906040529150505b8151156143a9576000826040516020016143729190615003565b60405160208183030381529060405290508181604051602001614396929190614cd9565b6040516020818303038152906040529150505b8251156143fa576000836040516020016143c39190615424565b604051602081830303815290604052905081816040516020016143e7929190614cd9565b6040516020818303038152906040529150505b95945050505050565b60006001600160e01b0319821663780e9d6360e01b148061071a575061071a8261466f565b6001600160a01b03821661447e5760405162461bcd60e51b815260206004820181905260248201527f4552433732313a206d696e7420746f20746865207a65726f20616464726573736044820152606401610827565b6000818152600260205260409020546001600160a01b0316156144e35760405162461bcd60e51b815260206004820152601c60248201527f4552433732313a20746f6b656e20616c7265616479206d696e746564000000006044820152606401610827565b6144ef60008383612bfd565b6001600160a01b0382166000908152600360205260408120805460019290614518908490615b69565b909155505060008181526002602052604080822080546001600160a01b0319166001600160a01b03861690811790915590518392907fddf252ad1be2c89b69c2b068fc378daa952ba7f163c4a11628f55a4df523b3ef908290a45050565b6001600160a01b0383166145d1576145cc81600880546000838152600960205260408120829055600182018355919091527ff3f7a9fe364faab93b216da50a3214154f22a0a2b415b23a84c8169e8b636ee30155565b6145f4565b816001600160a01b0316836001600160a01b0316146145f4576145f483826146bf565b6001600160a01b03821661460b5761092a8161475c565b826001600160a01b0316826001600160a01b03161461092a5761092a8282614835565b60008161463f575060ff8316612e08565b6000838511614658575060ff8484038302048401614664565b5060ff83850383020484035b60ff16949350505050565b60006001600160e01b031982166380ac58cd60e01b14806146a057506001600160e01b03198216635b5e139f60e01b145b8061071a57506301ffc9a760e01b6001600160e01b031983161461071a565b600060016146cc8461153f565b6146d69190615c22565b600083815260076020526040902054909150808214614729576001600160a01b03841660009081526006602090815260408083208584528252808320548484528184208190558352600790915290208190555b5060009182526007602090815260408084208490556001600160a01b039094168352600681528383209183525290812055565b60085460009061476e90600190615c22565b600083815260096020526040812054600880549394509092849081106147a457634e487b7160e01b600052603260045260246000fd5b9060005260206000200154905080600883815481106147d357634e487b7160e01b600052603260045260246000fd5b600091825260208083209091019290925582815260099091526040808220849055858252812055600880548061481957634e487b7160e01b600052603160045260246000fd5b6001900381819060005260206000200160009055905550505050565b60006148408361153f565b6001600160a01b039093166000908152600660209081526040808320868452825280832085905593825260079052919091209190915550565b80356001600160a01b038116811461489057600080fd5b919050565b8035801515811461489057600080fd5b803562ffffff8116811461489057600080fd5b803560ff8116811461489057600080fd5b6000602082840312156148da578081fd5b612e0882614879565b600080604083850312156148f5578081fd5b6148fe83614879565b915061490c60208401614879565b90509250929050565b600080600060608486031215614929578081fd5b61493284614879565b925061494060208501614879565b9150604084013590509250925092565b60008060008060808587031215614965578081fd5b61496e85614879565b9350602061497d818701614879565b935060408601359250606086013567ffffffffffffffff808211156149a0578384fd5b818801915088601f8301126149b3578384fd5b8135818111156149c5576149c5615d40565b6149d7601f8201601f19168501615b12565b915080825289848285010111156149ec578485fd5b8084840185840137810190920192909252939692955090935050565b60008060408385031215614a1a578182fd5b614a2383614879565b915061490c60208401614895565b60008060408385031215614a43578182fd5b614a4c83614879565b946020939093013593505050565b60006020808385031215614a6c578182fd5b823567ffffffffffffffff80821115614a83578384fd5b818501915085601f830112614a96578384fd5b813581811115614aa857614aa8615d40565b8060051b9150614ab9848301615b12565b8181528481019084860184860187018a1015614ad3578788fd5b8795505b83861015614afc57614ae8816148a5565b835260019590950194918601918601614ad7565b5098975050505050505050565b600060208284031215614b1a578081fd5b612e0882614895565b600060208284031215614b34578081fd5b8135612e0881615d56565b600060208284031215614b50578081fd5b8151612e0881615d56565b600060208284031215614b6c578081fd5b813561ffff81168114612e08578182fd5b6000806000806000806000806000806000806101808d8f031215614b9f578788fd5b614ba88d6148a5565b9b50614bb660208e016148b8565b9a50614bc460408e016148b8565b9950614bd260608e016148b8565b9850614be060808e016148b8565b9750614bee60a08e016148b8565b9650614bfc60c08e016148b8565b9550614c0a60e08e016148b8565b9450614c196101008e016148b8565b9350614c286101208e016148b8565b9250614c376101408e016148b8565b9150614c466101608e016148b8565b90509295989b509295989b509295989b565b600060208284031215614c69578081fd5b5035919050565b60008060408385031215614c82578182fd5b50508035926020909101359150565b60008151808452614ca9816020860160208601615c5c565b601f01601f19169290920160200192915050565b60008151614ccf818560208601615c5c565b9290920192915050565b60008351614ceb818460208801615c5c565b835190830190614cff818360208801615c5c565b61016160f51b9101908152600201949350505050565b60008851614d27818460208d01615c5c565b683c7265637420783d2760b81b9083019081528851614d4d816009840160208d01615c5c565b7f2720793d2730272077696474683d270000000000000000000000000000000000600992909101918201528751614d8b816018840160208c01615c5c565b7f27206865696768743d2732303030272066696c6c3d2700000000000000000000601892909101918201528651614dc981602e840160208b01615c5c565b7f27206f7061636974793d27302e38270000000000000000000000000000000000602e92909101918201527f207472616e73666f726d3d27726f746174652800000000000000000000000000603d820152614efd614eae614ea8614e75614e6f614e36605087018c614cbd565b7f2031303030203130303029273e3c616e696d61746520626567696e3d2027307381526627206475723d2760c81b602082015260270190565b89614cbd565b7f6d7327206174747269627574654e616d653d2766696c6c272076616c7565733d8152602760f81b602082015260210190565b86614cbd565b7f3b272066696c6c3d27667265657a652720726570656174436f756e743d27696e81527f646566696e697465272f3e3c2f726563743e0000000000000000000000000000602082015260320190565b9a9950505050505050505050565b60008551614f1d818460208a01615c5c565b8083019050600160fd1b8082528651614f3d816001850160208b01615c5c565b600192019182018190528551614f5a816002850160208a01615c5c565b60029201918201528351614f75816003840160208801615c5c565b016003019695505050505050565b60008451614f95818460208901615c5c565b8083019050603b60f81b8082528551614fb5816001850160208a01615c5c565b60019201918201528351614fd0816002840160208801615c5c565b0160020195945050505050565b60008251614fef818460208701615c5c565b61016160f51b920191825250600201919050565b7f7b2274726169745f74797065223a20227370656564222c202276616c7565223a815261101160f11b602082015260008251615046816022850160208701615c5c565b61227d60f01b6022939091019283015250602401919050565b63783d272d60e01b81526000855161507e816004850160208a01615c5c565b652720793d272d60d01b60049184019182015285516150a481600a840160208a01615c5c565b68272077696474683d2760b81b600a929091019182015284516150ce816013840160208901615c5c565b6927206865696768743d2760b01b6013929091019182015283516150f981601d840160208801615c5c565b602760f81b601d9290910191820152601e019695505050505050565b7f7b2274726169745f74797065223a2022726f746174696f6e206d696e222c20228152683b30b63ab2911d101160b91b60208201526000835161515f816029850160208801615c5c565b7f227d2c207b2274726169745f74797065223a2022726f746174696f6e206d61786029918401918201526c111610113b30b63ab2911d101160991b604982015283516151b2816056840160208801615c5c565b61227d60f01b60569290910191820152605801949350505050565b630e4cec4560e31b8152600084516151ec816004850160208901615c5c565b808301905061016160f51b8060048301528551615210816006850160208a01615c5c565b6006920191820152835161522b816008840160208801615c5c565b602960f81b6008929091019182015260090195945050505050565b7f3c73766720786d6c6e733d27687474703a2f2f7777772e77332e6f72672f323081527f30302f737667272076696577426f783d270000000000000000000000000000006020820152600085516152a4816031850160208a01615c5c565b7f272073686170652d72656e646572696e673d270000000000000000000000000060319184019182015285516152e1816044840160208a01615c5c565b61139f60f11b604492909101918201528451615304816046840160208901615c5c565b7f3c6720636c69702d706174683d2775726c28236d6173746572436c697029273e604692909101918201528351615342816066840160208801615c5c565b691e17b39f1e17b9bb339f60b11b606692909101918201526070019695505050505050565b7f7b2274726169745f74797065223a20227a6f6f6d222c202276616c7565223a208152601160f91b6020820152600082516153a9816021850160208701615c5c565b61227d60f01b6021939091019283015250602301919050565b7f7b2274726169745f74797065223a202274696e7420636f6c6f7572222c20227681526730b63ab2911d101160c11b60208201526000825161540b816028850160208701615c5c565b61227d60f01b6028939091019283015250602a01919050565b7f7b2274726169745f74797065223a2022636f6c6f757220776179222c20227661815266363ab2911d101160c91b60208201526000825161546c816027850160208701615c5c565b61227d60f01b6027939091019283015250602901919050565b7f7b2274726169745f74797065223a2022666f726d222c202276616c7565223a208152601160f91b6020820152600082516153a9816021850160208701615c5c565b6e2261747472696275746573223a205b60881b81526000875160206154f282600f8601838d01615c5c565b88519184019161550881600f8501848d01615c5c565b80830192505061016160f51b80600f840152885161552c8160118601858d01615c5c565b6011930192830181905287516155488160138601858c01615c5c565b6013930192830181905286516155648160158601858b01615c5c565b6015930192830152845161557e8160178501848901615c5c565b615594601782850101605d60f81b815260010190565b9b9a5050505050505050505050565b6e2261747472696275746573223a205b60881b8152600086516155cd81600f850160208b01615c5c565b808301905061016160f51b80600f83015287516155f1816011850160208c01615c5c565b60119201918201819052865161560e816013850160208b01615c5c565b60139201918201819052855161562b816015850160208a01615c5c565b60159201918201528351615646816017840160208801615c5c565b605d60f81b60179290910191820152601801979650505050505050565b62783d2760e81b815260008551615681816003850160208a01615c5c565b642720793d2760d81b60039184019182015285516156a6816008840160208a01615c5c565b68272077696474683d2760b81b6008929091019182015284516156d0816011840160208901615c5c565b6927206865696768743d2760b01b6011929091019182015283516156fb81601b840160208801615c5c565b602760f81b601b9290910191820152601c019695505050505050565b7f7b2274726169745f74797065223a20227370656564206d696e222c202276616c8152653ab2911d101160d11b60208201526000835161575e816026850160208801615c5c565b7f227d2c207b2274726169745f74797065223a20227370656564206d6178222c2060269184019182015269113b30b63ab2911d101160b11b604682015283516157ae816050840160208801615c5c565b61227d60f01b60509290910191820152605201949350505050565b602d60f81b8152600085516157e5816001850160208a01615c5c565b61202d60f01b6001918401918201528551615807816003840160208a01615c5c565b808201915050600160fd1b806003830152855161582b816004850160208a01615c5c565b60049201918201528351615846816005840160208801615c5c565b016005019695505050505050565b7f646174613a746578742f706c61696e2c7b226e616d65223a2244796e6153747281526569706573202360d01b60208201526000855161589b816026850160208a01615c5c565b7f222c20226465736372697074696f6e223a226f6e2d636861696e2c2067656e656026918401918201527f7261746976652044796e615374726970657320617274776f726b222c20000000604682015285516158fe816063840160208a01615c5c565b61016160f51b606392909101918201528451615921816065840160208901615c5c565b7f2c2022696d616765223a22646174613a696d6167652f7376672b786d6c2c000060659290910191820152835161595f816083840160208801615c5c565b61227d60f01b608392909101918201526085019695505050505050565b7f7b2274726169745f74797065223a2022737472697065207769647468206d696e81526c111610113b30b63ab2911d101160991b6020820152600083516159ca81602d850160208801615c5c565b7f227d2c207b2274726169745f74797065223a2022737472697065207769647468602d918401918201527f206d6178222c202276616c7565223a2022000000000000000000000000000000604d8201528351615a2d81605e840160208801615c5c565b61227d60f01b605e9290910191820152606001949350505050565b7f3c646566733e3c636c6970506174682069643d276d6173746572436c6970273e81526501e3932b1ba160d51b602082015260008251615a8f816026850160208701615c5c565b7f2f3e3c2f636c6970506174683e3c2f646566733e0000000000000000000000006026939091019283015250603a01919050565b60006001600160a01b03808716835280861660208401525083604083015260806060830152615af56080830184614c91565b9695505050505050565b602081526000612e086020830184614c91565b604051601f8201601f1916810167ffffffffffffffff81118282101715615b3b57615b3b615d40565b604052919050565b600061ffff808316818516808303821115615b6057615b60615d14565b01949350505050565b60008219821115615b7c57615b7c615d14565b500190565b600061ffff80841680615b9657615b96615d2a565b92169190910492915050565b600082615bb157615bb1615d2a565b500490565b600061ffff80831681851681830481118215151615615bd757615bd7615d14565b02949350505050565b6000816000190483118215151615615bfa57615bfa615d14565b500290565b600061ffff83811690831681811015615c1a57615c1a615d14565b039392505050565b600082821015615c3457615c34615d14565b500390565b600060ff821660ff841680821015615c5357615c53615d14565b90039392505050565b60005b83811015615c77578181015183820152602001615c5f565b838111156119015750506000910152565b600181811c90821680615c9c57607f821691505b60208210811415615cbd57634e487b7160e01b600052602260045260246000fd5b50919050565b6000600019821415615cd757615cd7615d14565b5060010190565b600082615ced57615ced615d2a565b500690565b600060ff831680615d0557615d05615d2a565b8060ff84160691505092915050565b634e487b7160e01b600052601160045260246000fd5b634e487b7160e01b600052601260045260246000fd5b634e487b7160e01b600052604160045260246000fd5b6001600160e01b03198116811461138557600080fdfe68747470733a2f2f7777772e64796e61737472697065732e636f6d2f73746f726566726f6e742d6d657461646174614f776e61626c653a2063616c6c6572206973206e6f7420746865206f776e6572a264697066735822122098f1091009c73560488920a4d3db71e1d0409117fb50a7e20d01ed8ac7bf732064736f6c63430008040033",
  "linkReferences": {},
  "deployedLinkReferences": {}
}