{
  "_format": "hh-sol-artifact-1",
  "contractName": "DynaStripes",
  "sourceName": "contracts/DynaStripes.sol",
  "abi": [
    {
      "inputs": [],
      "stateMutability": "nonpayable",
      "type": "constructor"
    },
    {
      "inputs": [],
      "name": "ApprovalCallerNotOwnerNorApproved",
      "type": "error"
    },
    {
      "inputs": [],
      "name": "ApprovalQueryForNonexistentToken",
      "type": "error"
    },
    {
      "inputs": [],
      "name": "ApprovalToCurrentOwner",
      "type": "error"
    },
    {
      "inputs": [],
      "name": "ApproveToCaller",
      "type": "error"
    },
    {
      "inputs": [],
      "name": "BalanceQueryForZeroAddress",
      "type": "error"
    },
    {
      "inputs": [],
      "name": "MintToZeroAddress",
      "type": "error"
    },
    {
      "inputs": [],
      "name": "MintZeroQuantity",
      "type": "error"
    },
    {
      "inputs": [],
      "name": "OwnerIndexOutOfBounds",
      "type": "error"
    },
    {
      "inputs": [],
      "name": "OwnerQueryForNonexistentToken",
      "type": "error"
    },
    {
      "inputs": [],
      "name": "TokenIndexOutOfBounds",
      "type": "error"
    },
    {
      "inputs": [],
      "name": "TransferCallerNotOwnerNorApproved",
      "type": "error"
    },
    {
      "inputs": [],
      "name": "TransferFromIncorrectOwner",
      "type": "error"
    },
    {
      "inputs": [],
      "name": "TransferToNonERC721ReceiverImplementer",
      "type": "error"
    },
    {
      "inputs": [],
      "name": "TransferToZeroAddress",
      "type": "error"
    },
    {
      "anonymous": false,
      "inputs": [
        {
          "indexed": true,
          "internalType": "address",
          "name": "owner",
          "type": "address"
        },
        {
          "indexed": true,
          "internalType": "address",
          "name": "approved",
          "type": "address"
        },
        {
          "indexed": true,
          "internalType": "uint256",
          "name": "tokenId",
          "type": "uint256"
        }
      ],
      "name": "Approval",
      "type": "event"
    },
    {
      "anonymous": false,
      "inputs": [
        {
          "indexed": true,
          "internalType": "address",
          "name": "owner",
          "type": "address"
        },
        {
          "indexed": true,
          "internalType": "address",
          "name": "operator",
          "type": "address"
        },
        {
          "indexed": false,
          "internalType": "bool",
          "name": "approved",
          "type": "bool"
        }
      ],
      "name": "ApprovalForAll",
      "type": "event"
    },
    {
      "anonymous": false,
      "inputs": [
        {
          "indexed": true,
          "internalType": "address",
          "name": "previousOwner",
          "type": "address"
        },
        {
          "indexed": true,
          "internalType": "address",
          "name": "newOwner",
          "type": "address"
        }
      ],
      "name": "OwnershipTransferred",
      "type": "event"
    },
    {
      "anonymous": false,
      "inputs": [
        {
          "indexed": false,
          "internalType": "address",
          "name": "account",
          "type": "address"
        }
      ],
      "name": "Paused",
      "type": "event"
    },
    {
      "anonymous": false,
      "inputs": [
        {
          "indexed": true,
          "internalType": "address",
          "name": "from",
          "type": "address"
        },
        {
          "indexed": true,
          "internalType": "address",
          "name": "to",
          "type": "address"
        },
        {
          "indexed": true,
          "internalType": "uint256",
          "name": "tokenId",
          "type": "uint256"
        }
      ],
      "name": "Transfer",
      "type": "event"
    },
    {
      "anonymous": false,
      "inputs": [
        {
          "indexed": false,
          "internalType": "address",
          "name": "account",
          "type": "address"
        }
      ],
      "name": "Unpaused",
      "type": "event"
    },
    {
      "inputs": [],
      "name": "ROYALTY_BPS",
      "outputs": [
        {
          "internalType": "uint16",
          "name": "",
          "type": "uint16"
        }
      ],
      "stateMutability": "view",
      "type": "function"
    },
    {
      "inputs": [],
      "name": "TOKEN_LIMIT",
      "outputs": [
        {
          "internalType": "uint16",
          "name": "",
          "type": "uint16"
        }
      ],
      "stateMutability": "view",
      "type": "function"
    },
    {
      "inputs": [
        {
          "internalType": "address",
          "name": "to",
          "type": "address"
        },
        {
          "internalType": "uint256",
          "name": "tokenId",
          "type": "uint256"
        }
      ],
      "name": "approve",
      "outputs": [],
      "stateMutability": "nonpayable",
      "type": "function"
    },
    {
      "inputs": [
        {
          "internalType": "address",
          "name": "owner",
          "type": "address"
        }
      ],
      "name": "balanceOf",
      "outputs": [
        {
          "internalType": "uint256",
          "name": "",
          "type": "uint256"
        }
      ],
      "stateMutability": "view",
      "type": "function"
    },
    {
      "inputs": [
        {
          "internalType": "uint24[]",
          "name": "seeds",
          "type": "uint24[]"
        }
      ],
      "name": "banRandomSeeds",
      "outputs": [],
      "stateMutability": "nonpayable",
      "type": "function"
    },
    {
      "inputs": [],
      "name": "contractURI",
      "outputs": [
        {
          "internalType": "string",
          "name": "",
          "type": "string"
        }
      ],
      "stateMutability": "pure",
      "type": "function"
    },
    {
      "inputs": [
        {
          "internalType": "uint256",
          "name": "tokenId",
          "type": "uint256"
        }
      ],
      "name": "generateSvg",
      "outputs": [
        {
          "internalType": "string",
          "name": "",
          "type": "string"
        }
      ],
      "stateMutability": "view",
      "type": "function"
    },
    {
      "inputs": [
        {
          "internalType": "uint256",
          "name": "tokenId",
          "type": "uint256"
        }
      ],
      "name": "getApproved",
      "outputs": [
        {
          "internalType": "address",
          "name": "",
          "type": "address"
        }
      ],
      "stateMutability": "view",
      "type": "function"
    },
    {
      "inputs": [],
      "name": "getMintPrice",
      "outputs": [
        {
          "internalType": "uint256",
          "name": "",
          "type": "uint256"
        }
      ],
      "stateMutability": "view",
      "type": "function"
    },
    {
      "inputs": [],
      "name": "getTokenLimit",
      "outputs": [
        {
          "internalType": "uint16",
          "name": "",
          "type": "uint16"
        }
      ],
      "stateMutability": "view",
      "type": "function"
    },
    {
      "inputs": [
        {
          "internalType": "address",
          "name": "_owner",
          "type": "address"
        },
        {
          "internalType": "address",
          "name": "_operator",
          "type": "address"
        }
      ],
      "name": "isApprovedForAll",
      "outputs": [
        {
          "internalType": "bool",
          "name": "isOperator",
          "type": "bool"
        }
      ],
      "stateMutability": "view",
      "type": "function"
    },
    {
      "inputs": [
        {
          "internalType": "uint24",
          "name": "randomSeed",
          "type": "uint24"
        },
        {
          "internalType": "uint8",
          "name": "zoom",
          "type": "uint8"
        },
        {
          "internalType": "uint8",
          "name": "tintRed",
          "type": "uint8"
        },
        {
          "internalType": "uint8",
          "name": "tintGreen",
          "type": "uint8"
        },
        {
          "internalType": "uint8",
          "name": "tintBlue",
          "type": "uint8"
        },
        {
          "internalType": "uint8",
          "name": "tintAlpha",
          "type": "uint8"
        },
        {
          "internalType": "uint16",
          "name": "rotationDegrees",
          "type": "uint16"
        },
        {
          "internalType": "uint8",
          "name": "rotationRange",
          "type": "uint8"
        },
        {
          "internalType": "uint8",
          "name": "stripeWidthMin",
          "type": "uint8"
        },
        {
          "internalType": "uint8",
          "name": "stripeWidthMax",
          "type": "uint8"
        },
        {
          "internalType": "uint8",
          "name": "speedMin",
          "type": "uint8"
        },
        {
          "internalType": "uint8",
          "name": "speedMax",
          "type": "uint8"
        }
      ],
      "name": "mintStripes",
      "outputs": [],
      "stateMutability": "payable",
      "type": "function"
    },
    {
      "inputs": [],
      "name": "name",
      "outputs": [
        {
          "internalType": "string",
          "name": "",
          "type": "string"
        }
      ],
      "stateMutability": "view",
      "type": "function"
    },
    {
      "inputs": [],
      "name": "owner",
      "outputs": [
        {
          "internalType": "address",
          "name": "",
          "type": "address"
        }
      ],
      "stateMutability": "view",
      "type": "function"
    },
    {
      "inputs": [
        {
          "internalType": "uint256",
          "name": "tokenId",
          "type": "uint256"
        }
      ],
      "name": "ownerOf",
      "outputs": [
        {
          "internalType": "address",
          "name": "",
          "type": "address"
        }
      ],
      "stateMutability": "view",
      "type": "function"
    },
    {
      "inputs": [],
      "name": "pause",
      "outputs": [],
      "stateMutability": "nonpayable",
      "type": "function"
    },
    {
      "inputs": [],
      "name": "paused",
      "outputs": [
        {
          "internalType": "bool",
          "name": "",
          "type": "bool"
        }
      ],
      "stateMutability": "view",
      "type": "function"
    },
    {
      "inputs": [
        {
          "internalType": "uint256",
          "name": "amount",
          "type": "uint256"
        }
      ],
      "name": "payOwner",
      "outputs": [],
      "stateMutability": "nonpayable",
      "type": "function"
    },
    {
      "inputs": [],
      "name": "renounceOwnership",
      "outputs": [],
      "stateMutability": "nonpayable",
      "type": "function"
    },
    {
      "inputs": [
        {
          "internalType": "uint256",
          "name": "tokenId",
          "type": "uint256"
        },
        {
          "internalType": "uint256",
          "name": "value",
          "type": "uint256"
        }
      ],
      "name": "royaltyInfo",
      "outputs": [
        {
          "internalType": "address",
          "name": "receiver",
          "type": "address"
        },
        {
          "internalType": "uint256",
          "name": "royaltyAmount",
          "type": "uint256"
        }
      ],
      "stateMutability": "view",
      "type": "function"
    },
    {
      "inputs": [
        {
          "internalType": "address",
          "name": "from",
          "type": "address"
        },
        {
          "internalType": "address",
          "name": "to",
          "type": "address"
        },
        {
          "internalType": "uint256",
          "name": "tokenId",
          "type": "uint256"
        }
      ],
      "name": "safeTransferFrom",
      "outputs": [],
      "stateMutability": "nonpayable",
      "type": "function"
    },
    {
      "inputs": [
        {
          "internalType": "address",
          "name": "from",
          "type": "address"
        },
        {
          "internalType": "address",
          "name": "to",
          "type": "address"
        },
        {
          "internalType": "uint256",
          "name": "tokenId",
          "type": "uint256"
        },
        {
          "internalType": "bytes",
          "name": "_data",
          "type": "bytes"
        }
      ],
      "name": "safeTransferFrom",
      "outputs": [],
      "stateMutability": "nonpayable",
      "type": "function"
    },
    {
      "inputs": [
        {
          "internalType": "address",
          "name": "operator",
          "type": "address"
        },
        {
          "internalType": "bool",
          "name": "approved",
          "type": "bool"
        }
      ],
      "name": "setApprovalForAll",
      "outputs": [],
      "stateMutability": "nonpayable",
      "type": "function"
    },
    {
      "inputs": [
        {
          "internalType": "uint256",
          "name": "_mintPrice",
          "type": "uint256"
        }
      ],
      "name": "setMintPrice",
      "outputs": [],
      "stateMutability": "nonpayable",
      "type": "function"
    },
    {
      "inputs": [
        {
          "internalType": "uint16",
          "name": "limit",
          "type": "uint16"
        }
      ],
      "name": "setTokenLimit",
      "outputs": [],
      "stateMutability": "nonpayable",
      "type": "function"
    },
    {
      "inputs": [
        {
          "internalType": "bytes4",
          "name": "interfaceId",
          "type": "bytes4"
        }
      ],
      "name": "supportsInterface",
      "outputs": [
        {
          "internalType": "bool",
          "name": "",
          "type": "bool"
        }
      ],
      "stateMutability": "view",
      "type": "function"
    },
    {
      "inputs": [],
      "name": "symbol",
      "outputs": [
        {
          "internalType": "string",
          "name": "",
          "type": "string"
        }
      ],
      "stateMutability": "view",
      "type": "function"
    },
    {
      "inputs": [
        {
          "internalType": "uint256",
          "name": "index",
          "type": "uint256"
        }
      ],
      "name": "tokenByIndex",
      "outputs": [
        {
          "internalType": "uint256",
          "name": "",
          "type": "uint256"
        }
      ],
      "stateMutability": "view",
      "type": "function"
    },
    {
      "inputs": [
        {
          "internalType": "address",
          "name": "owner",
          "type": "address"
        },
        {
          "internalType": "uint256",
          "name": "index",
          "type": "uint256"
        }
      ],
      "name": "tokenOfOwnerByIndex",
      "outputs": [
        {
          "internalType": "uint256",
          "name": "",
          "type": "uint256"
        }
      ],
      "stateMutability": "view",
      "type": "function"
    },
    {
      "inputs": [
        {
          "internalType": "uint256",
          "name": "_tokenId",
          "type": "uint256"
        }
      ],
      "name": "tokenURI",
      "outputs": [
        {
          "internalType": "string",
          "name": "",
          "type": "string"
        }
      ],
      "stateMutability": "view",
      "type": "function"
    },
    {
      "inputs": [],
      "name": "totalSupply",
      "outputs": [
        {
          "internalType": "uint256",
          "name": "",
          "type": "uint256"
        }
      ],
      "stateMutability": "view",
      "type": "function"
    },
    {
      "inputs": [
        {
          "internalType": "address",
          "name": "from",
          "type": "address"
        },
        {
          "internalType": "address",
          "name": "to",
          "type": "address"
        },
        {
          "internalType": "uint256",
          "name": "tokenId",
          "type": "uint256"
        }
      ],
      "name": "transferFrom",
      "outputs": [],
      "stateMutability": "nonpayable",
      "type": "function"
    },
    {
      "inputs": [
        {
          "internalType": "address",
          "name": "newOwner",
          "type": "address"
        }
      ],
      "name": "transferOwnership",
      "outputs": [],
      "stateMutability": "nonpayable",
      "type": "function"
    },
    {
      "inputs": [],
      "name": "unpause",
      "outputs": [],
      "stateMutability": "nonpayable",
      "type": "function"
    },
    {
      "stateMutability": "payable",
      "type": "receive"
    }
  ],
  "bytecode": "0x60806040526009805461ffff19166064179055662386f26fc10000600c553480156200002a57600080fd5b50604080518082018252600e81526d223cb730a9ba3934b832b9903b1960911b6020808301918252835180850190945260048452632229a99960e11b9084015281519192918391839162000081916001916200011f565b508051620000979060029060208401906200011f565b505050620000b4620000ae620000c960201b60201c565b620000cd565b50506007805460ff60a01b1916905562000202565b3390565b600780546001600160a01b038381166001600160a01b0319831681179093556040519116919082907f8be0079c531659141344cd1fd0a4f28419497f9722a3daafe3b4186f6b6457e090600090a35050565b8280546200012d90620001c5565b90600052602060002090601f0160209004810192826200015157600085556200019c565b82601f106200016c57805160ff19168380011785556200019c565b828001600101855582156200019c579182015b828111156200019c5782518255916020019190600101906200017f565b50620001aa929150620001ae565b5090565b5b80821115620001aa5760008155600101620001af565b600181811c90821680620001da57607f821691505b60208210811415620001fc57634e487b7160e01b600052602260045260246000fd5b50919050565b61553380620002126000396000f3fe6080604052600436106101fd5760003560e01c806370a082311161010d578063a6c8445a116100a0578063c87b56dd1161006f578063c87b56dd146105c7578063e8a3d485146105e7578063e985e9c5146105fc578063f2fde38b1461061c578063f4a0a5281461063c57600080fd5b8063a6c8445a1461055f578063a7f93ebd14610572578063b88d4fde14610587578063bc921dc2146105a757600080fd5b80638456cb59116100dc5780638456cb59146104f75780638da5cb5b1461050c57806395d89b411461052a578063a22cb4651461053f57600080fd5b806370a0823114610482578063715018a6146104a257806377c39a89146104b75780638331be32146104d757600080fd5b8063284855861161019057806342842e0e1161015f57806342842e0e146103ed57806349c657db1461040d5780634f6ccce7146104235780635c975abb146104435780636352211e1461046257600080fd5b806328485586146103605780632a55205a146103795780632f745c59146103b85780633f4ba83a146103d857600080fd5b806308d78c3c116101cc57806308d78c3c146102c1578063095ea7b3146102e357806318160ddd1461030357806323b872dd1461034057600080fd5b806301ffc9a714610209578063031bd4c41461023e57806306fdde0314610267578063081812fc1461028957600080fd5b3661020457005b600080fd5b34801561021557600080fd5b50610229610224366004614760565b61065c565b60405190151581526020015b60405180910390f35b34801561024a57600080fd5b5061025461045f81565b60405161ffff9091168152602001610235565b34801561027357600080fd5b5061027c61066d565b604051610235919061522c565b34801561029557600080fd5b506102a96102a436600461488d565b6106ff565b6040516001600160a01b039091168152602001610235565b3480156102cd57600080fd5b506102e16102dc36600461488d565b610743565b005b3480156102ef57600080fd5b506102e16102fe366004614688565b610824565b34801561030f57600080fd5b506103326000546001600160801b03600160801b82048116918116919091031690565b604051908152602001610235565b34801561034c57600080fd5b506102e161035b36600461455b565b6108ad565b34801561036c57600080fd5b5060095461ffff16610254565b34801561038557600080fd5b506103996103943660046148a5565b6108b8565b604080516001600160a01b039093168352602083019190915201610235565b3480156103c457600080fd5b506103326103d3366004614688565b610911565b3480156103e457600080fd5b506102e1610a0e565b3480156103f957600080fd5b506102e161040836600461455b565b610a60565b34801561041957600080fd5b506102546103e881565b34801561042f57600080fd5b5061033261043e36600461488d565b610a7b565b34801561044f57600080fd5b50600754600160a01b900460ff16610229565b34801561046e57600080fd5b506102a961047d36600461488d565b610b26565b34801561048e57600080fd5b5061033261049d36600461450f565b610b38565b3480156104ae57600080fd5b506102e1610b87565b3480156104c357600080fd5b506102e16104d2366004614798565b610bd9565b3480156104e357600080fd5b506102e16104f23660046146b1565b610c4c565b34801561050357600080fd5b506102e1610d0a565b34801561051857600080fd5b506007546001600160a01b03166102a9565b34801561053657600080fd5b5061027c610d5a565b34801561054b57600080fd5b506102e161055a36600461464e565b610d69565b6102e161056d3660046147b2565b610dff565b34801561057e57600080fd5b50600c54610332565b34801561059357600080fd5b506102e16105a2366004614596565b61137d565b3480156105b357600080fd5b5061027c6105c236600461488d565b6113b7565b3480156105d357600080fd5b5061027c6105e236600461488d565b6115ae565b3480156105f357600080fd5b5061027c61192b565b34801561060857600080fd5b50610229610617366004614529565b61194b565b34801561062857600080fd5b506102e161063736600461450f565b6119ab565b34801561064857600080fd5b506102e161065736600461488d565b611a64565b600061066782611ab1565b92915050565b60606001805461067c90615369565b80601f01602080910402602001604051908101604052809291908181526020018280546106a890615369565b80156106f55780601f106106ca576101008083540402835291602001916106f5565b820191906000526020600020905b8154815290600101906020018083116106d857829003601f168201915b5050505050905090565b600061070a82611ad6565b610727576040516333d1c03960e21b815260040160405180910390fd5b506000908152600560205260409020546001600160a01b031690565b6007546001600160a01b031633146107905760405162461bcd60e51b815260206004820181905260248201526000805160206154de83398151915260448201526064015b60405180910390fd5b478111156107d25760405162461bcd60e51b815260206004820152600f60248201526e082dadeeadce840e8dede40d0d2ced608b1b6044820152606401610787565b60006107e66007546001600160a01b031690565b6040519091506001600160a01b0382169083156108fc029084906000818181858888f1935050505015801561081f573d6000803e3d6000fd5b505050565b600061082f82610b26565b9050806001600160a01b0316836001600160a01b031614156108645760405163250fdee360e21b815260040160405180910390fd5b336001600160a01b038216148015906108845750610882813361194b565b155b156108a2576040516367d9dca160e11b815260040160405180910390fd5b61081f838383611b0a565b61081f838383611b66565b6000828152600860209081526040808320815180830190925280546001600160a01b03168083526001909101549282018390528392612710906108fb90876152e4565b61090591906152ae565b92509250509250929050565b600061091c83610b38565b821061093b576040516306ed618760e11b815260040160405180910390fd5b600080546001600160801b03169080805b83811015610a0857600081815260036020908152604091829020825160608101845290546001600160a01b0381168252600160a01b810467ffffffffffffffff1692820192909252600160e01b90910460ff1615801592820192909252906109b45750610a00565b80516001600160a01b0316156109c957805192505b876001600160a01b0316836001600160a01b031614156109fe57868414156109f75750935061066792505050565b6001909301925b505b60010161094c565b50600080fd5b6007546001600160a01b03163314610a565760405162461bcd60e51b815260206004820181905260248201526000805160206154de8339815191526044820152606401610787565b610a5e611d92565b565b61081f8383836040518060200160405280600081525061137d565b600080546001600160801b031681805b82811015610b0c57600081815260036020908152604091829020825160608101845290546001600160a01b0381168252600160a01b810467ffffffffffffffff1692820192909252600160e01b90910460ff16151591810182905290610b035785831415610afc5750949350505050565b6001909201915b50600101610a8b565b506040516329c8c00760e21b815260040160405180910390fd5b6000610b3182611e38565b5192915050565b60006001600160a01b038216610b61576040516323d3ad8160e21b815260040160405180910390fd5b506001600160a01b031660009081526004602052604090205467ffffffffffffffff1690565b6007546001600160a01b03163314610bcf5760405162461bcd60e51b815260206004820181905260248201526000805160206154de8339815191526044820152606401610787565b610a5e6000611f5c565b6007546001600160a01b03163314610c215760405162461bcd60e51b815260206004820181905260248201526000805160206154de8339815191526044820152606401610787565b61045f61ffff82161115610c34575061045f5b6009805461ffff191661ffff92909216919091179055565b6007546001600160a01b03163314610c945760405162461bcd60e51b815260206004820181905260248201526000805160206154de8339815191526044820152606401610787565b60005b8151811015610d06576001600b6000848481518110610cc657634e487b7160e01b600052603260045260246000fd5b60209081029190910181015162ffffff168252810191909152604001600020805460ff191691151591909117905580610cfe816153a4565b915050610c97565b5050565b6007546001600160a01b03163314610d525760405162461bcd60e51b815260206004820181905260248201526000805160206154de8339815191526044820152606401610787565b610a5e611fae565b60606002805461067c90615369565b6001600160a01b038216331415610d935760405163b06307db60e01b815260040160405180910390fd5b3360008181526006602090815260408083206001600160a01b03871680855290835292819020805460ff191686151590811790915590519081529192917f17307eab39ab6107e8899845ad3d59bd9653f200f220920489ca2b5937696c31910160405180910390a35050565b60095460005461ffff9091166001600160801b03909116108015610e31575060005461045f6001600160801b03909116105b610e7d5760405162461bcd60e51b815260206004820152601360248201527f546f6b656e206c696d69742072656163686564000000000000000000000000006044820152606401610787565b600c54341015610ec05760405162461bcd60e51b815260206004820152600e60248201526d09cdee840cadcdeeaced0408aa8960931b6044820152606401610787565b60648b60ff161115610eff5760405162461bcd60e51b8152602060048201526008602482015267626164207a6f6f6d60c01b6044820152606401610787565b60ff8a60ff1611158015610f17575060ff8960ff1611155b8015610f27575060ff8860ff1611155b8015610f36575060e68760ff16105b610f6e5760405162461bcd60e51b81526020600482015260096024820152683130b21031b7b637b960b91b6044820152606401610787565b6101688661ffff1611158015610f88575060b48560ff1611155b610fc35760405162461bcd60e51b815260206004820152600c60248201526b3130b2103937ba30ba34b7b760a11b6044820152606401610787565b60198460ff1610158015610fdb575060fa8360ff1611155b8015610fed57508260ff168460ff1611155b61102c5760405162461bcd60e51b815260206004820152601060248201526f0c4c2c840e6e8e4d2e0ca40eed2c8e8d60831b6044820152606401610787565b60198260ff1610158015611044575060fa8160ff1611155b801561105657508060ff168260ff1611155b61108e5760405162461bcd60e51b8152602060048201526009602482015268189859081cdc19595960ba1b6044820152606401610787565b624c4b408c62ffffff161080156110ba575062ffffff8c166000908152600b602052604090205460ff16155b6110f85760405162461bcd60e51b815260206004820152600f60248201526e189859081c985b991bdb481cd95959608a1b6044820152606401610787565b6000546001600160801b038116906111179061ffff16336103e8612036565b6040518061018001604052808e62ffffff1681526020018d60ff1681526020018c60ff1681526020018b60ff1681526020018a60ff1681526020018960ff1681526020018861ffff1681526020018760ff1681526020018660ff1681526020018560ff1681526020018460ff1681526020018360ff16815250600a60008361ffff1661ffff16815260200190815260200160002060008201518160000160006101000a81548162ffffff021916908362ffffff16021790555060208201518160000160036101000a81548160ff021916908360ff16021790555060408201518160000160046101000a81548160ff021916908360ff16021790555060608201518160000160056101000a81548160ff021916908360ff16021790555060808201518160000160066101000a81548160ff021916908360ff16021790555060a08201518160000160076101000a81548160ff021916908360ff16021790555060c08201518160000160086101000a81548161ffff021916908361ffff16021790555060e082015181600001600a6101000a81548160ff021916908360ff16021790555061010082015181600001600b6101000a81548160ff021916908360ff16021790555061012082015181600001600c6101000a81548160ff021916908360ff16021790555061014082015181600001600d6101000a81548160ff021916908360ff16021790555061016082015181600001600e6101000a81548160ff021916908360ff16021790555090505061134f3360016120d0565b50505062ffffff9099166000908152600b60205260409020805460ff19166001179055505050505050505050565b611388848484611b66565b611394848484846120ea565b6113b1576040516368d2bf6b60e11b815260040160405180910390fd5b50505050565b60606113c282611ad6565b80156113cf575061045f82105b61140a5760405162461bcd60e51b815260206004820152600c60248201526b189859081d1bdad95b88125160a21b6044820152606401610787565b61ffff8083166000908152600a60209081526040808320815161018081018352905462ffffff8116825260ff63010000008204811694830185905264010000000082048116938301939093526501000000000081048316606083015266010000000000008104831660808301526701000000000000008104831660a0830152600160401b810490951660c0820152600160501b8504821660e0820152600160581b85048216610100820152600160601b85048216610120820152600160681b85048216610140820152600160701b9094041661016084015281906114ed906121f9565b9150915060008360e0015160ff1660001461152457604051806040016040528060048152602001636175746f60e01b815250611548565b6040518060400160405280600a8152602001696372697370456467657360b01b8152505b905060008260405160200161155d919061517f565b6040516020818303038152906040529050600061157986612313565b9050848383836040516020016115929493929190614e8d565b6040516020818303038152906040529650505050505050919050565b60606115b982611ad6565b6115f85760405162461bcd60e51b815260206004820152601060248201526f125108191bd95cdb89dd08195e1a5cdd60821b6044820152606401610787565b61045f821061163c5760405162461bcd60e51b815260206004820152601060248201526f125108191bd95cdb89dd08195e1a5cdd60821b6044820152606401610787565b61ffff8083166000908152600a60209081526040808320815161018081018352905462ffffff8116825260ff6301000000820481169483019490945264010000000081048416928201929092526501000000000082048316606082015266010000000000008204831660808201526701000000000000008204831660a0820152600160401b820490941660c0850152600160501b8104821660e0850152600160581b81048216610100850152600160601b81048216610120850152600160681b81048216610140850152600160701b9004166101608301529061171e906124b6565b905060006040516020016117ed907f22636f70797269676874223a2022486f6c646572206f662074686973204e465481527f206f776e732069747320636f707972696768742e2053616c65206f662074686960208201527f73204e46542061737369676e7320636f7079726967687420746f20627579657260408201527f2e20427579657220262073656c6c6572206167726565207061796d656e74206f60608201527f6620726f79616c747920746f206d696e746572206f6e2073616c652e220000006080820152609d0190565b60408051601f1981840301815261ffff8088166000908152600a6020908152848220610180870186525462ffffff8116875260ff6301000000820481169288019290925264010000000081048216958701959095526501000000000085048116606087015266010000000000008504811660808701526701000000000000008504811660a0870152600160401b850490921660c0860152600160501b8404821660e0860152600160581b84048216610100860152600160601b84048216610120860152600160681b84048216610140860152600160701b909304166101608401529250906118da90612538565b905060006118e7866113b7565b90506119216118f587612559565b8585858560405160200161190d959493929190614bec565b604051602081830303815290604052612652565b9695505050505050565b60606040518060600160405280602f815260200161546f602f9139905090565b60006001600160a01b0382167358807bad0b376efc12f5ad86aac70e78ed67deae141561197a57506001610667565b6001600160a01b0380841660009081526006602090815260408083209386168352929052205460ff165b9392505050565b6007546001600160a01b031633146119f35760405162461bcd60e51b815260206004820181905260248201526000805160206154de8339815191526044820152606401610787565b6001600160a01b038116611a585760405162461bcd60e51b815260206004820152602660248201527f4f776e61626c653a206e6577206f776e657220697320746865207a65726f206160448201526564647265737360d01b6064820152608401610787565b611a6181611f5c565b50565b6007546001600160a01b03163314611aac5760405162461bcd60e51b815260206004820181905260248201526000805160206154de8339815191526044820152606401610787565b600c55565b60006001600160e01b0319821663152a902d60e11b14806106675750610667826127c6565b600080546001600160801b031682108015610667575050600090815260036020526040902054600160e01b900460ff161590565b60008281526005602052604080822080546001600160a01b0319166001600160a01b0387811691821790925591518593918516917f8c5be1e5ebec7d5bd14f71427d1e84f3dd0314c0f7b2291e5b200ac8c7c3b92591a4505050565b6000611b7182611e38565b80519091506000906001600160a01b0316336001600160a01b03161480611b9f57508151611b9f903361194b565b80611bba575033611baf846106ff565b6001600160a01b0316145b905080611bda57604051632ce44b5f60e11b815260040160405180910390fd5b846001600160a01b031682600001516001600160a01b031614611c0f5760405162a1148160e81b815260040160405180910390fd5b6001600160a01b038416611c3657604051633a954ecd60e21b815260040160405180910390fd5b611c4385858560016127d1565b611c536000848460000151611b0a565b6001600160a01b038581166000908152600460209081526040808320805467ffffffffffffffff1980821667ffffffffffffffff92831660001901831617909255898616808652838620805493841693831660019081018416949094179055898652600390945282852080546001600160e01b031916909417600160a01b429092169190910217909255908601808352912054909116611d48576000546001600160801b0316811015611d48578251600082815260036020908152604090912080549186015167ffffffffffffffff16600160a01b026001600160e01b03199092166001600160a01b03909316929092171790555b5082846001600160a01b0316866001600160a01b03167fddf252ad1be2c89b69c2b068fc378daa952ba7f163c4a11628f55a4df523b3ef60405160405180910390a45b5050505050565b600754600160a01b900460ff16611deb5760405162461bcd60e51b815260206004820152601460248201527f5061757361626c653a206e6f74207061757365640000000000000000000000006044820152606401610787565b6007805460ff60a01b191690557f5db9ee0a495bf2e6ff9c91a7834c1ba4fdd244a5e8aa4e537bd38aeae4b073aa335b6040516001600160a01b03909116815260200160405180910390a1565b60408051606081018252600080825260208201819052918101829052905482906001600160801b0316811015611f4357600081815260036020908152604091829020825160608101845290546001600160a01b0381168252600160a01b810467ffffffffffffffff1692820192909252600160e01b90910460ff16151591810182905290611f415780516001600160a01b031615611ed7579392505050565b5060001901600081815260036020908152604091829020825160608101845290546001600160a01b038116808352600160a01b820467ffffffffffffffff1693830193909352600160e01b900460ff1615159281019290925215611f3c579392505050565b611ed7565b505b604051636f96cda160e11b815260040160405180910390fd5b600780546001600160a01b038381166001600160a01b0319831681179093556040519116919082907f8be0079c531659141344cd1fd0a4f28419497f9722a3daafe3b4186f6b6457e090600090a35050565b600754600160a01b900460ff1615611ffb5760405162461bcd60e51b815260206004820152601060248201526f14185d5cd8589b194e881c185d5cd95960821b6044820152606401610787565b6007805460ff60a01b1916600160a01b1790557f62e78cea01bee320cd4e420270b5ea74000d11b0c9f74754ebdbfc544b05a258611e1b3390565b6127108111156120885760405162461bcd60e51b815260206004820152601a60248201527f45524332393831526f79616c746965733a20546f6f20686967680000000000006044820152606401610787565b6040805180820182526001600160a01b03938416815260208082019384526000958652600890529320925183546001600160a01b031916921691909117825551600190910155565b610d06828260405180602001604052806000815250612823565b60006001600160a01b0384163b156121ed57604051630a85bd0160e11b81526001600160a01b0385169063150b7a029061212e9033908990889088906004016151fa565b602060405180830381600087803b15801561214857600080fd5b505af1925050508015612178575060408051601f3d908101601f191682019092526121759181019061477c565b60015b6121d3573d8080156121a6576040519150601f19603f3d011682016040523d82523d6000602084013e6121ab565b606091505b5080516121cb576040516368d2bf6b60e11b815260040160405180910390fd5b805181602001fd5b6001600160e01b031916630a85bd0160e11b1490506121f1565b5060015b949350505050565b6060806122078360146152e4565b9250600061221f61221a856103e8615296565b612559565b90506103e88411156122ab576000612248600261223e6103e888615303565b61221a91906152ae565b90506000818284856040516020016122639493929190615062565b604051602081830303815290604052905060008283858660405160200161228d9493929190614d5e565b60408051601f19818403018152919052919791965090945050505050565b60006122ce856103e8146122c757600261223e876103e8615303565b6000612559565b90506000818284856040516020016122e99493929190614b42565b604051602081830303815290604052905060008283858660405160200161228d9493929190614fae565b80516040805160208101909152600080825260609262ffffff16915b600061233d836107d0615303565b11156121f15760006123608487610100015160ff1688610120015160ff16612830565b61236b9060026152e4565b9050612379836107d0615303565b8111156123935761238c836107d0615303565b90506123dd565b61010086015160ff16816123a9856107d0615303565b6123b39190615303565b10156123dd57806123c6846107d0615303565b6123d09190615303565b6123da9082615296565b90505b60006123f36123ed866003615296565b88612897565b905060008161240c61240688600d615296565b8a612897565b8360405160200161241f93929190614bba565b60405160208183030381529060405290508361243a86612559565b61244385612559565b846124586124528b6001615296565b8d61292a565b61246c6124668c6002615296565b8e612a05565b86604051602001612483979695949392919061490e565b60408051601f19818403018152919052935061249f8386615296565b94506124ac606487615296565b955050505061232f565b60606124d18260a00151836101400151846101600151612a3a565b6124ed8360400151846060015185608001518660a00151612e24565b61251084602001518560c001518660e001518761010001518861012001516133b9565b60405160200161252293929190614ae8565b6040516020818303038152906040529050919050565b606060405180606001604052806022815260200161544d6022913992915050565b60608161257d5750506040805180820190915260018152600360fc1b602082015290565b8160005b811561259557600101600a82049150612581565b60008167ffffffffffffffff8111156125be57634e487b7160e01b600052604160045260246000fd5b6040519080825280601f01601f1916602001820160405280156125e8576020820181803683370190505b508593509050815b831561264957600a840660300160f81b8282600190039250828151811061262757634e487b7160e01b600052603260045260246000fd5b60200101906001600160f81b031916908160001a905350600a840493506125f0565b50949350505050565b606081516000141561267257505060408051602081019091526000815290565b600060405180606001604052806040815260200161549e60409139905060006003845160026126a19190615296565b6126ab91906152ae565b6126b69060046152e4565b905060006126c5826020615296565b67ffffffffffffffff8111156126eb57634e487b7160e01b600052604160045260246000fd5b6040519080825280601f01601f191660200182016040528015612715576020820181803683370190505b509050818152600183018586518101602084015b81831015612781576003830192508251603f8160121c168501518253600182019150603f81600c1c168501518253600182019150603f8160061c168501518253600182019150603f8116850151825350600101612729565b60038951066001811461279b57600281146127ac576127b8565b613d3d60f01b6001198301526127b8565b603d60f81b6000198301525b509398975050505050505050565b600061066782613fec565b600754600160a01b900460ff161561281e5760405162461bcd60e51b815260206004820152601060248201526f14185d5cd8589b194e881c185d5cd95960821b6044820152606401610787565b6113b1565b61081f8383836001614057565b60008282116128405750816119a4565b60008460405160200161285591815260200190565b60408051601f19818403018152919052805160209091012090508361287a8185615303565b61288490836153e0565b61288e9190615296565b95945050505050565b606060006128c06128ab85600060ff612830565b846040015160ff168560a0015160ff166141fa565b905060006128f36128de6128d5876001615296565b600060ff612830565b856060015160ff168660a0015160ff166141fa565b9050600061291d6129086128d5886002615296565b866080015160ff168760a0015160ff166141fa565b905061192183838361423b565b606060006129418460008560e0015160ff16612830565b9050600081612959575060c083015161ffff166129e3565b8360e0015160ff168210156129ae5760028460e0015161297991906152c2565b60ff16828560c0015161016861298f9190615270565b61ffff1661299d9190615303565b6129a79190615296565b90506129e3565b60028460e001516129bf91906152c2565b60ff16828560c0015161ffff166129d69190615296565b6129e09190615303565b90505b6101688111156129fc576129f961016882615303565b90505b61288e81612559565b60606000612a248484610140015160ff1685610160015160ff16612830565b612a2f9060146152e4565b90506121f181612559565b60608060828560ff16118015612a53575060dc8460ff16115b15612a7c57506040805180820190915260078152661b185b99dd5a5960ca1b60208201526121f1565b60828560ff16118015612a92575060c88460ff16115b15612abe575060408051808201909152600a8152693832b232b9ba3934b0b760b11b60208201526121f1565b60198360ff1611158015612ad5575060b48560ff16105b15612afc57506040805180820190915260058152646d616e696360d81b6020820152612d81565b8260ff168460ff161415612b9157601e8360ff161015612b3b5750604080518082019091526008815267626c696e6b696e6760c01b6020820152612d81565b60c88360ff161115612b6d57506040805180820190915260098152687468726f6262696e6760b81b6020820152612d81565b5060408051808201909152600781526670756c73696e6760c81b6020820152612d81565b60238360ff161015612bc25750604080518082019091526008815267666c617368696e6760c01b6020820152612d81565b60468360ff161015612bf5575060408051808201909152600a815269666c69636b6572696e6760b01b6020820152612d81565b60698360ff161015612c275750604080518082019091526009815268717569766572696e6760b81b6020820152612d81565b60968360ff161015612c595750604080518082019091526009815268766962726174696e6760b81b6020820152612d81565b60c88460ff161115612c8c575060408051808201909152600a8152696d65616e646572696e6760b01b6020820152612d81565b60968460ff161115612cbd57506040805180820190915260088152676472696674696e6760c01b6020820152612d81565b60788460ff161115612ced5750604080518082019091526007815266666c6f77696e6760c81b6020820152612d81565b60648460ff161115612d1e57506040805180820190915260088152677368696674696e6760c01b6020820152612d81565b6096612d2a858561531a565b60ff161115612d5d575060408051808201909152600d81526c7363696e74696c6c6174696e6760981b6020820152612d81565b5060408051808201909152600b81526a6f7363696c6c6174696e6760a81b60208201525b60d58560ff161115612db45780604051602001612d9e9190615120565b60405160208183030381529060405290506121f1565b60c88560ff161115612dd15780604051602001612d9e919061514f565b60148560ff161015612dee5780604051602001612d9e9190614d28565b60328560ff1610156121f15780604051602001612e0b91906150ed565b6040516020818303038152906040529050949350505050565b606080607f8360ff1611156132d157609660c860ff8516118015612e4b575060328760ff16105b8015612e5a575060328660ff16105b8015612e69575060328560ff16105b15612e945760405180604001604052806006815260200165676c6f6f6d7960d01b81525091506132cb565b60c88460ff16118015612eaa575060c88760ff16115b8015612eb9575060c88660ff16115b8015612ec8575060c88560ff16115b15612ef1576040518060400160405280600481526020016370616c6560e01b81525091506132cb565b8560ff168760ff16118015612f12575080612f0c878961531a565b60ff1610155b8015612f2357508460ff168760ff16115b8015612f3b575080612f35868961531a565b60ff1610155b15612f6357604051806040016040528060038152602001621c995960ea1b81525091506132cb565b8660ff168660ff16118015612f79575060ff8516155b15612fa3576040518060400160405280600581526020016433b932b2b760d91b81525091506132cb565b8660ff168660ff16118015612fc4575080612fbe888861531a565b60ff1610155b8015612fd557508460ff168660ff16115b8015612fed575080612fe7868861531a565b60ff1610155b15613017576040518060400160405280600581526020016433b932b2b760d91b81525091506132cb565b8660ff168560ff16118015613038575080613032888761531a565b60ff1610155b801561304957508560ff168560ff16115b801561306157508061305b878761531a565b60ff1610155b1561308a5760405180604001604052806004815260200163626c756560e01b81525091506132cb565b8660ff1660ff14801561309e575060ff8616155b80156130ad575060648560ff16115b156130d6576040518060400160405280600481526020016370696e6b60e01b81525091506132cb565b8560ff168760ff161180156130f75750806130f1878961531a565b60ff1610155b801561310857508560ff168560ff16115b801561312057508061311a878761531a565b60ff1610155b801561312f575060c88760ff16115b1561315a5760405180604001604052806006815260200165707572706c6560d01b81525091506132cb565b8660ff1660ff14801561316e575060ff8516155b801561317d575060c88660ff16115b156131a8576040518060400160405280600681526020016579656c6c6f7760d01b81525091506132cb565b8660ff1660ff1480156131bc575060ff8516155b156131e757604051806040016040528060068152602001656f72616e676560d01b81525091506132cb565b60ff87161580156131fb575060c88660ff16105b801561320a57508460ff1660ff145b156132335760405180604001604052806004815260200163626c756560e01b81525091506132cb565b8660ff168560ff1611801561325457508061324e888761531a565b60ff1610155b801561326557508660ff168660ff16115b801561327d575080613277888861531a565b60ff1610155b156132a6576040518060400160405280600481526020016331bcb0b760e11b81525091506132cb565b604051806040016040528060098152602001681cd85d1d5c985d195960ba1b81525091505b5061288e565b60ff8316613303575060408051808201909152600d81526c6b616c6569646f73636f70696360981b602082015261288e565b60198360ff16101561333557506040805180820190915260098152686368726f6d6174696360b81b602082015261288e565b60328360ff16101561336357506040805180820190915260058152641d9a5d9a5960da1b602082015261288e565b60558360ff16101561339257506040805180820190915260068152651d1a5b99d95960d21b602082015261288e565b506040805180820190915260068152651d1a5b9d195960d21b602082015295945050505050565b6060806133c760b4876153bf565b955060ff85166135805760328760ff161180156133f057506133ea605a876153bf565b61ffff16155b15613420575060408051808201909152600e81526d706572666563742073717561726560901b6020820152611921565b605b8760ff1611801561344557508561ffff16602d148061344557508561ffff166087145b15613476575060408051808201909152600f81526e1c195c999958dd08191a585b5bdb99608a1b6020820152611921565b60328760ff161115801561348c575061ffff8616155b156134be575060408051808201909152601081526f766572746963616c207374726970657360801b6020820152611921565b60328760ff16111580156134de57506134d8605a876153bf565b61ffff16155b1561351d575060408051808201909152601281527f686f72697a6f6e74616c207374726970657300000000000000000000000000006020820152611921565b60198760ff1611613555575060408051808201909152601081526f646961676f6e616c207374726970657360801b6020820152611921565b5060408051808201909152600e81526d726f74617465642073717561726560901b6020820152611921565b601e8760ff1610156137ca5760148760ff161080156135a2575060468460ff16115b80156135b15750603c8560ff16105b80156135c05750600a8560ff16115b156135e95750604080518082019091526007815266726962626f6e7360c81b6020820152611921565b60148760ff161080156135ff5750601e8560ff16105b801561360e575060c88460ff16115b15613637575060408051808201909152600781526662616e6e65727360c81b6020820152611921565b60148760ff1610801561364d5750604b8360ff16105b801561365c5750603c8560ff16105b801561366b5750600a8560ff16115b15613696575060408051808201909152600981526873747265616d65727360b81b6020820152611921565b603c8360ff161080156136ac575060828560ff16115b156136d9575060408051808201909152600b81526a6c61736572206265616d7360a81b6020820152611921565b60788360ff161080156136f15750602d8661ffff1610155b8015613701575060878661ffff16105b1561372857506040805180820190915260058152646265616d7360d81b6020820152611921565b60788360ff1610801561373e5750605a8560ff16105b156137655750604080518082019091526005815264706f6c657360d81b6020820152611921565b602d8661ffff161015801561377e575060878661ffff16105b156137a7575060408051808201909152600781526673747265616b7360c81b6020820152611921565b5060408051808201909152600681526573686166747360d01b6020820152611921565b60328760ff161180156137e05750603c8360ff16105b80156137ef5750601e8560ff16105b1561381d575060408051808201909152600c81526b6d6174636820737469636b7360a01b6020820152611921565b60328760ff161180156138335750603c8360ff16105b80156138425750603c8560ff16105b15613881575060408051808201909152601681527f736361747465726564206d6174636820737469636b73000000000000000000006020820152611921565b60328760ff16118015613897575060468460ff16115b80156138a65750606e8360ff16105b80156138b55750600a8560ff16115b80156138c4575060288560ff16105b156138eb5750604080518082019091526005815264747769677360d81b6020820152611921565b60328760ff16118015613901575060468460ff16115b80156139105750606e8360ff16105b801561391f5750600a8560ff16115b801561392e5750603c8560ff16105b1561395f575060408051808201909152600f81526e73636174746572656420747769677360881b6020820152611921565b60508760ff161180156139755750603c8360ff16105b8015613984575060828560ff16115b156139b0575060408051808201909152600a815269189a5c991cc81b995cdd60b21b6020820152611921565b60468760ff161180156139c6575060468560ff16105b80156139d5575060c88460ff16115b80156139f5575060198661ffff161115806139f55750609b8661ffff1610155b15613a1e575060408051808201909152600781526670696c6c61727360c81b6020820152611921565b60468760ff16118015613a34575060468560ff16105b8015613a43575060c88460ff16115b8015613a64575060738661ffff1611158015613a64575060418661ffff1610155b15613a8c5750604080518082019091526006815265627269636b7360d01b6020820152611921565b60378760ff16118015613aa2575060468460ff16115b8015613ab2575060058560ff1610155b8015613ac25750601e8560ff1611155b8015613ae25750600a8661ffff16111580613ae2575060aa8661ffff1610155b15613b13575060408051808201909152600f81526e636c7574746572656420626f6f6b7360881b6020820152611921565b60378760ff16118015613b29575060468460ff16115b8015613b395750601e8560ff1611155b8015613b4a575060508661ffff1610155b8015613b5b575060648661ffff1611155b15613b8a575060408051808201909152600d81526c737461636b656420626f6f6b7360981b6020820152611921565b60378760ff16118015613ba0575060468460ff16115b8015613baf5750603c8560ff16105b8015613bc0575060328661ffff1610155b8015613bd1575060828661ffff1611155b15613c01575060408051808201909152600e81526d74756d626c696e6720626f6f6b7360901b6020820152611921565b60378760ff16118015613c17575060328460ff16115b8015613c26575060968360ff16105b8015613c35575060328560ff16105b8015613c46575060508661ffff1610155b8015613c57575060648661ffff1611155b15613c86575060408051808201909152600d81526c313937b5b2b7103630b23232b960991b6020820152611921565b60378760ff16118015613c9c5750600a8560ff16115b8015613cab5750603c8560ff16105b8015613cbc575060328661ffff1610155b8015613ccd575060828661ffff1611155b8015613ce657506096613ce0858561531a565b60ff1610155b15613d25575060408051808201909152601381527f636f6c6c617073696e67206275696c64696e67000000000000000000000000006020820152611921565b60198460ff16118015613d3b575060c88360ff16105b8015613d4b5750600f8560ff1611155b15613d7457506040805180820190915260078152666a69747465727360c81b6020820152611921565b60198460ff16118015613d8a575060c88360ff16105b8015613d9a5750602d8560ff1611155b15613dc35750604080518082019091526007815266776f62626c657360c81b6020820152611921565b60328760ff16118015613dd9575060c88460ff16115b15613e015750604080518082019091526006815265626c6f636b7360d01b6020820152611921565b605a8760ff16118015613e2157506096613e1b858561531a565b60ff1610155b8015613e30575060968560ff16115b15613e5d575060408051808201909152600b81526a6d6173746572706965636560a81b6020820152611921565b60648560ff16118015613e73575060968360ff16105b15613e9b57506040805180820190915260068152656c756e61637960d01b6020820152611921565b603c8560ff16108015613eb1575060968460ff16115b15613ede575060408051808201909152600b81526a7472616e7175696c69747960a81b6020820152611921565b60788460ff161115613f0b57506040805180820190915260048152636261727360e01b6020820152611921565b60648360ff16108015613f215750603c8560ff16115b15613f52575060408051808201909152600f81526e736361747465726564206c696e657360881b6020820152611921565b60648360ff161015613f8057506040805180820190915260058152646c696e657360d81b6020820152611921565b60288760ff16118015613f965750605a8560ff16115b15613fbf57506040805180820190915260078152667265766572696560c81b6020820152611921565b5060408051808201909152600b81526a30b139ba3930b1ba34b7b760a91b60208201529695505050505050565b60006001600160e01b031982166380ac58cd60e01b148061401d57506001600160e01b03198216635b5e139f60e01b145b8061403857506001600160e01b0319821663780e9d6360e01b145b8061066757506301ffc9a760e01b6001600160e01b0319831614610667565b6000546001600160801b03166001600160a01b03851661408957604051622e076360e81b815260040160405180910390fd5b836140a75760405163b562e8dd60e01b815260040160405180910390fd5b6140b460008683876127d1565b6001600160a01b038516600081815260046020908152604080832080546fffffffffffffffffffffffffffffffff19811667ffffffffffffffff8083168c018116918217600160401b67ffffffffffffffff1990941690921783900481168c018116909202179091558584526003909252822080546001600160e01b031916909317600160a01b42909216919091021790915581905b858110156141cb5760405182906001600160a01b038916906000907fddf252ad1be2c89b69c2b068fc378daa952ba7f163c4a11628f55a4df523b3ef908290a48380156141a1575061419f60008884886120ea565b155b156141bf576040516368d2bf6b60e11b815260040160405180910390fd5b6001918201910161414a565b50600080546fffffffffffffffffffffffffffffffff19166001600160801b0392909216919091179055611d8b565b60008161420b575060ff83166119a4565b6000838511614224575060ff8484038302048401614230565b5060ff83850383020484035b60ff16949350505050565b606061424684614282565b61424f84614282565b61425884614282565b60405160200161426a93929190614e14565b60405160208183030381529060405290509392505050565b606061010082106142c55760405162461bcd60e51b815260206004820152600d60248201526c696e70757420746f6f2062696760981b6044820152606401610787565b816142e75750506040805180820190915260018152600360fc1b602082015290565b6060600a8310156143595760408051600180825281830190925290602082018180368337019050509050600a835b0660300160f81b8160008151811061433d57634e487b7160e01b600052603260045260246000fd5b60200101906001600160f81b031916908160001a905350610667565b60648310156143cd5760408051600280825281830190925290602082018180368337019050509050600a830660300160f81b816001815181106143ac57634e487b7160e01b600052603260045260246000fd5b60200101906001600160f81b031916908160001a905350600a808404614315565b60408051600380825281830190925290602082018180368337019050509050600a830660300160f81b8160028151811061441757634e487b7160e01b600052603260045260246000fd5b60200101906001600160f81b031916908160001a905350600a8084040660300160f81b8160018151811061445b57634e487b7160e01b600052603260045260246000fd5b60200101906001600160f81b031916908160001a905350600a606484040660300160f81b816000815181106144a057634e487b7160e01b600052603260045260246000fd5b60200101906001600160f81b031916908160001a90535092915050565b80356001600160a01b03811681146144d457600080fd5b919050565b803561ffff811681146144d457600080fd5b803562ffffff811681146144d457600080fd5b803560ff811681146144d457600080fd5b600060208284031215614520578081fd5b6119a4826144bd565b6000806040838503121561453b578081fd5b614544836144bd565b9150614552602084016144bd565b90509250929050565b60008060006060848603121561456f578081fd5b614578846144bd565b9250614586602085016144bd565b9150604084013590509250925092565b600080600080608085870312156145ab578081fd5b6145b4856144bd565b935060206145c38187016144bd565b935060408601359250606086013567ffffffffffffffff808211156145e6578384fd5b818801915088601f8301126145f9578384fd5b81358181111561460b5761460b615420565b61461d601f8201601f1916850161523f565b91508082528984828501011115614632578485fd5b8084840185840137810190920192909252939692955090935050565b60008060408385031215614660578182fd5b614669836144bd565b91506020830135801515811461467d578182fd5b809150509250929050565b6000806040838503121561469a578182fd5b6146a3836144bd565b946020939093013593505050565b600060208083850312156146c3578182fd5b823567ffffffffffffffff808211156146da578384fd5b818501915085601f8301126146ed578384fd5b8135818111156146ff576146ff615420565b8060051b915061471084830161523f565b8181528481019084860184860187018a101561472a578788fd5b8795505b838610156147535761473f816144eb565b83526001959095019491860191860161472e565b5098975050505050505050565b600060208284031215614771578081fd5b81356119a481615436565b60006020828403121561478d578081fd5b81516119a481615436565b6000602082840312156147a9578081fd5b6119a4826144d9565b6000806000806000806000806000806000806101808d8f0312156147d4578788fd5b6147dd8d6144eb565b9b506147eb60208e016144fe565b9a506147f960408e016144fe565b995061480760608e016144fe565b985061481560808e016144fe565b975061482360a08e016144fe565b965061483160c08e016144d9565b955061483f60e08e016144fe565b945061484e6101008e016144fe565b935061485d6101208e016144fe565b925061486c6101408e016144fe565b915061487b6101608e016144fe565b90509295989b509295989b509295989b565b60006020828403121561489e578081fd5b5035919050565b600080604083850312156148b7578182fd5b50508035926020909101359150565b600081518084526148de81602086016020860161533d565b601f01601f19169290920160200192915050565b6000815161490481856020860161533d565b9290920192915050565b60008851614920818460208d0161533d565b683c7265637420783d2760b81b9083019081528851614946816009840160208d0161533d565b6e2720793d2730272077696474683d2760881b600992909101918201528751614976816018840160208c0161533d565b7f27206865696768743d2732303030272066696c6c3d27000000000000000000006018929091019182015286516149b481602e840160208b0161533d565b6e27206f7061636974793d27302e382760881b602e92909101918201527f207472616e73666f726d3d27726f746174652800000000000000000000000000603d820152614ada614a8b614a85614a52614a4c614a13605087018c6148f2565b7f2031303030203130303029273e3c616e696d61746520626567696e3d2027307381526627206475723d2760c81b602082015260270190565b896148f2565b7f6d7327206174747269627574654e616d653d2766696c6c272076616c7565733d8152602760f81b602082015260210190565b866148f2565b7f3b272066696c6c3d27667265657a652720726570656174436f756e743d27696e81527f646566696e697465272f3e3c2f726563743e0000000000000000000000000000602082015260320190565b9a9950505050505050505050565b60008451614afa81846020890161533d565b8083019050600160fd1b8082528551614b1a816001850160208a0161533d565b60019201918201528351614b3581600284016020880161533d565b0160020195945050505050565b60008551614b54818460208a0161533d565b8083019050600160fd1b8082528651614b74816001850160208b0161533d565b600192019182018190528551614b91816002850160208a0161533d565b60029201918201528351614bac81600384016020880161533d565b016003019695505050505050565b60008451614bcc81846020890161533d565b8083019050603b60f81b8082528551614b1a816001850160208a0161533d565b7f646174613a6170706c69636174696f6e2f6a736f6e3b6261736536342c7b226e815269616d65223a224453202360b01b602082015260008651614c3781602a850160208b0161533d565b6101d160f51b602a918401918201528651614c5981602c840160208b0161533d565b7f222c20226465736372697074696f6e223a20226f6e2d636861696e2067656e65602c92909101918201527f7261746976652044796e615374726970657320617274776f726b222c20000000604c8201528551614cbd816069840160208a0161533d565b8551910190614cd381606984016020890161533d565b7f2c2022696d616765223a22646174613a696d6167652f7376672b786d6c2c000060699290910191820152614d1c614d0e60878301866148f2565b61227d60f01b815260020190565b98975050505050505050565b6d036b0b3b734b334b1b2b73a363c960951b815260008251614d5181600e85016020870161533d565b91909101600e0192915050565b63783d272d60e01b815260008551614d7d816004850160208a0161533d565b652720793d272d60d01b6004918401918201528551614da381600a840160208a0161533d565b68272077696474683d2760b81b600a92909101918201528451614dcd81601384016020890161533d565b6927206865696768743d2760b01b601392909101918201528351614df881601d84016020880161533d565b602760f81b601d9290910191820152601e019695505050505050565b630e4cec4560e31b815260008451614e3381600485016020890161533d565b808301905061016160f51b8060048301528551614e57816006850160208a0161533d565b60069201918201528351614e7281600884016020880161533d565b602960f81b6008929091019182015260090195945050505050565b7f3c73766720786d6c6e733d27687474703a2f2f7777772e77332e6f72672f323081527f30302f737667272076696577426f783d27000000000000000000000000000000602082015260008551614eeb816031850160208a0161533d565b7f272073686170652d72656e646572696e673d27000000000000000000000000006031918401918201528551614f28816044840160208a0161533d565b61139f60f11b604492909101918201528451614f4b81604684016020890161533d565b7f3c6720636c69702d706174683d2775726c28236d6173746572436c697029273e604692909101918201528351614f8981606684016020880161533d565b691e17b39f1e17b9bb339f60b11b606692909101918201526070019695505050505050565b62783d2760e81b815260008551614fcc816003850160208a0161533d565b642720793d2760d81b6003918401918201528551614ff1816008840160208a0161533d565b68272077696474683d2760b81b60089290910191820152845161501b81601184016020890161533d565b6927206865696768743d2760b01b60119290910191820152835161504681601b84016020880161533d565b602760f81b601b9290910191820152601c019695505050505050565b602d60f81b81526000855161507e816001850160208a0161533d565b61202d60f01b60019184019182015285516150a0816003840160208a0161533d565b808201915050600160fd1b80600383015285516150c4816004850160208a0161533d565b600492019182015283516150df81600584016020880161533d565b016005019695505050505050565b6a03837bbb2b9333ab6363c960ad1b81526000825161511381600b85016020870161533d565b91909101600b0192915050565b66033b2b73a363c960cd1b81526000825161514281600785016020870161533d565b9190910160070192915050565b6703a32b834b2363c960c51b81526000825161517281600885016020870161533d565b9190910160080192915050565b7f3c646566733e3c636c6970506174682069643d276d6173746572436c6970273e81526501e3932b1ba160d51b6020820152600082516151c681602685016020870161533d565b7f2f3e3c2f636c6970506174683e3c2f646566733e0000000000000000000000006026939091019283015250603a01919050565b60006001600160a01b0380871683528086166020840152508360408301526080606083015261192160808301846148c6565b6020815260006119a460208301846148c6565b604051601f8201601f1916810167ffffffffffffffff8111828210171561526857615268615420565b604052919050565b600061ffff80831681851680830382111561528d5761528d6153f4565b01949350505050565b600082198211156152a9576152a96153f4565b500190565b6000826152bd576152bd61540a565b500490565b600060ff8316806152d5576152d561540a565b8060ff84160491505092915050565b60008160001904831182151516156152fe576152fe6153f4565b500290565b600082821015615315576153156153f4565b500390565b600060ff821660ff841680821015615334576153346153f4565b90039392505050565b60005b83811015615358578181015183820152602001615340565b838111156113b15750506000910152565b600181811c9082168061537d57607f821691505b6020821081141561539e57634e487b7160e01b600052602260045260246000fd5b50919050565b60006000198214156153b8576153b86153f4565b5060010190565b600061ffff808416806153d4576153d461540a565b92169190910692915050565b6000826153ef576153ef61540a565b500690565b634e487b7160e01b600052601160045260246000fd5b634e487b7160e01b600052601260045260246000fd5b634e487b7160e01b600052604160045260246000fd5b6001600160e01b031981168114611a6157600080fdfe2261747472696275746573223a5b7b226973737565223a20227365636f6e64227d5d68747470733a2f2f7777772e64796e61737472697065732e636f6d2f73746f726566726f6e742d6d657461646174614142434445464748494a4b4c4d4e4f505152535455565758595a6162636465666768696a6b6c6d6e6f707172737475767778797a303132333435363738392b2f4f776e61626c653a2063616c6c6572206973206e6f7420746865206f776e6572a2646970667358221220d9c19a696851b8246c1086054564606c7c8319883af32fecb179e77750ce05c664736f6c63430008040033",
  "linkReferences": {},
  "deployedLinkReferences": {}
}