{
  "_format": "hh-sol-artifact-1",
  "contractName": "DynaStripes",
  "sourceName": "contracts/DynaStripes.sol",
  "abi": [
    {
      "inputs": [],
      "stateMutability": "nonpayable",
      "type": "constructor"
    },
    {
      "anonymous": false,
      "inputs": [
        {
          "indexed": true,
          "internalType": "address",
          "name": "owner",
          "type": "address"
        },
        {
          "indexed": true,
          "internalType": "address",
          "name": "approved",
          "type": "address"
        },
        {
          "indexed": true,
          "internalType": "uint256",
          "name": "tokenId",
          "type": "uint256"
        }
      ],
      "name": "Approval",
      "type": "event"
    },
    {
      "anonymous": false,
      "inputs": [
        {
          "indexed": true,
          "internalType": "address",
          "name": "owner",
          "type": "address"
        },
        {
          "indexed": true,
          "internalType": "address",
          "name": "operator",
          "type": "address"
        },
        {
          "indexed": false,
          "internalType": "bool",
          "name": "approved",
          "type": "bool"
        }
      ],
      "name": "ApprovalForAll",
      "type": "event"
    },
    {
      "anonymous": false,
      "inputs": [
        {
          "indexed": true,
          "internalType": "address",
          "name": "previousOwner",
          "type": "address"
        },
        {
          "indexed": true,
          "internalType": "address",
          "name": "newOwner",
          "type": "address"
        }
      ],
      "name": "OwnershipTransferred",
      "type": "event"
    },
    {
      "anonymous": false,
      "inputs": [
        {
          "indexed": false,
          "internalType": "address",
          "name": "account",
          "type": "address"
        }
      ],
      "name": "Paused",
      "type": "event"
    },
    {
      "anonymous": false,
      "inputs": [
        {
          "indexed": true,
          "internalType": "address",
          "name": "from",
          "type": "address"
        },
        {
          "indexed": true,
          "internalType": "address",
          "name": "to",
          "type": "address"
        },
        {
          "indexed": true,
          "internalType": "uint256",
          "name": "tokenId",
          "type": "uint256"
        }
      ],
      "name": "Transfer",
      "type": "event"
    },
    {
      "anonymous": false,
      "inputs": [
        {
          "indexed": false,
          "internalType": "address",
          "name": "account",
          "type": "address"
        }
      ],
      "name": "Unpaused",
      "type": "event"
    },
    {
      "inputs": [],
      "name": "ROYALTY_BPS",
      "outputs": [
        {
          "internalType": "uint16",
          "name": "",
          "type": "uint16"
        }
      ],
      "stateMutability": "view",
      "type": "function"
    },
    {
      "inputs": [],
      "name": "TOKEN_LIMIT",
      "outputs": [
        {
          "internalType": "uint16",
          "name": "",
          "type": "uint16"
        }
      ],
      "stateMutability": "view",
      "type": "function"
    },
    {
      "inputs": [
        {
          "internalType": "address",
          "name": "to",
          "type": "address"
        },
        {
          "internalType": "uint256",
          "name": "tokenId",
          "type": "uint256"
        }
      ],
      "name": "approve",
      "outputs": [],
      "stateMutability": "nonpayable",
      "type": "function"
    },
    {
      "inputs": [
        {
          "internalType": "address",
          "name": "owner",
          "type": "address"
        }
      ],
      "name": "balanceOf",
      "outputs": [
        {
          "internalType": "uint256",
          "name": "",
          "type": "uint256"
        }
      ],
      "stateMutability": "view",
      "type": "function"
    },
    {
      "inputs": [
        {
          "internalType": "uint24[]",
          "name": "seeds",
          "type": "uint24[]"
        }
      ],
      "name": "banRandomSeeds",
      "outputs": [],
      "stateMutability": "nonpayable",
      "type": "function"
    },
    {
      "inputs": [
        {
          "internalType": "uint256",
          "name": "tokenId",
          "type": "uint256"
        }
      ],
      "name": "burn",
      "outputs": [],
      "stateMutability": "nonpayable",
      "type": "function"
    },
    {
      "inputs": [],
      "name": "contractURI",
      "outputs": [
        {
          "internalType": "string",
          "name": "",
          "type": "string"
        }
      ],
      "stateMutability": "pure",
      "type": "function"
    },
    {
      "inputs": [
        {
          "internalType": "uint256",
          "name": "_tokenId",
          "type": "uint256"
        }
      ],
      "name": "generateSvg",
      "outputs": [
        {
          "internalType": "string",
          "name": "",
          "type": "string"
        }
      ],
      "stateMutability": "view",
      "type": "function"
    },
    {
      "inputs": [
        {
          "internalType": "uint256",
          "name": "tokenId",
          "type": "uint256"
        }
      ],
      "name": "getApproved",
      "outputs": [
        {
          "internalType": "address",
          "name": "",
          "type": "address"
        }
      ],
      "stateMutability": "view",
      "type": "function"
    },
    {
      "inputs": [],
      "name": "getMintPrice",
      "outputs": [
        {
          "internalType": "uint256",
          "name": "",
          "type": "uint256"
        }
      ],
      "stateMutability": "view",
      "type": "function"
    },
    {
      "inputs": [],
      "name": "getTokenLimit",
      "outputs": [
        {
          "internalType": "uint16",
          "name": "",
          "type": "uint16"
        }
      ],
      "stateMutability": "view",
      "type": "function"
    },
    {
      "inputs": [
        {
          "internalType": "address",
          "name": "owner",
          "type": "address"
        },
        {
          "internalType": "address",
          "name": "operator",
          "type": "address"
        }
      ],
      "name": "isApprovedForAll",
      "outputs": [
        {
          "internalType": "bool",
          "name": "",
          "type": "bool"
        }
      ],
      "stateMutability": "view",
      "type": "function"
    },
    {
      "inputs": [
        {
          "internalType": "uint24",
          "name": "_randomSeed",
          "type": "uint24"
        },
        {
          "internalType": "uint8",
          "name": "_zoom",
          "type": "uint8"
        },
        {
          "internalType": "uint8",
          "name": "_tintRed",
          "type": "uint8"
        },
        {
          "internalType": "uint8",
          "name": "_tintGreen",
          "type": "uint8"
        },
        {
          "internalType": "uint8",
          "name": "_tintBlue",
          "type": "uint8"
        },
        {
          "internalType": "uint8",
          "name": "_tintAlpha",
          "type": "uint8"
        },
        {
          "internalType": "uint16",
          "name": "_rotationDegrees",
          "type": "uint16"
        },
        {
          "internalType": "uint8",
          "name": "_rotationRange",
          "type": "uint8"
        },
        {
          "internalType": "uint8",
          "name": "_stripeWidthMin",
          "type": "uint8"
        },
        {
          "internalType": "uint8",
          "name": "_stripeWidthMax",
          "type": "uint8"
        },
        {
          "internalType": "uint8",
          "name": "_speedMin",
          "type": "uint8"
        },
        {
          "internalType": "uint8",
          "name": "_speedMax",
          "type": "uint8"
        }
      ],
      "name": "mintStripes",
      "outputs": [],
      "stateMutability": "payable",
      "type": "function"
    },
    {
      "inputs": [],
      "name": "name",
      "outputs": [
        {
          "internalType": "string",
          "name": "",
          "type": "string"
        }
      ],
      "stateMutability": "view",
      "type": "function"
    },
    {
      "inputs": [],
      "name": "owner",
      "outputs": [
        {
          "internalType": "address",
          "name": "",
          "type": "address"
        }
      ],
      "stateMutability": "view",
      "type": "function"
    },
    {
      "inputs": [
        {
          "internalType": "uint256",
          "name": "tokenId",
          "type": "uint256"
        }
      ],
      "name": "ownerOf",
      "outputs": [
        {
          "internalType": "address",
          "name": "",
          "type": "address"
        }
      ],
      "stateMutability": "view",
      "type": "function"
    },
    {
      "inputs": [],
      "name": "pause",
      "outputs": [],
      "stateMutability": "nonpayable",
      "type": "function"
    },
    {
      "inputs": [],
      "name": "paused",
      "outputs": [
        {
          "internalType": "bool",
          "name": "",
          "type": "bool"
        }
      ],
      "stateMutability": "view",
      "type": "function"
    },
    {
      "inputs": [
        {
          "internalType": "uint256",
          "name": "amount",
          "type": "uint256"
        }
      ],
      "name": "payOwner",
      "outputs": [],
      "stateMutability": "nonpayable",
      "type": "function"
    },
    {
      "inputs": [],
      "name": "renounceOwnership",
      "outputs": [],
      "stateMutability": "nonpayable",
      "type": "function"
    },
    {
      "inputs": [
        {
          "internalType": "uint256",
          "name": "tokenId",
          "type": "uint256"
        },
        {
          "internalType": "uint256",
          "name": "value",
          "type": "uint256"
        }
      ],
      "name": "royaltyInfo",
      "outputs": [
        {
          "internalType": "address",
          "name": "receiver",
          "type": "address"
        },
        {
          "internalType": "uint256",
          "name": "royaltyAmount",
          "type": "uint256"
        }
      ],
      "stateMutability": "view",
      "type": "function"
    },
    {
      "inputs": [
        {
          "internalType": "address",
          "name": "from",
          "type": "address"
        },
        {
          "internalType": "address",
          "name": "to",
          "type": "address"
        },
        {
          "internalType": "uint256",
          "name": "tokenId",
          "type": "uint256"
        }
      ],
      "name": "safeTransferFrom",
      "outputs": [],
      "stateMutability": "nonpayable",
      "type": "function"
    },
    {
      "inputs": [
        {
          "internalType": "address",
          "name": "from",
          "type": "address"
        },
        {
          "internalType": "address",
          "name": "to",
          "type": "address"
        },
        {
          "internalType": "uint256",
          "name": "tokenId",
          "type": "uint256"
        },
        {
          "internalType": "bytes",
          "name": "_data",
          "type": "bytes"
        }
      ],
      "name": "safeTransferFrom",
      "outputs": [],
      "stateMutability": "nonpayable",
      "type": "function"
    },
    {
      "inputs": [
        {
          "internalType": "address",
          "name": "operator",
          "type": "address"
        },
        {
          "internalType": "bool",
          "name": "approved",
          "type": "bool"
        }
      ],
      "name": "setApprovalForAll",
      "outputs": [],
      "stateMutability": "nonpayable",
      "type": "function"
    },
    {
      "inputs": [
        {
          "internalType": "uint256",
          "name": "_mintPrice",
          "type": "uint256"
        }
      ],
      "name": "setMintPrice",
      "outputs": [],
      "stateMutability": "nonpayable",
      "type": "function"
    },
    {
      "inputs": [
        {
          "internalType": "uint16",
          "name": "_tokenLimit",
          "type": "uint16"
        }
      ],
      "name": "setTokenLimit",
      "outputs": [],
      "stateMutability": "nonpayable",
      "type": "function"
    },
    {
      "inputs": [
        {
          "internalType": "bytes4",
          "name": "interfaceId",
          "type": "bytes4"
        }
      ],
      "name": "supportsInterface",
      "outputs": [
        {
          "internalType": "bool",
          "name": "",
          "type": "bool"
        }
      ],
      "stateMutability": "view",
      "type": "function"
    },
    {
      "inputs": [],
      "name": "symbol",
      "outputs": [
        {
          "internalType": "string",
          "name": "",
          "type": "string"
        }
      ],
      "stateMutability": "view",
      "type": "function"
    },
    {
      "inputs": [
        {
          "internalType": "uint256",
          "name": "index",
          "type": "uint256"
        }
      ],
      "name": "tokenByIndex",
      "outputs": [
        {
          "internalType": "uint256",
          "name": "",
          "type": "uint256"
        }
      ],
      "stateMutability": "view",
      "type": "function"
    },
    {
      "inputs": [
        {
          "internalType": "address",
          "name": "owner",
          "type": "address"
        },
        {
          "internalType": "uint256",
          "name": "index",
          "type": "uint256"
        }
      ],
      "name": "tokenOfOwnerByIndex",
      "outputs": [
        {
          "internalType": "uint256",
          "name": "",
          "type": "uint256"
        }
      ],
      "stateMutability": "view",
      "type": "function"
    },
    {
      "inputs": [
        {
          "internalType": "uint256",
          "name": "_tokenId",
          "type": "uint256"
        }
      ],
      "name": "tokenURI",
      "outputs": [
        {
          "internalType": "string",
          "name": "",
          "type": "string"
        }
      ],
      "stateMutability": "view",
      "type": "function"
    },
    {
      "inputs": [],
      "name": "totalSupply",
      "outputs": [
        {
          "internalType": "uint256",
          "name": "",
          "type": "uint256"
        }
      ],
      "stateMutability": "view",
      "type": "function"
    },
    {
      "inputs": [
        {
          "internalType": "address",
          "name": "from",
          "type": "address"
        },
        {
          "internalType": "address",
          "name": "to",
          "type": "address"
        },
        {
          "internalType": "uint256",
          "name": "tokenId",
          "type": "uint256"
        }
      ],
      "name": "transferFrom",
      "outputs": [],
      "stateMutability": "nonpayable",
      "type": "function"
    },
    {
      "inputs": [
        {
          "internalType": "address",
          "name": "newOwner",
          "type": "address"
        }
      ],
      "name": "transferOwnership",
      "outputs": [],
      "stateMutability": "nonpayable",
      "type": "function"
    },
    {
      "inputs": [],
      "name": "unpause",
      "outputs": [],
      "stateMutability": "nonpayable",
      "type": "function"
    },
    {
      "stateMutability": "payable",
      "type": "receive"
    }
  ],
  "bytecode": "0x6080604052600c805463ffffffff19166064179055662386f26fc10000600f553480156200002c57600080fd5b50604080518082018252600b81526a44796e615374726970657360a81b60208083019182528351808501909452600384526244535360e81b908401528151919291839183916200007f916000916200010f565b508051620000959060019060208401906200010f565b5050600a805460ff1916905550620000ad33620000b5565b5050620001f2565b600a80546001600160a01b03838116610100818102610100600160a81b031985161790945560405193909204169182907f8be0079c531659141344cd1fd0a4f28419497f9722a3daafe3b4186f6b6457e090600090a35050565b8280546200011d90620001b5565b90600052602060002090601f0160209004810192826200014157600085556200018c565b82601f106200015c57805160ff19168380011785556200018c565b828001600101855582156200018c579182015b828111156200018c5782518255916020019190600101906200016f565b506200019a9291506200019e565b5090565b5b808211156200019a57600081556001016200019f565b600181811c90821680620001ca57607f821691505b60208210811415620001ec57634e487b7160e01b600052602260045260246000fd5b50919050565b615fa080620002026000396000f3fe6080604052600436106102085760003560e01c80636352211e11610118578063a6c8445a116100a0578063c87b56dd1161006f578063c87b56dd146105d2578063e8a3d485146105f2578063e985e9c514610607578063f2fde38b14610650578063f4a0a5281461067057600080fd5b8063a6c8445a1461056a578063a7f93ebd1461057d578063b88d4fde14610592578063bc921dc2146105b257600080fd5b80638331be32116100e75780638331be32146104dd5780638456cb59146104fd5780638da5cb5b1461051257806395d89b4114610535578063a22cb4651461054a57600080fd5b80636352211e1461046857806370a0823114610488578063715018a6146104a857806377c39a89146104bd57600080fd5b8063284855861161019b57806342842e0e1161016a57806342842e0e146103da57806342966c68146103fa57806349c657db1461041a5780634f6ccce7146104305780635c975abb1461045057600080fd5b8063284855861461034d5780632a55205a146103665780632f745c59146103a55780633f4ba83a146103c557600080fd5b806308d78c3c116101d757806308d78c3c146102cc578063095ea7b3146102ee57806318160ddd1461030e57806323b872dd1461032d57600080fd5b806301ffc9a714610214578063031bd4c41461024957806306fdde0314610272578063081812fc1461029457600080fd5b3661020f57005b600080fd5b34801561022057600080fd5b5061023461022f366004614cd7565b610690565b60405190151581526020015b60405180910390f35b34801561025557600080fd5b5061025f61045f81565b60405161ffff9091168152602001610240565b34801561027e57600080fd5b506102876106a1565b6040516102409190615c9e565b3480156102a057600080fd5b506102b46102af366004614e04565b610733565b6040516001600160a01b039091168152602001610240565b3480156102d857600080fd5b506102ec6102e7366004614e04565b6107cd565b005b3480156102fa57600080fd5b506102ec610309366004614bff565b6108a2565b34801561031a57600080fd5b506008545b604051908152602001610240565b34801561033957600080fd5b506102ec610348366004614ad2565b6109b3565b34801561035957600080fd5b50600c5461ffff1661025f565b34801561037257600080fd5b50610386610381366004614e1c565b610a2f565b604080516001600160a01b039093168352602083019190915201610240565b3480156103b157600080fd5b5061031f6103c0366004614bff565b610a88565b3480156103d157600080fd5b506102ec610b1e565b3480156103e657600080fd5b506102ec6103f5366004614ad2565b610b76565b34801561040657600080fd5b506102ec610415366004614e04565b610b91565b34801561042657600080fd5b5061025f6103e881565b34801561043c57600080fd5b5061031f61044b366004614e04565b610c0b565b34801561045c57600080fd5b50600a5460ff16610234565b34801561047457600080fd5b506102b4610483366004614e04565b610cac565b34801561049457600080fd5b5061031f6104a3366004614a86565b610d23565b3480156104b457600080fd5b506102ec610daa565b3480156104c957600080fd5b506102ec6104d8366004614d0f565b610e02565b3480156104e957600080fd5b506102ec6104f8366004614c28565b610e7b565b34801561050957600080fd5b506102ec610f3f565b34801561051e57600080fd5b50600a5461010090046001600160a01b03166102b4565b34801561054157600080fd5b50610287610f95565b34801561055657600080fd5b506102ec610565366004614bc5565b610fa4565b6102ec610578366004614d29565b611069565b34801561058957600080fd5b50600f5461031f565b34801561059e57600080fd5b506102ec6105ad366004614b0d565b61177b565b3480156105be57600080fd5b506102876105cd366004614e04565b6117fd565b3480156105de57600080fd5b506102876105ed366004614e04565b611a50565b3480156105fe57600080fd5b50610287611d72565b34801561061357600080fd5b50610234610622366004614aa0565b6001600160a01b03918216600090815260056020908152604080832093909416825291909152205460ff1690565b34801561065c57600080fd5b506102ec61066b366004614a86565b611d92565b34801561067c57600080fd5b506102ec61068b366004614e04565b611e4e565b600061069b82611ea1565b92915050565b6060600080546106b090615e38565b80601f01602080910402602001604051908101604052809291908181526020018280546106dc90615e38565b80156107295780601f106106fe57610100808354040283529160200191610729565b820191906000526020600020905b81548152906001019060200180831161070c57829003601f168201915b5050505050905090565b6000818152600260205260408120546001600160a01b03166107b15760405162461bcd60e51b815260206004820152602c60248201527f4552433732313a20617070726f76656420717565727920666f72206e6f6e657860448201526b34b9ba32b73a103a37b5b2b760a11b60648201526084015b60405180910390fd5b506000908152600460205260409020546001600160a01b031690565b600a546001600160a01b0361010090910416331461081b5760405162461bcd60e51b81526020600482018190526024820152600080516020615f4b83398151915260448201526064016107a8565b4781111561085d5760405162461bcd60e51b815260206004820152600f60248201526e082dadeeadce840e8dede40d0d2ced608b1b60448201526064016107a8565b600a546040516101009091046001600160a01b031690819083156108fc029084906000818181858888f1935050505015801561089d573d6000803e3d6000fd5b505050565b60006108ad82610cac565b9050806001600160a01b0316836001600160a01b0316141561091b5760405162461bcd60e51b815260206004820152602160248201527f4552433732313a20617070726f76616c20746f2063757272656e74206f776e656044820152603960f91b60648201526084016107a8565b336001600160a01b038216148061093757506109378133610622565b6109a95760405162461bcd60e51b815260206004820152603860248201527f4552433732313a20617070726f76652063616c6c6572206973206e6f74206f7760448201527f6e6572206e6f7220617070726f76656420666f7220616c6c000000000000000060648201526084016107a8565b61089d8383611ec6565b6109be335b82611f34565b610a245760405162461bcd60e51b815260206004820152603160248201527f4552433732313a207472616e736665722063616c6c6572206973206e6f74206f6044820152701ddb995c881b9bdc88185c1c1c9bdd9959607a1b60648201526084016107a8565b61089d83838361202b565b6000828152600b60209081526040808320815180830190925280546001600160a01b0316808352600190910154928201839052839261271090610a729087615db3565b610a7c9190615d7d565b92509250509250929050565b6000610a9383610d23565b8210610af55760405162461bcd60e51b815260206004820152602b60248201527f455243373231456e756d657261626c653a206f776e657220696e646578206f7560448201526a74206f6620626f756e647360a81b60648201526084016107a8565b506001600160a01b03919091166000908152600660209081526040808320938352929052205490565b600a546001600160a01b03610100909104163314610b6c5760405162461bcd60e51b81526020600482018190526024820152600080516020615f4b83398151915260448201526064016107a8565b610b746121d6565b565b61089d8383836040518060200160405280600081525061177b565b610b9a336109b8565b610bff5760405162461bcd60e51b815260206004820152603060248201527f4552433732314275726e61626c653a2063616c6c6572206973206e6f74206f7760448201526f1b995c881b9bdc88185c1c1c9bdd995960821b60648201526084016107a8565b610c0881612272565b50565b6000610c1660085490565b8210610c795760405162461bcd60e51b815260206004820152602c60248201527f455243373231456e756d657261626c653a20676c6f62616c20696e646578206f60448201526b7574206f6620626f756e647360a01b60648201526084016107a8565b60088281548110610c9a57634e487b7160e01b600052603260045260246000fd5b90600052602060002001549050919050565b6000818152600260205260408120546001600160a01b03168061069b5760405162461bcd60e51b815260206004820152602960248201527f4552433732313a206f776e657220717565727920666f72206e6f6e657869737460448201526832b73a103a37b5b2b760b91b60648201526084016107a8565b60006001600160a01b038216610d8e5760405162461bcd60e51b815260206004820152602a60248201527f4552433732313a2062616c616e636520717565727920666f7220746865207a65604482015269726f206164647265737360b01b60648201526084016107a8565b506001600160a01b031660009081526003602052604090205490565b600a546001600160a01b03610100909104163314610df85760405162461bcd60e51b81526020600482018190526024820152600080516020615f4b83398151915260448201526064016107a8565b610b746000612319565b600a546001600160a01b03610100909104163314610e505760405162461bcd60e51b81526020600482018190526024820152600080516020615f4b83398151915260448201526064016107a8565b61045f61ffff82161115610e63575061045f5b600c805461ffff191661ffff92909216919091179055565b600a546001600160a01b03610100909104163314610ec95760405162461bcd60e51b81526020600482018190526024820152600080516020615f4b83398151915260448201526064016107a8565b60005b8151811015610f3b576001600e6000848481518110610efb57634e487b7160e01b600052603260045260246000fd5b60209081029190910181015162ffffff168252810191909152604001600020805460ff191691151591909117905580610f3381615e73565b915050610ecc565b5050565b600a546001600160a01b03610100909104163314610f8d5760405162461bcd60e51b81526020600482018190526024820152600080516020615f4b83398151915260448201526064016107a8565b610b74612380565b6060600180546106b090615e38565b6001600160a01b038216331415610ffd5760405162461bcd60e51b815260206004820152601960248201527f4552433732313a20617070726f766520746f2063616c6c65720000000000000060448201526064016107a8565b3360008181526005602090815260408083206001600160a01b03871680855290835292819020805460ff191686151590811790915590519081529192917f17307eab39ab6107e8899845ad3d59bd9653f200f220920489ca2b5937696c31910160405180910390a35050565b600c5461ffff620100008204811691168110801561108c575061045f61ffff8216105b6110d85760405162461bcd60e51b815260206004820152601360248201527f546f6b656e206c696d697420726561636865640000000000000000000000000060448201526064016107a8565b600f5434101561111d5760405162461bcd60e51b815260206004820152601060248201526f2737ba1032b737bab3b41032ba3432b960811b60448201526064016107a8565b60648c60ff1611156111605760405162461bcd60e51b815260206004820152600c60248201526b169bdbdb481a5b9d985b1a5960a21b60448201526064016107a8565b60ff8b60ff1611156111a75760405162461bcd60e51b815260206004820152601060248201526f1d1a5b9d081c9959081a5b9d985b1a5960821b60448201526064016107a8565b60ff8a60ff1611156111fb5760405162461bcd60e51b815260206004820152601260248201527f74696e7420677265656e20696e76616c6964000000000000000000000000000060448201526064016107a8565b60ff8960ff16111561124f5760405162461bcd60e51b815260206004820152601160248201527f74696e7420626c756520696e76616c696400000000000000000000000000000060448201526064016107a8565b60e68860ff16106112a25760405162461bcd60e51b815260206004820152601260248201527f74696e7420616c70686120696e76616c6964000000000000000000000000000060448201526064016107a8565b6101688761ffff1611156112f85760405162461bcd60e51b815260206004820152601860248201527f526f746174696f6e206465677265657320696e76616c6964000000000000000060448201526064016107a8565b60b48660ff16111561134c5760405162461bcd60e51b815260206004820152601660248201527f526f746174696f6e2072616e676520696e76616c69640000000000000000000060448201526064016107a8565b60198560ff1610158015611364575060fa8460ff1611155b801561137657508360ff168560ff1611155b6113c25760405162461bcd60e51b815260206004820152601460248201527f53747269706520776964746820696e76616c696400000000000000000000000060448201526064016107a8565b60198360ff16101580156113da575060fa8260ff1611155b80156113ec57508160ff168360ff1611155b6114385760405162461bcd60e51b815260206004820152601360248201527f53706565642076616c756520696e76616c69640000000000000000000000000060448201526064016107a8565b624c4b408d62ffffff16108015611464575062ffffff8d166000908152600e602052604090205460ff16155b6114b05760405162461bcd60e51b815260206004820152601360248201527f52616e646f6d207365656420696e76616c69640000000000000000000000000060448201526064016107a8565b6114be338261ffff166123fb565b6114cf61ffff8216336103e8612415565b6040518061018001604052808e62ffffff1681526020018d60ff1681526020018c60ff1681526020018b60ff1681526020018a60ff1681526020018960ff1681526020018861ffff1681526020018760ff1681526020018660ff1681526020018560ff1681526020018460ff1681526020018360ff16815250600d60008361ffff1661ffff16815260200190815260200160002060008201518160000160006101000a81548162ffffff021916908362ffffff16021790555060208201518160000160036101000a81548160ff021916908360ff16021790555060408201518160000160046101000a81548160ff021916908360ff16021790555060608201518160000160056101000a81548160ff021916908360ff16021790555060808201518160000160066101000a81548160ff021916908360ff16021790555060a08201518160000160076101000a81548160ff021916908360ff16021790555060c08201518160000160086101000a81548161ffff021916908361ffff16021790555060e082015181600001600a6101000a81548160ff021916908360ff16021790555061010082015181600001600b6101000a81548160ff021916908360ff16021790555061012082015181600001600c6101000a81548160ff021916908360ff16021790555061014082015181600001600d6101000a81548160ff021916908360ff16021790555061016082015181600001600e6101000a81548160ff021916908360ff1602179055509050506001600e60008f62ffffff1662ffffff16815260200190815260200160002060006101000a81548160ff0219169083151502179055506001600c60028282829054906101000a900461ffff166117529190615d3f565b92506101000a81548161ffff021916908361ffff16021790555050505050505050505050505050565b6117853383611f34565b6117eb5760405162461bcd60e51b815260206004820152603160248201527f4552433732313a207472616e736665722063616c6c6572206973206e6f74206f6044820152701ddb995c881b9bdc88185c1c1c9bdd9959607a1b60648201526084016107a8565b6117f7848484846124af565b50505050565b6000818152600260205260409020546060906001600160a01b031661185d5760405162461bcd60e51b81526020600482015260166024820152751d1bdad95b88125108191bd95cdb89dd08195e1a5cdd60521b60448201526064016107a8565b61045f82106118a75760405162461bcd60e51b81526020600482015260166024820152751d1bdad95b88125108191bd95cdb89dd08195e1a5cdd60521b60448201526064016107a8565b61ffff8083166000908152600d60209081526040808320815161018081018352905462ffffff8116825260ff63010000008204811694830185905264010000000082048116938301939093526501000000000081048316606083015266010000000000008104831660808301526701000000000000008104831660a083015268010000000000000000810490951660c0820152600160501b8504821660e0820152600160581b85048216610100820152600160601b85048216610120820152600160681b85048216610140820152600160701b90940416610160840152819061198f906124e2565b9150915060008360e0015160ff166000146119c657604051806040016040528060048152602001636175746f60e01b8152506119ea565b6040518060400160405280600a8152602001696372697370456467657360b01b8152505b90506000826040516020016119ff9190615be7565b60405160208183030381529060405290506000611a1b866125fc565b905084838383604051602001611a349493929190615354565b6040516020818303038152906040529650505050505050919050565b6000818152600260205260409020546060906001600160a01b0316611ab05760405162461bcd60e51b81526020600482015260166024820152751d1bdad95b88125108191bd95cdb89dd08195e1a5cdd60521b60448201526064016107a8565b61045f8210611afa5760405162461bcd60e51b81526020600482015260166024820152751d1bdad95b88125108191bd95cdb89dd08195e1a5cdd60521b60448201526064016107a8565b6000604051602001611c39907f22636f70797269676874223a2022546865206f776e6572206f6620746869732081527f4e465420697320697473206c6567616c20636f7079726967687420686f6c646560208201527f722e2042792073656c6c696e672074686973204e46542c207468652073656c6c60408201527f65722f6f776e65722061677265657320746f2061737369676e20636f7079726960608201527f67687420746f207468652062757965722e20416c6c2062757965727320616e6460808201527f2073656c6c65727320616772656520746f207061796d656e74206f6620726f7960a08201527f616c7469657320746f20746865206f726967696e616c206d696e746572206f6e60c08201527f2073616c65206f662074686520617274776f726b2e220000000000000000000060e082015260f60190565b60408051601f1981840301815261ffff8087166000908152600d6020908152848220610180870186525462ffffff8116875260ff6301000000820481169288019290925264010000000081048216958701959095526501000000000085048116606087015266010000000000008504811660808701526701000000000000008504811660a087015268010000000000000000850490921660c0860152600160501b8404821660e0860152600160581b84048216610100860152600160601b84048216610120860152600160681b84048216610140860152600160701b90930416610160840152925090611d2b9061279f565b90506000611d38856117fd565b9050611d4385612974565b838383604051602001611d599493929190615961565b6040516020818303038152906040529350505050919050565b60606040518060600160405280602f8152602001615f1c602f9139905090565b600a546001600160a01b03610100909104163314611de05760405162461bcd60e51b81526020600482018190526024820152600080516020615f4b83398151915260448201526064016107a8565b6001600160a01b038116611e455760405162461bcd60e51b815260206004820152602660248201527f4f776e61626c653a206e6577206f776e657220697320746865207a65726f206160448201526564647265737360d01b60648201526084016107a8565b610c0881612319565b600a546001600160a01b03610100909104163314611e9c5760405162461bcd60e51b81526020600482018190526024820152600080516020615f4b83398151915260448201526064016107a8565b600f55565b60006001600160e01b0319821663152a902d60e11b148061069b575061069b82612a6d565b600081815260046020526040902080546001600160a01b0319166001600160a01b0384169081179091558190611efb82610cac565b6001600160a01b03167f8c5be1e5ebec7d5bd14f71427d1e84f3dd0314c0f7b2291e5b200ac8c7c3b92560405160405180910390a45050565b6000818152600260205260408120546001600160a01b0316611fad5760405162461bcd60e51b815260206004820152602c60248201527f4552433732313a206f70657261746f7220717565727920666f72206e6f6e657860448201526b34b9ba32b73a103a37b5b2b760a11b60648201526084016107a8565b6000611fb883610cac565b9050806001600160a01b0316846001600160a01b03161480611ff35750836001600160a01b0316611fe884610733565b6001600160a01b0316145b8061202357506001600160a01b0380821660009081526005602090815260408083209388168352929052205460ff165b949350505050565b826001600160a01b031661203e82610cac565b6001600160a01b0316146120a65760405162461bcd60e51b815260206004820152602960248201527f4552433732313a207472616e73666572206f6620746f6b656e2074686174206960448201526839903737ba1037bbb760b91b60648201526084016107a8565b6001600160a01b0382166121085760405162461bcd60e51b8152602060048201526024808201527f4552433732313a207472616e7366657220746f20746865207a65726f206164646044820152637265737360e01b60648201526084016107a8565b612113838383612a78565b61211e600082611ec6565b6001600160a01b0383166000908152600360205260408120805460019290612147908490615dd2565b90915550506001600160a01b0382166000908152600360205260408120805460019290612175908490615d65565b909155505060008181526002602052604080822080546001600160a01b0319166001600160a01b0386811691821790925591518493918716917fddf252ad1be2c89b69c2b068fc378daa952ba7f163c4a11628f55a4df523b3ef91a4505050565b600a5460ff166122285760405162461bcd60e51b815260206004820152601460248201527f5061757361626c653a206e6f742070617573656400000000000000000000000060448201526064016107a8565b600a805460ff191690557f5db9ee0a495bf2e6ff9c91a7834c1ba4fdd244a5e8aa4e537bd38aeae4b073aa335b6040516001600160a01b03909116815260200160405180910390a1565b600061227d82610cac565b905061228b81600084612a78565b612296600083611ec6565b6001600160a01b03811660009081526003602052604081208054600192906122bf908490615dd2565b909155505060008281526002602052604080822080546001600160a01b0319169055518391906001600160a01b038416907fddf252ad1be2c89b69c2b068fc378daa952ba7f163c4a11628f55a4df523b3ef908390a45050565b600a80546001600160a01b0383811661010081810274ffffffffffffffffffffffffffffffffffffffff001985161790945560405193909204169182907f8be0079c531659141344cd1fd0a4f28419497f9722a3daafe3b4186f6b6457e090600090a35050565b600a5460ff16156123c65760405162461bcd60e51b815260206004820152601060248201526f14185d5cd8589b194e881c185d5cd95960821b60448201526064016107a8565b600a805460ff191660011790557f62e78cea01bee320cd4e420270b5ea74000d11b0c9f74754ebdbfc544b05a2586122553390565b610f3b828260405180602001604052806000815250612ac9565b6127108111156124675760405162461bcd60e51b815260206004820152601a60248201527f45524332393831526f79616c746965733a20546f6f206869676800000000000060448201526064016107a8565b6040805180820182526001600160a01b03938416815260208082019384526000958652600b90529320925183546001600160a01b031916921691909117825551600190910155565b6124ba84848461202b565b6124c684848484612afc565b6117f75760405162461bcd60e51b81526004016107a890615cb1565b6060806124f0836014615db3565b92506000612508612503856103e8615d65565b612974565b90506103e884111561259457600061253160026125276103e888615dd2565b6125039190615d7d565b905060008182848560405160200161254c94939291906158d6565b60405160208183030381529060405290506000828385866040516020016125769493929190615225565b60408051601f19818403018152919052919791965090945050505050565b60006125b7856103e8146125b0576002612527876103e8615dd2565b6000612974565b90506000818284856040516020016125d2949392919061509b565b60405160208183030381529060405290506000828385866040516020016125769493929190615770565b80516040805160208101909152600080825260609262ffffff16915b6000612626836107d0615dd2565b11156120235760006126498487610100015160ff1688610120015160ff16612c09565b612654906002615db3565b9050612662836107d0615dd2565b81111561267c57612675836107d0615dd2565b90506126c6565b61010086015160ff1681612692856107d0615dd2565b61269c9190615dd2565b10156126c657806126af846107d0615dd2565b6126b99190615dd2565b6126c39082615d65565b90505b60006126dc6126d6866003615d65565b88612c72565b90506000816126f56126ef88600d615d65565b8a612c72565b8360405160200161270893929190615113565b60405160208183030381529060405290508361272386612974565b61272c85612974565b8461274161273b8b6001615d65565b8d612d41565b61275561274f8c6002615d65565b8e612e25565b8660405160200161276c9796959493929190614ec1565b60408051601f1981840301815291905293506127888386615d65565b9450612795606487615d65565b9550505050612618565b606060006127b3836020015160ff16612e5a565b6040516020016127c39190615475565b604051602081830303815290604052905060006127e6846040015160ff16612e5a565b6127f6856060015160ff16612e5a565b612806866080015160ff16612e5a565b6128168760a0015160ff16612e5a565b604051602001612829949392919061509b565b604051602081830303815290604052905060008160405160200161284d919061558e565b604051602081830303815290604052905060006128718660c0015161ffff16612974565b6128818760e0015160ff16612e5a565b6040516020016128929291906154d0565b604051602081830303815290604052905060006128b687610100015160ff16612e5a565b6128c788610120015160ff16612e5a565b6040516020016128d8929190615b1b565b604051602081830303815290604052905060006128fc88610140015160ff16612e5a565b61290d89610160015160ff16612e5a565b60405160200161291e929190615824565b6040516020818303038152906040529050600061293a89613095565b905080878686868660405160200161295796959493929190615693565b604051602081830303815290604052975050505050505050919050565b6060816129985750506040805180820190915260018152600360fc1b602082015290565b8160005b81156129b057600101600a8204915061299c565b60008167ffffffffffffffff8111156129d957634e487b7160e01b600052604160045260246000fd5b6040519080825280601f01601f191660200182016040528015612a03576020820181803683370190505b508593509050815b8315612a6457600a840660300160f81b82826001900392508281518110612a4257634e487b7160e01b600052603260045260246000fd5b60200101906001600160f81b031916908160001a905350600a84049350612a0b565b50949350505050565b600061069b826130da565b600a5460ff1615612abe5760405162461bcd60e51b815260206004820152601060248201526f14185d5cd8589b194e881c185d5cd95960821b60448201526064016107a8565b61089d8383836130ff565b612ad383836131b7565b612ae06000848484612afc565b61089d5760405162461bcd60e51b81526004016107a890615cb1565b60006001600160a01b0384163b15612bfe57604051630a85bd0160e11b81526001600160a01b0385169063150b7a0290612b40903390899088908890600401615c62565b602060405180830381600087803b158015612b5a57600080fd5b505af1925050508015612b8a575060408051601f3d908101601f19168201909252612b8791810190614cf3565b60015b612be4573d808015612bb8576040519150601f19603f3d011682016040523d82523d6000602084013e612bbd565b606091505b508051612bdc5760405162461bcd60e51b81526004016107a890615cb1565b805181602001fd5b6001600160e01b031916630a85bd0160e11b149050612023565b506001949350505050565b6000828211612c19575081612c6b565b600084604051602001612c2e91815260200190565b60408051601f198184030181529190528051602090910120905083612c538185615dd2565b612c5d9083615eaf565b612c679190615d65565b9150505b9392505050565b60606000612c9b612c8685600060ff612c09565b846040015160ff168560a0015160ff16613305565b90506000612cce612cb9612cb0876001615d65565b600060ff612c09565b856060015160ff168660a0015160ff16613305565b90506000612cf8612ce3612cb0886002615d65565b866080015160ff168760a0015160ff16613305565b9050612d0383612e5a565b612d0c83612e5a565b612d1583612e5a565b604051602001612d27939291906152db565b604051602081830303815290604052935050505092915050565b60606000612d588460008560e0015160ff16612c09565b9050600081612d70575060c083015161ffff16612dfa565b8360e0015160ff16821015612dc55760028460e00151612d909190615d91565b60ff16828560c00151610168612da69190615d3f565b61ffff16612db49190615dd2565b612dbe9190615d65565b9050612dfa565b60028460e00151612dd69190615d91565b60ff16828560c0015161ffff16612ded9190615d65565b612df79190615dd2565b90505b610168811115612e1357612e1061016882615dd2565b90505b612e1c81612974565b95945050505050565b60606000612e448484610140015160ff1685610160015160ff16612c09565b612e4f906014615db3565b905061202381612974565b60606101008210612e9d5760405162461bcd60e51b815260206004820152600d60248201526c696e70757420746f6f2062696760981b60448201526064016107a8565b81612ebf5750506040805180820190915260018152600360fc1b602082015290565b6060600a831015612f315760408051600180825281830190925290602082018180368337019050509050600a835b0660300160f81b81600081518110612f1557634e487b7160e01b600052603260045260246000fd5b60200101906001600160f81b031916908160001a90535061069b565b6064831015612fa55760408051600280825281830190925290602082018180368337019050509050600a830660300160f81b81600181518110612f8457634e487b7160e01b600052603260045260246000fd5b60200101906001600160f81b031916908160001a905350600a808404612eed565b60408051600380825281830190925290602082018180368337019050509050600a830660300160f81b81600281518110612fef57634e487b7160e01b600052603260045260246000fd5b60200101906001600160f81b031916908160001a905350600a8084040660300160f81b8160018151811061303357634e487b7160e01b600052603260045260246000fd5b60200101906001600160f81b031916908160001a905350600a606484040660300160f81b8160008151811061307857634e487b7160e01b600052603260045260246000fd5b60200101906001600160f81b031916908160001a90535092915050565b606061069b82602001518360400151846060015185608001518660a001518760c001518860e001518961010001518a61012001518b61014001518c6101600151613346565b60006001600160e01b0319821663780e9d6360e01b148061069b575061069b8261482a565b6001600160a01b03831661315a5761315581600880546000838152600960205260408120829055600182018355919091527ff3f7a9fe364faab93b216da50a3214154f22a0a2b415b23a84c8169e8b636ee30155565b61317d565b816001600160a01b0316836001600160a01b03161461317d5761317d838261487a565b6001600160a01b0382166131945761089d81614917565b826001600160a01b0316826001600160a01b03161461089d5761089d82826149f0565b6001600160a01b03821661320d5760405162461bcd60e51b815260206004820181905260248201527f4552433732313a206d696e7420746f20746865207a65726f206164647265737360448201526064016107a8565b6000818152600260205260409020546001600160a01b0316156132725760405162461bcd60e51b815260206004820152601c60248201527f4552433732313a20746f6b656e20616c7265616479206d696e7465640000000060448201526064016107a8565b61327e60008383612a78565b6001600160a01b03821660009081526003602052604081208054600192906132a7908490615d65565b909155505060008181526002602052604080822080546001600160a01b0319166001600160a01b03861690811790915590518392907fddf252ad1be2c89b69c2b068fc378daa952ba7f163c4a11628f55a4df523b3ef908290a45050565b600081613316575060ff8316612c6b565b600083851161332f575060ff848403830204840161333b565b5060ff83850383020484035b60ff16949350505050565b60608060828960ff1611801561335f575060dc8460ff16115b1561338857506040805180820190915260078152661b185b99dd5a5960ca1b6020820152613664565b60828960ff1611801561339e575060c88460ff16115b156133ca575060408051808201909152600a8152693832b232b9ba3934b0b760b11b6020820152613664565b60198360ff16111580156133e1575060b48960ff16105b1561340857506040805180820190915260058152646d616e696360d81b60208201526135c8565b8260ff168460ff16141561349d57601e8360ff1610156134475750604080518082019091526008815267626c696e6b696e6760c01b60208201526135c8565b60c88360ff16111561347957506040805180820190915260098152687468726f6262696e6760b81b60208201526135c8565b5060408051808201909152600781526670756c73696e6760c81b60208201526135c8565b60238360ff1610156134ce5750604080518082019091526008815267666c617368696e6760c01b60208201526135c8565b60468360ff161015613501575060408051808201909152600a815269666c69636b6572696e6760b01b60208201526135c8565b60698360ff1610156135335750604080518082019091526009815268717569766572696e6760b81b60208201526135c8565b60968360ff1610156135655750604080518082019091526009815268766962726174696e6760b81b60208201526135c8565b60966135718585615de9565b60ff1611156135a4575060408051808201909152600d81526c7363696e74696c6c6174696e6760981b60208201526135c8565b5060408051808201909152600b81526a6f7363696c6c6174696e6760a81b60208201525b60d58960ff1611156135fb57806040516020016135e59190615abc565b6040516020818303038152906040529050613664565b60c88960ff16111561361857806040516020016135e59190615aeb565b60148960ff16101561363557806040516020016135e591906151ef565b60328960ff16101561366457806040516020016136529190615a89565b60405160208183030381529060405290505b6060607f8a60ff161115613a1957609660c860ff8c1611801561368a575060328e60ff16105b8015613699575060328d60ff16105b80156136a8575060328c60ff16105b156136d35760405180604001604052806006815260200165676c6f6f6d7960d01b8152509150613a13565b60c88b60ff161180156136e9575060c88e60ff16115b80156136f8575060c88d60ff16115b8015613707575060c88c60ff16115b15613730576040518060400160405280600481526020016370616c6560e01b8152509150613a13565b8c60ff168e60ff161180156137535750808d8f61374d9190615de9565b60ff1610155b801561376457508b60ff168e60ff16115b801561377e5750808c8f6137789190615de9565b60ff1610155b156137a657604051806040016040528060038152602001621c995960ea1b8152509150613a13565b8d60ff168d60ff161180156137c75750806137c18f8f615de9565b60ff1610155b80156137d857508b60ff168d60ff16115b80156137f05750806137ea8d8f615de9565b60ff1610155b1561381a576040518060400160405280600581526020016433b932b2b760d91b8152509150613a13565b8d60ff168c60ff1611801561383b5750806138358f8e615de9565b60ff1610155b801561384c57508c60ff168c60ff16115b801561386457508061385e8e8e615de9565b60ff1610155b1561388d5760405180604001604052806004815260200163626c756560e01b8152509150613a13565b8c60ff168e60ff161180156138b05750808d8f6138aa9190615de9565b60ff1610155b80156138c157508c60ff168c60ff16115b80156138d95750806138d38e8e615de9565b60ff1610155b1561390457604051806040016040528060068152602001651d9a5bdb195d60d21b8152509150613a13565b8b60ff168e60ff161180156139275750808c8f6139219190615de9565b60ff1610155b801561393857508b60ff168d60ff16115b801561395057508061394a8d8f615de9565b60ff1610155b1561397b576040518060400160405280600681526020016579656c6c6f7760d01b8152509150613a13565b8d60ff168c60ff1611801561399c5750806139968f8e615de9565b60ff1610155b80156139ad57508d60ff168d60ff16115b80156139c55750806139bf8f8f615de9565b60ff1610155b156139ee576040518060400160405280600481526020016331bcb0b760e11b8152509150613a13565b604051806040016040528060098152602001681cd85d1d5c985d195960ba1b81525091505b50613af9565b60ff8a16613a4b575060408051808201909152600d81526c6b616c6569646f73636f70696360981b6020820152613af9565b60198a60ff161015613a7d57506040805180820190915260098152686368726f6d6174696360b81b6020820152613af9565b60328a60ff161015613aab57506040805180820190915260058152641d9a5d9a5960da1b6020820152613af9565b60558a60ff161015613ada57506040805180820190915260068152651d1a5b99d95960d21b6020820152613af9565b506040805180820190915260068152651d1a5b9d195960d21b60208201525b6060613b0660b48b615e8e565b995060ff8916613cbf5760328f60ff16118015613b2f5750613b29605a8b615e8e565b61ffff16155b15613b5f575060408051808201909152600e81526d706572666563742073717561726560901b6020820152614722565b605b8f60ff16118015613b8457508961ffff16602d1480613b8457508961ffff166087145b15613bb5575060408051808201909152600f81526e1c195c999958dd08191a585b5bdb99608a1b6020820152614722565b60328f60ff1611158015613bcb575061ffff8a16155b15613bfd575060408051808201909152601081526f766572746963616c207374726970657360801b6020820152614722565b60328f60ff1611158015613c1d5750613c17605a8b615e8e565b61ffff16155b15613c5c575060408051808201909152601281527f686f72697a6f6e74616c207374726970657300000000000000000000000000006020820152614722565b60198f60ff1611613c94575060408051808201909152601081526f646961676f6e616c207374726970657360801b6020820152614722565b5060408051808201909152600e81526d726f74617465642073717561726560901b6020820152614722565b601e8f60ff161015613f095760148f60ff16108015613ce1575060468860ff16115b8015613cf05750603c8960ff16105b8015613cff5750600a8960ff16115b15613d285750604080518082019091526007815266726962626f6e7360c81b6020820152614722565b60148f60ff16108015613d3e5750601e8960ff16105b8015613d4d575060c88860ff16115b15613d76575060408051808201909152600781526662616e6e65727360c81b6020820152614722565b60148f60ff16108015613d8c5750604b8760ff16105b8015613d9b5750603c8960ff16105b8015613daa5750600a8960ff16115b15613dd5575060408051808201909152600981526873747265616d65727360b81b6020820152614722565b603c8760ff16108015613deb575060828960ff16115b15613e18575060408051808201909152600b81526a6c61736572206265616d7360a81b6020820152614722565b60788760ff16108015613e305750602d8a61ffff1610155b8015613e40575060878a61ffff16105b15613e6757506040805180820190915260058152646265616d7360d81b6020820152614722565b60788760ff16108015613e7d5750605a8960ff16105b15613ea45750604080518082019091526005815264706f6c657360d81b6020820152614722565b602d8a61ffff1610158015613ebd575060878a61ffff16105b15613ee6575060408051808201909152600781526673747265616b7360c81b6020820152614722565b5060408051808201909152600681526573686166747360d01b6020820152614722565b60328f60ff16118015613f1f5750603c8760ff16105b8015613f2e5750601e8960ff16105b15613f5c575060408051808201909152600c81526b6d6174636820737469636b7360a01b6020820152614722565b60328f60ff16118015613f725750603c8760ff16105b8015613f815750603c8960ff16105b15613fc0575060408051808201909152601681527f736361747465726564206d6174636820737469636b73000000000000000000006020820152614722565b60328f60ff16118015613fd6575060468860ff16115b8015613fe55750606e8760ff16105b8015613ff45750600a8960ff16115b8015614003575060288960ff16105b1561402a5750604080518082019091526005815264747769677360d81b6020820152614722565b60328f60ff16118015614040575060468860ff16115b801561404f5750606e8760ff16105b801561405e5750600a8960ff16115b801561406d5750603c8960ff16105b1561409e575060408051808201909152600f81526e73636174746572656420747769677360881b6020820152614722565b60508f60ff161180156140b45750603c8760ff16105b80156140c3575060828960ff16115b156140ef575060408051808201909152600a815269189a5c991cc81b995cdd60b21b6020820152614722565b60468f60ff16118015614105575060468960ff16105b8015614114575060c88860ff16115b8015614134575060198a61ffff161115806141345750609b8a61ffff1610155b1561415d575060408051808201909152600781526670696c6c61727360c81b6020820152614722565b60468f60ff16118015614173575060468960ff16105b8015614182575060c88860ff16115b80156141a3575060738a61ffff16111580156141a3575060418a61ffff1610155b156141cb5750604080518082019091526006815265627269636b7360d01b6020820152614722565b60378f60ff161180156141e1575060468860ff16115b80156141f1575060058960ff1610155b80156142015750601e8960ff1611155b80156142215750600a8a61ffff16111580614221575060aa8a61ffff1610155b15614252575060408051808201909152600f81526e636c7574746572656420626f6f6b7360881b6020820152614722565b60378f60ff16118015614268575060468860ff16115b80156142785750601e8960ff1611155b8015614289575060508a61ffff1610155b801561429a575060648a61ffff1611155b156142c9575060408051808201909152600d81526c737461636b656420626f6f6b7360981b6020820152614722565b60378f60ff161180156142df575060468860ff16115b80156142ee5750603c8960ff16105b80156142ff575060328a61ffff1610155b8015614310575060828a61ffff1611155b15614340575060408051808201909152600e81526d74756d626c696e6720626f6f6b7360901b6020820152614722565b60378f60ff16118015614356575060328860ff16115b8015614365575060968760ff16105b8015614374575060328960ff16105b8015614385575060508a61ffff1610155b8015614396575060648a61ffff1611155b156143c5575060408051808201909152600d81526c313937b5b2b7103630b23232b960991b6020820152614722565b60378f60ff161180156143db5750600a8960ff16115b80156143ea5750603c8960ff16105b80156143fb575060328a61ffff1610155b801561440c575060828a61ffff1611155b80156144255750609661441f8989615de9565b60ff1610155b15614464575060408051808201909152601381527f636f6c6c617073696e67206275696c64696e67000000000000000000000000006020820152614722565b60198860ff1611801561447a575060c88760ff16105b801561448a5750600f8960ff1611155b156144b357506040805180820190915260078152666a69747465727360c81b6020820152614722565b60198860ff161180156144c9575060c88760ff16105b80156144d95750602d8960ff1611155b156145025750604080518082019091526007815266776f62626c657360c81b6020820152614722565b60328f60ff16118015614518575060c88860ff16115b156145405750604080518082019091526006815265626c6f636b7360d01b6020820152614722565b605a8f60ff161180156145605750609661455a8989615de9565b60ff1610155b801561456f575060968960ff16115b1561459c575060408051808201909152600b81526a6d6173746572706965636560a81b6020820152614722565b60648960ff161180156145b2575060968760ff16105b156145da57506040805180820190915260068152656c756e61637960d01b6020820152614722565b603c8960ff161080156145f0575060968860ff16115b1561461d575060408051808201909152600b81526a7472616e7175696c69747960a81b6020820152614722565b60788860ff16111561464a57506040805180820190915260048152636261727360e01b6020820152614722565b60648760ff161080156146605750603c8960ff16115b15614691575060408051808201909152600f81526e736361747465726564206c696e657360881b6020820152614722565b60648760ff1610156146bf57506040805180820190915260058152646c696e657360d81b6020820152614722565b60288f60ff161180156146d55750605a8960ff16115b156146fe57506040805180820190915260078152667265766572696560c81b6020820152614722565b5060408051808201909152600b81526a30b139ba3930b1ba34b7b760a91b60208201525b60608151600014614775576000826040516020016147409190615651565b604051602081830303815290604052905080604051602001614762919061516d565b6040516020818303038152906040529150505b8351156147c65760008460405160200161478f9190615193565b604051602081830303815290604052905081816040516020016147b3929190614e85565b6040516020818303038152906040529150505b825115614817576000836040516020016147e091906155f0565b60405160208183030381529060405290508181604051602001614804929190614e85565b6040516020818303038152906040529150505b9f9e505050505050505050505050505050565b60006001600160e01b031982166380ac58cd60e01b148061485b57506001600160e01b03198216635b5e139f60e01b145b8061069b57506301ffc9a760e01b6001600160e01b031983161461069b565b6000600161488784610d23565b6148919190615dd2565b6000838152600760205260409020549091508082146148e4576001600160a01b03841660009081526006602090815260408083208584528252808320548484528184208190558352600790915290208190555b5060009182526007602090815260408084208490556001600160a01b039094168352600681528383209183525290812055565b60085460009061492990600190615dd2565b6000838152600960205260408120546008805493945090928490811061495f57634e487b7160e01b600052603260045260246000fd5b90600052602060002001549050806008838154811061498e57634e487b7160e01b600052603260045260246000fd5b60009182526020808320909101929092558281526009909152604080822084905585825281205560088054806149d457634e487b7160e01b600052603160045260246000fd5b6001900381819060005260206000200160009055905550505050565b60006149fb83610d23565b6001600160a01b039093166000908152600660209081526040808320868452825280832085905593825260079052919091209190915550565b80356001600160a01b0381168114614a4b57600080fd5b919050565b803561ffff81168114614a4b57600080fd5b803562ffffff81168114614a4b57600080fd5b803560ff81168114614a4b57600080fd5b600060208284031215614a97578081fd5b612c6b82614a34565b60008060408385031215614ab2578081fd5b614abb83614a34565b9150614ac960208401614a34565b90509250929050565b600080600060608486031215614ae6578081fd5b614aef84614a34565b9250614afd60208501614a34565b9150604084013590509250925092565b60008060008060808587031215614b22578081fd5b614b2b85614a34565b93506020614b3a818701614a34565b935060408601359250606086013567ffffffffffffffff80821115614b5d578384fd5b818801915088601f830112614b70578384fd5b813581811115614b8257614b82615eef565b614b94601f8201601f19168501615d0e565b91508082528984828501011115614ba9578485fd5b8084840185840137810190920192909252939692955090935050565b60008060408385031215614bd7578182fd5b614be083614a34565b915060208301358015158114614bf4578182fd5b809150509250929050565b60008060408385031215614c11578182fd5b614c1a83614a34565b946020939093013593505050565b60006020808385031215614c3a578182fd5b823567ffffffffffffffff80821115614c51578384fd5b818501915085601f830112614c64578384fd5b813581811115614c7657614c76615eef565b8060051b9150614c87848301615d0e565b8181528481019084860184860187018a1015614ca1578788fd5b8795505b83861015614cca57614cb681614a62565b835260019590950194918601918601614ca5565b5098975050505050505050565b600060208284031215614ce8578081fd5b8135612c6b81615f05565b600060208284031215614d04578081fd5b8151612c6b81615f05565b600060208284031215614d20578081fd5b612c6b82614a50565b6000806000806000806000806000806000806101808d8f031215614d4b578788fd5b614d548d614a62565b9b50614d6260208e01614a75565b9a50614d7060408e01614a75565b9950614d7e60608e01614a75565b9850614d8c60808e01614a75565b9750614d9a60a08e01614a75565b9650614da860c08e01614a50565b9550614db660e08e01614a75565b9450614dc56101008e01614a75565b9350614dd46101208e01614a75565b9250614de36101408e01614a75565b9150614df26101608e01614a75565b90509295989b509295989b509295989b565b600060208284031215614e15578081fd5b5035919050565b60008060408385031215614e2e578182fd5b50508035926020909101359150565b60008151808452614e55816020860160208601615e0c565b601f01601f19169290920160200192915050565b60008151614e7b818560208601615e0c565b9290920192915050565b60008351614e97818460208801615e0c565b835190830190614eab818360208801615e0c565b61016160f51b9101908152600201949350505050565b60008851614ed3818460208d01615e0c565b683c7265637420783d2760b81b9083019081528851614ef9816009840160208d01615e0c565b6e2720793d2730272077696474683d2760881b600992909101918201528751614f29816018840160208c01615e0c565b7f27206865696768743d2732303030272066696c6c3d2700000000000000000000601892909101918201528651614f6781602e840160208b01615e0c565b6e27206f7061636974793d27302e382760881b602e92909101918201527f207472616e73666f726d3d27726f746174652800000000000000000000000000603d82015261508d61503e615038615005614fff614fc6605087018c614e69565b7f2031303030203130303029273e3c616e696d61746520626567696e3d2027307381526627206475723d2760c81b602082015260270190565b89614e69565b7f6d7327206174747269627574654e616d653d2766696c6c272076616c7565733d8152602760f81b602082015260210190565b86614e69565b7f3b272066696c6c3d27667265657a652720726570656174436f756e743d27696e81527f646566696e697465272f3e3c2f726563743e0000000000000000000000000000602082015260320190565b9a9950505050505050505050565b600085516150ad818460208a01615e0c565b8083019050600160fd1b80825286516150cd816001850160208b01615e0c565b6001920191820181905285516150ea816002850160208a01615e0c565b60029201918201528351615105816003840160208801615e0c565b016003019695505050505050565b60008451615125818460208901615e0c565b8083019050603b60f81b8082528551615145816001850160208a01615e0c565b60019201918201528351615160816002840160208801615e0c565b0160020195945050505050565b6000825161517f818460208701615e0c565b61016160f51b920191825250600201919050565b7f7b2274726169745f74797065223a20227370656564222c202276616c7565223a815261101160f11b6020820152600082516151d6816022850160208701615e0c565b61227d60f01b6022939091019283015250602401919050565b6d036b0b3b734b334b1b2b73a363c960951b81526000825161521881600e850160208701615e0c565b91909101600e0192915050565b63783d272d60e01b815260008551615244816004850160208a01615e0c565b652720793d272d60d01b600491840191820152855161526a81600a840160208a01615e0c565b68272077696474683d2760b81b600a92909101918201528451615294816013840160208901615e0c565b6927206865696768743d2760b01b6013929091019182015283516152bf81601d840160208801615e0c565b602760f81b601d9290910191820152601e019695505050505050565b630e4cec4560e31b8152600084516152fa816004850160208901615e0c565b808301905061016160f51b806004830152855161531e816006850160208a01615e0c565b60069201918201528351615339816008840160208801615e0c565b602960f81b6008929091019182015260090195945050505050565b7f3c73766720786d6c6e733d27687474703a2f2f7777772e77332e6f72672f323081527f30302f737667272076696577426f783d270000000000000000000000000000006020820152600085516153b2816031850160208a01615e0c565b7f272073686170652d72656e646572696e673d270000000000000000000000000060319184019182015285516153ef816044840160208a01615e0c565b61139f60f11b604492909101918201528451615412816046840160208901615e0c565b7f3c6720636c69702d706174683d2775726c28236d6173746572436c697029273e604692909101918201528351615450816066840160208801615e0c565b691e17b39f1e17b9bb339f60b11b606692909101918201526070019695505050505050565b7f7b2274726169745f74797065223a20227a6f6f6d222c202276616c7565223a208152601160f91b6020820152600082516154b7816021850160208701615e0c565b61227d60f01b6021939091019283015250602301919050565b7f7b2274726169745f74797065223a2022726f746174696f6e206465677265657381526c111610113b30b63ab2911d101160991b60208201526000835161551e81602d850160208801615e0c565b7f227d2c207b2274726169745f74797065223a2022726f746174696f6e2072616e602d918401918201526e33b2911610113b30b63ab2911d101160891b604d820152835161557381605c840160208801615e0c565b61227d60f01b605c9290910191820152605e01949350505050565b7f7b2274726169745f74797065223a202274696e7420636f6c6f7572222c20227681526730b63ab2911d101160c11b6020820152600082516155d7816028850160208701615e0c565b61227d60f01b6028939091019283015250602a01919050565b7f7b2274726169745f74797065223a2022636f6c6f757220776179222c20227661815266363ab2911d101160c91b602082015260008251615638816027850160208701615e0c565b61227d60f01b6027939091019283015250602901919050565b7f7b2274726169745f74797065223a2022666f726d222c202276616c7565223a208152601160f91b6020820152600082516154b7816021850160208701615e0c565b6e2261747472696275746573223a205b60881b8152865160009060206156bf82600f8601838d01615e0c565b8851918401916156d581600f8501848d01615e0c565b80830192505061016160f51b80600f84015288516156f98160118601858d01615e0c565b6011930192830181905287516157158160138601858c01615e0c565b6013930192830181905286516157318160158601858b01615e0c565b6015930192830152845161574b8160178501848901615e0c565b615761601782850101605d60f81b815260010190565b9b9a5050505050505050505050565b62783d2760e81b81526000855161578e816003850160208a01615e0c565b642720793d2760d81b60039184019182015285516157b3816008840160208a01615e0c565b68272077696474683d2760b81b6008929091019182015284516157dd816011840160208901615e0c565b6927206865696768743d2760b01b60119290910191820152835161580881601b840160208801615e0c565b602760f81b601b9290910191820152601c019695505050505050565b7f7b2274726169745f74797065223a20227370656564206d696e222c202276616c8152653ab2911d101160d11b60208201526000835161586b816026850160208801615e0c565b7f227d2c207b2274726169745f74797065223a20227370656564206d6178222c2060269184019182015269113b30b63ab2911d101160b11b604682015283516158bb816050840160208801615e0c565b61227d60f01b60509290910191820152605201949350505050565b602d60f81b8152600085516158f2816001850160208a01615e0c565b61202d60f01b6001918401918201528551615914816003840160208a01615e0c565b808201915050600160fd1b8060038301528551615938816004850160208a01615e0c565b60049201918201528351615953816005840160208801615e0c565b016005019695505050505050565b7f646174613a746578742f706c61696e2c7b226e616d65223a2244796e6153747281526569706573202360d01b6020820152600085516159a8816026850160208a01615e0c565b7f222c20226465736372697074696f6e223a226f6e2d636861696e2c2067656e656026918401918201527f7261746976652044796e615374726970657320617274776f726b222c2000000060468201528551615a0b816063840160208a01615e0c565b61016160f51b606392909101918201528451615a2e816065840160208901615e0c565b7f2c2022696d616765223a22646174613a696d6167652f7376672b786d6c2c0000606592909101918201528351615a6c816083840160208801615e0c565b61227d60f01b608392909101918201526085019695505050505050565b6a03837bbb2b9333ab6363c960ad1b815260008251615aaf81600b850160208701615e0c565b91909101600b0192915050565b66033b2b73a363c960cd1b815260008251615ade816007850160208701615e0c565b9190910160070192915050565b6703a32b834b2363c960c51b815260008251615b0e816008850160208701615e0c565b9190910160080192915050565b7f7b2274726169745f74797065223a2022737472697065207769647468206d696e81526c111610113b30b63ab2911d101160991b602082015260008351615b6981602d850160208801615e0c565b7f227d2c207b2274726169745f74797065223a2022737472697065207769647468602d918401918201527f206d6178222c202276616c7565223a2022000000000000000000000000000000604d8201528351615bcc81605e840160208801615e0c565b61227d60f01b605e9290910191820152606001949350505050565b7f3c646566733e3c636c6970506174682069643d276d6173746572436c6970273e81526501e3932b1ba160d51b602082015260008251615c2e816026850160208701615e0c565b7f2f3e3c2f636c6970506174683e3c2f646566733e0000000000000000000000006026939091019283015250603a01919050565b60006001600160a01b03808716835280861660208401525083604083015260806060830152615c946080830184614e3d565b9695505050505050565b602081526000612c6b6020830184614e3d565b60208082526032908201527f4552433732313a207472616e7366657220746f206e6f6e20455243373231526560408201527f63656976657220696d706c656d656e7465720000000000000000000000000000606082015260800190565b604051601f8201601f1916810167ffffffffffffffff81118282101715615d3757615d37615eef565b604052919050565b600061ffff808316818516808303821115615d5c57615d5c615ec3565b01949350505050565b60008219821115615d7857615d78615ec3565b500190565b600082615d8c57615d8c615ed9565b500490565b600060ff831680615da457615da4615ed9565b8060ff84160491505092915050565b6000816000190483118215151615615dcd57615dcd615ec3565b500290565b600082821015615de457615de4615ec3565b500390565b600060ff821660ff841680821015615e0357615e03615ec3565b90039392505050565b60005b83811015615e27578181015183820152602001615e0f565b838111156117f75750506000910152565b600181811c90821680615e4c57607f821691505b60208210811415615e6d57634e487b7160e01b600052602260045260246000fd5b50919050565b6000600019821415615e8757615e87615ec3565b5060010190565b600061ffff80841680615ea357615ea3615ed9565b92169190910692915050565b600082615ebe57615ebe615ed9565b500690565b634e487b7160e01b600052601160045260246000fd5b634e487b7160e01b600052601260045260246000fd5b634e487b7160e01b600052604160045260246000fd5b6001600160e01b031981168114610c0857600080fdfe68747470733a2f2f7777772e64796e61737472697065732e636f6d2f73746f726566726f6e742d6d657461646174614f776e61626c653a2063616c6c6572206973206e6f7420746865206f776e6572a2646970667358221220ecdb43f3dc4eb10a76a434269fb2823117702d8baed43f290c5db3b1e8958ebf64736f6c63430008040033",
  "linkReferences": {},
  "deployedLinkReferences": {}
}