{
  "_format": "hh-sol-artifact-1",
  "contractName": "DynaStripes",
  "sourceName": "contracts/DynaStripes.sol",
  "abi": [
    {
      "inputs": [],
      "stateMutability": "nonpayable",
      "type": "constructor"
    },
    {
      "anonymous": false,
      "inputs": [
        {
          "indexed": true,
          "internalType": "address",
          "name": "owner",
          "type": "address"
        },
        {
          "indexed": true,
          "internalType": "address",
          "name": "approved",
          "type": "address"
        },
        {
          "indexed": true,
          "internalType": "uint256",
          "name": "tokenId",
          "type": "uint256"
        }
      ],
      "name": "Approval",
      "type": "event"
    },
    {
      "anonymous": false,
      "inputs": [
        {
          "indexed": true,
          "internalType": "address",
          "name": "owner",
          "type": "address"
        },
        {
          "indexed": true,
          "internalType": "address",
          "name": "operator",
          "type": "address"
        },
        {
          "indexed": false,
          "internalType": "bool",
          "name": "approved",
          "type": "bool"
        }
      ],
      "name": "ApprovalForAll",
      "type": "event"
    },
    {
      "anonymous": false,
      "inputs": [
        {
          "indexed": true,
          "internalType": "address",
          "name": "previousOwner",
          "type": "address"
        },
        {
          "indexed": true,
          "internalType": "address",
          "name": "newOwner",
          "type": "address"
        }
      ],
      "name": "OwnershipTransferred",
      "type": "event"
    },
    {
      "anonymous": false,
      "inputs": [
        {
          "indexed": false,
          "internalType": "address",
          "name": "account",
          "type": "address"
        }
      ],
      "name": "Paused",
      "type": "event"
    },
    {
      "anonymous": false,
      "inputs": [
        {
          "indexed": true,
          "internalType": "address",
          "name": "from",
          "type": "address"
        },
        {
          "indexed": true,
          "internalType": "address",
          "name": "to",
          "type": "address"
        },
        {
          "indexed": true,
          "internalType": "uint256",
          "name": "tokenId",
          "type": "uint256"
        }
      ],
      "name": "Transfer",
      "type": "event"
    },
    {
      "anonymous": false,
      "inputs": [
        {
          "indexed": false,
          "internalType": "address",
          "name": "account",
          "type": "address"
        }
      ],
      "name": "Unpaused",
      "type": "event"
    },
    {
      "inputs": [],
      "name": "ROYALTY_BPS",
      "outputs": [
        {
          "internalType": "uint16",
          "name": "",
          "type": "uint16"
        }
      ],
      "stateMutability": "view",
      "type": "function"
    },
    {
      "inputs": [],
      "name": "TOKEN_LIMIT",
      "outputs": [
        {
          "internalType": "uint16",
          "name": "",
          "type": "uint16"
        }
      ],
      "stateMutability": "view",
      "type": "function"
    },
    {
      "inputs": [
        {
          "internalType": "address",
          "name": "to",
          "type": "address"
        },
        {
          "internalType": "uint256",
          "name": "tokenId",
          "type": "uint256"
        }
      ],
      "name": "approve",
      "outputs": [],
      "stateMutability": "nonpayable",
      "type": "function"
    },
    {
      "inputs": [
        {
          "internalType": "address",
          "name": "owner",
          "type": "address"
        }
      ],
      "name": "balanceOf",
      "outputs": [
        {
          "internalType": "uint256",
          "name": "",
          "type": "uint256"
        }
      ],
      "stateMutability": "view",
      "type": "function"
    },
    {
      "inputs": [
        {
          "internalType": "uint32[]",
          "name": "seeds",
          "type": "uint32[]"
        }
      ],
      "name": "banRandomSeeds",
      "outputs": [],
      "stateMutability": "nonpayable",
      "type": "function"
    },
    {
      "inputs": [
        {
          "internalType": "uint256",
          "name": "tokenId",
          "type": "uint256"
        }
      ],
      "name": "burn",
      "outputs": [],
      "stateMutability": "nonpayable",
      "type": "function"
    },
    {
      "inputs": [],
      "name": "contractURI",
      "outputs": [
        {
          "internalType": "string",
          "name": "",
          "type": "string"
        }
      ],
      "stateMutability": "pure",
      "type": "function"
    },
    {
      "inputs": [
        {
          "internalType": "uint256",
          "name": "_tokenId",
          "type": "uint256"
        }
      ],
      "name": "generateSvg",
      "outputs": [
        {
          "internalType": "string",
          "name": "",
          "type": "string"
        }
      ],
      "stateMutability": "view",
      "type": "function"
    },
    {
      "inputs": [
        {
          "internalType": "uint256",
          "name": "tokenId",
          "type": "uint256"
        }
      ],
      "name": "getApproved",
      "outputs": [
        {
          "internalType": "address",
          "name": "",
          "type": "address"
        }
      ],
      "stateMutability": "view",
      "type": "function"
    },
    {
      "inputs": [],
      "name": "getMintPrice",
      "outputs": [
        {
          "internalType": "uint256",
          "name": "",
          "type": "uint256"
        }
      ],
      "stateMutability": "view",
      "type": "function"
    },
    {
      "inputs": [],
      "name": "getTokenLimit",
      "outputs": [
        {
          "internalType": "uint16",
          "name": "",
          "type": "uint16"
        }
      ],
      "stateMutability": "view",
      "type": "function"
    },
    {
      "inputs": [
        {
          "internalType": "address",
          "name": "owner",
          "type": "address"
        },
        {
          "internalType": "address",
          "name": "operator",
          "type": "address"
        }
      ],
      "name": "isApprovedForAll",
      "outputs": [
        {
          "internalType": "bool",
          "name": "",
          "type": "bool"
        }
      ],
      "stateMutability": "view",
      "type": "function"
    },
    {
      "inputs": [
        {
          "internalType": "uint32",
          "name": "_randomSeed",
          "type": "uint32"
        },
        {
          "internalType": "uint8",
          "name": "_zoom",
          "type": "uint8"
        },
        {
          "internalType": "uint8",
          "name": "_tintRed",
          "type": "uint8"
        },
        {
          "internalType": "uint8",
          "name": "_tintGreen",
          "type": "uint8"
        },
        {
          "internalType": "uint8",
          "name": "_tintBlue",
          "type": "uint8"
        },
        {
          "internalType": "uint8",
          "name": "_tintAlpha",
          "type": "uint8"
        },
        {
          "internalType": "uint8",
          "name": "_rotationMin",
          "type": "uint8"
        },
        {
          "internalType": "uint8",
          "name": "_rotationMax",
          "type": "uint8"
        },
        {
          "internalType": "uint8",
          "name": "_stripeWidthMin",
          "type": "uint8"
        },
        {
          "internalType": "uint8",
          "name": "_stripeWidthMax",
          "type": "uint8"
        },
        {
          "internalType": "uint8",
          "name": "_speedMin",
          "type": "uint8"
        },
        {
          "internalType": "uint8",
          "name": "_speedMax",
          "type": "uint8"
        }
      ],
      "name": "mintStripes",
      "outputs": [],
      "stateMutability": "payable",
      "type": "function"
    },
    {
      "inputs": [],
      "name": "name",
      "outputs": [
        {
          "internalType": "string",
          "name": "",
          "type": "string"
        }
      ],
      "stateMutability": "view",
      "type": "function"
    },
    {
      "inputs": [],
      "name": "owner",
      "outputs": [
        {
          "internalType": "address",
          "name": "",
          "type": "address"
        }
      ],
      "stateMutability": "view",
      "type": "function"
    },
    {
      "inputs": [
        {
          "internalType": "uint256",
          "name": "tokenId",
          "type": "uint256"
        }
      ],
      "name": "ownerOf",
      "outputs": [
        {
          "internalType": "address",
          "name": "",
          "type": "address"
        }
      ],
      "stateMutability": "view",
      "type": "function"
    },
    {
      "inputs": [],
      "name": "pause",
      "outputs": [],
      "stateMutability": "nonpayable",
      "type": "function"
    },
    {
      "inputs": [],
      "name": "paused",
      "outputs": [
        {
          "internalType": "bool",
          "name": "",
          "type": "bool"
        }
      ],
      "stateMutability": "view",
      "type": "function"
    },
    {
      "inputs": [
        {
          "internalType": "uint256",
          "name": "amount",
          "type": "uint256"
        }
      ],
      "name": "payOwner",
      "outputs": [],
      "stateMutability": "nonpayable",
      "type": "function"
    },
    {
      "inputs": [],
      "name": "renounceOwnership",
      "outputs": [],
      "stateMutability": "nonpayable",
      "type": "function"
    },
    {
      "inputs": [
        {
          "internalType": "uint256",
          "name": "tokenId",
          "type": "uint256"
        },
        {
          "internalType": "uint256",
          "name": "value",
          "type": "uint256"
        }
      ],
      "name": "royaltyInfo",
      "outputs": [
        {
          "internalType": "address",
          "name": "receiver",
          "type": "address"
        },
        {
          "internalType": "uint256",
          "name": "royaltyAmount",
          "type": "uint256"
        }
      ],
      "stateMutability": "view",
      "type": "function"
    },
    {
      "inputs": [
        {
          "internalType": "address",
          "name": "to",
          "type": "address"
        }
      ],
      "name": "safeMint",
      "outputs": [],
      "stateMutability": "nonpayable",
      "type": "function"
    },
    {
      "inputs": [
        {
          "internalType": "address",
          "name": "from",
          "type": "address"
        },
        {
          "internalType": "address",
          "name": "to",
          "type": "address"
        },
        {
          "internalType": "uint256",
          "name": "tokenId",
          "type": "uint256"
        }
      ],
      "name": "safeTransferFrom",
      "outputs": [],
      "stateMutability": "nonpayable",
      "type": "function"
    },
    {
      "inputs": [
        {
          "internalType": "address",
          "name": "from",
          "type": "address"
        },
        {
          "internalType": "address",
          "name": "to",
          "type": "address"
        },
        {
          "internalType": "uint256",
          "name": "tokenId",
          "type": "uint256"
        },
        {
          "internalType": "bytes",
          "name": "_data",
          "type": "bytes"
        }
      ],
      "name": "safeTransferFrom",
      "outputs": [],
      "stateMutability": "nonpayable",
      "type": "function"
    },
    {
      "inputs": [
        {
          "internalType": "address",
          "name": "operator",
          "type": "address"
        },
        {
          "internalType": "bool",
          "name": "approved",
          "type": "bool"
        }
      ],
      "name": "setApprovalForAll",
      "outputs": [],
      "stateMutability": "nonpayable",
      "type": "function"
    },
    {
      "inputs": [
        {
          "internalType": "uint256",
          "name": "_mintPrice",
          "type": "uint256"
        }
      ],
      "name": "setMintPrice",
      "outputs": [],
      "stateMutability": "nonpayable",
      "type": "function"
    },
    {
      "inputs": [
        {
          "internalType": "uint16",
          "name": "_tokenLimit",
          "type": "uint16"
        }
      ],
      "name": "setTokenLimit",
      "outputs": [],
      "stateMutability": "nonpayable",
      "type": "function"
    },
    {
      "inputs": [
        {
          "internalType": "bytes4",
          "name": "interfaceId",
          "type": "bytes4"
        }
      ],
      "name": "supportsInterface",
      "outputs": [
        {
          "internalType": "bool",
          "name": "",
          "type": "bool"
        }
      ],
      "stateMutability": "view",
      "type": "function"
    },
    {
      "inputs": [],
      "name": "symbol",
      "outputs": [
        {
          "internalType": "string",
          "name": "",
          "type": "string"
        }
      ],
      "stateMutability": "view",
      "type": "function"
    },
    {
      "inputs": [
        {
          "internalType": "uint256",
          "name": "index",
          "type": "uint256"
        }
      ],
      "name": "tokenByIndex",
      "outputs": [
        {
          "internalType": "uint256",
          "name": "",
          "type": "uint256"
        }
      ],
      "stateMutability": "view",
      "type": "function"
    },
    {
      "inputs": [
        {
          "internalType": "address",
          "name": "owner",
          "type": "address"
        },
        {
          "internalType": "uint256",
          "name": "index",
          "type": "uint256"
        }
      ],
      "name": "tokenOfOwnerByIndex",
      "outputs": [
        {
          "internalType": "uint256",
          "name": "",
          "type": "uint256"
        }
      ],
      "stateMutability": "view",
      "type": "function"
    },
    {
      "inputs": [
        {
          "internalType": "uint256",
          "name": "_tokenId",
          "type": "uint256"
        }
      ],
      "name": "tokenURI",
      "outputs": [
        {
          "internalType": "string",
          "name": "",
          "type": "string"
        }
      ],
      "stateMutability": "view",
      "type": "function"
    },
    {
      "inputs": [],
      "name": "totalSupply",
      "outputs": [
        {
          "internalType": "uint256",
          "name": "",
          "type": "uint256"
        }
      ],
      "stateMutability": "view",
      "type": "function"
    },
    {
      "inputs": [
        {
          "internalType": "address",
          "name": "from",
          "type": "address"
        },
        {
          "internalType": "address",
          "name": "to",
          "type": "address"
        },
        {
          "internalType": "uint256",
          "name": "tokenId",
          "type": "uint256"
        }
      ],
      "name": "transferFrom",
      "outputs": [],
      "stateMutability": "nonpayable",
      "type": "function"
    },
    {
      "inputs": [
        {
          "internalType": "address",
          "name": "newOwner",
          "type": "address"
        }
      ],
      "name": "transferOwnership",
      "outputs": [],
      "stateMutability": "nonpayable",
      "type": "function"
    },
    {
      "inputs": [],
      "name": "unpause",
      "outputs": [],
      "stateMutability": "nonpayable",
      "type": "function"
    },
    {
      "stateMutability": "payable",
      "type": "receive"
    }
  ],
  "bytecode": "0x6080604052600d805461ffff19166103e8179055662386f26fc100006010553480156200002b57600080fd5b50604080518082018252600b81526a44796e615374726970657360a81b60208083019182528351808501909452600384526244535360e81b908401528151919291839183916200007e916000916200010e565b508051620000949060019060208401906200010e565b5050600a805460ff1916905550620000ac33620000b4565b5050620001f1565b600a80546001600160a01b03838116610100818102610100600160a81b031985161790945560405193909204169182907f8be0079c531659141344cd1fd0a4f28419497f9722a3daafe3b4186f6b6457e090600090a35050565b8280546200011c90620001b4565b90600052602060002090601f0160209004810192826200014057600085556200018b565b82601f106200015b57805160ff19168380011785556200018b565b828001600101855582156200018b579182015b828111156200018b5782518255916020019190600101906200016e565b50620001999291506200019d565b5090565b5b808211156200019957600081556001016200019e565b600181811c90821680620001c957607f821691505b60208210811415620001eb57634e487b7160e01b600052602260045260246000fd5b50919050565b6149ac80620002016000396000f3fe6080604052600436106102535760003560e01c80635c975abb11610138578063a7f93ebd116100b0578063e8a3d4851161007f578063eb3af37411610064578063eb3af3741461069b578063f2fde38b146106bb578063f4a0a528146106db57600080fd5b8063e8a3d4851461063d578063e985e9c51461065257600080fd5b8063a7f93ebd146105c8578063b88d4fde146105dd578063bc921dc2146105fd578063c87b56dd1461061d57600080fd5b806377c39a89116101075780638da5cb5b116100ec5780638da5cb5b1461057057806395d89b4114610593578063a22cb465146105a857600080fd5b806377c39a891461053b5780638456cb591461055b57600080fd5b80635c975abb146104ce5780636352211e146104e657806370a0823114610506578063715018a61461052657600080fd5b80632a55205a116101cb57806342842e0e1161019a57806349c657db1161017f57806349c657db146104855780634f6ccce71461049b57806350fd2749146104bb57600080fd5b806342842e0e1461044557806342966c681461046557600080fd5b80632a55205a146103b15780632f745c59146103f05780633f4ba83a1461041057806340d097c31461042557600080fd5b806308d78c3c1161022257806318160ddd1161020757806318160ddd1461035957806323b872dd14610378578063284855861461039857600080fd5b806308d78c3c14610317578063095ea7b31461033957600080fd5b806301ffc9a71461025f578063031bd4c41461029457806306fdde03146102bd578063081812fc146102df57600080fd5b3661025a57005b600080fd5b34801561026b57600080fd5b5061027f61027a36600461385e565b6106fb565b60405190151581526020015b60405180910390f35b3480156102a057600080fd5b506102aa61271081565b60405161ffff909116815260200161028b565b3480156102c957600080fd5b506102d261070c565b60405161028b91906146db565b3480156102eb57600080fd5b506102ff6102fa3660046138b8565b61079e565b6040516001600160a01b03909116815260200161028b565b34801561032357600080fd5b506103376103323660046138b8565b610838565b005b34801561034557600080fd5b50610337610354366004613786565b61092d565b34801561036557600080fd5b506008545b60405190815260200161028b565b34801561038457600080fd5b50610337610393366004613659565b610a5a565b3480156103a457600080fd5b50600d5461ffff166102aa565b3480156103bd57600080fd5b506103d16103cc3660046138d0565b610ae2565b604080516001600160a01b03909316835260208301919091520161028b565b3480156103fc57600080fd5b5061036a61040b366004613786565b610b3b565b34801561041c57600080fd5b50610337610be3565b34801561043157600080fd5b5061033761044036600461360d565b610c4d565b34801561045157600080fd5b50610337610460366004613659565b610cd0565b34801561047157600080fd5b506103376104803660046138b8565b610ceb565b34801561049157600080fd5b506102aa6103e881565b3480156104a757600080fd5b5061036a6104b63660046138b8565b610d6f565b6103376104c93660046138f1565b610e21565b3480156104da57600080fd5b50600a5460ff1661027f565b3480156104f257600080fd5b506102ff6105013660046138b8565b6114e4565b34801561051257600080fd5b5061036a61052136600461360d565b61156f565b34801561053257600080fd5b50610337611609565b34801561054757600080fd5b50610337610556366004613896565b611673565b34801561056757600080fd5b506103376116fe565b34801561057c57600080fd5b50600a5461010090046001600160a01b03166102ff565b34801561059f57600080fd5b506102d2611766565b3480156105b457600080fd5b506103376105c336600461374c565b611775565b3480156105d457600080fd5b5060105461036a565b3480156105e957600080fd5b506103376105f8366004613694565b61183a565b34801561060957600080fd5b506102d26106183660046138b8565b6118c8565b34801561062957600080fd5b506102d26106383660046138b8565b611b78565b34801561064957600080fd5b506102d2611f16565b34801561065e57600080fd5b5061027f61066d366004613627565b6001600160a01b03918216600090815260056020908152604080832093909416825291909152205460ff1690565b3480156106a757600080fd5b506103376106b63660046137af565b611f36565b3480156106c757600080fd5b506103376106d636600461360d565b612006565b3480156106e757600080fd5b506103376106f63660046138b8565b6120eb565b600061070682612150565b92915050565b60606000805461071b90614885565b80601f016020809104026020016040519081016040528092919081815260200182805461074790614885565b80156107945780601f1061076957610100808354040283529160200191610794565b820191906000526020600020905b81548152906001019060200180831161077757829003601f168201915b5050505050905090565b6000818152600260205260408120546001600160a01b031661081c5760405162461bcd60e51b815260206004820152602c60248201527f4552433732313a20617070726f76656420717565727920666f72206e6f6e657860448201526b34b9ba32b73a103a37b5b2b760a11b60648201526084015b60405180910390fd5b506000908152600460205260409020546001600160a01b031690565b600a546001600160a01b036101009091041633146108985760405162461bcd60e51b815260206004820181905260248201527f4f776e61626c653a2063616c6c6572206973206e6f7420746865206f776e65726044820152606401610813565b478111156108e85760405162461bcd60e51b815260206004820152600f60248201527f416d6f756e7420746f6f206869676800000000000000000000000000000000006044820152606401610813565b600a546040516101009091046001600160a01b031690819083156108fc029084906000818181858888f19350505050158015610928573d6000803e3d6000fd5b505050565b6000610938826114e4565b9050806001600160a01b0316836001600160a01b031614156109c25760405162461bcd60e51b815260206004820152602160248201527f4552433732313a20617070726f76616c20746f2063757272656e74206f776e6560448201527f72000000000000000000000000000000000000000000000000000000000000006064820152608401610813565b336001600160a01b03821614806109de57506109de813361066d565b610a505760405162461bcd60e51b815260206004820152603860248201527f4552433732313a20617070726f76652063616c6c6572206973206e6f74206f7760448201527f6e6572206e6f7220617070726f76656420666f7220616c6c00000000000000006064820152608401610813565b610928838361218e565b610a65335b826121fc565b610ad75760405162461bcd60e51b815260206004820152603160248201527f4552433732313a207472616e736665722063616c6c6572206973206e6f74206f60448201527f776e6572206e6f7220617070726f7665640000000000000000000000000000006064820152608401610813565b6109288383836122f3565b6000828152600c60209081526040808320815180830190925280546001600160a01b0316808352600190910154928201839052839261271090610b259087614800565b610b2f91906147c2565b92509250509250929050565b6000610b468361156f565b8210610bba5760405162461bcd60e51b815260206004820152602b60248201527f455243373231456e756d657261626c653a206f776e657220696e646578206f7560448201527f74206f6620626f756e64730000000000000000000000000000000000000000006064820152608401610813565b506001600160a01b03919091166000908152600660209081526040808320938352929052205490565b600a546001600160a01b03610100909104163314610c435760405162461bcd60e51b815260206004820181905260248201527f4f776e61626c653a2063616c6c6572206973206e6f7420746865206f776e65726044820152606401610813565b610c4b6124cb565b565b600a546001600160a01b03610100909104163314610cad5760405162461bcd60e51b815260206004820181905260248201527f4f776e61626c653a2063616c6c6572206973206e6f7420746865206f776e65726044820152606401610813565b610cbf81610cba600b5490565b612567565b610ccd600b80546001019055565b50565b6109288383836040518060200160405280600081525061183a565b610cf433610a5f565b610d665760405162461bcd60e51b815260206004820152603060248201527f4552433732314275726e61626c653a2063616c6c6572206973206e6f74206f7760448201527f6e6572206e6f7220617070726f766564000000000000000000000000000000006064820152608401610813565b610ccd81612581565b6000610d7a60085490565b8210610dee5760405162461bcd60e51b815260206004820152602c60248201527f455243373231456e756d657261626c653a20676c6f62616c20696e646578206f60448201527f7574206f6620626f756e647300000000000000000000000000000000000000006064820152608401610813565b60088281548110610e0f57634e487b7160e01b600052603260045260246000fd5b90600052602060002001549050919050565b6000610e2c600b5490565b600d5490915061ffff1681108015610e45575061271081105b610e915760405162461bcd60e51b815260206004820152601360248201527f546f6b656e206c696d69742072656163686564000000000000000000000000006044820152606401610813565b601054341015610ee35760405162461bcd60e51b815260206004820152601060248201527f4e6f7420656e6f756768206574686572000000000000000000000000000000006044820152606401610813565b60648c60ff161115610f375760405162461bcd60e51b815260206004820152600c60248201527f5a6f6f6d20696e76616c696400000000000000000000000000000000000000006044820152606401610813565b60ff8b60ff161115610f8b5760405162461bcd60e51b815260206004820152601060248201527f74696e742072656420696e76616c6964000000000000000000000000000000006044820152606401610813565b60ff8a60ff161115610fdf5760405162461bcd60e51b815260206004820152601260248201527f74696e7420677265656e20696e76616c696400000000000000000000000000006044820152606401610813565b60ff8960ff1611156110335760405162461bcd60e51b815260206004820152601160248201527f74696e7420626c756520696e76616c69640000000000000000000000000000006044820152606401610813565b60ff8860ff1611156110875760405162461bcd60e51b815260206004820152601260248201527f74696e7420616c70686120696e76616c696400000000000000000000000000006044820152606401610813565b60b48660ff16111580156110a157508560ff168760ff1611155b6110ed5760405162461bcd60e51b815260206004820152601060248201527f526f746174696f6e20696e76616c6964000000000000000000000000000000006044820152606401610813565b60198560ff1610158015611105575060fa8460ff1611155b801561111757508360ff168560ff1611155b6111635760405162461bcd60e51b815260206004820152601460248201527f53747269706520776964746820696e76616c69640000000000000000000000006044820152606401610813565b60198360ff161015801561117b575060fa8260ff1611155b801561118d57508160ff168360ff1611155b6111d95760405162461bcd60e51b815260206004820152601360248201527f53706565642076616c756520696e76616c6964000000000000000000000000006044820152606401610813565b624c4b408d63ffffffff16108015611207575063ffffffff8d166000908152600e602052604090205460ff16155b6112535760405162461bcd60e51b815260206004820152601360248201527f52616e646f6d207365656420696e76616c6964000000000000000000000000006044820152606401610813565b61125d3382612567565b61126a81336103e8612628565b6040518061018001604052808e63ffffffff1681526020018d60ff1681526020018c60ff1681526020018b60ff1681526020018a60ff1681526020018960ff1681526020018860ff1681526020018760ff1681526020018660ff1681526020018560ff1681526020018460ff1681526020018360ff16815250600f600083815260200190815260200160002060008201518160000160006101000a81548163ffffffff021916908363ffffffff16021790555060208201518160000160046101000a81548160ff021916908360ff16021790555060408201518160000160056101000a81548160ff021916908360ff16021790555060608201518160000160066101000a81548160ff021916908360ff16021790555060808201518160000160076101000a81548160ff021916908360ff16021790555060a08201518160000160086101000a81548160ff021916908360ff16021790555060c08201518160000160096101000a81548160ff021916908360ff16021790555060e082015181600001600a6101000a81548160ff021916908360ff16021790555061010082015181600001600b6101000a81548160ff021916908360ff16021790555061012082015181600001600c6101000a81548160ff021916908360ff16021790555061014082015181600001600d6101000a81548160ff021916908360ff16021790555061016082015181600001600e6101000a81548160ff021916908360ff1602179055509050506001600e60008f63ffffffff1663ffffffff16815260200190815260200160002060006101000a81548160ff0219169083151502179055506114d5600b80546001019055565b50505050505050505050505050565b6000818152600260205260408120546001600160a01b0316806107065760405162461bcd60e51b815260206004820152602960248201527f4552433732313a206f776e657220717565727920666f72206e6f6e657869737460448201527f656e7420746f6b656e00000000000000000000000000000000000000000000006064820152608401610813565b60006001600160a01b0382166115ed5760405162461bcd60e51b815260206004820152602a60248201527f4552433732313a2062616c616e636520717565727920666f7220746865207a6560448201527f726f2061646472657373000000000000000000000000000000000000000000006064820152608401610813565b506001600160a01b031660009081526003602052604090205490565b600a546001600160a01b036101009091041633146116695760405162461bcd60e51b815260206004820181905260248201527f4f776e61626c653a2063616c6c6572206973206e6f7420746865206f776e65726044820152606401610813565b610c4b60006126c2565b600a546001600160a01b036101009091041633146116d35760405162461bcd60e51b815260206004820181905260248201527f4f776e61626c653a2063616c6c6572206973206e6f7420746865206f776e65726044820152606401610813565b61271061ffff821611156116e657506127105b600d805461ffff191661ffff92909216919091179055565b600a546001600160a01b0361010090910416331461175e5760405162461bcd60e51b815260206004820181905260248201527f4f776e61626c653a2063616c6c6572206973206e6f7420746865206f776e65726044820152606401610813565b610c4b612733565b60606001805461071b90614885565b6001600160a01b0382163314156117ce5760405162461bcd60e51b815260206004820152601960248201527f4552433732313a20617070726f766520746f2063616c6c6572000000000000006044820152606401610813565b3360008181526005602090815260408083206001600160a01b03871680855290835292819020805460ff191686151590811790915590519081529192917f17307eab39ab6107e8899845ad3d59bd9653f200f220920489ca2b5937696c31910160405180910390a35050565b61184433836121fc565b6118b65760405162461bcd60e51b815260206004820152603160248201527f4552433732313a207472616e736665722063616c6c6572206973206e6f74206f60448201527f776e6572206e6f7220617070726f7665640000000000000000000000000000006064820152608401610813565b6118c2848484846127bb565b50505050565b60606118d3600b5490565b821061196d5760405162461bcd60e51b815260206004820152604160248201527f417474656d7074656420746f2067656e65726174652053564720666f7220746f60448201527f6b656e207468617420686173206e6f7420796574206265656e206d696e74656460648201527f2e00000000000000000000000000000000000000000000000000000000000000608482015260a401610813565b6000828152600f60209081526040808320815161018081018352905463ffffffff8116825260ff640100000000820481169483018590526501000000000082048116938301939093526601000000000000810483166060830152670100000000000000810483166080830152680100000000000000008104831660a083015269010000000000000000008104831660c08301526a01000000000000000000008104831660e08301526b010000000000000000000000810483166101008301526c01000000000000000000000000810483166101208301526d0100000000000000000000000000810483166101408301526e010000000000000000000000000000900490911661016082015291908190611a8590612839565b9150915060008360e0015160ff168460c0015160ff1614611adb576040518060400160405280600481526020017f6175746f00000000000000000000000000000000000000000000000000000000815250611b12565b6040518060400160405280600a81526020017f63726973704564676573000000000000000000000000000000000000000000008152505b9050600082604051602001611b279190614617565b60405160208183030381529060405290506000611b438661296e565b905084838383604051602001611b5c9493929190613f8b565b6040516020818303038152906040529650505050505050919050565b6000818152600f60209081526040808320815161018081018352905463ffffffff8116825260ff6401000000008204811694830194909452650100000000008104841692820192909252660100000000000082048316606082810191909152670100000000000000830484166080830152680100000000000000008304841660a083015269010000000000000000008304841660c083018190526a01000000000000000000008404851660e08401526b010000000000000000000000840485166101008401526c01000000000000000000000000840485166101208401526d0100000000000000000000000000840485166101408401526e010000000000000000000000000000909304909316610160820152919290611c9790612b36565b611ca78360e0015160ff16612b36565b604051602001611cb8929190613e11565b60405160208183030381529060405290506000611cdc83610100015160ff16612b36565b611ced84610120015160ff16612b36565b604051602001611cfe92919061454b565b60405160208183030381529060405290506000611d2284610140015160ff16612b36565b611d3385610160015160ff16612b36565b604051602001611d4492919061426e565b60405160208183030381529060405290506000838383604051602001611d6c939291906140da565b60405160208183030381529060405290506000604051602001611ebc907f22636f70797269676874223a2022546865206f776e6572206f6620746869732081527f4e465420697320697473206c6567616c20636f7079726967687420686f6c646560208201527f722e2042792073656c6c696e672074686973204e46542c207468652073656c6c60408201527f65722f6f776e65722061677265657320746f2061737369676e20636f7079726960608201527f67687420746f207468652062757965722e20416c6c2062757965727320616e6460808201527f2073656c6c65727320616772656520746f207061796d656e74206f6620726f7960a08201527f616c7469657320746f20746865206f726967696e616c206d696e746572206f6e60c08201527f2073616c65206f662074686520617274776f726b2e220000000000000000000060e082015260f60190565b60405160208183030381529060405290506000611ed8896118c8565b9050611ee389612b36565b828483604051602001611ef9949392919061440c565b604051602081830303815290604052975050505050505050919050565b60606040518060600160405280602f8152602001614948602f9139905090565b600a546001600160a01b03610100909104163314611f965760405162461bcd60e51b815260206004820181905260248201527f4f776e61626c653a2063616c6c6572206973206e6f7420746865206f776e65726044820152606401610813565b60005b8151811015612002576000828281518110611fc457634e487b7160e01b600052603260045260246000fd5b60209081029190910181015163ffffffff166000908152600e90915260409020805460ff191660011790555080611ffa816148c0565b915050611f99565b5050565b600a546001600160a01b036101009091041633146120665760405162461bcd60e51b815260206004820181905260248201527f4f776e61626c653a2063616c6c6572206973206e6f7420746865206f776e65726044820152606401610813565b6001600160a01b0381166120e25760405162461bcd60e51b815260206004820152602660248201527f4f776e61626c653a206e6577206f776e657220697320746865207a65726f206160448201527f64647265737300000000000000000000000000000000000000000000000000006064820152608401610813565b610ccd816126c2565b600a546001600160a01b0361010090910416331461214b5760405162461bcd60e51b815260206004820181905260248201527f4f776e61626c653a2063616c6c6572206973206e6f7420746865206f776e65726044820152606401610813565b601055565b60006001600160e01b031982167f2a55205a000000000000000000000000000000000000000000000000000000001480610706575061070682612caf565b600081815260046020526040902080546001600160a01b0319166001600160a01b03841690811790915581906121c3826114e4565b6001600160a01b03167f8c5be1e5ebec7d5bd14f71427d1e84f3dd0314c0f7b2291e5b200ac8c7c3b92560405160405180910390a45050565b6000818152600260205260408120546001600160a01b03166122755760405162461bcd60e51b815260206004820152602c60248201527f4552433732313a206f70657261746f7220717565727920666f72206e6f6e657860448201526b34b9ba32b73a103a37b5b2b760a11b6064820152608401610813565b6000612280836114e4565b9050806001600160a01b0316846001600160a01b031614806122bb5750836001600160a01b03166122b08461079e565b6001600160a01b0316145b806122eb57506001600160a01b0380821660009081526005602090815260408083209388168352929052205460ff165b949350505050565b826001600160a01b0316612306826114e4565b6001600160a01b0316146123825760405162461bcd60e51b815260206004820152602960248201527f4552433732313a207472616e73666572206f6620746f6b656e2074686174206960448201527f73206e6f74206f776e00000000000000000000000000000000000000000000006064820152608401610813565b6001600160a01b0382166123fd5760405162461bcd60e51b8152602060048201526024808201527f4552433732313a207472616e7366657220746f20746865207a65726f2061646460448201527f72657373000000000000000000000000000000000000000000000000000000006064820152608401610813565b612408838383612cba565b61241360008261218e565b6001600160a01b038316600090815260036020526040812080546001929061243c908490614842565b90915550506001600160a01b038216600090815260036020526040812080546001929061246a908490614745565b909155505060008181526002602052604080822080546001600160a01b0319166001600160a01b0386811691821790925591518493918716917fddf252ad1be2c89b69c2b068fc378daa952ba7f163c4a11628f55a4df523b3ef91a4505050565b600a5460ff1661251d5760405162461bcd60e51b815260206004820152601460248201527f5061757361626c653a206e6f74207061757365640000000000000000000000006044820152606401610813565b600a805460ff191690557f5db9ee0a495bf2e6ff9c91a7834c1ba4fdd244a5e8aa4e537bd38aeae4b073aa335b6040516001600160a01b03909116815260200160405180910390a1565b612002828260405180602001604052806000815250612d18565b600061258c826114e4565b905061259a81600084612cba565b6125a560008361218e565b6001600160a01b03811660009081526003602052604081208054600192906125ce908490614842565b909155505060008281526002602052604080822080546001600160a01b0319169055518391906001600160a01b038416907fddf252ad1be2c89b69c2b068fc378daa952ba7f163c4a11628f55a4df523b3ef908390a45050565b61271081111561267a5760405162461bcd60e51b815260206004820152601a60248201527f45524332393831526f79616c746965733a20546f6f20686967680000000000006044820152606401610813565b6040805180820182526001600160a01b03938416815260208082019384526000958652600c90529320925183546001600160a01b031916921691909117825551600190910155565b600a80546001600160a01b038381166101008181027fffffffffffffffffffffff0000000000000000000000000000000000000000ff85161790945560405193909204169182907f8be0079c531659141344cd1fd0a4f28419497f9722a3daafe3b4186f6b6457e090600090a35050565b600a5460ff16156127865760405162461bcd60e51b815260206004820152601060248201527f5061757361626c653a20706175736564000000000000000000000000000000006044820152606401610813565b600a805460ff191660011790557f62e78cea01bee320cd4e420270b5ea74000d11b0c9f74754ebdbfc544b05a25861254a3390565b6127c68484846122f3565b6127d284848484612d96565b6118c25760405162461bcd60e51b815260206004820152603260248201527f4552433732313a207472616e7366657220746f206e6f6e20455243373231526560448201527131b2b4bb32b91034b6b83632b6b2b73a32b960711b6064820152608401610813565b6060806128478360146147d6565b9250600061286361285a856103e861471f565b61ffff16612b36565b90506103e88461ffff1611156128f357600061289060026128866103e88861481f565b61285a91906147a1565b90506000818284856040516020016128ab949392919061434a565b60405160208183030381529060405290506000828385866040516020016128d59493929190613d2b565b60408051601f19818403018152919052919791965090945050505050565b60006129298561ffff166103e814612922576002612913876103e861481f565b61291d91906147a1565b61285a565b6000612b36565b90506000818284856040516020016129449493929190613c34565b60405160208183030381529060405290506000828385866040516020016128d59493929190614188565b805160408051602081019091526000808252606092915b6000612993836107d061481f565b61ffff1611156122eb5760006129ba8487610100015160ff1688610120015160ff16612eee565b6129c59060026147d6565b90506129d3836107d061481f565b61ffff168161ffff1611156129f5576129ee836107d061481f565b9050612a43565b61010086015160ff1681612a0b856107d061481f565b612a15919061481f565b61ffff161015612a435780612a2c846107d061481f565b612a36919061481f565b612a40908261471f565b90505b6000612a59612a5386600161475d565b88612f5c565b90506000612a71612a6b87600261475d565b89612f88565b90506000612a89612a8388600361475d565b8a612fb2565b90506000612aa1612a9b89600d61475d565b8b612fb2565b90506000828284604051602001612aba93929190613cac565b604051602081830303815290604052905086612ad98961ffff16612b36565b612ae68861ffff16612b36565b85888886604051602001612b009796959493929190613a14565b60408051601f198184030181529190529650612b1c868961471f565b9750612b2960648a61475d565b9850505050505050612985565b606081612b7657505060408051808201909152600181527f3000000000000000000000000000000000000000000000000000000000000000602082015290565b8160005b8115612ba05780612b8a816148c0565b9150612b999050600a836147c2565b9150612b7a565b60008167ffffffffffffffff811115612bc957634e487b7160e01b600052604160045260246000fd5b6040519080825280601f01601f191660200182016040528015612bf3576020820181803683370190505b509050815b8515612ca657612c09600182614842565b90506000612c18600a886147c2565b612c2390600a614800565b612c2d9088614842565b612c3890603061477c565b905060008160f81b905080848481518110612c6357634e487b7160e01b600052603260045260246000fd5b60200101907effffffffffffffffffffffffffffffffffffffffffffffffffffffffffffff1916908160001a905350612c9d600a896147c2565b97505050612bf8565b50949350505050565b60006107068261309f565b600a5460ff1615612d0d5760405162461bcd60e51b815260206004820152601060248201527f5061757361626c653a20706175736564000000000000000000000000000000006044820152606401610813565b6109288383836130dd565b612d228383613195565b612d2f6000848484612d96565b6109285760405162461bcd60e51b815260206004820152603260248201527f4552433732313a207472616e7366657220746f206e6f6e20455243373231526560448201527131b2b4bb32b91034b6b83632b6b2b73a32b960711b6064820152608401610813565b60006001600160a01b0384163b15612ee357604051630a85bd0160e11b81526001600160a01b0385169063150b7a0290612dda9033908990889088906004016146a9565b602060405180830381600087803b158015612df457600080fd5b505af1925050508015612e24575060408051601f3d908101601f19168201909252612e219181019061387a565b60015b612ec9573d808015612e52576040519150601f19603f3d011682016040523d82523d6000602084013e612e57565b606091505b508051612ec15760405162461bcd60e51b815260206004820152603260248201527f4552433732313a207472616e7366657220746f206e6f6e20455243373231526560448201527131b2b4bb32b91034b6b83632b6b2b73a32b960711b6064820152608401610813565b805181602001fd5b6001600160e01b031916630a85bd0160e11b1490506122eb565b506001949350505050565b60008261ffff168261ffff1611612f06575081612f55565b6040805163ffffffff8616602080830191909152825180830382018152918301909252805191012083612f39818561481f565b612f479061ffff16836148db565b612f51919061471f565b9150505b9392505050565b60606000612f79848460c0015160ff168560e0015160ff16612eee565b90506122eb8161ffff16612b36565b60606000612fa78484610140015160ff1685610160015160ff16612eee565b612f799060146147d6565b60606000612fc384600060ff612eee565b90506000612fde612fd586600161475d565b600060ff612eee565b90506000612ff0612fd587600261475d565b9050600061300d84876040015160ff168860a0015160ff166132e3565b9050600061302a83886060015160ff168960a0015160ff166132e3565b9050600061304785896080015160ff168a60a0015160ff166132e3565b90506130568361ffff16612b36565b6130638361ffff16612b36565b6130708361ffff16612b36565b60405160200161308293929190613edd565b604051602081830303815290604052965050505050505092915050565b60006001600160e01b031982167f780e9d63000000000000000000000000000000000000000000000000000000001480610706575061070682613377565b6001600160a01b0383166131385761313381600880546000838152600960205260408120829055600182018355919091527ff3f7a9fe364faab93b216da50a3214154f22a0a2b415b23a84c8169e8b636ee30155565b61315b565b816001600160a01b0316836001600160a01b03161461315b5761315b8382613412565b6001600160a01b03821661317257610928816134af565b826001600160a01b0316826001600160a01b031614610928576109288282613588565b6001600160a01b0382166131eb5760405162461bcd60e51b815260206004820181905260248201527f4552433732313a206d696e7420746f20746865207a65726f20616464726573736044820152606401610813565b6000818152600260205260409020546001600160a01b0316156132505760405162461bcd60e51b815260206004820152601c60248201527f4552433732313a20746f6b656e20616c7265616479206d696e746564000000006044820152606401610813565b61325c60008383612cba565b6001600160a01b0382166000908152600360205260408120805460019290613285908490614745565b909155505060008181526002602052604080822080546001600160a01b0319166001600160a01b03861690811790915590518392907fddf252ad1be2c89b69c2b068fc378daa952ba7f163c4a11628f55a4df523b3ef908290a45050565b600061ffff82166132f657506000612f55565b60008361ffff168561ffff161161333e57600060ff84613316888861481f565b61332091906147d6565b61332a91906147a1565b9050613336818761471f565b9150506122eb565b600060ff8461334d878961481f565b61335791906147d6565b61336191906147a1565b905061336d818761481f565b9695505050505050565b60006001600160e01b031982167f80ac58cd0000000000000000000000000000000000000000000000000000000014806133da57506001600160e01b031982167f5b5e139f00000000000000000000000000000000000000000000000000000000145b8061070657507f01ffc9a7000000000000000000000000000000000000000000000000000000006001600160e01b0319831614610706565b6000600161341f8461156f565b6134299190614842565b60008381526007602052604090205490915080821461347c576001600160a01b03841660009081526006602090815260408083208584528252808320548484528184208190558352600790915290208190555b5060009182526007602090815260408084208490556001600160a01b039094168352600681528383209183525290812055565b6008546000906134c190600190614842565b600083815260096020526040812054600880549394509092849081106134f757634e487b7160e01b600052603260045260246000fd5b90600052602060002001549050806008838154811061352657634e487b7160e01b600052603260045260246000fd5b600091825260208083209091019290925582815260099091526040808220849055858252812055600880548061356c57634e487b7160e01b600052603160045260246000fd5b6001900381819060005260206000200160009055905550505050565b60006135938361156f565b6001600160a01b039093166000908152600660209081526040808320868452825280832085905593825260079052919091209190915550565b80356001600160a01b03811681146135e357600080fd5b919050565b803563ffffffff811681146135e357600080fd5b803560ff811681146135e357600080fd5b60006020828403121561361e578081fd5b612f55826135cc565b60008060408385031215613639578081fd5b613642836135cc565b9150613650602084016135cc565b90509250929050565b60008060006060848603121561366d578081fd5b613676846135cc565b9250613684602085016135cc565b9150604084013590509250925092565b600080600080608085870312156136a9578081fd5b6136b2856135cc565b935060206136c18187016135cc565b935060408601359250606086013567ffffffffffffffff808211156136e4578384fd5b818801915088601f8301126136f7578384fd5b8135818111156137095761370961491b565b61371b601f8201601f191685016146ee565b91508082528984828501011115613730578485fd5b8084840185840137810190920192909252939692955090935050565b6000806040838503121561375e578182fd5b613767836135cc565b91506020830135801515811461377b578182fd5b809150509250929050565b60008060408385031215613798578182fd5b6137a1836135cc565b946020939093013593505050565b600060208083850312156137c1578182fd5b823567ffffffffffffffff808211156137d8578384fd5b818501915085601f8301126137eb578384fd5b8135818111156137fd576137fd61491b565b8060051b915061380e8483016146ee565b8181528481019084860184860187018a1015613828578788fd5b8795505b838610156138515761383d816135e8565b83526001959095019491860191860161382c565b5098975050505050505050565b60006020828403121561386f578081fd5b8135612f5581614931565b60006020828403121561388b578081fd5b8151612f5581614931565b6000602082840312156138a7578081fd5b813561ffff81168114612f55578182fd5b6000602082840312156138c9578081fd5b5035919050565b600080604083850312156138e2578182fd5b50508035926020909101359150565b6000806000806000806000806000806000806101808d8f03121561391357898afd5b61391c8d6135e8565b9b5061392a60208e016135fc565b9a5061393860408e016135fc565b995061394660608e016135fc565b985061395460808e016135fc565b975061396260a08e016135fc565b965061397060c08e016135fc565b955061397e60e08e016135fc565b945061398d6101008e016135fc565b935061399c6101208e016135fc565b92506139ab6101408e016135fc565b91506139ba6101608e016135fc565b90509295989b509295989b509295989b565b600081518084526139e4816020860160208601614859565b601f01601f19169290920160200192915050565b60008151613a0a818560208601614859565b9290920192915050565b60008851613a26818460208d01614859565b7f3c7265637420783d2700000000000000000000000000000000000000000000009083019081528851613a60816009840160208d01614859565b7f2720793d2730272077696474683d270000000000000000000000000000000000600992909101918201528751613a9e816018840160208c01614859565b7f27206865696768743d2732303030272066696c6c3d2700000000000000000000601892909101918201528651613adc81602e840160208b01614859565b7f27206f7061636974793d27302e38270000000000000000000000000000000000602e92909101918201527f207472616e73666f726d3d27726f746174652800000000000000000000000000603d820152613c26613bd7613bd1613b9e613b98613b49605087018c6139f8565b7f2031303030203130303029273e3c616e696d61746520626567696e3d2027307381527f27206475723d2700000000000000000000000000000000000000000000000000602082015260270190565b896139f8565b7f6d7327206174747269627574654e616d653d2766696c6c272076616c7565733d8152602760f81b602082015260210190565b866139f8565b7f272066696c6c3d27667265657a652720726570656174436f756e743d27696e6481527f6566696e697465272f3e3c2f726563743e000000000000000000000000000000602082015260310190565b9a9950505050505050505050565b60008551613c46818460208a01614859565b8083019050600160fd1b8082528651613c66816001850160208b01614859565b600192019182018190528551613c83816002850160208a01614859565b60029201918201528351613c9e816003840160208801614859565b016003019695505050505050565b60008451613cbe818460208901614859565b80830190507f3b000000000000000000000000000000000000000000000000000000000000008082528551613cfa816001850160208a01614859565b600192019182018190528451613d17816002850160208901614859565b600292019182015260030195945050505050565b7f783d272d00000000000000000000000000000000000000000000000000000000815260008551613d63816004850160208a01614859565b7f2720793d272d00000000000000000000000000000000000000000000000000006004918401918201528551613da081600a840160208a01614859565b68272077696474683d2760b81b600a92909101918201528451613dca816013840160208901614859565b6927206865696768743d2760b01b601392909101918201528351613df581601d840160208801614859565b602760f81b601d9290910191820152601e019695505050505050565b7f7b2274726169745f74797065223a2022726f746174696f6e206d696e222c202281527f76616c7565223a20220000000000000000000000000000000000000000000000602082015260008351613e6f816029850160208801614859565b7f227d2c207b2274726169745f74797065223a2022726f746174696f6e206d61786029918401918201526c111610113b30b63ab2911d101160991b60498201528351613ec2816056840160208801614859565b61227d60f01b60569290910191820152605801949350505050565b7f7267622800000000000000000000000000000000000000000000000000000000815260008451613f15816004850160208901614859565b808301905061016160f51b8060048301528551613f39816006850160208a01614859565b60069201918201528351613f54816008840160208801614859565b7f29000000000000000000000000000000000000000000000000000000000000006008929091019182015260090195945050505050565b7f3c73766720786d6c6e733d27687474703a2f2f7777772e77332e6f72672f323081527f30302f737667272076696577426f783d27000000000000000000000000000000602082015260008551613fe9816031850160208a01614859565b7f272073686170652d72656e646572696e673d27000000000000000000000000006031918401918201528551614026816044840160208a01614859565b7f273e000000000000000000000000000000000000000000000000000000000000604492909101918201528451614064816046840160208901614859565b7f3c6720636c69702d706174683d2775726c28236d6173746572436c697029273e6046929091019182015283516140a2816066840160208801614859565b7f3c2f673e3c2f7376673e00000000000000000000000000000000000000000000606692909101918201526070019695505050505050565b7f2261747472696275746573223a205b000000000000000000000000000000000081526000845161411281600f850160208901614859565b808301905061016160f51b80600f8301528551614136816011850160208a01614859565b60119201918201528351614151816013840160208801614859565b7f5d000000000000000000000000000000000000000000000000000000000000006013929091019182015260140195945050505050565b7f783d2700000000000000000000000000000000000000000000000000000000008152600085516141c0816003850160208a01614859565b7f2720793d2700000000000000000000000000000000000000000000000000000060039184019182015285516141fd816008840160208a01614859565b68272077696474683d2760b81b600892909101918201528451614227816011840160208901614859565b6927206865696768743d2760b01b60119290910191820152835161425281601b840160208801614859565b602760f81b601b9290910191820152601c019695505050505050565b7f7b2274726169745f74797065223a20227370656564206d696e222c202276616c81527f7565223a202200000000000000000000000000000000000000000000000000006020820152600083516142cc816026850160208801614859565b7f227d2c207b2274726169745f74797065223a20227370656564206d6178222c206026918401918201527f2276616c7565223a2022000000000000000000000000000000000000000000006046820152835161432f816050840160208801614859565b61227d60f01b60509290910191820152605201949350505050565b7f2d00000000000000000000000000000000000000000000000000000000000000815260008551614382816001850160208a01614859565b7f202d00000000000000000000000000000000000000000000000000000000000060019184019182015285516143bf816003840160208a01614859565b808201915050600160fd1b80600383015285516143e3816004850160208a01614859565b600492019182015283516143fe816005840160208801614859565b016005019695505050505050565b7f646174613a746578742f706c61696e2c7b226e616d65223a2244796e6153747281527f697065732023000000000000000000000000000000000000000000000000000060208201526000855161446a816026850160208a01614859565b7f222c20226465736372697074696f6e223a226f6e2d636861696e2c2067656e656026918401918201527f7261746976652044796e615374726970657320617274776f726b222c20000000604682015285516144cd816063840160208a01614859565b61016160f51b6063929091019182015284516144f0816065840160208901614859565b7f2c2022696d616765223a22646174613a696d6167652f7376672b786d6c2c000060659290910191820152835161452e816083840160208801614859565b61227d60f01b608392909101918201526085019695505050505050565b7f7b2274726169745f74797065223a2022737472697065207769647468206d696e81526c111610113b30b63ab2911d101160991b60208201526000835161459981602d850160208801614859565b7f227d2c207b2274726169745f74797065223a2022737472697065207769647468602d918401918201527f206d6178222c202276616c7565223a2022000000000000000000000000000000604d82015283516145fc81605e840160208801614859565b61227d60f01b605e9290910191820152606001949350505050565b7f3c646566733e3c636c6970506174682069643d276d6173746572436c6970273e81527f3c72656374200000000000000000000000000000000000000000000000000000602082015260008251614675816026850160208701614859565b7f2f3e3c2f636c6970506174683e3c2f646566733e0000000000000000000000006026939091019283015250603a01919050565b60006001600160a01b0380871683528086166020840152508360408301526080606083015261336d60808301846139cc565b602081526000612f5560208301846139cc565b604051601f8201601f1916810167ffffffffffffffff811182821017156147175761471761491b565b604052919050565b600061ffff80831681851680830382111561473c5761473c6148ef565b01949350505050565b60008219821115614758576147586148ef565b500190565b600063ffffffff80831681851680830382111561473c5761473c6148ef565b600060ff821660ff84168060ff03821115614799576147996148ef565b019392505050565b600061ffff808416806147b6576147b6614905565b92169190910492915050565b6000826147d1576147d1614905565b500490565b600061ffff808316818516818304811182151516156147f7576147f76148ef565b02949350505050565b600081600019048311821515161561481a5761481a6148ef565b500290565b600061ffff8381169083168181101561483a5761483a6148ef565b039392505050565b600082821015614854576148546148ef565b500390565b60005b8381101561487457818101518382015260200161485c565b838111156118c25750506000910152565b600181811c9082168061489957607f821691505b602082108114156148ba57634e487b7160e01b600052602260045260246000fd5b50919050565b60006000198214156148d4576148d46148ef565b5060010190565b6000826148ea576148ea614905565b500690565b634e487b7160e01b600052601160045260246000fd5b634e487b7160e01b600052601260045260246000fd5b634e487b7160e01b600052604160045260246000fd5b6001600160e01b031981168114610ccd57600080fdfe68747470733a2f2f7777772e64796e61737472697065732e636f6d2f73746f726566726f6e742d6d65746164617461a264697066735822122038330f857367248cde53b0a060cf9c07d62741912f3ba583eb12c41888704b7b64736f6c63430008040033",
  "linkReferences": {},
  "deployedLinkReferences": {}
}