{
  "_format": "hh-sol-artifact-1",
  "contractName": "DynaStripes",
  "sourceName": "contracts/DynaStripes.sol",
  "abi": [
    {
      "inputs": [],
      "stateMutability": "nonpayable",
      "type": "constructor"
    },
    {
      "anonymous": false,
      "inputs": [
        {
          "indexed": true,
          "internalType": "address",
          "name": "owner",
          "type": "address"
        },
        {
          "indexed": true,
          "internalType": "address",
          "name": "approved",
          "type": "address"
        },
        {
          "indexed": true,
          "internalType": "uint256",
          "name": "tokenId",
          "type": "uint256"
        }
      ],
      "name": "Approval",
      "type": "event"
    },
    {
      "anonymous": false,
      "inputs": [
        {
          "indexed": true,
          "internalType": "address",
          "name": "owner",
          "type": "address"
        },
        {
          "indexed": true,
          "internalType": "address",
          "name": "operator",
          "type": "address"
        },
        {
          "indexed": false,
          "internalType": "bool",
          "name": "approved",
          "type": "bool"
        }
      ],
      "name": "ApprovalForAll",
      "type": "event"
    },
    {
      "anonymous": false,
      "inputs": [
        {
          "indexed": true,
          "internalType": "address",
          "name": "previousOwner",
          "type": "address"
        },
        {
          "indexed": true,
          "internalType": "address",
          "name": "newOwner",
          "type": "address"
        }
      ],
      "name": "OwnershipTransferred",
      "type": "event"
    },
    {
      "anonymous": false,
      "inputs": [
        {
          "indexed": false,
          "internalType": "address",
          "name": "account",
          "type": "address"
        }
      ],
      "name": "Paused",
      "type": "event"
    },
    {
      "anonymous": false,
      "inputs": [
        {
          "indexed": true,
          "internalType": "address",
          "name": "from",
          "type": "address"
        },
        {
          "indexed": true,
          "internalType": "address",
          "name": "to",
          "type": "address"
        },
        {
          "indexed": true,
          "internalType": "uint256",
          "name": "tokenId",
          "type": "uint256"
        }
      ],
      "name": "Transfer",
      "type": "event"
    },
    {
      "anonymous": false,
      "inputs": [
        {
          "indexed": false,
          "internalType": "address",
          "name": "account",
          "type": "address"
        }
      ],
      "name": "Unpaused",
      "type": "event"
    },
    {
      "inputs": [],
      "name": "BASE_MINT_PRICE",
      "outputs": [
        {
          "internalType": "uint256",
          "name": "",
          "type": "uint256"
        }
      ],
      "stateMutability": "view",
      "type": "function"
    },
    {
      "inputs": [],
      "name": "ROYALTY_BPS",
      "outputs": [
        {
          "internalType": "uint16",
          "name": "",
          "type": "uint16"
        }
      ],
      "stateMutability": "view",
      "type": "function"
    },
    {
      "inputs": [],
      "name": "TOKEN_LIMIT",
      "outputs": [
        {
          "internalType": "uint16",
          "name": "",
          "type": "uint16"
        }
      ],
      "stateMutability": "view",
      "type": "function"
    },
    {
      "inputs": [
        {
          "internalType": "address",
          "name": "to",
          "type": "address"
        },
        {
          "internalType": "uint256",
          "name": "tokenId",
          "type": "uint256"
        }
      ],
      "name": "approve",
      "outputs": [],
      "stateMutability": "nonpayable",
      "type": "function"
    },
    {
      "inputs": [
        {
          "internalType": "address",
          "name": "owner",
          "type": "address"
        }
      ],
      "name": "balanceOf",
      "outputs": [
        {
          "internalType": "uint256",
          "name": "",
          "type": "uint256"
        }
      ],
      "stateMutability": "view",
      "type": "function"
    },
    {
      "inputs": [
        {
          "internalType": "uint32[]",
          "name": "seeds",
          "type": "uint32[]"
        }
      ],
      "name": "banRandomSeeds",
      "outputs": [],
      "stateMutability": "nonpayable",
      "type": "function"
    },
    {
      "inputs": [
        {
          "internalType": "uint256",
          "name": "tokenId",
          "type": "uint256"
        }
      ],
      "name": "burn",
      "outputs": [],
      "stateMutability": "nonpayable",
      "type": "function"
    },
    {
      "inputs": [],
      "name": "currentMintPrice",
      "outputs": [
        {
          "internalType": "uint256",
          "name": "",
          "type": "uint256"
        }
      ],
      "stateMutability": "view",
      "type": "function"
    },
    {
      "inputs": [
        {
          "internalType": "uint256",
          "name": "_tokenId",
          "type": "uint256"
        }
      ],
      "name": "generateSvg",
      "outputs": [
        {
          "internalType": "string",
          "name": "",
          "type": "string"
        }
      ],
      "stateMutability": "view",
      "type": "function"
    },
    {
      "inputs": [
        {
          "internalType": "uint256",
          "name": "tokenId",
          "type": "uint256"
        }
      ],
      "name": "getApproved",
      "outputs": [
        {
          "internalType": "address",
          "name": "",
          "type": "address"
        }
      ],
      "stateMutability": "view",
      "type": "function"
    },
    {
      "inputs": [
        {
          "internalType": "address",
          "name": "owner",
          "type": "address"
        },
        {
          "internalType": "address",
          "name": "operator",
          "type": "address"
        }
      ],
      "name": "isApprovedForAll",
      "outputs": [
        {
          "internalType": "bool",
          "name": "",
          "type": "bool"
        }
      ],
      "stateMutability": "view",
      "type": "function"
    },
    {
      "inputs": [],
      "name": "isSenderOwner",
      "outputs": [
        {
          "internalType": "bool",
          "name": "",
          "type": "bool"
        }
      ],
      "stateMutability": "view",
      "type": "function"
    },
    {
      "inputs": [
        {
          "internalType": "uint32",
          "name": "_randomSeed",
          "type": "uint32"
        },
        {
          "internalType": "uint8",
          "name": "_rotationMin",
          "type": "uint8"
        },
        {
          "internalType": "uint8",
          "name": "_rotationMax",
          "type": "uint8"
        },
        {
          "internalType": "uint8",
          "name": "_stripeWidthMin",
          "type": "uint8"
        },
        {
          "internalType": "uint8",
          "name": "_stripeWidthMax",
          "type": "uint8"
        },
        {
          "internalType": "uint8",
          "name": "_paletteMin",
          "type": "uint8"
        },
        {
          "internalType": "uint8",
          "name": "_paletteMax",
          "type": "uint8"
        },
        {
          "internalType": "uint8",
          "name": "_speedMin",
          "type": "uint8"
        },
        {
          "internalType": "uint8",
          "name": "_speedMax",
          "type": "uint8"
        }
      ],
      "name": "mintStripes",
      "outputs": [],
      "stateMutability": "payable",
      "type": "function"
    },
    {
      "inputs": [],
      "name": "name",
      "outputs": [
        {
          "internalType": "string",
          "name": "",
          "type": "string"
        }
      ],
      "stateMutability": "view",
      "type": "function"
    },
    {
      "inputs": [],
      "name": "owner",
      "outputs": [
        {
          "internalType": "address",
          "name": "",
          "type": "address"
        }
      ],
      "stateMutability": "view",
      "type": "function"
    },
    {
      "inputs": [
        {
          "internalType": "uint256",
          "name": "tokenId",
          "type": "uint256"
        }
      ],
      "name": "ownerOf",
      "outputs": [
        {
          "internalType": "address",
          "name": "",
          "type": "address"
        }
      ],
      "stateMutability": "view",
      "type": "function"
    },
    {
      "inputs": [],
      "name": "pause",
      "outputs": [],
      "stateMutability": "nonpayable",
      "type": "function"
    },
    {
      "inputs": [],
      "name": "paused",
      "outputs": [
        {
          "internalType": "bool",
          "name": "",
          "type": "bool"
        }
      ],
      "stateMutability": "view",
      "type": "function"
    },
    {
      "inputs": [
        {
          "internalType": "uint256",
          "name": "amount",
          "type": "uint256"
        }
      ],
      "name": "payOwner",
      "outputs": [],
      "stateMutability": "nonpayable",
      "type": "function"
    },
    {
      "inputs": [
        {
          "internalType": "uint32",
          "name": "_randomSeed",
          "type": "uint32"
        },
        {
          "internalType": "uint16",
          "name": "_min",
          "type": "uint16"
        },
        {
          "internalType": "uint16",
          "name": "_max",
          "type": "uint16"
        }
      ],
      "name": "randomIntFromInterval",
      "outputs": [
        {
          "internalType": "uint16",
          "name": "",
          "type": "uint16"
        }
      ],
      "stateMutability": "pure",
      "type": "function"
    },
    {
      "inputs": [],
      "name": "renounceOwnership",
      "outputs": [],
      "stateMutability": "nonpayable",
      "type": "function"
    },
    {
      "inputs": [
        {
          "internalType": "uint256",
          "name": "tokenId",
          "type": "uint256"
        },
        {
          "internalType": "uint256",
          "name": "value",
          "type": "uint256"
        }
      ],
      "name": "royaltyInfo",
      "outputs": [
        {
          "internalType": "address",
          "name": "receiver",
          "type": "address"
        },
        {
          "internalType": "uint256",
          "name": "royaltyAmount",
          "type": "uint256"
        }
      ],
      "stateMutability": "view",
      "type": "function"
    },
    {
      "inputs": [
        {
          "internalType": "address",
          "name": "to",
          "type": "address"
        }
      ],
      "name": "safeMint",
      "outputs": [],
      "stateMutability": "nonpayable",
      "type": "function"
    },
    {
      "inputs": [
        {
          "internalType": "address",
          "name": "from",
          "type": "address"
        },
        {
          "internalType": "address",
          "name": "to",
          "type": "address"
        },
        {
          "internalType": "uint256",
          "name": "tokenId",
          "type": "uint256"
        }
      ],
      "name": "safeTransferFrom",
      "outputs": [],
      "stateMutability": "nonpayable",
      "type": "function"
    },
    {
      "inputs": [
        {
          "internalType": "address",
          "name": "from",
          "type": "address"
        },
        {
          "internalType": "address",
          "name": "to",
          "type": "address"
        },
        {
          "internalType": "uint256",
          "name": "tokenId",
          "type": "uint256"
        },
        {
          "internalType": "bytes",
          "name": "_data",
          "type": "bytes"
        }
      ],
      "name": "safeTransferFrom",
      "outputs": [],
      "stateMutability": "nonpayable",
      "type": "function"
    },
    {
      "inputs": [
        {
          "internalType": "address",
          "name": "operator",
          "type": "address"
        },
        {
          "internalType": "bool",
          "name": "approved",
          "type": "bool"
        }
      ],
      "name": "setApprovalForAll",
      "outputs": [],
      "stateMutability": "nonpayable",
      "type": "function"
    },
    {
      "inputs": [
        {
          "internalType": "bytes4",
          "name": "interfaceId",
          "type": "bytes4"
        }
      ],
      "name": "supportsInterface",
      "outputs": [
        {
          "internalType": "bool",
          "name": "",
          "type": "bool"
        }
      ],
      "stateMutability": "view",
      "type": "function"
    },
    {
      "inputs": [],
      "name": "symbol",
      "outputs": [
        {
          "internalType": "string",
          "name": "",
          "type": "string"
        }
      ],
      "stateMutability": "view",
      "type": "function"
    },
    {
      "inputs": [
        {
          "internalType": "uint256",
          "name": "index",
          "type": "uint256"
        }
      ],
      "name": "tokenByIndex",
      "outputs": [
        {
          "internalType": "uint256",
          "name": "",
          "type": "uint256"
        }
      ],
      "stateMutability": "view",
      "type": "function"
    },
    {
      "inputs": [
        {
          "internalType": "address",
          "name": "owner",
          "type": "address"
        },
        {
          "internalType": "uint256",
          "name": "index",
          "type": "uint256"
        }
      ],
      "name": "tokenOfOwnerByIndex",
      "outputs": [
        {
          "internalType": "uint256",
          "name": "",
          "type": "uint256"
        }
      ],
      "stateMutability": "view",
      "type": "function"
    },
    {
      "inputs": [
        {
          "internalType": "uint256",
          "name": "_tokenId",
          "type": "uint256"
        }
      ],
      "name": "tokenURI",
      "outputs": [
        {
          "internalType": "string",
          "name": "",
          "type": "string"
        }
      ],
      "stateMutability": "view",
      "type": "function"
    },
    {
      "inputs": [],
      "name": "totalSupply",
      "outputs": [
        {
          "internalType": "uint256",
          "name": "",
          "type": "uint256"
        }
      ],
      "stateMutability": "view",
      "type": "function"
    },
    {
      "inputs": [
        {
          "internalType": "address",
          "name": "from",
          "type": "address"
        },
        {
          "internalType": "address",
          "name": "to",
          "type": "address"
        },
        {
          "internalType": "uint256",
          "name": "tokenId",
          "type": "uint256"
        }
      ],
      "name": "transferFrom",
      "outputs": [],
      "stateMutability": "nonpayable",
      "type": "function"
    },
    {
      "inputs": [
        {
          "internalType": "address",
          "name": "newOwner",
          "type": "address"
        }
      ],
      "name": "transferOwnership",
      "outputs": [],
      "stateMutability": "nonpayable",
      "type": "function"
    },
    {
      "inputs": [],
      "name": "unpause",
      "outputs": [],
      "stateMutability": "nonpayable",
      "type": "function"
    },
    {
      "stateMutability": "payable",
      "type": "receive"
    }
  ],
  "bytecode": "0x60806040523480156200001157600080fd5b50604080518082018252600b81526a44796e615374726970657360a81b60208083019182528351808501909452600384526244535360e81b908401528151919291839183916200006491600091620000f4565b5080516200007a906001906020840190620000f4565b5050600a805460ff191690555062000092336200009a565b5050620001d7565b600a80546001600160a01b03838116610100818102610100600160a81b031985161790945560405193909204169182907f8be0079c531659141344cd1fd0a4f28419497f9722a3daafe3b4186f6b6457e090600090a35050565b82805462000102906200019a565b90600052602060002090601f01602090048101928262000126576000855562000171565b82601f106200014157805160ff191683800117855562000171565b8280016001018555821562000171579182015b828111156200017157825182559160200191906001019062000154565b506200017f92915062000183565b5090565b5b808211156200017f576000815560010162000184565b600181811c90821680620001af57607f821691505b60208210811415620001d157634e487b7160e01b600052602260045260246000fd5b50919050565b613f9a80620001e76000396000f3fe6080604052600436106102385760003560e01c806342966c68116101385780638da5cb5b116100b0578063bc921dc21161007f578063e985e9c511610064578063e985e9c51461064d578063eb3af37414610696578063f2fde38b146106b657600080fd5b8063bc921dc21461060d578063c87b56dd1461062d57600080fd5b80638da5cb5b1461059557806395d89b41146105b8578063a22cb465146105cd578063b88d4fde146105ed57600080fd5b80635c975abb1161010757806370a08231116100ec57806370a082311461054b578063715018a61461056b5780638456cb591461058057600080fd5b80635c975abb146105135780636352211e1461052b57600080fd5b806342966c6814610498578063479fe544146104b857806349c657db146104dd5780634f6ccce7146104f357600080fd5b80630ed9ec06116101cb5780632a55205a1161019a5780633f4ba83a1161017f5780633f4ba83a1461044357806340d097c31461045857806342842e0e1461047857600080fd5b80632a55205a146103e45780632f745c591461042357600080fd5b80630ed9ec061461037c578063140db8a61461038f57806318160ddd146103af57806323b872dd146103c457600080fd5b806306fdde031161020757806306fdde03146102e0578063081812fc1461030257806308d78c3c1461033a578063095ea7b31461035c57600080fd5b806301ffc9a714610244578063031bd4c414610279578063054ee789146102a25780630561942a146102cb57600080fd5b3661023f57005b600080fd5b34801561025057600080fd5b5061026461025f3660046131d6565b6106d6565b60405190151581526020015b60405180910390f35b34801561028557600080fd5b5061028f61138881565b60405161ffff9091168152602001610270565b3480156102ae57600080fd5b506102bd662386f26fc1000081565b604051908152602001610270565b3480156102d757600080fd5b506102bd6106e7565b3480156102ec57600080fd5b506102f5610726565b6040516102709190613c9c565b34801561030e57600080fd5b5061032261031d36600461320e565b6107b8565b6040516001600160a01b039091168152602001610270565b34801561034657600080fd5b5061035a61035536600461320e565b610852565b005b34801561036857600080fd5b5061035a6103773660046130fe565b610947565b61035a61038a366004613289565b610a74565b34801561039b57600080fd5b5061028f6103aa366004613247565b610f5e565b3480156103bb57600080fd5b506008546102bd565b3480156103d057600080fd5b5061035a6103df366004612fd1565b610fcc565b3480156103f057600080fd5b506104046103ff366004613226565b611054565b604080516001600160a01b039093168352602083019190915201610270565b34801561042f57600080fd5b506102bd61043e3660046130fe565b6110ad565b34801561044f57600080fd5b5061035a611155565b34801561046457600080fd5b5061035a610473366004612f85565b6111bf565b34801561048457600080fd5b5061035a610493366004612fd1565b611242565b3480156104a457600080fd5b5061035a6104b336600461320e565b61125d565b3480156104c457600080fd5b50600a5461010090046001600160a01b03163314610264565b3480156104e957600080fd5b5061028f6103e881565b3480156104ff57600080fd5b506102bd61050e36600461320e565b6112e1565b34801561051f57600080fd5b50600a5460ff16610264565b34801561053757600080fd5b5061032261054636600461320e565b611393565b34801561055757600080fd5b506102bd610566366004612f85565b61141e565b34801561057757600080fd5b5061035a6114b8565b34801561058c57600080fd5b5061035a611522565b3480156105a157600080fd5b50600a5461010090046001600160a01b0316610322565b3480156105c457600080fd5b506102f561158a565b3480156105d957600080fd5b5061035a6105e83660046130c4565b611599565b3480156105f957600080fd5b5061035a61060836600461300c565b61165e565b34801561061957600080fd5b506102f561062836600461320e565b6116ec565b34801561063957600080fd5b506102f561064836600461320e565b611a1e565b34801561065957600080fd5b50610264610668366004612f9f565b6001600160a01b03918216600090815260056020908152604080832093909416825291909152205460ff1690565b3480156106a257600080fd5b5061035a6106b1366004613127565b611d41565b3480156106c257600080fd5b5061035a6106d1366004612f85565b611e11565b60006106e182611ef6565b92915050565b6000662386f26fc1000060646106fc60085490565b6107069190613d59565b6107109190613d97565b61072190662386f26fc10000613cfd565b905090565b60606000805461073590613e62565b80601f016020809104026020016040519081016040528092919081815260200182805461076190613e62565b80156107ae5780601f10610783576101008083540402835291602001916107ae565b820191906000526020600020905b81548152906001019060200180831161079157829003601f168201915b5050505050905090565b6000818152600260205260408120546001600160a01b03166108365760405162461bcd60e51b815260206004820152602c60248201527f4552433732313a20617070726f76656420717565727920666f72206e6f6e657860448201526b34b9ba32b73a103a37b5b2b760a11b60648201526084015b60405180910390fd5b506000908152600460205260409020546001600160a01b031690565b600a546001600160a01b036101009091041633146108b25760405162461bcd60e51b815260206004820181905260248201527f4f776e61626c653a2063616c6c6572206973206e6f7420746865206f776e6572604482015260640161082d565b478111156109025760405162461bcd60e51b815260206004820152600f60248201527f416d6f756e7420746f6f20686967680000000000000000000000000000000000604482015260640161082d565b600a546040516101009091046001600160a01b031690819083156108fc029084906000818181858888f19350505050158015610942573d6000803e3d6000fd5b505050565b600061095282611393565b9050806001600160a01b0316836001600160a01b031614156109dc5760405162461bcd60e51b815260206004820152602160248201527f4552433732313a20617070726f76616c20746f2063757272656e74206f776e6560448201527f7200000000000000000000000000000000000000000000000000000000000000606482015260840161082d565b336001600160a01b03821614806109f857506109f88133610668565b610a6a5760405162461bcd60e51b815260206004820152603860248201527f4552433732313a20617070726f76652063616c6c6572206973206e6f74206f7760448201527f6e6572206e6f7220617070726f76656420666f7220616c6c0000000000000000606482015260840161082d565b6109428383611f34565b6000610a7f600b5490565b90506113888110610ad25760405162461bcd60e51b815260206004820152601160248201527f416c6c20746f6b656e73206d696e746564000000000000000000000000000000604482015260640161082d565b610ada6106e7565b341015610b295760405162461bcd60e51b815260206004820152601060248201527f4e6f7420656e6f75676820657468657200000000000000000000000000000000604482015260640161082d565b60b48860ff1611158015610b4357508760ff168960ff1611155b610b8f5760405162461bcd60e51b815260206004820152601060248201527f526f746174696f6e20696e76616c696400000000000000000000000000000000604482015260640161082d565b60198760ff1610158015610ba7575060fa8660ff1611155b8015610bb957508560ff168760ff1611155b610c055760405162461bcd60e51b815260206004820152601460248201527f53747269706520776964746820696e76616c6964000000000000000000000000604482015260640161082d565b60ff8460ff1611158015610c295750610c1f601485613e13565b60ff168560ff1611155b610c755760405162461bcd60e51b815260206004820152601560248201527f50616c657474652076616c756520696e76616c69640000000000000000000000604482015260640161082d565b60198360ff1610158015610c8d575060fa8260ff1611155b8015610c9f57508160ff168360ff1611155b610ceb5760405162461bcd60e51b815260206004820152601360248201527f53706565642076616c756520696e76616c696400000000000000000000000000604482015260640161082d565b63ffffffff8a166000908152600e602052604090205460ff1615610d515760405162461bcd60e51b815260206004820152601360248201527f52616e646f6d207365656420696e76616c696400000000000000000000000000604482015260640161082d565b610d5b3382611fa2565b610d6881336103e8611fbc565b6040518061012001604052808b63ffffffff1681526020018a60ff1681526020018960ff1681526020018860ff1681526020018760ff1681526020018660ff1681526020018560ff1681526020018460ff1681526020018360ff16815250600d600083815260200190815260200160002060008201518160000160006101000a81548163ffffffff021916908363ffffffff16021790555060208201518160000160046101000a81548160ff021916908360ff16021790555060408201518160000160056101000a81548160ff021916908360ff16021790555060608201518160000160066101000a81548160ff021916908360ff16021790555060808201518160000160076101000a81548160ff021916908360ff16021790555060a08201518160000160086101000a81548160ff021916908360ff16021790555060c08201518160000160096101000a81548160ff021916908360ff16021790555060e082015181600001600a6101000a81548160ff021916908360ff16021790555061010082015181600001600b6101000a81548160ff021916908360ff1602179055509050506001600e60008c63ffffffff1663ffffffff16815260200190815260200160002060006101000a81548160ff021916908315150217905550610f52600b80546001019055565b50505050505050505050565b60008261ffff168261ffff1611610f76575081610fc5565b6040805163ffffffff8616602080830191909152825180830382018152918301909252805191012083610fa98185613dd9565b610fb79061ffff1683613eb8565b610fc19190613ce0565b9150505b9392505050565b610fd7335b82612056565b6110495760405162461bcd60e51b815260206004820152603160248201527f4552433732313a207472616e736665722063616c6c6572206973206e6f74206f60448201527f776e6572206e6f7220617070726f766564000000000000000000000000000000606482015260840161082d565b61094283838361214d565b6000828152600c60209081526040808320815180830190925280546001600160a01b03168083526001909101549282018390528392612710906110979087613d97565b6110a19190613d59565b92509250509250929050565b60006110b88361141e565b821061112c5760405162461bcd60e51b815260206004820152602b60248201527f455243373231456e756d657261626c653a206f776e657220696e646578206f7560448201527f74206f6620626f756e6473000000000000000000000000000000000000000000606482015260840161082d565b506001600160a01b03919091166000908152600660209081526040808320938352929052205490565b600a546001600160a01b036101009091041633146111b55760405162461bcd60e51b815260206004820181905260248201527f4f776e61626c653a2063616c6c6572206973206e6f7420746865206f776e6572604482015260640161082d565b6111bd612325565b565b600a546001600160a01b0361010090910416331461121f5760405162461bcd60e51b815260206004820181905260248201527f4f776e61626c653a2063616c6c6572206973206e6f7420746865206f776e6572604482015260640161082d565b6112318161122c600b5490565b611fa2565b61123f600b80546001019055565b50565b6109428383836040518060200160405280600081525061165e565b61126633610fd1565b6112d85760405162461bcd60e51b815260206004820152603060248201527f4552433732314275726e61626c653a2063616c6c6572206973206e6f74206f7760448201527f6e6572206e6f7220617070726f76656400000000000000000000000000000000606482015260840161082d565b61123f816123c1565b60006112ec60085490565b82106113605760405162461bcd60e51b815260206004820152602c60248201527f455243373231456e756d657261626c653a20676c6f62616c20696e646578206f60448201527f7574206f6620626f756e64730000000000000000000000000000000000000000606482015260840161082d565b6008828154811061138157634e487b7160e01b600052603260045260246000fd5b90600052602060002001549050919050565b6000818152600260205260408120546001600160a01b0316806106e15760405162461bcd60e51b815260206004820152602960248201527f4552433732313a206f776e657220717565727920666f72206e6f6e657869737460448201527f656e7420746f6b656e0000000000000000000000000000000000000000000000606482015260840161082d565b60006001600160a01b03821661149c5760405162461bcd60e51b815260206004820152602a60248201527f4552433732313a2062616c616e636520717565727920666f7220746865207a6560448201527f726f206164647265737300000000000000000000000000000000000000000000606482015260840161082d565b506001600160a01b031660009081526003602052604090205490565b600a546001600160a01b036101009091041633146115185760405162461bcd60e51b815260206004820181905260248201527f4f776e61626c653a2063616c6c6572206973206e6f7420746865206f776e6572604482015260640161082d565b6111bd6000612468565b600a546001600160a01b036101009091041633146115825760405162461bcd60e51b815260206004820181905260248201527f4f776e61626c653a2063616c6c6572206973206e6f7420746865206f776e6572604482015260640161082d565b6111bd6124d9565b60606001805461073590613e62565b6001600160a01b0382163314156115f25760405162461bcd60e51b815260206004820152601960248201527f4552433732313a20617070726f766520746f2063616c6c657200000000000000604482015260640161082d565b3360008181526005602090815260408083206001600160a01b03871680855290835292819020805460ff191686151590811790915590519081529192917f17307eab39ab6107e8899845ad3d59bd9653f200f220920489ca2b5937696c31910160405180910390a35050565b6116683383612056565b6116da5760405162461bcd60e51b815260206004820152603160248201527f4552433732313a207472616e736665722063616c6c6572206973206e6f74206f60448201527f776e6572206e6f7220617070726f766564000000000000000000000000000000606482015260840161082d565b6116e684848484612561565b50505050565b60606116f7600b5490565b82106117915760405162461bcd60e51b815260206004820152604160248201527f417474656d7074656420746f2067656e65726174652053564720666f7220746f60448201527f6b656e207468617420686173206e6f7420796574206265656e206d696e74656460648201527f2e00000000000000000000000000000000000000000000000000000000000000608482015260a40161082d565b6000828152600d60209081526040808320815161012081018352905463ffffffff811680835260ff6401000000008304811684870152650100000000008304811684860152660100000000000083048116606080860191909152670100000000000000840482166080860152680100000000000000008404821660a086015269010000000000000000008404821660c08601526a01000000000000000000008404821660e08601526b01000000000000000000000090930416610100840152835191820184528382529194936107d093859291613f259083013990505b600061187a8585613dd9565b61ffff1611156119f257600061189f83876060015160ff16886080015160ff16610f5e565b6118aa906002613d6d565b606087015190915060ff166118bf8287613ce0565b6118c99086613dd9565b61ffff1610156118f4576118dd8186613ce0565b6118e79085613dd9565b6118f19082613ce0565b90505b600061190f84886020015160ff16896040015160ff16610f5e565b9050600061192d858960e0015160ff168a610100015160ff16610f5e565b611938906014613d6d565b905060006119498861ffff166125df565b6119568561ffff166125df565b6119638561ffff166125df565b6119708561ffff166125df565b6119838a8e60a001518f60c00151612758565b604051602001611997959493929190613467565b604051602081830303815290604052905084816040516020016119bb929190613378565b60408051601f1981840301815291905294506119d78489613ce0565b97506119e761ffff891687613d15565b95505050505061186e565b80604051602001611a039190613426565b60408051601f19818403018152919052979650505050505050565b6000818152600d60209081526040808320815161012081018352905463ffffffff8116825260ff64010000000082048116948301859052650100000000008204811693830193909352660100000000000081048316606083810191909152670100000000000000820484166080840152680100000000000000008204841660a084015269010000000000000000008204841660c08401526a01000000000000000000008204841660e08401526b01000000000000000000000090910490921661010082015290929091611af0906125df565b611b00836040015160ff166125df565b604051602001611b11929190613759565b60405160208183030381529060405290506000611b34836060015160ff166125df565b611b44846080015160ff166125df565b604051602001611b55929190613b94565b60405160208183030381529060405290506000611b788460a0015160ff166125df565b611b888560c0015160ff166125df565b604051602001611b9992919061367d565b60405160208183030381529060405290506000611bbc8560e0015160ff166125df565b611bcd86610100015160ff166125df565b604051602001611bde92919061399f565b6040516020818303038152906040529050600084848484604051602001611c0894939291906138d3565b60405160208183030381529060405290506000604051602001611ce6907f22636f70797269676874223a2022546865206f776e6572206f6620746869732081527f4e465420697320697473206c6567616c20636f7079726967687420686f6c646560208201527f722e2042792073656c6c696e672074686973204e46542c207468652073656c6c60408201527f65722f6f776e65722061677265657320746f2061737369676e20636f7079726960608201527f67687420746f20746865207075726368617365722e2200000000000000000000608082015260960190565b60405160208183030381529060405290506000611d028a6116ec565b9050611d0d8a6125df565b828483604051602001611d239493929190613a7b565b60405160208183030381529060405298505050505050505050919050565b600a546001600160a01b03610100909104163314611da15760405162461bcd60e51b815260206004820181905260248201527f4f776e61626c653a2063616c6c6572206973206e6f7420746865206f776e6572604482015260640161082d565b60005b8151811015611e0d576000828281518110611dcf57634e487b7160e01b600052603260045260246000fd5b60209081029190910181015163ffffffff166000908152600e90915260409020805460ff191660011790555080611e0581613e9d565b915050611da4565b5050565b600a546001600160a01b03610100909104163314611e715760405162461bcd60e51b815260206004820181905260248201527f4f776e61626c653a2063616c6c6572206973206e6f7420746865206f776e6572604482015260640161082d565b6001600160a01b038116611eed5760405162461bcd60e51b815260206004820152602660248201527f4f776e61626c653a206e6577206f776e657220697320746865207a65726f206160448201527f6464726573730000000000000000000000000000000000000000000000000000606482015260840161082d565b61123f81612468565b60006001600160e01b031982167f2a55205a0000000000000000000000000000000000000000000000000000000014806106e157506106e1826127b1565b600081815260046020526040902080546001600160a01b0319166001600160a01b0384169081179091558190611f6982611393565b6001600160a01b03167f8c5be1e5ebec7d5bd14f71427d1e84f3dd0314c0f7b2291e5b200ac8c7c3b92560405160405180910390a45050565b611e0d8282604051806020016040528060008152506127bc565b61271081111561200e5760405162461bcd60e51b815260206004820152601a60248201527f45524332393831526f79616c746965733a20546f6f2068696768000000000000604482015260640161082d565b6040805180820182526001600160a01b03938416815260208082019384526000958652600c90529320925183546001600160a01b031916921691909117825551600190910155565b6000818152600260205260408120546001600160a01b03166120cf5760405162461bcd60e51b815260206004820152602c60248201527f4552433732313a206f70657261746f7220717565727920666f72206e6f6e657860448201526b34b9ba32b73a103a37b5b2b760a11b606482015260840161082d565b60006120da83611393565b9050806001600160a01b0316846001600160a01b031614806121155750836001600160a01b031661210a846107b8565b6001600160a01b0316145b8061214557506001600160a01b0380821660009081526005602090815260408083209388168352929052205460ff165b949350505050565b826001600160a01b031661216082611393565b6001600160a01b0316146121dc5760405162461bcd60e51b815260206004820152602960248201527f4552433732313a207472616e73666572206f6620746f6b656e2074686174206960448201527f73206e6f74206f776e0000000000000000000000000000000000000000000000606482015260840161082d565b6001600160a01b0382166122575760405162461bcd60e51b8152602060048201526024808201527f4552433732313a207472616e7366657220746f20746865207a65726f2061646460448201527f7265737300000000000000000000000000000000000000000000000000000000606482015260840161082d565b61226283838361283a565b61226d600082611f34565b6001600160a01b0383166000908152600360205260408120805460019290612296908490613dfc565b90915550506001600160a01b03821660009081526003602052604081208054600192906122c4908490613cfd565b909155505060008181526002602052604080822080546001600160a01b0319166001600160a01b0386811691821790925591518493918716917fddf252ad1be2c89b69c2b068fc378daa952ba7f163c4a11628f55a4df523b3ef91a4505050565b600a5460ff166123775760405162461bcd60e51b815260206004820152601460248201527f5061757361626c653a206e6f7420706175736564000000000000000000000000604482015260640161082d565b600a805460ff191690557f5db9ee0a495bf2e6ff9c91a7834c1ba4fdd244a5e8aa4e537bd38aeae4b073aa335b6040516001600160a01b03909116815260200160405180910390a1565b60006123cc82611393565b90506123da8160008461283a565b6123e5600083611f34565b6001600160a01b038116600090815260036020526040812080546001929061240e908490613dfc565b909155505060008281526002602052604080822080546001600160a01b0319169055518391906001600160a01b038416907fddf252ad1be2c89b69c2b068fc378daa952ba7f163c4a11628f55a4df523b3ef908390a45050565b600a80546001600160a01b038381166101008181027fffffffffffffffffffffff0000000000000000000000000000000000000000ff85161790945560405193909204169182907f8be0079c531659141344cd1fd0a4f28419497f9722a3daafe3b4186f6b6457e090600090a35050565b600a5460ff161561252c5760405162461bcd60e51b815260206004820152601060248201527f5061757361626c653a2070617573656400000000000000000000000000000000604482015260640161082d565b600a805460ff191660011790557f62e78cea01bee320cd4e420270b5ea74000d11b0c9f74754ebdbfc544b05a2586123a43390565b61256c84848461214d565b61257884848484612898565b6116e65760405162461bcd60e51b815260206004820152603260248201527f4552433732313a207472616e7366657220746f206e6f6e20455243373231526560448201527131b2b4bb32b91034b6b83632b6b2b73a32b960711b606482015260840161082d565b60608161261f57505060408051808201909152600181527f3000000000000000000000000000000000000000000000000000000000000000602082015290565b8160005b8115612649578061263381613e9d565b91506126429050600a83613d59565b9150612623565b60008167ffffffffffffffff81111561267257634e487b7160e01b600052604160045260246000fd5b6040519080825280601f01601f19166020018201604052801561269c576020820181803683370190505b509050815b851561274f576126b2600182613dfc565b905060006126c1600a88613d59565b6126cc90600a613d97565b6126d69088613dfc565b6126e1906030613d34565b905060008160f81b90508084848151811061270c57634e487b7160e01b600052603260045260246000fd5b60200101907effffffffffffffffffffffffffffffffffffffffffffffffffffffffffffff1916908160001a905350612746600a89613d59565b975050506126a1565b50949350505050565b606060006127678585856129f0565b90506000612780612779876002613db6565b86866129f0565b9050818183604051602001612797939291906133a7565b604051602081830303815290604052925050509392505050565b60006106e182612a99565b6127c68383612ad7565b6127d36000848484612898565b6109425760405162461bcd60e51b815260206004820152603260248201527f4552433732313a207472616e7366657220746f206e6f6e20455243373231526560448201527131b2b4bb32b91034b6b83632b6b2b73a32b960711b606482015260840161082d565b600a5460ff161561288d5760405162461bcd60e51b815260206004820152601060248201527f5061757361626c653a2070617573656400000000000000000000000000000000604482015260640161082d565b610942838383612c25565b60006001600160a01b0384163b156129e557604051630a85bd0160e11b81526001600160a01b0385169063150b7a02906128dc903390899088908890600401613c60565b602060405180830381600087803b1580156128f657600080fd5b505af1925050508015612926575060408051601f3d908101601f19168201909252612923918101906131f2565b60015b6129cb573d808015612954576040519150601f19603f3d011682016040523d82523d6000602084013e612959565b606091505b5080516129c35760405162461bcd60e51b815260206004820152603260248201527f4552433732313a207472616e7366657220746f206e6f6e20455243373231526560448201527131b2b4bb32b91034b6b83632b6b2b73a32b960711b606482015260840161082d565b805181602001fd5b6001600160e01b031916630a85bd0160e11b149050612145565b506001949350505050565b60606000612a05858560ff168560ff16610f5e565b90506000612a24612a17876002613db6565b8660ff168660ff16610f5e565b90506000612a43612a36886003613db6565b8760ff168760ff16610f5e565b9050612a528361ffff166125df565b612a5f8361ffff166125df565b612a6c8361ffff166125df565b604051602001612a7e93929190613825565b60405160208183030381529060405293505050509392505050565b60006001600160e01b031982167f780e9d630000000000000000000000000000000000000000000000000000000014806106e157506106e182612cdd565b6001600160a01b038216612b2d5760405162461bcd60e51b815260206004820181905260248201527f4552433732313a206d696e7420746f20746865207a65726f2061646472657373604482015260640161082d565b6000818152600260205260409020546001600160a01b031615612b925760405162461bcd60e51b815260206004820152601c60248201527f4552433732313a20746f6b656e20616c7265616479206d696e74656400000000604482015260640161082d565b612b9e6000838361283a565b6001600160a01b0382166000908152600360205260408120805460019290612bc7908490613cfd565b909155505060008181526002602052604080822080546001600160a01b0319166001600160a01b03861690811790915590518392907fddf252ad1be2c89b69c2b068fc378daa952ba7f163c4a11628f55a4df523b3ef908290a45050565b6001600160a01b038316612c8057612c7b81600880546000838152600960205260408120829055600182018355919091527ff3f7a9fe364faab93b216da50a3214154f22a0a2b415b23a84c8169e8b636ee30155565b612ca3565b816001600160a01b0316836001600160a01b031614612ca357612ca38382612d78565b6001600160a01b038216612cba5761094281612e15565b826001600160a01b0316826001600160a01b031614610942576109428282612eee565b60006001600160e01b031982167f80ac58cd000000000000000000000000000000000000000000000000000000001480612d4057506001600160e01b031982167f5b5e139f00000000000000000000000000000000000000000000000000000000145b806106e157507f01ffc9a7000000000000000000000000000000000000000000000000000000006001600160e01b03198316146106e1565b60006001612d858461141e565b612d8f9190613dfc565b600083815260076020526040902054909150808214612de2576001600160a01b03841660009081526006602090815260408083208584528252808320548484528184208190558352600790915290208190555b5060009182526007602090815260408084208490556001600160a01b039094168352600681528383209183525290812055565b600854600090612e2790600190613dfc565b60008381526009602052604081205460088054939450909284908110612e5d57634e487b7160e01b600052603260045260246000fd5b906000526020600020015490508060088381548110612e8c57634e487b7160e01b600052603260045260246000fd5b6000918252602080832090910192909255828152600990915260408082208490558582528120556008805480612ed257634e487b7160e01b600052603160045260246000fd5b6001900381819060005260206000200160009055905550505050565b6000612ef98361141e565b6001600160a01b039093166000908152600660209081526040808320868452825280832085905593825260079052919091209190915550565b80356001600160a01b0381168114612f4957600080fd5b919050565b803561ffff81168114612f4957600080fd5b803563ffffffff81168114612f4957600080fd5b803560ff81168114612f4957600080fd5b600060208284031215612f96578081fd5b610fc582612f32565b60008060408385031215612fb1578081fd5b612fba83612f32565b9150612fc860208401612f32565b90509250929050565b600080600060608486031215612fe5578081fd5b612fee84612f32565b9250612ffc60208501612f32565b9150604084013590509250925092565b60008060008060808587031215613021578081fd5b61302a85612f32565b93506020613039818701612f32565b935060408601359250606086013567ffffffffffffffff8082111561305c578384fd5b818801915088601f83011261306f578384fd5b81358181111561308157613081613ef8565b613093601f8201601f19168501613caf565b915080825289848285010111156130a8578485fd5b8084840185840137810190920192909252939692955090935050565b600080604083850312156130d6578182fd5b6130df83612f32565b9150602083013580151581146130f3578182fd5b809150509250929050565b60008060408385031215613110578182fd5b61311983612f32565b946020939093013593505050565b60006020808385031215613139578182fd5b823567ffffffffffffffff80821115613150578384fd5b818501915085601f830112613163578384fd5b81358181111561317557613175613ef8565b8060051b9150613186848301613caf565b8181528481019084860184860187018a10156131a0578788fd5b8795505b838610156131c9576131b581612f60565b8352600195909501949186019186016131a4565b5098975050505050505050565b6000602082840312156131e7578081fd5b8135610fc581613f0e565b600060208284031215613203578081fd5b8151610fc581613f0e565b60006020828403121561321f578081fd5b5035919050565b60008060408385031215613238578182fd5b50508035926020909101359150565b60008060006060848603121561325b578283fd5b61326484612f60565b925061327260208501612f4e565b915061328060408501612f4e565b90509250925092565b60008060008060008060008060006101208a8c0312156132a7578687fd5b6132b08a612f60565b98506132be60208b01612f74565b97506132cc60408b01612f74565b96506132da60608b01612f74565b95506132e860808b01612f74565b94506132f660a08b01612f74565b935061330460c08b01612f74565b925061331260e08b01612f74565b91506133216101008b01612f74565b90509295985092959850929598565b60008151808452613348816020860160208601613e36565b601f01601f19169290920160200192915050565b6000815161336e818560208601613e36565b9290920192915050565b6000835161338a818460208801613e36565b83519083019061339e818360208801613e36565b01949350505050565b600084516133b9818460208901613e36565b80830190507f3b0000000000000000000000000000000000000000000000000000000000000080825285516133f5816001850160208a01613e36565b600192019182018190528451613412816002850160208901613e36565b600292019182015260030195945050505050565b60008251613438818460208701613e36565b7f3c2f7376673e0000000000000000000000000000000000000000000000000000920191825250600601919050565b7f3c7265637420783d27000000000000000000000000000000000000000000000081526000865161349f816009850160208b01613e36565b7f2720793d2730272077696474683d27000000000000000000000000000000000060099184019182015286516134dc816018840160208b01613e36565b7f27206865696768743d2732303030272073686170652d72656e646572696e673d601892909101918201527f27637269737045646765732720206f7061636974793d27302e3827000000000060388201527f207472616e73666f726d3d27726f74617465280000000000000000000000000060538201528551613566816066840160208a01613e36565b7f2031303030203130303029273e3c616e696d61746520626567696e3d20273073606692909101918201527f27206475723d2700000000000000000000000000000000000000000000000000608682015261367161362261361c6135cd608d85018961335c565b7f6d7327206174747269627574654e616d653d2766696c6c272076616c7565733d81527f2700000000000000000000000000000000000000000000000000000000000000602082015260210190565b8661335c565b7f272066696c6c3d27667265657a652720726570656174436f756e743d27696e6481527f6566696e697465272f3e3c2f726563743e000000000000000000000000000000602082015260310190565b98975050505050505050565b7f7b2274726169745f74797065223a202270616c65747465206d696e222c20227681527f616c7565223a20220000000000000000000000000000000000000000000000006020820152600083516136db816028850160208801613e36565b7f227d2c207b2274726169745f74797065223a202270616c65747465206d6178226028918401918201527f2c202276616c7565223a202200000000000000000000000000000000000000006048820152835161373e816054840160208801613e36565b61227d60f01b60549290910191820152605601949350505050565b7f7b2274726169745f74797065223a2022726f746174696f6e206d696e222c202281527f76616c7565223a202200000000000000000000000000000000000000000000006020820152600083516137b7816029850160208801613e36565b7f227d2c207b2274726169745f74797065223a2022726f746174696f6e206d61786029918401918201526c111610113b30b63ab2911d101160991b6049820152835161380a816056840160208801613e36565b61227d60f01b60569290910191820152605801949350505050565b7f726762280000000000000000000000000000000000000000000000000000000081526000845161385d816004850160208901613e36565b808301905061016160f51b8060048301528551613881816006850160208a01613e36565b6006920191820152835161389c816008840160208801613e36565b7f29000000000000000000000000000000000000000000000000000000000000006008929091019182015260090195945050505050565b7f2261747472696275746573223a205b000000000000000000000000000000000081526000855161390b81600f850160208a01613e36565b808301905061016160f51b80600f830152865161392f816011850160208b01613e36565b60119201918201819052855161394c816013850160208a01613e36565b60139201918201528351613967816015840160208801613e36565b7f5d00000000000000000000000000000000000000000000000000000000000000601592909101918201526016019695505050505050565b7f7b2274726169745f74797065223a20227370656564206d696e222c202276616c81527f7565223a202200000000000000000000000000000000000000000000000000006020820152600083516139fd816026850160208801613e36565b7f227d2c207b2274726169745f74797065223a20227370656564206d6178222c206026918401918201527f2276616c7565223a20220000000000000000000000000000000000000000000060468201528351613a60816050840160208801613e36565b61227d60f01b60509290910191820152605201949350505050565b7f7b226e616d65223a2244796e6153747269706573202300000000000000000000815260008551613ab3816016850160208a01613e36565b7f222c20226465736372697074696f6e223a226f6e2d636861696e2c2067656e656016918401918201527f7261746976652044796e615374726970657320617274776f726b222c2000000060368201528551613b16816053840160208a01613e36565b61016160f51b605392909101918201528451613b39816055840160208901613e36565b7f2c2022696d616765223a22646174613a696d6167652f7376672b786d6c2c0000605592909101918201528351613b77816073840160208801613e36565b61227d60f01b607392909101918201526075019695505050505050565b7f7b2274726169745f74797065223a2022737472697065207769647468206d696e81526c111610113b30b63ab2911d101160991b602082015260008351613be281602d850160208801613e36565b7f227d2c207b2274726169745f74797065223a2022737472697065207769647468602d918401918201527f206d6178222c202276616c7565223a2022000000000000000000000000000000604d8201528351613c4581605e840160208801613e36565b61227d60f01b605e9290910191820152606001949350505050565b60006001600160a01b03808716835280861660208401525083604083015260806060830152613c926080830184613330565b9695505050505050565b602081526000610fc56020830184613330565b604051601f8201601f1916810167ffffffffffffffff81118282101715613cd857613cd8613ef8565b604052919050565b600061ffff80831681851680830382111561339e5761339e613ecc565b60008219821115613d1057613d10613ecc565b500190565b600063ffffffff80831681851680830382111561339e5761339e613ecc565b600060ff821660ff84168060ff03821115613d5157613d51613ecc565b019392505050565b600082613d6857613d68613ee2565b500490565b600061ffff80831681851681830481118215151615613d8e57613d8e613ecc565b02949350505050565b6000816000190483118215151615613db157613db1613ecc565b500290565b600063ffffffff80831681851681830481118215151615613d8e57613d8e613ecc565b600061ffff83811690831681811015613df457613df4613ecc565b039392505050565b600082821015613e0e57613e0e613ecc565b500390565b600060ff821660ff841680821015613e2d57613e2d613ecc565b90039392505050565b60005b83811015613e51578181015183820152602001613e39565b838111156116e65750506000910152565b600181811c90821680613e7657607f821691505b60208210811415613e9757634e487b7160e01b600052602260045260246000fd5b50919050565b6000600019821415613eb157613eb1613ecc565b5060010190565b600082613ec757613ec7613ee2565b500690565b634e487b7160e01b600052601160045260246000fd5b634e487b7160e01b600052601260045260246000fd5b634e487b7160e01b600052604160045260246000fd5b6001600160e01b03198116811461123f57600080fdfe3c73766720786d6c6e733d27687474703a2f2f7777772e77332e6f72672f323030302f737667272076696577426f783d2730203020323030302032303030273ea264697066735822122080b4d03226138e2020ad81dd273762a51a30ba24e2bf62edab1440affb1576ae64736f6c63430008040033",
  "linkReferences": {},
  "deployedLinkReferences": {}
}