{
  "_format": "hh-sol-artifact-1",
  "contractName": "DynaStripes",
  "sourceName": "contracts/DynaStripes.sol",
  "abi": [
    {
      "inputs": [],
      "stateMutability": "nonpayable",
      "type": "constructor"
    },
    {
      "anonymous": false,
      "inputs": [
        {
          "indexed": true,
          "internalType": "address",
          "name": "owner",
          "type": "address"
        },
        {
          "indexed": true,
          "internalType": "address",
          "name": "approved",
          "type": "address"
        },
        {
          "indexed": true,
          "internalType": "uint256",
          "name": "tokenId",
          "type": "uint256"
        }
      ],
      "name": "Approval",
      "type": "event"
    },
    {
      "anonymous": false,
      "inputs": [
        {
          "indexed": true,
          "internalType": "address",
          "name": "owner",
          "type": "address"
        },
        {
          "indexed": true,
          "internalType": "address",
          "name": "operator",
          "type": "address"
        },
        {
          "indexed": false,
          "internalType": "bool",
          "name": "approved",
          "type": "bool"
        }
      ],
      "name": "ApprovalForAll",
      "type": "event"
    },
    {
      "anonymous": false,
      "inputs": [
        {
          "indexed": true,
          "internalType": "address",
          "name": "previousOwner",
          "type": "address"
        },
        {
          "indexed": true,
          "internalType": "address",
          "name": "newOwner",
          "type": "address"
        }
      ],
      "name": "OwnershipTransferred",
      "type": "event"
    },
    {
      "anonymous": false,
      "inputs": [
        {
          "indexed": false,
          "internalType": "address",
          "name": "account",
          "type": "address"
        }
      ],
      "name": "Paused",
      "type": "event"
    },
    {
      "anonymous": false,
      "inputs": [
        {
          "indexed": true,
          "internalType": "address",
          "name": "from",
          "type": "address"
        },
        {
          "indexed": true,
          "internalType": "address",
          "name": "to",
          "type": "address"
        },
        {
          "indexed": true,
          "internalType": "uint256",
          "name": "tokenId",
          "type": "uint256"
        }
      ],
      "name": "Transfer",
      "type": "event"
    },
    {
      "anonymous": false,
      "inputs": [
        {
          "indexed": false,
          "internalType": "address",
          "name": "account",
          "type": "address"
        }
      ],
      "name": "Unpaused",
      "type": "event"
    },
    {
      "inputs": [],
      "name": "BASE_MINT_PRICE",
      "outputs": [
        {
          "internalType": "uint256",
          "name": "",
          "type": "uint256"
        }
      ],
      "stateMutability": "view",
      "type": "function"
    },
    {
      "inputs": [],
      "name": "ROYALTY_BPS",
      "outputs": [
        {
          "internalType": "uint16",
          "name": "",
          "type": "uint16"
        }
      ],
      "stateMutability": "view",
      "type": "function"
    },
    {
      "inputs": [],
      "name": "TOKEN_LIMIT",
      "outputs": [
        {
          "internalType": "uint16",
          "name": "",
          "type": "uint16"
        }
      ],
      "stateMutability": "view",
      "type": "function"
    },
    {
      "inputs": [
        {
          "internalType": "address",
          "name": "to",
          "type": "address"
        },
        {
          "internalType": "uint256",
          "name": "tokenId",
          "type": "uint256"
        }
      ],
      "name": "approve",
      "outputs": [],
      "stateMutability": "nonpayable",
      "type": "function"
    },
    {
      "inputs": [
        {
          "internalType": "address",
          "name": "owner",
          "type": "address"
        }
      ],
      "name": "balanceOf",
      "outputs": [
        {
          "internalType": "uint256",
          "name": "",
          "type": "uint256"
        }
      ],
      "stateMutability": "view",
      "type": "function"
    },
    {
      "inputs": [
        {
          "internalType": "uint32[]",
          "name": "seeds",
          "type": "uint32[]"
        }
      ],
      "name": "banRandomSeeds",
      "outputs": [],
      "stateMutability": "nonpayable",
      "type": "function"
    },
    {
      "inputs": [
        {
          "internalType": "uint256",
          "name": "tokenId",
          "type": "uint256"
        }
      ],
      "name": "burn",
      "outputs": [],
      "stateMutability": "nonpayable",
      "type": "function"
    },
    {
      "inputs": [],
      "name": "currentMintPrice",
      "outputs": [
        {
          "internalType": "uint256",
          "name": "",
          "type": "uint256"
        }
      ],
      "stateMutability": "view",
      "type": "function"
    },
    {
      "inputs": [
        {
          "internalType": "uint256",
          "name": "_tokenId",
          "type": "uint256"
        }
      ],
      "name": "generateSvg",
      "outputs": [
        {
          "internalType": "string",
          "name": "",
          "type": "string"
        }
      ],
      "stateMutability": "view",
      "type": "function"
    },
    {
      "inputs": [
        {
          "internalType": "uint256",
          "name": "tokenId",
          "type": "uint256"
        }
      ],
      "name": "getApproved",
      "outputs": [
        {
          "internalType": "address",
          "name": "",
          "type": "address"
        }
      ],
      "stateMutability": "view",
      "type": "function"
    },
    {
      "inputs": [
        {
          "internalType": "address",
          "name": "owner",
          "type": "address"
        },
        {
          "internalType": "address",
          "name": "operator",
          "type": "address"
        }
      ],
      "name": "isApprovedForAll",
      "outputs": [
        {
          "internalType": "bool",
          "name": "",
          "type": "bool"
        }
      ],
      "stateMutability": "view",
      "type": "function"
    },
    {
      "inputs": [],
      "name": "isSenderOwner",
      "outputs": [
        {
          "internalType": "bool",
          "name": "",
          "type": "bool"
        }
      ],
      "stateMutability": "view",
      "type": "function"
    },
    {
      "inputs": [
        {
          "internalType": "uint32",
          "name": "_randomSeed",
          "type": "uint32"
        },
        {
          "internalType": "uint8",
          "name": "_zoom",
          "type": "uint8"
        },
        {
          "internalType": "uint8",
          "name": "_rotationMin",
          "type": "uint8"
        },
        {
          "internalType": "uint8",
          "name": "_rotationMax",
          "type": "uint8"
        },
        {
          "internalType": "uint8",
          "name": "_stripeWidthMin",
          "type": "uint8"
        },
        {
          "internalType": "uint8",
          "name": "_stripeWidthMax",
          "type": "uint8"
        },
        {
          "internalType": "uint8",
          "name": "_paletteMin",
          "type": "uint8"
        },
        {
          "internalType": "uint8",
          "name": "_paletteMax",
          "type": "uint8"
        },
        {
          "internalType": "uint8",
          "name": "_speedMin",
          "type": "uint8"
        },
        {
          "internalType": "uint8",
          "name": "_speedMax",
          "type": "uint8"
        }
      ],
      "name": "mintStripes",
      "outputs": [],
      "stateMutability": "payable",
      "type": "function"
    },
    {
      "inputs": [],
      "name": "name",
      "outputs": [
        {
          "internalType": "string",
          "name": "",
          "type": "string"
        }
      ],
      "stateMutability": "view",
      "type": "function"
    },
    {
      "inputs": [],
      "name": "owner",
      "outputs": [
        {
          "internalType": "address",
          "name": "",
          "type": "address"
        }
      ],
      "stateMutability": "view",
      "type": "function"
    },
    {
      "inputs": [
        {
          "internalType": "uint256",
          "name": "tokenId",
          "type": "uint256"
        }
      ],
      "name": "ownerOf",
      "outputs": [
        {
          "internalType": "address",
          "name": "",
          "type": "address"
        }
      ],
      "stateMutability": "view",
      "type": "function"
    },
    {
      "inputs": [],
      "name": "pause",
      "outputs": [],
      "stateMutability": "nonpayable",
      "type": "function"
    },
    {
      "inputs": [],
      "name": "paused",
      "outputs": [
        {
          "internalType": "bool",
          "name": "",
          "type": "bool"
        }
      ],
      "stateMutability": "view",
      "type": "function"
    },
    {
      "inputs": [
        {
          "internalType": "uint256",
          "name": "amount",
          "type": "uint256"
        }
      ],
      "name": "payOwner",
      "outputs": [],
      "stateMutability": "nonpayable",
      "type": "function"
    },
    {
      "inputs": [
        {
          "internalType": "uint32",
          "name": "_randomSeed",
          "type": "uint32"
        },
        {
          "internalType": "uint16",
          "name": "_min",
          "type": "uint16"
        },
        {
          "internalType": "uint16",
          "name": "_max",
          "type": "uint16"
        }
      ],
      "name": "randomIntFromInterval",
      "outputs": [
        {
          "internalType": "uint16",
          "name": "",
          "type": "uint16"
        }
      ],
      "stateMutability": "pure",
      "type": "function"
    },
    {
      "inputs": [],
      "name": "renounceOwnership",
      "outputs": [],
      "stateMutability": "nonpayable",
      "type": "function"
    },
    {
      "inputs": [
        {
          "internalType": "uint256",
          "name": "tokenId",
          "type": "uint256"
        },
        {
          "internalType": "uint256",
          "name": "value",
          "type": "uint256"
        }
      ],
      "name": "royaltyInfo",
      "outputs": [
        {
          "internalType": "address",
          "name": "receiver",
          "type": "address"
        },
        {
          "internalType": "uint256",
          "name": "royaltyAmount",
          "type": "uint256"
        }
      ],
      "stateMutability": "view",
      "type": "function"
    },
    {
      "inputs": [
        {
          "internalType": "address",
          "name": "to",
          "type": "address"
        }
      ],
      "name": "safeMint",
      "outputs": [],
      "stateMutability": "nonpayable",
      "type": "function"
    },
    {
      "inputs": [
        {
          "internalType": "address",
          "name": "from",
          "type": "address"
        },
        {
          "internalType": "address",
          "name": "to",
          "type": "address"
        },
        {
          "internalType": "uint256",
          "name": "tokenId",
          "type": "uint256"
        }
      ],
      "name": "safeTransferFrom",
      "outputs": [],
      "stateMutability": "nonpayable",
      "type": "function"
    },
    {
      "inputs": [
        {
          "internalType": "address",
          "name": "from",
          "type": "address"
        },
        {
          "internalType": "address",
          "name": "to",
          "type": "address"
        },
        {
          "internalType": "uint256",
          "name": "tokenId",
          "type": "uint256"
        },
        {
          "internalType": "bytes",
          "name": "_data",
          "type": "bytes"
        }
      ],
      "name": "safeTransferFrom",
      "outputs": [],
      "stateMutability": "nonpayable",
      "type": "function"
    },
    {
      "inputs": [
        {
          "internalType": "address",
          "name": "operator",
          "type": "address"
        },
        {
          "internalType": "bool",
          "name": "approved",
          "type": "bool"
        }
      ],
      "name": "setApprovalForAll",
      "outputs": [],
      "stateMutability": "nonpayable",
      "type": "function"
    },
    {
      "inputs": [
        {
          "internalType": "bytes4",
          "name": "interfaceId",
          "type": "bytes4"
        }
      ],
      "name": "supportsInterface",
      "outputs": [
        {
          "internalType": "bool",
          "name": "",
          "type": "bool"
        }
      ],
      "stateMutability": "view",
      "type": "function"
    },
    {
      "inputs": [],
      "name": "symbol",
      "outputs": [
        {
          "internalType": "string",
          "name": "",
          "type": "string"
        }
      ],
      "stateMutability": "view",
      "type": "function"
    },
    {
      "inputs": [
        {
          "internalType": "uint256",
          "name": "index",
          "type": "uint256"
        }
      ],
      "name": "tokenByIndex",
      "outputs": [
        {
          "internalType": "uint256",
          "name": "",
          "type": "uint256"
        }
      ],
      "stateMutability": "view",
      "type": "function"
    },
    {
      "inputs": [
        {
          "internalType": "address",
          "name": "owner",
          "type": "address"
        },
        {
          "internalType": "uint256",
          "name": "index",
          "type": "uint256"
        }
      ],
      "name": "tokenOfOwnerByIndex",
      "outputs": [
        {
          "internalType": "uint256",
          "name": "",
          "type": "uint256"
        }
      ],
      "stateMutability": "view",
      "type": "function"
    },
    {
      "inputs": [
        {
          "internalType": "uint256",
          "name": "_tokenId",
          "type": "uint256"
        }
      ],
      "name": "tokenURI",
      "outputs": [
        {
          "internalType": "string",
          "name": "",
          "type": "string"
        }
      ],
      "stateMutability": "view",
      "type": "function"
    },
    {
      "inputs": [],
      "name": "totalSupply",
      "outputs": [
        {
          "internalType": "uint256",
          "name": "",
          "type": "uint256"
        }
      ],
      "stateMutability": "view",
      "type": "function"
    },
    {
      "inputs": [
        {
          "internalType": "address",
          "name": "from",
          "type": "address"
        },
        {
          "internalType": "address",
          "name": "to",
          "type": "address"
        },
        {
          "internalType": "uint256",
          "name": "tokenId",
          "type": "uint256"
        }
      ],
      "name": "transferFrom",
      "outputs": [],
      "stateMutability": "nonpayable",
      "type": "function"
    },
    {
      "inputs": [
        {
          "internalType": "address",
          "name": "newOwner",
          "type": "address"
        }
      ],
      "name": "transferOwnership",
      "outputs": [],
      "stateMutability": "nonpayable",
      "type": "function"
    },
    {
      "inputs": [],
      "name": "unpause",
      "outputs": [],
      "stateMutability": "nonpayable",
      "type": "function"
    },
    {
      "stateMutability": "payable",
      "type": "receive"
    }
  ],
  "bytecode": "0x60806040523480156200001157600080fd5b50604080518082018252600b81526a44796e615374726970657360a81b60208083019182528351808501909452600384526244535360e81b908401528151919291839183916200006491600091620000f4565b5080516200007a906001906020840190620000f4565b5050600a805460ff191690555062000092336200009a565b5050620001d7565b600a80546001600160a01b03838116610100818102610100600160a81b031985161790945560405193909204169182907f8be0079c531659141344cd1fd0a4f28419497f9722a3daafe3b4186f6b6457e090600090a35050565b82805462000102906200019a565b90600052602060002090601f01602090048101928262000126576000855562000171565b82601f106200014157805160ff191683800117855562000171565b8280016001018555821562000171579182015b828111156200017157825182559160200191906001019062000154565b506200017f92915062000183565b5090565b5b808211156200017f576000815560010162000184565b600181811c90821680620001af57607f821691505b60208210811415620001d157634e487b7160e01b600052602260045260246000fd5b50919050565b61426c80620001e76000396000f3fe6080604052600436106102385760003560e01c8063479fe5441161013857806395d89b41116100b0578063bc921dc21161007f578063e985e9c511610064578063e985e9c51461064d578063eb3af37414610696578063f2fde38b146106b657600080fd5b8063bc921dc21461060d578063c87b56dd1461062d57600080fd5b806395d89b41146105a5578063a22cb465146105ba578063afbc9823146105da578063b88d4fde146105ed57600080fd5b80636352211e11610107578063715018a6116100ec578063715018a6146105585780638456cb591461056d5780638da5cb5b1461058257600080fd5b80636352211e1461051857806370a082311461053857600080fd5b8063479fe544146104a557806349c657db146104ca5780634f6ccce7146104e05780635c975abb1461050057600080fd5b8063140db8a6116101cb5780632f745c591161019a57806340d097c31161017f57806340d097c31461044557806342842e0e1461046557806342966c681461048557600080fd5b80632f745c59146104105780633f4ba83a1461043057600080fd5b8063140db8a61461037c57806318160ddd1461039c57806323b872dd146103b15780632a55205a146103d157600080fd5b806306fdde031161020757806306fdde03146102e0578063081812fc1461030257806308d78c3c1461033a578063095ea7b31461035c57600080fd5b806301ffc9a714610244578063031bd4c414610279578063054ee789146102a25780630561942a146102cb57600080fd5b3661023f57005b600080fd5b34801561025057600080fd5b5061026461025f366004613389565b6106d6565b60405190151581526020015b60405180910390f35b34801561028557600080fd5b5061028f61138881565b60405161ffff9091168152602001610270565b3480156102ae57600080fd5b506102bd662386f26fc1000081565b604051908152602001610270565b3480156102d757600080fd5b506102bd6106e7565b3480156102ec57600080fd5b506102f5610726565b6040516102709190613fd1565b34801561030e57600080fd5b5061032261031d3660046133c1565b6107b8565b6040516001600160a01b039091168152602001610270565b34801561034657600080fd5b5061035a6103553660046133c1565b610852565b005b34801561036857600080fd5b5061035a6103773660046132b1565b610947565b34801561038857600080fd5b5061028f6103973660046133fa565b610a74565b3480156103a857600080fd5b506008546102bd565b3480156103bd57600080fd5b5061035a6103cc366004613184565b610ae2565b3480156103dd57600080fd5b506103f16103ec3660046133d9565b610b6a565b604080516001600160a01b039093168352602083019190915201610270565b34801561041c57600080fd5b506102bd61042b3660046132b1565b610bc3565b34801561043c57600080fd5b5061035a610c6b565b34801561045157600080fd5b5061035a610460366004613138565b610cd5565b34801561047157600080fd5b5061035a610480366004613184565b610d58565b34801561049157600080fd5b5061035a6104a03660046133c1565b610d73565b3480156104b157600080fd5b50600a5461010090046001600160a01b03163314610264565b3480156104d657600080fd5b5061028f6103e881565b3480156104ec57600080fd5b506102bd6104fb3660046133c1565b610df7565b34801561050c57600080fd5b50600a5460ff16610264565b34801561052457600080fd5b506103226105333660046133c1565b610ea9565b34801561054457600080fd5b506102bd610553366004613138565b610f34565b34801561056457600080fd5b5061035a610fce565b34801561057957600080fd5b5061035a611038565b34801561058e57600080fd5b50600a5461010090046001600160a01b0316610322565b3480156105b157600080fd5b506102f56110a0565b3480156105c657600080fd5b5061035a6105d5366004613277565b6110af565b61035a6105e836600461343c565b611174565b3480156105f957600080fd5b5061035a6106083660046131bf565b6116f2565b34801561061957600080fd5b506102f56106283660046133c1565b611780565b34801561063957600080fd5b506102f56106483660046133c1565b611b2e565b34801561065957600080fd5b50610264610668366004613152565b6001600160a01b03918216600090815260056020908152604080832093909416825291909152205460ff1690565b3480156106a257600080fd5b5061035a6106b13660046132da565b611e69565b3480156106c257600080fd5b5061035a6106d1366004613138565b611f39565b60006106e18261201e565b92915050565b6000662386f26fc1000060646106fc60085490565b610706919061408e565b61071091906140cc565b61072190662386f26fc10000614032565b905090565b60606000805461073590614174565b80601f016020809104026020016040519081016040528092919081815260200182805461076190614174565b80156107ae5780601f10610783576101008083540402835291602001916107ae565b820191906000526020600020905b81548152906001019060200180831161079157829003601f168201915b5050505050905090565b6000818152600260205260408120546001600160a01b03166108365760405162461bcd60e51b815260206004820152602c60248201527f4552433732313a20617070726f76656420717565727920666f72206e6f6e657860448201526b34b9ba32b73a103a37b5b2b760a11b60648201526084015b60405180910390fd5b506000908152600460205260409020546001600160a01b031690565b600a546001600160a01b036101009091041633146108b25760405162461bcd60e51b815260206004820181905260248201527f4f776e61626c653a2063616c6c6572206973206e6f7420746865206f776e6572604482015260640161082d565b478111156109025760405162461bcd60e51b815260206004820152600f60248201527f416d6f756e7420746f6f20686967680000000000000000000000000000000000604482015260640161082d565b600a546040516101009091046001600160a01b031690819083156108fc029084906000818181858888f19350505050158015610942573d6000803e3d6000fd5b505050565b600061095282610ea9565b9050806001600160a01b0316836001600160a01b031614156109dc5760405162461bcd60e51b815260206004820152602160248201527f4552433732313a20617070726f76616c20746f2063757272656e74206f776e6560448201527f7200000000000000000000000000000000000000000000000000000000000000606482015260840161082d565b336001600160a01b03821614806109f857506109f88133610668565b610a6a5760405162461bcd60e51b815260206004820152603860248201527f4552433732313a20617070726f76652063616c6c6572206973206e6f74206f7760448201527f6e6572206e6f7220617070726f76656420666f7220616c6c0000000000000000606482015260840161082d565b610942838361205c565b60008261ffff168261ffff1611610a8c575081610adb565b6040805163ffffffff8616602080830191909152825180830382018152918301909252805191012083610abf81856140eb565b610acd9061ffff16836141ca565b610ad79190614015565b9150505b9392505050565b610aed335b826120ca565b610b5f5760405162461bcd60e51b815260206004820152603160248201527f4552433732313a207472616e736665722063616c6c6572206973206e6f74206f60448201527f776e6572206e6f7220617070726f766564000000000000000000000000000000606482015260840161082d565b6109428383836121c1565b6000828152600c60209081526040808320815180830190925280546001600160a01b0316808352600190910154928201839052839261271090610bad90876140cc565b610bb7919061408e565b92509250509250929050565b6000610bce83610f34565b8210610c425760405162461bcd60e51b815260206004820152602b60248201527f455243373231456e756d657261626c653a206f776e657220696e646578206f7560448201527f74206f6620626f756e6473000000000000000000000000000000000000000000606482015260840161082d565b506001600160a01b03919091166000908152600660209081526040808320938352929052205490565b600a546001600160a01b03610100909104163314610ccb5760405162461bcd60e51b815260206004820181905260248201527f4f776e61626c653a2063616c6c6572206973206e6f7420746865206f776e6572604482015260640161082d565b610cd3612399565b565b600a546001600160a01b03610100909104163314610d355760405162461bcd60e51b815260206004820181905260248201527f4f776e61626c653a2063616c6c6572206973206e6f7420746865206f776e6572604482015260640161082d565b610d4781610d42600b5490565b612435565b610d55600b80546001019055565b50565b610942838383604051806020016040528060008152506116f2565b610d7c33610ae7565b610dee5760405162461bcd60e51b815260206004820152603060248201527f4552433732314275726e61626c653a2063616c6c6572206973206e6f74206f7760448201527f6e6572206e6f7220617070726f76656400000000000000000000000000000000606482015260840161082d565b610d558161244f565b6000610e0260085490565b8210610e765760405162461bcd60e51b815260206004820152602c60248201527f455243373231456e756d657261626c653a20676c6f62616c20696e646578206f60448201527f7574206f6620626f756e64730000000000000000000000000000000000000000606482015260840161082d565b60088281548110610e9757634e487b7160e01b600052603260045260246000fd5b90600052602060002001549050919050565b6000818152600260205260408120546001600160a01b0316806106e15760405162461bcd60e51b815260206004820152602960248201527f4552433732313a206f776e657220717565727920666f72206e6f6e657869737460448201527f656e7420746f6b656e0000000000000000000000000000000000000000000000606482015260840161082d565b60006001600160a01b038216610fb25760405162461bcd60e51b815260206004820152602a60248201527f4552433732313a2062616c616e636520717565727920666f7220746865207a6560448201527f726f206164647265737300000000000000000000000000000000000000000000606482015260840161082d565b506001600160a01b031660009081526003602052604090205490565b600a546001600160a01b0361010090910416331461102e5760405162461bcd60e51b815260206004820181905260248201527f4f776e61626c653a2063616c6c6572206973206e6f7420746865206f776e6572604482015260640161082d565b610cd360006124f6565b600a546001600160a01b036101009091041633146110985760405162461bcd60e51b815260206004820181905260248201527f4f776e61626c653a2063616c6c6572206973206e6f7420746865206f776e6572604482015260640161082d565b610cd3612567565b60606001805461073590614174565b6001600160a01b0382163314156111085760405162461bcd60e51b815260206004820152601960248201527f4552433732313a20617070726f766520746f2063616c6c657200000000000000604482015260640161082d565b3360008181526005602090815260408083206001600160a01b03871680855290835292819020805460ff191686151590811790915590519081529192917f17307eab39ab6107e8899845ad3d59bd9653f200f220920489ca2b5937696c31910160405180910390a35050565b600061117f600b5490565b905061138881106111d25760405162461bcd60e51b815260206004820152601160248201527f416c6c20746f6b656e73206d696e746564000000000000000000000000000000604482015260640161082d565b6111da6106e7565b3410156112295760405162461bcd60e51b815260206004820152601060248201527f4e6f7420656e6f75676820657468657200000000000000000000000000000000604482015260640161082d565b60648a60ff16111561127d5760405162461bcd60e51b815260206004820152600c60248201527f5a6f6f6d20696e76616c69640000000000000000000000000000000000000000604482015260640161082d565b60b48860ff161115801561129757508760ff168960ff1611155b6112e35760405162461bcd60e51b815260206004820152601060248201527f526f746174696f6e20696e76616c696400000000000000000000000000000000604482015260640161082d565b60198760ff16101580156112fb575060fa8660ff1611155b801561130d57508560ff168760ff1611155b6113595760405162461bcd60e51b815260206004820152601460248201527f53747269706520776964746820696e76616c6964000000000000000000000000604482015260640161082d565b60ff8460ff161115801561137d5750611373601485614125565b60ff168560ff1611155b6113c95760405162461bcd60e51b815260206004820152601560248201527f50616c657474652076616c756520696e76616c69640000000000000000000000604482015260640161082d565b60198360ff16101580156113e1575060fa8260ff1611155b80156113f357508160ff168360ff1611155b61143f5760405162461bcd60e51b815260206004820152601360248201527f53706565642076616c756520696e76616c696400000000000000000000000000604482015260640161082d565b624c4b408b63ffffffff1610801561146d575063ffffffff8b166000908152600e602052604090205460ff16155b6114b95760405162461bcd60e51b815260206004820152601360248201527f52616e646f6d207365656420696e76616c696400000000000000000000000000604482015260640161082d565b6114c33382612435565b6114d081336103e86125ef565b6040518061014001604052808c63ffffffff1681526020018b60ff1681526020018a60ff1681526020018960ff1681526020018860ff1681526020018760ff1681526020018660ff1681526020018560ff1681526020018460ff1681526020018360ff16815250600d600083815260200190815260200160002060008201518160000160006101000a81548163ffffffff021916908363ffffffff16021790555060208201518160000160046101000a81548160ff021916908360ff16021790555060408201518160000160056101000a81548160ff021916908360ff16021790555060608201518160000160066101000a81548160ff021916908360ff16021790555060808201518160000160076101000a81548160ff021916908360ff16021790555060a08201518160000160086101000a81548160ff021916908360ff16021790555060c08201518160000160096101000a81548160ff021916908360ff16021790555060e082015181600001600a6101000a81548160ff021916908360ff16021790555061010082015181600001600b6101000a81548160ff021916908360ff16021790555061012082015181600001600c6101000a81548160ff021916908360ff1602179055509050506001600e60008d63ffffffff1663ffffffff16815260200190815260200160002060006101000a81548160ff0219169083151502179055506116e5600b80546001019055565b5050505050505050505050565b6116fc33836120ca565b61176e5760405162461bcd60e51b815260206004820152603160248201527f4552433732313a207472616e736665722063616c6c6572206973206e6f74206f60448201527f776e6572206e6f7220617070726f766564000000000000000000000000000000606482015260840161082d565b61177a84848484612689565b50505050565b606061178b600b5490565b82106118255760405162461bcd60e51b815260206004820152604160248201527f417474656d7074656420746f2067656e65726174652053564720666f7220746f60448201527f6b656e207468617420686173206e6f7420796574206265656e206d696e74656460648201527f2e00000000000000000000000000000000000000000000000000000000000000608482015260a40161082d565b6000828152600d60209081526040808320815161014081018352905463ffffffff811680835260ff640100000000830481169584018690526501000000000083048116948401949094526601000000000000820484166060840152670100000000000000820484166080840152680100000000000000008204841660a084015269010000000000000000008204841660c08401526a01000000000000000000008204841660e08401526b010000000000000000000000820484166101008401526c010000000000000000000000009091049092166101208201529291829061190c90612707565b60405160200161191c9190613a98565b60405160208183030381529060405290505b600061193c846107d06140eb565b61ffff161115611b0357600061196183866080015160ff168760a0015160ff16610a74565b61196c9060026140a2565b905061197a846107d06140eb565b61ffff168161ffff16111561199c57611995846107d06140eb565b90506119e9565b608085015160ff16816119b1866107d06140eb565b6119bb91906140eb565b61ffff1610156119e957806119d2856107d06140eb565b6119dc91906140eb565b6119e69082614015565b90505b6000611a0e6119f985600161404a565b876040015160ff16886060015160ff16610a74565b90506000611a37611a2086600261404a565b88610100015160ff1689610120015160ff16610a74565b611a429060146140a2565b90506000611a538761ffff16612792565b611a608561ffff16612792565b611a6d8561ffff16612792565b611a7a8561ffff16612792565b611a97611a888b600361404a565b8d60c001518e60e0015161290b565b604051602001611aab95949392919061362c565b60405160208183030381529060405290508481604051602001611acf92919061353d565b60408051601f198184030181529190529450611aeb8488614015565b9650611af860648761404a565b95505050505061192e565b80604051602001611b1491906135eb565b60408051601f198184030181529190529695505050505050565b6000818152600d60209081526040808320815161014081018352905463ffffffff8116825260ff64010000000082048116948301949094526501000000000081048416928201839052660100000000000081048416606083810191909152670100000000000000820485166080840152680100000000000000008204851660a084015269010000000000000000008204851660c08401526a01000000000000000000008204851660e08401526b010000000000000000000000820485166101008401526c01000000000000000000000000909104909316610120820152919290611c1790612792565b611c27836060015160ff16612792565b604051602001611c3892919061391e565b60405160208183030381529060405290506000611c5b836080015160ff16612792565b611c6b8460a0015160ff16612792565b604051602001611c7c929190613ec9565b60405160208183030381529060405290506000611c9f8460c0015160ff16612792565b611caf8560e0015160ff16612792565b604051602001611cc0929190613842565b60405160208183030381529060405290506000611ce485610100015160ff16612792565b611cf586610120015160ff16612792565b604051602001611d06929190613bf6565b6040516020818303038152906040529050600084848484604051602001611d309493929190613b2a565b60405160208183030381529060405290506000604051602001611e0e907f22636f70797269676874223a2022546865206f776e6572206f6620746869732081527f4e465420697320697473206c6567616c20636f7079726967687420686f6c646560208201527f722e2042792073656c6c696e672074686973204e46542c207468652073656c6c60408201527f65722f6f776e65722061677265657320746f2061737369676e20636f7079726960608201527f67687420746f20746865207075726368617365722e2200000000000000000000608082015260960190565b60405160208183030381529060405290506000611e2a8a611780565b9050611e358a612792565b828483604051602001611e4b9493929190613db0565b60405160208183030381529060405298505050505050505050919050565b600a546001600160a01b03610100909104163314611ec95760405162461bcd60e51b815260206004820181905260248201527f4f776e61626c653a2063616c6c6572206973206e6f7420746865206f776e6572604482015260640161082d565b60005b8151811015611f35576000828281518110611ef757634e487b7160e01b600052603260045260246000fd5b60209081029190910181015163ffffffff166000908152600e90915260409020805460ff191660011790555080611f2d816141af565b915050611ecc565b5050565b600a546001600160a01b03610100909104163314611f995760405162461bcd60e51b815260206004820181905260248201527f4f776e61626c653a2063616c6c6572206973206e6f7420746865206f776e6572604482015260640161082d565b6001600160a01b0381166120155760405162461bcd60e51b815260206004820152602660248201527f4f776e61626c653a206e6577206f776e657220697320746865207a65726f206160448201527f6464726573730000000000000000000000000000000000000000000000000000606482015260840161082d565b610d55816124f6565b60006001600160e01b031982167f2a55205a0000000000000000000000000000000000000000000000000000000014806106e157506106e182612964565b600081815260046020526040902080546001600160a01b0319166001600160a01b038416908117909155819061209182610ea9565b6001600160a01b03167f8c5be1e5ebec7d5bd14f71427d1e84f3dd0314c0f7b2291e5b200ac8c7c3b92560405160405180910390a45050565b6000818152600260205260408120546001600160a01b03166121435760405162461bcd60e51b815260206004820152602c60248201527f4552433732313a206f70657261746f7220717565727920666f72206e6f6e657860448201526b34b9ba32b73a103a37b5b2b760a11b606482015260840161082d565b600061214e83610ea9565b9050806001600160a01b0316846001600160a01b031614806121895750836001600160a01b031661217e846107b8565b6001600160a01b0316145b806121b957506001600160a01b0380821660009081526005602090815260408083209388168352929052205460ff165b949350505050565b826001600160a01b03166121d482610ea9565b6001600160a01b0316146122505760405162461bcd60e51b815260206004820152602960248201527f4552433732313a207472616e73666572206f6620746f6b656e2074686174206960448201527f73206e6f74206f776e0000000000000000000000000000000000000000000000606482015260840161082d565b6001600160a01b0382166122cb5760405162461bcd60e51b8152602060048201526024808201527f4552433732313a207472616e7366657220746f20746865207a65726f2061646460448201527f7265737300000000000000000000000000000000000000000000000000000000606482015260840161082d565b6122d683838361296f565b6122e160008261205c565b6001600160a01b038316600090815260036020526040812080546001929061230a90849061410e565b90915550506001600160a01b0382166000908152600360205260408120805460019290612338908490614032565b909155505060008181526002602052604080822080546001600160a01b0319166001600160a01b0386811691821790925591518493918716917fddf252ad1be2c89b69c2b068fc378daa952ba7f163c4a11628f55a4df523b3ef91a4505050565b600a5460ff166123eb5760405162461bcd60e51b815260206004820152601460248201527f5061757361626c653a206e6f7420706175736564000000000000000000000000604482015260640161082d565b600a805460ff191690557f5db9ee0a495bf2e6ff9c91a7834c1ba4fdd244a5e8aa4e537bd38aeae4b073aa335b6040516001600160a01b03909116815260200160405180910390a1565b611f358282604051806020016040528060008152506129cd565b600061245a82610ea9565b90506124688160008461296f565b61247360008361205c565b6001600160a01b038116600090815260036020526040812080546001929061249c90849061410e565b909155505060008281526002602052604080822080546001600160a01b0319169055518391906001600160a01b038416907fddf252ad1be2c89b69c2b068fc378daa952ba7f163c4a11628f55a4df523b3ef908390a45050565b600a80546001600160a01b038381166101008181027fffffffffffffffffffffff0000000000000000000000000000000000000000ff85161790945560405193909204169182907f8be0079c531659141344cd1fd0a4f28419497f9722a3daafe3b4186f6b6457e090600090a35050565b600a5460ff16156125ba5760405162461bcd60e51b815260206004820152601060248201527f5061757361626c653a2070617573656400000000000000000000000000000000604482015260640161082d565b600a805460ff191660011790557f62e78cea01bee320cd4e420270b5ea74000d11b0c9f74754ebdbfc544b05a2586124183390565b6127108111156126415760405162461bcd60e51b815260206004820152601a60248201527f45524332393831526f79616c746965733a20546f6f2068696768000000000000604482015260640161082d565b6040805180820182526001600160a01b03938416815260208082019384526000958652600c90529320925183546001600160a01b031916921691909117825551600190910155565b6126948484846121c1565b6126a084848484612a4b565b61177a5760405162461bcd60e51b815260206004820152603260248201527f4552433732313a207472616e7366657220746f206e6f6e20455243373231526560448201527131b2b4bb32b91034b6b83632b6b2b73a32b960711b606482015260840161082d565b606060006127168360056140a2565b9050600061272584600a6140a2565b612731906107d0614015565b90506127408261ffff16612792565b61274d8361ffff16612792565b61275a8361ffff16612792565b6127678461ffff16612792565b60405160200161277a9493929190613cd2565b60405160208183030381529060405292505050919050565b6060816127d257505060408051808201909152600181527f3000000000000000000000000000000000000000000000000000000000000000602082015290565b8160005b81156127fc57806127e6816141af565b91506127f59050600a8361408e565b91506127d6565b60008167ffffffffffffffff81111561282557634e487b7160e01b600052604160045260246000fd5b6040519080825280601f01601f19166020018201604052801561284f576020820181803683370190505b509050815b85156129025761286560018261410e565b90506000612874600a8861408e565b61287f90600a6140cc565b612889908861410e565b612894906030614069565b905060008160f81b9050808484815181106128bf57634e487b7160e01b600052603260045260246000fd5b60200101907effffffffffffffffffffffffffffffffffffffffffffffffffffffffffffff1916908160001a9053506128f9600a8961408e565b97505050612854565b50949350505050565b6060600061291a858585612ba3565b9050600061293361292c87600a61404a565b8686612ba3565b905081818360405160200161294a9392919061356c565b604051602081830303815290604052925050509392505050565b60006106e182612c4c565b600a5460ff16156129c25760405162461bcd60e51b815260206004820152601060248201527f5061757361626c653a2070617573656400000000000000000000000000000000604482015260640161082d565b610942838383612c8a565b6129d78383612d42565b6129e46000848484612a4b565b6109425760405162461bcd60e51b815260206004820152603260248201527f4552433732313a207472616e7366657220746f206e6f6e20455243373231526560448201527131b2b4bb32b91034b6b83632b6b2b73a32b960711b606482015260840161082d565b60006001600160a01b0384163b15612b9857604051630a85bd0160e11b81526001600160a01b0385169063150b7a0290612a8f903390899088908890600401613f95565b602060405180830381600087803b158015612aa957600080fd5b505af1925050508015612ad9575060408051601f3d908101601f19168201909252612ad6918101906133a5565b60015b612b7e573d808015612b07576040519150601f19603f3d011682016040523d82523d6000602084013e612b0c565b606091505b508051612b765760405162461bcd60e51b815260206004820152603260248201527f4552433732313a207472616e7366657220746f206e6f6e20455243373231526560448201527131b2b4bb32b91034b6b83632b6b2b73a32b960711b606482015260840161082d565b805181602001fd5b6001600160e01b031916630a85bd0160e11b1490506121b9565b506001949350505050565b60606000612bb8858560ff168560ff16610a74565b90506000612bd7612bca87600161404a565b8660ff168660ff16610a74565b90506000612bf6612be988600261404a565b8760ff168760ff16610a74565b9050612c058361ffff16612792565b612c128361ffff16612792565b612c1f8361ffff16612792565b604051602001612c31939291906139ea565b60405160208183030381529060405293505050509392505050565b60006001600160e01b031982167f780e9d630000000000000000000000000000000000000000000000000000000014806106e157506106e182612e90565b6001600160a01b038316612ce557612ce081600880546000838152600960205260408120829055600182018355919091527ff3f7a9fe364faab93b216da50a3214154f22a0a2b415b23a84c8169e8b636ee30155565b612d08565b816001600160a01b0316836001600160a01b031614612d0857612d088382612f2b565b6001600160a01b038216612d1f5761094281612fc8565b826001600160a01b0316826001600160a01b0316146109425761094282826130a1565b6001600160a01b038216612d985760405162461bcd60e51b815260206004820181905260248201527f4552433732313a206d696e7420746f20746865207a65726f2061646472657373604482015260640161082d565b6000818152600260205260409020546001600160a01b031615612dfd5760405162461bcd60e51b815260206004820152601c60248201527f4552433732313a20746f6b656e20616c7265616479206d696e74656400000000604482015260640161082d565b612e096000838361296f565b6001600160a01b0382166000908152600360205260408120805460019290612e32908490614032565b909155505060008181526002602052604080822080546001600160a01b0319166001600160a01b03861690811790915590518392907fddf252ad1be2c89b69c2b068fc378daa952ba7f163c4a11628f55a4df523b3ef908290a45050565b60006001600160e01b031982167f80ac58cd000000000000000000000000000000000000000000000000000000001480612ef357506001600160e01b031982167f5b5e139f00000000000000000000000000000000000000000000000000000000145b806106e157507f01ffc9a7000000000000000000000000000000000000000000000000000000006001600160e01b03198316146106e1565b60006001612f3884610f34565b612f42919061410e565b600083815260076020526040902054909150808214612f95576001600160a01b03841660009081526006602090815260408083208584528252808320548484528184208190558352600790915290208190555b5060009182526007602090815260408084208490556001600160a01b039094168352600681528383209183525290812055565b600854600090612fda9060019061410e565b6000838152600960205260408120546008805493945090928490811061301057634e487b7160e01b600052603260045260246000fd5b90600052602060002001549050806008838154811061303f57634e487b7160e01b600052603260045260246000fd5b600091825260208083209091019290925582815260099091526040808220849055858252812055600880548061308557634e487b7160e01b600052603160045260246000fd5b6001900381819060005260206000200160009055905550505050565b60006130ac83610f34565b6001600160a01b039093166000908152600660209081526040808320868452825280832085905593825260079052919091209190915550565b80356001600160a01b03811681146130fc57600080fd5b919050565b803561ffff811681146130fc57600080fd5b803563ffffffff811681146130fc57600080fd5b803560ff811681146130fc57600080fd5b600060208284031215613149578081fd5b610adb826130e5565b60008060408385031215613164578081fd5b61316d836130e5565b915061317b602084016130e5565b90509250929050565b600080600060608486031215613198578081fd5b6131a1846130e5565b92506131af602085016130e5565b9150604084013590509250925092565b600080600080608085870312156131d4578081fd5b6131dd856130e5565b935060206131ec8187016130e5565b935060408601359250606086013567ffffffffffffffff8082111561320f578384fd5b818801915088601f830112613222578384fd5b8135818111156132345761323461420a565b613246601f8201601f19168501613fe4565b9150808252898482850101111561325b578485fd5b8084840185840137810190920192909252939692955090935050565b60008060408385031215613289578182fd5b613292836130e5565b9150602083013580151581146132a6578182fd5b809150509250929050565b600080604083850312156132c3578182fd5b6132cc836130e5565b946020939093013593505050565b600060208083850312156132ec578182fd5b823567ffffffffffffffff80821115613303578384fd5b818501915085601f830112613316578384fd5b8135818111156133285761332861420a565b8060051b9150613339848301613fe4565b8181528481019084860184860187018a1015613353578788fd5b8795505b8386101561337c5761336881613113565b835260019590950194918601918601613357565b5098975050505050505050565b60006020828403121561339a578081fd5b8135610adb81614220565b6000602082840312156133b6578081fd5b8151610adb81614220565b6000602082840312156133d2578081fd5b5035919050565b600080604083850312156133eb578182fd5b50508035926020909101359150565b60008060006060848603121561340e578283fd5b61341784613113565b925061342560208501613101565b915061343360408501613101565b90509250925092565b6000806000806000806000806000806101408b8d03121561345b578788fd5b6134648b613113565b995061347260208c01613127565b985061348060408c01613127565b975061348e60608c01613127565b965061349c60808c01613127565b95506134aa60a08c01613127565b94506134b860c08c01613127565b93506134c660e08c01613127565b92506134d56101008c01613127565b91506134e46101208c01613127565b90509295989b9194979a5092959850565b6000815180845261350d816020860160208601614148565b601f01601f19169290920160200192915050565b60008151613533818560208601614148565b9290920192915050565b6000835161354f818460208801614148565b835190830190613563818360208801614148565b01949350505050565b6000845161357e818460208901614148565b80830190507f3b0000000000000000000000000000000000000000000000000000000000000080825285516135ba816001850160208a01614148565b6001920191820181905284516135d7816002850160208901614148565b600292019182015260030195945050505050565b600082516135fd818460208701614148565b7f3c2f7376673e0000000000000000000000000000000000000000000000000000920191825250600601919050565b7f3c7265637420783d270000000000000000000000000000000000000000000000815260008651613664816009850160208b01614148565b7f2720793d2730272077696474683d27000000000000000000000000000000000060099184019182015286516136a1816018840160208b01614148565b7f27206865696768743d2732303030272073686170652d72656e646572696e673d601892909101918201527f27637269737045646765732720206f7061636974793d27302e3827000000000060388201527f207472616e73666f726d3d27726f7461746528000000000000000000000000006053820152855161372b816066840160208a01614148565b7f2031303030203130303029273e3c616e696d61746520626567696e3d20273073606692909101918201527f27206475723d270000000000000000000000000000000000000000000000000060868201526138366137e76137e1613792608d850189613521565b7f6d7327206174747269627574654e616d653d2766696c6c272076616c7565733d81527f2700000000000000000000000000000000000000000000000000000000000000602082015260210190565b86613521565b7f272066696c6c3d27667265657a652720726570656174436f756e743d27696e6481527f6566696e697465272f3e3c2f726563743e000000000000000000000000000000602082015260310190565b98975050505050505050565b7f7b2274726169745f74797065223a202270616c65747465206d696e222c20227681527f616c7565223a20220000000000000000000000000000000000000000000000006020820152600083516138a0816028850160208801614148565b7f227d2c207b2274726169745f74797065223a202270616c65747465206d6178226028918401918201527f2c202276616c7565223a2022000000000000000000000000000000000000000060488201528351613903816054840160208801614148565b61227d60f01b60549290910191820152605601949350505050565b7f7b2274726169745f74797065223a2022726f746174696f6e206d696e222c202281527f76616c7565223a2022000000000000000000000000000000000000000000000060208201526000835161397c816029850160208801614148565b7f227d2c207b2274726169745f74797065223a2022726f746174696f6e206d61786029918401918201526c111610113b30b63ab2911d101160991b604982015283516139cf816056840160208801614148565b61227d60f01b60569290910191820152605801949350505050565b7f7267622800000000000000000000000000000000000000000000000000000000815260008451613a22816004850160208901614148565b808301905061016160f51b8060048301528551613a46816006850160208a01614148565b60069201918201528351613a61816008840160208801614148565b7f29000000000000000000000000000000000000000000000000000000000000006008929091019182015260090195945050505050565b7f3c73766720786d6c6e733d27687474703a2f2f7777772e77332e6f72672f323081527f30302f737667272076696577426f783d27000000000000000000000000000000602082015260008251613af6816031850160208701614148565b7f273e0000000000000000000000000000000000000000000000000000000000006031939091019283015250603301919050565b7f2261747472696275746573223a205b0000000000000000000000000000000000815260008551613b6281600f850160208a01614148565b808301905061016160f51b80600f8301528651613b86816011850160208b01614148565b601192019182018190528551613ba3816013850160208a01614148565b60139201918201528351613bbe816015840160208801614148565b7f5d00000000000000000000000000000000000000000000000000000000000000601592909101918201526016019695505050505050565b7f7b2274726169745f74797065223a20227370656564206d696e222c202276616c81527f7565223a20220000000000000000000000000000000000000000000000000000602082015260008351613c54816026850160208801614148565b7f227d2c207b2274726169745f74797065223a20227370656564206d6178222c206026918401918201527f2276616c7565223a20220000000000000000000000000000000000000000000060468201528351613cb7816050840160208801614148565b61227d60f01b60509290910191820152605201949350505050565b7f2d00000000000000000000000000000000000000000000000000000000000000815260008551613d0a816001850160208a01614148565b7f202d0000000000000000000000000000000000000000000000000000000000006001918401918201528551613d47816003840160208a01614148565b8082019150507f20000000000000000000000000000000000000000000000000000000000000008060038301528551613d87816004850160208a01614148565b60049201918201528351613da2816005840160208801614148565b016005019695505050505050565b7f7b226e616d65223a2244796e6153747269706573202300000000000000000000815260008551613de8816016850160208a01614148565b7f222c20226465736372697074696f6e223a226f6e2d636861696e2c2067656e656016918401918201527f7261746976652044796e615374726970657320617274776f726b222c2000000060368201528551613e4b816053840160208a01614148565b61016160f51b605392909101918201528451613e6e816055840160208901614148565b7f2c2022696d616765223a22646174613a696d6167652f7376672b786d6c2c0000605592909101918201528351613eac816073840160208801614148565b61227d60f01b607392909101918201526075019695505050505050565b7f7b2274726169745f74797065223a2022737472697065207769647468206d696e81526c111610113b30b63ab2911d101160991b602082015260008351613f1781602d850160208801614148565b7f227d2c207b2274726169745f74797065223a2022737472697065207769647468602d918401918201527f206d6178222c202276616c7565223a2022000000000000000000000000000000604d8201528351613f7a81605e840160208801614148565b61227d60f01b605e9290910191820152606001949350505050565b60006001600160a01b03808716835280861660208401525083604083015260806060830152613fc760808301846134f5565b9695505050505050565b602081526000610adb60208301846134f5565b604051601f8201601f1916810167ffffffffffffffff8111828210171561400d5761400d61420a565b604052919050565b600061ffff808316818516808303821115613563576135636141de565b60008219821115614045576140456141de565b500190565b600063ffffffff808316818516808303821115613563576135636141de565b600060ff821660ff84168060ff03821115614086576140866141de565b019392505050565b60008261409d5761409d6141f4565b500490565b600061ffff808316818516818304811182151516156140c3576140c36141de565b02949350505050565b60008160001904831182151516156140e6576140e66141de565b500290565b600061ffff83811690831681811015614106576141066141de565b039392505050565b600082821015614120576141206141de565b500390565b600060ff821660ff84168082101561413f5761413f6141de565b90039392505050565b60005b8381101561416357818101518382015260200161414b565b8381111561177a5750506000910152565b600181811c9082168061418857607f821691505b602082108114156141a957634e487b7160e01b600052602260045260246000fd5b50919050565b60006000198214156141c3576141c36141de565b5060010190565b6000826141d9576141d96141f4565b500690565b634e487b7160e01b600052601160045260246000fd5b634e487b7160e01b600052601260045260246000fd5b634e487b7160e01b600052604160045260246000fd5b6001600160e01b031981168114610d5557600080fdfea2646970667358221220435545ba537733bbc55757c3a36335bcdd7fe09cd879843360e1d84b6a05656e64736f6c63430008040033",
  "linkReferences": {},
  "deployedLinkReferences": {}
}