{
  "_format": "hh-sol-artifact-1",
  "contractName": "DynaStripes",
  "sourceName": "contracts/DynaStripes.sol",
  "abi": [
    {
      "inputs": [],
      "stateMutability": "nonpayable",
      "type": "constructor"
    },
    {
      "anonymous": false,
      "inputs": [
        {
          "indexed": true,
          "internalType": "address",
          "name": "owner",
          "type": "address"
        },
        {
          "indexed": true,
          "internalType": "address",
          "name": "approved",
          "type": "address"
        },
        {
          "indexed": true,
          "internalType": "uint256",
          "name": "tokenId",
          "type": "uint256"
        }
      ],
      "name": "Approval",
      "type": "event"
    },
    {
      "anonymous": false,
      "inputs": [
        {
          "indexed": true,
          "internalType": "address",
          "name": "owner",
          "type": "address"
        },
        {
          "indexed": true,
          "internalType": "address",
          "name": "operator",
          "type": "address"
        },
        {
          "indexed": false,
          "internalType": "bool",
          "name": "approved",
          "type": "bool"
        }
      ],
      "name": "ApprovalForAll",
      "type": "event"
    },
    {
      "anonymous": false,
      "inputs": [
        {
          "indexed": false,
          "internalType": "address",
          "name": "account",
          "type": "address"
        }
      ],
      "name": "Paused",
      "type": "event"
    },
    {
      "anonymous": false,
      "inputs": [
        {
          "indexed": true,
          "internalType": "bytes32",
          "name": "role",
          "type": "bytes32"
        },
        {
          "indexed": true,
          "internalType": "bytes32",
          "name": "previousAdminRole",
          "type": "bytes32"
        },
        {
          "indexed": true,
          "internalType": "bytes32",
          "name": "newAdminRole",
          "type": "bytes32"
        }
      ],
      "name": "RoleAdminChanged",
      "type": "event"
    },
    {
      "anonymous": false,
      "inputs": [
        {
          "indexed": true,
          "internalType": "bytes32",
          "name": "role",
          "type": "bytes32"
        },
        {
          "indexed": true,
          "internalType": "address",
          "name": "account",
          "type": "address"
        },
        {
          "indexed": true,
          "internalType": "address",
          "name": "sender",
          "type": "address"
        }
      ],
      "name": "RoleGranted",
      "type": "event"
    },
    {
      "anonymous": false,
      "inputs": [
        {
          "indexed": true,
          "internalType": "bytes32",
          "name": "role",
          "type": "bytes32"
        },
        {
          "indexed": true,
          "internalType": "address",
          "name": "account",
          "type": "address"
        },
        {
          "indexed": true,
          "internalType": "address",
          "name": "sender",
          "type": "address"
        }
      ],
      "name": "RoleRevoked",
      "type": "event"
    },
    {
      "anonymous": false,
      "inputs": [
        {
          "indexed": true,
          "internalType": "address",
          "name": "from",
          "type": "address"
        },
        {
          "indexed": true,
          "internalType": "address",
          "name": "to",
          "type": "address"
        },
        {
          "indexed": true,
          "internalType": "uint256",
          "name": "tokenId",
          "type": "uint256"
        }
      ],
      "name": "Transfer",
      "type": "event"
    },
    {
      "anonymous": false,
      "inputs": [
        {
          "indexed": false,
          "internalType": "address",
          "name": "account",
          "type": "address"
        }
      ],
      "name": "Unpaused",
      "type": "event"
    },
    {
      "inputs": [],
      "name": "DEFAULT_ADMIN_ROLE",
      "outputs": [
        {
          "internalType": "bytes32",
          "name": "",
          "type": "bytes32"
        }
      ],
      "stateMutability": "view",
      "type": "function"
    },
    {
      "inputs": [],
      "name": "MINTER_ROLE",
      "outputs": [
        {
          "internalType": "bytes32",
          "name": "",
          "type": "bytes32"
        }
      ],
      "stateMutability": "view",
      "type": "function"
    },
    {
      "inputs": [],
      "name": "PAUSER_ROLE",
      "outputs": [
        {
          "internalType": "bytes32",
          "name": "",
          "type": "bytes32"
        }
      ],
      "stateMutability": "view",
      "type": "function"
    },
    {
      "inputs": [
        {
          "internalType": "address",
          "name": "to",
          "type": "address"
        },
        {
          "internalType": "uint256",
          "name": "tokenId",
          "type": "uint256"
        }
      ],
      "name": "approve",
      "outputs": [],
      "stateMutability": "nonpayable",
      "type": "function"
    },
    {
      "inputs": [
        {
          "internalType": "address",
          "name": "owner",
          "type": "address"
        }
      ],
      "name": "balanceOf",
      "outputs": [
        {
          "internalType": "uint256",
          "name": "",
          "type": "uint256"
        }
      ],
      "stateMutability": "view",
      "type": "function"
    },
    {
      "inputs": [
        {
          "internalType": "uint256",
          "name": "tokenId",
          "type": "uint256"
        }
      ],
      "name": "burn",
      "outputs": [],
      "stateMutability": "nonpayable",
      "type": "function"
    },
    {
      "inputs": [
        {
          "internalType": "uint256",
          "name": "_tokenId",
          "type": "uint256"
        }
      ],
      "name": "generateSvg",
      "outputs": [
        {
          "internalType": "string",
          "name": "",
          "type": "string"
        }
      ],
      "stateMutability": "view",
      "type": "function"
    },
    {
      "inputs": [
        {
          "internalType": "uint256",
          "name": "tokenId",
          "type": "uint256"
        }
      ],
      "name": "getApproved",
      "outputs": [
        {
          "internalType": "address",
          "name": "",
          "type": "address"
        }
      ],
      "stateMutability": "view",
      "type": "function"
    },
    {
      "inputs": [
        {
          "internalType": "bytes32",
          "name": "role",
          "type": "bytes32"
        }
      ],
      "name": "getRoleAdmin",
      "outputs": [
        {
          "internalType": "bytes32",
          "name": "",
          "type": "bytes32"
        }
      ],
      "stateMutability": "view",
      "type": "function"
    },
    {
      "inputs": [
        {
          "internalType": "bytes32",
          "name": "role",
          "type": "bytes32"
        },
        {
          "internalType": "address",
          "name": "account",
          "type": "address"
        }
      ],
      "name": "grantRole",
      "outputs": [],
      "stateMutability": "nonpayable",
      "type": "function"
    },
    {
      "inputs": [
        {
          "internalType": "bytes32",
          "name": "role",
          "type": "bytes32"
        },
        {
          "internalType": "address",
          "name": "account",
          "type": "address"
        }
      ],
      "name": "hasRole",
      "outputs": [
        {
          "internalType": "bool",
          "name": "",
          "type": "bool"
        }
      ],
      "stateMutability": "view",
      "type": "function"
    },
    {
      "inputs": [
        {
          "internalType": "address",
          "name": "owner",
          "type": "address"
        },
        {
          "internalType": "address",
          "name": "operator",
          "type": "address"
        }
      ],
      "name": "isApprovedForAll",
      "outputs": [
        {
          "internalType": "bool",
          "name": "",
          "type": "bool"
        }
      ],
      "stateMutability": "view",
      "type": "function"
    },
    {
      "inputs": [],
      "name": "isSenderAdmin",
      "outputs": [
        {
          "internalType": "bool",
          "name": "",
          "type": "bool"
        }
      ],
      "stateMutability": "view",
      "type": "function"
    },
    {
      "inputs": [
        {
          "internalType": "uint256",
          "name": "_rotationDegrees",
          "type": "uint256"
        },
        {
          "internalType": "uint256",
          "name": "_stripeWidth",
          "type": "uint256"
        },
        {
          "internalType": "uint256",
          "name": "_palette",
          "type": "uint256"
        },
        {
          "internalType": "uint256",
          "name": "_speed",
          "type": "uint256"
        }
      ],
      "name": "mintStripes",
      "outputs": [],
      "stateMutability": "nonpayable",
      "type": "function"
    },
    {
      "inputs": [],
      "name": "name",
      "outputs": [
        {
          "internalType": "string",
          "name": "",
          "type": "string"
        }
      ],
      "stateMutability": "view",
      "type": "function"
    },
    {
      "inputs": [
        {
          "internalType": "uint256",
          "name": "tokenId",
          "type": "uint256"
        }
      ],
      "name": "ownerOf",
      "outputs": [
        {
          "internalType": "address",
          "name": "",
          "type": "address"
        }
      ],
      "stateMutability": "view",
      "type": "function"
    },
    {
      "inputs": [],
      "name": "pause",
      "outputs": [],
      "stateMutability": "nonpayable",
      "type": "function"
    },
    {
      "inputs": [],
      "name": "paused",
      "outputs": [
        {
          "internalType": "bool",
          "name": "",
          "type": "bool"
        }
      ],
      "stateMutability": "view",
      "type": "function"
    },
    {
      "inputs": [
        {
          "internalType": "bytes32",
          "name": "role",
          "type": "bytes32"
        },
        {
          "internalType": "address",
          "name": "account",
          "type": "address"
        }
      ],
      "name": "renounceRole",
      "outputs": [],
      "stateMutability": "nonpayable",
      "type": "function"
    },
    {
      "inputs": [
        {
          "internalType": "bytes32",
          "name": "role",
          "type": "bytes32"
        },
        {
          "internalType": "address",
          "name": "account",
          "type": "address"
        }
      ],
      "name": "revokeRole",
      "outputs": [],
      "stateMutability": "nonpayable",
      "type": "function"
    },
    {
      "inputs": [
        {
          "internalType": "address",
          "name": "to",
          "type": "address"
        }
      ],
      "name": "safeMint",
      "outputs": [],
      "stateMutability": "nonpayable",
      "type": "function"
    },
    {
      "inputs": [
        {
          "internalType": "address",
          "name": "from",
          "type": "address"
        },
        {
          "internalType": "address",
          "name": "to",
          "type": "address"
        },
        {
          "internalType": "uint256",
          "name": "tokenId",
          "type": "uint256"
        }
      ],
      "name": "safeTransferFrom",
      "outputs": [],
      "stateMutability": "nonpayable",
      "type": "function"
    },
    {
      "inputs": [
        {
          "internalType": "address",
          "name": "from",
          "type": "address"
        },
        {
          "internalType": "address",
          "name": "to",
          "type": "address"
        },
        {
          "internalType": "uint256",
          "name": "tokenId",
          "type": "uint256"
        },
        {
          "internalType": "bytes",
          "name": "_data",
          "type": "bytes"
        }
      ],
      "name": "safeTransferFrom",
      "outputs": [],
      "stateMutability": "nonpayable",
      "type": "function"
    },
    {
      "inputs": [
        {
          "internalType": "address",
          "name": "operator",
          "type": "address"
        },
        {
          "internalType": "bool",
          "name": "approved",
          "type": "bool"
        }
      ],
      "name": "setApprovalForAll",
      "outputs": [],
      "stateMutability": "nonpayable",
      "type": "function"
    },
    {
      "inputs": [
        {
          "internalType": "bytes4",
          "name": "interfaceId",
          "type": "bytes4"
        }
      ],
      "name": "supportsInterface",
      "outputs": [
        {
          "internalType": "bool",
          "name": "",
          "type": "bool"
        }
      ],
      "stateMutability": "view",
      "type": "function"
    },
    {
      "inputs": [],
      "name": "symbol",
      "outputs": [
        {
          "internalType": "string",
          "name": "",
          "type": "string"
        }
      ],
      "stateMutability": "view",
      "type": "function"
    },
    {
      "inputs": [
        {
          "internalType": "uint256",
          "name": "index",
          "type": "uint256"
        }
      ],
      "name": "tokenByIndex",
      "outputs": [
        {
          "internalType": "uint256",
          "name": "",
          "type": "uint256"
        }
      ],
      "stateMutability": "view",
      "type": "function"
    },
    {
      "inputs": [
        {
          "internalType": "address",
          "name": "owner",
          "type": "address"
        },
        {
          "internalType": "uint256",
          "name": "index",
          "type": "uint256"
        }
      ],
      "name": "tokenOfOwnerByIndex",
      "outputs": [
        {
          "internalType": "uint256",
          "name": "",
          "type": "uint256"
        }
      ],
      "stateMutability": "view",
      "type": "function"
    },
    {
      "inputs": [
        {
          "internalType": "uint256",
          "name": "tokenId",
          "type": "uint256"
        }
      ],
      "name": "tokenURI",
      "outputs": [
        {
          "internalType": "string",
          "name": "",
          "type": "string"
        }
      ],
      "stateMutability": "view",
      "type": "function"
    },
    {
      "inputs": [],
      "name": "totalSupply",
      "outputs": [
        {
          "internalType": "uint256",
          "name": "",
          "type": "uint256"
        }
      ],
      "stateMutability": "view",
      "type": "function"
    },
    {
      "inputs": [
        {
          "internalType": "address",
          "name": "from",
          "type": "address"
        },
        {
          "internalType": "address",
          "name": "to",
          "type": "address"
        },
        {
          "internalType": "uint256",
          "name": "tokenId",
          "type": "uint256"
        }
      ],
      "name": "transferFrom",
      "outputs": [],
      "stateMutability": "nonpayable",
      "type": "function"
    },
    {
      "inputs": [],
      "name": "unpause",
      "outputs": [],
      "stateMutability": "nonpayable",
      "type": "function"
    }
  ],
  "bytecode": "0x60806040523480156200001157600080fd5b506040518060400160405280600b81526020017f44796e61537472697065730000000000000000000000000000000000000000008152506040518060400160405280600381526020017f4453530000000000000000000000000000000000000000000000000000000000815250816000908051906020019062000096929190620002c7565b508060019080519060200190620000af929190620002c7565b5050506000600b60006101000a81548160ff021916908315150217905550620000e26000801b336200014c60201b60201c565b620001147f65d7a28e3265b37a6474929f336521b332c1681b933f6cb9f3376673440d862a336200014c60201b60201c565b620001467f9f2df0fed2c77648de5860a4cc508cd0818c85b8b8a1ab4ceeef8d981c8956a6336200014c60201b60201c565b620003dc565b6200015e82826200016260201b60201c565b5050565b6200017482826200025460201b60201c565b62000250576001600c600084815260200190815260200160002060000160008373ffffffffffffffffffffffffffffffffffffffff1673ffffffffffffffffffffffffffffffffffffffff16815260200190815260200160002060006101000a81548160ff021916908315150217905550620001f5620002bf60201b60201c565b73ffffffffffffffffffffffffffffffffffffffff168173ffffffffffffffffffffffffffffffffffffffff16837f2f8788117e7eff1d82e926ec794901d17c78024a50270940304540a733656f0d60405160405180910390a45b5050565b6000600c600084815260200190815260200160002060000160008373ffffffffffffffffffffffffffffffffffffffff1673ffffffffffffffffffffffffffffffffffffffff16815260200190815260200160002060009054906101000a900460ff16905092915050565b600033905090565b828054620002d59062000377565b90600052602060002090601f016020900481019282620002f9576000855562000345565b82601f106200031457805160ff191683800117855562000345565b8280016001018555821562000345579182015b828111156200034457825182559160200191906001019062000327565b5b50905062000354919062000358565b5090565b5b808211156200037357600081600090555060010162000359565b5090565b600060028204905060018216806200039057607f821691505b60208210811415620003a757620003a6620003ad565b5b50919050565b7f4e487b7100000000000000000000000000000000000000000000000000000000600052602260045260246000fd5b61592e80620003ec6000396000f3fe608060405234801561001057600080fd5b50600436106101f05760003560e01c80634f6ccce71161010f578063a22cb465116100a2578063d539139311610071578063d5391393146105b5578063d547741f146105d3578063e63ab1e9146105ef578063e985e9c51461060d576101f0565b8063a22cb4651461051d578063b88d4fde14610539578063bc921dc214610555578063c87b56dd14610585576101f0565b80638456cb59116100de5780638456cb59146104a757806391d14854146104b157806395d89b41146104e1578063a217fddf146104ff576101f0565b80634f6ccce7146103f95780635c975abb146104295780636352211e1461044757806370a0823114610477576101f0565b80632f2ff15d116101875780633f4ba83a116101565780633f4ba83a1461039b57806340d097c3146103a557806342842e0e146103c157806342966c68146103dd576101f0565b80632f2ff15d146103175780632f745c591461033357806336568abe146103635780633814605e1461037f576101f0565b806318160ddd116101c357806318160ddd1461028f5780631d0d4e8b146102ad57806323b872dd146102cb578063248a9ca3146102e7576101f0565b806301ffc9a7146101f557806306fdde0314610225578063081812fc14610243578063095ea7b314610273575b600080fd5b61020f600480360381019061020a91906139bf565b61063d565b60405161021c91906144c1565b60405180910390f35b61022d61064f565b60405161023a91906144f7565b60405180910390f35b61025d60048036038101906102589190613a11565b6106e1565b60405161026a919061445a565b60405180910390f35b61028d6004803603810190610288919061391e565b610766565b005b61029761087e565b6040516102a49190614899565b60405180910390f35b6102b561088b565b6040516102c291906144c1565b60405180910390f35b6102e560048036038101906102e09190613818565b61089f565b005b61030160048036038101906102fc919061395a565b6108ff565b60405161030e91906144dc565b60405180910390f35b610331600480360381019061032c9190613983565b61091f565b005b61034d6004803603810190610348919061391e565b610948565b60405161035a9190614899565b60405180910390f35b61037d60048036038101906103789190613983565b6109ed565b005b61039960048036038101906103949190613a3a565b610a70565b005b6103a3610c39565b005b6103bf60048036038101906103ba91906137b3565b610c76565b005b6103db60048036038101906103d69190613818565b610cc9565b005b6103f760048036038101906103f29190613a11565b610ce9565b005b610413600480360381019061040e9190613a11565b610d45565b6040516104209190614899565b60405180910390f35b610431610ddc565b60405161043e91906144c1565b60405180910390f35b610461600480360381019061045c9190613a11565b610df3565b60405161046e919061445a565b60405180910390f35b610491600480360381019061048c91906137b3565b610ea5565b60405161049e9190614899565b60405180910390f35b6104af610f5d565b005b6104cb60048036038101906104c69190613983565b610f9a565b6040516104d891906144c1565b60405180910390f35b6104e9611005565b6040516104f691906144f7565b60405180910390f35b610507611097565b60405161051491906144dc565b60405180910390f35b610537600480360381019061053291906138e2565b61109e565b005b610553600480360381019061054e9190613867565b61121f565b005b61056f600480360381019061056a9190613a11565b611281565b60405161057c91906144f7565b60405180910390f35b61059f600480360381019061059a9190613a11565b611498565b6040516105ac91906144f7565b60405180910390f35b6105bd6114aa565b6040516105ca91906144dc565b60405180910390f35b6105ed60048036038101906105e89190613983565b6114ce565b005b6105f76114f7565b60405161060491906144dc565b60405180910390f35b610627600480360381019061062291906137dc565b61151b565b60405161063491906144c1565b60405180910390f35b6000610648826115af565b9050919050565b60606000805461065e90614b90565b80601f016020809104026020016040519081016040528092919081815260200182805461068a90614b90565b80156106d75780601f106106ac576101008083540402835291602001916106d7565b820191906000526020600020905b8154815290600101906020018083116106ba57829003601f168201915b5050505050905090565b60006106ec82611629565b61072b576040517f08c379a000000000000000000000000000000000000000000000000000000000815260040161072290614799565b60405180910390fd5b6004600083815260200190815260200160002060009054906101000a900473ffffffffffffffffffffffffffffffffffffffff169050919050565b600061077182610df3565b90508073ffffffffffffffffffffffffffffffffffffffff168373ffffffffffffffffffffffffffffffffffffffff1614156107e2576040517f08c379a00000000000000000000000000000000000000000000000000000000081526004016107d9906147f9565b60405180910390fd5b8073ffffffffffffffffffffffffffffffffffffffff16610801611695565b73ffffffffffffffffffffffffffffffffffffffff161480610830575061082f8161082a611695565b61151b565b5b61086f576040517f08c379a000000000000000000000000000000000000000000000000000000000815260040161086690614699565b60405180910390fd5b610879838361169d565b505050565b6000600880549050905090565b600061089a6000801b33610f9a565b905090565b6108b06108aa611695565b82611756565b6108ef576040517f08c379a00000000000000000000000000000000000000000000000000000000081526004016108e690614819565b60405180910390fd5b6108fa838383611834565b505050565b6000600c6000838152602001908152602001600020600101549050919050565b610928826108ff565b61093981610934611695565b611a90565b6109438383611b2d565b505050565b600061095383610ea5565b8210610994576040517f08c379a000000000000000000000000000000000000000000000000000000000815260040161098b90614579565b60405180910390fd5b600660008473ffffffffffffffffffffffffffffffffffffffff1673ffffffffffffffffffffffffffffffffffffffff168152602001908152602001600020600083815260200190815260200160002054905092915050565b6109f5611695565b73ffffffffffffffffffffffffffffffffffffffff168173ffffffffffffffffffffffffffffffffffffffff1614610a62576040517f08c379a0000000000000000000000000000000000000000000000000000000008152600401610a5990614879565b60405180910390fd5b610a6c8282611c0e565b5050565b600084101580610a8257506101688411155b610ac1576040517f08c379a0000000000000000000000000000000000000000000000000000000008152600401610ab8906146b9565b60405180910390fd5b600083101580610ad2575060648311155b610b11576040517f08c379a0000000000000000000000000000000000000000000000000000000008152600401610b0890614719565b60405180910390fd5b600082101580610b22575060648211155b610b61576040517f08c379a0000000000000000000000000000000000000000000000000000000008152600401610b5890614559565b60405180910390fd5b600081101580610b72575060648111155b610bb1576040517f08c379a0000000000000000000000000000000000000000000000000000000008152600401610ba8906145d9565b60405180910390fd5b6000610bbd600d611cf0565b9050610bc93382611cfe565b604051806080016040528086815260200185815260200184815260200183815250600e600083815260200190815260200160002060008201518160000155602082015181600101556040820151816002015560608201518160030155905050610c32600d611d1c565b5050505050565b7f65d7a28e3265b37a6474929f336521b332c1681b933f6cb9f3376673440d862a610c6b81610c66611695565b611a90565b610c73611d32565b50565b7f9f2df0fed2c77648de5860a4cc508cd0818c85b8b8a1ab4ceeef8d981c8956a6610ca881610ca3611695565b611a90565b610cbb82610cb6600d611cf0565b611cfe565b610cc5600d611d1c565b5050565b610ce48383836040518060200160405280600081525061121f565b505050565b610cfa610cf4611695565b82611756565b610d39576040517f08c379a0000000000000000000000000000000000000000000000000000000008152600401610d3090614859565b60405180910390fd5b610d4281611dd4565b50565b6000610d4f61087e565b8210610d90576040517f08c379a0000000000000000000000000000000000000000000000000000000008152600401610d8790614839565b60405180910390fd5b60088281548110610dca577f4e487b7100000000000000000000000000000000000000000000000000000000600052603260045260246000fd5b90600052602060002001549050919050565b6000600b60009054906101000a900460ff16905090565b6000806002600084815260200190815260200160002060009054906101000a900473ffffffffffffffffffffffffffffffffffffffff169050600073ffffffffffffffffffffffffffffffffffffffff168173ffffffffffffffffffffffffffffffffffffffff161415610e9c576040517f08c379a0000000000000000000000000000000000000000000000000000000008152600401610e93906146f9565b60405180910390fd5b80915050919050565b60008073ffffffffffffffffffffffffffffffffffffffff168273ffffffffffffffffffffffffffffffffffffffff161415610f16576040517f08c379a0000000000000000000000000000000000000000000000000000000008152600401610f0d906146d9565b60405180910390fd5b600360008373ffffffffffffffffffffffffffffffffffffffff1673ffffffffffffffffffffffffffffffffffffffff168152602001908152602001600020549050919050565b7f65d7a28e3265b37a6474929f336521b332c1681b933f6cb9f3376673440d862a610f8f81610f8a611695565b611a90565b610f97611de0565b50565b6000600c600084815260200190815260200160002060000160008373ffffffffffffffffffffffffffffffffffffffff1673ffffffffffffffffffffffffffffffffffffffff16815260200190815260200160002060009054906101000a900460ff16905092915050565b60606001805461101490614b90565b80601f016020809104026020016040519081016040528092919081815260200182805461104090614b90565b801561108d5780601f106110625761010080835404028352916020019161108d565b820191906000526020600020905b81548152906001019060200180831161107057829003601f168201915b5050505050905090565b6000801b81565b6110a6611695565b73ffffffffffffffffffffffffffffffffffffffff168273ffffffffffffffffffffffffffffffffffffffff161415611114576040517f08c379a000000000000000000000000000000000000000000000000000000000815260040161110b90614619565b60405180910390fd5b8060056000611121611695565b73ffffffffffffffffffffffffffffffffffffffff1673ffffffffffffffffffffffffffffffffffffffff16815260200190815260200160002060008473ffffffffffffffffffffffffffffffffffffffff1673ffffffffffffffffffffffffffffffffffffffff16815260200190815260200160002060006101000a81548160ff0219169083151502179055508173ffffffffffffffffffffffffffffffffffffffff166111ce611695565b73ffffffffffffffffffffffffffffffffffffffff167f17307eab39ab6107e8899845ad3d59bd9653f200f220920489ca2b5937696c318360405161121391906144c1565b60405180910390a35050565b61123061122a611695565b83611756565b61126f576040517f08c379a000000000000000000000000000000000000000000000000000000000815260040161126690614819565b60405180910390fd5b61127b84848484611e83565b50505050565b606061128d600d611cf0565b82106112ce576040517f08c379a00000000000000000000000000000000000000000000000000000000081526004016112c590614639565b60405180910390fd5b6000600e6000848152602001908152602001600020604051806080016040529081600082015481526020016001820154815260200160028201548152602001600382015481525050905060008360001b60405160200161132e91906141d1565b6040516020818303038152906040529050600061134c826000611edf565b90506000806107d0905060006113658660000151611f46565b60405160200161137591906143d8565b60405160208183030381529060405290505b6000821115611468576000838561139e919061494d565b905060006113b0886020015183611fc4565b9050808410156113be578390505b60006113c986612023565b6113d283612023565b6113df8b60000151612023565b6113ed8c60600151876121f8565b6113fb8d6040015188612263565b60405160200161140f9594939291906142e3565b604051602081830303815290604052905083816040516020016114339291906141ec565b60405160208183030381529060405293508186611450919061494d565b9550818561145e9190614a65565b9450505050611387565b8060405160200161147991906142c1565b6040516020818303038152906040529050809650505050505050919050565b60606114a3826122e3565b9050919050565b7f9f2df0fed2c77648de5860a4cc508cd0818c85b8b8a1ab4ceeef8d981c8956a681565b6114d7826108ff565b6114e8816114e3611695565b611a90565b6114f28383611c0e565b505050565b7f65d7a28e3265b37a6474929f336521b332c1681b933f6cb9f3376673440d862a81565b6000600560008473ffffffffffffffffffffffffffffffffffffffff1673ffffffffffffffffffffffffffffffffffffffff16815260200190815260200160002060008373ffffffffffffffffffffffffffffffffffffffff1673ffffffffffffffffffffffffffffffffffffffff16815260200190815260200160002060009054906101000a900460ff16905092915050565b60007f7965db0b000000000000000000000000000000000000000000000000000000007bffffffffffffffffffffffffffffffffffffffffffffffffffffffff1916827bffffffffffffffffffffffffffffffffffffffffffffffffffffffff19161480611622575061162182612435565b5b9050919050565b60008073ffffffffffffffffffffffffffffffffffffffff166002600084815260200190815260200160002060009054906101000a900473ffffffffffffffffffffffffffffffffffffffff1673ffffffffffffffffffffffffffffffffffffffff1614159050919050565b600033905090565b816004600083815260200190815260200160002060006101000a81548173ffffffffffffffffffffffffffffffffffffffff021916908373ffffffffffffffffffffffffffffffffffffffff160217905550808273ffffffffffffffffffffffffffffffffffffffff1661171083610df3565b73ffffffffffffffffffffffffffffffffffffffff167f8c5be1e5ebec7d5bd14f71427d1e84f3dd0314c0f7b2291e5b200ac8c7c3b92560405160405180910390a45050565b600061176182611629565b6117a0576040517f08c379a000000000000000000000000000000000000000000000000000000000815260040161179790614659565b60405180910390fd5b60006117ab83610df3565b90508073ffffffffffffffffffffffffffffffffffffffff168473ffffffffffffffffffffffffffffffffffffffff16148061181a57508373ffffffffffffffffffffffffffffffffffffffff16611802846106e1565b73ffffffffffffffffffffffffffffffffffffffff16145b8061182b575061182a818561151b565b5b91505092915050565b8273ffffffffffffffffffffffffffffffffffffffff1661185482610df3565b73ffffffffffffffffffffffffffffffffffffffff16146118aa576040517f08c379a00000000000000000000000000000000000000000000000000000000081526004016118a1906147b9565b60405180910390fd5b600073ffffffffffffffffffffffffffffffffffffffff168273ffffffffffffffffffffffffffffffffffffffff16141561191a576040517f08c379a0000000000000000000000000000000000000000000000000000000008152600401611911906145f9565b60405180910390fd5b6119258383836124af565b61193060008261169d565b6001600360008573ffffffffffffffffffffffffffffffffffffffff1673ffffffffffffffffffffffffffffffffffffffff16815260200190815260200160002060008282546119809190614a65565b925050819055506001600360008473ffffffffffffffffffffffffffffffffffffffff1673ffffffffffffffffffffffffffffffffffffffff16815260200190815260200160002060008282546119d7919061494d565b92505081905550816002600083815260200190815260200160002060006101000a81548173ffffffffffffffffffffffffffffffffffffffff021916908373ffffffffffffffffffffffffffffffffffffffff160217905550808273ffffffffffffffffffffffffffffffffffffffff168473ffffffffffffffffffffffffffffffffffffffff167fddf252ad1be2c89b69c2b068fc378daa952ba7f163c4a11628f55a4df523b3ef60405160405180910390a4505050565b611a9a8282610f9a565b611b2957611abf8173ffffffffffffffffffffffffffffffffffffffff166014612507565b611acd8360001c6020612507565b604051602001611ade929190614405565b6040516020818303038152906040526040517f08c379a0000000000000000000000000000000000000000000000000000000008152600401611b2091906144f7565b60405180910390fd5b5050565b611b378282610f9a565b611c0a576001600c600084815260200190815260200160002060000160008373ffffffffffffffffffffffffffffffffffffffff1673ffffffffffffffffffffffffffffffffffffffff16815260200190815260200160002060006101000a81548160ff021916908315150217905550611baf611695565b73ffffffffffffffffffffffffffffffffffffffff168173ffffffffffffffffffffffffffffffffffffffff16837f2f8788117e7eff1d82e926ec794901d17c78024a50270940304540a733656f0d60405160405180910390a45b5050565b611c188282610f9a565b15611cec576000600c600084815260200190815260200160002060000160008373ffffffffffffffffffffffffffffffffffffffff1673ffffffffffffffffffffffffffffffffffffffff16815260200190815260200160002060006101000a81548160ff021916908315150217905550611c91611695565b73ffffffffffffffffffffffffffffffffffffffff168173ffffffffffffffffffffffffffffffffffffffff16837ff6391f5c32d9c69d2a47ea670b442974b53935d1edc7fd64eb21e047a839171b60405160405180910390a45b5050565b600081600001549050919050565b611d18828260405180602001604052806000815250612801565b5050565b6001816000016000828254019250508190555050565b611d3a610ddc565b611d79576040517f08c379a0000000000000000000000000000000000000000000000000000000008152600401611d7090614539565b60405180910390fd5b6000600b60006101000a81548160ff0219169083151502179055507f5db9ee0a495bf2e6ff9c91a7834c1ba4fdd244a5e8aa4e537bd38aeae4b073aa611dbd611695565b604051611dca919061445a565b60405180910390a1565b611ddd8161285c565b50565b611de8610ddc565b15611e28576040517f08c379a0000000000000000000000000000000000000000000000000000000008152600401611e1f90614679565b60405180910390fd5b6001600b60006101000a81548160ff0219169083151502179055507f62e78cea01bee320cd4e420270b5ea74000d11b0c9f74754ebdbfc544b05a258611e6c611695565b604051611e79919061445a565b60405180910390a1565b611e8e848484611834565b611e9a848484846128af565b611ed9576040517f08c379a0000000000000000000000000000000000000000000000000000000008152600401611ed090614599565b60405180910390fd5b50505050565b6000602082611eee919061494d565b83511015611f31576040517f08c379a0000000000000000000000000000000000000000000000000000000008152600401611f2890614739565b60405180910390fd5b60008260208501015190508091505092915050565b60606000806000605a85611f5a9190614c50565b1415611f6e57600091506107d09050611f79565b61019e915061049390505b6000611f8483612023565b90506000611f9183612023565b905081828283604051602001611faa9493929190614210565b604051602081830303815290604052945050505050919050565b60008060328085611fd5919061494d565b611fdf91906149da565b905061200483826019611ff29190614a0b565b8360c8611fff9190614a0b565b612a46565b81856120109190614a0b565b61201a919061494d565b91505092915050565b6060600082141561206b576040518060400160405280600181526020017f300000000000000000000000000000000000000000000000000000000000000081525090506121f3565b600082905060005b6000821461209d57808061208690614bf3565b915050600a8261209691906149da565b9150612073565b60008167ffffffffffffffff8111156120df577f4e487b7100000000000000000000000000000000000000000000000000000000600052604160045260246000fd5b6040519080825280601f01601f1916602001820160405280156121115781602001600182028036833780820191505090505b50905060008290505b600086146121eb5760018161212f9190614a65565b90506000600a808861214191906149da565b61214b9190614a0b565b876121569190614a65565b603061216291906149a3565b905060008160f81b9050808484815181106121a6577f4e487b7100000000000000000000000000000000000000000000000000000000600052603260045260246000fd5b60200101907effffffffffffffffffffffffffffffffffffffffffffffffffffffffffffff1916908160001a905350600a886121e291906149da565b9750505061211a565b819450505050505b919050565b606060008360646122099190614a65565b905061225a600a808361221c919061494d565b61222691906149da565b6122348560c86107d0612a46565b61223e9190614a0b565b60148361224b9190614a0b565b612255919061494d565b612023565b91505092915050565b6060600060028460036122769190614a0b565b61228091906149da565b9050600060ff90506000612295858484612aa7565b905060006122b16103e7876122aa919061494d565b8585612aa7565b90508181836040516020016122c89392919061426f565b60405160208183030381529060405294505050505092915050565b60606122ee82611629565b61232d576040517f08c379a000000000000000000000000000000000000000000000000000000000815260040161232490614779565b60405180910390fd5b6000600a6000848152602001908152602001600020805461234d90614b90565b80601f016020809104026020016040519081016040528092919081815260200182805461237990614b90565b80156123c65780601f1061239b576101008083540402835291602001916123c6565b820191906000526020600020905b8154815290600101906020018083116123a957829003601f168201915b5050505050905060006123d7612b36565b90506000815114156123ed578192505050612430565b60008251111561242257808260405160200161240a9291906141ec565b60405160208183030381529060405292505050612430565b61242b84612b4d565b925050505b919050565b60007f780e9d63000000000000000000000000000000000000000000000000000000007bffffffffffffffffffffffffffffffffffffffffffffffffffffffff1916827bffffffffffffffffffffffffffffffffffffffffffffffffffffffff191614806124a857506124a782612bf4565b5b9050919050565b6124b7610ddc565b156124f7576040517f08c379a00000000000000000000000000000000000000000000000000000000081526004016124ee90614679565b60405180910390fd5b612502838383612cd6565b505050565b60606000600283600261251a9190614a0b565b612524919061494d565b67ffffffffffffffff811115612563577f4e487b7100000000000000000000000000000000000000000000000000000000600052604160045260246000fd5b6040519080825280601f01601f1916602001820160405280156125955781602001600182028036833780820191505090505b5090507f3000000000000000000000000000000000000000000000000000000000000000816000815181106125f3577f4e487b7100000000000000000000000000000000000000000000000000000000600052603260045260246000fd5b60200101907effffffffffffffffffffffffffffffffffffffffffffffffffffffffffffff1916908160001a9053507f78000000000000000000000000000000000000000000000000000000000000008160018151811061267d577f4e487b7100000000000000000000000000000000000000000000000000000000600052603260045260246000fd5b60200101907effffffffffffffffffffffffffffffffffffffffffffffffffffffffffffff1916908160001a905350600060018460026126bd9190614a0b565b6126c7919061494d565b90505b60018111156127b3577f3031323334353637383961626364656600000000000000000000000000000000600f86166010811061272f577f4e487b7100000000000000000000000000000000000000000000000000000000600052603260045260246000fd5b1a60f81b82828151811061276c577f4e487b7100000000000000000000000000000000000000000000000000000000600052603260045260246000fd5b60200101907effffffffffffffffffffffffffffffffffffffffffffffffffffffffffffff1916908160001a905350600485901c9450806127ac90614b66565b90506126ca565b50600084146127f7576040517f08c379a00000000000000000000000000000000000000000000000000000000081526004016127ee90614519565b60405180910390fd5b8091505092915050565b61280b8383612dea565b61281860008484846128af565b612857576040517f08c379a000000000000000000000000000000000000000000000000000000000815260040161284e90614599565b60405180910390fd5b505050565b61286581612fb8565b6000600a6000838152602001908152602001600020805461288590614b90565b9050146128ac57600a600082815260200190815260200160002060006128ab9190613670565b5b50565b60006128d08473ffffffffffffffffffffffffffffffffffffffff166130c9565b15612a39578373ffffffffffffffffffffffffffffffffffffffff1663150b7a026128f9611695565b8786866040518563ffffffff1660e01b815260040161291b9493929190614475565b602060405180830381600087803b15801561293557600080fd5b505af192505050801561296657506040513d601f19601f8201168201806040525081019061296391906139e8565b60015b6129e9573d8060008114612996576040519150601f19603f3d011682016040523d82523d6000602084013e61299b565b606091505b506000815114156129e1576040517f08c379a00000000000000000000000000000000000000000000000000000000081526004016129d890614599565b60405180910390fd5b805181602001fd5b63150b7a0260e01b7bffffffffffffffffffffffffffffffffffffffffffffffffffffffff1916817bffffffffffffffffffffffffffffffffffffffffffffffffffffffff191614915050612a3e565b600190505b949350505050565b6000808383612a559190614a65565b905060008186604051602001612a6b919061443f565b6040516020818303038152906040528051906020012060001c612a8e9190614c50565b90508085612a9c919061494d565b925050509392505050565b60606000612ab6858585612a46565b90506000612ad1600187612aca919061494d565b8686612a46565b90506000612aec600288612ae5919061494d565b8787612a46565b9050612af783612023565b612b0083612023565b612b0983612023565b604051602001612b1b9392919061437b565b60405160208183030381529060405293505050509392505050565b606060405180602001604052806000815250905090565b6060612b5882611629565b612b97576040517f08c379a0000000000000000000000000000000000000000000000000000000008152600401612b8e906147d9565b60405180910390fd5b6000612ba1612b36565b90506000815111612bc15760405180602001604052806000815250612bec565b80612bcb846130dc565b604051602001612bdc9291906141ec565b6040516020818303038152906040525b915050919050565b60007f80ac58cd000000000000000000000000000000000000000000000000000000007bffffffffffffffffffffffffffffffffffffffffffffffffffffffff1916827bffffffffffffffffffffffffffffffffffffffffffffffffffffffff19161480612cbf57507f5b5e139f000000000000000000000000000000000000000000000000000000007bffffffffffffffffffffffffffffffffffffffffffffffffffffffff1916827bffffffffffffffffffffffffffffffffffffffffffffffffffffffff1916145b80612ccf5750612cce82613289565b5b9050919050565b612ce18383836132f3565b600073ffffffffffffffffffffffffffffffffffffffff168373ffffffffffffffffffffffffffffffffffffffff161415612d2457612d1f816132f8565b612d63565b8173ffffffffffffffffffffffffffffffffffffffff168373ffffffffffffffffffffffffffffffffffffffff1614612d6257612d618382613341565b5b5b600073ffffffffffffffffffffffffffffffffffffffff168273ffffffffffffffffffffffffffffffffffffffff161415612da657612da1816134ae565b612de5565b8273ffffffffffffffffffffffffffffffffffffffff168273ffffffffffffffffffffffffffffffffffffffff1614612de457612de382826135f1565b5b5b505050565b600073ffffffffffffffffffffffffffffffffffffffff168273ffffffffffffffffffffffffffffffffffffffff161415612e5a576040517f08c379a0000000000000000000000000000000000000000000000000000000008152600401612e5190614759565b60405180910390fd5b612e6381611629565b15612ea3576040517f08c379a0000000000000000000000000000000000000000000000000000000008152600401612e9a906145b9565b60405180910390fd5b612eaf600083836124af565b6001600360008473ffffffffffffffffffffffffffffffffffffffff1673ffffffffffffffffffffffffffffffffffffffff1681526020019081526020016000206000828254612eff919061494d565b92505081905550816002600083815260200190815260200160002060006101000a81548173ffffffffffffffffffffffffffffffffffffffff021916908373ffffffffffffffffffffffffffffffffffffffff160217905550808273ffffffffffffffffffffffffffffffffffffffff16600073ffffffffffffffffffffffffffffffffffffffff167fddf252ad1be2c89b69c2b068fc378daa952ba7f163c4a11628f55a4df523b3ef60405160405180910390a45050565b6000612fc382610df3565b9050612fd1816000846124af565b612fdc60008361169d565b6001600360008373ffffffffffffffffffffffffffffffffffffffff1673ffffffffffffffffffffffffffffffffffffffff168152602001908152602001600020600082825461302c9190614a65565b925050819055506002600083815260200190815260200160002060006101000a81549073ffffffffffffffffffffffffffffffffffffffff021916905581600073ffffffffffffffffffffffffffffffffffffffff168273ffffffffffffffffffffffffffffffffffffffff167fddf252ad1be2c89b69c2b068fc378daa952ba7f163c4a11628f55a4df523b3ef60405160405180910390a45050565b600080823b905060008111915050919050565b60606000821415613124576040518060400160405280600181526020017f30000000000000000000000000000000000000000000000000000000000000008152509050613284565b600082905060005b6000821461315657808061313f90614bf3565b915050600a8261314f91906149da565b915061312c565b60008167ffffffffffffffff811115613198577f4e487b7100000000000000000000000000000000000000000000000000000000600052604160045260246000fd5b6040519080825280601f01601f1916602001820160405280156131ca5781602001600182028036833780820191505090505b5090505b6000851461327d576001826131e39190614a65565b9150600a856131f29190614c50565b60306131fe919061494d565b60f81b81838151811061323a577f4e487b7100000000000000000000000000000000000000000000000000000000600052603260045260246000fd5b60200101907effffffffffffffffffffffffffffffffffffffffffffffffffffffffffffff1916908160001a905350600a8561327691906149da565b94506131ce565b8093505050505b919050565b60007f01ffc9a7000000000000000000000000000000000000000000000000000000007bffffffffffffffffffffffffffffffffffffffffffffffffffffffff1916827bffffffffffffffffffffffffffffffffffffffffffffffffffffffff1916149050919050565b505050565b6008805490506009600083815260200190815260200160002081905550600881908060018154018082558091505060019003906000526020600020016000909190919091505550565b6000600161334e84610ea5565b6133589190614a65565b905060006007600084815260200190815260200160002054905081811461343d576000600660008673ffffffffffffffffffffffffffffffffffffffff1673ffffffffffffffffffffffffffffffffffffffff168152602001908152602001600020600084815260200190815260200160002054905080600660008773ffffffffffffffffffffffffffffffffffffffff1673ffffffffffffffffffffffffffffffffffffffff168152602001908152602001600020600084815260200190815260200160002081905550816007600083815260200190815260200160002081905550505b6007600084815260200190815260200160002060009055600660008573ffffffffffffffffffffffffffffffffffffffff1673ffffffffffffffffffffffffffffffffffffffff16815260200190815260200160002060008381526020019081526020016000206000905550505050565b600060016008805490506134c29190614a65565b9050600060096000848152602001908152602001600020549050600060088381548110613518577f4e487b7100000000000000000000000000000000000000000000000000000000600052603260045260246000fd5b906000526020600020015490508060088381548110613560577f4e487b7100000000000000000000000000000000000000000000000000000000600052603260045260246000fd5b9060005260206000200181905550816009600083815260200190815260200160002081905550600960008581526020019081526020016000206000905560088054806135d5577f4e487b7100000000000000000000000000000000000000000000000000000000600052603160045260246000fd5b6001900381819060005260206000200160009055905550505050565b60006135fc83610ea5565b905081600660008573ffffffffffffffffffffffffffffffffffffffff1673ffffffffffffffffffffffffffffffffffffffff168152602001908152602001600020600083815260200190815260200160002081905550806007600084815260200190815260200160002081905550505050565b50805461367c90614b90565b6000825580601f1061368e57506136ad565b601f0160209004906000526020600020908101906136ac91906136b0565b5b50565b5b808211156136c95760008160009055506001016136b1565b5090565b60006136e06136db846148d9565b6148b4565b9050828152602081018484840111156136f857600080fd5b613703848285614b24565b509392505050565b60008135905061371a81615885565b92915050565b60008135905061372f8161589c565b92915050565b600081359050613744816158b3565b92915050565b600081359050613759816158ca565b92915050565b60008151905061376e816158ca565b92915050565b600082601f83011261378557600080fd5b81356137958482602086016136cd565b91505092915050565b6000813590506137ad816158e1565b92915050565b6000602082840312156137c557600080fd5b60006137d38482850161370b565b91505092915050565b600080604083850312156137ef57600080fd5b60006137fd8582860161370b565b925050602061380e8582860161370b565b9150509250929050565b60008060006060848603121561382d57600080fd5b600061383b8682870161370b565b935050602061384c8682870161370b565b925050604061385d8682870161379e565b9150509250925092565b6000806000806080858703121561387d57600080fd5b600061388b8782880161370b565b945050602061389c8782880161370b565b93505060406138ad8782880161379e565b925050606085013567ffffffffffffffff8111156138ca57600080fd5b6138d687828801613774565b91505092959194509250565b600080604083850312156138f557600080fd5b60006139038582860161370b565b925050602061391485828601613720565b9150509250929050565b6000806040838503121561393157600080fd5b600061393f8582860161370b565b92505060206139508582860161379e565b9150509250929050565b60006020828403121561396c57600080fd5b600061397a84828501613735565b91505092915050565b6000806040838503121561399657600080fd5b60006139a485828601613735565b92505060206139b58582860161370b565b9150509250929050565b6000602082840312156139d157600080fd5b60006139df8482850161374a565b91505092915050565b6000602082840312156139fa57600080fd5b6000613a088482850161375f565b91505092915050565b600060208284031215613a2357600080fd5b6000613a318482850161379e565b91505092915050565b60008060008060808587031215613a5057600080fd5b6000613a5e8782880161379e565b9450506020613a6f8782880161379e565b9350506040613a808782880161379e565b9250506060613a918782880161379e565b91505092959194509250565b613aa681614a99565b82525050565b613ab581614aab565b82525050565b613ac481614ab7565b82525050565b613adb613ad682614ab7565b614c3c565b82525050565b6000613aec8261490a565b613af68185614920565b9350613b06818560208601614b33565b613b0f81614d3d565b840191505092915050565b6000613b2582614915565b613b2f8185614931565b9350613b3f818560208601614b33565b613b4881614d3d565b840191505092915050565b6000613b5e82614915565b613b688185614942565b9350613b78818560208601614b33565b80840191505092915050565b6000613b91602083614931565b9150613b9c82614d4e565b602082019050919050565b6000613bb4600983614942565b9150613bbf82614d77565b600982019050919050565b6000613bd7602c83614942565b9150613be282614da0565b602c82019050919050565b6000613bfa601483614931565b9150613c0582614def565b602082019050919050565b6000613c1d602883614931565b9150613c2882614e18565b604082019050919050565b6000613c40602b83614931565b9150613c4b82614e67565b604082019050919050565b6000613c63603283614931565b9150613c6e82614eb6565b604082019050919050565b6000613c86602783614942565b9150613c9182614f05565b602782019050919050565b6000613ca9601c83614931565b9150613cb482614f54565b602082019050919050565b6000613ccc602683614931565b9150613cd782614f7d565b604082019050919050565b6000613cef602183614942565b9150613cfa82614fcc565b602182019050919050565b6000613d12600483614942565b9150613d1d8261501b565b600482019050919050565b6000613d35602483614931565b9150613d4082615044565b604082019050919050565b6000613d58601983614931565b9150613d6382615093565b602082019050919050565b6000613d7b604183614931565b9150613d86826150bc565b606082019050919050565b6000613d9e602c83614931565b9150613da982615131565b604082019050919050565b6000613dc1600183614942565b9150613dcc82615180565b600182019050919050565b6000613de4603183614942565b9150613def826151a9565b603182019050919050565b6000613e07600183614942565b9150613e12826151f8565b600182019050919050565b6000613e2a601083614931565b9150613e3582615221565b602082019050919050565b6000613e4d600183614942565b9150613e588261524a565b600182019050919050565b6000613e70603883614931565b9150613e7b82615273565b604082019050919050565b6000613e93602b83614931565b9150613e9e826152c2565b604082019050919050565b6000613eb6602a83614931565b9150613ec182615311565b604082019050919050565b6000613ed9602983614931565b9150613ee482615360565b604082019050919050565b6000613efc602783614931565b9150613f07826153af565b604082019050919050565b6000613f1f601583614931565b9150613f2a826153fe565b602082019050919050565b6000613f42602083614931565b9150613f4d82615427565b602082019050919050565b6000613f65603283614942565b9150613f7082615450565b603282019050919050565b6000613f88603183614931565b9150613f938261549f565b604082019050919050565b6000613fab602c83614931565b9150613fb6826154ee565b604082019050919050565b6000613fce601383614942565b9150613fd98261553d565b601382019050919050565b6000613ff1602983614931565b9150613ffc82615566565b604082019050919050565b6000614014602f83614931565b915061401f826155b5565b604082019050919050565b6000614037602183614931565b915061404282615604565b604082019050919050565b600061405a600283614942565b915061406582615653565b600282019050919050565b600061407d603183614931565b91506140888261567c565b604082019050919050565b60006140a0602c83614931565b91506140ab826156cb565b604082019050919050565b60006140c3600f83614942565b91506140ce8261571a565b600f82019050919050565b60006140e6601783614942565b91506140f182615743565b601782019050919050565b6000614109600283614942565b91506141148261576c565b600282019050919050565b600061412c600683614942565b915061413782615795565b600682019050919050565b600061414f603083614931565b915061415a826157be565b604082019050919050565b6000614172601183614942565b915061417d8261580d565b601182019050919050565b6000614195602f83614931565b91506141a082615836565b604082019050919050565b6141b481614b0d565b82525050565b6141cb6141c682614b0d565b614c46565b82525050565b60006141dd8284613aca565b60208201915081905092915050565b60006141f88285613b53565b91506142048284613b53565b91508190509392505050565b600061421c8287613b53565b915061422782613dfa565b91506142338286613b53565b915061423e82613dfa565b915061424a8285613b53565b915061425582613dfa565b91506142618284613b53565b915081905095945050505050565b600061427b8286613b53565b915061428682613e40565b91506142928285613b53565b915061429d82613e40565b91506142a98284613b53565b91506142b482613e40565b9150819050949350505050565b60006142cd8284613b53565b91506142d88261411f565b915081905092915050565b60006142ee82613ba7565b91506142fa8288613b53565b9150614305826140b6565b91506143118287613b53565b915061431c82613bca565b915061432782613fc1565b91506143338286613b53565b915061433e82613c79565b915061434a8285613b53565b915061435582613ce2565b91506143618284613b53565b915061436c82613f58565b91508190509695505050505050565b600061438682613d05565b91506143928286613b53565b915061439d8261404d565b91506143a98285613b53565b91506143b48261404d565b91506143c08284613b53565b91506143cb82613db4565b9150819050949350505050565b60006143e382613dd7565b91506143ef8284613b53565b91506143fa826140fc565b915081905092915050565b6000614410826140d9565b915061441c8285613b53565b915061442782614165565b91506144338284613b53565b91508190509392505050565b600061444b82846141ba565b60208201915081905092915050565b600060208201905061446f6000830184613a9d565b92915050565b600060808201905061448a6000830187613a9d565b6144976020830186613a9d565b6144a460408301856141ab565b81810360608301526144b68184613ae1565b905095945050505050565b60006020820190506144d66000830184613aac565b92915050565b60006020820190506144f16000830184613abb565b92915050565b600060208201905081810360008301526145118184613b1a565b905092915050565b6000602082019050818103600083015261453281613b84565b9050919050565b6000602082019050818103600083015261455281613bed565b9050919050565b6000602082019050818103600083015261457281613c10565b9050919050565b6000602082019050818103600083015261459281613c33565b9050919050565b600060208201905081810360008301526145b281613c56565b9050919050565b600060208201905081810360008301526145d281613c9c565b9050919050565b600060208201905081810360008301526145f281613cbf565b9050919050565b6000602082019050818103600083015261461281613d28565b9050919050565b6000602082019050818103600083015261463281613d4b565b9050919050565b6000602082019050818103600083015261465281613d6e565b9050919050565b6000602082019050818103600083015261467281613d91565b9050919050565b6000602082019050818103600083015261469281613e1d565b9050919050565b600060208201905081810360008301526146b281613e63565b9050919050565b600060208201905081810360008301526146d281613e86565b9050919050565b600060208201905081810360008301526146f281613ea9565b9050919050565b6000602082019050818103600083015261471281613ecc565b9050919050565b6000602082019050818103600083015261473281613eef565b9050919050565b6000602082019050818103600083015261475281613f12565b9050919050565b6000602082019050818103600083015261477281613f35565b9050919050565b6000602082019050818103600083015261479281613f7b565b9050919050565b600060208201905081810360008301526147b281613f9e565b9050919050565b600060208201905081810360008301526147d281613fe4565b9050919050565b600060208201905081810360008301526147f281614007565b9050919050565b600060208201905081810360008301526148128161402a565b9050919050565b6000602082019050818103600083015261483281614070565b9050919050565b6000602082019050818103600083015261485281614093565b9050919050565b6000602082019050818103600083015261487281614142565b9050919050565b6000602082019050818103600083015261489281614188565b9050919050565b60006020820190506148ae60008301846141ab565b92915050565b60006148be6148cf565b90506148ca8282614bc2565b919050565b6000604051905090565b600067ffffffffffffffff8211156148f4576148f3614d0e565b5b6148fd82614d3d565b9050602081019050919050565b600081519050919050565b600081519050919050565b600082825260208201905092915050565b600082825260208201905092915050565b600081905092915050565b600061495882614b0d565b915061496383614b0d565b9250827fffffffffffffffffffffffffffffffffffffffffffffffffffffffffffffffff0382111561499857614997614c81565b5b828201905092915050565b60006149ae82614b17565b91506149b983614b17565b92508260ff038211156149cf576149ce614c81565b5b828201905092915050565b60006149e582614b0d565b91506149f083614b0d565b925082614a00576149ff614cb0565b5b828204905092915050565b6000614a1682614b0d565b9150614a2183614b0d565b9250817fffffffffffffffffffffffffffffffffffffffffffffffffffffffffffffffff0483118215151615614a5a57614a59614c81565b5b828202905092915050565b6000614a7082614b0d565b9150614a7b83614b0d565b925082821015614a8e57614a8d614c81565b5b828203905092915050565b6000614aa482614aed565b9050919050565b60008115159050919050565b6000819050919050565b60007fffffffff0000000000000000000000000000000000000000000000000000000082169050919050565b600073ffffffffffffffffffffffffffffffffffffffff82169050919050565b6000819050919050565b600060ff82169050919050565b82818337600083830152505050565b60005b83811015614b51578082015181840152602081019050614b36565b83811115614b60576000848401525b50505050565b6000614b7182614b0d565b91506000821415614b8557614b84614c81565b5b600182039050919050565b60006002820490506001821680614ba857607f821691505b60208210811415614bbc57614bbb614cdf565b5b50919050565b614bcb82614d3d565b810181811067ffffffffffffffff82111715614bea57614be9614d0e565b5b80604052505050565b6000614bfe82614b0d565b91507fffffffffffffffffffffffffffffffffffffffffffffffffffffffffffffffff821415614c3157614c30614c81565b5b600182019050919050565b6000819050919050565b6000819050919050565b6000614c5b82614b0d565b9150614c6683614b0d565b925082614c7657614c75614cb0565b5b828206905092915050565b7f4e487b7100000000000000000000000000000000000000000000000000000000600052601160045260246000fd5b7f4e487b7100000000000000000000000000000000000000000000000000000000600052601260045260246000fd5b7f4e487b7100000000000000000000000000000000000000000000000000000000600052602260045260246000fd5b7f4e487b7100000000000000000000000000000000000000000000000000000000600052604160045260246000fd5b6000601f19601f8301169050919050565b7f537472696e67733a20686578206c656e67746820696e73756666696369656e74600082015250565b7f3c7265637420783d270000000000000000000000000000000000000000000000600082015250565b7f27206865696768743d2732303030272073686170652d72656e646572696e673d60008201527f2763726973704564676573270000000000000000000000000000000000000000602082015250565b7f5061757361626c653a206e6f7420706175736564000000000000000000000000600082015250565b7f50616c657474652076616c7565206d757374206265206265747765656e20302060008201527f616e64203130302e000000000000000000000000000000000000000000000000602082015250565b7f455243373231456e756d657261626c653a206f776e657220696e646578206f7560008201527f74206f6620626f756e6473000000000000000000000000000000000000000000602082015250565b7f4552433732313a207472616e7366657220746f206e6f6e20455243373231526560008201527f63656976657220696d706c656d656e7465720000000000000000000000000000602082015250565b7f2031303030203130303029273e3c616e696d61746520626567696e3d2027307360008201527f27206475723d2700000000000000000000000000000000000000000000000000602082015250565b7f4552433732313a20746f6b656e20616c7265616479206d696e74656400000000600082015250565b7f53706565642076616c7565206d757374206265206265747765656e203020616e60008201527f64203130302e0000000000000000000000000000000000000000000000000000602082015250565b7f6d7327206174747269627574654e616d653d2766696c6c272076616c7565733d60008201527f2700000000000000000000000000000000000000000000000000000000000000602082015250565b7f7267622800000000000000000000000000000000000000000000000000000000600082015250565b7f4552433732313a207472616e7366657220746f20746865207a65726f2061646460008201527f7265737300000000000000000000000000000000000000000000000000000000602082015250565b7f4552433732313a20617070726f766520746f2063616c6c657200000000000000600082015250565b7f417474656d7074656420746f2067656e65726174652053564720666f7220746f60008201527f6b656e207468617420686173206e6f74206265656e206d696e7465642079657460208201527f2e00000000000000000000000000000000000000000000000000000000000000604082015250565b7f4552433732313a206f70657261746f7220717565727920666f72206e6f6e657860008201527f697374656e7420746f6b656e0000000000000000000000000000000000000000602082015250565b7f2900000000000000000000000000000000000000000000000000000000000000600082015250565b7f3c73766720786d6c6e733d27687474703a2f2f7777772e77332e6f72672f323060008201527f30302f737667272076696577426f783d27000000000000000000000000000000602082015250565b7f2000000000000000000000000000000000000000000000000000000000000000600082015250565b7f5061757361626c653a2070617573656400000000000000000000000000000000600082015250565b7f3b00000000000000000000000000000000000000000000000000000000000000600082015250565b7f4552433732313a20617070726f76652063616c6c6572206973206e6f74206f7760008201527f6e6572206e6f7220617070726f76656420666f7220616c6c0000000000000000602082015250565b7f526f746174696f6e2064656772656573206d757374206265206265747765656e60008201527f203020616e64203336302e000000000000000000000000000000000000000000602082015250565b7f4552433732313a2062616c616e636520717565727920666f7220746865207a6560008201527f726f206164647265737300000000000000000000000000000000000000000000602082015250565b7f4552433732313a206f776e657220717565727920666f72206e6f6e657869737460008201527f656e7420746f6b656e0000000000000000000000000000000000000000000000602082015250565b7f537472697065207769647468206d757374206265206265747765656e2030206160008201527f6e64203130302e00000000000000000000000000000000000000000000000000602082015250565b7f746f55696e743235365f6f75744f66426f756e64730000000000000000000000600082015250565b7f4552433732313a206d696e7420746f20746865207a65726f2061646472657373600082015250565b7f272066696c6c3d27667265657a652720726570656174436f756e743d27696e6460008201527f6566696e69746527202f3e3c2f726563743e0000000000000000000000000000602082015250565b7f45524337323155524953746f726167653a2055524920717565727920666f722060008201527f6e6f6e6578697374656e7420746f6b656e000000000000000000000000000000602082015250565b7f4552433732313a20617070726f76656420717565727920666f72206e6f6e657860008201527f697374656e7420746f6b656e0000000000000000000000000000000000000000602082015250565b7f207472616e73666f726d3d27726f746174652800000000000000000000000000600082015250565b7f4552433732313a207472616e73666572206f6620746f6b656e2074686174206960008201527f73206e6f74206f776e0000000000000000000000000000000000000000000000602082015250565b7f4552433732314d657461646174613a2055524920717565727920666f72206e6f60008201527f6e6578697374656e7420746f6b656e0000000000000000000000000000000000602082015250565b7f4552433732313a20617070726f76616c20746f2063757272656e74206f776e6560008201527f7200000000000000000000000000000000000000000000000000000000000000602082015250565b7f2c20000000000000000000000000000000000000000000000000000000000000600082015250565b7f4552433732313a207472616e736665722063616c6c6572206973206e6f74206f60008201527f776e6572206e6f7220617070726f766564000000000000000000000000000000602082015250565b7f455243373231456e756d657261626c653a20676c6f62616c20696e646578206f60008201527f7574206f6620626f756e64730000000000000000000000000000000000000000602082015250565b7f2720793d2730272077696474683d270000000000000000000000000000000000600082015250565b7f416363657373436f6e74726f6c3a206163636f756e7420000000000000000000600082015250565b7f273e000000000000000000000000000000000000000000000000000000000000600082015250565b7f3c2f7376673e0000000000000000000000000000000000000000000000000000600082015250565b7f4552433732314275726e61626c653a2063616c6c6572206973206e6f74206f7760008201527f6e6572206e6f7220617070726f76656400000000000000000000000000000000602082015250565b7f206973206d697373696e6720726f6c6520000000000000000000000000000000600082015250565b7f416363657373436f6e74726f6c3a2063616e206f6e6c792072656e6f756e636560008201527f20726f6c657320666f722073656c660000000000000000000000000000000000602082015250565b61588e81614a99565b811461589957600080fd5b50565b6158a581614aab565b81146158b057600080fd5b50565b6158bc81614ab7565b81146158c757600080fd5b50565b6158d381614ac1565b81146158de57600080fd5b50565b6158ea81614b0d565b81146158f557600080fd5b5056fea26469706673582212203bc360a0ebee5c1e24715b9c84b49a8ab6898c8c6645472538e6f446f56889af64736f6c63430008040033",
  "linkReferences": {},
  "deployedLinkReferences": {}
}