{
  "_format": "hh-sol-artifact-1",
  "contractName": "DynaStripes",
  "sourceName": "contracts/DynaStripes.sol",
  "abi": [
    {
      "inputs": [],
      "stateMutability": "nonpayable",
      "type": "constructor"
    },
    {
      "anonymous": false,
      "inputs": [
        {
          "indexed": true,
          "internalType": "address",
          "name": "owner",
          "type": "address"
        },
        {
          "indexed": true,
          "internalType": "address",
          "name": "approved",
          "type": "address"
        },
        {
          "indexed": true,
          "internalType": "uint256",
          "name": "tokenId",
          "type": "uint256"
        }
      ],
      "name": "Approval",
      "type": "event"
    },
    {
      "anonymous": false,
      "inputs": [
        {
          "indexed": true,
          "internalType": "address",
          "name": "owner",
          "type": "address"
        },
        {
          "indexed": true,
          "internalType": "address",
          "name": "operator",
          "type": "address"
        },
        {
          "indexed": false,
          "internalType": "bool",
          "name": "approved",
          "type": "bool"
        }
      ],
      "name": "ApprovalForAll",
      "type": "event"
    },
    {
      "anonymous": false,
      "inputs": [
        {
          "indexed": true,
          "internalType": "address",
          "name": "previousOwner",
          "type": "address"
        },
        {
          "indexed": true,
          "internalType": "address",
          "name": "newOwner",
          "type": "address"
        }
      ],
      "name": "OwnershipTransferred",
      "type": "event"
    },
    {
      "anonymous": false,
      "inputs": [
        {
          "indexed": false,
          "internalType": "address",
          "name": "account",
          "type": "address"
        }
      ],
      "name": "Paused",
      "type": "event"
    },
    {
      "anonymous": false,
      "inputs": [
        {
          "indexed": true,
          "internalType": "address",
          "name": "from",
          "type": "address"
        },
        {
          "indexed": true,
          "internalType": "address",
          "name": "to",
          "type": "address"
        },
        {
          "indexed": true,
          "internalType": "uint256",
          "name": "tokenId",
          "type": "uint256"
        }
      ],
      "name": "Transfer",
      "type": "event"
    },
    {
      "anonymous": false,
      "inputs": [
        {
          "indexed": false,
          "internalType": "address",
          "name": "account",
          "type": "address"
        }
      ],
      "name": "Unpaused",
      "type": "event"
    },
    {
      "inputs": [],
      "name": "ROYALTY_BPS",
      "outputs": [
        {
          "internalType": "uint16",
          "name": "",
          "type": "uint16"
        }
      ],
      "stateMutability": "view",
      "type": "function"
    },
    {
      "inputs": [],
      "name": "TOKEN_LIMIT",
      "outputs": [
        {
          "internalType": "uint16",
          "name": "",
          "type": "uint16"
        }
      ],
      "stateMutability": "view",
      "type": "function"
    },
    {
      "inputs": [
        {
          "internalType": "address",
          "name": "to",
          "type": "address"
        },
        {
          "internalType": "uint256",
          "name": "tokenId",
          "type": "uint256"
        }
      ],
      "name": "approve",
      "outputs": [],
      "stateMutability": "nonpayable",
      "type": "function"
    },
    {
      "inputs": [
        {
          "internalType": "address",
          "name": "owner",
          "type": "address"
        }
      ],
      "name": "balanceOf",
      "outputs": [
        {
          "internalType": "uint256",
          "name": "",
          "type": "uint256"
        }
      ],
      "stateMutability": "view",
      "type": "function"
    },
    {
      "inputs": [
        {
          "internalType": "uint24[]",
          "name": "seeds",
          "type": "uint24[]"
        }
      ],
      "name": "banRandomSeeds",
      "outputs": [],
      "stateMutability": "nonpayable",
      "type": "function"
    },
    {
      "inputs": [
        {
          "internalType": "uint256",
          "name": "tokenId",
          "type": "uint256"
        }
      ],
      "name": "burn",
      "outputs": [],
      "stateMutability": "nonpayable",
      "type": "function"
    },
    {
      "inputs": [],
      "name": "contractURI",
      "outputs": [
        {
          "internalType": "string",
          "name": "",
          "type": "string"
        }
      ],
      "stateMutability": "pure",
      "type": "function"
    },
    {
      "inputs": [
        {
          "internalType": "uint256",
          "name": "_tokenId",
          "type": "uint256"
        }
      ],
      "name": "generateSvg",
      "outputs": [
        {
          "internalType": "string",
          "name": "",
          "type": "string"
        }
      ],
      "stateMutability": "view",
      "type": "function"
    },
    {
      "inputs": [
        {
          "internalType": "uint256",
          "name": "tokenId",
          "type": "uint256"
        }
      ],
      "name": "getApproved",
      "outputs": [
        {
          "internalType": "address",
          "name": "",
          "type": "address"
        }
      ],
      "stateMutability": "view",
      "type": "function"
    },
    {
      "inputs": [],
      "name": "getMintPrice",
      "outputs": [
        {
          "internalType": "uint256",
          "name": "",
          "type": "uint256"
        }
      ],
      "stateMutability": "view",
      "type": "function"
    },
    {
      "inputs": [],
      "name": "getTokenLimit",
      "outputs": [
        {
          "internalType": "uint16",
          "name": "",
          "type": "uint16"
        }
      ],
      "stateMutability": "view",
      "type": "function"
    },
    {
      "inputs": [
        {
          "internalType": "address",
          "name": "owner",
          "type": "address"
        },
        {
          "internalType": "address",
          "name": "operator",
          "type": "address"
        }
      ],
      "name": "isApprovedForAll",
      "outputs": [
        {
          "internalType": "bool",
          "name": "",
          "type": "bool"
        }
      ],
      "stateMutability": "view",
      "type": "function"
    },
    {
      "inputs": [
        {
          "internalType": "uint24",
          "name": "_randomSeed",
          "type": "uint24"
        },
        {
          "internalType": "uint8",
          "name": "_zoom",
          "type": "uint8"
        },
        {
          "internalType": "uint8",
          "name": "_tintRed",
          "type": "uint8"
        },
        {
          "internalType": "uint8",
          "name": "_tintGreen",
          "type": "uint8"
        },
        {
          "internalType": "uint8",
          "name": "_tintBlue",
          "type": "uint8"
        },
        {
          "internalType": "uint8",
          "name": "_tintAlpha",
          "type": "uint8"
        },
        {
          "internalType": "uint16",
          "name": "_rotationDegrees",
          "type": "uint16"
        },
        {
          "internalType": "uint8",
          "name": "_rotationRange",
          "type": "uint8"
        },
        {
          "internalType": "uint8",
          "name": "_stripeWidthMin",
          "type": "uint8"
        },
        {
          "internalType": "uint8",
          "name": "_stripeWidthMax",
          "type": "uint8"
        },
        {
          "internalType": "uint8",
          "name": "_speedMin",
          "type": "uint8"
        },
        {
          "internalType": "uint8",
          "name": "_speedMax",
          "type": "uint8"
        }
      ],
      "name": "mintStripes",
      "outputs": [],
      "stateMutability": "payable",
      "type": "function"
    },
    {
      "inputs": [],
      "name": "name",
      "outputs": [
        {
          "internalType": "string",
          "name": "",
          "type": "string"
        }
      ],
      "stateMutability": "view",
      "type": "function"
    },
    {
      "inputs": [],
      "name": "owner",
      "outputs": [
        {
          "internalType": "address",
          "name": "",
          "type": "address"
        }
      ],
      "stateMutability": "view",
      "type": "function"
    },
    {
      "inputs": [
        {
          "internalType": "uint256",
          "name": "tokenId",
          "type": "uint256"
        }
      ],
      "name": "ownerOf",
      "outputs": [
        {
          "internalType": "address",
          "name": "",
          "type": "address"
        }
      ],
      "stateMutability": "view",
      "type": "function"
    },
    {
      "inputs": [],
      "name": "pause",
      "outputs": [],
      "stateMutability": "nonpayable",
      "type": "function"
    },
    {
      "inputs": [],
      "name": "paused",
      "outputs": [
        {
          "internalType": "bool",
          "name": "",
          "type": "bool"
        }
      ],
      "stateMutability": "view",
      "type": "function"
    },
    {
      "inputs": [
        {
          "internalType": "uint256",
          "name": "amount",
          "type": "uint256"
        }
      ],
      "name": "payOwner",
      "outputs": [],
      "stateMutability": "nonpayable",
      "type": "function"
    },
    {
      "inputs": [],
      "name": "renounceOwnership",
      "outputs": [],
      "stateMutability": "nonpayable",
      "type": "function"
    },
    {
      "inputs": [
        {
          "internalType": "uint256",
          "name": "tokenId",
          "type": "uint256"
        },
        {
          "internalType": "uint256",
          "name": "value",
          "type": "uint256"
        }
      ],
      "name": "royaltyInfo",
      "outputs": [
        {
          "internalType": "address",
          "name": "receiver",
          "type": "address"
        },
        {
          "internalType": "uint256",
          "name": "royaltyAmount",
          "type": "uint256"
        }
      ],
      "stateMutability": "view",
      "type": "function"
    },
    {
      "inputs": [
        {
          "internalType": "address",
          "name": "from",
          "type": "address"
        },
        {
          "internalType": "address",
          "name": "to",
          "type": "address"
        },
        {
          "internalType": "uint256",
          "name": "tokenId",
          "type": "uint256"
        }
      ],
      "name": "safeTransferFrom",
      "outputs": [],
      "stateMutability": "nonpayable",
      "type": "function"
    },
    {
      "inputs": [
        {
          "internalType": "address",
          "name": "from",
          "type": "address"
        },
        {
          "internalType": "address",
          "name": "to",
          "type": "address"
        },
        {
          "internalType": "uint256",
          "name": "tokenId",
          "type": "uint256"
        },
        {
          "internalType": "bytes",
          "name": "_data",
          "type": "bytes"
        }
      ],
      "name": "safeTransferFrom",
      "outputs": [],
      "stateMutability": "nonpayable",
      "type": "function"
    },
    {
      "inputs": [
        {
          "internalType": "address",
          "name": "operator",
          "type": "address"
        },
        {
          "internalType": "bool",
          "name": "approved",
          "type": "bool"
        }
      ],
      "name": "setApprovalForAll",
      "outputs": [],
      "stateMutability": "nonpayable",
      "type": "function"
    },
    {
      "inputs": [
        {
          "internalType": "uint256",
          "name": "_mintPrice",
          "type": "uint256"
        }
      ],
      "name": "setMintPrice",
      "outputs": [],
      "stateMutability": "nonpayable",
      "type": "function"
    },
    {
      "inputs": [
        {
          "internalType": "uint16",
          "name": "_tokenLimit",
          "type": "uint16"
        }
      ],
      "name": "setTokenLimit",
      "outputs": [],
      "stateMutability": "nonpayable",
      "type": "function"
    },
    {
      "inputs": [
        {
          "internalType": "bytes4",
          "name": "interfaceId",
          "type": "bytes4"
        }
      ],
      "name": "supportsInterface",
      "outputs": [
        {
          "internalType": "bool",
          "name": "",
          "type": "bool"
        }
      ],
      "stateMutability": "view",
      "type": "function"
    },
    {
      "inputs": [],
      "name": "symbol",
      "outputs": [
        {
          "internalType": "string",
          "name": "",
          "type": "string"
        }
      ],
      "stateMutability": "view",
      "type": "function"
    },
    {
      "inputs": [
        {
          "internalType": "uint256",
          "name": "index",
          "type": "uint256"
        }
      ],
      "name": "tokenByIndex",
      "outputs": [
        {
          "internalType": "uint256",
          "name": "",
          "type": "uint256"
        }
      ],
      "stateMutability": "view",
      "type": "function"
    },
    {
      "inputs": [
        {
          "internalType": "address",
          "name": "owner",
          "type": "address"
        },
        {
          "internalType": "uint256",
          "name": "index",
          "type": "uint256"
        }
      ],
      "name": "tokenOfOwnerByIndex",
      "outputs": [
        {
          "internalType": "uint256",
          "name": "",
          "type": "uint256"
        }
      ],
      "stateMutability": "view",
      "type": "function"
    },
    {
      "inputs": [
        {
          "internalType": "uint256",
          "name": "_tokenId",
          "type": "uint256"
        }
      ],
      "name": "tokenURI",
      "outputs": [
        {
          "internalType": "string",
          "name": "",
          "type": "string"
        }
      ],
      "stateMutability": "view",
      "type": "function"
    },
    {
      "inputs": [],
      "name": "totalSupply",
      "outputs": [
        {
          "internalType": "uint256",
          "name": "",
          "type": "uint256"
        }
      ],
      "stateMutability": "view",
      "type": "function"
    },
    {
      "inputs": [
        {
          "internalType": "address",
          "name": "from",
          "type": "address"
        },
        {
          "internalType": "address",
          "name": "to",
          "type": "address"
        },
        {
          "internalType": "uint256",
          "name": "tokenId",
          "type": "uint256"
        }
      ],
      "name": "transferFrom",
      "outputs": [],
      "stateMutability": "nonpayable",
      "type": "function"
    },
    {
      "inputs": [
        {
          "internalType": "address",
          "name": "newOwner",
          "type": "address"
        }
      ],
      "name": "transferOwnership",
      "outputs": [],
      "stateMutability": "nonpayable",
      "type": "function"
    },
    {
      "inputs": [],
      "name": "unpause",
      "outputs": [],
      "stateMutability": "nonpayable",
      "type": "function"
    },
    {
      "stateMutability": "payable",
      "type": "receive"
    }
  ],
  "bytecode": "0x6080604052600c805463ffffffff19166064179055662386f26fc10000600f553480156200002c57600080fd5b50604080518082018252600b81526a44796e615374726970657360a81b60208083019182528351808501909452600384526244535360e81b908401528151919291839183916200007f916000916200010f565b508051620000959060019060208401906200010f565b5050600a805460ff1916905550620000ad33620000b5565b5050620001f2565b600a80546001600160a01b03838116610100818102610100600160a81b031985161790945560405193909204169182907f8be0079c531659141344cd1fd0a4f28419497f9722a3daafe3b4186f6b6457e090600090a35050565b8280546200011d90620001b5565b90600052602060002090601f0160209004810192826200014157600085556200018c565b82601f106200015c57805160ff19168380011785556200018c565b828001600101855582156200018c579182015b828111156200018c5782518255916020019190600101906200016f565b506200019a9291506200019e565b5090565b5b808211156200019a57600081556001016200019f565b600181811c90821680620001ca57607f821691505b60208210811415620001ec57634e487b7160e01b600052602260045260246000fd5b50919050565b615c9380620002026000396000f3fe6080604052600436106102085760003560e01c80636352211e11610118578063a6c8445a116100a0578063c87b56dd1161006f578063c87b56dd146105d2578063e8a3d485146105f2578063e985e9c514610607578063f2fde38b14610650578063f4a0a5281461067057600080fd5b8063a6c8445a1461056a578063a7f93ebd1461057d578063b88d4fde14610592578063bc921dc2146105b257600080fd5b80638331be32116100e75780638331be32146104dd5780638456cb59146104fd5780638da5cb5b1461051257806395d89b4114610535578063a22cb4651461054a57600080fd5b80636352211e1461046857806370a0823114610488578063715018a6146104a857806377c39a89146104bd57600080fd5b8063284855861161019b57806342842e0e1161016a57806342842e0e146103da57806342966c68146103fa57806349c657db1461041a5780634f6ccce7146104305780635c975abb1461045057600080fd5b8063284855861461034d5780632a55205a146103665780632f745c59146103a55780633f4ba83a146103c557600080fd5b806308d78c3c116101d757806308d78c3c146102cc578063095ea7b3146102ee57806318160ddd1461030e57806323b872dd1461032d57600080fd5b806301ffc9a714610214578063031bd4c41461024957806306fdde0314610272578063081812fc1461029457600080fd5b3661020f57005b600080fd5b34801561022057600080fd5b5061023461022f366004614ab8565b610690565b60405190151581526020015b60405180910390f35b34801561025557600080fd5b5061025f61045f81565b60405161ffff9091168152602001610240565b34801561027e57600080fd5b506102876106a1565b60405161024091906159ee565b3480156102a057600080fd5b506102b46102af366004614be5565b610733565b6040516001600160a01b039091168152602001610240565b3480156102d857600080fd5b506102ec6102e7366004614be5565b6107cd565b005b3480156102fa57600080fd5b506102ec6103093660046149e0565b6108b0565b34801561031a57600080fd5b506008545b604051908152602001610240565b34801561033957600080fd5b506102ec6103483660046148b3565b6109c1565b34801561035957600080fd5b50600c5461ffff1661025f565b34801561037257600080fd5b50610386610381366004614bfd565b610a3d565b604080516001600160a01b039093168352602083019190915201610240565b3480156103b157600080fd5b5061031f6103c03660046149e0565b610a96565b3480156103d157600080fd5b506102ec610b2c565b3480156103e657600080fd5b506102ec6103f53660046148b3565b610b84565b34801561040657600080fd5b506102ec610415366004614be5565b610b9f565b34801561042657600080fd5b5061025f6103e881565b34801561043c57600080fd5b5061031f61044b366004614be5565b610c26565b34801561045c57600080fd5b50600a5460ff16610234565b34801561047457600080fd5b506102b4610483366004614be5565b610cc7565b34801561049457600080fd5b5061031f6104a3366004614867565b610d3e565b3480156104b457600080fd5b506102ec610dc5565b3480156104c957600080fd5b506102ec6104d8366004614af0565b610e1d565b3480156104e957600080fd5b506102ec6104f8366004614a09565b610e96565b34801561050957600080fd5b506102ec610f5a565b34801561051e57600080fd5b50600a5461010090046001600160a01b03166102b4565b34801561054157600080fd5b50610287610fb0565b34801561055657600080fd5b506102ec6105653660046149a6565b610fbf565b6102ec610578366004614b0a565b611084565b34801561058957600080fd5b50600f5461031f565b34801561059e57600080fd5b506102ec6105ad3660046148ee565b6117b0565b3480156105be57600080fd5b506102876105cd366004614be5565b611832565b3480156105de57600080fd5b506102876105ed366004614be5565b611a8c565b3480156105fe57600080fd5b50610287611db5565b34801561061357600080fd5b50610234610622366004614881565b6001600160a01b03918216600090815260056020908152604080832093909416825291909152205460ff1690565b34801561065c57600080fd5b506102ec61066b366004614867565b611dd5565b34801561067c57600080fd5b506102ec61068b366004614be5565b611e91565b600061069b82611ee4565b92915050565b6060600080546106b090615b2b565b80601f01602080910402602001604051908101604052809291908181526020018280546106dc90615b2b565b80156107295780601f106106fe57610100808354040283529160200191610729565b820191906000526020600020905b81548152906001019060200180831161070c57829003601f168201915b5050505050905090565b6000818152600260205260408120546001600160a01b03166107b15760405162461bcd60e51b815260206004820152602c60248201527f4552433732313a20617070726f76656420717565727920666f72206e6f6e657860448201526b34b9ba32b73a103a37b5b2b760a11b60648201526084015b60405180910390fd5b506000908152600460205260409020546001600160a01b031690565b600a546001600160a01b0361010090910416331461081b5760405162461bcd60e51b81526020600482018190526024820152600080516020615c3e83398151915260448201526064016107a8565b4781111561086b5760405162461bcd60e51b815260206004820152600f60248201527f416d6f756e7420746f6f2068696768000000000000000000000000000000000060448201526064016107a8565b600a546040516101009091046001600160a01b031690819083156108fc029084906000818181858888f193505050501580156108ab573d6000803e3d6000fd5b505050565b60006108bb82610cc7565b9050806001600160a01b0316836001600160a01b031614156109295760405162461bcd60e51b815260206004820152602160248201527f4552433732313a20617070726f76616c20746f2063757272656e74206f776e656044820152603960f91b60648201526084016107a8565b336001600160a01b038216148061094557506109458133610622565b6109b75760405162461bcd60e51b815260206004820152603860248201527f4552433732313a20617070726f76652063616c6c6572206973206e6f74206f7760448201527f6e6572206e6f7220617070726f76656420666f7220616c6c000000000000000060648201526084016107a8565b6108ab8383611f09565b6109cc335b82611f77565b610a325760405162461bcd60e51b815260206004820152603160248201527f4552433732313a207472616e736665722063616c6c6572206973206e6f74206f6044820152701ddb995c881b9bdc88185c1c1c9bdd9959607a1b60648201526084016107a8565b6108ab83838361206e565b6000828152600b60209081526040808320815180830190925280546001600160a01b0316808352600190910154928201839052839261271090610a809087615aa6565b610a8a9190615a70565b92509250509250929050565b6000610aa183610d3e565b8210610b035760405162461bcd60e51b815260206004820152602b60248201527f455243373231456e756d657261626c653a206f776e657220696e646578206f7560448201526a74206f6620626f756e647360a81b60648201526084016107a8565b506001600160a01b03919091166000908152600660209081526040808320938352929052205490565b600a546001600160a01b03610100909104163314610b7a5760405162461bcd60e51b81526020600482018190526024820152600080516020615c3e83398151915260448201526064016107a8565b610b82612219565b565b6108ab838383604051806020016040528060008152506117b0565b610ba8336109c6565b610c1a5760405162461bcd60e51b815260206004820152603060248201527f4552433732314275726e61626c653a2063616c6c6572206973206e6f74206f7760448201527f6e6572206e6f7220617070726f7665640000000000000000000000000000000060648201526084016107a8565b610c23816122b5565b50565b6000610c3160085490565b8210610c945760405162461bcd60e51b815260206004820152602c60248201527f455243373231456e756d657261626c653a20676c6f62616c20696e646578206f60448201526b7574206f6620626f756e647360a01b60648201526084016107a8565b60088281548110610cb557634e487b7160e01b600052603260045260246000fd5b90600052602060002001549050919050565b6000818152600260205260408120546001600160a01b03168061069b5760405162461bcd60e51b815260206004820152602960248201527f4552433732313a206f776e657220717565727920666f72206e6f6e657869737460448201526832b73a103a37b5b2b760b91b60648201526084016107a8565b60006001600160a01b038216610da95760405162461bcd60e51b815260206004820152602a60248201527f4552433732313a2062616c616e636520717565727920666f7220746865207a65604482015269726f206164647265737360b01b60648201526084016107a8565b506001600160a01b031660009081526003602052604090205490565b600a546001600160a01b03610100909104163314610e135760405162461bcd60e51b81526020600482018190526024820152600080516020615c3e83398151915260448201526064016107a8565b610b82600061235c565b600a546001600160a01b03610100909104163314610e6b5760405162461bcd60e51b81526020600482018190526024820152600080516020615c3e83398151915260448201526064016107a8565b61045f61ffff82161115610e7e575061045f5b600c805461ffff191661ffff92909216919091179055565b600a546001600160a01b03610100909104163314610ee45760405162461bcd60e51b81526020600482018190526024820152600080516020615c3e83398151915260448201526064016107a8565b60005b8151811015610f56576001600e6000848481518110610f1657634e487b7160e01b600052603260045260246000fd5b60209081029190910181015162ffffff168252810191909152604001600020805460ff191691151591909117905580610f4e81615b66565b915050610ee7565b5050565b600a546001600160a01b03610100909104163314610fa85760405162461bcd60e51b81526020600482018190526024820152600080516020615c3e83398151915260448201526064016107a8565b610b826123c3565b6060600180546106b090615b2b565b6001600160a01b0382163314156110185760405162461bcd60e51b815260206004820152601960248201527f4552433732313a20617070726f766520746f2063616c6c65720000000000000060448201526064016107a8565b3360008181526005602090815260408083206001600160a01b03871680855290835292819020805460ff191686151590811790915590519081529192917f17307eab39ab6107e8899845ad3d59bd9653f200f220920489ca2b5937696c31910160405180910390a35050565b600c5461ffff62010000820481169116811080156110a7575061045f61ffff8216105b6110f35760405162461bcd60e51b815260206004820152601360248201527f546f6b656e206c696d697420726561636865640000000000000000000000000060448201526064016107a8565b600f543410156111455760405162461bcd60e51b815260206004820152601060248201527f4e6f7420656e6f7567682065746865720000000000000000000000000000000060448201526064016107a8565b60648c60ff1611156111885760405162461bcd60e51b815260206004820152600c60248201526b169bdbdb481a5b9d985b1a5960a21b60448201526064016107a8565b60ff8b60ff1611156111dc5760405162461bcd60e51b815260206004820152601060248201527f74696e742072656420696e76616c69640000000000000000000000000000000060448201526064016107a8565b60ff8a60ff1611156112305760405162461bcd60e51b815260206004820152601260248201527f74696e7420677265656e20696e76616c6964000000000000000000000000000060448201526064016107a8565b60ff8960ff1611156112845760405162461bcd60e51b815260206004820152601160248201527f74696e7420626c756520696e76616c696400000000000000000000000000000060448201526064016107a8565b60e68860ff16106112d75760405162461bcd60e51b815260206004820152601260248201527f74696e7420616c70686120696e76616c6964000000000000000000000000000060448201526064016107a8565b6101688761ffff16111561132d5760405162461bcd60e51b815260206004820152601860248201527f526f746174696f6e206465677265657320696e76616c6964000000000000000060448201526064016107a8565b60b48660ff1611156113815760405162461bcd60e51b815260206004820152601660248201527f526f746174696f6e2072616e676520696e76616c69640000000000000000000060448201526064016107a8565b60198560ff1610158015611399575060fa8460ff1611155b80156113ab57508360ff168560ff1611155b6113f75760405162461bcd60e51b815260206004820152601460248201527f53747269706520776964746820696e76616c696400000000000000000000000060448201526064016107a8565b60198360ff161015801561140f575060fa8260ff1611155b801561142157508160ff168360ff1611155b61146d5760405162461bcd60e51b815260206004820152601360248201527f53706565642076616c756520696e76616c69640000000000000000000000000060448201526064016107a8565b624c4b408d62ffffff16108015611499575062ffffff8d166000908152600e602052604090205460ff16155b6114e55760405162461bcd60e51b815260206004820152601360248201527f52616e646f6d207365656420696e76616c69640000000000000000000000000060448201526064016107a8565b6114f3338261ffff1661243e565b61150461ffff8216336103e8612458565b6040518061018001604052808e62ffffff1681526020018d60ff1681526020018c60ff1681526020018b60ff1681526020018a60ff1681526020018960ff1681526020018861ffff1681526020018760ff1681526020018660ff1681526020018560ff1681526020018460ff1681526020018360ff16815250600d60008361ffff1661ffff16815260200190815260200160002060008201518160000160006101000a81548162ffffff021916908362ffffff16021790555060208201518160000160036101000a81548160ff021916908360ff16021790555060408201518160000160046101000a81548160ff021916908360ff16021790555060608201518160000160056101000a81548160ff021916908360ff16021790555060808201518160000160066101000a81548160ff021916908360ff16021790555060a08201518160000160076101000a81548160ff021916908360ff16021790555060c08201518160000160086101000a81548161ffff021916908361ffff16021790555060e082015181600001600a6101000a81548160ff021916908360ff16021790555061010082015181600001600b6101000a81548160ff021916908360ff16021790555061012082015181600001600c6101000a81548160ff021916908360ff16021790555061014082015181600001600d6101000a81548160ff021916908360ff16021790555061016082015181600001600e6101000a81548160ff021916908360ff1602179055509050506001600e60008f62ffffff1662ffffff16815260200190815260200160002060006101000a81548160ff0219169083151502179055506001600c60028282829054906101000a900461ffff166117879190615a32565b92506101000a81548161ffff021916908361ffff16021790555050505050505050505050505050565b6117ba3383611f77565b6118205760405162461bcd60e51b815260206004820152603160248201527f4552433732313a207472616e736665722063616c6c6572206973206e6f74206f6044820152701ddb995c881b9bdc88185c1c1c9bdd9959607a1b60648201526084016107a8565b61182c848484846124f2565b50505050565b6000818152600260205260409020546060906001600160a01b03166118925760405162461bcd60e51b81526020600482015260166024820152751d1bdad95b88125108191bd95cdb89dd08195e1a5cdd60521b60448201526064016107a8565b61045f82106118dc5760405162461bcd60e51b81526020600482015260166024820152751d1bdad95b88125108191bd95cdb89dd08195e1a5cdd60521b60448201526064016107a8565b61ffff8083166000908152600d60209081526040808320815161018081018352905462ffffff8116825260ff63010000008204811694830185905264010000000082048116938301939093526501000000000081048316606083015266010000000000008104831660808301526701000000000000008104831660a083015268010000000000000000810490951660c08201526a01000000000000000000008504821660e0820152600160581b85048216610100820152600160601b85048216610120820152600160681b85048216610140820152600160701b9094041661016084015281906119cb90612570565b9150915060008360e0015160ff16600014611a0257604051806040016040528060048152602001636175746f60e01b815250611a26565b6040518060400160405280600a8152602001696372697370456467657360b01b8152505b9050600082604051602001611a3b9190615937565b60405160208183030381529060405290506000611a578661268a565b905084838383604051602001611a70949392919061511b565b6040516020818303038152906040529650505050505050919050565b6000818152600260205260409020546060906001600160a01b0316611aec5760405162461bcd60e51b81526020600482015260166024820152751d1bdad95b88125108191bd95cdb89dd08195e1a5cdd60521b60448201526064016107a8565b61045f8210611b365760405162461bcd60e51b81526020600482015260166024820152751d1bdad95b88125108191bd95cdb89dd08195e1a5cdd60521b60448201526064016107a8565b6000604051602001611c75907f22636f70797269676874223a2022546865206f776e6572206f6620746869732081527f4e465420697320697473206c6567616c20636f7079726967687420686f6c646560208201527f722e2042792073656c6c696e672074686973204e46542c207468652073656c6c60408201527f65722f6f776e65722061677265657320746f2061737369676e20636f7079726960608201527f67687420746f207468652062757965722e20416c6c2062757965727320616e6460808201527f2073656c6c65727320616772656520746f207061796d656e74206f6620726f7960a08201527f616c7469657320746f20746865206f726967696e616c206d696e746572206f6e60c08201527f2073616c65206f662074686520617274776f726b2e220000000000000000000060e082015260f60190565b60408051601f1981840301815261ffff8087166000908152600d6020908152848220610180870186525462ffffff8116875260ff6301000000820481169288019290925264010000000081048216958701959095526501000000000085048116606087015266010000000000008504811660808701526701000000000000008504811660a087015268010000000000000000850490921660c08601526a01000000000000000000008404821660e0860152600160581b84048216610100860152600160601b84048216610120860152600160681b84048216610140860152600160701b90930416610160840152925090611d6e9061282d565b90506000611d7b85611832565b9050611d8685612a02565b838383604051602001611d9c9493929190615743565b6040516020818303038152906040529350505050919050565b60606040518060600160405280602f8152602001615c0f602f9139905090565b600a546001600160a01b03610100909104163314611e235760405162461bcd60e51b81526020600482018190526024820152600080516020615c3e83398151915260448201526064016107a8565b6001600160a01b038116611e885760405162461bcd60e51b815260206004820152602660248201527f4f776e61626c653a206e6577206f776e657220697320746865207a65726f206160448201526564647265737360d01b60648201526084016107a8565b610c238161235c565b600a546001600160a01b03610100909104163314611edf5760405162461bcd60e51b81526020600482018190526024820152600080516020615c3e83398151915260448201526064016107a8565b600f55565b60006001600160e01b0319821663152a902d60e11b148061069b575061069b82612afb565b600081815260046020526040902080546001600160a01b0319166001600160a01b0384169081179091558190611f3e82610cc7565b6001600160a01b03167f8c5be1e5ebec7d5bd14f71427d1e84f3dd0314c0f7b2291e5b200ac8c7c3b92560405160405180910390a45050565b6000818152600260205260408120546001600160a01b0316611ff05760405162461bcd60e51b815260206004820152602c60248201527f4552433732313a206f70657261746f7220717565727920666f72206e6f6e657860448201526b34b9ba32b73a103a37b5b2b760a11b60648201526084016107a8565b6000611ffb83610cc7565b9050806001600160a01b0316846001600160a01b031614806120365750836001600160a01b031661202b84610733565b6001600160a01b0316145b8061206657506001600160a01b0380821660009081526005602090815260408083209388168352929052205460ff165b949350505050565b826001600160a01b031661208182610cc7565b6001600160a01b0316146120e95760405162461bcd60e51b815260206004820152602960248201527f4552433732313a207472616e73666572206f6620746f6b656e2074686174206960448201526839903737ba1037bbb760b91b60648201526084016107a8565b6001600160a01b03821661214b5760405162461bcd60e51b8152602060048201526024808201527f4552433732313a207472616e7366657220746f20746865207a65726f206164646044820152637265737360e01b60648201526084016107a8565b612156838383612b06565b612161600082611f09565b6001600160a01b038316600090815260036020526040812080546001929061218a908490615ac5565b90915550506001600160a01b03821660009081526003602052604081208054600192906121b8908490615a58565b909155505060008181526002602052604080822080546001600160a01b0319166001600160a01b0386811691821790925591518493918716917fddf252ad1be2c89b69c2b068fc378daa952ba7f163c4a11628f55a4df523b3ef91a4505050565b600a5460ff1661226b5760405162461bcd60e51b815260206004820152601460248201527f5061757361626c653a206e6f742070617573656400000000000000000000000060448201526064016107a8565b600a805460ff191690557f5db9ee0a495bf2e6ff9c91a7834c1ba4fdd244a5e8aa4e537bd38aeae4b073aa335b6040516001600160a01b03909116815260200160405180910390a1565b60006122c082610cc7565b90506122ce81600084612b06565b6122d9600083611f09565b6001600160a01b0381166000908152600360205260408120805460019290612302908490615ac5565b909155505060008281526002602052604080822080546001600160a01b0319169055518391906001600160a01b038416907fddf252ad1be2c89b69c2b068fc378daa952ba7f163c4a11628f55a4df523b3ef908390a45050565b600a80546001600160a01b0383811661010081810274ffffffffffffffffffffffffffffffffffffffff001985161790945560405193909204169182907f8be0079c531659141344cd1fd0a4f28419497f9722a3daafe3b4186f6b6457e090600090a35050565b600a5460ff16156124095760405162461bcd60e51b815260206004820152601060248201526f14185d5cd8589b194e881c185d5cd95960821b60448201526064016107a8565b600a805460ff191660011790557f62e78cea01bee320cd4e420270b5ea74000d11b0c9f74754ebdbfc544b05a2586122983390565b610f56828260405180602001604052806000815250612b57565b6127108111156124aa5760405162461bcd60e51b815260206004820152601a60248201527f45524332393831526f79616c746965733a20546f6f206869676800000000000060448201526064016107a8565b6040805180820182526001600160a01b03938416815260208082019384526000958652600b90529320925183546001600160a01b031916921691909117825551600190910155565b6124fd84848461206e565b61250984848484612bd5565b61182c5760405162461bcd60e51b815260206004820152603260248201527f4552433732313a207472616e7366657220746f206e6f6e20455243373231526560448201527131b2b4bb32b91034b6b83632b6b2b73a32b960711b60648201526084016107a8565b60608061257e836014615aa6565b92506000612596612591856103e8615a58565b612a02565b90506103e88411156126225760006125bf60026125b56103e888615ac5565b6125919190615a70565b90506000818284856040516020016125da94939291906156b8565b60405160208183030381529060405290506000828385866040516020016126049493929190614fec565b60408051601f19818403018152919052919791965090945050505050565b6000612645856103e81461263e5760026125b5876103e8615ac5565b6000612a02565b90506000818284856040516020016126609493929190614e98565b60405160208183030381529060405290506000828385866040516020016126049493929190615552565b80516040805160208101909152600080825260609262ffffff16915b60006126b4836107d0615ac5565b11156120665760006126d78487610100015160ff1688610120015160ff16612d2d565b6126e2906002615aa6565b90506126f0836107d0615ac5565b81111561270a57612703836107d0615ac5565b9050612754565b61010086015160ff1681612720856107d0615ac5565b61272a9190615ac5565b1015612754578061273d846107d0615ac5565b6127479190615ac5565b6127519082615a58565b90505b600061276a612764866003615a58565b88612d96565b905060008161278361277d88600d615a58565b8a612d96565b8360405160200161279693929190614f10565b6040516020818303038152906040529050836127b186612a02565b6127ba85612a02565b846127cf6127c98b6001615a58565b8d612e65565b6127e36127dd8c6002615a58565b8e612f49565b866040516020016127fa9796959493929190614ca2565b60408051601f1981840301815291905293506128168386615a58565b9450612823606487615a58565b95505050506126a6565b60606000612841836020015160ff16612f7e565b604051602001612851919061523c565b60405160208183030381529060405290506000612874846040015160ff16612f7e565b612884856060015160ff16612f7e565b612894866080015160ff16612f7e565b6128a48760a0015160ff16612f7e565b6040516020016128b79493929190614e98565b60405160208183030381529060405290506000816040516020016128db9190615363565b604051602081830303815290604052905060006128ff8660c0015161ffff16612a02565b61290f8760e0015160ff16612f7e565b604051602001612920929190615297565b6040516020818303038152906040529050600061294487610100015160ff16612f7e565b61295588610120015160ff16612f7e565b60405160200161296692919061586b565b6040516020818303038152906040529050600061298a88610140015160ff16612f7e565b61299b89610160015160ff16612f7e565b6040516020016129ac929190615606565b604051602081830303815290604052905060006129c8896131b9565b90508087868686866040516020016129e596959493929190615468565b604051602081830303815290604052975050505050505050919050565b606081612a265750506040805180820190915260018152600360fc1b602082015290565b8160005b8115612a3e57600101600a82049150612a2a565b60008167ffffffffffffffff811115612a6757634e487b7160e01b600052604160045260246000fd5b6040519080825280601f01601f191660200182016040528015612a91576020820181803683370190505b508593509050815b8315612af257600a840660300160f81b82826001900392508281518110612ad057634e487b7160e01b600052603260045260246000fd5b60200101906001600160f81b031916908160001a905350600a84049350612a99565b50949350505050565b600061069b826131fe565b600a5460ff1615612b4c5760405162461bcd60e51b815260206004820152601060248201526f14185d5cd8589b194e881c185d5cd95960821b60448201526064016107a8565b6108ab838383613223565b612b6183836132db565b612b6e6000848484612bd5565b6108ab5760405162461bcd60e51b815260206004820152603260248201527f4552433732313a207472616e7366657220746f206e6f6e20455243373231526560448201527131b2b4bb32b91034b6b83632b6b2b73a32b960711b60648201526084016107a8565b60006001600160a01b0384163b15612d2257604051630a85bd0160e11b81526001600160a01b0385169063150b7a0290612c199033908990889088906004016159b2565b602060405180830381600087803b158015612c3357600080fd5b505af1925050508015612c63575060408051601f3d908101601f19168201909252612c6091810190614ad4565b60015b612d08573d808015612c91576040519150601f19603f3d011682016040523d82523d6000602084013e612c96565b606091505b508051612d005760405162461bcd60e51b815260206004820152603260248201527f4552433732313a207472616e7366657220746f206e6f6e20455243373231526560448201527131b2b4bb32b91034b6b83632b6b2b73a32b960711b60648201526084016107a8565b805181602001fd5b6001600160e01b031916630a85bd0160e11b149050612066565b506001949350505050565b6000828211612d3d575081612d8f565b600084604051602001612d5291815260200190565b60408051601f198184030181529190528051602090910120905083612d778185615ac5565b612d819083615ba2565b612d8b9190615a58565b9150505b9392505050565b60606000612dbf612daa85600060ff612d2d565b846040015160ff168560a0015160ff16613429565b90506000612df2612ddd612dd4876001615a58565b600060ff612d2d565b856060015160ff168660a0015160ff16613429565b90506000612e1c612e07612dd4886002615a58565b866080015160ff168760a0015160ff16613429565b9050612e2783612f7e565b612e3083612f7e565b612e3983612f7e565b604051602001612e4b939291906150a2565b604051602081830303815290604052935050505092915050565b60606000612e7c8460008560e0015160ff16612d2d565b9050600081612e94575060c083015161ffff16612f1e565b8360e0015160ff16821015612ee95760028460e00151612eb49190615a84565b60ff16828560c00151610168612eca9190615a32565b61ffff16612ed89190615ac5565b612ee29190615a58565b9050612f1e565b60028460e00151612efa9190615a84565b60ff16828560c0015161ffff16612f119190615a58565b612f1b9190615ac5565b90505b610168811115612f3757612f3461016882615ac5565b90505b612f4081612a02565b95945050505050565b60606000612f688484610140015160ff1685610160015160ff16612d2d565b612f73906014615aa6565b905061206681612a02565b60606101008210612fc15760405162461bcd60e51b815260206004820152600d60248201526c696e70757420746f6f2062696760981b60448201526064016107a8565b81612fe35750506040805180820190915260018152600360fc1b602082015290565b6060600a8310156130555760408051600180825281830190925290602082018180368337019050509050600a835b0660300160f81b8160008151811061303957634e487b7160e01b600052603260045260246000fd5b60200101906001600160f81b031916908160001a90535061069b565b60648310156130c95760408051600280825281830190925290602082018180368337019050509050600a830660300160f81b816001815181106130a857634e487b7160e01b600052603260045260246000fd5b60200101906001600160f81b031916908160001a905350600a808404613011565b60408051600380825281830190925290602082018180368337019050509050600a830660300160f81b8160028151811061311357634e487b7160e01b600052603260045260246000fd5b60200101906001600160f81b031916908160001a905350600a8084040660300160f81b8160018151811061315757634e487b7160e01b600052603260045260246000fd5b60200101906001600160f81b031916908160001a905350600a606484040660300160f81b8160008151811061319c57634e487b7160e01b600052603260045260246000fd5b60200101906001600160f81b031916908160001a90535092915050565b606061069b82602001518360400151846060015185608001518660a001518760c001518860e001518961010001518a61012001518b61014001518c610160015161346a565b60006001600160e01b0319821663780e9d6360e01b148061069b575061069b8261460b565b6001600160a01b03831661327e5761327981600880546000838152600960205260408120829055600182018355919091527ff3f7a9fe364faab93b216da50a3214154f22a0a2b415b23a84c8169e8b636ee30155565b6132a1565b816001600160a01b0316836001600160a01b0316146132a1576132a1838261465b565b6001600160a01b0382166132b8576108ab816146f8565b826001600160a01b0316826001600160a01b0316146108ab576108ab82826147d1565b6001600160a01b0382166133315760405162461bcd60e51b815260206004820181905260248201527f4552433732313a206d696e7420746f20746865207a65726f206164647265737360448201526064016107a8565b6000818152600260205260409020546001600160a01b0316156133965760405162461bcd60e51b815260206004820152601c60248201527f4552433732313a20746f6b656e20616c7265616479206d696e7465640000000060448201526064016107a8565b6133a260008383612b06565b6001600160a01b03821660009081526003602052604081208054600192906133cb908490615a58565b909155505060008181526002602052604080822080546001600160a01b0319166001600160a01b03861690811790915590518392907fddf252ad1be2c89b69c2b068fc378daa952ba7f163c4a11628f55a4df523b3ef908290a45050565b60008161343a575060ff8316612d8f565b6000838511613453575060ff848403830204840161345f565b5060ff83850383020484035b60ff16949350505050565b60608060198360ff1611158015613484575060b48960ff16105b156134ab57506040805180820190915260058152646d616e696360d81b602082015261366b565b8260ff168460ff16141561354057601e8360ff1610156134ea5750604080518082019091526008815267626c696e6b696e6760c01b602082015261366b565b60c88360ff16111561351c57506040805180820190915260098152687468726f6262696e6760b81b602082015261366b565b5060408051808201909152600781526670756c73696e6760c81b602082015261366b565b60328360ff161015613573575060408051808201909152600a815269666c69636b6572696e6760b01b602082015261366b565b60648360ff1610156135a55750604080518082019091526009815268766962726174696e6760b81b602082015261366b565b60c88460ff1611156135d8575060408051808201909152600a8152693832b232b9ba3934b0b760b11b602082015261366b565b60968460ff16111561360857506040805180820190915260078152661b185b99dd5a5960ca1b602082015261366b565b60966136148585615adc565b60ff161115613647575060408051808201909152600d81526c7363696e74696c6c6174696e6760981b602082015261366b565b5060408051808201909152600b81526a6f7363696c6c6174696e6760a81b60208201525b6060607f8a60ff161115613a2057609660c860ff8c16118015613691575060328e60ff16105b80156136a0575060328d60ff16105b80156136af575060328c60ff16105b156136da5760405180604001604052806006815260200165676c6f6f6d7960d01b8152509150613a1a565b60c88b60ff161180156136f0575060c88e60ff16115b80156136ff575060c88d60ff16115b801561370e575060c88c60ff16115b15613737576040518060400160405280600481526020016370616c6560e01b8152509150613a1a565b8c60ff168e60ff1611801561375a5750808d8f6137549190615adc565b60ff1610155b801561376b57508b60ff168e60ff16115b80156137855750808c8f61377f9190615adc565b60ff1610155b156137ad57604051806040016040528060038152602001621c995960ea1b8152509150613a1a565b8d60ff168d60ff161180156137ce5750806137c88f8f615adc565b60ff1610155b80156137df57508b60ff168d60ff16115b80156137f75750806137f18d8f615adc565b60ff1610155b15613821576040518060400160405280600581526020016433b932b2b760d91b8152509150613a1a565b8d60ff168c60ff1611801561384257508061383c8f8e615adc565b60ff1610155b801561385357508c60ff168c60ff16115b801561386b5750806138658e8e615adc565b60ff1610155b156138945760405180604001604052806004815260200163626c756560e01b8152509150613a1a565b8c60ff168e60ff161180156138b75750808d8f6138b19190615adc565b60ff1610155b80156138c857508c60ff168c60ff16115b80156138e05750806138da8e8e615adc565b60ff1610155b1561390b57604051806040016040528060068152602001651d9a5bdb195d60d21b8152509150613a1a565b8b60ff168e60ff1611801561392e5750808c8f6139289190615adc565b60ff1610155b801561393f57508b60ff168d60ff16115b80156139575750806139518d8f615adc565b60ff1610155b15613982576040518060400160405280600681526020016579656c6c6f7760d01b8152509150613a1a565b8d60ff168c60ff161180156139a357508061399d8f8e615adc565b60ff1610155b80156139b457508d60ff168d60ff16115b80156139cc5750806139c68f8f615adc565b60ff1610155b156139f5576040518060400160405280600481526020016331bcb0b760e11b8152509150613a1a565b604051806040016040528060098152602001681cd85d1d5c985d195960ba1b81525091505b50613b00565b60ff8a16613a52575060408051808201909152600d81526c6b616c6569646f73636f70696360981b6020820152613b00565b60198a60ff161015613a8457506040805180820190915260098152686368726f6d6174696360b81b6020820152613b00565b60328a60ff161015613ab257506040805180820190915260058152641d9a5d9a5960da1b6020820152613b00565b60558a60ff161015613ae157506040805180820190915260068152651d1a5b99d95960d21b6020820152613b00565b506040805180820190915260068152651d1a5b9d195960d21b60208201525b6060613b0d60b48b615b81565b995060ff8916613d0c5760328f60ff16118015613b365750613b30605a8b615b81565b61ffff16155b15613b75575060408051808201909152600e81527f70657266656374207371756172650000000000000000000000000000000000006020820152614503565b605b8f60ff16118015613b9a57508961ffff16602d1480613b9a57508961ffff166087145b15613bd9575060408051808201909152600f81527f70657266656374206469616d6f6e6400000000000000000000000000000000006020820152614503565b60328f60ff1611158015613bef575061ffff8a16155b15613c2e575060408051808201909152601081527f766572746963616c2073747269706573000000000000000000000000000000006020820152614503565b60328f60ff1611158015613c4e5750613c48605a8b615b81565b61ffff16155b15613c8d575060408051808201909152601281527f686f72697a6f6e74616c207374726970657300000000000000000000000000006020820152614503565b60198f60ff1611613cd2575060408051808201909152601081527f646961676f6e616c2073747269706573000000000000000000000000000000006020820152614503565b5060408051808201909152600e81527f726f7461746564207371756172650000000000000000000000000000000000006020820152614503565b601e8f60ff161015613ee65760148f60ff16108015613d2e575060468860ff16115b8015613d3d5750603c8960ff16105b8015613d4c5750600a8960ff16115b15613d755750604080518082019091526007815266726962626f6e7360c81b6020820152614503565b60148f60ff16108015613d8b5750601e8960ff16105b8015613d9a575060c88860ff16115b15613dc3575060408051808201909152600781526662616e6e65727360c81b6020820152614503565b60148f60ff16108015613dd95750604b8760ff16105b8015613de85750603c8960ff16105b8015613df75750600a8960ff16115b15613e22575060408051808201909152600981526873747265616d65727360b81b6020820152614503565b603c8760ff16108015613e38575060828960ff16115b15613e65575060408051808201909152600b81526a6c61736572206265616d7360a81b6020820152614503565b60788860ff161115613e95575060408051808201909152600781526673747265616b7360c81b6020820152614503565b60788760ff161015613ec35750604080518082019091526005815264706f6c657360d81b6020820152614503565b5060408051808201909152600681526573686166747360d01b6020820152614503565b60328f60ff16118015613efc5750603c8760ff16105b8015613f0b5750601e8960ff16105b15613f39575060408051808201909152600c81526b6d6174636820737469636b7360a01b6020820152614503565b60328f60ff16118015613f4f5750606e8760ff16105b8015613f5e575060468860ff16115b8015613f6d5750603c8960ff16105b15613f9b575060408051808201909152600c81526b6672656e636820667269657360a01b6020820152614503565b60508f60ff16118015613fb15750603c8760ff16105b8015613fc0575060828960ff16115b15613fec575060408051808201909152600a815269189a5c991cc81b995cdd60b21b6020820152614503565b60468f60ff16118015614002575060468960ff16105b8015614011575060c88860ff16115b8015614031575060198a61ffff161115806140315750609b8a61ffff1610155b1561405a575060408051808201909152600781526670696c6c61727360c81b6020820152614503565b60468f60ff16118015614070575060468960ff16105b801561407f575060c88860ff16115b80156140a0575060738a61ffff16111580156140a0575060418a61ffff1610155b156140c85750604080518082019091526006815265627269636b7360d01b6020820152614503565b603c8f60ff161180156140de575060468860ff16115b80156140ee5750601e8960ff1611155b80156140fe575060058960ff1610155b801561411e575060058a61ffff1611158061411e575060af8a61ffff1610155b1561415d575060408051808201909152600f81527f636c7574746572656420626f6f6b7300000000000000000000000000000000006020820152614503565b60378f60ff16118015614173575060468860ff16115b80156141835750601e8960ff1611155b8015614194575060558a61ffff1610155b80156141a55750605f8a61ffff1611155b156141d4575060408051808201909152600d81526c737461636b656420626f6f6b7360981b6020820152614503565b60378f60ff161180156141ea575060328860ff16115b80156141f9575060968760ff16105b8015614208575060328960ff16105b8015614219575060508a61ffff1610155b801561422a575060648a61ffff1611155b15614259575060408051808201909152600d81526c313937b5b2b7103630b23232b960991b6020820152614503565b60198860ff1611801561426f575060c88760ff16105b801561427f5750600f8960ff1611155b156142a857506040805180820190915260078152666a69747465727360c81b6020820152614503565b60288760ff1610156142d95750604080518082019091526008815267747769676c65747360c01b6020820152614503565b603c8f60ff161180156142ef5750603c8960ff16105b8015614300575060328a61ffff1610155b8015614311575060828a61ffff1611155b801561432a575060966143248989615adc565b60ff1610155b15614369575060408051808201909152601381527f636f6c6c617073696e67206275696c64696e67000000000000000000000000006020820152614503565b60328f60ff1611801561437f575060c88860ff16115b156143a75750604080518082019091526006815265626c6f636b7360d01b6020820152614503565b605a8f60ff161180156143c7575060966143c18989615adc565b60ff1610155b80156143d6575060968960ff16115b15614403575060408051808201909152600b81526a6d6173746572706965636560a81b6020820152614503565b60648960ff16118015614419575060968760ff16105b1561444157506040805180820190915260068152656c756e61637960d01b6020820152614503565b603c8960ff16108015614457575060968860ff16115b15614484575060408051808201909152600b81526a7472616e7175696c69747960a81b6020820152614503565b60788860ff1611156144b157506040805180820190915260048152636261727360e01b6020820152614503565b60648760ff1610156144df57506040805180820190915260058152646c696e657360d81b6020820152614503565b5060408051808201909152600b81526a30b139ba3930b1ba34b7b760a91b60208201525b60608151600014614556576000826040516020016145219190615426565b6040516020818303038152906040529050806040516020016145439190614f6a565b6040516020818303038152906040529150505b8351156145a7576000846040516020016145709190614f90565b60405160208183030381529060405290508181604051602001614594929190614c66565b6040516020818303038152906040529150505b8251156145f8576000836040516020016145c191906153c5565b604051602081830303815290604052905081816040516020016145e5929190614c66565b6040516020818303038152906040529150505b9f9e505050505050505050505050505050565b60006001600160e01b031982166380ac58cd60e01b148061463c57506001600160e01b03198216635b5e139f60e01b145b8061069b57506301ffc9a760e01b6001600160e01b031983161461069b565b6000600161466884610d3e565b6146729190615ac5565b6000838152600760205260409020549091508082146146c5576001600160a01b03841660009081526006602090815260408083208584528252808320548484528184208190558352600790915290208190555b5060009182526007602090815260408084208490556001600160a01b039094168352600681528383209183525290812055565b60085460009061470a90600190615ac5565b6000838152600960205260408120546008805493945090928490811061474057634e487b7160e01b600052603260045260246000fd5b90600052602060002001549050806008838154811061476f57634e487b7160e01b600052603260045260246000fd5b60009182526020808320909101929092558281526009909152604080822084905585825281205560088054806147b557634e487b7160e01b600052603160045260246000fd5b6001900381819060005260206000200160009055905550505050565b60006147dc83610d3e565b6001600160a01b039093166000908152600660209081526040808320868452825280832085905593825260079052919091209190915550565b80356001600160a01b038116811461482c57600080fd5b919050565b803561ffff8116811461482c57600080fd5b803562ffffff8116811461482c57600080fd5b803560ff8116811461482c57600080fd5b600060208284031215614878578081fd5b612d8f82614815565b60008060408385031215614893578081fd5b61489c83614815565b91506148aa60208401614815565b90509250929050565b6000806000606084860312156148c7578081fd5b6148d084614815565b92506148de60208501614815565b9150604084013590509250925092565b60008060008060808587031215614903578081fd5b61490c85614815565b9350602061491b818701614815565b935060408601359250606086013567ffffffffffffffff8082111561493e578384fd5b818801915088601f830112614951578384fd5b81358181111561496357614963615be2565b614975601f8201601f19168501615a01565b9150808252898482850101111561498a578485fd5b8084840185840137810190920192909252939692955090935050565b600080604083850312156149b8578182fd5b6149c183614815565b9150602083013580151581146149d5578182fd5b809150509250929050565b600080604083850312156149f2578182fd5b6149fb83614815565b946020939093013593505050565b60006020808385031215614a1b578182fd5b823567ffffffffffffffff80821115614a32578384fd5b818501915085601f830112614a45578384fd5b813581811115614a5757614a57615be2565b8060051b9150614a68848301615a01565b8181528481019084860184860187018a1015614a82578788fd5b8795505b83861015614aab57614a9781614843565b835260019590950194918601918601614a86565b5098975050505050505050565b600060208284031215614ac9578081fd5b8135612d8f81615bf8565b600060208284031215614ae5578081fd5b8151612d8f81615bf8565b600060208284031215614b01578081fd5b612d8f82614831565b6000806000806000806000806000806000806101808d8f031215614b2c578788fd5b614b358d614843565b9b50614b4360208e01614856565b9a50614b5160408e01614856565b9950614b5f60608e01614856565b9850614b6d60808e01614856565b9750614b7b60a08e01614856565b9650614b8960c08e01614831565b9550614b9760e08e01614856565b9450614ba66101008e01614856565b9350614bb56101208e01614856565b9250614bc46101408e01614856565b9150614bd36101608e01614856565b90509295989b509295989b509295989b565b600060208284031215614bf6578081fd5b5035919050565b60008060408385031215614c0f578182fd5b50508035926020909101359150565b60008151808452614c36816020860160208601615aff565b601f01601f19169290920160200192915050565b60008151614c5c818560208601615aff565b9290920192915050565b60008351614c78818460208801615aff565b835190830190614c8c818360208801615aff565b61016160f51b9101908152600201949350505050565b60008851614cb4818460208d01615aff565b683c7265637420783d2760b81b9083019081528851614cda816009840160208d01615aff565b7f2720793d2730272077696474683d270000000000000000000000000000000000600992909101918201528751614d18816018840160208c01615aff565b7f27206865696768743d2732303030272066696c6c3d2700000000000000000000601892909101918201528651614d5681602e840160208b01615aff565b7f27206f7061636974793d27302e38270000000000000000000000000000000000602e92909101918201527f207472616e73666f726d3d27726f746174652800000000000000000000000000603d820152614e8a614e3b614e35614e02614dfc614dc3605087018c614c4a565b7f2031303030203130303029273e3c616e696d61746520626567696e3d2027307381526627206475723d2760c81b602082015260270190565b89614c4a565b7f6d7327206174747269627574654e616d653d2766696c6c272076616c7565733d8152602760f81b602082015260210190565b86614c4a565b7f3b272066696c6c3d27667265657a652720726570656174436f756e743d27696e81527f646566696e697465272f3e3c2f726563743e0000000000000000000000000000602082015260320190565b9a9950505050505050505050565b60008551614eaa818460208a01615aff565b8083019050600160fd1b8082528651614eca816001850160208b01615aff565b600192019182018190528551614ee7816002850160208a01615aff565b60029201918201528351614f02816003840160208801615aff565b016003019695505050505050565b60008451614f22818460208901615aff565b8083019050603b60f81b8082528551614f42816001850160208a01615aff565b60019201918201528351614f5d816002840160208801615aff565b0160020195945050505050565b60008251614f7c818460208701615aff565b61016160f51b920191825250600201919050565b7f7b2274726169745f74797065223a20227370656564222c202276616c7565223a815261101160f11b602082015260008251614fd3816022850160208701615aff565b61227d60f01b6022939091019283015250602401919050565b63783d272d60e01b81526000855161500b816004850160208a01615aff565b652720793d272d60d01b600491840191820152855161503181600a840160208a01615aff565b68272077696474683d2760b81b600a9290910191820152845161505b816013840160208901615aff565b6927206865696768743d2760b01b60139290910191820152835161508681601d840160208801615aff565b602760f81b601d9290910191820152601e019695505050505050565b630e4cec4560e31b8152600084516150c1816004850160208901615aff565b808301905061016160f51b80600483015285516150e5816006850160208a01615aff565b60069201918201528351615100816008840160208801615aff565b602960f81b6008929091019182015260090195945050505050565b7f3c73766720786d6c6e733d27687474703a2f2f7777772e77332e6f72672f323081527f30302f737667272076696577426f783d27000000000000000000000000000000602082015260008551615179816031850160208a01615aff565b7f272073686170652d72656e646572696e673d270000000000000000000000000060319184019182015285516151b6816044840160208a01615aff565b61139f60f11b6044929091019182015284516151d9816046840160208901615aff565b7f3c6720636c69702d706174683d2775726c28236d6173746572436c697029273e604692909101918201528351615217816066840160208801615aff565b691e17b39f1e17b9bb339f60b11b606692909101918201526070019695505050505050565b7f7b2274726169745f74797065223a20227a6f6f6d222c202276616c7565223a208152601160f91b60208201526000825161527e816021850160208701615aff565b61227d60f01b6021939091019283015250602301919050565b7f7b2274726169745f74797065223a2022726f746174696f6e206465677265657381526c111610113b30b63ab2911d101160991b6020820152600083516152e581602d850160208801615aff565b7f227d2c207b2274726169745f74797065223a2022726f746174696f6e2072616e602d918401918201527f6765222c202276616c7565223a20220000000000000000000000000000000000604d820152835161534881605c840160208801615aff565b61227d60f01b605c9290910191820152605e01949350505050565b7f7b2274726169745f74797065223a202274696e7420636f6c6f7572222c20227681526730b63ab2911d101160c11b6020820152600082516153ac816028850160208701615aff565b61227d60f01b6028939091019283015250602a01919050565b7f7b2274726169745f74797065223a2022636f6c6f757220776179222c20227661815266363ab2911d101160c91b60208201526000825161540d816027850160208701615aff565b61227d60f01b6027939091019283015250602901919050565b7f7b2274726169745f74797065223a2022666f726d222c202276616c7565223a208152601160f91b60208201526000825161527e816021850160208701615aff565b7f2261747472696275746573223a205b000000000000000000000000000000000081526000875160206154a182600f8601838d01615aff565b8851918401916154b781600f8501848d01615aff565b80830192505061016160f51b80600f84015288516154db8160118601858d01615aff565b6011930192830181905287516154f78160138601858c01615aff565b6013930192830181905286516155138160158601858b01615aff565b6015930192830152845161552d8160178501848901615aff565b615543601782850101605d60f81b815260010190565b9b9a5050505050505050505050565b62783d2760e81b815260008551615570816003850160208a01615aff565b642720793d2760d81b6003918401918201528551615595816008840160208a01615aff565b68272077696474683d2760b81b6008929091019182015284516155bf816011840160208901615aff565b6927206865696768743d2760b01b6011929091019182015283516155ea81601b840160208801615aff565b602760f81b601b9290910191820152601c019695505050505050565b7f7b2274726169745f74797065223a20227370656564206d696e222c202276616c8152653ab2911d101160d11b60208201526000835161564d816026850160208801615aff565b7f227d2c207b2274726169745f74797065223a20227370656564206d6178222c2060269184019182015269113b30b63ab2911d101160b11b6046820152835161569d816050840160208801615aff565b61227d60f01b60509290910191820152605201949350505050565b602d60f81b8152600085516156d4816001850160208a01615aff565b61202d60f01b60019184019182015285516156f6816003840160208a01615aff565b808201915050600160fd1b806003830152855161571a816004850160208a01615aff565b60049201918201528351615735816005840160208801615aff565b016005019695505050505050565b7f646174613a746578742f706c61696e2c7b226e616d65223a2244796e6153747281526569706573202360d01b60208201526000855161578a816026850160208a01615aff565b7f222c20226465736372697074696f6e223a226f6e2d636861696e2c2067656e656026918401918201527f7261746976652044796e615374726970657320617274776f726b222c20000000604682015285516157ed816063840160208a01615aff565b61016160f51b606392909101918201528451615810816065840160208901615aff565b7f2c2022696d616765223a22646174613a696d6167652f7376672b786d6c2c000060659290910191820152835161584e816083840160208801615aff565b61227d60f01b608392909101918201526085019695505050505050565b7f7b2274726169745f74797065223a2022737472697065207769647468206d696e81526c111610113b30b63ab2911d101160991b6020820152600083516158b981602d850160208801615aff565b7f227d2c207b2274726169745f74797065223a2022737472697065207769647468602d918401918201527f206d6178222c202276616c7565223a2022000000000000000000000000000000604d820152835161591c81605e840160208801615aff565b61227d60f01b605e9290910191820152606001949350505050565b7f3c646566733e3c636c6970506174682069643d276d6173746572436c6970273e81526501e3932b1ba160d51b60208201526000825161597e816026850160208701615aff565b7f2f3e3c2f636c6970506174683e3c2f646566733e0000000000000000000000006026939091019283015250603a01919050565b60006001600160a01b038087168352808616602084015250836040830152608060608301526159e46080830184614c1e565b9695505050505050565b602081526000612d8f6020830184614c1e565b604051601f8201601f1916810167ffffffffffffffff81118282101715615a2a57615a2a615be2565b604052919050565b600061ffff808316818516808303821115615a4f57615a4f615bb6565b01949350505050565b60008219821115615a6b57615a6b615bb6565b500190565b600082615a7f57615a7f615bcc565b500490565b600060ff831680615a9757615a97615bcc565b8060ff84160491505092915050565b6000816000190483118215151615615ac057615ac0615bb6565b500290565b600082821015615ad757615ad7615bb6565b500390565b600060ff821660ff841680821015615af657615af6615bb6565b90039392505050565b60005b83811015615b1a578181015183820152602001615b02565b8381111561182c5750506000910152565b600181811c90821680615b3f57607f821691505b60208210811415615b6057634e487b7160e01b600052602260045260246000fd5b50919050565b6000600019821415615b7a57615b7a615bb6565b5060010190565b600061ffff80841680615b9657615b96615bcc565b92169190910692915050565b600082615bb157615bb1615bcc565b500690565b634e487b7160e01b600052601160045260246000fd5b634e487b7160e01b600052601260045260246000fd5b634e487b7160e01b600052604160045260246000fd5b6001600160e01b031981168114610c2357600080fdfe68747470733a2f2f7777772e64796e61737472697065732e636f6d2f73746f726566726f6e742d6d657461646174614f776e61626c653a2063616c6c6572206973206e6f7420746865206f776e6572a26469706673582212208ae0702552b4cdd5d38a6187ca08333f4ba7e9fcd8f13559fdbd1631ee5c5d3564736f6c63430008040033",
  "linkReferences": {},
  "deployedLinkReferences": {}
}