{
  "_format": "hh-sol-artifact-1",
  "contractName": "ColourPulse",
  "sourceName": "contracts/ColourPulse.sol",
  "abi": [
    {
      "inputs": [],
      "stateMutability": "nonpayable",
      "type": "constructor"
    },
    {
      "anonymous": false,
      "inputs": [
        {
          "indexed": true,
          "internalType": "address",
          "name": "owner",
          "type": "address"
        },
        {
          "indexed": true,
          "internalType": "address",
          "name": "approved",
          "type": "address"
        },
        {
          "indexed": true,
          "internalType": "uint256",
          "name": "tokenId",
          "type": "uint256"
        }
      ],
      "name": "Approval",
      "type": "event"
    },
    {
      "anonymous": false,
      "inputs": [
        {
          "indexed": true,
          "internalType": "address",
          "name": "owner",
          "type": "address"
        },
        {
          "indexed": true,
          "internalType": "address",
          "name": "operator",
          "type": "address"
        },
        {
          "indexed": false,
          "internalType": "bool",
          "name": "approved",
          "type": "bool"
        }
      ],
      "name": "ApprovalForAll",
      "type": "event"
    },
    {
      "anonymous": false,
      "inputs": [
        {
          "indexed": false,
          "internalType": "address",
          "name": "account",
          "type": "address"
        }
      ],
      "name": "Paused",
      "type": "event"
    },
    {
      "anonymous": false,
      "inputs": [
        {
          "indexed": true,
          "internalType": "bytes32",
          "name": "role",
          "type": "bytes32"
        },
        {
          "indexed": true,
          "internalType": "bytes32",
          "name": "previousAdminRole",
          "type": "bytes32"
        },
        {
          "indexed": true,
          "internalType": "bytes32",
          "name": "newAdminRole",
          "type": "bytes32"
        }
      ],
      "name": "RoleAdminChanged",
      "type": "event"
    },
    {
      "anonymous": false,
      "inputs": [
        {
          "indexed": true,
          "internalType": "bytes32",
          "name": "role",
          "type": "bytes32"
        },
        {
          "indexed": true,
          "internalType": "address",
          "name": "account",
          "type": "address"
        },
        {
          "indexed": true,
          "internalType": "address",
          "name": "sender",
          "type": "address"
        }
      ],
      "name": "RoleGranted",
      "type": "event"
    },
    {
      "anonymous": false,
      "inputs": [
        {
          "indexed": true,
          "internalType": "bytes32",
          "name": "role",
          "type": "bytes32"
        },
        {
          "indexed": true,
          "internalType": "address",
          "name": "account",
          "type": "address"
        },
        {
          "indexed": true,
          "internalType": "address",
          "name": "sender",
          "type": "address"
        }
      ],
      "name": "RoleRevoked",
      "type": "event"
    },
    {
      "anonymous": false,
      "inputs": [
        {
          "indexed": true,
          "internalType": "address",
          "name": "from",
          "type": "address"
        },
        {
          "indexed": true,
          "internalType": "address",
          "name": "to",
          "type": "address"
        },
        {
          "indexed": true,
          "internalType": "uint256",
          "name": "tokenId",
          "type": "uint256"
        }
      ],
      "name": "Transfer",
      "type": "event"
    },
    {
      "anonymous": false,
      "inputs": [
        {
          "indexed": false,
          "internalType": "address",
          "name": "account",
          "type": "address"
        }
      ],
      "name": "Unpaused",
      "type": "event"
    },
    {
      "inputs": [],
      "name": "DEFAULT_ADMIN_ROLE",
      "outputs": [
        {
          "internalType": "bytes32",
          "name": "",
          "type": "bytes32"
        }
      ],
      "stateMutability": "view",
      "type": "function"
    },
    {
      "inputs": [],
      "name": "MINTER_ROLE",
      "outputs": [
        {
          "internalType": "bytes32",
          "name": "",
          "type": "bytes32"
        }
      ],
      "stateMutability": "view",
      "type": "function"
    },
    {
      "inputs": [],
      "name": "PAUSER_ROLE",
      "outputs": [
        {
          "internalType": "bytes32",
          "name": "",
          "type": "bytes32"
        }
      ],
      "stateMutability": "view",
      "type": "function"
    },
    {
      "inputs": [
        {
          "internalType": "address",
          "name": "to",
          "type": "address"
        },
        {
          "internalType": "uint256",
          "name": "tokenId",
          "type": "uint256"
        }
      ],
      "name": "approve",
      "outputs": [],
      "stateMutability": "nonpayable",
      "type": "function"
    },
    {
      "inputs": [
        {
          "internalType": "address",
          "name": "owner",
          "type": "address"
        }
      ],
      "name": "balanceOf",
      "outputs": [
        {
          "internalType": "uint256",
          "name": "",
          "type": "uint256"
        }
      ],
      "stateMutability": "view",
      "type": "function"
    },
    {
      "inputs": [
        {
          "internalType": "uint256",
          "name": "tokenId",
          "type": "uint256"
        }
      ],
      "name": "burn",
      "outputs": [],
      "stateMutability": "nonpayable",
      "type": "function"
    },
    {
      "inputs": [
        {
          "internalType": "uint256",
          "name": "_tokenId",
          "type": "uint256"
        }
      ],
      "name": "generateSvg",
      "outputs": [
        {
          "internalType": "string",
          "name": "",
          "type": "string"
        }
      ],
      "stateMutability": "view",
      "type": "function"
    },
    {
      "inputs": [
        {
          "internalType": "uint256",
          "name": "tokenId",
          "type": "uint256"
        }
      ],
      "name": "getApproved",
      "outputs": [
        {
          "internalType": "address",
          "name": "",
          "type": "address"
        }
      ],
      "stateMutability": "view",
      "type": "function"
    },
    {
      "inputs": [
        {
          "internalType": "bytes32",
          "name": "role",
          "type": "bytes32"
        }
      ],
      "name": "getRoleAdmin",
      "outputs": [
        {
          "internalType": "bytes32",
          "name": "",
          "type": "bytes32"
        }
      ],
      "stateMutability": "view",
      "type": "function"
    },
    {
      "inputs": [
        {
          "internalType": "bytes32",
          "name": "role",
          "type": "bytes32"
        },
        {
          "internalType": "address",
          "name": "account",
          "type": "address"
        }
      ],
      "name": "grantRole",
      "outputs": [],
      "stateMutability": "nonpayable",
      "type": "function"
    },
    {
      "inputs": [
        {
          "internalType": "bytes32",
          "name": "role",
          "type": "bytes32"
        },
        {
          "internalType": "address",
          "name": "account",
          "type": "address"
        }
      ],
      "name": "hasRole",
      "outputs": [
        {
          "internalType": "bool",
          "name": "",
          "type": "bool"
        }
      ],
      "stateMutability": "view",
      "type": "function"
    },
    {
      "inputs": [
        {
          "internalType": "address",
          "name": "owner",
          "type": "address"
        },
        {
          "internalType": "address",
          "name": "operator",
          "type": "address"
        }
      ],
      "name": "isApprovedForAll",
      "outputs": [
        {
          "internalType": "bool",
          "name": "",
          "type": "bool"
        }
      ],
      "stateMutability": "view",
      "type": "function"
    },
    {
      "inputs": [],
      "name": "isSenderAdmin",
      "outputs": [
        {
          "internalType": "bool",
          "name": "",
          "type": "bool"
        }
      ],
      "stateMutability": "view",
      "type": "function"
    },
    {
      "inputs": [
        {
          "internalType": "uint256",
          "name": "_rotationDegrees",
          "type": "uint256"
        },
        {
          "internalType": "uint256",
          "name": "_stripeWidth",
          "type": "uint256"
        },
        {
          "internalType": "uint256",
          "name": "_palette",
          "type": "uint256"
        },
        {
          "internalType": "uint256",
          "name": "_speed",
          "type": "uint256"
        }
      ],
      "name": "mintStripes",
      "outputs": [],
      "stateMutability": "nonpayable",
      "type": "function"
    },
    {
      "inputs": [],
      "name": "name",
      "outputs": [
        {
          "internalType": "string",
          "name": "",
          "type": "string"
        }
      ],
      "stateMutability": "view",
      "type": "function"
    },
    {
      "inputs": [
        {
          "internalType": "uint256",
          "name": "tokenId",
          "type": "uint256"
        }
      ],
      "name": "ownerOf",
      "outputs": [
        {
          "internalType": "address",
          "name": "",
          "type": "address"
        }
      ],
      "stateMutability": "view",
      "type": "function"
    },
    {
      "inputs": [],
      "name": "pause",
      "outputs": [],
      "stateMutability": "nonpayable",
      "type": "function"
    },
    {
      "inputs": [],
      "name": "paused",
      "outputs": [
        {
          "internalType": "bool",
          "name": "",
          "type": "bool"
        }
      ],
      "stateMutability": "view",
      "type": "function"
    },
    {
      "inputs": [
        {
          "internalType": "bytes32",
          "name": "role",
          "type": "bytes32"
        },
        {
          "internalType": "address",
          "name": "account",
          "type": "address"
        }
      ],
      "name": "renounceRole",
      "outputs": [],
      "stateMutability": "nonpayable",
      "type": "function"
    },
    {
      "inputs": [
        {
          "internalType": "bytes32",
          "name": "role",
          "type": "bytes32"
        },
        {
          "internalType": "address",
          "name": "account",
          "type": "address"
        }
      ],
      "name": "revokeRole",
      "outputs": [],
      "stateMutability": "nonpayable",
      "type": "function"
    },
    {
      "inputs": [
        {
          "internalType": "address",
          "name": "from",
          "type": "address"
        },
        {
          "internalType": "address",
          "name": "to",
          "type": "address"
        },
        {
          "internalType": "uint256",
          "name": "tokenId",
          "type": "uint256"
        }
      ],
      "name": "safeTransferFrom",
      "outputs": [],
      "stateMutability": "nonpayable",
      "type": "function"
    },
    {
      "inputs": [
        {
          "internalType": "address",
          "name": "from",
          "type": "address"
        },
        {
          "internalType": "address",
          "name": "to",
          "type": "address"
        },
        {
          "internalType": "uint256",
          "name": "tokenId",
          "type": "uint256"
        },
        {
          "internalType": "bytes",
          "name": "_data",
          "type": "bytes"
        }
      ],
      "name": "safeTransferFrom",
      "outputs": [],
      "stateMutability": "nonpayable",
      "type": "function"
    },
    {
      "inputs": [
        {
          "internalType": "address",
          "name": "operator",
          "type": "address"
        },
        {
          "internalType": "bool",
          "name": "approved",
          "type": "bool"
        }
      ],
      "name": "setApprovalForAll",
      "outputs": [],
      "stateMutability": "nonpayable",
      "type": "function"
    },
    {
      "inputs": [
        {
          "internalType": "bytes4",
          "name": "interfaceId",
          "type": "bytes4"
        }
      ],
      "name": "supportsInterface",
      "outputs": [
        {
          "internalType": "bool",
          "name": "",
          "type": "bool"
        }
      ],
      "stateMutability": "view",
      "type": "function"
    },
    {
      "inputs": [],
      "name": "symbol",
      "outputs": [
        {
          "internalType": "string",
          "name": "",
          "type": "string"
        }
      ],
      "stateMutability": "view",
      "type": "function"
    },
    {
      "inputs": [
        {
          "internalType": "uint256",
          "name": "index",
          "type": "uint256"
        }
      ],
      "name": "tokenByIndex",
      "outputs": [
        {
          "internalType": "uint256",
          "name": "",
          "type": "uint256"
        }
      ],
      "stateMutability": "view",
      "type": "function"
    },
    {
      "inputs": [
        {
          "internalType": "address",
          "name": "owner",
          "type": "address"
        },
        {
          "internalType": "uint256",
          "name": "index",
          "type": "uint256"
        }
      ],
      "name": "tokenOfOwnerByIndex",
      "outputs": [
        {
          "internalType": "uint256",
          "name": "",
          "type": "uint256"
        }
      ],
      "stateMutability": "view",
      "type": "function"
    },
    {
      "inputs": [
        {
          "internalType": "uint256",
          "name": "tokenId",
          "type": "uint256"
        }
      ],
      "name": "tokenURI",
      "outputs": [
        {
          "internalType": "string",
          "name": "",
          "type": "string"
        }
      ],
      "stateMutability": "view",
      "type": "function"
    },
    {
      "inputs": [],
      "name": "totalSupply",
      "outputs": [
        {
          "internalType": "uint256",
          "name": "",
          "type": "uint256"
        }
      ],
      "stateMutability": "view",
      "type": "function"
    },
    {
      "inputs": [
        {
          "internalType": "address",
          "name": "from",
          "type": "address"
        },
        {
          "internalType": "address",
          "name": "to",
          "type": "address"
        },
        {
          "internalType": "uint256",
          "name": "tokenId",
          "type": "uint256"
        }
      ],
      "name": "transferFrom",
      "outputs": [],
      "stateMutability": "nonpayable",
      "type": "function"
    },
    {
      "inputs": [],
      "name": "unpause",
      "outputs": [],
      "stateMutability": "nonpayable",
      "type": "function"
    }
  ],
  "bytecode": "0x60806040523480156200001157600080fd5b506040518060400160405280600b81526020017f436f6c6f757250756c73650000000000000000000000000000000000000000008152506040518060400160405280600381526020017f434c500000000000000000000000000000000000000000000000000000000000815250816000908051906020019062000096929190620002c7565b508060019080519060200190620000af929190620002c7565b5050506000600b60006101000a81548160ff021916908315150217905550620000e26000801b336200014c60201b60201c565b620001147f65d7a28e3265b37a6474929f336521b332c1681b933f6cb9f3376673440d862a336200014c60201b60201c565b620001467f9f2df0fed2c77648de5860a4cc508cd0818c85b8b8a1ab4ceeef8d981c8956a6336200014c60201b60201c565b620003dc565b6200015e82826200016260201b60201c565b5050565b6200017482826200025460201b60201c565b62000250576001600c600084815260200190815260200160002060000160008373ffffffffffffffffffffffffffffffffffffffff1673ffffffffffffffffffffffffffffffffffffffff16815260200190815260200160002060006101000a81548160ff021916908315150217905550620001f5620002bf60201b60201c565b73ffffffffffffffffffffffffffffffffffffffff168173ffffffffffffffffffffffffffffffffffffffff16837f2f8788117e7eff1d82e926ec794901d17c78024a50270940304540a733656f0d60405160405180910390a45b5050565b6000600c600084815260200190815260200160002060000160008373ffffffffffffffffffffffffffffffffffffffff1673ffffffffffffffffffffffffffffffffffffffff16815260200190815260200160002060009054906101000a900460ff16905092915050565b600033905090565b828054620002d59062000377565b90600052602060002090601f016020900481019282620002f9576000855562000345565b82601f106200031457805160ff191683800117855562000345565b8280016001018555821562000345579182015b828111156200034457825182559160200191906001019062000327565b5b50905062000354919062000358565b5090565b5b808211156200037357600081600090555060010162000359565b5090565b600060028204905060018216806200039057607f821691505b60208210811415620003a757620003a6620003ad565b5b50919050565b7f4e487b7100000000000000000000000000000000000000000000000000000000600052602260045260246000fd5b6157c680620003ec6000396000f3fe608060405234801561001057600080fd5b50600436106101e55760003560e01c80634f6ccce71161010f578063a22cb465116100a2578063d539139311610071578063d53913931461058e578063d547741f146105ac578063e63ab1e9146105c8578063e985e9c5146105e6576101e5565b8063a22cb465146104f6578063b88d4fde14610512578063bc921dc21461052e578063c87b56dd1461055e576101e5565b80638456cb59116100de5780638456cb591461048057806391d148541461048a57806395d89b41146104ba578063a217fddf146104d8576101e5565b80634f6ccce7146103d25780635c975abb146104025780636352211e1461042057806370a0823114610450576101e5565b8063248a9ca3116101875780633814605e116101565780633814605e146103745780633f4ba83a1461039057806342842e0e1461039a57806342966c68146103b6576101e5565b8063248a9ca3146102dc5780632f2ff15d1461030c5780632f745c591461032857806336568abe14610358576101e5565b8063095ea7b3116101c3578063095ea7b31461026857806318160ddd146102845780631d0d4e8b146102a257806323b872dd146102c0576101e5565b806301ffc9a7146101ea57806306fdde031461021a578063081812fc14610238575b600080fd5b61020460048036038101906101ff919061390f565b610616565b60405161021191906143ee565b60405180910390f35b610222610628565b60405161022f9190614424565b60405180910390f35b610252600480360381019061024d9190613961565b6106ba565b60405161025f9190614387565b60405180910390f35b610282600480360381019061027d919061386e565b61073f565b005b61028c610857565b60405161029991906147a6565b60405180910390f35b6102aa610864565b6040516102b791906143ee565b60405180910390f35b6102da60048036038101906102d59190613768565b610878565b005b6102f660048036038101906102f191906138aa565b6108d8565b6040516103039190614409565b60405180910390f35b610326600480360381019061032191906138d3565b6108f8565b005b610342600480360381019061033d919061386e565b610921565b60405161034f91906147a6565b60405180910390f35b610372600480360381019061036d91906138d3565b6109c6565b005b61038e6004803603810190610389919061398a565b610a49565b005b610398610c12565b005b6103b460048036038101906103af9190613768565b610c4f565b005b6103d060048036038101906103cb9190613961565b610c6f565b005b6103ec60048036038101906103e79190613961565b610ccb565b6040516103f991906147a6565b60405180910390f35b61040a610d62565b60405161041791906143ee565b60405180910390f35b61043a60048036038101906104359190613961565b610d79565b6040516104479190614387565b60405180910390f35b61046a60048036038101906104659190613703565b610e2b565b60405161047791906147a6565b60405180910390f35b610488610ee3565b005b6104a4600480360381019061049f91906138d3565b610f20565b6040516104b191906143ee565b60405180910390f35b6104c2610f8b565b6040516104cf9190614424565b60405180910390f35b6104e061101d565b6040516104ed9190614409565b60405180910390f35b610510600480360381019061050b9190613832565b611024565b005b61052c600480360381019061052791906137b7565b6111a5565b005b61054860048036038101906105439190613961565b611207565b6040516105559190614424565b60405180910390f35b61057860048036038101906105739190613961565b6113e8565b6040516105859190614424565b60405180910390f35b6105966113fa565b6040516105a39190614409565b60405180910390f35b6105c660048036038101906105c191906138d3565b61141e565b005b6105d0611447565b6040516105dd9190614409565b60405180910390f35b61060060048036038101906105fb919061372c565b61146b565b60405161060d91906143ee565b60405180910390f35b6000610621826114ff565b9050919050565b60606000805461063790614a9d565b80601f016020809104026020016040519081016040528092919081815260200182805461066390614a9d565b80156106b05780601f10610685576101008083540402835291602001916106b0565b820191906000526020600020905b81548152906001019060200180831161069357829003601f168201915b5050505050905090565b60006106c582611579565b610704576040517f08c379a00000000000000000000000000000000000000000000000000000000081526004016106fb906146a6565b60405180910390fd5b6004600083815260200190815260200160002060009054906101000a900473ffffffffffffffffffffffffffffffffffffffff169050919050565b600061074a82610d79565b90508073ffffffffffffffffffffffffffffffffffffffff168373ffffffffffffffffffffffffffffffffffffffff1614156107bb576040517f08c379a00000000000000000000000000000000000000000000000000000000081526004016107b290614706565b60405180910390fd5b8073ffffffffffffffffffffffffffffffffffffffff166107da6115e5565b73ffffffffffffffffffffffffffffffffffffffff1614806108095750610808816108036115e5565b61146b565b5b610848576040517f08c379a000000000000000000000000000000000000000000000000000000000815260040161083f906145a6565b60405180910390fd5b61085283836115ed565b505050565b6000600880549050905090565b60006108736000801b33610f20565b905090565b6108896108836115e5565b826116a6565b6108c8576040517f08c379a00000000000000000000000000000000000000000000000000000000081526004016108bf90614726565b60405180910390fd5b6108d3838383611784565b505050565b6000600c6000838152602001908152602001600020600101549050919050565b610901826108d8565b6109128161090d6115e5565b6119e0565b61091c8383611a7d565b505050565b600061092c83610e2b565b821061096d576040517f08c379a0000000000000000000000000000000000000000000000000000000008152600401610964906144a6565b60405180910390fd5b600660008473ffffffffffffffffffffffffffffffffffffffff1673ffffffffffffffffffffffffffffffffffffffff168152602001908152602001600020600083815260200190815260200160002054905092915050565b6109ce6115e5565b73ffffffffffffffffffffffffffffffffffffffff168173ffffffffffffffffffffffffffffffffffffffff1614610a3b576040517f08c379a0000000000000000000000000000000000000000000000000000000008152600401610a3290614786565b60405180910390fd5b610a458282611b5e565b5050565b600083101580610a5a575060648311155b610a99576040517f08c379a0000000000000000000000000000000000000000000000000000000008152600401610a9090614626565b60405180910390fd5b600084101580610aab57506101688411155b610aea576040517f08c379a0000000000000000000000000000000000000000000000000000000008152600401610ae1906145c6565b60405180910390fd5b600082101580610afb575060648211155b610b3a576040517f08c379a0000000000000000000000000000000000000000000000000000000008152600401610b3190614486565b60405180910390fd5b600081101580610b4b575060648111155b610b8a576040517f08c379a0000000000000000000000000000000000000000000000000000000008152600401610b8190614506565b60405180910390fd5b6000610b96600d611c40565b9050610ba23382611c4e565b604051806080016040528086815260200185815260200184815260200183815250600e600083815260200190815260200160002060008201518160000155602082015181600101556040820151816002015560608201518160030155905050610c0b600d611c6c565b5050505050565b7f65d7a28e3265b37a6474929f336521b332c1681b933f6cb9f3376673440d862a610c4481610c3f6115e5565b6119e0565b610c4c611c82565b50565b610c6a838383604051806020016040528060008152506111a5565b505050565b610c80610c7a6115e5565b826116a6565b610cbf576040517f08c379a0000000000000000000000000000000000000000000000000000000008152600401610cb690614766565b60405180910390fd5b610cc881611d24565b50565b6000610cd5610857565b8210610d16576040517f08c379a0000000000000000000000000000000000000000000000000000000008152600401610d0d90614746565b60405180910390fd5b60088281548110610d50577f4e487b7100000000000000000000000000000000000000000000000000000000600052603260045260246000fd5b90600052602060002001549050919050565b6000600b60009054906101000a900460ff16905090565b6000806002600084815260200190815260200160002060009054906101000a900473ffffffffffffffffffffffffffffffffffffffff169050600073ffffffffffffffffffffffffffffffffffffffff168173ffffffffffffffffffffffffffffffffffffffff161415610e22576040517f08c379a0000000000000000000000000000000000000000000000000000000008152600401610e1990614606565b60405180910390fd5b80915050919050565b60008073ffffffffffffffffffffffffffffffffffffffff168273ffffffffffffffffffffffffffffffffffffffff161415610e9c576040517f08c379a0000000000000000000000000000000000000000000000000000000008152600401610e93906145e6565b60405180910390fd5b600360008373ffffffffffffffffffffffffffffffffffffffff1673ffffffffffffffffffffffffffffffffffffffff168152602001908152602001600020549050919050565b7f65d7a28e3265b37a6474929f336521b332c1681b933f6cb9f3376673440d862a610f1581610f106115e5565b6119e0565b610f1d611d30565b50565b6000600c600084815260200190815260200160002060000160008373ffffffffffffffffffffffffffffffffffffffff1673ffffffffffffffffffffffffffffffffffffffff16815260200190815260200160002060009054906101000a900460ff16905092915050565b606060018054610f9a90614a9d565b80601f0160208091040260200160405190810160405280929190818152602001828054610fc690614a9d565b80156110135780601f10610fe857610100808354040283529160200191611013565b820191906000526020600020905b815481529060010190602001808311610ff657829003601f168201915b5050505050905090565b6000801b81565b61102c6115e5565b73ffffffffffffffffffffffffffffffffffffffff168273ffffffffffffffffffffffffffffffffffffffff16141561109a576040517f08c379a000000000000000000000000000000000000000000000000000000000815260040161109190614546565b60405180910390fd5b80600560006110a76115e5565b73ffffffffffffffffffffffffffffffffffffffff1673ffffffffffffffffffffffffffffffffffffffff16815260200190815260200160002060008473ffffffffffffffffffffffffffffffffffffffff1673ffffffffffffffffffffffffffffffffffffffff16815260200190815260200160002060006101000a81548160ff0219169083151502179055508173ffffffffffffffffffffffffffffffffffffffff166111546115e5565b73ffffffffffffffffffffffffffffffffffffffff167f17307eab39ab6107e8899845ad3d59bd9653f200f220920489ca2b5937696c318360405161119991906143ee565b60405180910390a35050565b6111b66111b06115e5565b836116a6565b6111f5576040517f08c379a00000000000000000000000000000000000000000000000000000000081526004016111ec90614726565b60405180910390fd5b61120184848484611dd3565b50505050565b6060611213600d611c40565b821061121e57600080fd5b6000600e6000848152602001908152602001600020604051806080016040529081600082015481526020016001820154815260200160028201548152602001600382015481525050905060008360001b60405160200161127e91906140fe565b6040516020818303038152906040529050600061129c826000611e2f565b90506000806107d0905060006112b58660000151611e96565b6040516020016112c59190614305565b60405160208183030381529060405290505b60008211156113b857600083856112ee919061485a565b90506000611300886020015183611f14565b90508084101561130e578390505b600061131986611f73565b61132283611f73565b61132f8b60000151611f73565b61133d8c6060015187612148565b61134b8d60400151886121b3565b60405160200161135f959493929190614210565b60405160208183030381529060405290508381604051602001611383929190614119565b604051602081830303815290604052935081866113a0919061485a565b955081856113ae9190614972565b94505050506112d7565b806040516020016113c991906141ee565b6040516020818303038152906040529050809650505050505050919050565b60606113f382612233565b9050919050565b7f9f2df0fed2c77648de5860a4cc508cd0818c85b8b8a1ab4ceeef8d981c8956a681565b611427826108d8565b611438816114336115e5565b6119e0565b6114428383611b5e565b505050565b7f65d7a28e3265b37a6474929f336521b332c1681b933f6cb9f3376673440d862a81565b6000600560008473ffffffffffffffffffffffffffffffffffffffff1673ffffffffffffffffffffffffffffffffffffffff16815260200190815260200160002060008373ffffffffffffffffffffffffffffffffffffffff1673ffffffffffffffffffffffffffffffffffffffff16815260200190815260200160002060009054906101000a900460ff16905092915050565b60007f7965db0b000000000000000000000000000000000000000000000000000000007bffffffffffffffffffffffffffffffffffffffffffffffffffffffff1916827bffffffffffffffffffffffffffffffffffffffffffffffffffffffff19161480611572575061157182612385565b5b9050919050565b60008073ffffffffffffffffffffffffffffffffffffffff166002600084815260200190815260200160002060009054906101000a900473ffffffffffffffffffffffffffffffffffffffff1673ffffffffffffffffffffffffffffffffffffffff1614159050919050565b600033905090565b816004600083815260200190815260200160002060006101000a81548173ffffffffffffffffffffffffffffffffffffffff021916908373ffffffffffffffffffffffffffffffffffffffff160217905550808273ffffffffffffffffffffffffffffffffffffffff1661166083610d79565b73ffffffffffffffffffffffffffffffffffffffff167f8c5be1e5ebec7d5bd14f71427d1e84f3dd0314c0f7b2291e5b200ac8c7c3b92560405160405180910390a45050565b60006116b182611579565b6116f0576040517f08c379a00000000000000000000000000000000000000000000000000000000081526004016116e790614566565b60405180910390fd5b60006116fb83610d79565b90508073ffffffffffffffffffffffffffffffffffffffff168473ffffffffffffffffffffffffffffffffffffffff16148061176a57508373ffffffffffffffffffffffffffffffffffffffff16611752846106ba565b73ffffffffffffffffffffffffffffffffffffffff16145b8061177b575061177a818561146b565b5b91505092915050565b8273ffffffffffffffffffffffffffffffffffffffff166117a482610d79565b73ffffffffffffffffffffffffffffffffffffffff16146117fa576040517f08c379a00000000000000000000000000000000000000000000000000000000081526004016117f1906146c6565b60405180910390fd5b600073ffffffffffffffffffffffffffffffffffffffff168273ffffffffffffffffffffffffffffffffffffffff16141561186a576040517f08c379a000000000000000000000000000000000000000000000000000000000815260040161186190614526565b60405180910390fd5b6118758383836123ff565b6118806000826115ed565b6001600360008573ffffffffffffffffffffffffffffffffffffffff1673ffffffffffffffffffffffffffffffffffffffff16815260200190815260200160002060008282546118d09190614972565b925050819055506001600360008473ffffffffffffffffffffffffffffffffffffffff1673ffffffffffffffffffffffffffffffffffffffff1681526020019081526020016000206000828254611927919061485a565b92505081905550816002600083815260200190815260200160002060006101000a81548173ffffffffffffffffffffffffffffffffffffffff021916908373ffffffffffffffffffffffffffffffffffffffff160217905550808273ffffffffffffffffffffffffffffffffffffffff168473ffffffffffffffffffffffffffffffffffffffff167fddf252ad1be2c89b69c2b068fc378daa952ba7f163c4a11628f55a4df523b3ef60405160405180910390a4505050565b6119ea8282610f20565b611a7957611a0f8173ffffffffffffffffffffffffffffffffffffffff166014612457565b611a1d8360001c6020612457565b604051602001611a2e929190614332565b6040516020818303038152906040526040517f08c379a0000000000000000000000000000000000000000000000000000000008152600401611a709190614424565b60405180910390fd5b5050565b611a878282610f20565b611b5a576001600c600084815260200190815260200160002060000160008373ffffffffffffffffffffffffffffffffffffffff1673ffffffffffffffffffffffffffffffffffffffff16815260200190815260200160002060006101000a81548160ff021916908315150217905550611aff6115e5565b73ffffffffffffffffffffffffffffffffffffffff168173ffffffffffffffffffffffffffffffffffffffff16837f2f8788117e7eff1d82e926ec794901d17c78024a50270940304540a733656f0d60405160405180910390a45b5050565b611b688282610f20565b15611c3c576000600c600084815260200190815260200160002060000160008373ffffffffffffffffffffffffffffffffffffffff1673ffffffffffffffffffffffffffffffffffffffff16815260200190815260200160002060006101000a81548160ff021916908315150217905550611be16115e5565b73ffffffffffffffffffffffffffffffffffffffff168173ffffffffffffffffffffffffffffffffffffffff16837ff6391f5c32d9c69d2a47ea670b442974b53935d1edc7fd64eb21e047a839171b60405160405180910390a45b5050565b600081600001549050919050565b611c68828260405180602001604052806000815250612751565b5050565b6001816000016000828254019250508190555050565b611c8a610d62565b611cc9576040517f08c379a0000000000000000000000000000000000000000000000000000000008152600401611cc090614466565b60405180910390fd5b6000600b60006101000a81548160ff0219169083151502179055507f5db9ee0a495bf2e6ff9c91a7834c1ba4fdd244a5e8aa4e537bd38aeae4b073aa611d0d6115e5565b604051611d1a9190614387565b60405180910390a1565b611d2d816127ac565b50565b611d38610d62565b15611d78576040517f08c379a0000000000000000000000000000000000000000000000000000000008152600401611d6f90614586565b60405180910390fd5b6001600b60006101000a81548160ff0219169083151502179055507f62e78cea01bee320cd4e420270b5ea74000d11b0c9f74754ebdbfc544b05a258611dbc6115e5565b604051611dc99190614387565b60405180910390a1565b611dde848484611784565b611dea848484846127ff565b611e29576040517f08c379a0000000000000000000000000000000000000000000000000000000008152600401611e20906144c6565b60405180910390fd5b50505050565b6000602082611e3e919061485a565b83511015611e81576040517f08c379a0000000000000000000000000000000000000000000000000000000008152600401611e7890614646565b60405180910390fd5b60008260208501015190508091505092915050565b60606000806000605a85611eaa9190614b5d565b1415611ebe57600091506107d09050611ec9565b61019e915061049390505b6000611ed483611f73565b90506000611ee183611f73565b905081828283604051602001611efa949392919061413d565b604051602081830303815290604052945050505050919050565b60008060328085611f25919061485a565b611f2f91906148e7565b9050611f5483826019611f429190614918565b8360c8611f4f9190614918565b612996565b8185611f609190614918565b611f6a919061485a565b91505092915050565b60606000821415611fbb576040518060400160405280600181526020017f30000000000000000000000000000000000000000000000000000000000000008152509050612143565b600082905060005b60008214611fed578080611fd690614b00565b915050600a82611fe691906148e7565b9150611fc3565b60008167ffffffffffffffff81111561202f577f4e487b7100000000000000000000000000000000000000000000000000000000600052604160045260246000fd5b6040519080825280601f01601f1916602001820160405280156120615781602001600182028036833780820191505090505b50905060008290505b6000861461213b5760018161207f9190614972565b90506000600a808861209191906148e7565b61209b9190614918565b876120a69190614972565b60306120b291906148b0565b905060008160f81b9050808484815181106120f6577f4e487b7100000000000000000000000000000000000000000000000000000000600052603260045260246000fd5b60200101907effffffffffffffffffffffffffffffffffffffffffffffffffffffffffffff1916908160001a905350600a8861213291906148e7565b9750505061206a565b819450505050505b919050565b606060008360646121599190614972565b90506121aa600a808361216c919061485a565b61217691906148e7565b6121848560646107d0612996565b61218e9190614918565b60148361219b9190614918565b6121a5919061485a565b611f73565b91505092915050565b6060600060028460036121c69190614918565b6121d091906148e7565b9050600060ff905060006121e58584846129f7565b905060006122016103e7876121fa919061485a565b85856129f7565b90508181836040516020016122189392919061419c565b60405160208183030381529060405294505050505092915050565b606061223e82611579565b61227d576040517f08c379a000000000000000000000000000000000000000000000000000000000815260040161227490614686565b60405180910390fd5b6000600a6000848152602001908152602001600020805461229d90614a9d565b80601f01602080910402602001604051908101604052809291908181526020018280546122c990614a9d565b80156123165780601f106122eb57610100808354040283529160200191612316565b820191906000526020600020905b8154815290600101906020018083116122f957829003601f168201915b505050505090506000612327612a86565b905060008151141561233d578192505050612380565b60008251111561237257808260405160200161235a929190614119565b60405160208183030381529060405292505050612380565b61237b84612a9d565b925050505b919050565b60007f780e9d63000000000000000000000000000000000000000000000000000000007bffffffffffffffffffffffffffffffffffffffffffffffffffffffff1916827bffffffffffffffffffffffffffffffffffffffffffffffffffffffff191614806123f857506123f782612b44565b5b9050919050565b612407610d62565b15612447576040517f08c379a000000000000000000000000000000000000000000000000000000000815260040161243e90614586565b60405180910390fd5b612452838383612c26565b505050565b60606000600283600261246a9190614918565b612474919061485a565b67ffffffffffffffff8111156124b3577f4e487b7100000000000000000000000000000000000000000000000000000000600052604160045260246000fd5b6040519080825280601f01601f1916602001820160405280156124e55781602001600182028036833780820191505090505b5090507f300000000000000000000000000000000000000000000000000000000000000081600081518110612543577f4e487b7100000000000000000000000000000000000000000000000000000000600052603260045260246000fd5b60200101907effffffffffffffffffffffffffffffffffffffffffffffffffffffffffffff1916908160001a9053507f7800000000000000000000000000000000000000000000000000000000000000816001815181106125cd577f4e487b7100000000000000000000000000000000000000000000000000000000600052603260045260246000fd5b60200101907effffffffffffffffffffffffffffffffffffffffffffffffffffffffffffff1916908160001a9053506000600184600261260d9190614918565b612617919061485a565b90505b6001811115612703577f3031323334353637383961626364656600000000000000000000000000000000600f86166010811061267f577f4e487b7100000000000000000000000000000000000000000000000000000000600052603260045260246000fd5b1a60f81b8282815181106126bc577f4e487b7100000000000000000000000000000000000000000000000000000000600052603260045260246000fd5b60200101907effffffffffffffffffffffffffffffffffffffffffffffffffffffffffffff1916908160001a905350600485901c9450806126fc90614a73565b905061261a565b5060008414612747576040517f08c379a000000000000000000000000000000000000000000000000000000000815260040161273e90614446565b60405180910390fd5b8091505092915050565b61275b8383612d3a565b61276860008484846127ff565b6127a7576040517f08c379a000000000000000000000000000000000000000000000000000000000815260040161279e906144c6565b60405180910390fd5b505050565b6127b581612f08565b6000600a600083815260200190815260200160002080546127d590614a9d565b9050146127fc57600a600082815260200190815260200160002060006127fb91906135c0565b5b50565b60006128208473ffffffffffffffffffffffffffffffffffffffff16613019565b15612989578373ffffffffffffffffffffffffffffffffffffffff1663150b7a026128496115e5565b8786866040518563ffffffff1660e01b815260040161286b94939291906143a2565b602060405180830381600087803b15801561288557600080fd5b505af19250505080156128b657506040513d601f19601f820116820180604052508101906128b39190613938565b60015b612939573d80600081146128e6576040519150601f19603f3d011682016040523d82523d6000602084013e6128eb565b606091505b50600081511415612931576040517f08c379a0000000000000000000000000000000000000000000000000000000008152600401612928906144c6565b60405180910390fd5b805181602001fd5b63150b7a0260e01b7bffffffffffffffffffffffffffffffffffffffffffffffffffffffff1916817bffffffffffffffffffffffffffffffffffffffffffffffffffffffff19161491505061298e565b600190505b949350505050565b60008083836129a59190614972565b9050600081866040516020016129bb919061436c565b6040516020818303038152906040528051906020012060001c6129de9190614b5d565b905080856129ec919061485a565b925050509392505050565b60606000612a06858585612996565b90506000612a21600187612a1a919061485a565b8686612996565b90506000612a3c600288612a35919061485a565b8787612996565b9050612a4783611f73565b612a5083611f73565b612a5983611f73565b604051602001612a6b939291906142a8565b60405160208183030381529060405293505050509392505050565b606060405180602001604052806000815250905090565b6060612aa882611579565b612ae7576040517f08c379a0000000000000000000000000000000000000000000000000000000008152600401612ade906146e6565b60405180910390fd5b6000612af1612a86565b90506000815111612b115760405180602001604052806000815250612b3c565b80612b1b8461302c565b604051602001612b2c929190614119565b6040516020818303038152906040525b915050919050565b60007f80ac58cd000000000000000000000000000000000000000000000000000000007bffffffffffffffffffffffffffffffffffffffffffffffffffffffff1916827bffffffffffffffffffffffffffffffffffffffffffffffffffffffff19161480612c0f57507f5b5e139f000000000000000000000000000000000000000000000000000000007bffffffffffffffffffffffffffffffffffffffffffffffffffffffff1916827bffffffffffffffffffffffffffffffffffffffffffffffffffffffff1916145b80612c1f5750612c1e826131d9565b5b9050919050565b612c31838383613243565b600073ffffffffffffffffffffffffffffffffffffffff168373ffffffffffffffffffffffffffffffffffffffff161415612c7457612c6f81613248565b612cb3565b8173ffffffffffffffffffffffffffffffffffffffff168373ffffffffffffffffffffffffffffffffffffffff1614612cb257612cb18382613291565b5b5b600073ffffffffffffffffffffffffffffffffffffffff168273ffffffffffffffffffffffffffffffffffffffff161415612cf657612cf1816133fe565b612d35565b8273ffffffffffffffffffffffffffffffffffffffff168273ffffffffffffffffffffffffffffffffffffffff1614612d3457612d338282613541565b5b5b505050565b600073ffffffffffffffffffffffffffffffffffffffff168273ffffffffffffffffffffffffffffffffffffffff161415612daa576040517f08c379a0000000000000000000000000000000000000000000000000000000008152600401612da190614666565b60405180910390fd5b612db381611579565b15612df3576040517f08c379a0000000000000000000000000000000000000000000000000000000008152600401612dea906144e6565b60405180910390fd5b612dff600083836123ff565b6001600360008473ffffffffffffffffffffffffffffffffffffffff1673ffffffffffffffffffffffffffffffffffffffff1681526020019081526020016000206000828254612e4f919061485a565b92505081905550816002600083815260200190815260200160002060006101000a81548173ffffffffffffffffffffffffffffffffffffffff021916908373ffffffffffffffffffffffffffffffffffffffff160217905550808273ffffffffffffffffffffffffffffffffffffffff16600073ffffffffffffffffffffffffffffffffffffffff167fddf252ad1be2c89b69c2b068fc378daa952ba7f163c4a11628f55a4df523b3ef60405160405180910390a45050565b6000612f1382610d79565b9050612f21816000846123ff565b612f2c6000836115ed565b6001600360008373ffffffffffffffffffffffffffffffffffffffff1673ffffffffffffffffffffffffffffffffffffffff1681526020019081526020016000206000828254612f7c9190614972565b925050819055506002600083815260200190815260200160002060006101000a81549073ffffffffffffffffffffffffffffffffffffffff021916905581600073ffffffffffffffffffffffffffffffffffffffff168273ffffffffffffffffffffffffffffffffffffffff167fddf252ad1be2c89b69c2b068fc378daa952ba7f163c4a11628f55a4df523b3ef60405160405180910390a45050565b600080823b905060008111915050919050565b60606000821415613074576040518060400160405280600181526020017f300000000000000000000000000000000000000000000000000000000000000081525090506131d4565b600082905060005b600082146130a657808061308f90614b00565b915050600a8261309f91906148e7565b915061307c565b60008167ffffffffffffffff8111156130e8577f4e487b7100000000000000000000000000000000000000000000000000000000600052604160045260246000fd5b6040519080825280601f01601f19166020018201604052801561311a5781602001600182028036833780820191505090505b5090505b600085146131cd576001826131339190614972565b9150600a856131429190614b5d565b603061314e919061485a565b60f81b81838151811061318a577f4e487b7100000000000000000000000000000000000000000000000000000000600052603260045260246000fd5b60200101907effffffffffffffffffffffffffffffffffffffffffffffffffffffffffffff1916908160001a905350600a856131c691906148e7565b945061311e565b8093505050505b919050565b60007f01ffc9a7000000000000000000000000000000000000000000000000000000007bffffffffffffffffffffffffffffffffffffffffffffffffffffffff1916827bffffffffffffffffffffffffffffffffffffffffffffffffffffffff1916149050919050565b505050565b6008805490506009600083815260200190815260200160002081905550600881908060018154018082558091505060019003906000526020600020016000909190919091505550565b6000600161329e84610e2b565b6132a89190614972565b905060006007600084815260200190815260200160002054905081811461338d576000600660008673ffffffffffffffffffffffffffffffffffffffff1673ffffffffffffffffffffffffffffffffffffffff168152602001908152602001600020600084815260200190815260200160002054905080600660008773ffffffffffffffffffffffffffffffffffffffff1673ffffffffffffffffffffffffffffffffffffffff168152602001908152602001600020600084815260200190815260200160002081905550816007600083815260200190815260200160002081905550505b6007600084815260200190815260200160002060009055600660008573ffffffffffffffffffffffffffffffffffffffff1673ffffffffffffffffffffffffffffffffffffffff16815260200190815260200160002060008381526020019081526020016000206000905550505050565b600060016008805490506134129190614972565b9050600060096000848152602001908152602001600020549050600060088381548110613468577f4e487b7100000000000000000000000000000000000000000000000000000000600052603260045260246000fd5b9060005260206000200154905080600883815481106134b0577f4e487b7100000000000000000000000000000000000000000000000000000000600052603260045260246000fd5b906000526020600020018190555081600960008381526020019081526020016000208190555060096000858152602001908152602001600020600090556008805480613525577f4e487b7100000000000000000000000000000000000000000000000000000000600052603160045260246000fd5b6001900381819060005260206000200160009055905550505050565b600061354c83610e2b565b905081600660008573ffffffffffffffffffffffffffffffffffffffff1673ffffffffffffffffffffffffffffffffffffffff168152602001908152602001600020600083815260200190815260200160002081905550806007600084815260200190815260200160002081905550505050565b5080546135cc90614a9d565b6000825580601f106135de57506135fd565b601f0160209004906000526020600020908101906135fc9190613600565b5b50565b5b80821115613619576000816000905550600101613601565b5090565b600061363061362b846147e6565b6147c1565b90508281526020810184848401111561364857600080fd5b613653848285614a31565b509392505050565b60008135905061366a8161571d565b92915050565b60008135905061367f81615734565b92915050565b6000813590506136948161574b565b92915050565b6000813590506136a981615762565b92915050565b6000815190506136be81615762565b92915050565b600082601f8301126136d557600080fd5b81356136e584826020860161361d565b91505092915050565b6000813590506136fd81615779565b92915050565b60006020828403121561371557600080fd5b60006137238482850161365b565b91505092915050565b6000806040838503121561373f57600080fd5b600061374d8582860161365b565b925050602061375e8582860161365b565b9150509250929050565b60008060006060848603121561377d57600080fd5b600061378b8682870161365b565b935050602061379c8682870161365b565b92505060406137ad868287016136ee565b9150509250925092565b600080600080608085870312156137cd57600080fd5b60006137db8782880161365b565b94505060206137ec8782880161365b565b93505060406137fd878288016136ee565b925050606085013567ffffffffffffffff81111561381a57600080fd5b613826878288016136c4565b91505092959194509250565b6000806040838503121561384557600080fd5b60006138538582860161365b565b925050602061386485828601613670565b9150509250929050565b6000806040838503121561388157600080fd5b600061388f8582860161365b565b92505060206138a0858286016136ee565b9150509250929050565b6000602082840312156138bc57600080fd5b60006138ca84828501613685565b91505092915050565b600080604083850312156138e657600080fd5b60006138f485828601613685565b92505060206139058582860161365b565b9150509250929050565b60006020828403121561392157600080fd5b600061392f8482850161369a565b91505092915050565b60006020828403121561394a57600080fd5b6000613958848285016136af565b91505092915050565b60006020828403121561397357600080fd5b6000613981848285016136ee565b91505092915050565b600080600080608085870312156139a057600080fd5b60006139ae878288016136ee565b94505060206139bf878288016136ee565b93505060406139d0878288016136ee565b92505060606139e1878288016136ee565b91505092959194509250565b6139f6816149a6565b82525050565b613a05816149b8565b82525050565b613a14816149c4565b82525050565b613a2b613a26826149c4565b614b49565b82525050565b6000613a3c82614817565b613a46818561482d565b9350613a56818560208601614a40565b613a5f81614c4a565b840191505092915050565b6000613a7582614822565b613a7f818561483e565b9350613a8f818560208601614a40565b613a9881614c4a565b840191505092915050565b6000613aae82614822565b613ab8818561484f565b9350613ac8818560208601614a40565b80840191505092915050565b6000613ae160208361483e565b9150613aec82614c5b565b602082019050919050565b6000613b0460098361484f565b9150613b0f82614c84565b600982019050919050565b6000613b27602c8361484f565b9150613b3282614cad565b602c82019050919050565b6000613b4a60148361483e565b9150613b5582614cfc565b602082019050919050565b6000613b6d60288361483e565b9150613b7882614d25565b604082019050919050565b6000613b90602b8361483e565b9150613b9b82614d74565b604082019050919050565b6000613bb360328361483e565b9150613bbe82614dc3565b604082019050919050565b6000613bd660278361484f565b9150613be182614e12565b602782019050919050565b6000613bf9601c8361483e565b9150613c0482614e61565b602082019050919050565b6000613c1c60268361483e565b9150613c2782614e8a565b604082019050919050565b6000613c3f60218361484f565b9150613c4a82614ed9565b602182019050919050565b6000613c6260048361484f565b9150613c6d82614f28565b600482019050919050565b6000613c8560248361483e565b9150613c9082614f51565b604082019050919050565b6000613ca860198361483e565b9150613cb382614fa0565b602082019050919050565b6000613ccb602c8361483e565b9150613cd682614fc9565b604082019050919050565b6000613cee60018361484f565b9150613cf982615018565b600182019050919050565b6000613d1160318361484f565b9150613d1c82615041565b603182019050919050565b6000613d3460018361484f565b9150613d3f82615090565b600182019050919050565b6000613d5760108361483e565b9150613d62826150b9565b602082019050919050565b6000613d7a60018361484f565b9150613d85826150e2565b600182019050919050565b6000613d9d60388361483e565b9150613da88261510b565b604082019050919050565b6000613dc0602b8361483e565b9150613dcb8261515a565b604082019050919050565b6000613de3602a8361483e565b9150613dee826151a9565b604082019050919050565b6000613e0660298361483e565b9150613e11826151f8565b604082019050919050565b6000613e2960278361483e565b9150613e3482615247565b604082019050919050565b6000613e4c60158361483e565b9150613e5782615296565b602082019050919050565b6000613e6f60208361483e565b9150613e7a826152bf565b602082019050919050565b6000613e9260328361484f565b9150613e9d826152e8565b603282019050919050565b6000613eb560318361483e565b9150613ec082615337565b604082019050919050565b6000613ed8602c8361483e565b9150613ee382615386565b604082019050919050565b6000613efb60138361484f565b9150613f06826153d5565b601382019050919050565b6000613f1e60298361483e565b9150613f29826153fe565b604082019050919050565b6000613f41602f8361483e565b9150613f4c8261544d565b604082019050919050565b6000613f6460218361483e565b9150613f6f8261549c565b604082019050919050565b6000613f8760028361484f565b9150613f92826154eb565b600282019050919050565b6000613faa60318361483e565b9150613fb582615514565b604082019050919050565b6000613fcd602c8361483e565b9150613fd882615563565b604082019050919050565b6000613ff0600f8361484f565b9150613ffb826155b2565b600f82019050919050565b600061401360178361484f565b915061401e826155db565b601782019050919050565b600061403660028361484f565b915061404182615604565b600282019050919050565b600061405960068361484f565b91506140648261562d565b600682019050919050565b600061407c60308361483e565b915061408782615656565b604082019050919050565b600061409f60118361484f565b91506140aa826156a5565b601182019050919050565b60006140c2602f8361483e565b91506140cd826156ce565b604082019050919050565b6140e181614a1a565b82525050565b6140f86140f382614a1a565b614b53565b82525050565b600061410a8284613a1a565b60208201915081905092915050565b60006141258285613aa3565b91506141318284613aa3565b91508190509392505050565b60006141498287613aa3565b915061415482613d27565b91506141608286613aa3565b915061416b82613d27565b91506141778285613aa3565b915061418282613d27565b915061418e8284613aa3565b915081905095945050505050565b60006141a88286613aa3565b91506141b382613d6d565b91506141bf8285613aa3565b91506141ca82613d6d565b91506141d68284613aa3565b91506141e182613d6d565b9150819050949350505050565b60006141fa8284613aa3565b91506142058261404c565b915081905092915050565b600061421b82613af7565b91506142278288613aa3565b915061423282613fe3565b915061423e8287613aa3565b915061424982613b1a565b915061425482613eee565b91506142608286613aa3565b915061426b82613bc9565b91506142778285613aa3565b915061428282613c32565b915061428e8284613aa3565b915061429982613e85565b91508190509695505050505050565b60006142b382613c55565b91506142bf8286613aa3565b91506142ca82613f7a565b91506142d68285613aa3565b91506142e182613f7a565b91506142ed8284613aa3565b91506142f882613ce1565b9150819050949350505050565b600061431082613d04565b915061431c8284613aa3565b915061432782614029565b915081905092915050565b600061433d82614006565b91506143498285613aa3565b915061435482614092565b91506143608284613aa3565b91508190509392505050565b600061437882846140e7565b60208201915081905092915050565b600060208201905061439c60008301846139ed565b92915050565b60006080820190506143b760008301876139ed565b6143c460208301866139ed565b6143d160408301856140d8565b81810360608301526143e38184613a31565b905095945050505050565b600060208201905061440360008301846139fc565b92915050565b600060208201905061441e6000830184613a0b565b92915050565b6000602082019050818103600083015261443e8184613a6a565b905092915050565b6000602082019050818103600083015261445f81613ad4565b9050919050565b6000602082019050818103600083015261447f81613b3d565b9050919050565b6000602082019050818103600083015261449f81613b60565b9050919050565b600060208201905081810360008301526144bf81613b83565b9050919050565b600060208201905081810360008301526144df81613ba6565b9050919050565b600060208201905081810360008301526144ff81613bec565b9050919050565b6000602082019050818103600083015261451f81613c0f565b9050919050565b6000602082019050818103600083015261453f81613c78565b9050919050565b6000602082019050818103600083015261455f81613c9b565b9050919050565b6000602082019050818103600083015261457f81613cbe565b9050919050565b6000602082019050818103600083015261459f81613d4a565b9050919050565b600060208201905081810360008301526145bf81613d90565b9050919050565b600060208201905081810360008301526145df81613db3565b9050919050565b600060208201905081810360008301526145ff81613dd6565b9050919050565b6000602082019050818103600083015261461f81613df9565b9050919050565b6000602082019050818103600083015261463f81613e1c565b9050919050565b6000602082019050818103600083015261465f81613e3f565b9050919050565b6000602082019050818103600083015261467f81613e62565b9050919050565b6000602082019050818103600083015261469f81613ea8565b9050919050565b600060208201905081810360008301526146bf81613ecb565b9050919050565b600060208201905081810360008301526146df81613f11565b9050919050565b600060208201905081810360008301526146ff81613f34565b9050919050565b6000602082019050818103600083015261471f81613f57565b9050919050565b6000602082019050818103600083015261473f81613f9d565b9050919050565b6000602082019050818103600083015261475f81613fc0565b9050919050565b6000602082019050818103600083015261477f8161406f565b9050919050565b6000602082019050818103600083015261479f816140b5565b9050919050565b60006020820190506147bb60008301846140d8565b92915050565b60006147cb6147dc565b90506147d78282614acf565b919050565b6000604051905090565b600067ffffffffffffffff82111561480157614800614c1b565b5b61480a82614c4a565b9050602081019050919050565b600081519050919050565b600081519050919050565b600082825260208201905092915050565b600082825260208201905092915050565b600081905092915050565b600061486582614a1a565b915061487083614a1a565b9250827fffffffffffffffffffffffffffffffffffffffffffffffffffffffffffffffff038211156148a5576148a4614b8e565b5b828201905092915050565b60006148bb82614a24565b91506148c683614a24565b92508260ff038211156148dc576148db614b8e565b5b828201905092915050565b60006148f282614a1a565b91506148fd83614a1a565b92508261490d5761490c614bbd565b5b828204905092915050565b600061492382614a1a565b915061492e83614a1a565b9250817fffffffffffffffffffffffffffffffffffffffffffffffffffffffffffffffff048311821515161561496757614966614b8e565b5b828202905092915050565b600061497d82614a1a565b915061498883614a1a565b92508282101561499b5761499a614b8e565b5b828203905092915050565b60006149b1826149fa565b9050919050565b60008115159050919050565b6000819050919050565b60007fffffffff0000000000000000000000000000000000000000000000000000000082169050919050565b600073ffffffffffffffffffffffffffffffffffffffff82169050919050565b6000819050919050565b600060ff82169050919050565b82818337600083830152505050565b60005b83811015614a5e578082015181840152602081019050614a43565b83811115614a6d576000848401525b50505050565b6000614a7e82614a1a565b91506000821415614a9257614a91614b8e565b5b600182039050919050565b60006002820490506001821680614ab557607f821691505b60208210811415614ac957614ac8614bec565b5b50919050565b614ad882614c4a565b810181811067ffffffffffffffff82111715614af757614af6614c1b565b5b80604052505050565b6000614b0b82614a1a565b91507fffffffffffffffffffffffffffffffffffffffffffffffffffffffffffffffff821415614b3e57614b3d614b8e565b5b600182019050919050565b6000819050919050565b6000819050919050565b6000614b6882614a1a565b9150614b7383614a1a565b925082614b8357614b82614bbd565b5b828206905092915050565b7f4e487b7100000000000000000000000000000000000000000000000000000000600052601160045260246000fd5b7f4e487b7100000000000000000000000000000000000000000000000000000000600052601260045260246000fd5b7f4e487b7100000000000000000000000000000000000000000000000000000000600052602260045260246000fd5b7f4e487b7100000000000000000000000000000000000000000000000000000000600052604160045260246000fd5b6000601f19601f8301169050919050565b7f537472696e67733a20686578206c656e67746820696e73756666696369656e74600082015250565b7f3c7265637420783d270000000000000000000000000000000000000000000000600082015250565b7f27206865696768743d2732303030272073686170652d72656e646572696e673d60008201527f2763726973704564676573270000000000000000000000000000000000000000602082015250565b7f5061757361626c653a206e6f7420706175736564000000000000000000000000600082015250565b7f50616c657474652076616c7565206d757374206265206265747765656e20302060008201527f616e64203130302e000000000000000000000000000000000000000000000000602082015250565b7f455243373231456e756d657261626c653a206f776e657220696e646578206f7560008201527f74206f6620626f756e6473000000000000000000000000000000000000000000602082015250565b7f4552433732313a207472616e7366657220746f206e6f6e20455243373231526560008201527f63656976657220696d706c656d656e7465720000000000000000000000000000602082015250565b7f2031303030203130303029273e3c616e696d61746520626567696e3d2027307360008201527f27206475723d2700000000000000000000000000000000000000000000000000602082015250565b7f4552433732313a20746f6b656e20616c7265616479206d696e74656400000000600082015250565b7f53706565642076616c7565206d757374206265206265747765656e203020616e60008201527f64203130302e0000000000000000000000000000000000000000000000000000602082015250565b7f6d7327206174747269627574654e616d653d2766696c6c272076616c7565733d60008201527f2700000000000000000000000000000000000000000000000000000000000000602082015250565b7f7267622800000000000000000000000000000000000000000000000000000000600082015250565b7f4552433732313a207472616e7366657220746f20746865207a65726f2061646460008201527f7265737300000000000000000000000000000000000000000000000000000000602082015250565b7f4552433732313a20617070726f766520746f2063616c6c657200000000000000600082015250565b7f4552433732313a206f70657261746f7220717565727920666f72206e6f6e657860008201527f697374656e7420746f6b656e0000000000000000000000000000000000000000602082015250565b7f2900000000000000000000000000000000000000000000000000000000000000600082015250565b7f3c73766720786d6c6e733d27687474703a2f2f7777772e77332e6f72672f323060008201527f30302f737667272076696577426f783d27000000000000000000000000000000602082015250565b7f2000000000000000000000000000000000000000000000000000000000000000600082015250565b7f5061757361626c653a2070617573656400000000000000000000000000000000600082015250565b7f3b00000000000000000000000000000000000000000000000000000000000000600082015250565b7f4552433732313a20617070726f76652063616c6c6572206973206e6f74206f7760008201527f6e6572206e6f7220617070726f76656420666f7220616c6c0000000000000000602082015250565b7f526f746174696f6e2064656772656573206d757374206265206265747765656e60008201527f203020616e64203336302e000000000000000000000000000000000000000000602082015250565b7f4552433732313a2062616c616e636520717565727920666f7220746865207a6560008201527f726f206164647265737300000000000000000000000000000000000000000000602082015250565b7f4552433732313a206f776e657220717565727920666f72206e6f6e657869737460008201527f656e7420746f6b656e0000000000000000000000000000000000000000000000602082015250565b7f537472697065207769647468206d757374206265206265747765656e2030206160008201527f6e64203130302e00000000000000000000000000000000000000000000000000602082015250565b7f746f55696e743235365f6f75744f66426f756e64730000000000000000000000600082015250565b7f4552433732313a206d696e7420746f20746865207a65726f2061646472657373600082015250565b7f272066696c6c3d27667265657a652720726570656174436f756e743d27696e6460008201527f6566696e69746527202f3e3c2f726563743e0000000000000000000000000000602082015250565b7f45524337323155524953746f726167653a2055524920717565727920666f722060008201527f6e6f6e6578697374656e7420746f6b656e000000000000000000000000000000602082015250565b7f4552433732313a20617070726f76656420717565727920666f72206e6f6e657860008201527f697374656e7420746f6b656e0000000000000000000000000000000000000000602082015250565b7f207472616e73666f726d3d27726f746174652800000000000000000000000000600082015250565b7f4552433732313a207472616e73666572206f6620746f6b656e2074686174206960008201527f73206e6f74206f776e0000000000000000000000000000000000000000000000602082015250565b7f4552433732314d657461646174613a2055524920717565727920666f72206e6f60008201527f6e6578697374656e7420746f6b656e0000000000000000000000000000000000602082015250565b7f4552433732313a20617070726f76616c20746f2063757272656e74206f776e6560008201527f7200000000000000000000000000000000000000000000000000000000000000602082015250565b7f2c20000000000000000000000000000000000000000000000000000000000000600082015250565b7f4552433732313a207472616e736665722063616c6c6572206973206e6f74206f60008201527f776e6572206e6f7220617070726f766564000000000000000000000000000000602082015250565b7f455243373231456e756d657261626c653a20676c6f62616c20696e646578206f60008201527f7574206f6620626f756e64730000000000000000000000000000000000000000602082015250565b7f2720793d2730272077696474683d270000000000000000000000000000000000600082015250565b7f416363657373436f6e74726f6c3a206163636f756e7420000000000000000000600082015250565b7f273e000000000000000000000000000000000000000000000000000000000000600082015250565b7f3c2f7376673e0000000000000000000000000000000000000000000000000000600082015250565b7f4552433732314275726e61626c653a2063616c6c6572206973206e6f74206f7760008201527f6e6572206e6f7220617070726f76656400000000000000000000000000000000602082015250565b7f206973206d697373696e6720726f6c6520000000000000000000000000000000600082015250565b7f416363657373436f6e74726f6c3a2063616e206f6e6c792072656e6f756e636560008201527f20726f6c657320666f722073656c660000000000000000000000000000000000602082015250565b615726816149a6565b811461573157600080fd5b50565b61573d816149b8565b811461574857600080fd5b50565b615754816149c4565b811461575f57600080fd5b50565b61576b816149ce565b811461577657600080fd5b50565b61578281614a1a565b811461578d57600080fd5b5056fea2646970667358221220a47d98e71a9052ec45aac897ea15a85bb086a5146c20b6e151b0f9655935535c64736f6c63430008040033",
  "linkReferences": {},
  "deployedLinkReferences": {}
}