{
  "_format": "hh-sol-artifact-1",
  "contractName": "ColourPulse",
  "sourceName": "contracts/ColourPulse.sol",
  "abi": [
    {
      "inputs": [],
      "stateMutability": "nonpayable",
      "type": "constructor"
    },
    {
      "anonymous": false,
      "inputs": [
        {
          "indexed": true,
          "internalType": "address",
          "name": "owner",
          "type": "address"
        },
        {
          "indexed": true,
          "internalType": "address",
          "name": "approved",
          "type": "address"
        },
        {
          "indexed": true,
          "internalType": "uint256",
          "name": "tokenId",
          "type": "uint256"
        }
      ],
      "name": "Approval",
      "type": "event"
    },
    {
      "anonymous": false,
      "inputs": [
        {
          "indexed": true,
          "internalType": "address",
          "name": "owner",
          "type": "address"
        },
        {
          "indexed": true,
          "internalType": "address",
          "name": "operator",
          "type": "address"
        },
        {
          "indexed": false,
          "internalType": "bool",
          "name": "approved",
          "type": "bool"
        }
      ],
      "name": "ApprovalForAll",
      "type": "event"
    },
    {
      "anonymous": false,
      "inputs": [
        {
          "indexed": false,
          "internalType": "address",
          "name": "account",
          "type": "address"
        }
      ],
      "name": "Paused",
      "type": "event"
    },
    {
      "anonymous": false,
      "inputs": [
        {
          "indexed": true,
          "internalType": "bytes32",
          "name": "role",
          "type": "bytes32"
        },
        {
          "indexed": true,
          "internalType": "bytes32",
          "name": "previousAdminRole",
          "type": "bytes32"
        },
        {
          "indexed": true,
          "internalType": "bytes32",
          "name": "newAdminRole",
          "type": "bytes32"
        }
      ],
      "name": "RoleAdminChanged",
      "type": "event"
    },
    {
      "anonymous": false,
      "inputs": [
        {
          "indexed": true,
          "internalType": "bytes32",
          "name": "role",
          "type": "bytes32"
        },
        {
          "indexed": true,
          "internalType": "address",
          "name": "account",
          "type": "address"
        },
        {
          "indexed": true,
          "internalType": "address",
          "name": "sender",
          "type": "address"
        }
      ],
      "name": "RoleGranted",
      "type": "event"
    },
    {
      "anonymous": false,
      "inputs": [
        {
          "indexed": true,
          "internalType": "bytes32",
          "name": "role",
          "type": "bytes32"
        },
        {
          "indexed": true,
          "internalType": "address",
          "name": "account",
          "type": "address"
        },
        {
          "indexed": true,
          "internalType": "address",
          "name": "sender",
          "type": "address"
        }
      ],
      "name": "RoleRevoked",
      "type": "event"
    },
    {
      "anonymous": false,
      "inputs": [
        {
          "indexed": true,
          "internalType": "address",
          "name": "from",
          "type": "address"
        },
        {
          "indexed": true,
          "internalType": "address",
          "name": "to",
          "type": "address"
        },
        {
          "indexed": true,
          "internalType": "uint256",
          "name": "tokenId",
          "type": "uint256"
        }
      ],
      "name": "Transfer",
      "type": "event"
    },
    {
      "anonymous": false,
      "inputs": [
        {
          "indexed": false,
          "internalType": "address",
          "name": "account",
          "type": "address"
        }
      ],
      "name": "Unpaused",
      "type": "event"
    },
    {
      "inputs": [],
      "name": "DEFAULT_ADMIN_ROLE",
      "outputs": [
        {
          "internalType": "bytes32",
          "name": "",
          "type": "bytes32"
        }
      ],
      "stateMutability": "view",
      "type": "function"
    },
    {
      "inputs": [],
      "name": "MINTER_ROLE",
      "outputs": [
        {
          "internalType": "bytes32",
          "name": "",
          "type": "bytes32"
        }
      ],
      "stateMutability": "view",
      "type": "function"
    },
    {
      "inputs": [],
      "name": "PAUSER_ROLE",
      "outputs": [
        {
          "internalType": "bytes32",
          "name": "",
          "type": "bytes32"
        }
      ],
      "stateMutability": "view",
      "type": "function"
    },
    {
      "inputs": [
        {
          "internalType": "address",
          "name": "to",
          "type": "address"
        },
        {
          "internalType": "uint256",
          "name": "tokenId",
          "type": "uint256"
        }
      ],
      "name": "approve",
      "outputs": [],
      "stateMutability": "nonpayable",
      "type": "function"
    },
    {
      "inputs": [
        {
          "internalType": "address",
          "name": "owner",
          "type": "address"
        }
      ],
      "name": "balanceOf",
      "outputs": [
        {
          "internalType": "uint256",
          "name": "",
          "type": "uint256"
        }
      ],
      "stateMutability": "view",
      "type": "function"
    },
    {
      "inputs": [
        {
          "internalType": "uint256",
          "name": "tokenId",
          "type": "uint256"
        }
      ],
      "name": "burn",
      "outputs": [],
      "stateMutability": "nonpayable",
      "type": "function"
    },
    {
      "inputs": [
        {
          "internalType": "uint256",
          "name": "_tokenId",
          "type": "uint256"
        }
      ],
      "name": "generateSvg",
      "outputs": [
        {
          "internalType": "string",
          "name": "",
          "type": "string"
        }
      ],
      "stateMutability": "view",
      "type": "function"
    },
    {
      "inputs": [
        {
          "internalType": "uint256",
          "name": "tokenId",
          "type": "uint256"
        }
      ],
      "name": "getApproved",
      "outputs": [
        {
          "internalType": "address",
          "name": "",
          "type": "address"
        }
      ],
      "stateMutability": "view",
      "type": "function"
    },
    {
      "inputs": [
        {
          "internalType": "bytes32",
          "name": "role",
          "type": "bytes32"
        }
      ],
      "name": "getRoleAdmin",
      "outputs": [
        {
          "internalType": "bytes32",
          "name": "",
          "type": "bytes32"
        }
      ],
      "stateMutability": "view",
      "type": "function"
    },
    {
      "inputs": [
        {
          "internalType": "bytes32",
          "name": "role",
          "type": "bytes32"
        },
        {
          "internalType": "address",
          "name": "account",
          "type": "address"
        }
      ],
      "name": "grantRole",
      "outputs": [],
      "stateMutability": "nonpayable",
      "type": "function"
    },
    {
      "inputs": [
        {
          "internalType": "bytes32",
          "name": "role",
          "type": "bytes32"
        },
        {
          "internalType": "address",
          "name": "account",
          "type": "address"
        }
      ],
      "name": "hasRole",
      "outputs": [
        {
          "internalType": "bool",
          "name": "",
          "type": "bool"
        }
      ],
      "stateMutability": "view",
      "type": "function"
    },
    {
      "inputs": [
        {
          "internalType": "address",
          "name": "owner",
          "type": "address"
        },
        {
          "internalType": "address",
          "name": "operator",
          "type": "address"
        }
      ],
      "name": "isApprovedForAll",
      "outputs": [
        {
          "internalType": "bool",
          "name": "",
          "type": "bool"
        }
      ],
      "stateMutability": "view",
      "type": "function"
    },
    {
      "inputs": [],
      "name": "isSenderAdmin",
      "outputs": [
        {
          "internalType": "bool",
          "name": "",
          "type": "bool"
        }
      ],
      "stateMutability": "view",
      "type": "function"
    },
    {
      "inputs": [
        {
          "internalType": "uint256",
          "name": "_stripeCount",
          "type": "uint256"
        },
        {
          "internalType": "bool",
          "name": "_vertical",
          "type": "bool"
        }
      ],
      "name": "mintStripes",
      "outputs": [],
      "stateMutability": "nonpayable",
      "type": "function"
    },
    {
      "inputs": [],
      "name": "name",
      "outputs": [
        {
          "internalType": "string",
          "name": "",
          "type": "string"
        }
      ],
      "stateMutability": "view",
      "type": "function"
    },
    {
      "inputs": [
        {
          "internalType": "uint256",
          "name": "tokenId",
          "type": "uint256"
        }
      ],
      "name": "ownerOf",
      "outputs": [
        {
          "internalType": "address",
          "name": "",
          "type": "address"
        }
      ],
      "stateMutability": "view",
      "type": "function"
    },
    {
      "inputs": [],
      "name": "pause",
      "outputs": [],
      "stateMutability": "nonpayable",
      "type": "function"
    },
    {
      "inputs": [],
      "name": "paused",
      "outputs": [
        {
          "internalType": "bool",
          "name": "",
          "type": "bool"
        }
      ],
      "stateMutability": "view",
      "type": "function"
    },
    {
      "inputs": [
        {
          "internalType": "bytes32",
          "name": "role",
          "type": "bytes32"
        },
        {
          "internalType": "address",
          "name": "account",
          "type": "address"
        }
      ],
      "name": "renounceRole",
      "outputs": [],
      "stateMutability": "nonpayable",
      "type": "function"
    },
    {
      "inputs": [
        {
          "internalType": "bytes32",
          "name": "role",
          "type": "bytes32"
        },
        {
          "internalType": "address",
          "name": "account",
          "type": "address"
        }
      ],
      "name": "revokeRole",
      "outputs": [],
      "stateMutability": "nonpayable",
      "type": "function"
    },
    {
      "inputs": [
        {
          "internalType": "address",
          "name": "from",
          "type": "address"
        },
        {
          "internalType": "address",
          "name": "to",
          "type": "address"
        },
        {
          "internalType": "uint256",
          "name": "tokenId",
          "type": "uint256"
        }
      ],
      "name": "safeTransferFrom",
      "outputs": [],
      "stateMutability": "nonpayable",
      "type": "function"
    },
    {
      "inputs": [
        {
          "internalType": "address",
          "name": "from",
          "type": "address"
        },
        {
          "internalType": "address",
          "name": "to",
          "type": "address"
        },
        {
          "internalType": "uint256",
          "name": "tokenId",
          "type": "uint256"
        },
        {
          "internalType": "bytes",
          "name": "_data",
          "type": "bytes"
        }
      ],
      "name": "safeTransferFrom",
      "outputs": [],
      "stateMutability": "nonpayable",
      "type": "function"
    },
    {
      "inputs": [
        {
          "internalType": "address",
          "name": "operator",
          "type": "address"
        },
        {
          "internalType": "bool",
          "name": "approved",
          "type": "bool"
        }
      ],
      "name": "setApprovalForAll",
      "outputs": [],
      "stateMutability": "nonpayable",
      "type": "function"
    },
    {
      "inputs": [
        {
          "internalType": "bytes4",
          "name": "interfaceId",
          "type": "bytes4"
        }
      ],
      "name": "supportsInterface",
      "outputs": [
        {
          "internalType": "bool",
          "name": "",
          "type": "bool"
        }
      ],
      "stateMutability": "view",
      "type": "function"
    },
    {
      "inputs": [],
      "name": "symbol",
      "outputs": [
        {
          "internalType": "string",
          "name": "",
          "type": "string"
        }
      ],
      "stateMutability": "view",
      "type": "function"
    },
    {
      "inputs": [
        {
          "internalType": "uint256",
          "name": "index",
          "type": "uint256"
        }
      ],
      "name": "tokenByIndex",
      "outputs": [
        {
          "internalType": "uint256",
          "name": "",
          "type": "uint256"
        }
      ],
      "stateMutability": "view",
      "type": "function"
    },
    {
      "inputs": [
        {
          "internalType": "address",
          "name": "owner",
          "type": "address"
        },
        {
          "internalType": "uint256",
          "name": "index",
          "type": "uint256"
        }
      ],
      "name": "tokenOfOwnerByIndex",
      "outputs": [
        {
          "internalType": "uint256",
          "name": "",
          "type": "uint256"
        }
      ],
      "stateMutability": "view",
      "type": "function"
    },
    {
      "inputs": [
        {
          "internalType": "uint256",
          "name": "tokenId",
          "type": "uint256"
        }
      ],
      "name": "tokenURI",
      "outputs": [
        {
          "internalType": "string",
          "name": "",
          "type": "string"
        }
      ],
      "stateMutability": "view",
      "type": "function"
    },
    {
      "inputs": [],
      "name": "totalSupply",
      "outputs": [
        {
          "internalType": "uint256",
          "name": "",
          "type": "uint256"
        }
      ],
      "stateMutability": "view",
      "type": "function"
    },
    {
      "inputs": [
        {
          "internalType": "address",
          "name": "from",
          "type": "address"
        },
        {
          "internalType": "address",
          "name": "to",
          "type": "address"
        },
        {
          "internalType": "uint256",
          "name": "tokenId",
          "type": "uint256"
        }
      ],
      "name": "transferFrom",
      "outputs": [],
      "stateMutability": "nonpayable",
      "type": "function"
    },
    {
      "inputs": [],
      "name": "unpause",
      "outputs": [],
      "stateMutability": "nonpayable",
      "type": "function"
    }
  ],
  "bytecode": "0x60806040523480156200001157600080fd5b506040518060400160405280600b81526020017f436f6c6f757250756c73650000000000000000000000000000000000000000008152506040518060400160405280600381526020017f434c500000000000000000000000000000000000000000000000000000000000815250816000908051906020019062000096929190620002c7565b508060019080519060200190620000af929190620002c7565b5050506000600b60006101000a81548160ff021916908315150217905550620000e26000801b336200014c60201b60201c565b620001147f65d7a28e3265b37a6474929f336521b332c1681b933f6cb9f3376673440d862a336200014c60201b60201c565b620001467f9f2df0fed2c77648de5860a4cc508cd0818c85b8b8a1ab4ceeef8d981c8956a6336200014c60201b60201c565b620003dc565b6200015e82826200016260201b60201c565b5050565b6200017482826200025460201b60201c565b62000250576001600c600084815260200190815260200160002060000160008373ffffffffffffffffffffffffffffffffffffffff1673ffffffffffffffffffffffffffffffffffffffff16815260200190815260200160002060006101000a81548160ff021916908315150217905550620001f5620002bf60201b60201c565b73ffffffffffffffffffffffffffffffffffffffff168173ffffffffffffffffffffffffffffffffffffffff16837f2f8788117e7eff1d82e926ec794901d17c78024a50270940304540a733656f0d60405160405180910390a45b5050565b6000600c600084815260200190815260200160002060000160008373ffffffffffffffffffffffffffffffffffffffff1673ffffffffffffffffffffffffffffffffffffffff16815260200190815260200160002060009054906101000a900460ff16905092915050565b600033905090565b828054620002d59062000377565b90600052602060002090601f016020900481019282620002f9576000855562000345565b82601f106200031457805160ff191683800117855562000345565b8280016001018555821562000345579182015b828111156200034457825182559160200191906001019062000327565b5b50905062000354919062000358565b5090565b5b808211156200037357600081600090555060010162000359565b5090565b600060028204905060018216806200039057607f821691505b60208210811415620003a757620003a6620003ad565b5b50919050565b7f4e487b7100000000000000000000000000000000000000000000000000000000600052602260045260246000fd5b614d0880620003ec6000396000f3fe608060405234801561001057600080fd5b50600436106101e55760003560e01c80634f6ccce71161010f578063a22cb465116100a2578063d539139311610071578063d53913931461058e578063d547741f146105ac578063e63ab1e9146105c8578063e985e9c5146105e6576101e5565b8063a22cb465146104f6578063b88d4fde14610512578063bc921dc21461052e578063c87b56dd1461055e576101e5565b80638456cb59116100de5780638456cb591461048057806391d148541461048a57806395d89b41146104ba578063a217fddf146104d8576101e5565b80634f6ccce7146103d25780635c975abb146104025780636352211e1461042057806370a0823114610450576101e5565b8063248a9ca31161018757806336568abe1161015657806336568abe146103745780633f4ba83a1461039057806342842e0e1461039a57806342966c68146103b6576101e5565b8063248a9ca3146102dc5780632f2ff15d1461030c5780632f745c59146103285780632fdff22c14610358576101e5565b8063095ea7b3116101c3578063095ea7b31461026857806318160ddd146102845780631d0d4e8b146102a257806323b872dd146102c0576101e5565b806301ffc9a7146101ea57806306fdde031461021a578063081812fc14610238575b600080fd5b61020460048036038101906101ff919061346f565b610616565b6040516102119190613bd6565b60405180910390f35b610222610628565b60405161022f9190613c0c565b60405180910390f35b610252600480360381019061024d91906134c1565b6106ba565b60405161025f9190613b6f565b60405180910390f35b610282600480360381019061027d91906133ce565b61073f565b005b61028c610857565b6040516102999190613f0e565b60405180910390f35b6102aa610864565b6040516102b79190613bd6565b60405180910390f35b6102da60048036038101906102d591906132c8565b610878565b005b6102f660048036038101906102f1919061340a565b6108d8565b6040516103039190613bf1565b60405180910390f35b61032660048036038101906103219190613433565b6108f8565b005b610342600480360381019061033d91906133ce565b610921565b60405161034f9190613f0e565b60405180910390f35b610372600480360381019061036d91906134ea565b6109c6565b005b61038e60048036038101906103899190613433565b610a7f565b005b610398610b02565b005b6103b460048036038101906103af91906132c8565b610b3f565b005b6103d060048036038101906103cb91906134c1565b610b5f565b005b6103ec60048036038101906103e791906134c1565b610bbb565b6040516103f99190613f0e565b60405180910390f35b61040a610c52565b6040516104179190613bd6565b60405180910390f35b61043a600480360381019061043591906134c1565b610c69565b6040516104479190613b6f565b60405180910390f35b61046a60048036038101906104659190613263565b610d1b565b6040516104779190613f0e565b60405180910390f35b610488610dd3565b005b6104a4600480360381019061049f9190613433565b610e10565b6040516104b19190613bd6565b60405180910390f35b6104c2610e7b565b6040516104cf9190613c0c565b60405180910390f35b6104e0610f0d565b6040516104ed9190613bf1565b60405180910390f35b610510600480360381019061050b9190613392565b610f14565b005b61052c60048036038101906105279190613317565b611095565b005b610548600480360381019061054391906134c1565b6110f7565b6040516105559190613c0c565b60405180910390f35b610578600480360381019061057391906134c1565b611267565b6040516105859190613c0c565b60405180910390f35b610596611279565b6040516105a39190613bf1565b60405180910390f35b6105c660048036038101906105c19190613433565b61129d565b005b6105d06112c6565b6040516105dd9190613bf1565b60405180910390f35b61060060048036038101906105fb919061328c565b6112ea565b60405161060d9190613bd6565b60405180910390f35b60006106218261137e565b9050919050565b60606000805461063790614205565b80601f016020809104026020016040519081016040528092919081815260200182805461066390614205565b80156106b05780601f10610685576101008083540402835291602001916106b0565b820191906000526020600020905b81548152906001019060200180831161069357829003601f168201915b5050505050905090565b60006106c5826113f8565b610704576040517f08c379a00000000000000000000000000000000000000000000000000000000081526004016106fb90613e0e565b60405180910390fd5b6004600083815260200190815260200160002060009054906101000a900473ffffffffffffffffffffffffffffffffffffffff169050919050565b600061074a82610c69565b90508073ffffffffffffffffffffffffffffffffffffffff168373ffffffffffffffffffffffffffffffffffffffff1614156107bb576040517f08c379a00000000000000000000000000000000000000000000000000000000081526004016107b290613e6e565b60405180910390fd5b8073ffffffffffffffffffffffffffffffffffffffff166107da611464565b73ffffffffffffffffffffffffffffffffffffffff161480610809575061080881610803611464565b6112ea565b5b610848576040517f08c379a000000000000000000000000000000000000000000000000000000000815260040161083f90613d6e565b60405180910390fd5b610852838361146c565b505050565b6000600880549050905090565b60006108736000801b33610e10565b905090565b610889610883611464565b82611525565b6108c8576040517f08c379a00000000000000000000000000000000000000000000000000000000081526004016108bf90613e8e565b60405180910390fd5b6108d3838383611603565b505050565b6000600c6000838152602001908152602001600020600101549050919050565b610901826108d8565b6109128161090d611464565b61185f565b61091c83836118fc565b505050565b600061092c83610d1b565b821061096d576040517f08c379a000000000000000000000000000000000000000000000000000000000815260040161096490613c6e565b60405180910390fd5b600660008473ffffffffffffffffffffffffffffffffffffffff1673ffffffffffffffffffffffffffffffffffffffff168152602001908152602001600020600083815260200190815260200160002054905092915050565b60008211806109d6575060158211155b610a15576040517f08c379a0000000000000000000000000000000000000000000000000000000008152600401610a0c90613cce565b60405180910390fd5b6000610a21600d6119dd565b9050610a2d33826119eb565b82600e60008381526020019081526020016000208190555081600f600083815260200190815260200160002060006101000a81548160ff021916908315150217905550610a7a600d611a09565b505050565b610a87611464565b73ffffffffffffffffffffffffffffffffffffffff168173ffffffffffffffffffffffffffffffffffffffff1614610af4576040517f08c379a0000000000000000000000000000000000000000000000000000000008152600401610aeb90613eee565b60405180910390fd5b610afe8282611a1f565b5050565b7f65d7a28e3265b37a6474929f336521b332c1681b933f6cb9f3376673440d862a610b3481610b2f611464565b61185f565b610b3c611b01565b50565b610b5a83838360405180602001604052806000815250611095565b505050565b610b70610b6a611464565b82611525565b610baf576040517f08c379a0000000000000000000000000000000000000000000000000000000008152600401610ba690613ece565b60405180910390fd5b610bb881611ba3565b50565b6000610bc5610857565b8210610c06576040517f08c379a0000000000000000000000000000000000000000000000000000000008152600401610bfd90613eae565b60405180910390fd5b60088281548110610c40577f4e487b7100000000000000000000000000000000000000000000000000000000600052603260045260246000fd5b90600052602060002001549050919050565b6000600b60009054906101000a900460ff16905090565b6000806002600084815260200190815260200160002060009054906101000a900473ffffffffffffffffffffffffffffffffffffffff169050600073ffffffffffffffffffffffffffffffffffffffff168173ffffffffffffffffffffffffffffffffffffffff161415610d12576040517f08c379a0000000000000000000000000000000000000000000000000000000008152600401610d0990613dae565b60405180910390fd5b80915050919050565b60008073ffffffffffffffffffffffffffffffffffffffff168273ffffffffffffffffffffffffffffffffffffffff161415610d8c576040517f08c379a0000000000000000000000000000000000000000000000000000000008152600401610d8390613d8e565b60405180910390fd5b600360008373ffffffffffffffffffffffffffffffffffffffff1673ffffffffffffffffffffffffffffffffffffffff168152602001908152602001600020549050919050565b7f65d7a28e3265b37a6474929f336521b332c1681b933f6cb9f3376673440d862a610e0581610e00611464565b61185f565b610e0d611baf565b50565b6000600c600084815260200190815260200160002060000160008373ffffffffffffffffffffffffffffffffffffffff1673ffffffffffffffffffffffffffffffffffffffff16815260200190815260200160002060009054906101000a900460ff16905092915050565b606060018054610e8a90614205565b80601f0160208091040260200160405190810160405280929190818152602001828054610eb690614205565b8015610f035780601f10610ed857610100808354040283529160200191610f03565b820191906000526020600020905b815481529060010190602001808311610ee657829003601f168201915b5050505050905090565b6000801b81565b610f1c611464565b73ffffffffffffffffffffffffffffffffffffffff168273ffffffffffffffffffffffffffffffffffffffff161415610f8a576040517f08c379a0000000000000000000000000000000000000000000000000000000008152600401610f8190613d0e565b60405180910390fd5b8060056000610f97611464565b73ffffffffffffffffffffffffffffffffffffffff1673ffffffffffffffffffffffffffffffffffffffff16815260200190815260200160002060008473ffffffffffffffffffffffffffffffffffffffff1673ffffffffffffffffffffffffffffffffffffffff16815260200190815260200160002060006101000a81548160ff0219169083151502179055508173ffffffffffffffffffffffffffffffffffffffff16611044611464565b73ffffffffffffffffffffffffffffffffffffffff167f17307eab39ab6107e8899845ad3d59bd9653f200f220920489ca2b5937696c31836040516110899190613bd6565b60405180910390a35050565b6110a66110a0611464565b83611525565b6110e5576040517f08c379a00000000000000000000000000000000000000000000000000000000081526004016110dc90613e8e565b60405180910390fd5b6110f184848484611c52565b50505050565b60606000600e60008481526020019081526020016000205490506000600f600085815260200190815260200160002060009054906101000a900460ff169050600082141561114457600191505b60008161115257605a611155565b60005b60ff1690506000836107d061116a919061404f565b905060008061117884611cae565b6040516020016111889190613b08565b604051602081830303815290604052905060005b868110156112365760006111af84611cae565b6111b886611cae565b6111cd6001856111c89190613fc2565b611cae565b6040516020016111df93929190613aab565b60405160208183030381529060405290508281604051602001611203929190613a65565b604051602081830303815290604052925084846112209190613fc2565b935050808061122e90614268565b91505061119c565b50806040516020016112489190613a89565b6040516020818303038152906040529050809650505050505050919050565b606061127282611e83565b9050919050565b7f9f2df0fed2c77648de5860a4cc508cd0818c85b8b8a1ab4ceeef8d981c8956a681565b6112a6826108d8565b6112b7816112b2611464565b61185f565b6112c18383611a1f565b505050565b7f65d7a28e3265b37a6474929f336521b332c1681b933f6cb9f3376673440d862a81565b6000600560008473ffffffffffffffffffffffffffffffffffffffff1673ffffffffffffffffffffffffffffffffffffffff16815260200190815260200160002060008373ffffffffffffffffffffffffffffffffffffffff1673ffffffffffffffffffffffffffffffffffffffff16815260200190815260200160002060009054906101000a900460ff16905092915050565b60007f7965db0b000000000000000000000000000000000000000000000000000000007bffffffffffffffffffffffffffffffffffffffffffffffffffffffff1916827bffffffffffffffffffffffffffffffffffffffffffffffffffffffff191614806113f157506113f082611fd5565b5b9050919050565b60008073ffffffffffffffffffffffffffffffffffffffff166002600084815260200190815260200160002060009054906101000a900473ffffffffffffffffffffffffffffffffffffffff1673ffffffffffffffffffffffffffffffffffffffff1614159050919050565b600033905090565b816004600083815260200190815260200160002060006101000a81548173ffffffffffffffffffffffffffffffffffffffff021916908373ffffffffffffffffffffffffffffffffffffffff160217905550808273ffffffffffffffffffffffffffffffffffffffff166114df83610c69565b73ffffffffffffffffffffffffffffffffffffffff167f8c5be1e5ebec7d5bd14f71427d1e84f3dd0314c0f7b2291e5b200ac8c7c3b92560405160405180910390a45050565b6000611530826113f8565b61156f576040517f08c379a000000000000000000000000000000000000000000000000000000000815260040161156690613d2e565b60405180910390fd5b600061157a83610c69565b90508073ffffffffffffffffffffffffffffffffffffffff168473ffffffffffffffffffffffffffffffffffffffff1614806115e957508373ffffffffffffffffffffffffffffffffffffffff166115d1846106ba565b73ffffffffffffffffffffffffffffffffffffffff16145b806115fa57506115f981856112ea565b5b91505092915050565b8273ffffffffffffffffffffffffffffffffffffffff1661162382610c69565b73ffffffffffffffffffffffffffffffffffffffff1614611679576040517f08c379a000000000000000000000000000000000000000000000000000000000815260040161167090613e2e565b60405180910390fd5b600073ffffffffffffffffffffffffffffffffffffffff168273ffffffffffffffffffffffffffffffffffffffff1614156116e9576040517f08c379a00000000000000000000000000000000000000000000000000000000081526004016116e090613cee565b60405180910390fd5b6116f483838361204f565b6116ff60008261146c565b6001600360008573ffffffffffffffffffffffffffffffffffffffff1673ffffffffffffffffffffffffffffffffffffffff168152602001908152602001600020600082825461174f91906140da565b925050819055506001600360008473ffffffffffffffffffffffffffffffffffffffff1673ffffffffffffffffffffffffffffffffffffffff16815260200190815260200160002060008282546117a69190613fc2565b92505081905550816002600083815260200190815260200160002060006101000a81548173ffffffffffffffffffffffffffffffffffffffff021916908373ffffffffffffffffffffffffffffffffffffffff160217905550808273ffffffffffffffffffffffffffffffffffffffff168473ffffffffffffffffffffffffffffffffffffffff167fddf252ad1be2c89b69c2b068fc378daa952ba7f163c4a11628f55a4df523b3ef60405160405180910390a4505050565b6118698282610e10565b6118f85761188e8173ffffffffffffffffffffffffffffffffffffffff1660146120a7565b61189c8360001c60206120a7565b6040516020016118ad929190613b35565b6040516020818303038152906040526040517f08c379a00000000000000000000000000000000000000000000000000000000081526004016118ef9190613c0c565b60405180910390fd5b5050565b6119068282610e10565b6119d9576001600c600084815260200190815260200160002060000160008373ffffffffffffffffffffffffffffffffffffffff1673ffffffffffffffffffffffffffffffffffffffff16815260200190815260200160002060006101000a81548160ff02191690831515021790555061197e611464565b73ffffffffffffffffffffffffffffffffffffffff168173ffffffffffffffffffffffffffffffffffffffff16837f2f8788117e7eff1d82e926ec794901d17c78024a50270940304540a733656f0d60405160405180910390a45b5050565b600081600001549050919050565b611a058282604051806020016040528060008152506123a1565b5050565b6001816000016000828254019250508190555050565b611a298282610e10565b15611afd576000600c600084815260200190815260200160002060000160008373ffffffffffffffffffffffffffffffffffffffff1673ffffffffffffffffffffffffffffffffffffffff16815260200190815260200160002060006101000a81548160ff021916908315150217905550611aa2611464565b73ffffffffffffffffffffffffffffffffffffffff168173ffffffffffffffffffffffffffffffffffffffff16837ff6391f5c32d9c69d2a47ea670b442974b53935d1edc7fd64eb21e047a839171b60405160405180910390a45b5050565b611b09610c52565b611b48576040517f08c379a0000000000000000000000000000000000000000000000000000000008152600401611b3f90613c4e565b60405180910390fd5b6000600b60006101000a81548160ff0219169083151502179055507f5db9ee0a495bf2e6ff9c91a7834c1ba4fdd244a5e8aa4e537bd38aeae4b073aa611b8c611464565b604051611b999190613b6f565b60405180910390a1565b611bac816123fc565b50565b611bb7610c52565b15611bf7576040517f08c379a0000000000000000000000000000000000000000000000000000000008152600401611bee90613d4e565b60405180910390fd5b6001600b60006101000a81548160ff0219169083151502179055507f62e78cea01bee320cd4e420270b5ea74000d11b0c9f74754ebdbfc544b05a258611c3b611464565b604051611c489190613b6f565b60405180910390a1565b611c5d848484611603565b611c698484848461244f565b611ca8576040517f08c379a0000000000000000000000000000000000000000000000000000000008152600401611c9f90613c8e565b60405180910390fd5b50505050565b60606000821415611cf6576040518060400160405280600181526020017f30000000000000000000000000000000000000000000000000000000000000008152509050611e7e565b600082905060005b60008214611d28578080611d1190614268565b915050600a82611d21919061404f565b9150611cfe565b60008167ffffffffffffffff811115611d6a577f4e487b7100000000000000000000000000000000000000000000000000000000600052604160045260246000fd5b6040519080825280601f01601f191660200182016040528015611d9c5781602001600182028036833780820191505090505b50905060008290505b60008614611e7657600181611dba91906140da565b90506000600a8088611dcc919061404f565b611dd69190614080565b87611de191906140da565b6030611ded9190614018565b905060008160f81b905080848481518110611e31577f4e487b7100000000000000000000000000000000000000000000000000000000600052603260045260246000fd5b60200101907effffffffffffffffffffffffffffffffffffffffffffffffffffffffffffff1916908160001a905350600a88611e6d919061404f565b97505050611da5565b819450505050505b919050565b6060611e8e826113f8565b611ecd576040517f08c379a0000000000000000000000000000000000000000000000000000000008152600401611ec490613dee565b60405180910390fd5b6000600a60008481526020019081526020016000208054611eed90614205565b80601f0160208091040260200160405190810160405280929190818152602001828054611f1990614205565b8015611f665780601f10611f3b57610100808354040283529160200191611f66565b820191906000526020600020905b815481529060010190602001808311611f4957829003601f168201915b505050505090506000611f776125e6565b9050600081511415611f8d578192505050611fd0565b600082511115611fc2578082604051602001611faa929190613a65565b60405160208183030381529060405292505050611fd0565b611fcb846125fd565b925050505b919050565b60007f780e9d63000000000000000000000000000000000000000000000000000000007bffffffffffffffffffffffffffffffffffffffffffffffffffffffff1916827bffffffffffffffffffffffffffffffffffffffffffffffffffffffff191614806120485750612047826126a4565b5b9050919050565b612057610c52565b15612097576040517f08c379a000000000000000000000000000000000000000000000000000000000815260040161208e90613d4e565b60405180910390fd5b6120a2838383612786565b505050565b6060600060028360026120ba9190614080565b6120c49190613fc2565b67ffffffffffffffff811115612103577f4e487b7100000000000000000000000000000000000000000000000000000000600052604160045260246000fd5b6040519080825280601f01601f1916602001820160405280156121355781602001600182028036833780820191505090505b5090507f300000000000000000000000000000000000000000000000000000000000000081600081518110612193577f4e487b7100000000000000000000000000000000000000000000000000000000600052603260045260246000fd5b60200101907effffffffffffffffffffffffffffffffffffffffffffffffffffffffffffff1916908160001a9053507f78000000000000000000000000000000000000000000000000000000000000008160018151811061221d577f4e487b7100000000000000000000000000000000000000000000000000000000600052603260045260246000fd5b60200101907effffffffffffffffffffffffffffffffffffffffffffffffffffffffffffff1916908160001a9053506000600184600261225d9190614080565b6122679190613fc2565b90505b6001811115612353577f3031323334353637383961626364656600000000000000000000000000000000600f8616601081106122cf577f4e487b7100000000000000000000000000000000000000000000000000000000600052603260045260246000fd5b1a60f81b82828151811061230c577f4e487b7100000000000000000000000000000000000000000000000000000000600052603260045260246000fd5b60200101907effffffffffffffffffffffffffffffffffffffffffffffffffffffffffffff1916908160001a905350600485901c94508061234c906141db565b905061226a565b5060008414612397576040517f08c379a000000000000000000000000000000000000000000000000000000000815260040161238e90613c2e565b60405180910390fd5b8091505092915050565b6123ab838361289a565b6123b8600084848461244f565b6123f7576040517f08c379a00000000000000000000000000000000000000000000000000000000081526004016123ee90613c8e565b60405180910390fd5b505050565b61240581612a68565b6000600a6000838152602001908152602001600020805461242590614205565b90501461244c57600a6000828152602001908152602001600020600061244b9190613120565b5b50565b60006124708473ffffffffffffffffffffffffffffffffffffffff16612b79565b156125d9578373ffffffffffffffffffffffffffffffffffffffff1663150b7a02612499611464565b8786866040518563ffffffff1660e01b81526004016124bb9493929190613b8a565b602060405180830381600087803b1580156124d557600080fd5b505af192505050801561250657506040513d601f19601f820116820180604052508101906125039190613498565b60015b612589573d8060008114612536576040519150601f19603f3d011682016040523d82523d6000602084013e61253b565b606091505b50600081511415612581576040517f08c379a000000000000000000000000000000000000000000000000000000000815260040161257890613c8e565b60405180910390fd5b805181602001fd5b63150b7a0260e01b7bffffffffffffffffffffffffffffffffffffffffffffffffffffffff1916817bffffffffffffffffffffffffffffffffffffffffffffffffffffffff1916149150506125de565b600190505b949350505050565b606060405180602001604052806000815250905090565b6060612608826113f8565b612647576040517f08c379a000000000000000000000000000000000000000000000000000000000815260040161263e90613e4e565b60405180910390fd5b60006126516125e6565b90506000815111612671576040518060200160405280600081525061269c565b8061267b84612b8c565b60405160200161268c929190613a65565b6040516020818303038152906040525b915050919050565b60007f80ac58cd000000000000000000000000000000000000000000000000000000007bffffffffffffffffffffffffffffffffffffffffffffffffffffffff1916827bffffffffffffffffffffffffffffffffffffffffffffffffffffffff1916148061276f57507f5b5e139f000000000000000000000000000000000000000000000000000000007bffffffffffffffffffffffffffffffffffffffffffffffffffffffff1916827bffffffffffffffffffffffffffffffffffffffffffffffffffffffff1916145b8061277f575061277e82612d39565b5b9050919050565b612791838383612da3565b600073ffffffffffffffffffffffffffffffffffffffff168373ffffffffffffffffffffffffffffffffffffffff1614156127d4576127cf81612da8565b612813565b8173ffffffffffffffffffffffffffffffffffffffff168373ffffffffffffffffffffffffffffffffffffffff1614612812576128118382612df1565b5b5b600073ffffffffffffffffffffffffffffffffffffffff168273ffffffffffffffffffffffffffffffffffffffff1614156128565761285181612f5e565b612895565b8273ffffffffffffffffffffffffffffffffffffffff168273ffffffffffffffffffffffffffffffffffffffff16146128945761289382826130a1565b5b5b505050565b600073ffffffffffffffffffffffffffffffffffffffff168273ffffffffffffffffffffffffffffffffffffffff16141561290a576040517f08c379a000000000000000000000000000000000000000000000000000000000815260040161290190613dce565b60405180910390fd5b612913816113f8565b15612953576040517f08c379a000000000000000000000000000000000000000000000000000000000815260040161294a90613cae565b60405180910390fd5b61295f6000838361204f565b6001600360008473ffffffffffffffffffffffffffffffffffffffff1673ffffffffffffffffffffffffffffffffffffffff16815260200190815260200160002060008282546129af9190613fc2565b92505081905550816002600083815260200190815260200160002060006101000a81548173ffffffffffffffffffffffffffffffffffffffff021916908373ffffffffffffffffffffffffffffffffffffffff160217905550808273ffffffffffffffffffffffffffffffffffffffff16600073ffffffffffffffffffffffffffffffffffffffff167fddf252ad1be2c89b69c2b068fc378daa952ba7f163c4a11628f55a4df523b3ef60405160405180910390a45050565b6000612a7382610c69565b9050612a818160008461204f565b612a8c60008361146c565b6001600360008373ffffffffffffffffffffffffffffffffffffffff1673ffffffffffffffffffffffffffffffffffffffff1681526020019081526020016000206000828254612adc91906140da565b925050819055506002600083815260200190815260200160002060006101000a81549073ffffffffffffffffffffffffffffffffffffffff021916905581600073ffffffffffffffffffffffffffffffffffffffff168273ffffffffffffffffffffffffffffffffffffffff167fddf252ad1be2c89b69c2b068fc378daa952ba7f163c4a11628f55a4df523b3ef60405160405180910390a45050565b600080823b905060008111915050919050565b60606000821415612bd4576040518060400160405280600181526020017f30000000000000000000000000000000000000000000000000000000000000008152509050612d34565b600082905060005b60008214612c06578080612bef90614268565b915050600a82612bff919061404f565b9150612bdc565b60008167ffffffffffffffff811115612c48577f4e487b7100000000000000000000000000000000000000000000000000000000600052604160045260246000fd5b6040519080825280601f01601f191660200182016040528015612c7a5781602001600182028036833780820191505090505b5090505b60008514612d2d57600182612c9391906140da565b9150600a85612ca291906142b1565b6030612cae9190613fc2565b60f81b818381518110612cea577f4e487b7100000000000000000000000000000000000000000000000000000000600052603260045260246000fd5b60200101907effffffffffffffffffffffffffffffffffffffffffffffffffffffffffffff1916908160001a905350600a85612d26919061404f565b9450612c7e565b8093505050505b919050565b60007f01ffc9a7000000000000000000000000000000000000000000000000000000007bffffffffffffffffffffffffffffffffffffffffffffffffffffffff1916827bffffffffffffffffffffffffffffffffffffffffffffffffffffffff1916149050919050565b505050565b6008805490506009600083815260200190815260200160002081905550600881908060018154018082558091505060019003906000526020600020016000909190919091505550565b60006001612dfe84610d1b565b612e0891906140da565b9050600060076000848152602001908152602001600020549050818114612eed576000600660008673ffffffffffffffffffffffffffffffffffffffff1673ffffffffffffffffffffffffffffffffffffffff168152602001908152602001600020600084815260200190815260200160002054905080600660008773ffffffffffffffffffffffffffffffffffffffff1673ffffffffffffffffffffffffffffffffffffffff168152602001908152602001600020600084815260200190815260200160002081905550816007600083815260200190815260200160002081905550505b6007600084815260200190815260200160002060009055600660008573ffffffffffffffffffffffffffffffffffffffff1673ffffffffffffffffffffffffffffffffffffffff16815260200190815260200160002060008381526020019081526020016000206000905550505050565b60006001600880549050612f7291906140da565b9050600060096000848152602001908152602001600020549050600060088381548110612fc8577f4e487b7100000000000000000000000000000000000000000000000000000000600052603260045260246000fd5b906000526020600020015490508060088381548110613010577f4e487b7100000000000000000000000000000000000000000000000000000000600052603260045260246000fd5b906000526020600020018190555081600960008381526020019081526020016000208190555060096000858152602001908152602001600020600090556008805480613085577f4e487b7100000000000000000000000000000000000000000000000000000000600052603160045260246000fd5b6001900381819060005260206000200160009055905550505050565b60006130ac83610d1b565b905081600660008573ffffffffffffffffffffffffffffffffffffffff1673ffffffffffffffffffffffffffffffffffffffff168152602001908152602001600020600083815260200190815260200160002081905550806007600084815260200190815260200160002081905550505050565b50805461312c90614205565b6000825580601f1061313e575061315d565b601f01602090049060005260206000209081019061315c9190613160565b5b50565b5b80821115613179576000816000905550600101613161565b5090565b600061319061318b84613f4e565b613f29565b9050828152602081018484840111156131a857600080fd5b6131b3848285614199565b509392505050565b6000813590506131ca81614c5f565b92915050565b6000813590506131df81614c76565b92915050565b6000813590506131f481614c8d565b92915050565b60008135905061320981614ca4565b92915050565b60008151905061321e81614ca4565b92915050565b600082601f83011261323557600080fd5b813561324584826020860161317d565b91505092915050565b60008135905061325d81614cbb565b92915050565b60006020828403121561327557600080fd5b6000613283848285016131bb565b91505092915050565b6000806040838503121561329f57600080fd5b60006132ad858286016131bb565b92505060206132be858286016131bb565b9150509250929050565b6000806000606084860312156132dd57600080fd5b60006132eb868287016131bb565b93505060206132fc868287016131bb565b925050604061330d8682870161324e565b9150509250925092565b6000806000806080858703121561332d57600080fd5b600061333b878288016131bb565b945050602061334c878288016131bb565b935050604061335d8782880161324e565b925050606085013567ffffffffffffffff81111561337a57600080fd5b61338687828801613224565b91505092959194509250565b600080604083850312156133a557600080fd5b60006133b3858286016131bb565b92505060206133c4858286016131d0565b9150509250929050565b600080604083850312156133e157600080fd5b60006133ef858286016131bb565b92505060206134008582860161324e565b9150509250929050565b60006020828403121561341c57600080fd5b600061342a848285016131e5565b91505092915050565b6000806040838503121561344657600080fd5b6000613454858286016131e5565b9250506020613465858286016131bb565b9150509250929050565b60006020828403121561348157600080fd5b600061348f848285016131fa565b91505092915050565b6000602082840312156134aa57600080fd5b60006134b88482850161320f565b91505092915050565b6000602082840312156134d357600080fd5b60006134e18482850161324e565b91505092915050565b600080604083850312156134fd57600080fd5b600061350b8582860161324e565b925050602061351c858286016131d0565b9150509250929050565b61352f8161410e565b82525050565b61353e81614120565b82525050565b61354d8161412c565b82525050565b600061355e82613f7f565b6135688185613f95565b93506135788185602086016141a8565b6135818161439e565b840191505092915050565b600061359782613f8a565b6135a18185613fa6565b93506135b18185602086016141a8565b6135ba8161439e565b840191505092915050565b60006135d082613f8a565b6135da8185613fb7565b93506135ea8185602086016141a8565b80840191505092915050565b6000613603602083613fa6565b915061360e826143af565b602082019050919050565b6000613626600983613fb7565b9150613631826143d8565b600982019050919050565b6000613649605283613fb7565b915061365482614401565b605282019050919050565b600061366c601483613fa6565b915061367782614476565b602082019050919050565b600061368f602b83613fa6565b915061369a8261449f565b604082019050919050565b60006136b2603283613fa6565b91506136bd826144ee565b604082019050919050565b60006136d5601c83613fa6565b91506136e08261453d565b602082019050919050565b60006136f8602683613fa6565b915061370382614566565b604082019050919050565b600061371b602483613fa6565b9150613726826145b5565b604082019050919050565b600061373e601983613fa6565b915061374982614604565b602082019050919050565b6000613761602c83613fa6565b915061376c8261462d565b604082019050919050565b6000613784601083613fa6565b915061378f8261467c565b602082019050919050565b60006137a7606983613fb7565b91506137b2826146a5565b606982019050919050565b60006137ca603883613fa6565b91506137d582614740565b604082019050919050565b60006137ed602a83613fa6565b91506137f88261478f565b604082019050919050565b6000613810602983613fa6565b915061381b826147de565b604082019050919050565b6000613833602083613fa6565b915061383e8261482d565b602082019050919050565b6000613856603183613fa6565b915061386182614856565b604082019050919050565b6000613879602c83613fa6565b9150613884826148a5565b604082019050919050565b600061389c602983613fa6565b91506138a7826148f4565b604082019050919050565b60006138bf602f83613fa6565b91506138ca82614943565b604082019050919050565b60006138e2602183613fa6565b91506138ed82614992565b604082019050919050565b6000613905604783613fb7565b9150613910826149e1565b604782019050919050565b6000613928603183613fa6565b915061393382614a56565b604082019050919050565b600061394b602c83613fa6565b915061395682614aa5565b604082019050919050565b600061396e600f83613fb7565b915061397982614af4565b600f82019050919050565b6000613991601783613fb7565b915061399c82614b1d565b601782019050919050565b60006139b4600683613fb7565b91506139bf82614b46565b600682019050919050565b60006139d7603083613fa6565b91506139e282614b6f565b604082019050919050565b60006139fa601183613fb7565b9150613a0582614bbe565b601182019050919050565b6000613a1d602f83613fa6565b9150613a2882614be7565b604082019050919050565b6000613a40600383613fb7565b9150613a4b82614c36565b600382019050919050565b613a5f81614182565b82525050565b6000613a7182856135c5565b9150613a7d82846135c5565b91508190509392505050565b6000613a9582846135c5565b9150613aa0826139a7565b915081905092915050565b6000613ab682613619565b9150613ac282866135c5565b9150613acd82613961565b9150613ad982856135c5565b9150613ae4826138f8565b9150613af082846135c5565b9150613afb8261379a565b9150819050949350505050565b6000613b138261363c565b9150613b1f82846135c5565b9150613b2a82613a33565b915081905092915050565b6000613b4082613984565b9150613b4c82856135c5565b9150613b57826139ed565b9150613b6382846135c5565b91508190509392505050565b6000602082019050613b846000830184613526565b92915050565b6000608082019050613b9f6000830187613526565b613bac6020830186613526565b613bb96040830185613a56565b8181036060830152613bcb8184613553565b905095945050505050565b6000602082019050613beb6000830184613535565b92915050565b6000602082019050613c066000830184613544565b92915050565b60006020820190508181036000830152613c26818461358c565b905092915050565b60006020820190508181036000830152613c47816135f6565b9050919050565b60006020820190508181036000830152613c678161365f565b9050919050565b60006020820190508181036000830152613c8781613682565b9050919050565b60006020820190508181036000830152613ca7816136a5565b9050919050565b60006020820190508181036000830152613cc7816136c8565b9050919050565b60006020820190508181036000830152613ce7816136eb565b9050919050565b60006020820190508181036000830152613d078161370e565b9050919050565b60006020820190508181036000830152613d2781613731565b9050919050565b60006020820190508181036000830152613d4781613754565b9050919050565b60006020820190508181036000830152613d6781613777565b9050919050565b60006020820190508181036000830152613d87816137bd565b9050919050565b60006020820190508181036000830152613da7816137e0565b9050919050565b60006020820190508181036000830152613dc781613803565b9050919050565b60006020820190508181036000830152613de781613826565b9050919050565b60006020820190508181036000830152613e0781613849565b9050919050565b60006020820190508181036000830152613e278161386c565b9050919050565b60006020820190508181036000830152613e478161388f565b9050919050565b60006020820190508181036000830152613e67816138b2565b9050919050565b60006020820190508181036000830152613e87816138d5565b9050919050565b60006020820190508181036000830152613ea78161391b565b9050919050565b60006020820190508181036000830152613ec78161393e565b9050919050565b60006020820190508181036000830152613ee7816139ca565b9050919050565b60006020820190508181036000830152613f0781613a10565b9050919050565b6000602082019050613f236000830184613a56565b92915050565b6000613f33613f44565b9050613f3f8282614237565b919050565b6000604051905090565b600067ffffffffffffffff821115613f6957613f6861436f565b5b613f728261439e565b9050602081019050919050565b600081519050919050565b600081519050919050565b600082825260208201905092915050565b600082825260208201905092915050565b600081905092915050565b6000613fcd82614182565b9150613fd883614182565b9250827fffffffffffffffffffffffffffffffffffffffffffffffffffffffffffffffff0382111561400d5761400c6142e2565b5b828201905092915050565b60006140238261418c565b915061402e8361418c565b92508260ff03821115614044576140436142e2565b5b828201905092915050565b600061405a82614182565b915061406583614182565b92508261407557614074614311565b5b828204905092915050565b600061408b82614182565b915061409683614182565b9250817fffffffffffffffffffffffffffffffffffffffffffffffffffffffffffffffff04831182151516156140cf576140ce6142e2565b5b828202905092915050565b60006140e582614182565b91506140f083614182565b925082821015614103576141026142e2565b5b828203905092915050565b600061411982614162565b9050919050565b60008115159050919050565b6000819050919050565b60007fffffffff0000000000000000000000000000000000000000000000000000000082169050919050565b600073ffffffffffffffffffffffffffffffffffffffff82169050919050565b6000819050919050565b600060ff82169050919050565b82818337600083830152505050565b60005b838110156141c65780820151818401526020810190506141ab565b838111156141d5576000848401525b50505050565b60006141e682614182565b915060008214156141fa576141f96142e2565b5b600182039050919050565b6000600282049050600182168061421d57607f821691505b6020821081141561423157614230614340565b5b50919050565b6142408261439e565b810181811067ffffffffffffffff8211171561425f5761425e61436f565b5b80604052505050565b600061427382614182565b91507fffffffffffffffffffffffffffffffffffffffffffffffffffffffffffffffff8214156142a6576142a56142e2565b5b600182019050919050565b60006142bc82614182565b91506142c783614182565b9250826142d7576142d6614311565b5b828206905092915050565b7f4e487b7100000000000000000000000000000000000000000000000000000000600052601160045260246000fd5b7f4e487b7100000000000000000000000000000000000000000000000000000000600052601260045260246000fd5b7f4e487b7100000000000000000000000000000000000000000000000000000000600052602260045260246000fd5b7f4e487b7100000000000000000000000000000000000000000000000000000000600052604160045260246000fd5b6000601f19601f8301169050919050565b7f537472696e67733a20686578206c656e67746820696e73756666696369656e74600082015250565b7f3c7265637420783d270000000000000000000000000000000000000000000000600082015250565b7f3c73766720786d6c6e733d27687474703a2f2f7777772e77332e6f72672f323060008201527f30302f737667272076696577426f783d2730203020323030302032303030272060208201527f7472616e73666f726d3d27726f74617465280000000000000000000000000000604082015250565b7f5061757361626c653a206e6f7420706175736564000000000000000000000000600082015250565b7f455243373231456e756d657261626c653a206f776e657220696e646578206f7560008201527f74206f6620626f756e6473000000000000000000000000000000000000000000602082015250565b7f4552433732313a207472616e7366657220746f206e6f6e20455243373231526560008201527f63656976657220696d706c656d656e7465720000000000000000000000000000602082015250565b7f4552433732313a20746f6b656e20616c7265616479206d696e74656400000000600082015250565b7f53747269706520636f756e74206d757374206265206265747765656e2031206160008201527f6e642032302e0000000000000000000000000000000000000000000000000000602082015250565b7f4552433732313a207472616e7366657220746f20746865207a65726f2061646460008201527f7265737300000000000000000000000000000000000000000000000000000000602082015250565b7f4552433732313a20617070726f766520746f2063616c6c657200000000000000600082015250565b7f4552433732313a206f70657261746f7220717565727920666f72206e6f6e657860008201527f697374656e7420746f6b656e0000000000000000000000000000000000000000602082015250565b7f5061757361626c653a2070617573656400000000000000000000000000000000600082015250565b7f7327206174747269627574654e616d653d2766696c6c272076616c7565733d2760008201527f233232323232323b234242464642423b23323232323232272066696c6c3d276660208201527f7265657a652720726570656174436f756e743d27696e646566696e697465272060408201527f2f3e3c2f726563743e0000000000000000000000000000000000000000000000606082015250565b7f4552433732313a20617070726f76652063616c6c6572206973206e6f74206f7760008201527f6e6572206e6f7220617070726f76656420666f7220616c6c0000000000000000602082015250565b7f4552433732313a2062616c616e636520717565727920666f7220746865207a6560008201527f726f206164647265737300000000000000000000000000000000000000000000602082015250565b7f4552433732313a206f776e657220717565727920666f72206e6f6e657869737460008201527f656e7420746f6b656e0000000000000000000000000000000000000000000000602082015250565b7f4552433732313a206d696e7420746f20746865207a65726f2061646472657373600082015250565b7f45524337323155524953746f726167653a2055524920717565727920666f722060008201527f6e6f6e6578697374656e7420746f6b656e000000000000000000000000000000602082015250565b7f4552433732313a20617070726f76656420717565727920666f72206e6f6e657860008201527f697374656e7420746f6b656e0000000000000000000000000000000000000000602082015250565b7f4552433732313a207472616e73666572206f6620746f6b656e2074686174206960008201527f73206e6f74206f776e0000000000000000000000000000000000000000000000602082015250565b7f4552433732314d657461646174613a2055524920717565727920666f72206e6f60008201527f6e6578697374656e7420746f6b656e0000000000000000000000000000000000602082015250565b7f4552433732313a20617070726f76616c20746f2063757272656e74206f776e6560008201527f7200000000000000000000000000000000000000000000000000000000000000602082015250565b7f27206865696768743d2732303030272073686170652d72656e646572696e673d60008201527f2763726973704564676573273e3c616e696d61746520626567696e3d2027307360208201527f27206475723d2700000000000000000000000000000000000000000000000000604082015250565b7f4552433732313a207472616e736665722063616c6c6572206973206e6f74206f60008201527f776e6572206e6f7220617070726f766564000000000000000000000000000000602082015250565b7f455243373231456e756d657261626c653a20676c6f62616c20696e646578206f60008201527f7574206f6620626f756e64730000000000000000000000000000000000000000602082015250565b7f2720793d2730272077696474683d270000000000000000000000000000000000600082015250565b7f416363657373436f6e74726f6c3a206163636f756e7420000000000000000000600082015250565b7f3c2f7376673e0000000000000000000000000000000000000000000000000000600082015250565b7f4552433732314275726e61626c653a2063616c6c6572206973206e6f74206f7760008201527f6e6572206e6f7220617070726f76656400000000000000000000000000000000602082015250565b7f206973206d697373696e6720726f6c6520000000000000000000000000000000600082015250565b7f416363657373436f6e74726f6c3a2063616e206f6e6c792072656e6f756e636560008201527f20726f6c657320666f722073656c660000000000000000000000000000000000602082015250565b7f29273e0000000000000000000000000000000000000000000000000000000000600082015250565b614c688161410e565b8114614c7357600080fd5b50565b614c7f81614120565b8114614c8a57600080fd5b50565b614c968161412c565b8114614ca157600080fd5b50565b614cad81614136565b8114614cb857600080fd5b50565b614cc481614182565b8114614ccf57600080fd5b5056fea2646970667358221220d683e385cd55f89f79fcba66aace8e5ca9139dcdb2bbcdc4e58e48c6a8df111264736f6c63430008040033",
  "linkReferences": {},
  "deployedLinkReferences": {}
}