{
  "_format": "hh-sol-artifact-1",
  "contractName": "ColourPulse",
  "sourceName": "contracts/ColourPulse.sol",
  "abi": [
    {
      "inputs": [],
      "stateMutability": "nonpayable",
      "type": "constructor"
    },
    {
      "anonymous": false,
      "inputs": [
        {
          "indexed": true,
          "internalType": "address",
          "name": "owner",
          "type": "address"
        },
        {
          "indexed": true,
          "internalType": "address",
          "name": "approved",
          "type": "address"
        },
        {
          "indexed": true,
          "internalType": "uint256",
          "name": "tokenId",
          "type": "uint256"
        }
      ],
      "name": "Approval",
      "type": "event"
    },
    {
      "anonymous": false,
      "inputs": [
        {
          "indexed": true,
          "internalType": "address",
          "name": "owner",
          "type": "address"
        },
        {
          "indexed": true,
          "internalType": "address",
          "name": "operator",
          "type": "address"
        },
        {
          "indexed": false,
          "internalType": "bool",
          "name": "approved",
          "type": "bool"
        }
      ],
      "name": "ApprovalForAll",
      "type": "event"
    },
    {
      "anonymous": false,
      "inputs": [
        {
          "indexed": false,
          "internalType": "address",
          "name": "account",
          "type": "address"
        }
      ],
      "name": "Paused",
      "type": "event"
    },
    {
      "anonymous": false,
      "inputs": [
        {
          "indexed": true,
          "internalType": "bytes32",
          "name": "role",
          "type": "bytes32"
        },
        {
          "indexed": true,
          "internalType": "bytes32",
          "name": "previousAdminRole",
          "type": "bytes32"
        },
        {
          "indexed": true,
          "internalType": "bytes32",
          "name": "newAdminRole",
          "type": "bytes32"
        }
      ],
      "name": "RoleAdminChanged",
      "type": "event"
    },
    {
      "anonymous": false,
      "inputs": [
        {
          "indexed": true,
          "internalType": "bytes32",
          "name": "role",
          "type": "bytes32"
        },
        {
          "indexed": true,
          "internalType": "address",
          "name": "account",
          "type": "address"
        },
        {
          "indexed": true,
          "internalType": "address",
          "name": "sender",
          "type": "address"
        }
      ],
      "name": "RoleGranted",
      "type": "event"
    },
    {
      "anonymous": false,
      "inputs": [
        {
          "indexed": true,
          "internalType": "bytes32",
          "name": "role",
          "type": "bytes32"
        },
        {
          "indexed": true,
          "internalType": "address",
          "name": "account",
          "type": "address"
        },
        {
          "indexed": true,
          "internalType": "address",
          "name": "sender",
          "type": "address"
        }
      ],
      "name": "RoleRevoked",
      "type": "event"
    },
    {
      "anonymous": false,
      "inputs": [
        {
          "indexed": true,
          "internalType": "address",
          "name": "from",
          "type": "address"
        },
        {
          "indexed": true,
          "internalType": "address",
          "name": "to",
          "type": "address"
        },
        {
          "indexed": true,
          "internalType": "uint256",
          "name": "tokenId",
          "type": "uint256"
        }
      ],
      "name": "Transfer",
      "type": "event"
    },
    {
      "anonymous": false,
      "inputs": [
        {
          "indexed": false,
          "internalType": "address",
          "name": "account",
          "type": "address"
        }
      ],
      "name": "Unpaused",
      "type": "event"
    },
    {
      "inputs": [],
      "name": "DEFAULT_ADMIN_ROLE",
      "outputs": [
        {
          "internalType": "bytes32",
          "name": "",
          "type": "bytes32"
        }
      ],
      "stateMutability": "view",
      "type": "function"
    },
    {
      "inputs": [],
      "name": "MINTER_ROLE",
      "outputs": [
        {
          "internalType": "bytes32",
          "name": "",
          "type": "bytes32"
        }
      ],
      "stateMutability": "view",
      "type": "function"
    },
    {
      "inputs": [],
      "name": "PAUSER_ROLE",
      "outputs": [
        {
          "internalType": "bytes32",
          "name": "",
          "type": "bytes32"
        }
      ],
      "stateMutability": "view",
      "type": "function"
    },
    {
      "inputs": [
        {
          "internalType": "address",
          "name": "to",
          "type": "address"
        },
        {
          "internalType": "uint256",
          "name": "tokenId",
          "type": "uint256"
        }
      ],
      "name": "approve",
      "outputs": [],
      "stateMutability": "nonpayable",
      "type": "function"
    },
    {
      "inputs": [
        {
          "internalType": "address",
          "name": "owner",
          "type": "address"
        }
      ],
      "name": "balanceOf",
      "outputs": [
        {
          "internalType": "uint256",
          "name": "",
          "type": "uint256"
        }
      ],
      "stateMutability": "view",
      "type": "function"
    },
    {
      "inputs": [
        {
          "internalType": "uint256",
          "name": "tokenId",
          "type": "uint256"
        }
      ],
      "name": "burn",
      "outputs": [],
      "stateMutability": "nonpayable",
      "type": "function"
    },
    {
      "inputs": [
        {
          "internalType": "uint256",
          "name": "tokenId",
          "type": "uint256"
        }
      ],
      "name": "getApproved",
      "outputs": [
        {
          "internalType": "address",
          "name": "",
          "type": "address"
        }
      ],
      "stateMutability": "view",
      "type": "function"
    },
    {
      "inputs": [
        {
          "internalType": "bytes32",
          "name": "role",
          "type": "bytes32"
        }
      ],
      "name": "getRoleAdmin",
      "outputs": [
        {
          "internalType": "bytes32",
          "name": "",
          "type": "bytes32"
        }
      ],
      "stateMutability": "view",
      "type": "function"
    },
    {
      "inputs": [
        {
          "internalType": "bytes32",
          "name": "role",
          "type": "bytes32"
        },
        {
          "internalType": "address",
          "name": "account",
          "type": "address"
        }
      ],
      "name": "grantRole",
      "outputs": [],
      "stateMutability": "nonpayable",
      "type": "function"
    },
    {
      "inputs": [
        {
          "internalType": "bytes32",
          "name": "role",
          "type": "bytes32"
        },
        {
          "internalType": "address",
          "name": "account",
          "type": "address"
        }
      ],
      "name": "hasRole",
      "outputs": [
        {
          "internalType": "bool",
          "name": "",
          "type": "bool"
        }
      ],
      "stateMutability": "view",
      "type": "function"
    },
    {
      "inputs": [
        {
          "internalType": "address",
          "name": "owner",
          "type": "address"
        },
        {
          "internalType": "address",
          "name": "operator",
          "type": "address"
        }
      ],
      "name": "isApprovedForAll",
      "outputs": [
        {
          "internalType": "bool",
          "name": "",
          "type": "bool"
        }
      ],
      "stateMutability": "view",
      "type": "function"
    },
    {
      "inputs": [],
      "name": "isSenderAdmin",
      "outputs": [
        {
          "internalType": "bool",
          "name": "",
          "type": "bool"
        }
      ],
      "stateMutability": "view",
      "type": "function"
    },
    {
      "inputs": [],
      "name": "name",
      "outputs": [
        {
          "internalType": "string",
          "name": "",
          "type": "string"
        }
      ],
      "stateMutability": "view",
      "type": "function"
    },
    {
      "inputs": [
        {
          "internalType": "uint256",
          "name": "tokenId",
          "type": "uint256"
        }
      ],
      "name": "ownerOf",
      "outputs": [
        {
          "internalType": "address",
          "name": "",
          "type": "address"
        }
      ],
      "stateMutability": "view",
      "type": "function"
    },
    {
      "inputs": [],
      "name": "pause",
      "outputs": [],
      "stateMutability": "nonpayable",
      "type": "function"
    },
    {
      "inputs": [],
      "name": "paused",
      "outputs": [
        {
          "internalType": "bool",
          "name": "",
          "type": "bool"
        }
      ],
      "stateMutability": "view",
      "type": "function"
    },
    {
      "inputs": [
        {
          "internalType": "bytes32",
          "name": "role",
          "type": "bytes32"
        },
        {
          "internalType": "address",
          "name": "account",
          "type": "address"
        }
      ],
      "name": "renounceRole",
      "outputs": [],
      "stateMutability": "nonpayable",
      "type": "function"
    },
    {
      "inputs": [
        {
          "internalType": "bytes32",
          "name": "role",
          "type": "bytes32"
        },
        {
          "internalType": "address",
          "name": "account",
          "type": "address"
        }
      ],
      "name": "revokeRole",
      "outputs": [],
      "stateMutability": "nonpayable",
      "type": "function"
    },
    {
      "inputs": [
        {
          "internalType": "address",
          "name": "to",
          "type": "address"
        }
      ],
      "name": "safeMint",
      "outputs": [],
      "stateMutability": "nonpayable",
      "type": "function"
    },
    {
      "inputs": [
        {
          "internalType": "address",
          "name": "from",
          "type": "address"
        },
        {
          "internalType": "address",
          "name": "to",
          "type": "address"
        },
        {
          "internalType": "uint256",
          "name": "tokenId",
          "type": "uint256"
        }
      ],
      "name": "safeTransferFrom",
      "outputs": [],
      "stateMutability": "nonpayable",
      "type": "function"
    },
    {
      "inputs": [
        {
          "internalType": "address",
          "name": "from",
          "type": "address"
        },
        {
          "internalType": "address",
          "name": "to",
          "type": "address"
        },
        {
          "internalType": "uint256",
          "name": "tokenId",
          "type": "uint256"
        },
        {
          "internalType": "bytes",
          "name": "_data",
          "type": "bytes"
        }
      ],
      "name": "safeTransferFrom",
      "outputs": [],
      "stateMutability": "nonpayable",
      "type": "function"
    },
    {
      "inputs": [
        {
          "internalType": "address",
          "name": "operator",
          "type": "address"
        },
        {
          "internalType": "bool",
          "name": "approved",
          "type": "bool"
        }
      ],
      "name": "setApprovalForAll",
      "outputs": [],
      "stateMutability": "nonpayable",
      "type": "function"
    },
    {
      "inputs": [
        {
          "internalType": "bytes4",
          "name": "interfaceId",
          "type": "bytes4"
        }
      ],
      "name": "supportsInterface",
      "outputs": [
        {
          "internalType": "bool",
          "name": "",
          "type": "bool"
        }
      ],
      "stateMutability": "view",
      "type": "function"
    },
    {
      "inputs": [],
      "name": "symbol",
      "outputs": [
        {
          "internalType": "string",
          "name": "",
          "type": "string"
        }
      ],
      "stateMutability": "view",
      "type": "function"
    },
    {
      "inputs": [
        {
          "internalType": "uint256",
          "name": "index",
          "type": "uint256"
        }
      ],
      "name": "tokenByIndex",
      "outputs": [
        {
          "internalType": "uint256",
          "name": "",
          "type": "uint256"
        }
      ],
      "stateMutability": "view",
      "type": "function"
    },
    {
      "inputs": [
        {
          "internalType": "address",
          "name": "owner",
          "type": "address"
        },
        {
          "internalType": "uint256",
          "name": "index",
          "type": "uint256"
        }
      ],
      "name": "tokenOfOwnerByIndex",
      "outputs": [
        {
          "internalType": "uint256",
          "name": "",
          "type": "uint256"
        }
      ],
      "stateMutability": "view",
      "type": "function"
    },
    {
      "inputs": [
        {
          "internalType": "uint256",
          "name": "tokenId",
          "type": "uint256"
        }
      ],
      "name": "tokenURI",
      "outputs": [
        {
          "internalType": "string",
          "name": "",
          "type": "string"
        }
      ],
      "stateMutability": "view",
      "type": "function"
    },
    {
      "inputs": [],
      "name": "totalSupply",
      "outputs": [
        {
          "internalType": "uint256",
          "name": "",
          "type": "uint256"
        }
      ],
      "stateMutability": "view",
      "type": "function"
    },
    {
      "inputs": [
        {
          "internalType": "address",
          "name": "from",
          "type": "address"
        },
        {
          "internalType": "address",
          "name": "to",
          "type": "address"
        },
        {
          "internalType": "uint256",
          "name": "tokenId",
          "type": "uint256"
        }
      ],
      "name": "transferFrom",
      "outputs": [],
      "stateMutability": "nonpayable",
      "type": "function"
    },
    {
      "inputs": [],
      "name": "unpause",
      "outputs": [],
      "stateMutability": "nonpayable",
      "type": "function"
    }
  ],
  "bytecode": "0x60806040523480156200001157600080fd5b506040518060400160405280600b81526020017f436f6c6f757250756c73650000000000000000000000000000000000000000008152506040518060400160405280600381526020017f434c500000000000000000000000000000000000000000000000000000000000815250816000908051906020019062000096929190620002c7565b508060019080519060200190620000af929190620002c7565b5050506000600b60006101000a81548160ff021916908315150217905550620000e26000801b336200014c60201b60201c565b620001147f65d7a28e3265b37a6474929f336521b332c1681b933f6cb9f3376673440d862a336200014c60201b60201c565b620001467f9f2df0fed2c77648de5860a4cc508cd0818c85b8b8a1ab4ceeef8d981c8956a6336200014c60201b60201c565b620003dc565b6200015e82826200016260201b60201c565b5050565b6200017482826200025460201b60201c565b62000250576001600c600084815260200190815260200160002060000160008373ffffffffffffffffffffffffffffffffffffffff1673ffffffffffffffffffffffffffffffffffffffff16815260200190815260200160002060006101000a81548160ff021916908315150217905550620001f5620002bf60201b60201c565b73ffffffffffffffffffffffffffffffffffffffff168173ffffffffffffffffffffffffffffffffffffffff16837f2f8788117e7eff1d82e926ec794901d17c78024a50270940304540a733656f0d60405160405180910390a45b5050565b6000600c600084815260200190815260200160002060000160008373ffffffffffffffffffffffffffffffffffffffff1673ffffffffffffffffffffffffffffffffffffffff16815260200190815260200160002060009054906101000a900460ff16905092915050565b600033905090565b828054620002d59062000377565b90600052602060002090601f016020900481019282620002f9576000855562000345565b82601f106200031457805160ff191683800117855562000345565b8280016001018555821562000345579182015b828111156200034457825182559160200191906001019062000327565b5b50905062000354919062000358565b5090565b5b808211156200037357600081600090555060010162000359565b5090565b600060028204905060018216806200039057607f821691505b60208210811415620003a757620003a6620003ad565b5b50919050565b7f4e487b7100000000000000000000000000000000000000000000000000000000600052602260045260246000fd5b61444680620003ec6000396000f3fe608060405234801561001057600080fd5b50600436106101da5760003560e01c80634f6ccce711610104578063a217fddf116100a2578063d539139311610071578063d539139314610553578063d547741f14610571578063e63ab1e91461058d578063e985e9c5146105ab576101da565b8063a217fddf146104cd578063a22cb465146104eb578063b88d4fde14610507578063c87b56dd14610523576101da565b806370a08231116100de57806370a08231146104455780638456cb591461047557806391d148541461047f57806395d89b41146104af576101da565b80634f6ccce7146103c75780635c975abb146103f75780636352211e14610415576101da565b8063248a9ca31161017c5780633f4ba83a1161014b5780633f4ba83a1461036957806340d097c31461037357806342842e0e1461038f57806342966c68146103ab576101da565b8063248a9ca3146102d15780632f2ff15d146103015780632f745c591461031d57806336568abe1461034d576101da565b8063095ea7b3116101b8578063095ea7b31461025d57806318160ddd146102795780631d0d4e8b1461029757806323b872dd146102b5576101da565b806301ffc9a7146101df57806306fdde031461020f578063081812fc1461022d575b600080fd5b6101f960048036038101906101f49190613089565b6105db565b60405161020691906135f0565b60405180910390f35b6102176105ed565b6040516102249190613626565b60405180910390f35b610247600480360381019061024291906130db565b61067f565b6040516102549190613589565b60405180910390f35b61027760048036038101906102729190612fe8565b610704565b005b61028161081c565b60405161028e9190613908565b60405180910390f35b61029f610829565b6040516102ac91906135f0565b60405180910390f35b6102cf60048036038101906102ca9190612ee2565b61083d565b005b6102eb60048036038101906102e69190613024565b61089d565b6040516102f8919061360b565b60405180910390f35b61031b6004803603810190610316919061304d565b6108bd565b005b61033760048036038101906103329190612fe8565b6108e6565b6040516103449190613908565b60405180910390f35b6103676004803603810190610362919061304d565b61098b565b005b610371610a0e565b005b61038d60048036038101906103889190612e7d565b610a4b565b005b6103a960048036038101906103a49190612ee2565b610a9e565b005b6103c560048036038101906103c091906130db565b610abe565b005b6103e160048036038101906103dc91906130db565b610b1a565b6040516103ee9190613908565b60405180910390f35b6103ff610bb1565b60405161040c91906135f0565b60405180910390f35b61042f600480360381019061042a91906130db565b610bc8565b60405161043c9190613589565b60405180910390f35b61045f600480360381019061045a9190612e7d565b610c7a565b60405161046c9190613908565b60405180910390f35b61047d610d32565b005b6104996004803603810190610494919061304d565b610d6f565b6040516104a691906135f0565b60405180910390f35b6104b7610dda565b6040516104c49190613626565b60405180910390f35b6104d5610e6c565b6040516104e2919061360b565b60405180910390f35b61050560048036038101906105009190612fac565b610e73565b005b610521600480360381019061051c9190612f31565b610ff4565b005b61053d600480360381019061053891906130db565b611056565b60405161054a9190613626565b60405180910390f35b61055b611068565b604051610568919061360b565b60405180910390f35b61058b6004803603810190610586919061304d565b61108c565b005b6105956110b5565b6040516105a2919061360b565b60405180910390f35b6105c560048036038101906105c09190612ea6565b6110d9565b6040516105d291906135f0565b60405180910390f35b60006105e68261116d565b9050919050565b6060600080546105fc90613bbb565b80601f016020809104026020016040519081016040528092919081815260200182805461062890613bbb565b80156106755780601f1061064a57610100808354040283529160200191610675565b820191906000526020600020905b81548152906001019060200180831161065857829003601f168201915b5050505050905090565b600061068a826111e7565b6106c9576040517f08c379a00000000000000000000000000000000000000000000000000000000081526004016106c090613808565b60405180910390fd5b6004600083815260200190815260200160002060009054906101000a900473ffffffffffffffffffffffffffffffffffffffff169050919050565b600061070f82610bc8565b90508073ffffffffffffffffffffffffffffffffffffffff168373ffffffffffffffffffffffffffffffffffffffff161415610780576040517f08c379a000000000000000000000000000000000000000000000000000000000815260040161077790613868565b60405180910390fd5b8073ffffffffffffffffffffffffffffffffffffffff1661079f611253565b73ffffffffffffffffffffffffffffffffffffffff1614806107ce57506107cd816107c8611253565b6110d9565b5b61080d576040517f08c379a000000000000000000000000000000000000000000000000000000000815260040161080490613768565b60405180910390fd5b610817838361125b565b505050565b6000600880549050905090565b60006108386000801b33610d6f565b905090565b61084e610848611253565b82611314565b61088d576040517f08c379a000000000000000000000000000000000000000000000000000000000815260040161088490613888565b60405180910390fd5b6108988383836113f2565b505050565b6000600c6000838152602001908152602001600020600101549050919050565b6108c68261089d565b6108d7816108d2611253565b61164e565b6108e183836116eb565b505050565b60006108f183610c7a565b8210610932576040517f08c379a000000000000000000000000000000000000000000000000000000000815260040161092990613688565b60405180910390fd5b600660008473ffffffffffffffffffffffffffffffffffffffff1673ffffffffffffffffffffffffffffffffffffffff168152602001908152602001600020600083815260200190815260200160002054905092915050565b610993611253565b73ffffffffffffffffffffffffffffffffffffffff168173ffffffffffffffffffffffffffffffffffffffff1614610a00576040517f08c379a00000000000000000000000000000000000000000000000000000000081526004016109f7906138e8565b60405180910390fd5b610a0a82826117cc565b5050565b7f65d7a28e3265b37a6474929f336521b332c1681b933f6cb9f3376673440d862a610a4081610a3b611253565b61164e565b610a486118ae565b50565b7f9f2df0fed2c77648de5860a4cc508cd0818c85b8b8a1ab4ceeef8d981c8956a6610a7d81610a78611253565b61164e565b610a9082610a8b600d611950565b61195e565b610a9a600d61197c565b5050565b610ab983838360405180602001604052806000815250610ff4565b505050565b610acf610ac9611253565b82611314565b610b0e576040517f08c379a0000000000000000000000000000000000000000000000000000000008152600401610b05906138c8565b60405180910390fd5b610b1781611992565b50565b6000610b2461081c565b8210610b65576040517f08c379a0000000000000000000000000000000000000000000000000000000008152600401610b5c906138a8565b60405180910390fd5b60088281548110610b9f577f4e487b7100000000000000000000000000000000000000000000000000000000600052603260045260246000fd5b90600052602060002001549050919050565b6000600b60009054906101000a900460ff16905090565b6000806002600084815260200190815260200160002060009054906101000a900473ffffffffffffffffffffffffffffffffffffffff169050600073ffffffffffffffffffffffffffffffffffffffff168173ffffffffffffffffffffffffffffffffffffffff161415610c71576040517f08c379a0000000000000000000000000000000000000000000000000000000008152600401610c68906137a8565b60405180910390fd5b80915050919050565b60008073ffffffffffffffffffffffffffffffffffffffff168273ffffffffffffffffffffffffffffffffffffffff161415610ceb576040517f08c379a0000000000000000000000000000000000000000000000000000000008152600401610ce290613788565b60405180910390fd5b600360008373ffffffffffffffffffffffffffffffffffffffff1673ffffffffffffffffffffffffffffffffffffffff168152602001908152602001600020549050919050565b7f65d7a28e3265b37a6474929f336521b332c1681b933f6cb9f3376673440d862a610d6481610d5f611253565b61164e565b610d6c61199e565b50565b6000600c600084815260200190815260200160002060000160008373ffffffffffffffffffffffffffffffffffffffff1673ffffffffffffffffffffffffffffffffffffffff16815260200190815260200160002060009054906101000a900460ff16905092915050565b606060018054610de990613bbb565b80601f0160208091040260200160405190810160405280929190818152602001828054610e1590613bbb565b8015610e625780601f10610e3757610100808354040283529160200191610e62565b820191906000526020600020905b815481529060010190602001808311610e4557829003601f168201915b5050505050905090565b6000801b81565b610e7b611253565b73ffffffffffffffffffffffffffffffffffffffff168273ffffffffffffffffffffffffffffffffffffffff161415610ee9576040517f08c379a0000000000000000000000000000000000000000000000000000000008152600401610ee090613708565b60405180910390fd5b8060056000610ef6611253565b73ffffffffffffffffffffffffffffffffffffffff1673ffffffffffffffffffffffffffffffffffffffff16815260200190815260200160002060008473ffffffffffffffffffffffffffffffffffffffff1673ffffffffffffffffffffffffffffffffffffffff16815260200190815260200160002060006101000a81548160ff0219169083151502179055508173ffffffffffffffffffffffffffffffffffffffff16610fa3611253565b73ffffffffffffffffffffffffffffffffffffffff167f17307eab39ab6107e8899845ad3d59bd9653f200f220920489ca2b5937696c3183604051610fe891906135f0565b60405180910390a35050565b611005610fff611253565b83611314565b611044576040517f08c379a000000000000000000000000000000000000000000000000000000000815260040161103b90613888565b60405180910390fd5b61105084848484611a41565b50505050565b606061106182611a9d565b9050919050565b7f9f2df0fed2c77648de5860a4cc508cd0818c85b8b8a1ab4ceeef8d981c8956a681565b6110958261089d565b6110a6816110a1611253565b61164e565b6110b083836117cc565b505050565b7f65d7a28e3265b37a6474929f336521b332c1681b933f6cb9f3376673440d862a81565b6000600560008473ffffffffffffffffffffffffffffffffffffffff1673ffffffffffffffffffffffffffffffffffffffff16815260200190815260200160002060008373ffffffffffffffffffffffffffffffffffffffff1673ffffffffffffffffffffffffffffffffffffffff16815260200190815260200160002060009054906101000a900460ff16905092915050565b60007f7965db0b000000000000000000000000000000000000000000000000000000007bffffffffffffffffffffffffffffffffffffffffffffffffffffffff1916827bffffffffffffffffffffffffffffffffffffffffffffffffffffffff191614806111e057506111df82611bef565b5b9050919050565b60008073ffffffffffffffffffffffffffffffffffffffff166002600084815260200190815260200160002060009054906101000a900473ffffffffffffffffffffffffffffffffffffffff1673ffffffffffffffffffffffffffffffffffffffff1614159050919050565b600033905090565b816004600083815260200190815260200160002060006101000a81548173ffffffffffffffffffffffffffffffffffffffff021916908373ffffffffffffffffffffffffffffffffffffffff160217905550808273ffffffffffffffffffffffffffffffffffffffff166112ce83610bc8565b73ffffffffffffffffffffffffffffffffffffffff167f8c5be1e5ebec7d5bd14f71427d1e84f3dd0314c0f7b2291e5b200ac8c7c3b92560405160405180910390a45050565b600061131f826111e7565b61135e576040517f08c379a000000000000000000000000000000000000000000000000000000000815260040161135590613728565b60405180910390fd5b600061136983610bc8565b90508073ffffffffffffffffffffffffffffffffffffffff168473ffffffffffffffffffffffffffffffffffffffff1614806113d857508373ffffffffffffffffffffffffffffffffffffffff166113c08461067f565b73ffffffffffffffffffffffffffffffffffffffff16145b806113e957506113e881856110d9565b5b91505092915050565b8273ffffffffffffffffffffffffffffffffffffffff1661141282610bc8565b73ffffffffffffffffffffffffffffffffffffffff1614611468576040517f08c379a000000000000000000000000000000000000000000000000000000000815260040161145f90613828565b60405180910390fd5b600073ffffffffffffffffffffffffffffffffffffffff168273ffffffffffffffffffffffffffffffffffffffff1614156114d8576040517f08c379a00000000000000000000000000000000000000000000000000000000081526004016114cf906136e8565b60405180910390fd5b6114e3838383611c69565b6114ee60008261125b565b6001600360008573ffffffffffffffffffffffffffffffffffffffff1673ffffffffffffffffffffffffffffffffffffffff168152602001908152602001600020600082825461153e9190613a9d565b925050819055506001600360008473ffffffffffffffffffffffffffffffffffffffff1673ffffffffffffffffffffffffffffffffffffffff168152602001908152602001600020600082825461159591906139bc565b92505081905550816002600083815260200190815260200160002060006101000a81548173ffffffffffffffffffffffffffffffffffffffff021916908373ffffffffffffffffffffffffffffffffffffffff160217905550808273ffffffffffffffffffffffffffffffffffffffff168473ffffffffffffffffffffffffffffffffffffffff167fddf252ad1be2c89b69c2b068fc378daa952ba7f163c4a11628f55a4df523b3ef60405160405180910390a4505050565b6116588282610d6f565b6116e75761167d8173ffffffffffffffffffffffffffffffffffffffff166014611cc1565b61168b8360001c6020611cc1565b60405160200161169c92919061354f565b6040516020818303038152906040526040517f08c379a00000000000000000000000000000000000000000000000000000000081526004016116de9190613626565b60405180910390fd5b5050565b6116f58282610d6f565b6117c8576001600c600084815260200190815260200160002060000160008373ffffffffffffffffffffffffffffffffffffffff1673ffffffffffffffffffffffffffffffffffffffff16815260200190815260200160002060006101000a81548160ff02191690831515021790555061176d611253565b73ffffffffffffffffffffffffffffffffffffffff168173ffffffffffffffffffffffffffffffffffffffff16837f2f8788117e7eff1d82e926ec794901d17c78024a50270940304540a733656f0d60405160405180910390a45b5050565b6117d68282610d6f565b156118aa576000600c600084815260200190815260200160002060000160008373ffffffffffffffffffffffffffffffffffffffff1673ffffffffffffffffffffffffffffffffffffffff16815260200190815260200160002060006101000a81548160ff02191690831515021790555061184f611253565b73ffffffffffffffffffffffffffffffffffffffff168173ffffffffffffffffffffffffffffffffffffffff16837ff6391f5c32d9c69d2a47ea670b442974b53935d1edc7fd64eb21e047a839171b60405160405180910390a45b5050565b6118b6610bb1565b6118f5576040517f08c379a00000000000000000000000000000000000000000000000000000000081526004016118ec90613668565b60405180910390fd5b6000600b60006101000a81548160ff0219169083151502179055507f5db9ee0a495bf2e6ff9c91a7834c1ba4fdd244a5e8aa4e537bd38aeae4b073aa611939611253565b6040516119469190613589565b60405180910390a1565b600081600001549050919050565b611978828260405180602001604052806000815250611fbb565b5050565b6001816000016000828254019250508190555050565b61199b81612016565b50565b6119a6610bb1565b156119e6576040517f08c379a00000000000000000000000000000000000000000000000000000000081526004016119dd90613748565b60405180910390fd5b6001600b60006101000a81548160ff0219169083151502179055507f62e78cea01bee320cd4e420270b5ea74000d11b0c9f74754ebdbfc544b05a258611a2a611253565b604051611a379190613589565b60405180910390a1565b611a4c8484846113f2565b611a5884848484612069565b611a97576040517f08c379a0000000000000000000000000000000000000000000000000000000008152600401611a8e906136a8565b60405180910390fd5b50505050565b6060611aa8826111e7565b611ae7576040517f08c379a0000000000000000000000000000000000000000000000000000000008152600401611ade906137e8565b60405180910390fd5b6000600a60008481526020019081526020016000208054611b0790613bbb565b80601f0160208091040260200160405190810160405280929190818152602001828054611b3390613bbb565b8015611b805780601f10611b5557610100808354040283529160200191611b80565b820191906000526020600020905b815481529060010190602001808311611b6357829003601f168201915b505050505090506000611b91612200565b9050600081511415611ba7578192505050611bea565b600082511115611bdc578082604051602001611bc492919061352b565b60405160208183030381529060405292505050611bea565b611be584612217565b925050505b919050565b60007f780e9d63000000000000000000000000000000000000000000000000000000007bffffffffffffffffffffffffffffffffffffffffffffffffffffffff1916827bffffffffffffffffffffffffffffffffffffffffffffffffffffffff19161480611c625750611c61826122be565b5b9050919050565b611c71610bb1565b15611cb1576040517f08c379a0000000000000000000000000000000000000000000000000000000008152600401611ca890613748565b60405180910390fd5b611cbc8383836123a0565b505050565b606060006002836002611cd49190613a43565b611cde91906139bc565b67ffffffffffffffff811115611d1d577f4e487b7100000000000000000000000000000000000000000000000000000000600052604160045260246000fd5b6040519080825280601f01601f191660200182016040528015611d4f5781602001600182028036833780820191505090505b5090507f300000000000000000000000000000000000000000000000000000000000000081600081518110611dad577f4e487b7100000000000000000000000000000000000000000000000000000000600052603260045260246000fd5b60200101907effffffffffffffffffffffffffffffffffffffffffffffffffffffffffffff1916908160001a9053507f780000000000000000000000000000000000000000000000000000000000000081600181518110611e37577f4e487b7100000000000000000000000000000000000000000000000000000000600052603260045260246000fd5b60200101907effffffffffffffffffffffffffffffffffffffffffffffffffffffffffffff1916908160001a90535060006001846002611e779190613a43565b611e8191906139bc565b90505b6001811115611f6d577f3031323334353637383961626364656600000000000000000000000000000000600f861660108110611ee9577f4e487b7100000000000000000000000000000000000000000000000000000000600052603260045260246000fd5b1a60f81b828281518110611f26577f4e487b7100000000000000000000000000000000000000000000000000000000600052603260045260246000fd5b60200101907effffffffffffffffffffffffffffffffffffffffffffffffffffffffffffff1916908160001a905350600485901c945080611f6690613b91565b9050611e84565b5060008414611fb1576040517f08c379a0000000000000000000000000000000000000000000000000000000008152600401611fa890613648565b60405180910390fd5b8091505092915050565b611fc583836124b4565b611fd26000848484612069565b612011576040517f08c379a0000000000000000000000000000000000000000000000000000000008152600401612008906136a8565b60405180910390fd5b505050565b61201f81612682565b6000600a6000838152602001908152602001600020805461203f90613bbb565b90501461206657600a600082815260200190815260200160002060006120659190612d3a565b5b50565b600061208a8473ffffffffffffffffffffffffffffffffffffffff16612793565b156121f3578373ffffffffffffffffffffffffffffffffffffffff1663150b7a026120b3611253565b8786866040518563ffffffff1660e01b81526004016120d594939291906135a4565b602060405180830381600087803b1580156120ef57600080fd5b505af192505050801561212057506040513d601f19601f8201168201806040525081019061211d91906130b2565b60015b6121a3573d8060008114612150576040519150601f19603f3d011682016040523d82523d6000602084013e612155565b606091505b5060008151141561219b576040517f08c379a0000000000000000000000000000000000000000000000000000000008152600401612192906136a8565b60405180910390fd5b805181602001fd5b63150b7a0260e01b7bffffffffffffffffffffffffffffffffffffffffffffffffffffffff1916817bffffffffffffffffffffffffffffffffffffffffffffffffffffffff1916149150506121f8565b600190505b949350505050565b606060405180602001604052806000815250905090565b6060612222826111e7565b612261576040517f08c379a000000000000000000000000000000000000000000000000000000000815260040161225890613848565b60405180910390fd5b600061226b612200565b9050600081511161228b57604051806020016040528060008152506122b6565b80612295846127a6565b6040516020016122a692919061352b565b6040516020818303038152906040525b915050919050565b60007f80ac58cd000000000000000000000000000000000000000000000000000000007bffffffffffffffffffffffffffffffffffffffffffffffffffffffff1916827bffffffffffffffffffffffffffffffffffffffffffffffffffffffff1916148061238957507f5b5e139f000000000000000000000000000000000000000000000000000000007bffffffffffffffffffffffffffffffffffffffffffffffffffffffff1916827bffffffffffffffffffffffffffffffffffffffffffffffffffffffff1916145b80612399575061239882612953565b5b9050919050565b6123ab8383836129bd565b600073ffffffffffffffffffffffffffffffffffffffff168373ffffffffffffffffffffffffffffffffffffffff1614156123ee576123e9816129c2565b61242d565b8173ffffffffffffffffffffffffffffffffffffffff168373ffffffffffffffffffffffffffffffffffffffff161461242c5761242b8382612a0b565b5b5b600073ffffffffffffffffffffffffffffffffffffffff168273ffffffffffffffffffffffffffffffffffffffff1614156124705761246b81612b78565b6124af565b8273ffffffffffffffffffffffffffffffffffffffff168273ffffffffffffffffffffffffffffffffffffffff16146124ae576124ad8282612cbb565b5b5b505050565b600073ffffffffffffffffffffffffffffffffffffffff168273ffffffffffffffffffffffffffffffffffffffff161415612524576040517f08c379a000000000000000000000000000000000000000000000000000000000815260040161251b906137c8565b60405180910390fd5b61252d816111e7565b1561256d576040517f08c379a0000000000000000000000000000000000000000000000000000000008152600401612564906136c8565b60405180910390fd5b61257960008383611c69565b6001600360008473ffffffffffffffffffffffffffffffffffffffff1673ffffffffffffffffffffffffffffffffffffffff16815260200190815260200160002060008282546125c991906139bc565b92505081905550816002600083815260200190815260200160002060006101000a81548173ffffffffffffffffffffffffffffffffffffffff021916908373ffffffffffffffffffffffffffffffffffffffff160217905550808273ffffffffffffffffffffffffffffffffffffffff16600073ffffffffffffffffffffffffffffffffffffffff167fddf252ad1be2c89b69c2b068fc378daa952ba7f163c4a11628f55a4df523b3ef60405160405180910390a45050565b600061268d82610bc8565b905061269b81600084611c69565b6126a660008361125b565b6001600360008373ffffffffffffffffffffffffffffffffffffffff1673ffffffffffffffffffffffffffffffffffffffff16815260200190815260200160002060008282546126f69190613a9d565b925050819055506002600083815260200190815260200160002060006101000a81549073ffffffffffffffffffffffffffffffffffffffff021916905581600073ffffffffffffffffffffffffffffffffffffffff168273ffffffffffffffffffffffffffffffffffffffff167fddf252ad1be2c89b69c2b068fc378daa952ba7f163c4a11628f55a4df523b3ef60405160405180910390a45050565b600080823b905060008111915050919050565b606060008214156127ee576040518060400160405280600181526020017f3000000000000000000000000000000000000000000000000000000000000000815250905061294e565b600082905060005b6000821461282057808061280990613c1e565b915050600a826128199190613a12565b91506127f6565b60008167ffffffffffffffff811115612862577f4e487b7100000000000000000000000000000000000000000000000000000000600052604160045260246000fd5b6040519080825280601f01601f1916602001820160405280156128945781602001600182028036833780820191505090505b5090505b60008514612947576001826128ad9190613a9d565b9150600a856128bc9190613c67565b60306128c891906139bc565b60f81b818381518110612904577f4e487b7100000000000000000000000000000000000000000000000000000000600052603260045260246000fd5b60200101907effffffffffffffffffffffffffffffffffffffffffffffffffffffffffffff1916908160001a905350600a856129409190613a12565b9450612898565b8093505050505b919050565b60007f01ffc9a7000000000000000000000000000000000000000000000000000000007bffffffffffffffffffffffffffffffffffffffffffffffffffffffff1916827bffffffffffffffffffffffffffffffffffffffffffffffffffffffff1916149050919050565b505050565b6008805490506009600083815260200190815260200160002081905550600881908060018154018082558091505060019003906000526020600020016000909190919091505550565b60006001612a1884610c7a565b612a229190613a9d565b9050600060076000848152602001908152602001600020549050818114612b07576000600660008673ffffffffffffffffffffffffffffffffffffffff1673ffffffffffffffffffffffffffffffffffffffff168152602001908152602001600020600084815260200190815260200160002054905080600660008773ffffffffffffffffffffffffffffffffffffffff1673ffffffffffffffffffffffffffffffffffffffff168152602001908152602001600020600084815260200190815260200160002081905550816007600083815260200190815260200160002081905550505b6007600084815260200190815260200160002060009055600660008573ffffffffffffffffffffffffffffffffffffffff1673ffffffffffffffffffffffffffffffffffffffff16815260200190815260200160002060008381526020019081526020016000206000905550505050565b60006001600880549050612b8c9190613a9d565b9050600060096000848152602001908152602001600020549050600060088381548110612be2577f4e487b7100000000000000000000000000000000000000000000000000000000600052603260045260246000fd5b906000526020600020015490508060088381548110612c2a577f4e487b7100000000000000000000000000000000000000000000000000000000600052603260045260246000fd5b906000526020600020018190555081600960008381526020019081526020016000208190555060096000858152602001908152602001600020600090556008805480612c9f577f4e487b7100000000000000000000000000000000000000000000000000000000600052603160045260246000fd5b6001900381819060005260206000200160009055905550505050565b6000612cc683610c7a565b905081600660008573ffffffffffffffffffffffffffffffffffffffff1673ffffffffffffffffffffffffffffffffffffffff168152602001908152602001600020600083815260200190815260200160002081905550806007600084815260200190815260200160002081905550505050565b508054612d4690613bbb565b6000825580601f10612d585750612d77565b601f016020900490600052602060002090810190612d769190612d7a565b5b50565b5b80821115612d93576000816000905550600101612d7b565b5090565b6000612daa612da584613948565b613923565b905082815260208101848484011115612dc257600080fd5b612dcd848285613b4f565b509392505050565b600081359050612de48161439d565b92915050565b600081359050612df9816143b4565b92915050565b600081359050612e0e816143cb565b92915050565b600081359050612e23816143e2565b92915050565b600081519050612e38816143e2565b92915050565b600082601f830112612e4f57600080fd5b8135612e5f848260208601612d97565b91505092915050565b600081359050612e77816143f9565b92915050565b600060208284031215612e8f57600080fd5b6000612e9d84828501612dd5565b91505092915050565b60008060408385031215612eb957600080fd5b6000612ec785828601612dd5565b9250506020612ed885828601612dd5565b9150509250929050565b600080600060608486031215612ef757600080fd5b6000612f0586828701612dd5565b9350506020612f1686828701612dd5565b9250506040612f2786828701612e68565b9150509250925092565b60008060008060808587031215612f4757600080fd5b6000612f5587828801612dd5565b9450506020612f6687828801612dd5565b9350506040612f7787828801612e68565b925050606085013567ffffffffffffffff811115612f9457600080fd5b612fa087828801612e3e565b91505092959194509250565b60008060408385031215612fbf57600080fd5b6000612fcd85828601612dd5565b9250506020612fde85828601612dea565b9150509250929050565b60008060408385031215612ffb57600080fd5b600061300985828601612dd5565b925050602061301a85828601612e68565b9150509250929050565b60006020828403121561303657600080fd5b600061304484828501612dff565b91505092915050565b6000806040838503121561306057600080fd5b600061306e85828601612dff565b925050602061307f85828601612dd5565b9150509250929050565b60006020828403121561309b57600080fd5b60006130a984828501612e14565b91505092915050565b6000602082840312156130c457600080fd5b60006130d284828501612e29565b91505092915050565b6000602082840312156130ed57600080fd5b60006130fb84828501612e68565b91505092915050565b61310d81613ad1565b82525050565b61311c81613ae3565b82525050565b61312b81613aef565b82525050565b600061313c82613979565b613146818561398f565b9350613156818560208601613b5e565b61315f81613d54565b840191505092915050565b600061317582613984565b61317f81856139a0565b935061318f818560208601613b5e565b61319881613d54565b840191505092915050565b60006131ae82613984565b6131b881856139b1565b93506131c8818560208601613b5e565b80840191505092915050565b60006131e16020836139a0565b91506131ec82613d65565b602082019050919050565b60006132046014836139a0565b915061320f82613d8e565b602082019050919050565b6000613227602b836139a0565b915061323282613db7565b604082019050919050565b600061324a6032836139a0565b915061325582613e06565b604082019050919050565b600061326d601c836139a0565b915061327882613e55565b602082019050919050565b60006132906024836139a0565b915061329b82613e7e565b604082019050919050565b60006132b36019836139a0565b91506132be82613ecd565b602082019050919050565b60006132d6602c836139a0565b91506132e182613ef6565b604082019050919050565b60006132f96010836139a0565b915061330482613f45565b602082019050919050565b600061331c6038836139a0565b915061332782613f6e565b604082019050919050565b600061333f602a836139a0565b915061334a82613fbd565b604082019050919050565b60006133626029836139a0565b915061336d8261400c565b604082019050919050565b60006133856020836139a0565b91506133908261405b565b602082019050919050565b60006133a86031836139a0565b91506133b382614084565b604082019050919050565b60006133cb602c836139a0565b91506133d6826140d3565b604082019050919050565b60006133ee6029836139a0565b91506133f982614122565b604082019050919050565b6000613411602f836139a0565b915061341c82614171565b604082019050919050565b60006134346021836139a0565b915061343f826141c0565b604082019050919050565b60006134576031836139a0565b91506134628261420f565b604082019050919050565b600061347a602c836139a0565b91506134858261425e565b604082019050919050565b600061349d6017836139b1565b91506134a8826142ad565b601782019050919050565b60006134c06030836139a0565b91506134cb826142d6565b604082019050919050565b60006134e36011836139b1565b91506134ee82614325565b601182019050919050565b6000613506602f836139a0565b91506135118261434e565b604082019050919050565b61352581613b45565b82525050565b600061353782856131a3565b915061354382846131a3565b91508190509392505050565b600061355a82613490565b915061356682856131a3565b9150613571826134d6565b915061357d82846131a3565b91508190509392505050565b600060208201905061359e6000830184613104565b92915050565b60006080820190506135b96000830187613104565b6135c66020830186613104565b6135d3604083018561351c565b81810360608301526135e58184613131565b905095945050505050565b60006020820190506136056000830184613113565b92915050565b60006020820190506136206000830184613122565b92915050565b60006020820190508181036000830152613640818461316a565b905092915050565b60006020820190508181036000830152613661816131d4565b9050919050565b60006020820190508181036000830152613681816131f7565b9050919050565b600060208201905081810360008301526136a18161321a565b9050919050565b600060208201905081810360008301526136c18161323d565b9050919050565b600060208201905081810360008301526136e181613260565b9050919050565b6000602082019050818103600083015261370181613283565b9050919050565b60006020820190508181036000830152613721816132a6565b9050919050565b60006020820190508181036000830152613741816132c9565b9050919050565b60006020820190508181036000830152613761816132ec565b9050919050565b600060208201905081810360008301526137818161330f565b9050919050565b600060208201905081810360008301526137a181613332565b9050919050565b600060208201905081810360008301526137c181613355565b9050919050565b600060208201905081810360008301526137e181613378565b9050919050565b600060208201905081810360008301526138018161339b565b9050919050565b60006020820190508181036000830152613821816133be565b9050919050565b60006020820190508181036000830152613841816133e1565b9050919050565b6000602082019050818103600083015261386181613404565b9050919050565b6000602082019050818103600083015261388181613427565b9050919050565b600060208201905081810360008301526138a18161344a565b9050919050565b600060208201905081810360008301526138c18161346d565b9050919050565b600060208201905081810360008301526138e1816134b3565b9050919050565b60006020820190508181036000830152613901816134f9565b9050919050565b600060208201905061391d600083018461351c565b92915050565b600061392d61393e565b90506139398282613bed565b919050565b6000604051905090565b600067ffffffffffffffff82111561396357613962613d25565b5b61396c82613d54565b9050602081019050919050565b600081519050919050565b600081519050919050565b600082825260208201905092915050565b600082825260208201905092915050565b600081905092915050565b60006139c782613b45565b91506139d283613b45565b9250827fffffffffffffffffffffffffffffffffffffffffffffffffffffffffffffffff03821115613a0757613a06613c98565b5b828201905092915050565b6000613a1d82613b45565b9150613a2883613b45565b925082613a3857613a37613cc7565b5b828204905092915050565b6000613a4e82613b45565b9150613a5983613b45565b9250817fffffffffffffffffffffffffffffffffffffffffffffffffffffffffffffffff0483118215151615613a9257613a91613c98565b5b828202905092915050565b6000613aa882613b45565b9150613ab383613b45565b925082821015613ac657613ac5613c98565b5b828203905092915050565b6000613adc82613b25565b9050919050565b60008115159050919050565b6000819050919050565b60007fffffffff0000000000000000000000000000000000000000000000000000000082169050919050565b600073ffffffffffffffffffffffffffffffffffffffff82169050919050565b6000819050919050565b82818337600083830152505050565b60005b83811015613b7c578082015181840152602081019050613b61565b83811115613b8b576000848401525b50505050565b6000613b9c82613b45565b91506000821415613bb057613baf613c98565b5b600182039050919050565b60006002820490506001821680613bd357607f821691505b60208210811415613be757613be6613cf6565b5b50919050565b613bf682613d54565b810181811067ffffffffffffffff82111715613c1557613c14613d25565b5b80604052505050565b6000613c2982613b45565b91507fffffffffffffffffffffffffffffffffffffffffffffffffffffffffffffffff821415613c5c57613c5b613c98565b5b600182019050919050565b6000613c7282613b45565b9150613c7d83613b45565b925082613c8d57613c8c613cc7565b5b828206905092915050565b7f4e487b7100000000000000000000000000000000000000000000000000000000600052601160045260246000fd5b7f4e487b7100000000000000000000000000000000000000000000000000000000600052601260045260246000fd5b7f4e487b7100000000000000000000000000000000000000000000000000000000600052602260045260246000fd5b7f4e487b7100000000000000000000000000000000000000000000000000000000600052604160045260246000fd5b6000601f19601f8301169050919050565b7f537472696e67733a20686578206c656e67746820696e73756666696369656e74600082015250565b7f5061757361626c653a206e6f7420706175736564000000000000000000000000600082015250565b7f455243373231456e756d657261626c653a206f776e657220696e646578206f7560008201527f74206f6620626f756e6473000000000000000000000000000000000000000000602082015250565b7f4552433732313a207472616e7366657220746f206e6f6e20455243373231526560008201527f63656976657220696d706c656d656e7465720000000000000000000000000000602082015250565b7f4552433732313a20746f6b656e20616c7265616479206d696e74656400000000600082015250565b7f4552433732313a207472616e7366657220746f20746865207a65726f2061646460008201527f7265737300000000000000000000000000000000000000000000000000000000602082015250565b7f4552433732313a20617070726f766520746f2063616c6c657200000000000000600082015250565b7f4552433732313a206f70657261746f7220717565727920666f72206e6f6e657860008201527f697374656e7420746f6b656e0000000000000000000000000000000000000000602082015250565b7f5061757361626c653a2070617573656400000000000000000000000000000000600082015250565b7f4552433732313a20617070726f76652063616c6c6572206973206e6f74206f7760008201527f6e6572206e6f7220617070726f76656420666f7220616c6c0000000000000000602082015250565b7f4552433732313a2062616c616e636520717565727920666f7220746865207a6560008201527f726f206164647265737300000000000000000000000000000000000000000000602082015250565b7f4552433732313a206f776e657220717565727920666f72206e6f6e657869737460008201527f656e7420746f6b656e0000000000000000000000000000000000000000000000602082015250565b7f4552433732313a206d696e7420746f20746865207a65726f2061646472657373600082015250565b7f45524337323155524953746f726167653a2055524920717565727920666f722060008201527f6e6f6e6578697374656e7420746f6b656e000000000000000000000000000000602082015250565b7f4552433732313a20617070726f76656420717565727920666f72206e6f6e657860008201527f697374656e7420746f6b656e0000000000000000000000000000000000000000602082015250565b7f4552433732313a207472616e73666572206f6620746f6b656e2074686174206960008201527f73206e6f74206f776e0000000000000000000000000000000000000000000000602082015250565b7f4552433732314d657461646174613a2055524920717565727920666f72206e6f60008201527f6e6578697374656e7420746f6b656e0000000000000000000000000000000000602082015250565b7f4552433732313a20617070726f76616c20746f2063757272656e74206f776e6560008201527f7200000000000000000000000000000000000000000000000000000000000000602082015250565b7f4552433732313a207472616e736665722063616c6c6572206973206e6f74206f60008201527f776e6572206e6f7220617070726f766564000000000000000000000000000000602082015250565b7f455243373231456e756d657261626c653a20676c6f62616c20696e646578206f60008201527f7574206f6620626f756e64730000000000000000000000000000000000000000602082015250565b7f416363657373436f6e74726f6c3a206163636f756e7420000000000000000000600082015250565b7f4552433732314275726e61626c653a2063616c6c6572206973206e6f74206f7760008201527f6e6572206e6f7220617070726f76656400000000000000000000000000000000602082015250565b7f206973206d697373696e6720726f6c6520000000000000000000000000000000600082015250565b7f416363657373436f6e74726f6c3a2063616e206f6e6c792072656e6f756e636560008201527f20726f6c657320666f722073656c660000000000000000000000000000000000602082015250565b6143a681613ad1565b81146143b157600080fd5b50565b6143bd81613ae3565b81146143c857600080fd5b50565b6143d481613aef565b81146143df57600080fd5b50565b6143eb81613af9565b81146143f657600080fd5b50565b61440281613b45565b811461440d57600080fd5b5056fea2646970667358221220f992a16633d8b438bd9ca4103e572e0d71a41604576c4cb77046715b844a100b64736f6c63430008040033",
  "linkReferences": {},
  "deployedLinkReferences": {}
}