{
  "_format": "hh-sol-artifact-1",
  "contractName": "ColourPulse",
  "sourceName": "contracts/ColourPulse.sol",
  "abi": [
    {
      "inputs": [],
      "stateMutability": "nonpayable",
      "type": "constructor"
    },
    {
      "anonymous": false,
      "inputs": [
        {
          "indexed": true,
          "internalType": "address",
          "name": "owner",
          "type": "address"
        },
        {
          "indexed": true,
          "internalType": "address",
          "name": "approved",
          "type": "address"
        },
        {
          "indexed": true,
          "internalType": "uint256",
          "name": "tokenId",
          "type": "uint256"
        }
      ],
      "name": "Approval",
      "type": "event"
    },
    {
      "anonymous": false,
      "inputs": [
        {
          "indexed": true,
          "internalType": "address",
          "name": "owner",
          "type": "address"
        },
        {
          "indexed": true,
          "internalType": "address",
          "name": "operator",
          "type": "address"
        },
        {
          "indexed": false,
          "internalType": "bool",
          "name": "approved",
          "type": "bool"
        }
      ],
      "name": "ApprovalForAll",
      "type": "event"
    },
    {
      "anonymous": false,
      "inputs": [
        {
          "indexed": false,
          "internalType": "address",
          "name": "account",
          "type": "address"
        }
      ],
      "name": "Paused",
      "type": "event"
    },
    {
      "anonymous": false,
      "inputs": [
        {
          "indexed": true,
          "internalType": "bytes32",
          "name": "role",
          "type": "bytes32"
        },
        {
          "indexed": true,
          "internalType": "bytes32",
          "name": "previousAdminRole",
          "type": "bytes32"
        },
        {
          "indexed": true,
          "internalType": "bytes32",
          "name": "newAdminRole",
          "type": "bytes32"
        }
      ],
      "name": "RoleAdminChanged",
      "type": "event"
    },
    {
      "anonymous": false,
      "inputs": [
        {
          "indexed": true,
          "internalType": "bytes32",
          "name": "role",
          "type": "bytes32"
        },
        {
          "indexed": true,
          "internalType": "address",
          "name": "account",
          "type": "address"
        },
        {
          "indexed": true,
          "internalType": "address",
          "name": "sender",
          "type": "address"
        }
      ],
      "name": "RoleGranted",
      "type": "event"
    },
    {
      "anonymous": false,
      "inputs": [
        {
          "indexed": true,
          "internalType": "bytes32",
          "name": "role",
          "type": "bytes32"
        },
        {
          "indexed": true,
          "internalType": "address",
          "name": "account",
          "type": "address"
        },
        {
          "indexed": true,
          "internalType": "address",
          "name": "sender",
          "type": "address"
        }
      ],
      "name": "RoleRevoked",
      "type": "event"
    },
    {
      "anonymous": false,
      "inputs": [
        {
          "indexed": true,
          "internalType": "address",
          "name": "from",
          "type": "address"
        },
        {
          "indexed": true,
          "internalType": "address",
          "name": "to",
          "type": "address"
        },
        {
          "indexed": true,
          "internalType": "uint256",
          "name": "tokenId",
          "type": "uint256"
        }
      ],
      "name": "Transfer",
      "type": "event"
    },
    {
      "anonymous": false,
      "inputs": [
        {
          "indexed": false,
          "internalType": "address",
          "name": "account",
          "type": "address"
        }
      ],
      "name": "Unpaused",
      "type": "event"
    },
    {
      "inputs": [],
      "name": "DEFAULT_ADMIN_ROLE",
      "outputs": [
        {
          "internalType": "bytes32",
          "name": "",
          "type": "bytes32"
        }
      ],
      "stateMutability": "view",
      "type": "function"
    },
    {
      "inputs": [],
      "name": "MINTER_ROLE",
      "outputs": [
        {
          "internalType": "bytes32",
          "name": "",
          "type": "bytes32"
        }
      ],
      "stateMutability": "view",
      "type": "function"
    },
    {
      "inputs": [],
      "name": "PAUSER_ROLE",
      "outputs": [
        {
          "internalType": "bytes32",
          "name": "",
          "type": "bytes32"
        }
      ],
      "stateMutability": "view",
      "type": "function"
    },
    {
      "inputs": [
        {
          "internalType": "address",
          "name": "to",
          "type": "address"
        },
        {
          "internalType": "uint256",
          "name": "tokenId",
          "type": "uint256"
        }
      ],
      "name": "approve",
      "outputs": [],
      "stateMutability": "nonpayable",
      "type": "function"
    },
    {
      "inputs": [
        {
          "internalType": "address",
          "name": "owner",
          "type": "address"
        }
      ],
      "name": "balanceOf",
      "outputs": [
        {
          "internalType": "uint256",
          "name": "",
          "type": "uint256"
        }
      ],
      "stateMutability": "view",
      "type": "function"
    },
    {
      "inputs": [
        {
          "internalType": "uint256",
          "name": "tokenId",
          "type": "uint256"
        }
      ],
      "name": "burn",
      "outputs": [],
      "stateMutability": "nonpayable",
      "type": "function"
    },
    {
      "inputs": [
        {
          "internalType": "uint256",
          "name": "_tokenId",
          "type": "uint256"
        }
      ],
      "name": "generateSvg",
      "outputs": [
        {
          "internalType": "string",
          "name": "",
          "type": "string"
        }
      ],
      "stateMutability": "view",
      "type": "function"
    },
    {
      "inputs": [
        {
          "internalType": "uint256",
          "name": "tokenId",
          "type": "uint256"
        }
      ],
      "name": "getApproved",
      "outputs": [
        {
          "internalType": "address",
          "name": "",
          "type": "address"
        }
      ],
      "stateMutability": "view",
      "type": "function"
    },
    {
      "inputs": [
        {
          "internalType": "bytes32",
          "name": "role",
          "type": "bytes32"
        }
      ],
      "name": "getRoleAdmin",
      "outputs": [
        {
          "internalType": "bytes32",
          "name": "",
          "type": "bytes32"
        }
      ],
      "stateMutability": "view",
      "type": "function"
    },
    {
      "inputs": [
        {
          "internalType": "bytes32",
          "name": "role",
          "type": "bytes32"
        },
        {
          "internalType": "address",
          "name": "account",
          "type": "address"
        }
      ],
      "name": "grantRole",
      "outputs": [],
      "stateMutability": "nonpayable",
      "type": "function"
    },
    {
      "inputs": [
        {
          "internalType": "bytes32",
          "name": "role",
          "type": "bytes32"
        },
        {
          "internalType": "address",
          "name": "account",
          "type": "address"
        }
      ],
      "name": "hasRole",
      "outputs": [
        {
          "internalType": "bool",
          "name": "",
          "type": "bool"
        }
      ],
      "stateMutability": "view",
      "type": "function"
    },
    {
      "inputs": [
        {
          "internalType": "address",
          "name": "owner",
          "type": "address"
        },
        {
          "internalType": "address",
          "name": "operator",
          "type": "address"
        }
      ],
      "name": "isApprovedForAll",
      "outputs": [
        {
          "internalType": "bool",
          "name": "",
          "type": "bool"
        }
      ],
      "stateMutability": "view",
      "type": "function"
    },
    {
      "inputs": [],
      "name": "isSenderAdmin",
      "outputs": [
        {
          "internalType": "bool",
          "name": "",
          "type": "bool"
        }
      ],
      "stateMutability": "view",
      "type": "function"
    },
    {
      "inputs": [
        {
          "internalType": "uint8",
          "name": "_stripeCount",
          "type": "uint8"
        },
        {
          "internalType": "uint256",
          "name": "_rotationDegrees",
          "type": "uint256"
        },
        {
          "internalType": "uint256",
          "name": "_palette",
          "type": "uint256"
        },
        {
          "internalType": "uint256",
          "name": "_speed",
          "type": "uint256"
        }
      ],
      "name": "mintStripes",
      "outputs": [],
      "stateMutability": "nonpayable",
      "type": "function"
    },
    {
      "inputs": [],
      "name": "name",
      "outputs": [
        {
          "internalType": "string",
          "name": "",
          "type": "string"
        }
      ],
      "stateMutability": "view",
      "type": "function"
    },
    {
      "inputs": [
        {
          "internalType": "uint256",
          "name": "tokenId",
          "type": "uint256"
        }
      ],
      "name": "ownerOf",
      "outputs": [
        {
          "internalType": "address",
          "name": "",
          "type": "address"
        }
      ],
      "stateMutability": "view",
      "type": "function"
    },
    {
      "inputs": [],
      "name": "pause",
      "outputs": [],
      "stateMutability": "nonpayable",
      "type": "function"
    },
    {
      "inputs": [],
      "name": "paused",
      "outputs": [
        {
          "internalType": "bool",
          "name": "",
          "type": "bool"
        }
      ],
      "stateMutability": "view",
      "type": "function"
    },
    {
      "inputs": [
        {
          "internalType": "bytes32",
          "name": "role",
          "type": "bytes32"
        },
        {
          "internalType": "address",
          "name": "account",
          "type": "address"
        }
      ],
      "name": "renounceRole",
      "outputs": [],
      "stateMutability": "nonpayable",
      "type": "function"
    },
    {
      "inputs": [
        {
          "internalType": "bytes32",
          "name": "role",
          "type": "bytes32"
        },
        {
          "internalType": "address",
          "name": "account",
          "type": "address"
        }
      ],
      "name": "revokeRole",
      "outputs": [],
      "stateMutability": "nonpayable",
      "type": "function"
    },
    {
      "inputs": [
        {
          "internalType": "address",
          "name": "from",
          "type": "address"
        },
        {
          "internalType": "address",
          "name": "to",
          "type": "address"
        },
        {
          "internalType": "uint256",
          "name": "tokenId",
          "type": "uint256"
        }
      ],
      "name": "safeTransferFrom",
      "outputs": [],
      "stateMutability": "nonpayable",
      "type": "function"
    },
    {
      "inputs": [
        {
          "internalType": "address",
          "name": "from",
          "type": "address"
        },
        {
          "internalType": "address",
          "name": "to",
          "type": "address"
        },
        {
          "internalType": "uint256",
          "name": "tokenId",
          "type": "uint256"
        },
        {
          "internalType": "bytes",
          "name": "_data",
          "type": "bytes"
        }
      ],
      "name": "safeTransferFrom",
      "outputs": [],
      "stateMutability": "nonpayable",
      "type": "function"
    },
    {
      "inputs": [
        {
          "internalType": "address",
          "name": "operator",
          "type": "address"
        },
        {
          "internalType": "bool",
          "name": "approved",
          "type": "bool"
        }
      ],
      "name": "setApprovalForAll",
      "outputs": [],
      "stateMutability": "nonpayable",
      "type": "function"
    },
    {
      "inputs": [
        {
          "internalType": "bytes4",
          "name": "interfaceId",
          "type": "bytes4"
        }
      ],
      "name": "supportsInterface",
      "outputs": [
        {
          "internalType": "bool",
          "name": "",
          "type": "bool"
        }
      ],
      "stateMutability": "view",
      "type": "function"
    },
    {
      "inputs": [],
      "name": "symbol",
      "outputs": [
        {
          "internalType": "string",
          "name": "",
          "type": "string"
        }
      ],
      "stateMutability": "view",
      "type": "function"
    },
    {
      "inputs": [
        {
          "internalType": "uint256",
          "name": "index",
          "type": "uint256"
        }
      ],
      "name": "tokenByIndex",
      "outputs": [
        {
          "internalType": "uint256",
          "name": "",
          "type": "uint256"
        }
      ],
      "stateMutability": "view",
      "type": "function"
    },
    {
      "inputs": [
        {
          "internalType": "address",
          "name": "owner",
          "type": "address"
        },
        {
          "internalType": "uint256",
          "name": "index",
          "type": "uint256"
        }
      ],
      "name": "tokenOfOwnerByIndex",
      "outputs": [
        {
          "internalType": "uint256",
          "name": "",
          "type": "uint256"
        }
      ],
      "stateMutability": "view",
      "type": "function"
    },
    {
      "inputs": [
        {
          "internalType": "uint256",
          "name": "tokenId",
          "type": "uint256"
        }
      ],
      "name": "tokenURI",
      "outputs": [
        {
          "internalType": "string",
          "name": "",
          "type": "string"
        }
      ],
      "stateMutability": "view",
      "type": "function"
    },
    {
      "inputs": [],
      "name": "totalSupply",
      "outputs": [
        {
          "internalType": "uint256",
          "name": "",
          "type": "uint256"
        }
      ],
      "stateMutability": "view",
      "type": "function"
    },
    {
      "inputs": [
        {
          "internalType": "address",
          "name": "from",
          "type": "address"
        },
        {
          "internalType": "address",
          "name": "to",
          "type": "address"
        },
        {
          "internalType": "uint256",
          "name": "tokenId",
          "type": "uint256"
        }
      ],
      "name": "transferFrom",
      "outputs": [],
      "stateMutability": "nonpayable",
      "type": "function"
    },
    {
      "inputs": [],
      "name": "unpause",
      "outputs": [],
      "stateMutability": "nonpayable",
      "type": "function"
    }
  ],
  "bytecode": "0x60806040523480156200001157600080fd5b506040518060400160405280600b81526020017f436f6c6f757250756c73650000000000000000000000000000000000000000008152506040518060400160405280600381526020017f434c500000000000000000000000000000000000000000000000000000000000815250816000908051906020019062000096929190620002c7565b508060019080519060200190620000af929190620002c7565b5050506000600b60006101000a81548160ff021916908315150217905550620000e26000801b336200014c60201b60201c565b620001147f65d7a28e3265b37a6474929f336521b332c1681b933f6cb9f3376673440d862a336200014c60201b60201c565b620001467f9f2df0fed2c77648de5860a4cc508cd0818c85b8b8a1ab4ceeef8d981c8956a6336200014c60201b60201c565b620003dc565b6200015e82826200016260201b60201c565b5050565b6200017482826200025460201b60201c565b62000250576001600c600084815260200190815260200160002060000160008373ffffffffffffffffffffffffffffffffffffffff1673ffffffffffffffffffffffffffffffffffffffff16815260200190815260200160002060006101000a81548160ff021916908315150217905550620001f5620002bf60201b60201c565b73ffffffffffffffffffffffffffffffffffffffff168173ffffffffffffffffffffffffffffffffffffffff16837f2f8788117e7eff1d82e926ec794901d17c78024a50270940304540a733656f0d60405160405180910390a45b5050565b6000600c600084815260200190815260200160002060000160008373ffffffffffffffffffffffffffffffffffffffff1673ffffffffffffffffffffffffffffffffffffffff16815260200190815260200160002060009054906101000a900460ff16905092915050565b600033905090565b828054620002d59062000377565b90600052602060002090601f016020900481019282620002f9576000855562000345565b82601f106200031457805160ff191683800117855562000345565b8280016001018555821562000345579182015b828111156200034457825182559160200191906001019062000327565b5b50905062000354919062000358565b5090565b5b808211156200037357600081600090555060010162000359565b5090565b600060028204905060018216806200039057607f821691505b60208210811415620003a757620003a6620003ad565b5b50919050565b7f4e487b7100000000000000000000000000000000000000000000000000000000600052602260045260246000fd5b61559b80620003ec6000396000f3fe608060405234801561001057600080fd5b50600436106101e55760003560e01c80635c975abb1161010f578063a22cb465116100a2578063d539139311610071578063d53913931461058e578063d547741f146105ac578063e63ab1e9146105c8578063e985e9c5146105e6576101e5565b8063a22cb465146104f6578063b88d4fde14610512578063bc921dc21461052e578063c87b56dd1461055e576101e5565b80638456cb59116100de5780638456cb591461048057806391d148541461048a57806395d89b41146104ba578063a217fddf146104d8576101e5565b80635c975abb146103e65780636352211e1461040457806368be969b1461043457806370a0823114610450576101e5565b8063248a9ca3116101875780633f4ba83a116101565780633f4ba83a1461037457806342842e0e1461037e57806342966c681461039a5780634f6ccce7146103b6576101e5565b8063248a9ca3146102dc5780632f2ff15d1461030c5780632f745c591461032857806336568abe14610358576101e5565b8063095ea7b3116101c3578063095ea7b31461026857806318160ddd146102845780631d0d4e8b146102a257806323b872dd146102c0576101e5565b806301ffc9a7146101ea57806306fdde031461021a578063081812fc14610238575b600080fd5b61020460048036038101906101ff919061380d565b610616565b6040516102119190614201565b60405180910390f35b610222610628565b60405161022f9190614237565b60405180910390f35b610252600480360381019061024d919061385f565b6106ba565b60405161025f919061419a565b60405180910390f35b610282600480360381019061027d919061376c565b61073f565b005b61028c610857565b60405161029991906145b9565b60405180910390f35b6102aa610864565b6040516102b79190614201565b60405180910390f35b6102da60048036038101906102d59190613666565b610878565b005b6102f660048036038101906102f191906137a8565b6108d8565b604051610303919061421c565b60405180910390f35b610326600480360381019061032191906137d1565b6108f8565b005b610342600480360381019061033d919061376c565b610921565b60405161034f91906145b9565b60405180910390f35b610372600480360381019061036d91906137d1565b6109c6565b005b61037c610a49565b005b61039860048036038101906103939190613666565b610a86565b005b6103b460048036038101906103af919061385f565b610aa6565b005b6103d060048036038101906103cb919061385f565b610b02565b6040516103dd91906145b9565b60405180910390f35b6103ee610b99565b6040516103fb9190614201565b60405180910390f35b61041e6004803603810190610419919061385f565b610bb0565b60405161042b919061419a565b60405180910390f35b61044e60048036038101906104499190613888565b610c62565b005b61046a60048036038101906104659190613601565b610e34565b60405161047791906145b9565b60405180910390f35b610488610eec565b005b6104a4600480360381019061049f91906137d1565b610f29565b6040516104b19190614201565b60405180910390f35b6104c2610f94565b6040516104cf9190614237565b60405180910390f35b6104e0611026565b6040516104ed919061421c565b60405180910390f35b610510600480360381019061050b9190613730565b61102d565b005b61052c600480360381019061052791906136b5565b6111ae565b005b6105486004803603810190610543919061385f565b611210565b6040516105559190614237565b60405180910390f35b6105786004803603810190610573919061385f565b6113d3565b6040516105859190614237565b60405180910390f35b6105966113e5565b6040516105a3919061421c565b60405180910390f35b6105c660048036038101906105c191906137d1565b611409565b005b6105d0611432565b6040516105dd919061421c565b60405180910390f35b61060060048036038101906105fb919061362a565b611456565b60405161060d9190614201565b60405180910390f35b6000610621826114ea565b9050919050565b606060008054610637906148b0565b80601f0160208091040260200160405190810160405280929190818152602001828054610663906148b0565b80156106b05780601f10610685576101008083540402835291602001916106b0565b820191906000526020600020905b81548152906001019060200180831161069357829003601f168201915b5050505050905090565b60006106c582611564565b610704576040517f08c379a00000000000000000000000000000000000000000000000000000000081526004016106fb906144b9565b60405180910390fd5b6004600083815260200190815260200160002060009054906101000a900473ffffffffffffffffffffffffffffffffffffffff169050919050565b600061074a82610bb0565b90508073ffffffffffffffffffffffffffffffffffffffff168373ffffffffffffffffffffffffffffffffffffffff1614156107bb576040517f08c379a00000000000000000000000000000000000000000000000000000000081526004016107b290614519565b60405180910390fd5b8073ffffffffffffffffffffffffffffffffffffffff166107da6115d0565b73ffffffffffffffffffffffffffffffffffffffff1614806108095750610808816108036115d0565b611456565b5b610848576040517f08c379a000000000000000000000000000000000000000000000000000000000815260040161083f906143d9565b60405180910390fd5b61085283836115d8565b505050565b6000600880549050905090565b60006108736000801b33610f29565b905090565b6108896108836115d0565b82611691565b6108c8576040517f08c379a00000000000000000000000000000000000000000000000000000000081526004016108bf90614539565b60405180910390fd5b6108d383838361176f565b505050565b6000600c6000838152602001908152602001600020600101549050919050565b610901826108d8565b6109128161090d6115d0565b6119cb565b61091c8383611a68565b505050565b600061092c83610e34565b821061096d576040517f08c379a0000000000000000000000000000000000000000000000000000000008152600401610964906142b9565b60405180910390fd5b600660008473ffffffffffffffffffffffffffffffffffffffff1673ffffffffffffffffffffffffffffffffffffffff168152602001908152602001600020600083815260200190815260200160002054905092915050565b6109ce6115d0565b73ffffffffffffffffffffffffffffffffffffffff168173ffffffffffffffffffffffffffffffffffffffff1614610a3b576040517f08c379a0000000000000000000000000000000000000000000000000000000008152600401610a3290614599565b60405180910390fd5b610a458282611b49565b5050565b7f65d7a28e3265b37a6474929f336521b332c1681b933f6cb9f3376673440d862a610a7b81610a766115d0565b6119cb565b610a83611c2b565b50565b610aa1838383604051806020016040528060008152506111ae565b505050565b610ab7610ab16115d0565b82611691565b610af6576040517f08c379a0000000000000000000000000000000000000000000000000000000008152600401610aed90614579565b60405180910390fd5b610aff81611ccd565b50565b6000610b0c610857565b8210610b4d576040517f08c379a0000000000000000000000000000000000000000000000000000000008152600401610b4490614559565b60405180910390fd5b60088281548110610b87577f4e487b7100000000000000000000000000000000000000000000000000000000600052603260045260246000fd5b90600052602060002001549050919050565b6000600b60009054906101000a900460ff16905090565b6000806002600084815260200190815260200160002060009054906101000a900473ffffffffffffffffffffffffffffffffffffffff169050600073ffffffffffffffffffffffffffffffffffffffff168173ffffffffffffffffffffffffffffffffffffffff161415610c59576040517f08c379a0000000000000000000000000000000000000000000000000000000008152600401610c5090614439565b60405180910390fd5b80915050919050565b60018460ff16101580610c79575060158460ff1611155b610cb8576040517f08c379a0000000000000000000000000000000000000000000000000000000008152600401610caf90614319565b60405180910390fd5b600083101580610cca57506101688311155b610d09576040517f08c379a0000000000000000000000000000000000000000000000000000000008152600401610d00906143f9565b60405180910390fd5b600082101580610d1a575060648211155b610d59576040517f08c379a0000000000000000000000000000000000000000000000000000000008152600401610d5090614299565b60405180910390fd5b600081101580610d6a575060648111155b610da9576040517f08c379a0000000000000000000000000000000000000000000000000000000008152600401610da090614339565b60405180910390fd5b6000610db5600d611cd9565b9050610dc13382611ce7565b60405180608001604052808660ff16815260200185815260200184815260200183815250600e600083815260200190815260200160002060008201518160000155602082015181600101556040820151816002015560608201518160030155905050610e2d600d611d05565b5050505050565b60008073ffffffffffffffffffffffffffffffffffffffff168273ffffffffffffffffffffffffffffffffffffffff161415610ea5576040517f08c379a0000000000000000000000000000000000000000000000000000000008152600401610e9c90614419565b60405180910390fd5b600360008373ffffffffffffffffffffffffffffffffffffffff1673ffffffffffffffffffffffffffffffffffffffff168152602001908152602001600020549050919050565b7f65d7a28e3265b37a6474929f336521b332c1681b933f6cb9f3376673440d862a610f1e81610f196115d0565b6119cb565b610f26611d1b565b50565b6000600c600084815260200190815260200160002060000160008373ffffffffffffffffffffffffffffffffffffffff1673ffffffffffffffffffffffffffffffffffffffff16815260200190815260200160002060009054906101000a900460ff16905092915050565b606060018054610fa3906148b0565b80601f0160208091040260200160405190810160405280929190818152602001828054610fcf906148b0565b801561101c5780601f10610ff15761010080835404028352916020019161101c565b820191906000526020600020905b815481529060010190602001808311610fff57829003601f168201915b5050505050905090565b6000801b81565b6110356115d0565b73ffffffffffffffffffffffffffffffffffffffff168273ffffffffffffffffffffffffffffffffffffffff1614156110a3576040517f08c379a000000000000000000000000000000000000000000000000000000000815260040161109a90614379565b60405180910390fd5b80600560006110b06115d0565b73ffffffffffffffffffffffffffffffffffffffff1673ffffffffffffffffffffffffffffffffffffffff16815260200190815260200160002060008473ffffffffffffffffffffffffffffffffffffffff1673ffffffffffffffffffffffffffffffffffffffff16815260200190815260200160002060006101000a81548160ff0219169083151502179055508173ffffffffffffffffffffffffffffffffffffffff1661115d6115d0565b73ffffffffffffffffffffffffffffffffffffffff167f17307eab39ab6107e8899845ad3d59bd9653f200f220920489ca2b5937696c31836040516111a29190614201565b60405180910390a35050565b6111bf6111b96115d0565b83611691565b6111fe576040517f08c379a00000000000000000000000000000000000000000000000000000000081526004016111f590614539565b60405180910390fd5b61120a84848484611dbe565b50505050565b606061121c600d611cd9565b821061122757600080fd5b6000600e6000848152602001908152602001600020604051806080016040529081600082015481526020016001820154815260200160028201548152602001600382015481525050905060008360001b6040516020016112879190613f93565b6040516020818303038152906040529050600082600001516107d06112ac91906146fa565b90506000806112be8560200151611e1a565b6040516020016112ce91906140bb565b604051602081830303815290604052905060005b85600001518110156113a3576000816112fc876000611fef565b611306919061466d565b9050600061131385611e1a565b61131c87611e1a565b61132a8a6060015185612056565b6113388b604001518661209c565b60405160200161134b9493929190614046565b6040516020818303038152906040529050838160405160200161136f929190613fae565b6040516020818303038152906040529350858561138c919061466d565b94505050808061139b90614913565b9150506112e2565b50806040516020016113b59190614024565b60405160208183030381529060405290508095505050505050919050565b60606113de8261211c565b9050919050565b7f9f2df0fed2c77648de5860a4cc508cd0818c85b8b8a1ab4ceeef8d981c8956a681565b611412826108d8565b6114238161141e6115d0565b6119cb565b61142d8383611b49565b505050565b7f65d7a28e3265b37a6474929f336521b332c1681b933f6cb9f3376673440d862a81565b6000600560008473ffffffffffffffffffffffffffffffffffffffff1673ffffffffffffffffffffffffffffffffffffffff16815260200190815260200160002060008373ffffffffffffffffffffffffffffffffffffffff1673ffffffffffffffffffffffffffffffffffffffff16815260200190815260200160002060009054906101000a900460ff16905092915050565b60007f7965db0b000000000000000000000000000000000000000000000000000000007bffffffffffffffffffffffffffffffffffffffffffffffffffffffff1916827bffffffffffffffffffffffffffffffffffffffffffffffffffffffff1916148061155d575061155c8261226e565b5b9050919050565b60008073ffffffffffffffffffffffffffffffffffffffff166002600084815260200190815260200160002060009054906101000a900473ffffffffffffffffffffffffffffffffffffffff1673ffffffffffffffffffffffffffffffffffffffff1614159050919050565b600033905090565b816004600083815260200190815260200160002060006101000a81548173ffffffffffffffffffffffffffffffffffffffff021916908373ffffffffffffffffffffffffffffffffffffffff160217905550808273ffffffffffffffffffffffffffffffffffffffff1661164b83610bb0565b73ffffffffffffffffffffffffffffffffffffffff167f8c5be1e5ebec7d5bd14f71427d1e84f3dd0314c0f7b2291e5b200ac8c7c3b92560405160405180910390a45050565b600061169c82611564565b6116db576040517f08c379a00000000000000000000000000000000000000000000000000000000081526004016116d290614399565b60405180910390fd5b60006116e683610bb0565b90508073ffffffffffffffffffffffffffffffffffffffff168473ffffffffffffffffffffffffffffffffffffffff16148061175557508373ffffffffffffffffffffffffffffffffffffffff1661173d846106ba565b73ffffffffffffffffffffffffffffffffffffffff16145b8061176657506117658185611456565b5b91505092915050565b8273ffffffffffffffffffffffffffffffffffffffff1661178f82610bb0565b73ffffffffffffffffffffffffffffffffffffffff16146117e5576040517f08c379a00000000000000000000000000000000000000000000000000000000081526004016117dc906144d9565b60405180910390fd5b600073ffffffffffffffffffffffffffffffffffffffff168273ffffffffffffffffffffffffffffffffffffffff161415611855576040517f08c379a000000000000000000000000000000000000000000000000000000000815260040161184c90614359565b60405180910390fd5b6118608383836122e8565b61186b6000826115d8565b6001600360008573ffffffffffffffffffffffffffffffffffffffff1673ffffffffffffffffffffffffffffffffffffffff16815260200190815260200160002060008282546118bb9190614785565b925050819055506001600360008473ffffffffffffffffffffffffffffffffffffffff1673ffffffffffffffffffffffffffffffffffffffff1681526020019081526020016000206000828254611912919061466d565b92505081905550816002600083815260200190815260200160002060006101000a81548173ffffffffffffffffffffffffffffffffffffffff021916908373ffffffffffffffffffffffffffffffffffffffff160217905550808273ffffffffffffffffffffffffffffffffffffffff168473ffffffffffffffffffffffffffffffffffffffff167fddf252ad1be2c89b69c2b068fc378daa952ba7f163c4a11628f55a4df523b3ef60405160405180910390a4505050565b6119d58282610f29565b611a64576119fa8173ffffffffffffffffffffffffffffffffffffffff166014612340565b611a088360001c6020612340565b604051602001611a19929190614145565b6040516020818303038152906040526040517f08c379a0000000000000000000000000000000000000000000000000000000008152600401611a5b9190614237565b60405180910390fd5b5050565b611a728282610f29565b611b45576001600c600084815260200190815260200160002060000160008373ffffffffffffffffffffffffffffffffffffffff1673ffffffffffffffffffffffffffffffffffffffff16815260200190815260200160002060006101000a81548160ff021916908315150217905550611aea6115d0565b73ffffffffffffffffffffffffffffffffffffffff168173ffffffffffffffffffffffffffffffffffffffff16837f2f8788117e7eff1d82e926ec794901d17c78024a50270940304540a733656f0d60405160405180910390a45b5050565b611b538282610f29565b15611c27576000600c600084815260200190815260200160002060000160008373ffffffffffffffffffffffffffffffffffffffff1673ffffffffffffffffffffffffffffffffffffffff16815260200190815260200160002060006101000a81548160ff021916908315150217905550611bcc6115d0565b73ffffffffffffffffffffffffffffffffffffffff168173ffffffffffffffffffffffffffffffffffffffff16837ff6391f5c32d9c69d2a47ea670b442974b53935d1edc7fd64eb21e047a839171b60405160405180910390a45b5050565b611c33610b99565b611c72576040517f08c379a0000000000000000000000000000000000000000000000000000000008152600401611c6990614279565b60405180910390fd5b6000600b60006101000a81548160ff0219169083151502179055507f5db9ee0a495bf2e6ff9c91a7834c1ba4fdd244a5e8aa4e537bd38aeae4b073aa611cb66115d0565b604051611cc3919061419a565b60405180910390a1565b611cd68161263a565b50565b600081600001549050919050565b611d0182826040518060200160405280600081525061268d565b5050565b6001816000016000828254019250508190555050565b611d23610b99565b15611d63576040517f08c379a0000000000000000000000000000000000000000000000000000000008152600401611d5a906143b9565b60405180910390fd5b6001600b60006101000a81548160ff0219169083151502179055507f62e78cea01bee320cd4e420270b5ea74000d11b0c9f74754ebdbfc544b05a258611da76115d0565b604051611db4919061419a565b60405180910390a1565b611dc984848461176f565b611dd5848484846126e8565b611e14576040517f08c379a0000000000000000000000000000000000000000000000000000000008152600401611e0b906142d9565b60405180910390fd5b50505050565b60606000821415611e62576040518060400160405280600181526020017f30000000000000000000000000000000000000000000000000000000000000008152509050611fea565b600082905060005b60008214611e94578080611e7d90614913565b915050600a82611e8d91906146fa565b9150611e6a565b60008167ffffffffffffffff811115611ed6577f4e487b7100000000000000000000000000000000000000000000000000000000600052604160045260246000fd5b6040519080825280601f01601f191660200182016040528015611f085781602001600182028036833780820191505090505b50905060008290505b60008614611fe257600181611f269190614785565b90506000600a8088611f3891906146fa565b611f42919061472b565b87611f4d9190614785565b6030611f5991906146c3565b905060008160f81b905080848481518110611f9d577f4e487b7100000000000000000000000000000000000000000000000000000000600052603260045260246000fd5b60200101907effffffffffffffffffffffffffffffffffffffffffffffffffffffffffffff1916908160001a905350600a88611fd991906146fa565b97505050611f11565b819450505050505b919050565b6000602082611ffe919061466d565b83511015612041576040517f08c379a000000000000000000000000000000000000000000000000000000000815260040161203890614459565b60405180910390fd5b60008260208501015190508091505092915050565b60606120946120698360c86103e861287f565b6002612075919061466d565b60028560646120849190614785565b61208e91906146fa565b18611e1a565b905092915050565b6060600060028460036120af919061472b565b6120b991906146fa565b9050600060ff905060006120ce8584846128e0565b905060006120ea6103e7876120e3919061466d565b85856128e0565b905081818360405160200161210193929190613fd2565b60405160208183030381529060405294505050505092915050565b606061212782611564565b612166576040517f08c379a000000000000000000000000000000000000000000000000000000000815260040161215d90614499565b60405180910390fd5b6000600a60008481526020019081526020016000208054612186906148b0565b80601f01602080910402602001604051908101604052809291908181526020018280546121b2906148b0565b80156121ff5780601f106121d4576101008083540402835291602001916121ff565b820191906000526020600020905b8154815290600101906020018083116121e257829003601f168201915b50505050509050600061221061296f565b9050600081511415612226578192505050612269565b60008251111561225b578082604051602001612243929190613fae565b60405160208183030381529060405292505050612269565b61226484612986565b925050505b919050565b60007f780e9d63000000000000000000000000000000000000000000000000000000007bffffffffffffffffffffffffffffffffffffffffffffffffffffffff1916827bffffffffffffffffffffffffffffffffffffffffffffffffffffffff191614806122e157506122e082612a2d565b5b9050919050565b6122f0610b99565b15612330576040517f08c379a0000000000000000000000000000000000000000000000000000000008152600401612327906143b9565b60405180910390fd5b61233b838383612b0f565b505050565b606060006002836002612353919061472b565b61235d919061466d565b67ffffffffffffffff81111561239c577f4e487b7100000000000000000000000000000000000000000000000000000000600052604160045260246000fd5b6040519080825280601f01601f1916602001820160405280156123ce5781602001600182028036833780820191505090505b5090507f30000000000000000000000000000000000000000000000000000000000000008160008151811061242c577f4e487b7100000000000000000000000000000000000000000000000000000000600052603260045260246000fd5b60200101907effffffffffffffffffffffffffffffffffffffffffffffffffffffffffffff1916908160001a9053507f7800000000000000000000000000000000000000000000000000000000000000816001815181106124b6577f4e487b7100000000000000000000000000000000000000000000000000000000600052603260045260246000fd5b60200101907effffffffffffffffffffffffffffffffffffffffffffffffffffffffffffff1916908160001a905350600060018460026124f6919061472b565b612500919061466d565b90505b60018111156125ec577f3031323334353637383961626364656600000000000000000000000000000000600f861660108110612568577f4e487b7100000000000000000000000000000000000000000000000000000000600052603260045260246000fd5b1a60f81b8282815181106125a5577f4e487b7100000000000000000000000000000000000000000000000000000000600052603260045260246000fd5b60200101907effffffffffffffffffffffffffffffffffffffffffffffffffffffffffffff1916908160001a905350600485901c9450806125e590614886565b9050612503565b5060008414612630576040517f08c379a000000000000000000000000000000000000000000000000000000000815260040161262790614259565b60405180910390fd5b8091505092915050565b61264381612c23565b6000600a60008381526020019081526020016000208054612663906148b0565b90501461268a57600a6000828152602001908152602001600020600061268991906134a9565b5b50565b6126978383612d34565b6126a460008484846126e8565b6126e3576040517f08c379a00000000000000000000000000000000000000000000000000000000081526004016126da906142d9565b60405180910390fd5b505050565b60006127098473ffffffffffffffffffffffffffffffffffffffff16612f02565b15612872578373ffffffffffffffffffffffffffffffffffffffff1663150b7a026127326115d0565b8786866040518563ffffffff1660e01b815260040161275494939291906141b5565b602060405180830381600087803b15801561276e57600080fd5b505af192505050801561279f57506040513d601f19601f8201168201806040525081019061279c9190613836565b60015b612822573d80600081146127cf576040519150601f19603f3d011682016040523d82523d6000602084013e6127d4565b606091505b5060008151141561281a576040517f08c379a0000000000000000000000000000000000000000000000000000000008152600401612811906142d9565b60405180910390fd5b805181602001fd5b63150b7a0260e01b7bffffffffffffffffffffffffffffffffffffffffffffffffffffffff1916817bffffffffffffffffffffffffffffffffffffffffffffffffffffffff191614915050612877565b600190505b949350505050565b600080838361288e9190614785565b9050600081866040516020016128a4919061417f565b6040516020818303038152906040528051906020012060001c6128c79190614970565b905080856128d5919061466d565b925050509392505050565b606060006128ef85858561287f565b9050600061290a600187612903919061466d565b868661287f565b9050600061292560028861291e919061466d565b878761287f565b905061293083611e1a565b61293983611e1a565b61294283611e1a565b604051602001612954939291906140e8565b60405160208183030381529060405293505050509392505050565b606060405180602001604052806000815250905090565b606061299182611564565b6129d0576040517f08c379a00000000000000000000000000000000000000000000000000000000081526004016129c7906144f9565b60405180910390fd5b60006129da61296f565b905060008151116129fa5760405180602001604052806000815250612a25565b80612a0484612f15565b604051602001612a15929190613fae565b6040516020818303038152906040525b915050919050565b60007f80ac58cd000000000000000000000000000000000000000000000000000000007bffffffffffffffffffffffffffffffffffffffffffffffffffffffff1916827bffffffffffffffffffffffffffffffffffffffffffffffffffffffff19161480612af857507f5b5e139f000000000000000000000000000000000000000000000000000000007bffffffffffffffffffffffffffffffffffffffffffffffffffffffff1916827bffffffffffffffffffffffffffffffffffffffffffffffffffffffff1916145b80612b085750612b07826130c2565b5b9050919050565b612b1a83838361312c565b600073ffffffffffffffffffffffffffffffffffffffff168373ffffffffffffffffffffffffffffffffffffffff161415612b5d57612b5881613131565b612b9c565b8173ffffffffffffffffffffffffffffffffffffffff168373ffffffffffffffffffffffffffffffffffffffff1614612b9b57612b9a838261317a565b5b5b600073ffffffffffffffffffffffffffffffffffffffff168273ffffffffffffffffffffffffffffffffffffffff161415612bdf57612bda816132e7565b612c1e565b8273ffffffffffffffffffffffffffffffffffffffff168273ffffffffffffffffffffffffffffffffffffffff1614612c1d57612c1c828261342a565b5b5b505050565b6000612c2e82610bb0565b9050612c3c816000846122e8565b612c476000836115d8565b6001600360008373ffffffffffffffffffffffffffffffffffffffff1673ffffffffffffffffffffffffffffffffffffffff1681526020019081526020016000206000828254612c979190614785565b925050819055506002600083815260200190815260200160002060006101000a81549073ffffffffffffffffffffffffffffffffffffffff021916905581600073ffffffffffffffffffffffffffffffffffffffff168273ffffffffffffffffffffffffffffffffffffffff167fddf252ad1be2c89b69c2b068fc378daa952ba7f163c4a11628f55a4df523b3ef60405160405180910390a45050565b600073ffffffffffffffffffffffffffffffffffffffff168273ffffffffffffffffffffffffffffffffffffffff161415612da4576040517f08c379a0000000000000000000000000000000000000000000000000000000008152600401612d9b90614479565b60405180910390fd5b612dad81611564565b15612ded576040517f08c379a0000000000000000000000000000000000000000000000000000000008152600401612de4906142f9565b60405180910390fd5b612df9600083836122e8565b6001600360008473ffffffffffffffffffffffffffffffffffffffff1673ffffffffffffffffffffffffffffffffffffffff1681526020019081526020016000206000828254612e49919061466d565b92505081905550816002600083815260200190815260200160002060006101000a81548173ffffffffffffffffffffffffffffffffffffffff021916908373ffffffffffffffffffffffffffffffffffffffff160217905550808273ffffffffffffffffffffffffffffffffffffffff16600073ffffffffffffffffffffffffffffffffffffffff167fddf252ad1be2c89b69c2b068fc378daa952ba7f163c4a11628f55a4df523b3ef60405160405180910390a45050565b600080823b905060008111915050919050565b60606000821415612f5d576040518060400160405280600181526020017f300000000000000000000000000000000000000000000000000000000000000081525090506130bd565b600082905060005b60008214612f8f578080612f7890614913565b915050600a82612f8891906146fa565b9150612f65565b60008167ffffffffffffffff811115612fd1577f4e487b7100000000000000000000000000000000000000000000000000000000600052604160045260246000fd5b6040519080825280601f01601f1916602001820160405280156130035781602001600182028036833780820191505090505b5090505b600085146130b65760018261301c9190614785565b9150600a8561302b9190614970565b6030613037919061466d565b60f81b818381518110613073577f4e487b7100000000000000000000000000000000000000000000000000000000600052603260045260246000fd5b60200101907effffffffffffffffffffffffffffffffffffffffffffffffffffffffffffff1916908160001a905350600a856130af91906146fa565b9450613007565b8093505050505b919050565b60007f01ffc9a7000000000000000000000000000000000000000000000000000000007bffffffffffffffffffffffffffffffffffffffffffffffffffffffff1916827bffffffffffffffffffffffffffffffffffffffffffffffffffffffff1916149050919050565b505050565b6008805490506009600083815260200190815260200160002081905550600881908060018154018082558091505060019003906000526020600020016000909190919091505550565b6000600161318784610e34565b6131919190614785565b9050600060076000848152602001908152602001600020549050818114613276576000600660008673ffffffffffffffffffffffffffffffffffffffff1673ffffffffffffffffffffffffffffffffffffffff168152602001908152602001600020600084815260200190815260200160002054905080600660008773ffffffffffffffffffffffffffffffffffffffff1673ffffffffffffffffffffffffffffffffffffffff168152602001908152602001600020600084815260200190815260200160002081905550816007600083815260200190815260200160002081905550505b6007600084815260200190815260200160002060009055600660008573ffffffffffffffffffffffffffffffffffffffff1673ffffffffffffffffffffffffffffffffffffffff16815260200190815260200160002060008381526020019081526020016000206000905550505050565b600060016008805490506132fb9190614785565b9050600060096000848152602001908152602001600020549050600060088381548110613351577f4e487b7100000000000000000000000000000000000000000000000000000000600052603260045260246000fd5b906000526020600020015490508060088381548110613399577f4e487b7100000000000000000000000000000000000000000000000000000000600052603260045260246000fd5b90600052602060002001819055508160096000838152602001908152602001600020819055506009600085815260200190815260200160002060009055600880548061340e577f4e487b7100000000000000000000000000000000000000000000000000000000600052603160045260246000fd5b6001900381819060005260206000200160009055905550505050565b600061343583610e34565b905081600660008573ffffffffffffffffffffffffffffffffffffffff1673ffffffffffffffffffffffffffffffffffffffff168152602001908152602001600020600083815260200190815260200160002081905550806007600084815260200190815260200160002081905550505050565b5080546134b5906148b0565b6000825580601f106134c757506134e6565b601f0160209004906000526020600020908101906134e591906134e9565b5b50565b5b808211156135025760008160009055506001016134ea565b5090565b6000613519613514846145f9565b6145d4565b90508281526020810184848401111561353157600080fd5b61353c848285614844565b509392505050565b600081359050613553816154db565b92915050565b600081359050613568816154f2565b92915050565b60008135905061357d81615509565b92915050565b60008135905061359281615520565b92915050565b6000815190506135a781615520565b92915050565b600082601f8301126135be57600080fd5b81356135ce848260208601613506565b91505092915050565b6000813590506135e681615537565b92915050565b6000813590506135fb8161554e565b92915050565b60006020828403121561361357600080fd5b600061362184828501613544565b91505092915050565b6000806040838503121561363d57600080fd5b600061364b85828601613544565b925050602061365c85828601613544565b9150509250929050565b60008060006060848603121561367b57600080fd5b600061368986828701613544565b935050602061369a86828701613544565b92505060406136ab868287016135d7565b9150509250925092565b600080600080608085870312156136cb57600080fd5b60006136d987828801613544565b94505060206136ea87828801613544565b93505060406136fb878288016135d7565b925050606085013567ffffffffffffffff81111561371857600080fd5b613724878288016135ad565b91505092959194509250565b6000806040838503121561374357600080fd5b600061375185828601613544565b925050602061376285828601613559565b9150509250929050565b6000806040838503121561377f57600080fd5b600061378d85828601613544565b925050602061379e858286016135d7565b9150509250929050565b6000602082840312156137ba57600080fd5b60006137c88482850161356e565b91505092915050565b600080604083850312156137e457600080fd5b60006137f28582860161356e565b925050602061380385828601613544565b9150509250929050565b60006020828403121561381f57600080fd5b600061382d84828501613583565b91505092915050565b60006020828403121561384857600080fd5b600061385684828501613598565b91505092915050565b60006020828403121561387157600080fd5b600061387f848285016135d7565b91505092915050565b6000806000806080858703121561389e57600080fd5b60006138ac878288016135ec565b94505060206138bd878288016135d7565b93505060406138ce878288016135d7565b92505060606138df878288016135d7565b91505092959194509250565b6138f4816147b9565b82525050565b613903816147cb565b82525050565b613912816147d7565b82525050565b613929613924826147d7565b61495c565b82525050565b600061393a8261462a565b6139448185614640565b9350613954818560208601614853565b61395d81614a5d565b840191505092915050565b600061397382614635565b61397d8185614651565b935061398d818560208601614853565b61399681614a5d565b840191505092915050565b60006139ac82614635565b6139b68185614662565b93506139c6818560208601614853565b80840191505092915050565b60006139df602083614651565b91506139ea82614a6e565b602082019050919050565b6000613a02600983614662565b9150613a0d82614a97565b600982019050919050565b6000613a25605283614662565b9150613a3082614ac0565b605282019050919050565b6000613a48601483614651565b9150613a5382614b35565b602082019050919050565b6000613a6b602883614651565b9150613a7682614b5e565b604082019050919050565b6000613a8e602b83614651565b9150613a9982614bad565b604082019050919050565b6000613ab1603283614651565b9150613abc82614bfc565b604082019050919050565b6000613ad4601c83614651565b9150613adf82614c4b565b602082019050919050565b6000613af7602683614651565b9150613b0282614c74565b604082019050919050565b6000613b1a602683614651565b9150613b2582614cc3565b604082019050919050565b6000613b3d602183614662565b9150613b4882614d12565b602182019050919050565b6000613b60600483614662565b9150613b6b82614d61565b600482019050919050565b6000613b83602483614651565b9150613b8e82614d8a565b604082019050919050565b6000613ba6601983614651565b9150613bb182614dd9565b602082019050919050565b6000613bc9602c83614651565b9150613bd482614e02565b604082019050919050565b6000613bec600183614662565b9150613bf782614e51565b600182019050919050565b6000613c0f601083614651565b9150613c1a82614e7a565b602082019050919050565b6000613c32600183614662565b9150613c3d82614ea3565b600182019050919050565b6000613c55603883614651565b9150613c6082614ecc565b604082019050919050565b6000613c78602b83614651565b9150613c8382614f1b565b604082019050919050565b6000613c9b602a83614651565b9150613ca682614f6a565b604082019050919050565b6000613cbe602983614651565b9150613cc982614fb9565b604082019050919050565b6000613ce1601583614651565b9150613cec82615008565b602082019050919050565b6000613d04602083614651565b9150613d0f82615031565b602082019050919050565b6000613d27603283614662565b9150613d328261505a565b603282019050919050565b6000613d4a603183614651565b9150613d55826150a9565b604082019050919050565b6000613d6d602c83614651565b9150613d78826150f8565b604082019050919050565b6000613d90602983614651565b9150613d9b82615147565b604082019050919050565b6000613db3602f83614651565b9150613dbe82615196565b604082019050919050565b6000613dd6602183614651565b9150613de1826151e5565b604082019050919050565b6000613df9604783614662565b9150613e0482615234565b604782019050919050565b6000613e1c600283614662565b9150613e27826152a9565b600282019050919050565b6000613e3f603183614651565b9150613e4a826152d2565b604082019050919050565b6000613e62602c83614651565b9150613e6d82615321565b604082019050919050565b6000613e85600f83614662565b9150613e9082615370565b600f82019050919050565b6000613ea8601783614662565b9150613eb382615399565b601782019050919050565b6000613ecb600683614662565b9150613ed6826153c2565b600682019050919050565b6000613eee603083614651565b9150613ef9826153eb565b604082019050919050565b6000613f11601183614662565b9150613f1c8261543a565b601182019050919050565b6000613f34602f83614651565b9150613f3f82615463565b604082019050919050565b6000613f57600383614662565b9150613f62826154b2565b600382019050919050565b613f768161482d565b82525050565b613f8d613f888261482d565b614966565b82525050565b6000613f9f8284613918565b60208201915081905092915050565b6000613fba82856139a1565b9150613fc682846139a1565b91508190509392505050565b6000613fde82866139a1565b9150613fe982613c25565b9150613ff582856139a1565b915061400082613c25565b915061400c82846139a1565b915061401782613c25565b9150819050949350505050565b600061403082846139a1565b915061403b82613ebe565b915081905092915050565b6000614051826139f5565b915061405d82876139a1565b915061406882613e78565b915061407482866139a1565b915061407f82613dec565b915061408b82856139a1565b915061409682613b30565b91506140a282846139a1565b91506140ad82613d1a565b915081905095945050505050565b60006140c682613a18565b91506140d282846139a1565b91506140dd82613f4a565b915081905092915050565b60006140f382613b53565b91506140ff82866139a1565b915061410a82613e0f565b915061411682856139a1565b915061412182613e0f565b915061412d82846139a1565b915061413882613bdf565b9150819050949350505050565b600061415082613e9b565b915061415c82856139a1565b915061416782613f04565b915061417382846139a1565b91508190509392505050565b600061418b8284613f7c565b60208201915081905092915050565b60006020820190506141af60008301846138eb565b92915050565b60006080820190506141ca60008301876138eb565b6141d760208301866138eb565b6141e46040830185613f6d565b81810360608301526141f6818461392f565b905095945050505050565b600060208201905061421660008301846138fa565b92915050565b60006020820190506142316000830184613909565b92915050565b600060208201905081810360008301526142518184613968565b905092915050565b60006020820190508181036000830152614272816139d2565b9050919050565b6000602082019050818103600083015261429281613a3b565b9050919050565b600060208201905081810360008301526142b281613a5e565b9050919050565b600060208201905081810360008301526142d281613a81565b9050919050565b600060208201905081810360008301526142f281613aa4565b9050919050565b6000602082019050818103600083015261431281613ac7565b9050919050565b6000602082019050818103600083015261433281613aea565b9050919050565b6000602082019050818103600083015261435281613b0d565b9050919050565b6000602082019050818103600083015261437281613b76565b9050919050565b6000602082019050818103600083015261439281613b99565b9050919050565b600060208201905081810360008301526143b281613bbc565b9050919050565b600060208201905081810360008301526143d281613c02565b9050919050565b600060208201905081810360008301526143f281613c48565b9050919050565b6000602082019050818103600083015261441281613c6b565b9050919050565b6000602082019050818103600083015261443281613c8e565b9050919050565b6000602082019050818103600083015261445281613cb1565b9050919050565b6000602082019050818103600083015261447281613cd4565b9050919050565b6000602082019050818103600083015261449281613cf7565b9050919050565b600060208201905081810360008301526144b281613d3d565b9050919050565b600060208201905081810360008301526144d281613d60565b9050919050565b600060208201905081810360008301526144f281613d83565b9050919050565b6000602082019050818103600083015261451281613da6565b9050919050565b6000602082019050818103600083015261453281613dc9565b9050919050565b6000602082019050818103600083015261455281613e32565b9050919050565b6000602082019050818103600083015261457281613e55565b9050919050565b6000602082019050818103600083015261459281613ee1565b9050919050565b600060208201905081810360008301526145b281613f27565b9050919050565b60006020820190506145ce6000830184613f6d565b92915050565b60006145de6145ef565b90506145ea82826148e2565b919050565b6000604051905090565b600067ffffffffffffffff82111561461457614613614a2e565b5b61461d82614a5d565b9050602081019050919050565b600081519050919050565b600081519050919050565b600082825260208201905092915050565b600082825260208201905092915050565b600081905092915050565b60006146788261482d565b91506146838361482d565b9250827fffffffffffffffffffffffffffffffffffffffffffffffffffffffffffffffff038211156146b8576146b76149a1565b5b828201905092915050565b60006146ce82614837565b91506146d983614837565b92508260ff038211156146ef576146ee6149a1565b5b828201905092915050565b60006147058261482d565b91506147108361482d565b9250826147205761471f6149d0565b5b828204905092915050565b60006147368261482d565b91506147418361482d565b9250817fffffffffffffffffffffffffffffffffffffffffffffffffffffffffffffffff048311821515161561477a576147796149a1565b5b828202905092915050565b60006147908261482d565b915061479b8361482d565b9250828210156147ae576147ad6149a1565b5b828203905092915050565b60006147c48261480d565b9050919050565b60008115159050919050565b6000819050919050565b60007fffffffff0000000000000000000000000000000000000000000000000000000082169050919050565b600073ffffffffffffffffffffffffffffffffffffffff82169050919050565b6000819050919050565b600060ff82169050919050565b82818337600083830152505050565b60005b83811015614871578082015181840152602081019050614856565b83811115614880576000848401525b50505050565b60006148918261482d565b915060008214156148a5576148a46149a1565b5b600182039050919050565b600060028204905060018216806148c857607f821691505b602082108114156148dc576148db6149ff565b5b50919050565b6148eb82614a5d565b810181811067ffffffffffffffff8211171561490a57614909614a2e565b5b80604052505050565b600061491e8261482d565b91507fffffffffffffffffffffffffffffffffffffffffffffffffffffffffffffffff821415614951576149506149a1565b5b600182019050919050565b6000819050919050565b6000819050919050565b600061497b8261482d565b91506149868361482d565b925082614996576149956149d0565b5b828206905092915050565b7f4e487b7100000000000000000000000000000000000000000000000000000000600052601160045260246000fd5b7f4e487b7100000000000000000000000000000000000000000000000000000000600052601260045260246000fd5b7f4e487b7100000000000000000000000000000000000000000000000000000000600052602260045260246000fd5b7f4e487b7100000000000000000000000000000000000000000000000000000000600052604160045260246000fd5b6000601f19601f8301169050919050565b7f537472696e67733a20686578206c656e67746820696e73756666696369656e74600082015250565b7f3c7265637420783d270000000000000000000000000000000000000000000000600082015250565b7f3c73766720786d6c6e733d27687474703a2f2f7777772e77332e6f72672f323060008201527f30302f737667272076696577426f783d2730203020323030302032303030272060208201527f7472616e73666f726d3d27726f74617465280000000000000000000000000000604082015250565b7f5061757361626c653a206e6f7420706175736564000000000000000000000000600082015250565b7f50616c657474652076616c7565206d757374206265206265747765656e20302060008201527f616e64203130302e000000000000000000000000000000000000000000000000602082015250565b7f455243373231456e756d657261626c653a206f776e657220696e646578206f7560008201527f74206f6620626f756e6473000000000000000000000000000000000000000000602082015250565b7f4552433732313a207472616e7366657220746f206e6f6e20455243373231526560008201527f63656976657220696d706c656d656e7465720000000000000000000000000000602082015250565b7f4552433732313a20746f6b656e20616c7265616479206d696e74656400000000600082015250565b7f53747269706520636f756e74206d757374206265206265747765656e2031206160008201527f6e642032302e0000000000000000000000000000000000000000000000000000602082015250565b7f53706565642076616c7565206d757374206265206265747765656e203020616e60008201527f64203130302e0000000000000000000000000000000000000000000000000000602082015250565b7f6d7327206174747269627574654e616d653d2766696c6c272076616c7565733d60008201527f2700000000000000000000000000000000000000000000000000000000000000602082015250565b7f7267622800000000000000000000000000000000000000000000000000000000600082015250565b7f4552433732313a207472616e7366657220746f20746865207a65726f2061646460008201527f7265737300000000000000000000000000000000000000000000000000000000602082015250565b7f4552433732313a20617070726f766520746f2063616c6c657200000000000000600082015250565b7f4552433732313a206f70657261746f7220717565727920666f72206e6f6e657860008201527f697374656e7420746f6b656e0000000000000000000000000000000000000000602082015250565b7f2900000000000000000000000000000000000000000000000000000000000000600082015250565b7f5061757361626c653a2070617573656400000000000000000000000000000000600082015250565b7f3b00000000000000000000000000000000000000000000000000000000000000600082015250565b7f4552433732313a20617070726f76652063616c6c6572206973206e6f74206f7760008201527f6e6572206e6f7220617070726f76656420666f7220616c6c0000000000000000602082015250565b7f526f746174696f6e2064656772656573206d757374206265206265747765656e60008201527f203020616e64203336302e000000000000000000000000000000000000000000602082015250565b7f4552433732313a2062616c616e636520717565727920666f7220746865207a6560008201527f726f206164647265737300000000000000000000000000000000000000000000602082015250565b7f4552433732313a206f776e657220717565727920666f72206e6f6e657869737460008201527f656e7420746f6b656e0000000000000000000000000000000000000000000000602082015250565b7f746f55696e743235365f6f75744f66426f756e64730000000000000000000000600082015250565b7f4552433732313a206d696e7420746f20746865207a65726f2061646472657373600082015250565b7f272066696c6c3d27667265657a652720726570656174436f756e743d27696e6460008201527f6566696e69746527202f3e3c2f726563743e0000000000000000000000000000602082015250565b7f45524337323155524953746f726167653a2055524920717565727920666f722060008201527f6e6f6e6578697374656e7420746f6b656e000000000000000000000000000000602082015250565b7f4552433732313a20617070726f76656420717565727920666f72206e6f6e657860008201527f697374656e7420746f6b656e0000000000000000000000000000000000000000602082015250565b7f4552433732313a207472616e73666572206f6620746f6b656e2074686174206960008201527f73206e6f74206f776e0000000000000000000000000000000000000000000000602082015250565b7f4552433732314d657461646174613a2055524920717565727920666f72206e6f60008201527f6e6578697374656e7420746f6b656e0000000000000000000000000000000000602082015250565b7f4552433732313a20617070726f76616c20746f2063757272656e74206f776e6560008201527f7200000000000000000000000000000000000000000000000000000000000000602082015250565b7f27206865696768743d2732303030272073686170652d72656e646572696e673d60008201527f2763726973704564676573273e3c616e696d61746520626567696e3d2027307360208201527f27206475723d2700000000000000000000000000000000000000000000000000604082015250565b7f2c20000000000000000000000000000000000000000000000000000000000000600082015250565b7f4552433732313a207472616e736665722063616c6c6572206973206e6f74206f60008201527f776e6572206e6f7220617070726f766564000000000000000000000000000000602082015250565b7f455243373231456e756d657261626c653a20676c6f62616c20696e646578206f60008201527f7574206f6620626f756e64730000000000000000000000000000000000000000602082015250565b7f2720793d2730272077696474683d270000000000000000000000000000000000600082015250565b7f416363657373436f6e74726f6c3a206163636f756e7420000000000000000000600082015250565b7f3c2f7376673e0000000000000000000000000000000000000000000000000000600082015250565b7f4552433732314275726e61626c653a2063616c6c6572206973206e6f74206f7760008201527f6e6572206e6f7220617070726f76656400000000000000000000000000000000602082015250565b7f206973206d697373696e6720726f6c6520000000000000000000000000000000600082015250565b7f416363657373436f6e74726f6c3a2063616e206f6e6c792072656e6f756e636560008201527f20726f6c657320666f722073656c660000000000000000000000000000000000602082015250565b7f29273e0000000000000000000000000000000000000000000000000000000000600082015250565b6154e4816147b9565b81146154ef57600080fd5b50565b6154fb816147cb565b811461550657600080fd5b50565b615512816147d7565b811461551d57600080fd5b50565b615529816147e1565b811461553457600080fd5b50565b6155408161482d565b811461554b57600080fd5b50565b61555781614837565b811461556257600080fd5b5056fea26469706673582212200694e42ee210549962b536046a306194176c0476cde84ffc6b582de9d8d5cd9164736f6c63430008040033",
  "linkReferences": {},
  "deployedLinkReferences": {}
}