{
  "_format": "hh-sol-artifact-1",
  "contractName": "DynaTokenBase",
  "sourceName": "contracts/DynaTokenBase.sol",
  "abi": [
    {
      "inputs": [
        {
          "internalType": "string",
          "name": "name_",
          "type": "string"
        },
        {
          "internalType": "string",
          "name": "symbol_",
          "type": "string"
        }
      ],
      "stateMutability": "nonpayable",
      "type": "constructor"
    },
    {
      "anonymous": false,
      "inputs": [
        {
          "indexed": true,
          "internalType": "address",
          "name": "owner",
          "type": "address"
        },
        {
          "indexed": true,
          "internalType": "address",
          "name": "approved",
          "type": "address"
        },
        {
          "indexed": true,
          "internalType": "uint256",
          "name": "tokenId",
          "type": "uint256"
        }
      ],
      "name": "Approval",
      "type": "event"
    },
    {
      "anonymous": false,
      "inputs": [
        {
          "indexed": true,
          "internalType": "address",
          "name": "owner",
          "type": "address"
        },
        {
          "indexed": true,
          "internalType": "address",
          "name": "operator",
          "type": "address"
        },
        {
          "indexed": false,
          "internalType": "bool",
          "name": "approved",
          "type": "bool"
        }
      ],
      "name": "ApprovalForAll",
      "type": "event"
    },
    {
      "anonymous": false,
      "inputs": [
        {
          "indexed": true,
          "internalType": "address",
          "name": "previousOwner",
          "type": "address"
        },
        {
          "indexed": true,
          "internalType": "address",
          "name": "newOwner",
          "type": "address"
        }
      ],
      "name": "OwnershipTransferred",
      "type": "event"
    },
    {
      "anonymous": false,
      "inputs": [
        {
          "indexed": false,
          "internalType": "address",
          "name": "account",
          "type": "address"
        }
      ],
      "name": "Paused",
      "type": "event"
    },
    {
      "anonymous": false,
      "inputs": [
        {
          "indexed": true,
          "internalType": "address",
          "name": "from",
          "type": "address"
        },
        {
          "indexed": true,
          "internalType": "address",
          "name": "to",
          "type": "address"
        },
        {
          "indexed": true,
          "internalType": "uint256",
          "name": "tokenId",
          "type": "uint256"
        }
      ],
      "name": "Transfer",
      "type": "event"
    },
    {
      "anonymous": false,
      "inputs": [
        {
          "indexed": false,
          "internalType": "address",
          "name": "account",
          "type": "address"
        }
      ],
      "name": "Unpaused",
      "type": "event"
    },
    {
      "inputs": [
        {
          "internalType": "address",
          "name": "to",
          "type": "address"
        },
        {
          "internalType": "uint256",
          "name": "tokenId",
          "type": "uint256"
        }
      ],
      "name": "approve",
      "outputs": [],
      "stateMutability": "nonpayable",
      "type": "function"
    },
    {
      "inputs": [
        {
          "internalType": "address",
          "name": "owner",
          "type": "address"
        }
      ],
      "name": "balanceOf",
      "outputs": [
        {
          "internalType": "uint256",
          "name": "",
          "type": "uint256"
        }
      ],
      "stateMutability": "view",
      "type": "function"
    },
    {
      "inputs": [
        {
          "internalType": "uint256",
          "name": "tokenId",
          "type": "uint256"
        }
      ],
      "name": "burn",
      "outputs": [],
      "stateMutability": "nonpayable",
      "type": "function"
    },
    {
      "inputs": [
        {
          "internalType": "uint256",
          "name": "tokenId",
          "type": "uint256"
        }
      ],
      "name": "getApproved",
      "outputs": [
        {
          "internalType": "address",
          "name": "",
          "type": "address"
        }
      ],
      "stateMutability": "view",
      "type": "function"
    },
    {
      "inputs": [
        {
          "internalType": "address",
          "name": "owner",
          "type": "address"
        },
        {
          "internalType": "address",
          "name": "operator",
          "type": "address"
        }
      ],
      "name": "isApprovedForAll",
      "outputs": [
        {
          "internalType": "bool",
          "name": "",
          "type": "bool"
        }
      ],
      "stateMutability": "view",
      "type": "function"
    },
    {
      "inputs": [],
      "name": "name",
      "outputs": [
        {
          "internalType": "string",
          "name": "",
          "type": "string"
        }
      ],
      "stateMutability": "view",
      "type": "function"
    },
    {
      "inputs": [],
      "name": "owner",
      "outputs": [
        {
          "internalType": "address",
          "name": "",
          "type": "address"
        }
      ],
      "stateMutability": "view",
      "type": "function"
    },
    {
      "inputs": [
        {
          "internalType": "uint256",
          "name": "tokenId",
          "type": "uint256"
        }
      ],
      "name": "ownerOf",
      "outputs": [
        {
          "internalType": "address",
          "name": "",
          "type": "address"
        }
      ],
      "stateMutability": "view",
      "type": "function"
    },
    {
      "inputs": [],
      "name": "pause",
      "outputs": [],
      "stateMutability": "nonpayable",
      "type": "function"
    },
    {
      "inputs": [],
      "name": "paused",
      "outputs": [
        {
          "internalType": "bool",
          "name": "",
          "type": "bool"
        }
      ],
      "stateMutability": "view",
      "type": "function"
    },
    {
      "inputs": [],
      "name": "renounceOwnership",
      "outputs": [],
      "stateMutability": "nonpayable",
      "type": "function"
    },
    {
      "inputs": [
        {
          "internalType": "address",
          "name": "from",
          "type": "address"
        },
        {
          "internalType": "address",
          "name": "to",
          "type": "address"
        },
        {
          "internalType": "uint256",
          "name": "tokenId",
          "type": "uint256"
        }
      ],
      "name": "safeTransferFrom",
      "outputs": [],
      "stateMutability": "nonpayable",
      "type": "function"
    },
    {
      "inputs": [
        {
          "internalType": "address",
          "name": "from",
          "type": "address"
        },
        {
          "internalType": "address",
          "name": "to",
          "type": "address"
        },
        {
          "internalType": "uint256",
          "name": "tokenId",
          "type": "uint256"
        },
        {
          "internalType": "bytes",
          "name": "_data",
          "type": "bytes"
        }
      ],
      "name": "safeTransferFrom",
      "outputs": [],
      "stateMutability": "nonpayable",
      "type": "function"
    },
    {
      "inputs": [
        {
          "internalType": "address",
          "name": "operator",
          "type": "address"
        },
        {
          "internalType": "bool",
          "name": "approved",
          "type": "bool"
        }
      ],
      "name": "setApprovalForAll",
      "outputs": [],
      "stateMutability": "nonpayable",
      "type": "function"
    },
    {
      "inputs": [
        {
          "internalType": "bytes4",
          "name": "interfaceId",
          "type": "bytes4"
        }
      ],
      "name": "supportsInterface",
      "outputs": [
        {
          "internalType": "bool",
          "name": "",
          "type": "bool"
        }
      ],
      "stateMutability": "view",
      "type": "function"
    },
    {
      "inputs": [],
      "name": "symbol",
      "outputs": [
        {
          "internalType": "string",
          "name": "",
          "type": "string"
        }
      ],
      "stateMutability": "view",
      "type": "function"
    },
    {
      "inputs": [
        {
          "internalType": "uint256",
          "name": "index",
          "type": "uint256"
        }
      ],
      "name": "tokenByIndex",
      "outputs": [
        {
          "internalType": "uint256",
          "name": "",
          "type": "uint256"
        }
      ],
      "stateMutability": "view",
      "type": "function"
    },
    {
      "inputs": [
        {
          "internalType": "address",
          "name": "owner",
          "type": "address"
        },
        {
          "internalType": "uint256",
          "name": "index",
          "type": "uint256"
        }
      ],
      "name": "tokenOfOwnerByIndex",
      "outputs": [
        {
          "internalType": "uint256",
          "name": "",
          "type": "uint256"
        }
      ],
      "stateMutability": "view",
      "type": "function"
    },
    {
      "inputs": [
        {
          "internalType": "uint256",
          "name": "tokenId",
          "type": "uint256"
        }
      ],
      "name": "tokenURI",
      "outputs": [
        {
          "internalType": "string",
          "name": "",
          "type": "string"
        }
      ],
      "stateMutability": "view",
      "type": "function"
    },
    {
      "inputs": [],
      "name": "totalSupply",
      "outputs": [
        {
          "internalType": "uint256",
          "name": "",
          "type": "uint256"
        }
      ],
      "stateMutability": "view",
      "type": "function"
    },
    {
      "inputs": [
        {
          "internalType": "address",
          "name": "from",
          "type": "address"
        },
        {
          "internalType": "address",
          "name": "to",
          "type": "address"
        },
        {
          "internalType": "uint256",
          "name": "tokenId",
          "type": "uint256"
        }
      ],
      "name": "transferFrom",
      "outputs": [],
      "stateMutability": "nonpayable",
      "type": "function"
    },
    {
      "inputs": [
        {
          "internalType": "address",
          "name": "newOwner",
          "type": "address"
        }
      ],
      "name": "transferOwnership",
      "outputs": [],
      "stateMutability": "nonpayable",
      "type": "function"
    },
    {
      "inputs": [],
      "name": "unpause",
      "outputs": [],
      "stateMutability": "nonpayable",
      "type": "function"
    }
  ],
  "bytecode": "0x60806040523480156200001157600080fd5b5060405162001ff138038062001ff1833981016040819052620000349162000236565b8151829082906200004d906000906020850190620000dd565b50805162000063906001906020840190620000dd565b5050600a805460ff19169055506200007b3362000083565b5050620002f0565b600a80546001600160a01b03838116610100818102610100600160a81b031985161790945560405193909204169182907f8be0079c531659141344cd1fd0a4f28419497f9722a3daafe3b4186f6b6457e090600090a35050565b828054620000eb906200029d565b90600052602060002090601f0160209004810192826200010f57600085556200015a565b82601f106200012a57805160ff19168380011785556200015a565b828001600101855582156200015a579182015b828111156200015a5782518255916020019190600101906200013d565b50620001689291506200016c565b5090565b5b808211156200016857600081556001016200016d565b600082601f83011262000194578081fd5b81516001600160401b0380821115620001b157620001b1620002da565b604051601f8301601f19908116603f01168101908282118183101715620001dc57620001dc620002da565b81604052838152602092508683858801011115620001f8578485fd5b8491505b838210156200021b5785820183015181830184015290820190620001fc565b838211156200022c57848385830101525b9695505050505050565b6000806040838503121562000249578182fd5b82516001600160401b038082111562000260578384fd5b6200026e8683870162000183565b9350602085015191508082111562000284578283fd5b50620002938582860162000183565b9150509250929050565b600181811c90821680620002b257607f821691505b60208210811415620002d457634e487b7160e01b600052602260045260246000fd5b50919050565b634e487b7160e01b600052604160045260246000fd5b611cf180620003006000396000f3fe608060405234801561001057600080fd5b506004361061017d5760003560e01c80635c975abb116100e357806395d89b411161008c578063c87b56dd11610066578063c87b56dd146102fd578063e985e9c514610310578063f2fde38b1461034c57600080fd5b806395d89b41146102cf578063a22cb465146102d7578063b88d4fde146102ea57600080fd5b8063715018a6116100bd578063715018a6146102a95780638456cb59146102b15780638da5cb5b146102b957600080fd5b80635c975abb146102785780636352211e1461028357806370a082311461029657600080fd5b806323b872dd1161014557806342842e0e1161011f57806342842e0e1461023f57806342966c68146102525780634f6ccce71461026557600080fd5b806323b872dd146102115780632f745c59146102245780633f4ba83a1461023757600080fd5b806301ffc9a71461018257806306fdde03146101aa578063081812fc146101bf578063095ea7b3146101ea57806318160ddd146101ff575b600080fd5b610195610190366004611a90565b61035f565b60405190151581526020015b60405180910390f35b6101b2610370565b6040516101a19190611b77565b6101d26101cd366004611ac8565b610402565b6040516001600160a01b0390911681526020016101a1565b6101fd6101f8366004611a67565b61049c565b005b6008545b6040519081526020016101a1565b6101fd61021f36600461191d565b6105b2565b610203610232366004611a67565b61062e565b6101fd6106c4565b6101fd61024d36600461191d565b61072e565b6101fd610260366004611ac8565b610749565b610203610273366004611ac8565b6107c3565b600a5460ff16610195565b6101d2610291366004611ac8565b610864565b6102036102a43660046118d1565b6108db565b6101fd610962565b6101fd6109cc565b600a5461010090046001600160a01b03166101d2565b6101b2610a34565b6101fd6102e5366004611a2d565b610a43565b6101fd6102f8366004611958565b610b08565b6101b261030b366004611ac8565b610b8a565b61019561031e3660046118eb565b6001600160a01b03918216600090815260056020908152604080832093909416825291909152205460ff1690565b6101fd61035a3660046118d1565b610c72565b600061036a82610d40565b92915050565b60606000805461037f90611bf9565b80601f01602080910402602001604051908101604052809291908181526020018280546103ab90611bf9565b80156103f85780601f106103cd576101008083540402835291602001916103f8565b820191906000526020600020905b8154815290600101906020018083116103db57829003601f168201915b5050505050905090565b6000818152600260205260408120546001600160a01b03166104805760405162461bcd60e51b815260206004820152602c60248201527f4552433732313a20617070726f76656420717565727920666f72206e6f6e657860448201526b34b9ba32b73a103a37b5b2b760a11b60648201526084015b60405180910390fd5b506000908152600460205260409020546001600160a01b031690565b60006104a782610864565b9050806001600160a01b0316836001600160a01b031614156105155760405162461bcd60e51b815260206004820152602160248201527f4552433732313a20617070726f76616c20746f2063757272656e74206f776e656044820152603960f91b6064820152608401610477565b336001600160a01b03821614806105315750610531813361031e565b6105a35760405162461bcd60e51b815260206004820152603860248201527f4552433732313a20617070726f76652063616c6c6572206973206e6f74206f7760448201527f6e6572206e6f7220617070726f76656420666f7220616c6c00000000000000006064820152608401610477565b6105ad8383610d65565b505050565b6105bd335b82610dd3565b6106235760405162461bcd60e51b815260206004820152603160248201527f4552433732313a207472616e736665722063616c6c6572206973206e6f74206f6044820152701ddb995c881b9bdc88185c1c1c9bdd9959607a1b6064820152608401610477565b6105ad838383610eca565b6000610639836108db565b821061069b5760405162461bcd60e51b815260206004820152602b60248201527f455243373231456e756d657261626c653a206f776e657220696e646578206f7560448201526a74206f6620626f756e647360a81b6064820152608401610477565b506001600160a01b03919091166000908152600660209081526040808320938352929052205490565b600a546001600160a01b036101009091041633146107245760405162461bcd60e51b815260206004820181905260248201527f4f776e61626c653a2063616c6c6572206973206e6f7420746865206f776e65726044820152606401610477565b61072c611075565b565b6105ad83838360405180602001604052806000815250610b08565b610752336105b7565b6107b75760405162461bcd60e51b815260206004820152603060248201527f4552433732314275726e61626c653a2063616c6c6572206973206e6f74206f7760448201526f1b995c881b9bdc88185c1c1c9bdd995960821b6064820152608401610477565b6107c081611111565b50565b60006107ce60085490565b82106108315760405162461bcd60e51b815260206004820152602c60248201527f455243373231456e756d657261626c653a20676c6f62616c20696e646578206f60448201526b7574206f6620626f756e647360a01b6064820152608401610477565b6008828154811061085257634e487b7160e01b600052603260045260246000fd5b90600052602060002001549050919050565b6000818152600260205260408120546001600160a01b03168061036a5760405162461bcd60e51b815260206004820152602960248201527f4552433732313a206f776e657220717565727920666f72206e6f6e657869737460448201526832b73a103a37b5b2b760b91b6064820152608401610477565b60006001600160a01b0382166109465760405162461bcd60e51b815260206004820152602a60248201527f4552433732313a2062616c616e636520717565727920666f7220746865207a65604482015269726f206164647265737360b01b6064820152608401610477565b506001600160a01b031660009081526003602052604090205490565b600a546001600160a01b036101009091041633146109c25760405162461bcd60e51b815260206004820181905260248201527f4f776e61626c653a2063616c6c6572206973206e6f7420746865206f776e65726044820152606401610477565b61072c60006111b8565b600a546001600160a01b03610100909104163314610a2c5760405162461bcd60e51b815260206004820181905260248201527f4f776e61626c653a2063616c6c6572206973206e6f7420746865206f776e65726044820152606401610477565b61072c61121f565b60606001805461037f90611bf9565b6001600160a01b038216331415610a9c5760405162461bcd60e51b815260206004820152601960248201527f4552433732313a20617070726f766520746f2063616c6c6572000000000000006044820152606401610477565b3360008181526005602090815260408083206001600160a01b03871680855290835292819020805460ff191686151590811790915590519081529192917f17307eab39ab6107e8899845ad3d59bd9653f200f220920489ca2b5937696c31910160405180910390a35050565b610b123383610dd3565b610b785760405162461bcd60e51b815260206004820152603160248201527f4552433732313a207472616e736665722063616c6c6572206973206e6f74206f6044820152701ddb995c881b9bdc88185c1c1c9bdd9959607a1b6064820152608401610477565b610b848484848461129a565b50505050565b6000818152600260205260409020546060906001600160a01b0316610c095760405162461bcd60e51b815260206004820152602f60248201527f4552433732314d657461646174613a2055524920717565727920666f72206e6f60448201526e3732bc34b9ba32b73a103a37b5b2b760891b6064820152608401610477565b6000610c2060408051602081019091526000815290565b90506000815111610c405760405180602001604052806000815250610c6b565b80610c4a84611318565b604051602001610c5b929190611b0c565b6040516020818303038152906040525b9392505050565b600a546001600160a01b03610100909104163314610cd25760405162461bcd60e51b815260206004820181905260248201527f4f776e61626c653a2063616c6c6572206973206e6f7420746865206f776e65726044820152606401610477565b6001600160a01b038116610d375760405162461bcd60e51b815260206004820152602660248201527f4f776e61626c653a206e6577206f776e657220697320746865207a65726f206160448201526564647265737360d01b6064820152608401610477565b6107c0816111b8565b60006001600160e01b0319821663780e9d6360e01b148061036a575061036a8261144a565b600081815260046020526040902080546001600160a01b0319166001600160a01b0384169081179091558190610d9a82610864565b6001600160a01b03167f8c5be1e5ebec7d5bd14f71427d1e84f3dd0314c0f7b2291e5b200ac8c7c3b92560405160405180910390a45050565b6000818152600260205260408120546001600160a01b0316610e4c5760405162461bcd60e51b815260206004820152602c60248201527f4552433732313a206f70657261746f7220717565727920666f72206e6f6e657860448201526b34b9ba32b73a103a37b5b2b760a11b6064820152608401610477565b6000610e5783610864565b9050806001600160a01b0316846001600160a01b03161480610e925750836001600160a01b0316610e8784610402565b6001600160a01b0316145b80610ec257506001600160a01b0380821660009081526005602090815260408083209388168352929052205460ff165b949350505050565b826001600160a01b0316610edd82610864565b6001600160a01b031614610f455760405162461bcd60e51b815260206004820152602960248201527f4552433732313a207472616e73666572206f6620746f6b656e2074686174206960448201526839903737ba1037bbb760b91b6064820152608401610477565b6001600160a01b038216610fa75760405162461bcd60e51b8152602060048201526024808201527f4552433732313a207472616e7366657220746f20746865207a65726f206164646044820152637265737360e01b6064820152608401610477565b610fb283838361149a565b610fbd600082610d65565b6001600160a01b0383166000908152600360205260408120805460019290610fe6908490611bb6565b90915550506001600160a01b0382166000908152600360205260408120805460019290611014908490611b8a565b909155505060008181526002602052604080822080546001600160a01b0319166001600160a01b0386811691821790925591518493918716917fddf252ad1be2c89b69c2b068fc378daa952ba7f163c4a11628f55a4df523b3ef91a4505050565b600a5460ff166110c75760405162461bcd60e51b815260206004820152601460248201527f5061757361626c653a206e6f74207061757365640000000000000000000000006044820152606401610477565b600a805460ff191690557f5db9ee0a495bf2e6ff9c91a7834c1ba4fdd244a5e8aa4e537bd38aeae4b073aa335b6040516001600160a01b03909116815260200160405180910390a1565b600061111c82610864565b905061112a8160008461149a565b611135600083610d65565b6001600160a01b038116600090815260036020526040812080546001929061115e908490611bb6565b909155505060008281526002602052604080822080546001600160a01b0319169055518391906001600160a01b038416907fddf252ad1be2c89b69c2b068fc378daa952ba7f163c4a11628f55a4df523b3ef908390a45050565b600a80546001600160a01b0383811661010081810274ffffffffffffffffffffffffffffffffffffffff001985161790945560405193909204169182907f8be0079c531659141344cd1fd0a4f28419497f9722a3daafe3b4186f6b6457e090600090a35050565b600a5460ff16156112655760405162461bcd60e51b815260206004820152601060248201526f14185d5cd8589b194e881c185d5cd95960821b6044820152606401610477565b600a805460ff191660011790557f62e78cea01bee320cd4e420270b5ea74000d11b0c9f74754ebdbfc544b05a2586110f43390565b6112a5848484610eca565b6112b1848484846114eb565b610b845760405162461bcd60e51b815260206004820152603260248201527f4552433732313a207472616e7366657220746f206e6f6e20455243373231526560448201527131b2b4bb32b91034b6b83632b6b2b73a32b960711b6064820152608401610477565b60608161133c5750506040805180820190915260018152600360fc1b602082015290565b8160005b8115611366578061135081611c34565b915061135f9050600a83611ba2565b9150611340565b60008167ffffffffffffffff81111561138f57634e487b7160e01b600052604160045260246000fd5b6040519080825280601f01601f1916602001820160405280156113b9576020820181803683370190505b5090505b8415610ec2576113ce600183611bb6565b91506113db600a86611c4f565b6113e6906030611b8a565b60f81b81838151811061140957634e487b7160e01b600052603260045260246000fd5b60200101907effffffffffffffffffffffffffffffffffffffffffffffffffffffffffffff1916908160001a905350611443600a86611ba2565b94506113bd565b60006001600160e01b031982166380ac58cd60e01b148061147b57506001600160e01b03198216635b5e139f60e01b145b8061036a57506301ffc9a760e01b6001600160e01b031983161461036a565b600a5460ff16156114e05760405162461bcd60e51b815260206004820152601060248201526f14185d5cd8589b194e881c185d5cd95960821b6044820152606401610477565b6105ad838383611643565b60006001600160a01b0384163b1561163857604051630a85bd0160e11b81526001600160a01b0385169063150b7a029061152f903390899088908890600401611b3b565b602060405180830381600087803b15801561154957600080fd5b505af1925050508015611579575060408051601f3d908101601f1916820190925261157691810190611aac565b60015b61161e573d8080156115a7576040519150601f19603f3d011682016040523d82523d6000602084013e6115ac565b606091505b5080516116165760405162461bcd60e51b815260206004820152603260248201527f4552433732313a207472616e7366657220746f206e6f6e20455243373231526560448201527131b2b4bb32b91034b6b83632b6b2b73a32b960711b6064820152608401610477565b805181602001fd5b6001600160e01b031916630a85bd0160e11b149050610ec2565b506001949350505050565b6001600160a01b03831661169e5761169981600880546000838152600960205260408120829055600182018355919091527ff3f7a9fe364faab93b216da50a3214154f22a0a2b415b23a84c8169e8b636ee30155565b6116c1565b816001600160a01b0316836001600160a01b0316146116c1576116c183826116fb565b6001600160a01b0382166116d8576105ad81611798565b826001600160a01b0316826001600160a01b0316146105ad576105ad8282611871565b60006001611708846108db565b6117129190611bb6565b600083815260076020526040902054909150808214611765576001600160a01b03841660009081526006602090815260408083208584528252808320548484528184208190558352600790915290208190555b5060009182526007602090815260408084208490556001600160a01b039094168352600681528383209183525290812055565b6008546000906117aa90600190611bb6565b600083815260096020526040812054600880549394509092849081106117e057634e487b7160e01b600052603260045260246000fd5b90600052602060002001549050806008838154811061180f57634e487b7160e01b600052603260045260246000fd5b600091825260208083209091019290925582815260099091526040808220849055858252812055600880548061185557634e487b7160e01b600052603160045260246000fd5b6001900381819060005260206000200160009055905550505050565b600061187c836108db565b6001600160a01b039093166000908152600660209081526040808320868452825280832085905593825260079052919091209190915550565b80356001600160a01b03811681146118cc57600080fd5b919050565b6000602082840312156118e2578081fd5b610c6b826118b5565b600080604083850312156118fd578081fd5b611906836118b5565b9150611914602084016118b5565b90509250929050565b600080600060608486031215611931578081fd5b61193a846118b5565b9250611948602085016118b5565b9150604084013590509250925092565b6000806000806080858703121561196d578081fd5b611976856118b5565b9350611984602086016118b5565b925060408501359150606085013567ffffffffffffffff808211156119a7578283fd5b818701915087601f8301126119ba578283fd5b8135818111156119cc576119cc611c8f565b604051601f8201601f19908116603f011681019083821181831017156119f4576119f4611c8f565b816040528281528a6020848701011115611a0c578586fd5b82602086016020830137918201602001949094529598949750929550505050565b60008060408385031215611a3f578182fd5b611a48836118b5565b915060208301358015158114611a5c578182fd5b809150509250929050565b60008060408385031215611a79578182fd5b611a82836118b5565b946020939093013593505050565b600060208284031215611aa1578081fd5b8135610c6b81611ca5565b600060208284031215611abd578081fd5b8151610c6b81611ca5565b600060208284031215611ad9578081fd5b5035919050565b60008151808452611af8816020860160208601611bcd565b601f01601f19169290920160200192915050565b60008351611b1e818460208801611bcd565b835190830190611b32818360208801611bcd565b01949350505050565b60006001600160a01b03808716835280861660208401525083604083015260806060830152611b6d6080830184611ae0565b9695505050505050565b602081526000610c6b6020830184611ae0565b60008219821115611b9d57611b9d611c63565b500190565b600082611bb157611bb1611c79565b500490565b600082821015611bc857611bc8611c63565b500390565b60005b83811015611be8578181015183820152602001611bd0565b83811115610b845750506000910152565b600181811c90821680611c0d57607f821691505b60208210811415611c2e57634e487b7160e01b600052602260045260246000fd5b50919050565b6000600019821415611c4857611c48611c63565b5060010190565b600082611c5e57611c5e611c79565b500690565b634e487b7160e01b600052601160045260246000fd5b634e487b7160e01b600052601260045260246000fd5b634e487b7160e01b600052604160045260246000fd5b6001600160e01b0319811681146107c057600080fdfea26469706673582212207e9c26cf72779377aa7eb020b294b5407f586e1241f6f0f3efd8ed89f22470e064736f6c63430008040033",
  "linkReferences": {},
  "deployedLinkReferences": {}
}