{
  "_format": "hh-sol-artifact-1",
  "contractName": "DynaTokenBase",
  "sourceName": "contracts/DynaTokenBase.sol",
  "abi": [
    {
      "inputs": [
        {
          "internalType": "string",
          "name": "name_",
          "type": "string"
        },
        {
          "internalType": "string",
          "name": "symbol_",
          "type": "string"
        }
      ],
      "stateMutability": "nonpayable",
      "type": "constructor"
    },
    {
      "anonymous": false,
      "inputs": [
        {
          "indexed": true,
          "internalType": "address",
          "name": "owner",
          "type": "address"
        },
        {
          "indexed": true,
          "internalType": "address",
          "name": "approved",
          "type": "address"
        },
        {
          "indexed": true,
          "internalType": "uint256",
          "name": "tokenId",
          "type": "uint256"
        }
      ],
      "name": "Approval",
      "type": "event"
    },
    {
      "anonymous": false,
      "inputs": [
        {
          "indexed": true,
          "internalType": "address",
          "name": "owner",
          "type": "address"
        },
        {
          "indexed": true,
          "internalType": "address",
          "name": "operator",
          "type": "address"
        },
        {
          "indexed": false,
          "internalType": "bool",
          "name": "approved",
          "type": "bool"
        }
      ],
      "name": "ApprovalForAll",
      "type": "event"
    },
    {
      "anonymous": false,
      "inputs": [
        {
          "indexed": true,
          "internalType": "address",
          "name": "previousOwner",
          "type": "address"
        },
        {
          "indexed": true,
          "internalType": "address",
          "name": "newOwner",
          "type": "address"
        }
      ],
      "name": "OwnershipTransferred",
      "type": "event"
    },
    {
      "anonymous": false,
      "inputs": [
        {
          "indexed": false,
          "internalType": "address",
          "name": "account",
          "type": "address"
        }
      ],
      "name": "Paused",
      "type": "event"
    },
    {
      "anonymous": false,
      "inputs": [
        {
          "indexed": true,
          "internalType": "address",
          "name": "from",
          "type": "address"
        },
        {
          "indexed": true,
          "internalType": "address",
          "name": "to",
          "type": "address"
        },
        {
          "indexed": true,
          "internalType": "uint256",
          "name": "tokenId",
          "type": "uint256"
        }
      ],
      "name": "Transfer",
      "type": "event"
    },
    {
      "anonymous": false,
      "inputs": [
        {
          "indexed": false,
          "internalType": "address",
          "name": "account",
          "type": "address"
        }
      ],
      "name": "Unpaused",
      "type": "event"
    },
    {
      "inputs": [
        {
          "internalType": "address",
          "name": "to",
          "type": "address"
        },
        {
          "internalType": "uint256",
          "name": "tokenId",
          "type": "uint256"
        }
      ],
      "name": "approve",
      "outputs": [],
      "stateMutability": "nonpayable",
      "type": "function"
    },
    {
      "inputs": [
        {
          "internalType": "address",
          "name": "owner",
          "type": "address"
        }
      ],
      "name": "balanceOf",
      "outputs": [
        {
          "internalType": "uint256",
          "name": "",
          "type": "uint256"
        }
      ],
      "stateMutability": "view",
      "type": "function"
    },
    {
      "inputs": [
        {
          "internalType": "uint256",
          "name": "tokenId",
          "type": "uint256"
        }
      ],
      "name": "burn",
      "outputs": [],
      "stateMutability": "nonpayable",
      "type": "function"
    },
    {
      "inputs": [
        {
          "internalType": "uint256",
          "name": "tokenId",
          "type": "uint256"
        }
      ],
      "name": "getApproved",
      "outputs": [
        {
          "internalType": "address",
          "name": "",
          "type": "address"
        }
      ],
      "stateMutability": "view",
      "type": "function"
    },
    {
      "inputs": [
        {
          "internalType": "address",
          "name": "owner",
          "type": "address"
        },
        {
          "internalType": "address",
          "name": "operator",
          "type": "address"
        }
      ],
      "name": "isApprovedForAll",
      "outputs": [
        {
          "internalType": "bool",
          "name": "",
          "type": "bool"
        }
      ],
      "stateMutability": "view",
      "type": "function"
    },
    {
      "inputs": [],
      "name": "name",
      "outputs": [
        {
          "internalType": "string",
          "name": "",
          "type": "string"
        }
      ],
      "stateMutability": "view",
      "type": "function"
    },
    {
      "inputs": [],
      "name": "owner",
      "outputs": [
        {
          "internalType": "address",
          "name": "",
          "type": "address"
        }
      ],
      "stateMutability": "view",
      "type": "function"
    },
    {
      "inputs": [
        {
          "internalType": "uint256",
          "name": "tokenId",
          "type": "uint256"
        }
      ],
      "name": "ownerOf",
      "outputs": [
        {
          "internalType": "address",
          "name": "",
          "type": "address"
        }
      ],
      "stateMutability": "view",
      "type": "function"
    },
    {
      "inputs": [],
      "name": "pause",
      "outputs": [],
      "stateMutability": "nonpayable",
      "type": "function"
    },
    {
      "inputs": [],
      "name": "paused",
      "outputs": [
        {
          "internalType": "bool",
          "name": "",
          "type": "bool"
        }
      ],
      "stateMutability": "view",
      "type": "function"
    },
    {
      "inputs": [],
      "name": "renounceOwnership",
      "outputs": [],
      "stateMutability": "nonpayable",
      "type": "function"
    },
    {
      "inputs": [
        {
          "internalType": "address",
          "name": "from",
          "type": "address"
        },
        {
          "internalType": "address",
          "name": "to",
          "type": "address"
        },
        {
          "internalType": "uint256",
          "name": "tokenId",
          "type": "uint256"
        }
      ],
      "name": "safeTransferFrom",
      "outputs": [],
      "stateMutability": "nonpayable",
      "type": "function"
    },
    {
      "inputs": [
        {
          "internalType": "address",
          "name": "from",
          "type": "address"
        },
        {
          "internalType": "address",
          "name": "to",
          "type": "address"
        },
        {
          "internalType": "uint256",
          "name": "tokenId",
          "type": "uint256"
        },
        {
          "internalType": "bytes",
          "name": "_data",
          "type": "bytes"
        }
      ],
      "name": "safeTransferFrom",
      "outputs": [],
      "stateMutability": "nonpayable",
      "type": "function"
    },
    {
      "inputs": [
        {
          "internalType": "address",
          "name": "operator",
          "type": "address"
        },
        {
          "internalType": "bool",
          "name": "approved",
          "type": "bool"
        }
      ],
      "name": "setApprovalForAll",
      "outputs": [],
      "stateMutability": "nonpayable",
      "type": "function"
    },
    {
      "inputs": [
        {
          "internalType": "bytes4",
          "name": "interfaceId",
          "type": "bytes4"
        }
      ],
      "name": "supportsInterface",
      "outputs": [
        {
          "internalType": "bool",
          "name": "",
          "type": "bool"
        }
      ],
      "stateMutability": "view",
      "type": "function"
    },
    {
      "inputs": [],
      "name": "symbol",
      "outputs": [
        {
          "internalType": "string",
          "name": "",
          "type": "string"
        }
      ],
      "stateMutability": "view",
      "type": "function"
    },
    {
      "inputs": [
        {
          "internalType": "uint256",
          "name": "index",
          "type": "uint256"
        }
      ],
      "name": "tokenByIndex",
      "outputs": [
        {
          "internalType": "uint256",
          "name": "",
          "type": "uint256"
        }
      ],
      "stateMutability": "view",
      "type": "function"
    },
    {
      "inputs": [
        {
          "internalType": "address",
          "name": "owner",
          "type": "address"
        },
        {
          "internalType": "uint256",
          "name": "index",
          "type": "uint256"
        }
      ],
      "name": "tokenOfOwnerByIndex",
      "outputs": [
        {
          "internalType": "uint256",
          "name": "",
          "type": "uint256"
        }
      ],
      "stateMutability": "view",
      "type": "function"
    },
    {
      "inputs": [
        {
          "internalType": "uint256",
          "name": "tokenId",
          "type": "uint256"
        }
      ],
      "name": "tokenURI",
      "outputs": [
        {
          "internalType": "string",
          "name": "",
          "type": "string"
        }
      ],
      "stateMutability": "view",
      "type": "function"
    },
    {
      "inputs": [],
      "name": "totalSupply",
      "outputs": [
        {
          "internalType": "uint256",
          "name": "",
          "type": "uint256"
        }
      ],
      "stateMutability": "view",
      "type": "function"
    },
    {
      "inputs": [
        {
          "internalType": "address",
          "name": "from",
          "type": "address"
        },
        {
          "internalType": "address",
          "name": "to",
          "type": "address"
        },
        {
          "internalType": "uint256",
          "name": "tokenId",
          "type": "uint256"
        }
      ],
      "name": "transferFrom",
      "outputs": [],
      "stateMutability": "nonpayable",
      "type": "function"
    },
    {
      "inputs": [
        {
          "internalType": "address",
          "name": "newOwner",
          "type": "address"
        }
      ],
      "name": "transferOwnership",
      "outputs": [],
      "stateMutability": "nonpayable",
      "type": "function"
    },
    {
      "inputs": [],
      "name": "unpause",
      "outputs": [],
      "stateMutability": "nonpayable",
      "type": "function"
    }
  ],
  "bytecode": "0x60806040523480156200001157600080fd5b506040516200200c3803806200200c833981016040819052620000349162000236565b8151829082906200004d906000906020850190620000dd565b50805162000063906001906020840190620000dd565b5050600a805460ff19169055506200007b3362000083565b5050620002f0565b600a80546001600160a01b03838116610100818102610100600160a81b031985161790945560405193909204169182907f8be0079c531659141344cd1fd0a4f28419497f9722a3daafe3b4186f6b6457e090600090a35050565b828054620000eb906200029d565b90600052602060002090601f0160209004810192826200010f57600085556200015a565b82601f106200012a57805160ff19168380011785556200015a565b828001600101855582156200015a579182015b828111156200015a5782518255916020019190600101906200013d565b50620001689291506200016c565b5090565b5b808211156200016857600081556001016200016d565b600082601f83011262000194578081fd5b81516001600160401b0380821115620001b157620001b1620002da565b604051601f8301601f19908116603f01168101908282118183101715620001dc57620001dc620002da565b81604052838152602092508683858801011115620001f8578485fd5b8491505b838210156200021b5785820183015181830184015290820190620001fc565b838211156200022c57848385830101525b9695505050505050565b6000806040838503121562000249578182fd5b82516001600160401b038082111562000260578384fd5b6200026e8683870162000183565b9350602085015191508082111562000284578283fd5b50620002938582860162000183565b9150509250929050565b600181811c90821680620002b257607f821691505b60208210811415620002d457634e487b7160e01b600052602260045260246000fd5b50919050565b634e487b7160e01b600052604160045260246000fd5b611d0c80620003006000396000f3fe608060405234801561001057600080fd5b506004361061017d5760003560e01c80635c975abb116100e357806395d89b411161008c578063c87b56dd11610066578063c87b56dd146102fd578063e985e9c514610310578063f2fde38b1461034c57600080fd5b806395d89b41146102cf578063a22cb465146102d7578063b88d4fde146102ea57600080fd5b8063715018a6116100bd578063715018a6146102a95780638456cb59146102b15780638da5cb5b146102b957600080fd5b80635c975abb146102785780636352211e1461028357806370a082311461029657600080fd5b806323b872dd1161014557806342842e0e1161011f57806342842e0e1461023f57806342966c68146102525780634f6ccce71461026557600080fd5b806323b872dd146102115780632f745c59146102245780633f4ba83a1461023757600080fd5b806301ffc9a71461018257806306fdde03146101aa578063081812fc146101bf578063095ea7b3146101ea57806318160ddd146101ff575b600080fd5b610195610190366004611aab565b61035f565b60405190151581526020015b60405180910390f35b6101b2610370565b6040516101a19190611b92565b6101d26101cd366004611ae3565b610402565b6040516001600160a01b0390911681526020016101a1565b6101fd6101f8366004611a82565b61049c565b005b6008545b6040519081526020016101a1565b6101fd61021f366004611938565b6105b2565b610203610232366004611a82565b61062e565b6101fd6106c4565b6101fd61024d366004611938565b61072e565b6101fd610260366004611ae3565b610749565b610203610273366004611ae3565b6107d0565b600a5460ff16610195565b6101d2610291366004611ae3565b610871565b6102036102a43660046118ec565b6108e8565b6101fd61096f565b6101fd6109d9565b600a5461010090046001600160a01b03166101d2565b6101b2610a41565b6101fd6102e5366004611a48565b610a50565b6101fd6102f8366004611973565b610b15565b6101b261030b366004611ae3565b610b97565b61019561031e366004611906565b6001600160a01b03918216600090815260056020908152604080832093909416825291909152205460ff1690565b6101fd61035a3660046118ec565b610c8d565b600061036a82610d5b565b92915050565b60606000805461037f90611c14565b80601f01602080910402602001604051908101604052809291908181526020018280546103ab90611c14565b80156103f85780601f106103cd576101008083540402835291602001916103f8565b820191906000526020600020905b8154815290600101906020018083116103db57829003601f168201915b5050505050905090565b6000818152600260205260408120546001600160a01b03166104805760405162461bcd60e51b815260206004820152602c60248201527f4552433732313a20617070726f76656420717565727920666f72206e6f6e657860448201526b34b9ba32b73a103a37b5b2b760a11b60648201526084015b60405180910390fd5b506000908152600460205260409020546001600160a01b031690565b60006104a782610871565b9050806001600160a01b0316836001600160a01b031614156105155760405162461bcd60e51b815260206004820152602160248201527f4552433732313a20617070726f76616c20746f2063757272656e74206f776e656044820152603960f91b6064820152608401610477565b336001600160a01b03821614806105315750610531813361031e565b6105a35760405162461bcd60e51b815260206004820152603860248201527f4552433732313a20617070726f76652063616c6c6572206973206e6f74206f7760448201527f6e6572206e6f7220617070726f76656420666f7220616c6c00000000000000006064820152608401610477565b6105ad8383610d80565b505050565b6105bd335b82610dee565b6106235760405162461bcd60e51b815260206004820152603160248201527f4552433732313a207472616e736665722063616c6c6572206973206e6f74206f6044820152701ddb995c881b9bdc88185c1c1c9bdd9959607a1b6064820152608401610477565b6105ad838383610ee5565b6000610639836108e8565b821061069b5760405162461bcd60e51b815260206004820152602b60248201527f455243373231456e756d657261626c653a206f776e657220696e646578206f7560448201526a74206f6620626f756e647360a81b6064820152608401610477565b506001600160a01b03919091166000908152600660209081526040808320938352929052205490565b600a546001600160a01b036101009091041633146107245760405162461bcd60e51b815260206004820181905260248201527f4f776e61626c653a2063616c6c6572206973206e6f7420746865206f776e65726044820152606401610477565b61072c611090565b565b6105ad83838360405180602001604052806000815250610b15565b610752336105b7565b6107c45760405162461bcd60e51b815260206004820152603060248201527f4552433732314275726e61626c653a2063616c6c6572206973206e6f74206f7760448201527f6e6572206e6f7220617070726f766564000000000000000000000000000000006064820152608401610477565b6107cd8161112c565b50565b60006107db60085490565b821061083e5760405162461bcd60e51b815260206004820152602c60248201527f455243373231456e756d657261626c653a20676c6f62616c20696e646578206f60448201526b7574206f6620626f756e647360a01b6064820152608401610477565b6008828154811061085f57634e487b7160e01b600052603260045260246000fd5b90600052602060002001549050919050565b6000818152600260205260408120546001600160a01b03168061036a5760405162461bcd60e51b815260206004820152602960248201527f4552433732313a206f776e657220717565727920666f72206e6f6e657869737460448201526832b73a103a37b5b2b760b91b6064820152608401610477565b60006001600160a01b0382166109535760405162461bcd60e51b815260206004820152602a60248201527f4552433732313a2062616c616e636520717565727920666f7220746865207a65604482015269726f206164647265737360b01b6064820152608401610477565b506001600160a01b031660009081526003602052604090205490565b600a546001600160a01b036101009091041633146109cf5760405162461bcd60e51b815260206004820181905260248201527f4f776e61626c653a2063616c6c6572206973206e6f7420746865206f776e65726044820152606401610477565b61072c60006111d3565b600a546001600160a01b03610100909104163314610a395760405162461bcd60e51b815260206004820181905260248201527f4f776e61626c653a2063616c6c6572206973206e6f7420746865206f776e65726044820152606401610477565b61072c61123a565b60606001805461037f90611c14565b6001600160a01b038216331415610aa95760405162461bcd60e51b815260206004820152601960248201527f4552433732313a20617070726f766520746f2063616c6c6572000000000000006044820152606401610477565b3360008181526005602090815260408083206001600160a01b03871680855290835292819020805460ff191686151590811790915590519081529192917f17307eab39ab6107e8899845ad3d59bd9653f200f220920489ca2b5937696c31910160405180910390a35050565b610b1f3383610dee565b610b855760405162461bcd60e51b815260206004820152603160248201527f4552433732313a207472616e736665722063616c6c6572206973206e6f74206f6044820152701ddb995c881b9bdc88185c1c1c9bdd9959607a1b6064820152608401610477565b610b91848484846112b5565b50505050565b6000818152600260205260409020546060906001600160a01b0316610c245760405162461bcd60e51b815260206004820152602f60248201527f4552433732314d657461646174613a2055524920717565727920666f72206e6f60448201527f6e6578697374656e7420746f6b656e00000000000000000000000000000000006064820152608401610477565b6000610c3b60408051602081019091526000815290565b90506000815111610c5b5760405180602001604052806000815250610c86565b80610c6584611333565b604051602001610c76929190611b27565b6040516020818303038152906040525b9392505050565b600a546001600160a01b03610100909104163314610ced5760405162461bcd60e51b815260206004820181905260248201527f4f776e61626c653a2063616c6c6572206973206e6f7420746865206f776e65726044820152606401610477565b6001600160a01b038116610d525760405162461bcd60e51b815260206004820152602660248201527f4f776e61626c653a206e6577206f776e657220697320746865207a65726f206160448201526564647265737360d01b6064820152608401610477565b6107cd816111d3565b60006001600160e01b0319821663780e9d6360e01b148061036a575061036a82611465565b600081815260046020526040902080546001600160a01b0319166001600160a01b0384169081179091558190610db582610871565b6001600160a01b03167f8c5be1e5ebec7d5bd14f71427d1e84f3dd0314c0f7b2291e5b200ac8c7c3b92560405160405180910390a45050565b6000818152600260205260408120546001600160a01b0316610e675760405162461bcd60e51b815260206004820152602c60248201527f4552433732313a206f70657261746f7220717565727920666f72206e6f6e657860448201526b34b9ba32b73a103a37b5b2b760a11b6064820152608401610477565b6000610e7283610871565b9050806001600160a01b0316846001600160a01b03161480610ead5750836001600160a01b0316610ea284610402565b6001600160a01b0316145b80610edd57506001600160a01b0380821660009081526005602090815260408083209388168352929052205460ff165b949350505050565b826001600160a01b0316610ef882610871565b6001600160a01b031614610f605760405162461bcd60e51b815260206004820152602960248201527f4552433732313a207472616e73666572206f6620746f6b656e2074686174206960448201526839903737ba1037bbb760b91b6064820152608401610477565b6001600160a01b038216610fc25760405162461bcd60e51b8152602060048201526024808201527f4552433732313a207472616e7366657220746f20746865207a65726f206164646044820152637265737360e01b6064820152608401610477565b610fcd8383836114b5565b610fd8600082610d80565b6001600160a01b0383166000908152600360205260408120805460019290611001908490611bd1565b90915550506001600160a01b038216600090815260036020526040812080546001929061102f908490611ba5565b909155505060008181526002602052604080822080546001600160a01b0319166001600160a01b0386811691821790925591518493918716917fddf252ad1be2c89b69c2b068fc378daa952ba7f163c4a11628f55a4df523b3ef91a4505050565b600a5460ff166110e25760405162461bcd60e51b815260206004820152601460248201527f5061757361626c653a206e6f74207061757365640000000000000000000000006044820152606401610477565b600a805460ff191690557f5db9ee0a495bf2e6ff9c91a7834c1ba4fdd244a5e8aa4e537bd38aeae4b073aa335b6040516001600160a01b03909116815260200160405180910390a1565b600061113782610871565b9050611145816000846114b5565b611150600083610d80565b6001600160a01b0381166000908152600360205260408120805460019290611179908490611bd1565b909155505060008281526002602052604080822080546001600160a01b0319169055518391906001600160a01b038416907fddf252ad1be2c89b69c2b068fc378daa952ba7f163c4a11628f55a4df523b3ef908390a45050565b600a80546001600160a01b0383811661010081810274ffffffffffffffffffffffffffffffffffffffff001985161790945560405193909204169182907f8be0079c531659141344cd1fd0a4f28419497f9722a3daafe3b4186f6b6457e090600090a35050565b600a5460ff16156112805760405162461bcd60e51b815260206004820152601060248201526f14185d5cd8589b194e881c185d5cd95960821b6044820152606401610477565b600a805460ff191660011790557f62e78cea01bee320cd4e420270b5ea74000d11b0c9f74754ebdbfc544b05a25861110f3390565b6112c0848484610ee5565b6112cc84848484611506565b610b915760405162461bcd60e51b815260206004820152603260248201527f4552433732313a207472616e7366657220746f206e6f6e20455243373231526560448201527131b2b4bb32b91034b6b83632b6b2b73a32b960711b6064820152608401610477565b6060816113575750506040805180820190915260018152600360fc1b602082015290565b8160005b8115611381578061136b81611c4f565b915061137a9050600a83611bbd565b915061135b565b60008167ffffffffffffffff8111156113aa57634e487b7160e01b600052604160045260246000fd5b6040519080825280601f01601f1916602001820160405280156113d4576020820181803683370190505b5090505b8415610edd576113e9600183611bd1565b91506113f6600a86611c6a565b611401906030611ba5565b60f81b81838151811061142457634e487b7160e01b600052603260045260246000fd5b60200101907effffffffffffffffffffffffffffffffffffffffffffffffffffffffffffff1916908160001a90535061145e600a86611bbd565b94506113d8565b60006001600160e01b031982166380ac58cd60e01b148061149657506001600160e01b03198216635b5e139f60e01b145b8061036a57506301ffc9a760e01b6001600160e01b031983161461036a565b600a5460ff16156114fb5760405162461bcd60e51b815260206004820152601060248201526f14185d5cd8589b194e881c185d5cd95960821b6044820152606401610477565b6105ad83838361165e565b60006001600160a01b0384163b1561165357604051630a85bd0160e11b81526001600160a01b0385169063150b7a029061154a903390899088908890600401611b56565b602060405180830381600087803b15801561156457600080fd5b505af1925050508015611594575060408051601f3d908101601f1916820190925261159191810190611ac7565b60015b611639573d8080156115c2576040519150601f19603f3d011682016040523d82523d6000602084013e6115c7565b606091505b5080516116315760405162461bcd60e51b815260206004820152603260248201527f4552433732313a207472616e7366657220746f206e6f6e20455243373231526560448201527131b2b4bb32b91034b6b83632b6b2b73a32b960711b6064820152608401610477565b805181602001fd5b6001600160e01b031916630a85bd0160e11b149050610edd565b506001949350505050565b6001600160a01b0383166116b9576116b481600880546000838152600960205260408120829055600182018355919091527ff3f7a9fe364faab93b216da50a3214154f22a0a2b415b23a84c8169e8b636ee30155565b6116dc565b816001600160a01b0316836001600160a01b0316146116dc576116dc8382611716565b6001600160a01b0382166116f3576105ad816117b3565b826001600160a01b0316826001600160a01b0316146105ad576105ad828261188c565b60006001611723846108e8565b61172d9190611bd1565b600083815260076020526040902054909150808214611780576001600160a01b03841660009081526006602090815260408083208584528252808320548484528184208190558352600790915290208190555b5060009182526007602090815260408084208490556001600160a01b039094168352600681528383209183525290812055565b6008546000906117c590600190611bd1565b600083815260096020526040812054600880549394509092849081106117fb57634e487b7160e01b600052603260045260246000fd5b90600052602060002001549050806008838154811061182a57634e487b7160e01b600052603260045260246000fd5b600091825260208083209091019290925582815260099091526040808220849055858252812055600880548061187057634e487b7160e01b600052603160045260246000fd5b6001900381819060005260206000200160009055905550505050565b6000611897836108e8565b6001600160a01b039093166000908152600660209081526040808320868452825280832085905593825260079052919091209190915550565b80356001600160a01b03811681146118e757600080fd5b919050565b6000602082840312156118fd578081fd5b610c86826118d0565b60008060408385031215611918578081fd5b611921836118d0565b915061192f602084016118d0565b90509250929050565b60008060006060848603121561194c578081fd5b611955846118d0565b9250611963602085016118d0565b9150604084013590509250925092565b60008060008060808587031215611988578081fd5b611991856118d0565b935061199f602086016118d0565b925060408501359150606085013567ffffffffffffffff808211156119c2578283fd5b818701915087601f8301126119d5578283fd5b8135818111156119e7576119e7611caa565b604051601f8201601f19908116603f01168101908382118183101715611a0f57611a0f611caa565b816040528281528a6020848701011115611a27578586fd5b82602086016020830137918201602001949094529598949750929550505050565b60008060408385031215611a5a578182fd5b611a63836118d0565b915060208301358015158114611a77578182fd5b809150509250929050565b60008060408385031215611a94578182fd5b611a9d836118d0565b946020939093013593505050565b600060208284031215611abc578081fd5b8135610c8681611cc0565b600060208284031215611ad8578081fd5b8151610c8681611cc0565b600060208284031215611af4578081fd5b5035919050565b60008151808452611b13816020860160208601611be8565b601f01601f19169290920160200192915050565b60008351611b39818460208801611be8565b835190830190611b4d818360208801611be8565b01949350505050565b60006001600160a01b03808716835280861660208401525083604083015260806060830152611b886080830184611afb565b9695505050505050565b602081526000610c866020830184611afb565b60008219821115611bb857611bb8611c7e565b500190565b600082611bcc57611bcc611c94565b500490565b600082821015611be357611be3611c7e565b500390565b60005b83811015611c03578181015183820152602001611beb565b83811115610b915750506000910152565b600181811c90821680611c2857607f821691505b60208210811415611c4957634e487b7160e01b600052602260045260246000fd5b50919050565b6000600019821415611c6357611c63611c7e565b5060010190565b600082611c7957611c79611c94565b500690565b634e487b7160e01b600052601160045260246000fd5b634e487b7160e01b600052601260045260246000fd5b634e487b7160e01b600052604160045260246000fd5b6001600160e01b0319811681146107cd57600080fdfea2646970667358221220c25a2bc303be07671f57c247e74c58d2d4c9e8eea4892225b1b6bcc80aec30d964736f6c63430008040033",
  "linkReferences": {},
  "deployedLinkReferences": {}
}