{
  "_format": "hh-sol-artifact-1",
  "contractName": "DynaTokenBase",
  "sourceName": "contracts/DynaTokenBase.sol",
  "abi": [
    {
      "inputs": [
        {
          "internalType": "string",
          "name": "name_",
          "type": "string"
        },
        {
          "internalType": "string",
          "name": "symbol_",
          "type": "string"
        }
      ],
      "stateMutability": "nonpayable",
      "type": "constructor"
    },
    {
      "inputs": [],
      "name": "ApprovalCallerNotOwnerNorApproved",
      "type": "error"
    },
    {
      "inputs": [],
      "name": "ApprovalQueryForNonexistentToken",
      "type": "error"
    },
    {
      "inputs": [],
      "name": "ApprovalToCurrentOwner",
      "type": "error"
    },
    {
      "inputs": [],
      "name": "ApproveToCaller",
      "type": "error"
    },
    {
      "inputs": [],
      "name": "BalanceQueryForZeroAddress",
      "type": "error"
    },
    {
      "inputs": [],
      "name": "OwnerIndexOutOfBounds",
      "type": "error"
    },
    {
      "inputs": [],
      "name": "OwnerQueryForNonexistentToken",
      "type": "error"
    },
    {
      "inputs": [],
      "name": "TokenIndexOutOfBounds",
      "type": "error"
    },
    {
      "inputs": [],
      "name": "TransferCallerNotOwnerNorApproved",
      "type": "error"
    },
    {
      "inputs": [],
      "name": "TransferFromIncorrectOwner",
      "type": "error"
    },
    {
      "inputs": [],
      "name": "TransferToNonERC721ReceiverImplementer",
      "type": "error"
    },
    {
      "inputs": [],
      "name": "TransferToZeroAddress",
      "type": "error"
    },
    {
      "inputs": [],
      "name": "URIQueryForNonexistentToken",
      "type": "error"
    },
    {
      "anonymous": false,
      "inputs": [
        {
          "indexed": true,
          "internalType": "address",
          "name": "owner",
          "type": "address"
        },
        {
          "indexed": true,
          "internalType": "address",
          "name": "approved",
          "type": "address"
        },
        {
          "indexed": true,
          "internalType": "uint256",
          "name": "tokenId",
          "type": "uint256"
        }
      ],
      "name": "Approval",
      "type": "event"
    },
    {
      "anonymous": false,
      "inputs": [
        {
          "indexed": true,
          "internalType": "address",
          "name": "owner",
          "type": "address"
        },
        {
          "indexed": true,
          "internalType": "address",
          "name": "operator",
          "type": "address"
        },
        {
          "indexed": false,
          "internalType": "bool",
          "name": "approved",
          "type": "bool"
        }
      ],
      "name": "ApprovalForAll",
      "type": "event"
    },
    {
      "anonymous": false,
      "inputs": [
        {
          "indexed": true,
          "internalType": "address",
          "name": "previousOwner",
          "type": "address"
        },
        {
          "indexed": true,
          "internalType": "address",
          "name": "newOwner",
          "type": "address"
        }
      ],
      "name": "OwnershipTransferred",
      "type": "event"
    },
    {
      "anonymous": false,
      "inputs": [
        {
          "indexed": false,
          "internalType": "address",
          "name": "account",
          "type": "address"
        }
      ],
      "name": "Paused",
      "type": "event"
    },
    {
      "anonymous": false,
      "inputs": [
        {
          "indexed": true,
          "internalType": "address",
          "name": "from",
          "type": "address"
        },
        {
          "indexed": true,
          "internalType": "address",
          "name": "to",
          "type": "address"
        },
        {
          "indexed": true,
          "internalType": "uint256",
          "name": "tokenId",
          "type": "uint256"
        }
      ],
      "name": "Transfer",
      "type": "event"
    },
    {
      "anonymous": false,
      "inputs": [
        {
          "indexed": false,
          "internalType": "address",
          "name": "account",
          "type": "address"
        }
      ],
      "name": "Unpaused",
      "type": "event"
    },
    {
      "inputs": [
        {
          "internalType": "address",
          "name": "to",
          "type": "address"
        },
        {
          "internalType": "uint256",
          "name": "tokenId",
          "type": "uint256"
        }
      ],
      "name": "approve",
      "outputs": [],
      "stateMutability": "nonpayable",
      "type": "function"
    },
    {
      "inputs": [
        {
          "internalType": "address",
          "name": "owner",
          "type": "address"
        }
      ],
      "name": "balanceOf",
      "outputs": [
        {
          "internalType": "uint256",
          "name": "",
          "type": "uint256"
        }
      ],
      "stateMutability": "view",
      "type": "function"
    },
    {
      "inputs": [
        {
          "internalType": "uint256",
          "name": "tokenId",
          "type": "uint256"
        }
      ],
      "name": "getApproved",
      "outputs": [
        {
          "internalType": "address",
          "name": "",
          "type": "address"
        }
      ],
      "stateMutability": "view",
      "type": "function"
    },
    {
      "inputs": [
        {
          "internalType": "address",
          "name": "owner",
          "type": "address"
        },
        {
          "internalType": "address",
          "name": "operator",
          "type": "address"
        }
      ],
      "name": "isApprovedForAll",
      "outputs": [
        {
          "internalType": "bool",
          "name": "",
          "type": "bool"
        }
      ],
      "stateMutability": "view",
      "type": "function"
    },
    {
      "inputs": [],
      "name": "name",
      "outputs": [
        {
          "internalType": "string",
          "name": "",
          "type": "string"
        }
      ],
      "stateMutability": "view",
      "type": "function"
    },
    {
      "inputs": [],
      "name": "owner",
      "outputs": [
        {
          "internalType": "address",
          "name": "",
          "type": "address"
        }
      ],
      "stateMutability": "view",
      "type": "function"
    },
    {
      "inputs": [
        {
          "internalType": "uint256",
          "name": "tokenId",
          "type": "uint256"
        }
      ],
      "name": "ownerOf",
      "outputs": [
        {
          "internalType": "address",
          "name": "",
          "type": "address"
        }
      ],
      "stateMutability": "view",
      "type": "function"
    },
    {
      "inputs": [],
      "name": "pause",
      "outputs": [],
      "stateMutability": "nonpayable",
      "type": "function"
    },
    {
      "inputs": [],
      "name": "paused",
      "outputs": [
        {
          "internalType": "bool",
          "name": "",
          "type": "bool"
        }
      ],
      "stateMutability": "view",
      "type": "function"
    },
    {
      "inputs": [],
      "name": "renounceOwnership",
      "outputs": [],
      "stateMutability": "nonpayable",
      "type": "function"
    },
    {
      "inputs": [
        {
          "internalType": "address",
          "name": "from",
          "type": "address"
        },
        {
          "internalType": "address",
          "name": "to",
          "type": "address"
        },
        {
          "internalType": "uint256",
          "name": "tokenId",
          "type": "uint256"
        }
      ],
      "name": "safeTransferFrom",
      "outputs": [],
      "stateMutability": "nonpayable",
      "type": "function"
    },
    {
      "inputs": [
        {
          "internalType": "address",
          "name": "from",
          "type": "address"
        },
        {
          "internalType": "address",
          "name": "to",
          "type": "address"
        },
        {
          "internalType": "uint256",
          "name": "tokenId",
          "type": "uint256"
        },
        {
          "internalType": "bytes",
          "name": "_data",
          "type": "bytes"
        }
      ],
      "name": "safeTransferFrom",
      "outputs": [],
      "stateMutability": "nonpayable",
      "type": "function"
    },
    {
      "inputs": [
        {
          "internalType": "address",
          "name": "operator",
          "type": "address"
        },
        {
          "internalType": "bool",
          "name": "approved",
          "type": "bool"
        }
      ],
      "name": "setApprovalForAll",
      "outputs": [],
      "stateMutability": "nonpayable",
      "type": "function"
    },
    {
      "inputs": [
        {
          "internalType": "bytes4",
          "name": "interfaceId",
          "type": "bytes4"
        }
      ],
      "name": "supportsInterface",
      "outputs": [
        {
          "internalType": "bool",
          "name": "",
          "type": "bool"
        }
      ],
      "stateMutability": "view",
      "type": "function"
    },
    {
      "inputs": [],
      "name": "symbol",
      "outputs": [
        {
          "internalType": "string",
          "name": "",
          "type": "string"
        }
      ],
      "stateMutability": "view",
      "type": "function"
    },
    {
      "inputs": [
        {
          "internalType": "uint256",
          "name": "index",
          "type": "uint256"
        }
      ],
      "name": "tokenByIndex",
      "outputs": [
        {
          "internalType": "uint256",
          "name": "",
          "type": "uint256"
        }
      ],
      "stateMutability": "view",
      "type": "function"
    },
    {
      "inputs": [
        {
          "internalType": "address",
          "name": "owner",
          "type": "address"
        },
        {
          "internalType": "uint256",
          "name": "index",
          "type": "uint256"
        }
      ],
      "name": "tokenOfOwnerByIndex",
      "outputs": [
        {
          "internalType": "uint256",
          "name": "",
          "type": "uint256"
        }
      ],
      "stateMutability": "view",
      "type": "function"
    },
    {
      "inputs": [
        {
          "internalType": "uint256",
          "name": "tokenId",
          "type": "uint256"
        }
      ],
      "name": "tokenURI",
      "outputs": [
        {
          "internalType": "string",
          "name": "",
          "type": "string"
        }
      ],
      "stateMutability": "view",
      "type": "function"
    },
    {
      "inputs": [],
      "name": "totalSupply",
      "outputs": [
        {
          "internalType": "uint256",
          "name": "",
          "type": "uint256"
        }
      ],
      "stateMutability": "view",
      "type": "function"
    },
    {
      "inputs": [
        {
          "internalType": "address",
          "name": "from",
          "type": "address"
        },
        {
          "internalType": "address",
          "name": "to",
          "type": "address"
        },
        {
          "internalType": "uint256",
          "name": "tokenId",
          "type": "uint256"
        }
      ],
      "name": "transferFrom",
      "outputs": [],
      "stateMutability": "nonpayable",
      "type": "function"
    },
    {
      "inputs": [
        {
          "internalType": "address",
          "name": "newOwner",
          "type": "address"
        }
      ],
      "name": "transferOwnership",
      "outputs": [],
      "stateMutability": "nonpayable",
      "type": "function"
    },
    {
      "inputs": [],
      "name": "unpause",
      "outputs": [],
      "stateMutability": "nonpayable",
      "type": "function"
    }
  ],
  "bytecode": "0x60806040523480156200001157600080fd5b5060405162001a0738038062001a07833981016040819052620000349162000244565b8151829082906200004d906001906020850190620000eb565b50805162000063906002906020840190620000eb565b505050620000806200007a6200009560201b60201c565b62000099565b50506007805460ff60a01b19169055620002fe565b3390565b600780546001600160a01b038381166001600160a01b0319831681179093556040519116919082907f8be0079c531659141344cd1fd0a4f28419497f9722a3daafe3b4186f6b6457e090600090a35050565b828054620000f990620002ab565b90600052602060002090601f0160209004810192826200011d576000855562000168565b82601f106200013857805160ff191683800117855562000168565b8280016001018555821562000168579182015b82811115620001685782518255916020019190600101906200014b565b50620001769291506200017a565b5090565b5b808211156200017657600081556001016200017b565b600082601f830112620001a2578081fd5b81516001600160401b0380821115620001bf57620001bf620002e8565b604051601f8301601f19908116603f01168101908282118183101715620001ea57620001ea620002e8565b8160405283815260209250868385880101111562000206578485fd5b8491505b838210156200022957858201830151818301840152908201906200020a565b838211156200023a57848385830101525b9695505050505050565b6000806040838503121562000257578182fd5b82516001600160401b03808211156200026e578384fd5b6200027c8683870162000191565b9350602085015191508082111562000292578283fd5b50620002a18582860162000191565b9150509250929050565b600181811c90821680620002c057607f821691505b60208210811415620002e257634e487b7160e01b600052602260045260246000fd5b50919050565b634e487b7160e01b600052604160045260246000fd5b6116f9806200030e6000396000f3fe608060405234801561001057600080fd5b50600436106101625760003560e01c80636352211e116100c857806395d89b411161008c578063c87b56dd11610066578063c87b56dd146102ef578063e985e9c514610302578063f2fde38b1461033e57600080fd5b806395d89b41146102c1578063a22cb465146102c9578063b88d4fde146102dc57600080fd5b80636352211e1461027a57806370a082311461028d578063715018a6146102a05780638456cb59146102a85780638da5cb5b146102b057600080fd5b806323b872dd1161012a57806342842e0e1161010457806342842e0e146102425780634f6ccce7146102555780635c975abb1461026857600080fd5b806323b872dd146102145780632f745c59146102275780633f4ba83a1461023a57600080fd5b806301ffc9a71461016757806306fdde031461018f578063081812fc146101a4578063095ea7b3146101cf57806318160ddd146101e4575b600080fd5b61017a610175366004611498565b610351565b60405190151581526020015b60405180910390f35b610197610362565b604051610186919061157f565b6101b76101b23660046114d0565b6103f4565b6040516001600160a01b039091168152602001610186565b6101e26101dd36600461146f565b610438565b005b6102066000546001600160801b03600160801b82048116918116919091031690565b604051908152602001610186565b6101e2610222366004611325565b6104c6565b61020661023536600461146f565b6104d1565b6101e26105ce565b6101e2610250366004611325565b610637565b6102066102633660046114d0565b610652565b600754600160a01b900460ff1661017a565b6101b76102883660046114d0565b6106fd565b61020661029b3660046112d9565b61070f565b6101e261075e565b6101e26107c2565b6007546001600160a01b03166101b7565b610197610824565b6101e26102d7366004611435565b610833565b6101e26102ea366004611360565b6108c9565b6101976102fd3660046114d0565b610903565b61017a6103103660046112f3565b6001600160a01b03918216600090815260066020908152604080832093909416825291909152205460ff1690565b6101e261034c3660046112d9565b610995565b600061035c82610a60565b92915050565b60606001805461037190611601565b80601f016020809104026020016040519081016040528092919081815260200182805461039d90611601565b80156103ea5780601f106103bf576101008083540402835291602001916103ea565b820191906000526020600020905b8154815290600101906020018083116103cd57829003601f168201915b5050505050905090565b60006103ff82610acb565b61041c576040516333d1c03960e21b815260040160405180910390fd5b506000908152600560205260409020546001600160a01b031690565b6000610443826106fd565b9050806001600160a01b0316836001600160a01b031614156104785760405163250fdee360e21b815260040160405180910390fd5b336001600160a01b0382161480159061049857506104968133610310565b155b156104b6576040516367d9dca160e11b815260040160405180910390fd5b6104c1838383610aff565b505050565b6104c1838383610b5b565b60006104dc8361070f565b82106104fb576040516306ed618760e11b815260040160405180910390fd5b600080546001600160801b03169080805b838110156105c857600081815260036020908152604091829020825160608101845290546001600160a01b0381168252600160a01b810467ffffffffffffffff1692820192909252600160e01b90910460ff16158015928201929092529061057457506105c0565b80516001600160a01b03161561058957805192505b876001600160a01b0316836001600160a01b031614156105be57868414156105b75750935061035c92505050565b6001909301925b505b60010161050c565b50600080fd5b6007546001600160a01b0316331461062d5760405162461bcd60e51b815260206004820181905260248201527f4f776e61626c653a2063616c6c6572206973206e6f7420746865206f776e657260448201526064015b60405180910390fd5b610635610d86565b565b6104c1838383604051806020016040528060008152506108c9565b600080546001600160801b031681805b828110156106e357600081815260036020908152604091829020825160608101845290546001600160a01b0381168252600160a01b810467ffffffffffffffff1692820192909252600160e01b90910460ff161515918101829052906106da57858314156106d35750949350505050565b6001909201915b50600101610662565b506040516329c8c00760e21b815260040160405180910390fd5b600061070882610e2c565b5192915050565b60006001600160a01b038216610738576040516323d3ad8160e21b815260040160405180910390fd5b506001600160a01b031660009081526004602052604090205467ffffffffffffffff1690565b6007546001600160a01b031633146107b85760405162461bcd60e51b815260206004820181905260248201527f4f776e61626c653a2063616c6c6572206973206e6f7420746865206f776e65726044820152606401610624565b6106356000610f50565b6007546001600160a01b0316331461081c5760405162461bcd60e51b815260206004820181905260248201527f4f776e61626c653a2063616c6c6572206973206e6f7420746865206f776e65726044820152606401610624565b610635610fa2565b60606002805461037190611601565b6001600160a01b03821633141561085d5760405163b06307db60e01b815260040160405180910390fd5b3360008181526006602090815260408083206001600160a01b03871680855290835292819020805460ff191686151590811790915590519081529192917f17307eab39ab6107e8899845ad3d59bd9653f200f220920489ca2b5937696c31910160405180910390a35050565b6108d4848484610b5b565b6108e08484848461102a565b6108fd576040516368d2bf6b60e11b815260040160405180910390fd5b50505050565b606061090e82610acb565b61092b57604051630a14c4b560e41b815260040160405180910390fd5b600061094260408051602081019091526000815290565b9050805160001415610963576040518060200160405280600081525061098e565b8061096d84611139565b60405160200161097e929190611514565b6040516020818303038152906040525b9392505050565b6007546001600160a01b031633146109ef5760405162461bcd60e51b815260206004820181905260248201527f4f776e61626c653a2063616c6c6572206973206e6f7420746865206f776e65726044820152606401610624565b6001600160a01b038116610a545760405162461bcd60e51b815260206004820152602660248201527f4f776e61626c653a206e6577206f776e657220697320746865207a65726f206160448201526564647265737360d01b6064820152608401610624565b610a5d81610f50565b50565b60006001600160e01b031982166380ac58cd60e01b1480610a9157506001600160e01b03198216635b5e139f60e01b145b80610aac57506001600160e01b0319821663780e9d6360e01b145b8061035c57506301ffc9a760e01b6001600160e01b031983161461035c565b600080546001600160801b03168210801561035c575050600090815260036020526040902054600160e01b900460ff161590565b60008281526005602052604080822080546001600160a01b0319166001600160a01b0387811691821790925591518593918516917f8c5be1e5ebec7d5bd14f71427d1e84f3dd0314c0f7b2291e5b200ac8c7c3b92591a4505050565b6000610b6682610e2c565b80519091506000906001600160a01b0316336001600160a01b03161480610b9457508151610b949033610310565b80610baf575033610ba4846103f4565b6001600160a01b0316145b905080610bcf57604051632ce44b5f60e11b815260040160405180910390fd5b846001600160a01b031682600001516001600160a01b031614610c045760405162a1148160e81b815260040160405180910390fd5b6001600160a01b038416610c2b57604051633a954ecd60e21b815260040160405180910390fd5b610c38858585600161126b565b610c486000848460000151610aff565b6001600160a01b038581166000908152600460209081526040808320805467ffffffffffffffff1980821667ffffffffffffffff92831660001901831617909255898616808652838620805493841693831660019081018416949094179055898652600390945282852080546001600160e01b031916909417600160a01b429092169190910217909255908601808352912054909116610d3d576000546001600160801b0316811015610d3d578251600082815260036020908152604090912080549186015167ffffffffffffffff16600160a01b026001600160e01b03199092166001600160a01b03909316929092171790555b5082846001600160a01b0316866001600160a01b03167fddf252ad1be2c89b69c2b068fc378daa952ba7f163c4a11628f55a4df523b3ef60405160405180910390a45050505050565b600754600160a01b900460ff16610ddf5760405162461bcd60e51b815260206004820152601460248201527f5061757361626c653a206e6f74207061757365640000000000000000000000006044820152606401610624565b6007805460ff60a01b191690557f5db9ee0a495bf2e6ff9c91a7834c1ba4fdd244a5e8aa4e537bd38aeae4b073aa335b6040516001600160a01b03909116815260200160405180910390a1565b60408051606081018252600080825260208201819052918101829052905482906001600160801b0316811015610f3757600081815260036020908152604091829020825160608101845290546001600160a01b0381168252600160a01b810467ffffffffffffffff1692820192909252600160e01b90910460ff16151591810182905290610f355780516001600160a01b031615610ecb579392505050565b5060001901600081815260036020908152604091829020825160608101845290546001600160a01b038116808352600160a01b820467ffffffffffffffff1693830193909352600160e01b900460ff1615159281019290925215610f30579392505050565b610ecb565b505b604051636f96cda160e11b815260040160405180910390fd5b600780546001600160a01b038381166001600160a01b0319831681179093556040519116919082907f8be0079c531659141344cd1fd0a4f28419497f9722a3daafe3b4186f6b6457e090600090a35050565b600754600160a01b900460ff1615610fef5760405162461bcd60e51b815260206004820152601060248201526f14185d5cd8589b194e881c185d5cd95960821b6044820152606401610624565b6007805460ff60a01b1916600160a01b1790557f62e78cea01bee320cd4e420270b5ea74000d11b0c9f74754ebdbfc544b05a258610e0f3390565b60006001600160a01b0384163b1561112d57604051630a85bd0160e11b81526001600160a01b0385169063150b7a029061106e903390899088908890600401611543565b602060405180830381600087803b15801561108857600080fd5b505af19250505080156110b8575060408051601f3d908101601f191682019092526110b5918101906114b4565b60015b611113573d8080156110e6576040519150601f19603f3d011682016040523d82523d6000602084013e6110eb565b606091505b50805161110b576040516368d2bf6b60e11b815260040160405180910390fd5b805181602001fd5b6001600160e01b031916630a85bd0160e11b149050611131565b5060015b949350505050565b60608161115d5750506040805180820190915260018152600360fc1b602082015290565b8160005b811561118757806111718161163c565b91506111809050600a836115aa565b9150611161565b60008167ffffffffffffffff8111156111b057634e487b7160e01b600052604160045260246000fd5b6040519080825280601f01601f1916602001820160405280156111da576020820181803683370190505b5090505b8415611131576111ef6001836115be565b91506111fc600a86611657565b611207906030611592565b60f81b81838151811061122a57634e487b7160e01b600052603260045260246000fd5b60200101907effffffffffffffffffffffffffffffffffffffffffffffffffffffffffffff1916908160001a905350611264600a866115aa565b94506111de565b600754600160a01b900460ff16156112b85760405162461bcd60e51b815260206004820152601060248201526f14185d5cd8589b194e881c185d5cd95960821b6044820152606401610624565b6108fd565b80356001600160a01b03811681146112d457600080fd5b919050565b6000602082840312156112ea578081fd5b61098e826112bd565b60008060408385031215611305578081fd5b61130e836112bd565b915061131c602084016112bd565b90509250929050565b600080600060608486031215611339578081fd5b611342846112bd565b9250611350602085016112bd565b9150604084013590509250925092565b60008060008060808587031215611375578081fd5b61137e856112bd565b935061138c602086016112bd565b925060408501359150606085013567ffffffffffffffff808211156113af578283fd5b818701915087601f8301126113c2578283fd5b8135818111156113d4576113d4611697565b604051601f8201601f19908116603f011681019083821181831017156113fc576113fc611697565b816040528281528a6020848701011115611414578586fd5b82602086016020830137918201602001949094529598949750929550505050565b60008060408385031215611447578182fd5b611450836112bd565b915060208301358015158114611464578182fd5b809150509250929050565b60008060408385031215611481578182fd5b61148a836112bd565b946020939093013593505050565b6000602082840312156114a9578081fd5b813561098e816116ad565b6000602082840312156114c5578081fd5b815161098e816116ad565b6000602082840312156114e1578081fd5b5035919050565b600081518084526115008160208601602086016115d5565b601f01601f19169290920160200192915050565b600083516115268184602088016115d5565b83519083019061153a8183602088016115d5565b01949350505050565b60006001600160a01b0380871683528086166020840152508360408301526080606083015261157560808301846114e8565b9695505050505050565b60208152600061098e60208301846114e8565b600082198211156115a5576115a561166b565b500190565b6000826115b9576115b9611681565b500490565b6000828210156115d0576115d061166b565b500390565b60005b838110156115f05781810151838201526020016115d8565b838111156108fd5750506000910152565b600181811c9082168061161557607f821691505b6020821081141561163657634e487b7160e01b600052602260045260246000fd5b50919050565b60006000198214156116505761165061166b565b5060010190565b60008261166657611666611681565b500690565b634e487b7160e01b600052601160045260246000fd5b634e487b7160e01b600052601260045260246000fd5b634e487b7160e01b600052604160045260246000fd5b6001600160e01b031981168114610a5d57600080fdfea2646970667358221220af5e0ecc97cca04f78468ee05224b3d8828a0e387dc5c238cfcc886306a9536464736f6c63430008040033",
  "linkReferences": {},
  "deployedLinkReferences": {}
}