{
  "_format": "hh-sol-artifact-1",
  "contractName": "DynaTokenBase",
  "sourceName": "contracts/DynaTokenBase.sol",
  "abi": [
    {
      "inputs": [
        {
          "internalType": "string",
          "name": "name_",
          "type": "string"
        },
        {
          "internalType": "string",
          "name": "symbol_",
          "type": "string"
        }
      ],
      "stateMutability": "nonpayable",
      "type": "constructor"
    },
    {
      "inputs": [],
      "name": "ApprovalCallerNotOwnerNorApproved",
      "type": "error"
    },
    {
      "inputs": [],
      "name": "ApprovalQueryForNonexistentToken",
      "type": "error"
    },
    {
      "inputs": [],
      "name": "ApprovalToCurrentOwner",
      "type": "error"
    },
    {
      "inputs": [],
      "name": "ApproveToCaller",
      "type": "error"
    },
    {
      "inputs": [],
      "name": "BalanceQueryForZeroAddress",
      "type": "error"
    },
    {
      "inputs": [],
      "name": "OwnerIndexOutOfBounds",
      "type": "error"
    },
    {
      "inputs": [],
      "name": "OwnerQueryForNonexistentToken",
      "type": "error"
    },
    {
      "inputs": [],
      "name": "TokenIndexOutOfBounds",
      "type": "error"
    },
    {
      "inputs": [],
      "name": "TransferCallerNotOwnerNorApproved",
      "type": "error"
    },
    {
      "inputs": [],
      "name": "TransferFromIncorrectOwner",
      "type": "error"
    },
    {
      "inputs": [],
      "name": "TransferToNonERC721ReceiverImplementer",
      "type": "error"
    },
    {
      "inputs": [],
      "name": "TransferToZeroAddress",
      "type": "error"
    },
    {
      "inputs": [],
      "name": "URIQueryForNonexistentToken",
      "type": "error"
    },
    {
      "anonymous": false,
      "inputs": [
        {
          "indexed": true,
          "internalType": "address",
          "name": "owner",
          "type": "address"
        },
        {
          "indexed": true,
          "internalType": "address",
          "name": "approved",
          "type": "address"
        },
        {
          "indexed": true,
          "internalType": "uint256",
          "name": "tokenId",
          "type": "uint256"
        }
      ],
      "name": "Approval",
      "type": "event"
    },
    {
      "anonymous": false,
      "inputs": [
        {
          "indexed": true,
          "internalType": "address",
          "name": "owner",
          "type": "address"
        },
        {
          "indexed": true,
          "internalType": "address",
          "name": "operator",
          "type": "address"
        },
        {
          "indexed": false,
          "internalType": "bool",
          "name": "approved",
          "type": "bool"
        }
      ],
      "name": "ApprovalForAll",
      "type": "event"
    },
    {
      "anonymous": false,
      "inputs": [
        {
          "indexed": true,
          "internalType": "address",
          "name": "previousOwner",
          "type": "address"
        },
        {
          "indexed": true,
          "internalType": "address",
          "name": "newOwner",
          "type": "address"
        }
      ],
      "name": "OwnershipTransferred",
      "type": "event"
    },
    {
      "anonymous": false,
      "inputs": [
        {
          "indexed": false,
          "internalType": "address",
          "name": "account",
          "type": "address"
        }
      ],
      "name": "Paused",
      "type": "event"
    },
    {
      "anonymous": false,
      "inputs": [
        {
          "indexed": true,
          "internalType": "address",
          "name": "from",
          "type": "address"
        },
        {
          "indexed": true,
          "internalType": "address",
          "name": "to",
          "type": "address"
        },
        {
          "indexed": true,
          "internalType": "uint256",
          "name": "tokenId",
          "type": "uint256"
        }
      ],
      "name": "Transfer",
      "type": "event"
    },
    {
      "anonymous": false,
      "inputs": [
        {
          "indexed": false,
          "internalType": "address",
          "name": "account",
          "type": "address"
        }
      ],
      "name": "Unpaused",
      "type": "event"
    },
    {
      "inputs": [
        {
          "internalType": "address",
          "name": "to",
          "type": "address"
        },
        {
          "internalType": "uint256",
          "name": "tokenId",
          "type": "uint256"
        }
      ],
      "name": "approve",
      "outputs": [],
      "stateMutability": "nonpayable",
      "type": "function"
    },
    {
      "inputs": [
        {
          "internalType": "address",
          "name": "owner",
          "type": "address"
        }
      ],
      "name": "balanceOf",
      "outputs": [
        {
          "internalType": "uint256",
          "name": "",
          "type": "uint256"
        }
      ],
      "stateMutability": "view",
      "type": "function"
    },
    {
      "inputs": [
        {
          "internalType": "uint256",
          "name": "tokenId",
          "type": "uint256"
        }
      ],
      "name": "getApproved",
      "outputs": [
        {
          "internalType": "address",
          "name": "",
          "type": "address"
        }
      ],
      "stateMutability": "view",
      "type": "function"
    },
    {
      "inputs": [
        {
          "internalType": "address",
          "name": "_owner",
          "type": "address"
        },
        {
          "internalType": "address",
          "name": "_operator",
          "type": "address"
        }
      ],
      "name": "isApprovedForAll",
      "outputs": [
        {
          "internalType": "bool",
          "name": "isOperator",
          "type": "bool"
        }
      ],
      "stateMutability": "view",
      "type": "function"
    },
    {
      "inputs": [],
      "name": "name",
      "outputs": [
        {
          "internalType": "string",
          "name": "",
          "type": "string"
        }
      ],
      "stateMutability": "view",
      "type": "function"
    },
    {
      "inputs": [],
      "name": "owner",
      "outputs": [
        {
          "internalType": "address",
          "name": "",
          "type": "address"
        }
      ],
      "stateMutability": "view",
      "type": "function"
    },
    {
      "inputs": [
        {
          "internalType": "uint256",
          "name": "tokenId",
          "type": "uint256"
        }
      ],
      "name": "ownerOf",
      "outputs": [
        {
          "internalType": "address",
          "name": "",
          "type": "address"
        }
      ],
      "stateMutability": "view",
      "type": "function"
    },
    {
      "inputs": [],
      "name": "pause",
      "outputs": [],
      "stateMutability": "nonpayable",
      "type": "function"
    },
    {
      "inputs": [],
      "name": "paused",
      "outputs": [
        {
          "internalType": "bool",
          "name": "",
          "type": "bool"
        }
      ],
      "stateMutability": "view",
      "type": "function"
    },
    {
      "inputs": [],
      "name": "renounceOwnership",
      "outputs": [],
      "stateMutability": "nonpayable",
      "type": "function"
    },
    {
      "inputs": [
        {
          "internalType": "address",
          "name": "from",
          "type": "address"
        },
        {
          "internalType": "address",
          "name": "to",
          "type": "address"
        },
        {
          "internalType": "uint256",
          "name": "tokenId",
          "type": "uint256"
        }
      ],
      "name": "safeTransferFrom",
      "outputs": [],
      "stateMutability": "nonpayable",
      "type": "function"
    },
    {
      "inputs": [
        {
          "internalType": "address",
          "name": "from",
          "type": "address"
        },
        {
          "internalType": "address",
          "name": "to",
          "type": "address"
        },
        {
          "internalType": "uint256",
          "name": "tokenId",
          "type": "uint256"
        },
        {
          "internalType": "bytes",
          "name": "_data",
          "type": "bytes"
        }
      ],
      "name": "safeTransferFrom",
      "outputs": [],
      "stateMutability": "nonpayable",
      "type": "function"
    },
    {
      "inputs": [
        {
          "internalType": "address",
          "name": "operator",
          "type": "address"
        },
        {
          "internalType": "bool",
          "name": "approved",
          "type": "bool"
        }
      ],
      "name": "setApprovalForAll",
      "outputs": [],
      "stateMutability": "nonpayable",
      "type": "function"
    },
    {
      "inputs": [
        {
          "internalType": "bytes4",
          "name": "interfaceId",
          "type": "bytes4"
        }
      ],
      "name": "supportsInterface",
      "outputs": [
        {
          "internalType": "bool",
          "name": "",
          "type": "bool"
        }
      ],
      "stateMutability": "view",
      "type": "function"
    },
    {
      "inputs": [],
      "name": "symbol",
      "outputs": [
        {
          "internalType": "string",
          "name": "",
          "type": "string"
        }
      ],
      "stateMutability": "view",
      "type": "function"
    },
    {
      "inputs": [
        {
          "internalType": "uint256",
          "name": "index",
          "type": "uint256"
        }
      ],
      "name": "tokenByIndex",
      "outputs": [
        {
          "internalType": "uint256",
          "name": "",
          "type": "uint256"
        }
      ],
      "stateMutability": "view",
      "type": "function"
    },
    {
      "inputs": [
        {
          "internalType": "address",
          "name": "owner",
          "type": "address"
        },
        {
          "internalType": "uint256",
          "name": "index",
          "type": "uint256"
        }
      ],
      "name": "tokenOfOwnerByIndex",
      "outputs": [
        {
          "internalType": "uint256",
          "name": "",
          "type": "uint256"
        }
      ],
      "stateMutability": "view",
      "type": "function"
    },
    {
      "inputs": [
        {
          "internalType": "uint256",
          "name": "tokenId",
          "type": "uint256"
        }
      ],
      "name": "tokenURI",
      "outputs": [
        {
          "internalType": "string",
          "name": "",
          "type": "string"
        }
      ],
      "stateMutability": "view",
      "type": "function"
    },
    {
      "inputs": [],
      "name": "totalSupply",
      "outputs": [
        {
          "internalType": "uint256",
          "name": "",
          "type": "uint256"
        }
      ],
      "stateMutability": "view",
      "type": "function"
    },
    {
      "inputs": [
        {
          "internalType": "address",
          "name": "from",
          "type": "address"
        },
        {
          "internalType": "address",
          "name": "to",
          "type": "address"
        },
        {
          "internalType": "uint256",
          "name": "tokenId",
          "type": "uint256"
        }
      ],
      "name": "transferFrom",
      "outputs": [],
      "stateMutability": "nonpayable",
      "type": "function"
    },
    {
      "inputs": [
        {
          "internalType": "address",
          "name": "newOwner",
          "type": "address"
        }
      ],
      "name": "transferOwnership",
      "outputs": [],
      "stateMutability": "nonpayable",
      "type": "function"
    },
    {
      "inputs": [],
      "name": "unpause",
      "outputs": [],
      "stateMutability": "nonpayable",
      "type": "function"
    }
  ],
  "bytecode": "0x60806040523480156200001157600080fd5b5060405162001a3b38038062001a3b833981016040819052620000349162000244565b8151829082906200004d906001906020850190620000eb565b50805162000063906002906020840190620000eb565b505050620000806200007a6200009560201b60201c565b62000099565b50506007805460ff60a01b19169055620002fe565b3390565b600780546001600160a01b038381166001600160a01b0319831681179093556040519116919082907f8be0079c531659141344cd1fd0a4f28419497f9722a3daafe3b4186f6b6457e090600090a35050565b828054620000f990620002ab565b90600052602060002090601f0160209004810192826200011d576000855562000168565b82601f106200013857805160ff191683800117855562000168565b8280016001018555821562000168579182015b82811115620001685782518255916020019190600101906200014b565b50620001769291506200017a565b5090565b5b808211156200017657600081556001016200017b565b600082601f830112620001a2578081fd5b81516001600160401b0380821115620001bf57620001bf620002e8565b604051601f8301601f19908116603f01168101908282118183101715620001ea57620001ea620002e8565b8160405283815260209250868385880101111562000206578485fd5b8491505b838210156200022957858201830151818301840152908201906200020a565b838211156200023a57848385830101525b9695505050505050565b6000806040838503121562000257578182fd5b82516001600160401b03808211156200026e578384fd5b6200027c8683870162000191565b9350602085015191508082111562000292578283fd5b50620002a18582860162000191565b9150509250929050565b600181811c90821680620002c057607f821691505b60208210811415620002e257634e487b7160e01b600052602260045260246000fd5b50919050565b634e487b7160e01b600052604160045260246000fd5b61172d806200030e6000396000f3fe608060405234801561001057600080fd5b50600436106101625760003560e01c80636352211e116100c857806395d89b411161008c578063c87b56dd11610066578063c87b56dd146102ef578063e985e9c514610302578063f2fde38b1461031557600080fd5b806395d89b41146102c1578063a22cb465146102c9578063b88d4fde146102dc57600080fd5b80636352211e1461027a57806370a082311461028d578063715018a6146102a05780638456cb59146102a85780638da5cb5b146102b057600080fd5b806323b872dd1161012a57806342842e0e1161010457806342842e0e146102425780634f6ccce7146102555780635c975abb1461026857600080fd5b806323b872dd146102145780632f745c59146102275780633f4ba83a1461023a57600080fd5b806301ffc9a71461016757806306fdde031461018f578063081812fc146101a4578063095ea7b3146101cf57806318160ddd146101e4575b600080fd5b61017a6101753660046114cc565b610328565b60405190151581526020015b60405180910390f35b610197610339565b60405161018691906115b3565b6101b76101b2366004611504565b6103cb565b6040516001600160a01b039091168152602001610186565b6101e26101dd3660046114a3565b61040f565b005b6102066000546001600160801b03600160801b82048116918116919091031690565b604051908152602001610186565b6101e2610222366004611359565b61049d565b6102066102353660046114a3565b6104a8565b6101e26105a5565b6101e2610250366004611359565b61060e565b610206610263366004611504565b610629565b600754600160a01b900460ff1661017a565b6101b7610288366004611504565b6106d4565b61020661029b36600461130d565b6106e6565b6101e2610735565b6101e2610799565b6007546001600160a01b03166101b7565b6101976107fb565b6101e26102d7366004611469565b61080a565b6101e26102ea366004611394565b6108a0565b6101976102fd366004611504565b6108da565b61017a610310366004611327565b61096c565b6101e261032336600461130d565b6109c9565b600061033382610a94565b92915050565b60606001805461034890611635565b80601f016020809104026020016040519081016040528092919081815260200182805461037490611635565b80156103c15780601f10610396576101008083540402835291602001916103c1565b820191906000526020600020905b8154815290600101906020018083116103a457829003601f168201915b5050505050905090565b60006103d682610aff565b6103f3576040516333d1c03960e21b815260040160405180910390fd5b506000908152600560205260409020546001600160a01b031690565b600061041a826106d4565b9050806001600160a01b0316836001600160a01b0316141561044f5760405163250fdee360e21b815260040160405180910390fd5b336001600160a01b0382161480159061046f575061046d813361096c565b155b1561048d576040516367d9dca160e11b815260040160405180910390fd5b610498838383610b33565b505050565b610498838383610b8f565b60006104b3836106e6565b82106104d2576040516306ed618760e11b815260040160405180910390fd5b600080546001600160801b03169080805b8381101561059f57600081815260036020908152604091829020825160608101845290546001600160a01b0381168252600160a01b810467ffffffffffffffff1692820192909252600160e01b90910460ff16158015928201929092529061054b5750610597565b80516001600160a01b03161561056057805192505b876001600160a01b0316836001600160a01b03161415610595578684141561058e5750935061033392505050565b6001909301925b505b6001016104e3565b50600080fd5b6007546001600160a01b031633146106045760405162461bcd60e51b815260206004820181905260248201527f4f776e61626c653a2063616c6c6572206973206e6f7420746865206f776e657260448201526064015b60405180910390fd5b61060c610dba565b565b610498838383604051806020016040528060008152506108a0565b600080546001600160801b031681805b828110156106ba57600081815260036020908152604091829020825160608101845290546001600160a01b0381168252600160a01b810467ffffffffffffffff1692820192909252600160e01b90910460ff161515918101829052906106b157858314156106aa5750949350505050565b6001909201915b50600101610639565b506040516329c8c00760e21b815260040160405180910390fd5b60006106df82610e60565b5192915050565b60006001600160a01b03821661070f576040516323d3ad8160e21b815260040160405180910390fd5b506001600160a01b031660009081526004602052604090205467ffffffffffffffff1690565b6007546001600160a01b0316331461078f5760405162461bcd60e51b815260206004820181905260248201527f4f776e61626c653a2063616c6c6572206973206e6f7420746865206f776e657260448201526064016105fb565b61060c6000610f84565b6007546001600160a01b031633146107f35760405162461bcd60e51b815260206004820181905260248201527f4f776e61626c653a2063616c6c6572206973206e6f7420746865206f776e657260448201526064016105fb565b61060c610fd6565b60606002805461034890611635565b6001600160a01b0382163314156108345760405163b06307db60e01b815260040160405180910390fd5b3360008181526006602090815260408083206001600160a01b03871680855290835292819020805460ff191686151590811790915590519081529192917f17307eab39ab6107e8899845ad3d59bd9653f200f220920489ca2b5937696c31910160405180910390a35050565b6108ab848484610b8f565b6108b78484848461105e565b6108d4576040516368d2bf6b60e11b815260040160405180910390fd5b50505050565b60606108e582610aff565b61090257604051630a14c4b560e41b815260040160405180910390fd5b600061091960408051602081019091526000815290565b905080516000141561093a5760405180602001604052806000815250610965565b806109448461116d565b604051602001610955929190611548565b6040516020818303038152906040525b9392505050565b60006001600160a01b0382167358807bad0b376efc12f5ad86aac70e78ed67deae141561099b57506001610333565b6001600160a01b0380841660009081526006602090815260408083209386168352929052205460ff16610965565b6007546001600160a01b03163314610a235760405162461bcd60e51b815260206004820181905260248201527f4f776e61626c653a2063616c6c6572206973206e6f7420746865206f776e657260448201526064016105fb565b6001600160a01b038116610a885760405162461bcd60e51b815260206004820152602660248201527f4f776e61626c653a206e6577206f776e657220697320746865207a65726f206160448201526564647265737360d01b60648201526084016105fb565b610a9181610f84565b50565b60006001600160e01b031982166380ac58cd60e01b1480610ac557506001600160e01b03198216635b5e139f60e01b145b80610ae057506001600160e01b0319821663780e9d6360e01b145b8061033357506301ffc9a760e01b6001600160e01b0319831614610333565b600080546001600160801b031682108015610333575050600090815260036020526040902054600160e01b900460ff161590565b60008281526005602052604080822080546001600160a01b0319166001600160a01b0387811691821790925591518593918516917f8c5be1e5ebec7d5bd14f71427d1e84f3dd0314c0f7b2291e5b200ac8c7c3b92591a4505050565b6000610b9a82610e60565b80519091506000906001600160a01b0316336001600160a01b03161480610bc857508151610bc8903361096c565b80610be3575033610bd8846103cb565b6001600160a01b0316145b905080610c0357604051632ce44b5f60e11b815260040160405180910390fd5b846001600160a01b031682600001516001600160a01b031614610c385760405162a1148160e81b815260040160405180910390fd5b6001600160a01b038416610c5f57604051633a954ecd60e21b815260040160405180910390fd5b610c6c858585600161129f565b610c7c6000848460000151610b33565b6001600160a01b038581166000908152600460209081526040808320805467ffffffffffffffff1980821667ffffffffffffffff92831660001901831617909255898616808652838620805493841693831660019081018416949094179055898652600390945282852080546001600160e01b031916909417600160a01b429092169190910217909255908601808352912054909116610d71576000546001600160801b0316811015610d71578251600082815260036020908152604090912080549186015167ffffffffffffffff16600160a01b026001600160e01b03199092166001600160a01b03909316929092171790555b5082846001600160a01b0316866001600160a01b03167fddf252ad1be2c89b69c2b068fc378daa952ba7f163c4a11628f55a4df523b3ef60405160405180910390a45050505050565b600754600160a01b900460ff16610e135760405162461bcd60e51b815260206004820152601460248201527f5061757361626c653a206e6f742070617573656400000000000000000000000060448201526064016105fb565b6007805460ff60a01b191690557f5db9ee0a495bf2e6ff9c91a7834c1ba4fdd244a5e8aa4e537bd38aeae4b073aa335b6040516001600160a01b03909116815260200160405180910390a1565b60408051606081018252600080825260208201819052918101829052905482906001600160801b0316811015610f6b57600081815260036020908152604091829020825160608101845290546001600160a01b0381168252600160a01b810467ffffffffffffffff1692820192909252600160e01b90910460ff16151591810182905290610f695780516001600160a01b031615610eff579392505050565b5060001901600081815260036020908152604091829020825160608101845290546001600160a01b038116808352600160a01b820467ffffffffffffffff1693830193909352600160e01b900460ff1615159281019290925215610f64579392505050565b610eff565b505b604051636f96cda160e11b815260040160405180910390fd5b600780546001600160a01b038381166001600160a01b0319831681179093556040519116919082907f8be0079c531659141344cd1fd0a4f28419497f9722a3daafe3b4186f6b6457e090600090a35050565b600754600160a01b900460ff16156110235760405162461bcd60e51b815260206004820152601060248201526f14185d5cd8589b194e881c185d5cd95960821b60448201526064016105fb565b6007805460ff60a01b1916600160a01b1790557f62e78cea01bee320cd4e420270b5ea74000d11b0c9f74754ebdbfc544b05a258610e433390565b60006001600160a01b0384163b1561116157604051630a85bd0160e11b81526001600160a01b0385169063150b7a02906110a2903390899088908890600401611577565b602060405180830381600087803b1580156110bc57600080fd5b505af19250505080156110ec575060408051601f3d908101601f191682019092526110e9918101906114e8565b60015b611147573d80801561111a576040519150601f19603f3d011682016040523d82523d6000602084013e61111f565b606091505b50805161113f576040516368d2bf6b60e11b815260040160405180910390fd5b805181602001fd5b6001600160e01b031916630a85bd0160e11b149050611165565b5060015b949350505050565b6060816111915750506040805180820190915260018152600360fc1b602082015290565b8160005b81156111bb57806111a581611670565b91506111b49050600a836115de565b9150611195565b60008167ffffffffffffffff8111156111e457634e487b7160e01b600052604160045260246000fd5b6040519080825280601f01601f19166020018201604052801561120e576020820181803683370190505b5090505b8415611165576112236001836115f2565b9150611230600a8661168b565b61123b9060306115c6565b60f81b81838151811061125e57634e487b7160e01b600052603260045260246000fd5b60200101907effffffffffffffffffffffffffffffffffffffffffffffffffffffffffffff1916908160001a905350611298600a866115de565b9450611212565b600754600160a01b900460ff16156112ec5760405162461bcd60e51b815260206004820152601060248201526f14185d5cd8589b194e881c185d5cd95960821b60448201526064016105fb565b6108d4565b80356001600160a01b038116811461130857600080fd5b919050565b60006020828403121561131e578081fd5b610965826112f1565b60008060408385031215611339578081fd5b611342836112f1565b9150611350602084016112f1565b90509250929050565b60008060006060848603121561136d578081fd5b611376846112f1565b9250611384602085016112f1565b9150604084013590509250925092565b600080600080608085870312156113a9578081fd5b6113b2856112f1565b93506113c0602086016112f1565b925060408501359150606085013567ffffffffffffffff808211156113e3578283fd5b818701915087601f8301126113f6578283fd5b813581811115611408576114086116cb565b604051601f8201601f19908116603f01168101908382118183101715611430576114306116cb565b816040528281528a6020848701011115611448578586fd5b82602086016020830137918201602001949094529598949750929550505050565b6000806040838503121561147b578182fd5b611484836112f1565b915060208301358015158114611498578182fd5b809150509250929050565b600080604083850312156114b5578182fd5b6114be836112f1565b946020939093013593505050565b6000602082840312156114dd578081fd5b8135610965816116e1565b6000602082840312156114f9578081fd5b8151610965816116e1565b600060208284031215611515578081fd5b5035919050565b60008151808452611534816020860160208601611609565b601f01601f19169290920160200192915050565b6000835161155a818460208801611609565b83519083019061156e818360208801611609565b01949350505050565b60006001600160a01b038087168352808616602084015250836040830152608060608301526115a9608083018461151c565b9695505050505050565b602081526000610965602083018461151c565b600082198211156115d9576115d961169f565b500190565b6000826115ed576115ed6116b5565b500490565b6000828210156116045761160461169f565b500390565b60005b8381101561162457818101518382015260200161160c565b838111156108d45750506000910152565b600181811c9082168061164957607f821691505b6020821081141561166a57634e487b7160e01b600052602260045260246000fd5b50919050565b60006000198214156116845761168461169f565b5060010190565b60008261169a5761169a6116b5565b500690565b634e487b7160e01b600052601160045260246000fd5b634e487b7160e01b600052601260045260246000fd5b634e487b7160e01b600052604160045260246000fd5b6001600160e01b031981168114610a9157600080fdfea2646970667358221220b62f8736fcad0a2d8bee21be46480982b80b29610b5eb186cdcd9a57d092158464736f6c63430008040033",
  "linkReferences": {},
  "deployedLinkReferences": {}
}