{
  "_format": "hh-sol-artifact-1",
  "contractName": "DynaTokenBase",
  "sourceName": "contracts/DynaTokenBase.sol",
  "abi": [
    {
      "inputs": [
        {
          "internalType": "string",
          "name": "name_",
          "type": "string"
        },
        {
          "internalType": "string",
          "name": "symbol_",
          "type": "string"
        }
      ],
      "stateMutability": "nonpayable",
      "type": "constructor"
    },
    {
      "anonymous": false,
      "inputs": [
        {
          "indexed": true,
          "internalType": "address",
          "name": "owner",
          "type": "address"
        },
        {
          "indexed": true,
          "internalType": "address",
          "name": "approved",
          "type": "address"
        },
        {
          "indexed": true,
          "internalType": "uint256",
          "name": "tokenId",
          "type": "uint256"
        }
      ],
      "name": "Approval",
      "type": "event"
    },
    {
      "anonymous": false,
      "inputs": [
        {
          "indexed": true,
          "internalType": "address",
          "name": "owner",
          "type": "address"
        },
        {
          "indexed": true,
          "internalType": "address",
          "name": "operator",
          "type": "address"
        },
        {
          "indexed": false,
          "internalType": "bool",
          "name": "approved",
          "type": "bool"
        }
      ],
      "name": "ApprovalForAll",
      "type": "event"
    },
    {
      "anonymous": false,
      "inputs": [
        {
          "indexed": true,
          "internalType": "address",
          "name": "previousOwner",
          "type": "address"
        },
        {
          "indexed": true,
          "internalType": "address",
          "name": "newOwner",
          "type": "address"
        }
      ],
      "name": "OwnershipTransferred",
      "type": "event"
    },
    {
      "anonymous": false,
      "inputs": [
        {
          "indexed": false,
          "internalType": "address",
          "name": "account",
          "type": "address"
        }
      ],
      "name": "Paused",
      "type": "event"
    },
    {
      "anonymous": false,
      "inputs": [
        {
          "indexed": true,
          "internalType": "address",
          "name": "from",
          "type": "address"
        },
        {
          "indexed": true,
          "internalType": "address",
          "name": "to",
          "type": "address"
        },
        {
          "indexed": true,
          "internalType": "uint256",
          "name": "tokenId",
          "type": "uint256"
        }
      ],
      "name": "Transfer",
      "type": "event"
    },
    {
      "anonymous": false,
      "inputs": [
        {
          "indexed": false,
          "internalType": "address",
          "name": "account",
          "type": "address"
        }
      ],
      "name": "Unpaused",
      "type": "event"
    },
    {
      "inputs": [
        {
          "internalType": "address",
          "name": "to",
          "type": "address"
        },
        {
          "internalType": "uint256",
          "name": "tokenId",
          "type": "uint256"
        }
      ],
      "name": "approve",
      "outputs": [],
      "stateMutability": "nonpayable",
      "type": "function"
    },
    {
      "inputs": [
        {
          "internalType": "address",
          "name": "owner",
          "type": "address"
        }
      ],
      "name": "balanceOf",
      "outputs": [
        {
          "internalType": "uint256",
          "name": "",
          "type": "uint256"
        }
      ],
      "stateMutability": "view",
      "type": "function"
    },
    {
      "inputs": [
        {
          "internalType": "uint256",
          "name": "tokenId",
          "type": "uint256"
        }
      ],
      "name": "burn",
      "outputs": [],
      "stateMutability": "nonpayable",
      "type": "function"
    },
    {
      "inputs": [
        {
          "internalType": "uint256",
          "name": "tokenId",
          "type": "uint256"
        }
      ],
      "name": "getApproved",
      "outputs": [
        {
          "internalType": "address",
          "name": "",
          "type": "address"
        }
      ],
      "stateMutability": "view",
      "type": "function"
    },
    {
      "inputs": [
        {
          "internalType": "address",
          "name": "owner",
          "type": "address"
        },
        {
          "internalType": "address",
          "name": "operator",
          "type": "address"
        }
      ],
      "name": "isApprovedForAll",
      "outputs": [
        {
          "internalType": "bool",
          "name": "",
          "type": "bool"
        }
      ],
      "stateMutability": "view",
      "type": "function"
    },
    {
      "inputs": [],
      "name": "name",
      "outputs": [
        {
          "internalType": "string",
          "name": "",
          "type": "string"
        }
      ],
      "stateMutability": "view",
      "type": "function"
    },
    {
      "inputs": [],
      "name": "owner",
      "outputs": [
        {
          "internalType": "address",
          "name": "",
          "type": "address"
        }
      ],
      "stateMutability": "view",
      "type": "function"
    },
    {
      "inputs": [
        {
          "internalType": "uint256",
          "name": "tokenId",
          "type": "uint256"
        }
      ],
      "name": "ownerOf",
      "outputs": [
        {
          "internalType": "address",
          "name": "",
          "type": "address"
        }
      ],
      "stateMutability": "view",
      "type": "function"
    },
    {
      "inputs": [],
      "name": "pause",
      "outputs": [],
      "stateMutability": "nonpayable",
      "type": "function"
    },
    {
      "inputs": [],
      "name": "paused",
      "outputs": [
        {
          "internalType": "bool",
          "name": "",
          "type": "bool"
        }
      ],
      "stateMutability": "view",
      "type": "function"
    },
    {
      "inputs": [],
      "name": "renounceOwnership",
      "outputs": [],
      "stateMutability": "nonpayable",
      "type": "function"
    },
    {
      "inputs": [
        {
          "internalType": "address",
          "name": "to",
          "type": "address"
        }
      ],
      "name": "safeMint",
      "outputs": [],
      "stateMutability": "nonpayable",
      "type": "function"
    },
    {
      "inputs": [
        {
          "internalType": "address",
          "name": "from",
          "type": "address"
        },
        {
          "internalType": "address",
          "name": "to",
          "type": "address"
        },
        {
          "internalType": "uint256",
          "name": "tokenId",
          "type": "uint256"
        }
      ],
      "name": "safeTransferFrom",
      "outputs": [],
      "stateMutability": "nonpayable",
      "type": "function"
    },
    {
      "inputs": [
        {
          "internalType": "address",
          "name": "from",
          "type": "address"
        },
        {
          "internalType": "address",
          "name": "to",
          "type": "address"
        },
        {
          "internalType": "uint256",
          "name": "tokenId",
          "type": "uint256"
        },
        {
          "internalType": "bytes",
          "name": "_data",
          "type": "bytes"
        }
      ],
      "name": "safeTransferFrom",
      "outputs": [],
      "stateMutability": "nonpayable",
      "type": "function"
    },
    {
      "inputs": [
        {
          "internalType": "address",
          "name": "operator",
          "type": "address"
        },
        {
          "internalType": "bool",
          "name": "approved",
          "type": "bool"
        }
      ],
      "name": "setApprovalForAll",
      "outputs": [],
      "stateMutability": "nonpayable",
      "type": "function"
    },
    {
      "inputs": [
        {
          "internalType": "bytes4",
          "name": "interfaceId",
          "type": "bytes4"
        }
      ],
      "name": "supportsInterface",
      "outputs": [
        {
          "internalType": "bool",
          "name": "",
          "type": "bool"
        }
      ],
      "stateMutability": "view",
      "type": "function"
    },
    {
      "inputs": [],
      "name": "symbol",
      "outputs": [
        {
          "internalType": "string",
          "name": "",
          "type": "string"
        }
      ],
      "stateMutability": "view",
      "type": "function"
    },
    {
      "inputs": [
        {
          "internalType": "uint256",
          "name": "index",
          "type": "uint256"
        }
      ],
      "name": "tokenByIndex",
      "outputs": [
        {
          "internalType": "uint256",
          "name": "",
          "type": "uint256"
        }
      ],
      "stateMutability": "view",
      "type": "function"
    },
    {
      "inputs": [
        {
          "internalType": "address",
          "name": "owner",
          "type": "address"
        },
        {
          "internalType": "uint256",
          "name": "index",
          "type": "uint256"
        }
      ],
      "name": "tokenOfOwnerByIndex",
      "outputs": [
        {
          "internalType": "uint256",
          "name": "",
          "type": "uint256"
        }
      ],
      "stateMutability": "view",
      "type": "function"
    },
    {
      "inputs": [
        {
          "internalType": "uint256",
          "name": "tokenId",
          "type": "uint256"
        }
      ],
      "name": "tokenURI",
      "outputs": [
        {
          "internalType": "string",
          "name": "",
          "type": "string"
        }
      ],
      "stateMutability": "view",
      "type": "function"
    },
    {
      "inputs": [],
      "name": "totalSupply",
      "outputs": [
        {
          "internalType": "uint256",
          "name": "",
          "type": "uint256"
        }
      ],
      "stateMutability": "view",
      "type": "function"
    },
    {
      "inputs": [
        {
          "internalType": "address",
          "name": "from",
          "type": "address"
        },
        {
          "internalType": "address",
          "name": "to",
          "type": "address"
        },
        {
          "internalType": "uint256",
          "name": "tokenId",
          "type": "uint256"
        }
      ],
      "name": "transferFrom",
      "outputs": [],
      "stateMutability": "nonpayable",
      "type": "function"
    },
    {
      "inputs": [
        {
          "internalType": "address",
          "name": "newOwner",
          "type": "address"
        }
      ],
      "name": "transferOwnership",
      "outputs": [],
      "stateMutability": "nonpayable",
      "type": "function"
    },
    {
      "inputs": [],
      "name": "unpause",
      "outputs": [],
      "stateMutability": "nonpayable",
      "type": "function"
    }
  ],
  "bytecode": "0x60806040523480156200001157600080fd5b506040516200243e3803806200243e833981016040819052620000349162000236565b8151829082906200004d906000906020850190620000dd565b50805162000063906001906020840190620000dd565b5050600a805460ff19169055506200007b3362000083565b5050620002f0565b600a80546001600160a01b03838116610100818102610100600160a81b031985161790945560405193909204169182907f8be0079c531659141344cd1fd0a4f28419497f9722a3daafe3b4186f6b6457e090600090a35050565b828054620000eb906200029d565b90600052602060002090601f0160209004810192826200010f57600085556200015a565b82601f106200012a57805160ff19168380011785556200015a565b828001600101855582156200015a579182015b828111156200015a5782518255916020019190600101906200013d565b50620001689291506200016c565b5090565b5b808211156200016857600081556001016200016d565b600082601f83011262000194578081fd5b81516001600160401b0380821115620001b157620001b1620002da565b604051601f8301601f19908116603f01168101908282118183101715620001dc57620001dc620002da565b81604052838152602092508683858801011115620001f8578485fd5b8491505b838210156200021b5785820183015181830184015290820190620001fc565b838211156200022c57848385830101525b9695505050505050565b6000806040838503121562000249578182fd5b82516001600160401b038082111562000260578384fd5b6200026e8683870162000183565b9350602085015191508082111562000284578283fd5b50620002938582860162000183565b9150509250929050565b600181811c90821680620002b257607f821691505b60208210811415620002d457634e487b7160e01b600052602260045260246000fd5b50919050565b634e487b7160e01b600052604160045260246000fd5b61213e80620003006000396000f3fe608060405234801561001057600080fd5b50600436106101985760003560e01c80635c975abb116100e357806395d89b411161008c578063c87b56dd11610066578063c87b56dd1461032b578063e985e9c51461033e578063f2fde38b1461037a57600080fd5b806395d89b41146102fd578063a22cb46514610305578063b88d4fde1461031857600080fd5b8063715018a6116100bd578063715018a6146102d75780638456cb59146102df5780638da5cb5b146102e757600080fd5b80635c975abb146102a65780636352211e146102b157806370a08231146102c457600080fd5b80632f745c591161014557806342842e0e1161011f57806342842e0e1461026d57806342966c68146102805780634f6ccce71461029357600080fd5b80632f745c591461023f5780633f4ba83a1461025257806340d097c31461025a57600080fd5b8063095ea7b311610176578063095ea7b31461020557806318160ddd1461021a57806323b872dd1461022c57600080fd5b806301ffc9a71461019d57806306fdde03146101c5578063081812fc146101da575b600080fd5b6101b06101ab366004611edd565b61038d565b60405190151581526020015b60405180910390f35b6101cd61039e565b6040516101bc9190611fc4565b6101ed6101e8366004611f15565b610430565b6040516001600160a01b0390911681526020016101bc565b610218610213366004611eb4565b6104ca565b005b6008545b6040519081526020016101bc565b61021861023a366004611d6a565b6105fc565b61021e61024d366004611eb4565b610684565b61021861072c565b610218610268366004611d1e565b610796565b61021861027b366004611d6a565b610819565b61021861028e366004611f15565b610834565b61021e6102a1366004611f15565b6108b8565b600a5460ff166101b0565b6101ed6102bf366004611f15565b61096a565b61021e6102d2366004611d1e565b6109f5565b610218610a8f565b610218610af9565b600a5461010090046001600160a01b03166101ed565b6101cd610b61565b610218610313366004611e7a565b610b70565b610218610326366004611da5565b610c35565b6101cd610339366004611f15565b610cc3565b6101b061034c366004611d38565b6001600160a01b03918216600090815260056020908152604080832093909416825291909152205460ff1690565b610218610388366004611d1e565b610db9565b600061039882610e9e565b92915050565b6060600080546103ad90612046565b80601f01602080910402602001604051908101604052809291908181526020018280546103d990612046565b80156104265780601f106103fb57610100808354040283529160200191610426565b820191906000526020600020905b81548152906001019060200180831161040957829003601f168201915b5050505050905090565b6000818152600260205260408120546001600160a01b03166104ae5760405162461bcd60e51b815260206004820152602c60248201527f4552433732313a20617070726f76656420717565727920666f72206e6f6e657860448201526b34b9ba32b73a103a37b5b2b760a11b60648201526084015b60405180910390fd5b506000908152600460205260409020546001600160a01b031690565b60006104d58261096a565b9050806001600160a01b0316836001600160a01b0316141561055f5760405162461bcd60e51b815260206004820152602160248201527f4552433732313a20617070726f76616c20746f2063757272656e74206f776e6560448201527f720000000000000000000000000000000000000000000000000000000000000060648201526084016104a5565b336001600160a01b038216148061057b575061057b813361034c565b6105ed5760405162461bcd60e51b815260206004820152603860248201527f4552433732313a20617070726f76652063616c6c6572206973206e6f74206f7760448201527f6e6572206e6f7220617070726f76656420666f7220616c6c000000000000000060648201526084016104a5565b6105f78383610edc565b505050565b610607335b82610f57565b6106795760405162461bcd60e51b815260206004820152603160248201527f4552433732313a207472616e736665722063616c6c6572206973206e6f74206f60448201527f776e6572206e6f7220617070726f76656400000000000000000000000000000060648201526084016104a5565b6105f783838361104e565b600061068f836109f5565b82106107035760405162461bcd60e51b815260206004820152602b60248201527f455243373231456e756d657261626c653a206f776e657220696e646578206f7560448201527f74206f6620626f756e647300000000000000000000000000000000000000000060648201526084016104a5565b506001600160a01b03919091166000908152600660209081526040808320938352929052205490565b600a546001600160a01b0361010090910416331461078c5760405162461bcd60e51b815260206004820181905260248201527f4f776e61626c653a2063616c6c6572206973206e6f7420746865206f776e657260448201526064016104a5565b610794611233565b565b600a546001600160a01b036101009091041633146107f65760405162461bcd60e51b815260206004820181905260248201527f4f776e61626c653a2063616c6c6572206973206e6f7420746865206f776e657260448201526064016104a5565b61080881610803600b5490565b6112cf565b610816600b80546001019055565b50565b6105f783838360405180602001604052806000815250610c35565b61083d33610601565b6108af5760405162461bcd60e51b815260206004820152603060248201527f4552433732314275726e61626c653a2063616c6c6572206973206e6f74206f7760448201527f6e6572206e6f7220617070726f7665640000000000000000000000000000000060648201526084016104a5565b610816816112ed565b60006108c360085490565b82106109375760405162461bcd60e51b815260206004820152602c60248201527f455243373231456e756d657261626c653a20676c6f62616c20696e646578206f60448201527f7574206f6620626f756e6473000000000000000000000000000000000000000060648201526084016104a5565b6008828154811061095857634e487b7160e01b600052603260045260246000fd5b90600052602060002001549050919050565b6000818152600260205260408120546001600160a01b0316806103985760405162461bcd60e51b815260206004820152602960248201527f4552433732313a206f776e657220717565727920666f72206e6f6e657869737460448201527f656e7420746f6b656e000000000000000000000000000000000000000000000060648201526084016104a5565b60006001600160a01b038216610a735760405162461bcd60e51b815260206004820152602a60248201527f4552433732313a2062616c616e636520717565727920666f7220746865207a6560448201527f726f20616464726573730000000000000000000000000000000000000000000060648201526084016104a5565b506001600160a01b031660009081526003602052604090205490565b600a546001600160a01b03610100909104163314610aef5760405162461bcd60e51b815260206004820181905260248201527f4f776e61626c653a2063616c6c6572206973206e6f7420746865206f776e657260448201526064016104a5565b61079460006113a1565b600a546001600160a01b03610100909104163314610b595760405162461bcd60e51b815260206004820181905260248201527f4f776e61626c653a2063616c6c6572206973206e6f7420746865206f776e657260448201526064016104a5565b610794611412565b6060600180546103ad90612046565b6001600160a01b038216331415610bc95760405162461bcd60e51b815260206004820152601960248201527f4552433732313a20617070726f766520746f2063616c6c65720000000000000060448201526064016104a5565b3360008181526005602090815260408083206001600160a01b03871680855290835292819020805460ff191686151590811790915590519081529192917f17307eab39ab6107e8899845ad3d59bd9653f200f220920489ca2b5937696c31910160405180910390a35050565b610c3f3383610f57565b610cb15760405162461bcd60e51b815260206004820152603160248201527f4552433732313a207472616e736665722063616c6c6572206973206e6f74206f60448201527f776e6572206e6f7220617070726f76656400000000000000000000000000000060648201526084016104a5565b610cbd8484848461149a565b50505050565b6000818152600260205260409020546060906001600160a01b0316610d505760405162461bcd60e51b815260206004820152602f60248201527f4552433732314d657461646174613a2055524920717565727920666f72206e6f60448201527f6e6578697374656e7420746f6b656e000000000000000000000000000000000060648201526084016104a5565b6000610d6760408051602081019091526000815290565b90506000815111610d875760405180602001604052806000815250610db2565b80610d9184611518565b604051602001610da2929190611f59565b6040516020818303038152906040525b9392505050565b600a546001600160a01b03610100909104163314610e195760405162461bcd60e51b815260206004820181905260248201527f4f776e61626c653a2063616c6c6572206973206e6f7420746865206f776e657260448201526064016104a5565b6001600160a01b038116610e955760405162461bcd60e51b815260206004820152602660248201527f4f776e61626c653a206e6577206f776e657220697320746865207a65726f206160448201527f646472657373000000000000000000000000000000000000000000000000000060648201526084016104a5565b610816816113a1565b60006001600160e01b031982167f780e9d63000000000000000000000000000000000000000000000000000000001480610398575061039882611666565b6000818152600460205260409020805473ffffffffffffffffffffffffffffffffffffffff19166001600160a01b0384169081179091558190610f1e8261096a565b6001600160a01b03167f8c5be1e5ebec7d5bd14f71427d1e84f3dd0314c0f7b2291e5b200ac8c7c3b92560405160405180910390a45050565b6000818152600260205260408120546001600160a01b0316610fd05760405162461bcd60e51b815260206004820152602c60248201527f4552433732313a206f70657261746f7220717565727920666f72206e6f6e657860448201526b34b9ba32b73a103a37b5b2b760a11b60648201526084016104a5565b6000610fdb8361096a565b9050806001600160a01b0316846001600160a01b031614806110165750836001600160a01b031661100b84610430565b6001600160a01b0316145b8061104657506001600160a01b0380821660009081526005602090815260408083209388168352929052205460ff165b949350505050565b826001600160a01b03166110618261096a565b6001600160a01b0316146110dd5760405162461bcd60e51b815260206004820152602960248201527f4552433732313a207472616e73666572206f6620746f6b656e2074686174206960448201527f73206e6f74206f776e000000000000000000000000000000000000000000000060648201526084016104a5565b6001600160a01b0382166111585760405162461bcd60e51b8152602060048201526024808201527f4552433732313a207472616e7366657220746f20746865207a65726f2061646460448201527f726573730000000000000000000000000000000000000000000000000000000060648201526084016104a5565b611163838383611701565b61116e600082610edc565b6001600160a01b0383166000908152600360205260408120805460019290611197908490612003565b90915550506001600160a01b03821660009081526003602052604081208054600192906111c5908490611fd7565b9091555050600081815260026020526040808220805473ffffffffffffffffffffffffffffffffffffffff19166001600160a01b0386811691821790925591518493918716917fddf252ad1be2c89b69c2b068fc378daa952ba7f163c4a11628f55a4df523b3ef91a4505050565b600a5460ff166112855760405162461bcd60e51b815260206004820152601460248201527f5061757361626c653a206e6f742070617573656400000000000000000000000060448201526064016104a5565b600a805460ff191690557f5db9ee0a495bf2e6ff9c91a7834c1ba4fdd244a5e8aa4e537bd38aeae4b073aa335b6040516001600160a01b03909116815260200160405180910390a1565b6112e982826040518060200160405280600081525061175f565b5050565b60006112f88261096a565b905061130681600084611701565b611311600083610edc565b6001600160a01b038116600090815260036020526040812080546001929061133a908490612003565b9091555050600082815260026020526040808220805473ffffffffffffffffffffffffffffffffffffffff19169055518391906001600160a01b038416907fddf252ad1be2c89b69c2b068fc378daa952ba7f163c4a11628f55a4df523b3ef908390a45050565b600a80546001600160a01b038381166101008181027fffffffffffffffffffffff0000000000000000000000000000000000000000ff85161790945560405193909204169182907f8be0079c531659141344cd1fd0a4f28419497f9722a3daafe3b4186f6b6457e090600090a35050565b600a5460ff16156114655760405162461bcd60e51b815260206004820152601060248201527f5061757361626c653a207061757365640000000000000000000000000000000060448201526064016104a5565b600a805460ff191660011790557f62e78cea01bee320cd4e420270b5ea74000d11b0c9f74754ebdbfc544b05a2586112b23390565b6114a584848461104e565b6114b1848484846117dd565b610cbd5760405162461bcd60e51b815260206004820152603260248201527f4552433732313a207472616e7366657220746f206e6f6e20455243373231526560448201527131b2b4bb32b91034b6b83632b6b2b73a32b960711b60648201526084016104a5565b60608161155857505060408051808201909152600181527f3000000000000000000000000000000000000000000000000000000000000000602082015290565b8160005b8115611582578061156c81612081565b915061157b9050600a83611fef565b915061155c565b60008167ffffffffffffffff8111156115ab57634e487b7160e01b600052604160045260246000fd5b6040519080825280601f01601f1916602001820160405280156115d5576020820181803683370190505b5090505b8415611046576115ea600183612003565b91506115f7600a8661209c565b611602906030611fd7565b60f81b81838151811061162557634e487b7160e01b600052603260045260246000fd5b60200101907effffffffffffffffffffffffffffffffffffffffffffffffffffffffffffff1916908160001a90535061165f600a86611fef565b94506115d9565b60006001600160e01b031982167f80ac58cd0000000000000000000000000000000000000000000000000000000014806116c957506001600160e01b031982167f5b5e139f00000000000000000000000000000000000000000000000000000000145b8061039857507f01ffc9a7000000000000000000000000000000000000000000000000000000006001600160e01b0319831614610398565b600a5460ff16156117545760405162461bcd60e51b815260206004820152601060248201527f5061757361626c653a207061757365640000000000000000000000000000000060448201526064016104a5565b6105f7838383611935565b61176983836119ed565b61177660008484846117dd565b6105f75760405162461bcd60e51b815260206004820152603260248201527f4552433732313a207472616e7366657220746f206e6f6e20455243373231526560448201527131b2b4bb32b91034b6b83632b6b2b73a32b960711b60648201526084016104a5565b60006001600160a01b0384163b1561192a57604051630a85bd0160e11b81526001600160a01b0385169063150b7a0290611821903390899088908890600401611f88565b602060405180830381600087803b15801561183b57600080fd5b505af192505050801561186b575060408051601f3d908101601f1916820190925261186891810190611ef9565b60015b611910573d808015611899576040519150601f19603f3d011682016040523d82523d6000602084013e61189e565b606091505b5080516119085760405162461bcd60e51b815260206004820152603260248201527f4552433732313a207472616e7366657220746f206e6f6e20455243373231526560448201527131b2b4bb32b91034b6b83632b6b2b73a32b960711b60648201526084016104a5565b805181602001fd5b6001600160e01b031916630a85bd0160e11b149050611046565b506001949350505050565b6001600160a01b0383166119905761198b81600880546000838152600960205260408120829055600182018355919091527ff3f7a9fe364faab93b216da50a3214154f22a0a2b415b23a84c8169e8b636ee30155565b6119b3565b816001600160a01b0316836001600160a01b0316146119b3576119b38382611b48565b6001600160a01b0382166119ca576105f781611be5565b826001600160a01b0316826001600160a01b0316146105f7576105f78282611cbe565b6001600160a01b038216611a435760405162461bcd60e51b815260206004820181905260248201527f4552433732313a206d696e7420746f20746865207a65726f206164647265737360448201526064016104a5565b6000818152600260205260409020546001600160a01b031615611aa85760405162461bcd60e51b815260206004820152601c60248201527f4552433732313a20746f6b656e20616c7265616479206d696e7465640000000060448201526064016104a5565b611ab460008383611701565b6001600160a01b0382166000908152600360205260408120805460019290611add908490611fd7565b9091555050600081815260026020526040808220805473ffffffffffffffffffffffffffffffffffffffff19166001600160a01b03861690811790915590518392907fddf252ad1be2c89b69c2b068fc378daa952ba7f163c4a11628f55a4df523b3ef908290a45050565b60006001611b55846109f5565b611b5f9190612003565b600083815260076020526040902054909150808214611bb2576001600160a01b03841660009081526006602090815260408083208584528252808320548484528184208190558352600790915290208190555b5060009182526007602090815260408084208490556001600160a01b039094168352600681528383209183525290812055565b600854600090611bf790600190612003565b60008381526009602052604081205460088054939450909284908110611c2d57634e487b7160e01b600052603260045260246000fd5b906000526020600020015490508060088381548110611c5c57634e487b7160e01b600052603260045260246000fd5b6000918252602080832090910192909255828152600990915260408082208490558582528120556008805480611ca257634e487b7160e01b600052603160045260246000fd5b6001900381819060005260206000200160009055905550505050565b6000611cc9836109f5565b6001600160a01b039093166000908152600660209081526040808320868452825280832085905593825260079052919091209190915550565b80356001600160a01b0381168114611d1957600080fd5b919050565b600060208284031215611d2f578081fd5b610db282611d02565b60008060408385031215611d4a578081fd5b611d5383611d02565b9150611d6160208401611d02565b90509250929050565b600080600060608486031215611d7e578081fd5b611d8784611d02565b9250611d9560208501611d02565b9150604084013590509250925092565b60008060008060808587031215611dba578081fd5b611dc385611d02565b9350611dd160208601611d02565b925060408501359150606085013567ffffffffffffffff80821115611df4578283fd5b818701915087601f830112611e07578283fd5b813581811115611e1957611e196120dc565b604051601f8201601f19908116603f01168101908382118183101715611e4157611e416120dc565b816040528281528a6020848701011115611e59578586fd5b82602086016020830137918201602001949094529598949750929550505050565b60008060408385031215611e8c578182fd5b611e9583611d02565b915060208301358015158114611ea9578182fd5b809150509250929050565b60008060408385031215611ec6578182fd5b611ecf83611d02565b946020939093013593505050565b600060208284031215611eee578081fd5b8135610db2816120f2565b600060208284031215611f0a578081fd5b8151610db2816120f2565b600060208284031215611f26578081fd5b5035919050565b60008151808452611f4581602086016020860161201a565b601f01601f19169290920160200192915050565b60008351611f6b81846020880161201a565b835190830190611f7f81836020880161201a565b01949350505050565b60006001600160a01b03808716835280861660208401525083604083015260806060830152611fba6080830184611f2d565b9695505050505050565b602081526000610db26020830184611f2d565b60008219821115611fea57611fea6120b0565b500190565b600082611ffe57611ffe6120c6565b500490565b600082821015612015576120156120b0565b500390565b60005b8381101561203557818101518382015260200161201d565b83811115610cbd5750506000910152565b600181811c9082168061205a57607f821691505b6020821081141561207b57634e487b7160e01b600052602260045260246000fd5b50919050565b6000600019821415612095576120956120b0565b5060010190565b6000826120ab576120ab6120c6565b500690565b634e487b7160e01b600052601160045260246000fd5b634e487b7160e01b600052601260045260246000fd5b634e487b7160e01b600052604160045260246000fd5b6001600160e01b03198116811461081657600080fdfea26469706673582212201647a6a6c1b367e358408c478f052b6260dba5145e768fcbbcbe6755686c41a264736f6c63430008040033",
  "linkReferences": {},
  "deployedLinkReferences": {}
}