{
  "_format": "hh-sol-artifact-1",
  "contractName": "TestDynaTraits",
  "sourceName": "contracts/TestDynaTraits.sol",
  "abi": [
    {
      "inputs": [
        {
          "internalType": "uint32",
          "name": "_randomSeed",
          "type": "uint32"
        },
        {
          "internalType": "uint8",
          "name": "_zoom",
          "type": "uint8"
        },
        {
          "internalType": "uint8",
          "name": "_tintRed",
          "type": "uint8"
        },
        {
          "internalType": "uint8",
          "name": "_tintGreen",
          "type": "uint8"
        },
        {
          "internalType": "uint8",
          "name": "_tintBlue",
          "type": "uint8"
        },
        {
          "internalType": "uint8",
          "name": "_tintAlpha",
          "type": "uint8"
        },
        {
          "internalType": "uint8",
          "name": "_rotationMin",
          "type": "uint8"
        },
        {
          "internalType": "uint8",
          "name": "_rotationMax",
          "type": "uint8"
        },
        {
          "internalType": "uint8",
          "name": "_stripeWidthMin",
          "type": "uint8"
        },
        {
          "internalType": "uint8",
          "name": "_stripeWidthMax",
          "type": "uint8"
        },
        {
          "internalType": "uint8",
          "name": "_speedMin",
          "type": "uint8"
        },
        {
          "internalType": "uint8",
          "name": "_speedMax",
          "type": "uint8"
        }
      ],
      "name": "getTraits",
      "outputs": [
        {
          "internalType": "string",
          "name": "",
          "type": "string"
        }
      ],
      "stateMutability": "pure",
      "type": "function"
    }
  ],
  "bytecode": "0x608060405234801561001057600080fd5b50611ed6806100206000396000f3fe608060405234801561001057600080fd5b506004361061002b5760003560e01c806368f1049814610030575b600080fd5b61004361003e366004611745565b610059565b6040516100509190611de0565b60405180910390f35b606060006040518061018001604052808f63ffffffff1681526020018e60ff1681526020018d60ff1681526020018c60ff1681526020018b60ff1681526020018a60ff1681526020018960ff1681526020018860ff1681526020018760ff1681526020018660ff1681526020018560ff1681526020018460ff1681525090506100e1816100f3565b9e9d5050505050505050505050505050565b6060808260e0015160ff168360c0015160ff1614801561011a57506032836020015160ff16115b80156101375750605a8360e001516101329190611e72565b60ff16155b15610176575060408051808201909152600e81527f70657266656374207371756172650000000000000000000000000000000000006020820152610a94565b8260e0015160ff168360c0015160ff161480156101ab57508260e0015160ff16602d14806101ab57508260e0015160ff166087145b80156101be5750605b836020015160ff16115b156101fd575060408051808201909152600f81527f70657266656374206469616d6f6e6400000000000000000000000000000000006020820152610a94565b8260e0015160ff168360c0015160ff1614801561022257506032836020015160ff1611155b801561023557508260e0015160ff16605a145b15610274575060408051808201909152601281527f686f72697a6f6e74616c207374726970657300000000000000000000000000006020820152610a94565b8260e0015160ff168360c0015160ff1614801561029957506032836020015160ff1611155b80156102b6575060b48360e001516102b19190611e72565b60ff16155b156102f5575060408051808201909152601081527f766572746963616c2073747269706573000000000000000000000000000000006020820152610a94565b8260e0015160ff168360c0015160ff1614801561031a57506019836020015160ff1611155b15610359575060408051808201909152601081527f646961676f6e616c2073747269706573000000000000000000000000000000006020820152610a94565b8260e0015160ff168360c0015160ff1614156103a9575060408051808201909152600e81527f726f7461746564207371756172650000000000000000000000000000000000006020820152610a94565b601e8360c001518460e001516103bf9190611e13565b60ff161080156103d7575060c883610100015160ff16115b80156103ea57506014836020015160ff16105b15610429575060408051808201909152600f81527f62696720666174207374726970657300000000000000000000000000000000006020820152610a94565b603c83610120015160ff161080156104575750601e8360c001518460e001516104529190611e13565b60ff16105b15610485575060408051808201909152600c81526b6d6174636820737469636b7360a01b6020820152610a94565b603c83610120015160ff161080156104b3575060828360c001518460e001516104ae9190611e13565b60ff16115b80156104c65750601e836020015160ff16115b156104f2575060408051808201909152600a815269189a5c991cc81b995cdd60b21b6020820152610a94565b603c83610120015160ff16108015610520575060828360c001518460e0015161051b9190611e13565b60ff16115b80156105335750601e836020015160ff16105b15610560575060408051808201909152600b81526a6c61736572206265616d7360a81b6020820152610a94565b603c836020015160ff1611801561057f575060b483610100015160ff16115b80156105a15750601e8360c001518460e0015161059c9190611e13565b60ff16105b80156105c3575060058360c001518460e001516105be9190611e13565b60ff16115b80156105e7575060a08360c0015160ff1611806105e75750601e8360e0015160ff16105b15610626575060408051808201909152600f81527f636c7574746572656420626f6f6b7300000000000000000000000000000000006020820152610a94565b60b483610100015160ff161180156106555750601e8360c001518460e0015161064f9190611e13565b60ff1611155b80156106685750604b8360c0015160ff16115b801561067b575060698360e0015160ff16105b156106aa575060408051808201909152600d81526c737461636b656420626f6f6b7360981b6020820152610a94565b603283610100015160ff161180156106ca5750609683610120015160ff16105b80156106ec575060328360c001518460e001516106e79190611e13565b60ff16105b80156106ff575060238360c0015160ff16115b8015610712575060918360e0015160ff16105b801561072557506046836020015160ff16115b15610754575060408051808201909152600d81526c313937b5b2b7103630b23232b960991b6020820152610a94565b60c883610100015160ff1611801561077357506046836020015160ff16115b156107a2575060408051808201909152600d81526c6769616e742070696c6c61727360981b6020820152610a94565b606483610100015160ff161180156107c157506014836020015160ff16105b156107ea5750604080518082019091526007815266726962626f6e7360c81b6020820152610a94565b601e83610100015160ff1611801561080a575060c883610120015160ff16105b801561082c5750600f8360c001518460e001516108279190611e13565b60ff16105b1561085557506040805180820190915260078152666a69747465727960c81b6020820152610a94565b602883610120015160ff16101561088b5750604080518082019091526008815267747769676c65747360c01b6020820152610a94565b603c8360c001518460e001516108a19190611e13565b60ff161080156108b9575060328360c0015160ff1610155b80156108cd575060828360e0015160ff1611155b80156108f2575060968361010001518461012001516108ec9190611e13565b60ff1610155b1561091e575060408051808201909152600a815269636f6c6c617073696e6760b01b6020820152610a94565b60c883610100015160ff1611801561093d57506032836020015160ff16115b156109655750604080518082019091526006815265626c6f636b7960d01b6020820152610a94565b60648360c001518460e0015161097b9190611e13565b60ff161180156109935750609683610120015160ff16105b156109b957506040805180820190915260048152631dda5b1960e21b6020820152610a94565b60648360c001518460e001516109cf9190611e13565b60ff161080156109e75750609683610100015160ff16115b15610a0d575060408051808201909152600481526374616d6560e01b6020820152610a94565b609683610100015160ff161115610a405750604080518082019091526005815264746869636b60d81b6020820152610a94565b606483610120015160ff161015610a7257506040805180820190915260048152633a3434b760e11b6020820152610a94565b506040805180820190915260098152680e4c2dcc8dedad2e6d60bb1b60208201525b6060607f8460a0015160ff161115610f675760006096905060c88560a0015160ff16118015610aca57506032856040015160ff16105b8015610add57506032856060015160ff16105b8015610af057506032856080015160ff16105b15610b32576040518060400160405280600e81526020017f646f6f6d20616e6420676c6f6f6d0000000000000000000000000000000000008152509150610f61565b60c88560a0015160ff16118015610b50575060c8856040015160ff16115b8015610b63575060c8856060015160ff16115b8015610b76575060c8856080015160ff16115b15610ba7576040518060400160405280600c81526020016b1cd9595b88184819da1bdcdd60a21b8152509150610f61565b846060015160ff16856040015160ff16118015610bda57508085606001518660400151610bd49190611e13565b60ff1610155b8015610bf35750846080015160ff16856040015160ff16115b8015610c1557508085608001518660400151610c0f9190611e13565b60ff1610155b15610c3e57604051806040016040528060048152602001637265647360e01b8152509150610f61565b846040015160ff16856060015160ff16118015610c7157508085604001518660600151610c6b9190611e13565b60ff1610155b8015610c8a5750846080015160ff16856060015160ff16115b8015610cac57508085608001518660600151610ca69190611e13565b60ff1610155b15610cd75760405180604001604052806006815260200165677265656e7360d01b8152509150610f61565b846040015160ff16856080015160ff16118015610d0a57508085604001518660800151610d049190611e13565b60ff1610155b8015610d235750846060015160ff16856080015160ff16115b8015610d4557508085606001518660800151610d3f9190611e13565b60ff1610155b15610d6f5760405180604001604052806005815260200164626c75657360d81b8152509150610f61565b846060015160ff16856040015160ff16118015610da257508085606001518660400151610d9c9190611e13565b60ff1610155b8015610dbb5750846060015160ff16856080015160ff16115b8015610ddd57508085606001518660800151610dd79190611e13565b60ff1610155b15610e09576040518060400160405280600781526020016676696f6c65747360c81b8152509150610f61565b846080015160ff16856040015160ff16118015610e3c57508085608001518660400151610e369190611e13565b60ff1610155b8015610e555750846080015160ff16856060015160ff16115b8015610e7757508085608001518660600151610e719190611e13565b60ff1610155b15610ea3576040518060400160405280600781526020016679656c6c6f777360c81b8152509150610f61565b846040015160ff16856080015160ff16118015610ed657508085604001518660800151610ed09190611e13565b60ff1610155b8015610eef5750846040015160ff16856060015160ff16115b8015610f1157508085604001518660600151610f0b9190611e13565b60ff1610155b15610f3b57604051806040016040528060058152602001646379616e7360d81b8152509150610f61565b6040518060400160405280600a8152602001691a19585d9e481d1a5b9d60b21b81525091505b50610ff8565b60a084015160ff16610f9d575060408051808201909152600d81526c73757065722064796e616d696360981b6020820152610ff8565b603c8460a0015160ff161015610fd4575060408051808201909152600a8152691b1a59da1d081d1a5b9d60b21b6020820152610ff8565b5060408051808201909152600b81526a1b59591a5d5b481d1a5b9d60aa1b60208201525b6060601985610160015160ff161115801561101a575060968560a0015160ff16105b15611059575060408051808201909152600f81527f63616c6c2074686520706f6c69636500000000000000000000000000000000006020820152611230565b84610160015160ff1685610140015160ff161480156110805750601e85610160015160ff16105b156110aa5750604080518082019091526008815267626c696e6b696e6760c01b6020820152611230565b84610160015160ff1685610140015160ff161480156110d1575060c885610160015160ff16115b156110fd575060408051808201909152600a815269736c6f772070756c736560b01b6020820152611230565b84610160015160ff1685610140015160ff161415611137575060408051808201909152600581526470756c736560d81b6020820152611230565b603285610160015160ff161015611170575060408051808201909152600b81526a20666c69636b6572696e6760a81b6020820152611230565b606485610160015160ff1610156111a357506040805180820190915260058152647a6970707960d81b6020820152611230565b60c885610140015160ff1611156111db575060408051808201909152600a8152693832b232b9ba3934b0b760b11b6020820152611230565b609685610140015160ff16111561120f5750604080518082019091526006815265736c6565707960d01b6020820152611230565b506040805180820190915260088152677368696674696e6760c01b60208201525b606083516000146112835760008460405160200161124e9190611b36565b60405160208183030381529060405290508060405160200161127091906118de565b6040516020818303038152906040529150505b8151156112d45760008260405160200161129d9190611904565b604051602081830303815290604052905081816040516020016112c192919061182a565b6040516020818303038152906040529150505b825115611325576000836040516020016112ee9190611ad5565b6040516020818303038152906040529050818160405160200161131292919061182a565b6040516020818303038152906040529150505b6000611337876020015160ff166114f0565b6040516020016113479190611a18565b6040516020818303038152906040529050600061136a886040015160ff166114f0565b61137a896060015160ff166114f0565b61138a8a6080015160ff166114f0565b61139a8b60a0015160ff166114f0565b6040516020016113ad9493929190611866565b60405160208183030381529060405290506000816040516020016113d19190611a73565b604051602081830303815290604052905060006113f48a60c0015160ff166114f0565b6114048b60e0015160ff166114f0565b604051602001611415929190611960565b604051602081830303815290604052905060006114398b610100015160ff166114f0565b61144a8c610120015160ff166114f0565b60405160200161145b929190611d14565b6040516020818303038152906040529050600061147f8c610140015160ff166114f0565b6114908d610160015160ff166114f0565b6040516020016114a1929190611c62565b604051602081830303815290604052905060008787868686866040516020016114cf96959493929190611b78565b60408051601f198184030181529190529d9c50505050505050505050505050565b606061010082106115365760405162461bcd60e51b815260206004820152600c60248201526b696e70757420746f2062696760a01b604482015260640160405180910390fd5b816115585750506040805180820190915260018152600360fc1b602082015290565b6060600a8310156115ca5760408051600180825281830190925290602082018180368337019050509050600a835b0660300160f81b816000815181106115ae57634e487b7160e01b600052603260045260246000fd5b60200101906001600160f81b031916908160001a905350611729565b606483101561163e5760408051600280825281830190925290602082018180368337019050509050600a830660300160f81b8160018151811061161d57634e487b7160e01b600052603260045260246000fd5b60200101906001600160f81b031916908160001a905350600a808404611586565b60408051600380825281830190925290602082018180368337019050509050600a830660300160f81b8160028151811061168857634e487b7160e01b600052603260045260246000fd5b60200101906001600160f81b031916908160001a905350600a8084040660300160f81b816001815181106116cc57634e487b7160e01b600052603260045260246000fd5b60200101906001600160f81b031916908160001a905350600a606484040660300160f81b8160008151811061171157634e487b7160e01b600052603260045260246000fd5b60200101906001600160f81b031916908160001a9053505b92915050565b803560ff8116811461174057600080fd5b919050565b6000806000806000806000806000806000806101808d8f031215611767578788fd5b8c3563ffffffff8116811461177a578889fd5b9b5061178860208e0161172f565b9a5061179660408e0161172f565b99506117a460608e0161172f565b98506117b260808e0161172f565b97506117c060a08e0161172f565b96506117ce60c08e0161172f565b95506117dc60e08e0161172f565b94506117eb6101008e0161172f565b93506117fa6101208e0161172f565b92506118096101408e0161172f565b91506118186101608e0161172f565b90509295989b509295989b509295989b565b6000835161183c818460208801611e42565b835190830190611850818360208801611e42565b61016160f51b9101908152600201949350505050565b60008551611878818460208a01611e42565b8083019050600160fd1b8082528651611898816001850160208b01611e42565b6001920191820181905285516118b5816002850160208a01611e42565b600292019182015283516118d0816003840160208801611e42565b016003019695505050505050565b600082516118f0818460208701611e42565b61016160f51b920191825250600201919050565b7f7b2274726169745f74797065223a20227370656564222c202276616c7565223a815261101160f11b602082015260008251611947816022850160208701611e42565b61227d60f01b6022939091019283015250602401919050565b7f7b2274726169745f74797065223a2022726f746174696f6e206d696e222c20228152683b30b63ab2911d101160b91b6020820152600083516119aa816029850160208801611e42565b7f227d2c207b2274726169745f74797065223a2022726f746174696f6e206d61786029918401918201526c111610113b30b63ab2911d101160991b604982015283516119fd816056840160208801611e42565b61227d60f01b60569290910191820152605801949350505050565b7f7b2274726169745f74797065223a20227a6f6f6d222c202276616c7565223a208152601160f91b602082015260008251611a5a816021850160208701611e42565b61227d60f01b6021939091019283015250602301919050565b7f7b2274726169745f74797065223a202274696e7420636f6c6f7572222c20227681526730b63ab2911d101160c11b602082015260008251611abc816028850160208701611e42565b61227d60f01b6028939091019283015250602a01919050565b7f7b2274726169745f74797065223a2022636f6c6f757220776179222c20227661815266363ab2911d101160c91b602082015260008251611b1d816027850160208701611e42565b61227d60f01b6027939091019283015250602901919050565b7f7b2274726169745f74797065223a2022666f726d222c202276616c7565223a208152601160f91b602082015260008251611a5a816021850160208701611e42565b7f2261747472696275746573223a205b00000000000000000000000000000000008152600087516020611bb182600f8601838d01611e42565b885191840191611bc781600f8501848d01611e42565b80830192505061016160f51b80600f8401528851611beb8160118601858d01611e42565b601193019283018190528751611c078160138601858c01611e42565b601393019283018190528651611c238160158601858b01611e42565b60159301928301528451611c3d8160178501848901611e42565b611c53601782850101605d60f81b815260010190565b9b9a5050505050505050505050565b7f7b2274726169745f74797065223a20227370656564206d696e222c202276616c8152653ab2911d101160d11b602082015260008351611ca9816026850160208801611e42565b7f227d2c207b2274726169745f74797065223a20227370656564206d6178222c2060269184019182015269113b30b63ab2911d101160b11b60468201528351611cf9816050840160208801611e42565b61227d60f01b60509290910191820152605201949350505050565b7f7b2274726169745f74797065223a2022737472697065207769647468206d696e81526c111610113b30b63ab2911d101160991b602082015260008351611d6281602d850160208801611e42565b7f227d2c207b2274726169745f74797065223a2022737472697065207769647468602d918401918201527f206d6178222c202276616c7565223a2022000000000000000000000000000000604d8201528351611dc581605e840160208801611e42565b61227d60f01b605e9290910191820152606001949350505050565b6020815260008251806020840152611dff816040850160208701611e42565b601f01601f19169190910160400192915050565b600060ff821660ff841680821015611e3957634e487b7160e01b83526011600452602483fd5b90039392505050565b60005b83811015611e5d578181015183820152602001611e45565b83811115611e6c576000848401525b50505050565b600060ff831680611e9157634e487b7160e01b82526012600452602482fd5b8060ff8416069150509291505056fea2646970667358221220d06084b8bdfd52165d660eed5c9c3409084d0dd210f9c2a74b2b069ecb282aa564736f6c63430008040033",
  "linkReferences": {},
  "deployedLinkReferences": {}
}