{
  "_format": "hh-sol-artifact-1",
  "contractName": "TestDynaTraits",
  "sourceName": "contracts/TestDynaTraits.sol",
  "abi": [
    {
      "inputs": [
        {
          "internalType": "uint8",
          "name": "_zoom",
          "type": "uint8"
        },
        {
          "internalType": "uint16",
          "name": "_rotationDegrees",
          "type": "uint16"
        },
        {
          "internalType": "uint8",
          "name": "_rotationRange",
          "type": "uint8"
        },
        {
          "internalType": "uint8",
          "name": "_stripeWidthMin",
          "type": "uint8"
        },
        {
          "internalType": "uint8",
          "name": "_stripeWidthMax",
          "type": "uint8"
        },
        {
          "internalType": "uint8",
          "name": "_speedMin",
          "type": "uint8"
        },
        {
          "internalType": "uint8",
          "name": "_speedMax",
          "type": "uint8"
        }
      ],
      "name": "getName",
      "outputs": [
        {
          "internalType": "string",
          "name": "",
          "type": "string"
        }
      ],
      "stateMutability": "pure",
      "type": "function"
    },
    {
      "inputs": [
        {
          "internalType": "uint8",
          "name": "_zoom",
          "type": "uint8"
        },
        {
          "internalType": "uint16",
          "name": "_rotationDegrees",
          "type": "uint16"
        },
        {
          "internalType": "uint8",
          "name": "_rotationRange",
          "type": "uint8"
        },
        {
          "internalType": "uint8",
          "name": "_stripeWidthMin",
          "type": "uint8"
        },
        {
          "internalType": "uint8",
          "name": "_stripeWidthMax",
          "type": "uint8"
        },
        {
          "internalType": "uint8",
          "name": "_speedMin",
          "type": "uint8"
        },
        {
          "internalType": "uint8",
          "name": "_speedMax",
          "type": "uint8"
        }
      ],
      "name": "getTraits",
      "outputs": [
        {
          "internalType": "string",
          "name": "",
          "type": "string"
        }
      ],
      "stateMutability": "pure",
      "type": "function"
    }
  ],
  "bytecode": "0x608060405234801561001057600080fd5b50611ab1806100206000396000f3fe608060405234801561001057600080fd5b50600436106100365760003560e01c8063735059ae1461003b57806389ee246314610064575b600080fd5b61004e6100493660046117eb565b610077565b60405161005b919061199a565b60405180910390f35b61004e6100723660046117eb565b610101565b6040805161018081018252600180825260ff808b16602084015260c893830193909352606460608381018290526080840191909152607f60a084015261ffff8a1660c084015288841660e0840152878416610100840152868416610120840152858416610140840152928416610160830152906100f38161017d565b9a9950505050505050505050565b6040805161018081018252600180825260ff808b16602084015260c893830193909352606460608381018290526080840191909152607f60a084015261ffff8a1660c084015288841660e0840152878416610100840152868416610120840152858416610140840152928416610160830152906100f3816101ff565b60606101988260a00151836101400151846101600151610220565b6101b48360400151846060015185608001518660a0015161060b565b6101d784602001518560c001518660e00151876101000151886101200151610ba1565b6040516020016101e993929190611878565b6040516020818303038152906040529050919050565b6060604051806060016040528060228152602001611a5a6022913992915050565b60608060828560ff16118015610239575060dc8460ff16115b1561026257506040805180820190915260078152661b185b99dd5a5960ca1b6020820152610603565b60828560ff16118015610278575060c88460ff16115b156102a4575060408051808201909152600a8152693832b232b9ba3934b0b760b11b6020820152610603565b60198360ff16111580156102bb575060b48560ff16105b156102e257506040805180820190915260058152646d616e696360d81b6020820152610567565b8260ff168460ff16141561037757601e8360ff1610156103215750604080518082019091526008815267626c696e6b696e6760c01b6020820152610567565b60c88360ff16111561035357506040805180820190915260098152687468726f6262696e6760b81b6020820152610567565b5060408051808201909152600781526670756c73696e6760c81b6020820152610567565b60238360ff1610156103a85750604080518082019091526008815267666c617368696e6760c01b6020820152610567565b60468360ff1610156103db575060408051808201909152600a815269666c69636b6572696e6760b01b6020820152610567565b60698360ff16101561040d5750604080518082019091526009815268717569766572696e6760b81b6020820152610567565b60968360ff16101561043f5750604080518082019091526009815268766962726174696e6760b81b6020820152610567565b60c88460ff161115610472575060408051808201909152600a8152696d65616e646572696e6760b01b6020820152610567565b60968460ff1611156104a357506040805180820190915260088152676472696674696e6760c01b6020820152610567565b60788460ff1611156104d35750604080518082019091526007815266666c6f77696e6760c81b6020820152610567565b60648460ff16111561050457506040805180820190915260088152677368696674696e6760c01b6020820152610567565b609661051085856119cd565b60ff161115610543575060408051808201909152600d81526c7363696e74696c6c6174696e6760981b6020820152610567565b5060408051808201909152600b81526a6f7363696c6c6174696e6760a81b60208201525b60d58560ff16111561059a5780604051602001610584919061193b565b6040516020818303038152906040529050610603565b60c88560ff1611156105b75780604051602001610584919061196a565b60148560ff1610156105d4578060405160200161058491906118d2565b60328560ff16101561060357806040516020016105f19190611908565b60405160208183030381529060405290505b949350505050565b606080607f8360ff161115610ab857609660c860ff8516118015610632575060328760ff16105b8015610641575060328660ff16105b8015610650575060328560ff16105b1561067b5760405180604001604052806006815260200165676c6f6f6d7960d01b8152509150610ab2565b60c88460ff16118015610691575060c88760ff16115b80156106a0575060c88660ff16115b80156106af575060c88560ff16115b156106d8576040518060400160405280600481526020016370616c6560e01b8152509150610ab2565b8560ff168760ff161180156106f95750806106f387896119cd565b60ff1610155b801561070a57508460ff168760ff16115b801561072257508061071c86896119cd565b60ff1610155b1561074a57604051806040016040528060038152602001621c995960ea1b8152509150610ab2565b8660ff168660ff16118015610760575060ff8516155b1561078a576040518060400160405280600581526020016433b932b2b760d91b8152509150610ab2565b8660ff168660ff161180156107ab5750806107a588886119cd565b60ff1610155b80156107bc57508460ff168660ff16115b80156107d45750806107ce86886119cd565b60ff1610155b156107fe576040518060400160405280600581526020016433b932b2b760d91b8152509150610ab2565b8660ff168560ff1611801561081f57508061081988876119cd565b60ff1610155b801561083057508560ff168560ff16115b801561084857508061084287876119cd565b60ff1610155b156108715760405180604001604052806004815260200163626c756560e01b8152509150610ab2565b8660ff1660ff148015610885575060ff8616155b8015610894575060648560ff16115b156108bd576040518060400160405280600481526020016370696e6b60e01b8152509150610ab2565b8560ff168760ff161180156108de5750806108d887896119cd565b60ff1610155b80156108ef57508560ff168560ff16115b801561090757508061090187876119cd565b60ff1610155b8015610916575060c88760ff16115b156109415760405180604001604052806006815260200165707572706c6560d01b8152509150610ab2565b8660ff1660ff148015610955575060ff8516155b8015610964575060c88660ff16115b1561098f576040518060400160405280600681526020016579656c6c6f7760d01b8152509150610ab2565b8660ff1660ff1480156109a3575060ff8516155b156109ce57604051806040016040528060068152602001656f72616e676560d01b8152509150610ab2565b60ff87161580156109e2575060c88660ff16105b80156109f157508460ff1660ff145b15610a1a5760405180604001604052806004815260200163626c756560e01b8152509150610ab2565b8660ff168560ff16118015610a3b575080610a3588876119cd565b60ff1610155b8015610a4c57508660ff168660ff16115b8015610a64575080610a5e88886119cd565b60ff1610155b15610a8d576040518060400160405280600481526020016331bcb0b760e11b8152509150610ab2565b604051806040016040528060098152602001681cd85d1d5c985d195960ba1b81525091505b50610b98565b60ff8316610aea575060408051808201909152600d81526c6b616c6569646f73636f70696360981b6020820152610b98565b60198360ff161015610b1c57506040805180820190915260098152686368726f6d6174696360b81b6020820152610b98565b60328360ff161015610b4a57506040805180820190915260058152641d9a5d9a5960da1b6020820152610b98565b60558360ff161015610b7957506040805180820190915260068152651d1a5b99d95960d21b6020820152610b98565b506040805180820190915260068152651d1a5b9d195960d21b60208201525b95945050505050565b606080610baf60b487611a2c565b955060ff8516610d685760328760ff16118015610bd85750610bd2605a87611a2c565b61ffff16155b15610c08575060408051808201909152600e81526d706572666563742073717561726560901b60208201526117cb565b605b8760ff16118015610c2d57508561ffff16602d1480610c2d57508561ffff166087145b15610c5e575060408051808201909152600f81526e1c195c999958dd08191a585b5bdb99608a1b60208201526117cb565b60328760ff1611158015610c74575061ffff8616155b15610ca6575060408051808201909152601081526f766572746963616c207374726970657360801b60208201526117cb565b60328760ff1611158015610cc65750610cc0605a87611a2c565b61ffff16155b15610d05575060408051808201909152601281527f686f72697a6f6e74616c2073747269706573000000000000000000000000000060208201526117cb565b60198760ff1611610d3d575060408051808201909152601081526f646961676f6e616c207374726970657360801b60208201526117cb565b5060408051808201909152600e81526d726f74617465642073717561726560901b60208201526117cb565b601e8760ff161015610fb25760148760ff16108015610d8a575060468460ff16115b8015610d995750603c8560ff16105b8015610da85750600a8560ff16115b15610dd15750604080518082019091526007815266726962626f6e7360c81b60208201526117cb565b60148760ff16108015610de75750601e8560ff16105b8015610df6575060c88460ff16115b15610e1f575060408051808201909152600781526662616e6e65727360c81b60208201526117cb565b60148760ff16108015610e355750604b8360ff16105b8015610e445750603c8560ff16105b8015610e535750600a8560ff16115b15610e7e575060408051808201909152600981526873747265616d65727360b81b60208201526117cb565b603c8360ff16108015610e94575060828560ff16115b15610ec1575060408051808201909152600b81526a6c61736572206265616d7360a81b60208201526117cb565b60788360ff16108015610ed95750602d8661ffff1610155b8015610ee9575060878661ffff16105b15610f1057506040805180820190915260058152646265616d7360d81b60208201526117cb565b60788360ff16108015610f265750605a8560ff16105b15610f4d5750604080518082019091526005815264706f6c657360d81b60208201526117cb565b602d8661ffff1610158015610f66575060878661ffff16105b15610f8f575060408051808201909152600781526673747265616b7360c81b60208201526117cb565b5060408051808201909152600681526573686166747360d01b60208201526117cb565b60328760ff16118015610fc85750603c8360ff16105b8015610fd75750601e8560ff16105b15611005575060408051808201909152600c81526b6d6174636820737469636b7360a01b60208201526117cb565b60328760ff1611801561101b5750603c8360ff16105b801561102a5750603c8560ff16105b15611069575060408051808201909152601681527f736361747465726564206d6174636820737469636b730000000000000000000060208201526117cb565b60328760ff1611801561107f575060468460ff16115b801561108e5750606e8360ff16105b801561109d5750600a8560ff16115b80156110ac575060288560ff16105b156110d35750604080518082019091526005815264747769677360d81b60208201526117cb565b60328760ff161180156110e9575060468460ff16115b80156110f85750606e8360ff16105b80156111075750600a8560ff16115b80156111165750603c8560ff16105b15611147575060408051808201909152600f81526e73636174746572656420747769677360881b60208201526117cb565b60508760ff1611801561115d5750603c8360ff16105b801561116c575060828560ff16115b15611198575060408051808201909152600a815269189a5c991cc81b995cdd60b21b60208201526117cb565b60468760ff161180156111ae575060468560ff16105b80156111bd575060c88460ff16115b80156111dd575060198661ffff161115806111dd5750609b8661ffff1610155b15611206575060408051808201909152600781526670696c6c61727360c81b60208201526117cb565b60468760ff1611801561121c575060468560ff16105b801561122b575060c88460ff16115b801561124c575060738661ffff161115801561124c575060418661ffff1610155b156112745750604080518082019091526006815265627269636b7360d01b60208201526117cb565b60378760ff1611801561128a575060468460ff16115b801561129a575060058560ff1610155b80156112aa5750601e8560ff1611155b80156112ca5750600a8661ffff161115806112ca575060aa8661ffff1610155b156112fb575060408051808201909152600f81526e636c7574746572656420626f6f6b7360881b60208201526117cb565b60378760ff16118015611311575060468460ff16115b80156113215750601e8560ff1611155b8015611332575060508661ffff1610155b8015611343575060648661ffff1611155b15611372575060408051808201909152600d81526c737461636b656420626f6f6b7360981b60208201526117cb565b60378760ff16118015611388575060468460ff16115b80156113975750603c8560ff16105b80156113a8575060328661ffff1610155b80156113b9575060828661ffff1611155b156113e9575060408051808201909152600e81526d74756d626c696e6720626f6f6b7360901b60208201526117cb565b60378760ff161180156113ff575060328460ff16115b801561140e575060968360ff16105b801561141d575060328560ff16105b801561142e575060508661ffff1610155b801561143f575060648661ffff1611155b1561146e575060408051808201909152600d81526c313937b5b2b7103630b23232b960991b60208201526117cb565b60378760ff161180156114845750600a8560ff16115b80156114935750603c8560ff16105b80156114a4575060328661ffff1610155b80156114b5575060828661ffff1611155b80156114ce575060966114c885856119cd565b60ff1610155b1561150d575060408051808201909152601381527f636f6c6c617073696e67206275696c64696e670000000000000000000000000060208201526117cb565b60198460ff16118015611523575060c88360ff16105b80156115335750600f8560ff1611155b1561155c57506040805180820190915260078152666a69747465727360c81b60208201526117cb565b60198460ff16118015611572575060c88360ff16105b80156115825750602d8560ff1611155b156115ab5750604080518082019091526007815266776f62626c657360c81b60208201526117cb565b60328760ff161180156115c1575060c88460ff16115b156115e95750604080518082019091526006815265626c6f636b7360d01b60208201526117cb565b605a8760ff161180156116095750609661160385856119cd565b60ff1610155b8015611618575060968560ff16115b15611645575060408051808201909152600b81526a6d6173746572706965636560a81b60208201526117cb565b60648560ff1611801561165b575060968360ff16105b1561168357506040805180820190915260068152656c756e61637960d01b60208201526117cb565b603c8560ff16108015611699575060968460ff16115b156116c6575060408051808201909152600b81526a7472616e7175696c69747960a81b60208201526117cb565b60788460ff1611156116f357506040805180820190915260048152636261727360e01b60208201526117cb565b60648360ff161080156117095750603c8560ff16115b1561173a575060408051808201909152600f81526e736361747465726564206c696e657360881b60208201526117cb565b60648360ff16101561176857506040805180820190915260058152646c696e657360d81b60208201526117cb565b60288760ff1611801561177e5750605a8560ff16115b156117a757506040805180820190915260078152667265766572696560c81b60208201526117cb565b5060408051808201909152600b81526a30b139ba3930b1ba34b7b760a91b60208201525b9695505050505050565b803560ff811681146117e657600080fd5b919050565b600080600080600080600060e0888a031215611805578283fd5b61180e886117d5565b9650602088013561ffff81168114611824578384fd5b9550611832604089016117d5565b9450611840606089016117d5565b935061184e608089016117d5565b925061185c60a089016117d5565b915061186a60c089016117d5565b905092959891949750929550565b6000845161188a8184602089016119fc565b8083019050600160fd1b80825285516118aa816001850160208a016119fc565b600192019182015283516118c58160028401602088016119fc565b0160020195945050505050565b6d036b0b3b734b334b1b2b73a363c960951b8152600082516118fb81600e8501602087016119fc565b91909101600e0192915050565b6a03837bbb2b9333ab6363c960ad1b81526000825161192e81600b8501602087016119fc565b91909101600b0192915050565b66033b2b73a363c960cd1b81526000825161195d8160078501602087016119fc565b9190910160070192915050565b6703a32b834b2363c960c51b81526000825161198d8160088501602087016119fc565b9190910160080192915050565b60208152600082518060208401526119b98160408501602087016119fc565b601f01601f19169190910160400192915050565b600060ff821660ff8416808210156119f357634e487b7160e01b83526011600452602483fd5b90039392505050565b60005b83811015611a175781810151838201526020016119ff565b83811115611a26576000848401525b50505050565b600061ffff80841680611a4d57634e487b7160e01b83526012600452602483fd5b9216919091069291505056fe2261747472696275746573223a5b7b226973737565223a20227365636f6e64227d5da2646970667358221220961bfc5c3e3365fc7f4647f1404f328f1e24f6ee14121d0e82895c519ed305af64736f6c63430008040033",
  "linkReferences": {},
  "deployedLinkReferences": {}
}