{
  "_format": "hh-sol-artifact-1",
  "contractName": "TestDynaTraits",
  "sourceName": "contracts/TestDynaTraits.sol",
  "abi": [
    {
      "inputs": [
        {
          "internalType": "uint8",
          "name": "_zoom",
          "type": "uint8"
        },
        {
          "internalType": "uint16",
          "name": "_rotationDegrees",
          "type": "uint16"
        },
        {
          "internalType": "uint8",
          "name": "_rotationRange",
          "type": "uint8"
        },
        {
          "internalType": "uint8",
          "name": "_stripeWidthMin",
          "type": "uint8"
        },
        {
          "internalType": "uint8",
          "name": "_stripeWidthMax",
          "type": "uint8"
        },
        {
          "internalType": "uint8",
          "name": "_speedMin",
          "type": "uint8"
        },
        {
          "internalType": "uint8",
          "name": "_speedMax",
          "type": "uint8"
        }
      ],
      "name": "getTraits",
      "outputs": [
        {
          "internalType": "string",
          "name": "",
          "type": "string"
        }
      ],
      "stateMutability": "pure",
      "type": "function"
    }
  ],
  "bytecode": "0x608060405234801561001057600080fd5b50611f34806100206000396000f3fe608060405234801561001057600080fd5b506004361061002b5760003560e01c806389ee246314610030575b600080fd5b61004361003e3660046117e8565b610059565b6040516100509190611e3f565b60405180910390f35b6040805161018081018252600180825260ff808b16602084015260c893830193909352606460608381018290526080840191909152607f60a084015261ffff8a1660c084015288841660e0840152878416610100840152868416610120840152858416610140840152928416610160830152906100d5816100e3565b9a9950505050505050505050565b606060006100f7836020015160ff166102b8565b60405160200161010791906119ab565b6040516020818303038152906040529050600061012a846040015160ff166102b8565b61013a856060015160ff166102b8565b61014a866080015160ff166102b8565b61015a8760a0015160ff166102b8565b60405160200161016d94939291906118b1565b60405160208183030381529060405290506000816040516020016101919190611ad2565b604051602081830303815290604052905060006101b58660c0015161ffff166104f8565b6101c58760e0015160ff166102b8565b6040516020016101d6929190611a06565b604051602081830303815290604052905060006101fa87610100015160ff166102b8565b61020b88610120015160ff166102b8565b60405160200161021c929190611d73565b6040516020818303038152906040529050600061024088610140015160ff166102b8565b61025189610160015160ff166102b8565b604051602001610262929190611cc1565b6040516020818303038152906040529050600061027e896105f1565b905080878686868660405160200161029b96959493929190611bd7565b604051602081830303815290604052975050505050505050919050565b606061010082106102ff5760405162461bcd60e51b815260206004820152600d60248201526c696e70757420746f6f2062696760981b604482015260640160405180910390fd5b816103215750506040805180820190915260018152600360fc1b602082015290565b6060600a8310156103935760408051600180825281830190925290602082018180368337019050509050600a835b0660300160f81b8160008151811061037757634e487b7160e01b600052603260045260246000fd5b60200101906001600160f81b031916908160001a9053506104f2565b60648310156104075760408051600280825281830190925290602082018180368337019050509050600a830660300160f81b816001815181106103e657634e487b7160e01b600052603260045260246000fd5b60200101906001600160f81b031916908160001a905350600a80840461034f565b60408051600380825281830190925290602082018180368337019050509050600a830660300160f81b8160028151811061045157634e487b7160e01b600052603260045260246000fd5b60200101906001600160f81b031916908160001a905350600a8084040660300160f81b8160018151811061049557634e487b7160e01b600052603260045260246000fd5b60200101906001600160f81b031916908160001a905350600a606484040660300160f81b816000815181106104da57634e487b7160e01b600052603260045260246000fd5b60200101906001600160f81b031916908160001a9053505b92915050565b60608161051c5750506040805180820190915260018152600360fc1b602082015290565b8160005b811561053457600101600a82049150610520565b60008167ffffffffffffffff81111561055d57634e487b7160e01b600052604160045260246000fd5b6040519080825280601f01601f191660200182016040528015610587576020820181803683370190505b508593509050815b83156105e857600a840660300160f81b828260019003925082815181106105c657634e487b7160e01b600052603260045260246000fd5b60200101906001600160f81b031916908160001a905350600a8404935061058f565b50949350505050565b60606104f282602001518360400151846060015185608001518660a001518760c001518860e001518961010001518a61012001518b61014001518c610160015160608060198360ff161115801561064b575060b48960ff16105b1561067257506040805180820190915260058152646d616e696360d81b6020820152610832565b8260ff168460ff16141561070757601e8360ff1610156106b15750604080518082019091526008815267626c696e6b696e6760c01b6020820152610832565b60c88360ff1611156106e357506040805180820190915260098152687468726f6262696e6760b81b6020820152610832565b5060408051808201909152600781526670756c73696e6760c81b6020820152610832565b60328360ff16101561073a575060408051808201909152600a815269666c69636b6572696e6760b01b6020820152610832565b60648360ff16101561076c5750604080518082019091526009815268766962726174696e6760b81b6020820152610832565b60c88460ff16111561079f575060408051808201909152600a8152693832b232b9ba3934b0b760b11b6020820152610832565b60968460ff1611156107cf57506040805180820190915260078152661b185b99dd5a5960ca1b6020820152610832565b60966107db8585611e72565b60ff16111561080e575060408051808201909152600d81526c7363696e74696c6c6174696e6760981b6020820152610832565b5060408051808201909152600b81526a6f7363696c6c6174696e6760a81b60208201525b6060607f8a60ff161115610be757609660c860ff8c16118015610858575060328e60ff16105b8015610867575060328d60ff16105b8015610876575060328c60ff16105b156108a15760405180604001604052806006815260200165676c6f6f6d7960d01b8152509150610be1565b60c88b60ff161180156108b7575060c88e60ff16115b80156108c6575060c88d60ff16115b80156108d5575060c88c60ff16115b156108fe576040518060400160405280600481526020016370616c6560e01b8152509150610be1565b8c60ff168e60ff161180156109215750808d8f61091b9190611e72565b60ff1610155b801561093257508b60ff168e60ff16115b801561094c5750808c8f6109469190611e72565b60ff1610155b1561097457604051806040016040528060038152602001621c995960ea1b8152509150610be1565b8d60ff168d60ff1611801561099557508061098f8f8f611e72565b60ff1610155b80156109a657508b60ff168d60ff16115b80156109be5750806109b88d8f611e72565b60ff1610155b156109e8576040518060400160405280600581526020016433b932b2b760d91b8152509150610be1565b8d60ff168c60ff16118015610a09575080610a038f8e611e72565b60ff1610155b8015610a1a57508c60ff168c60ff16115b8015610a32575080610a2c8e8e611e72565b60ff1610155b15610a5b5760405180604001604052806004815260200163626c756560e01b8152509150610be1565b8c60ff168e60ff16118015610a7e5750808d8f610a789190611e72565b60ff1610155b8015610a8f57508c60ff168c60ff16115b8015610aa7575080610aa18e8e611e72565b60ff1610155b15610ad257604051806040016040528060068152602001651d9a5bdb195d60d21b8152509150610be1565b8b60ff168e60ff16118015610af55750808c8f610aef9190611e72565b60ff1610155b8015610b0657508b60ff168d60ff16115b8015610b1e575080610b188d8f611e72565b60ff1610155b15610b49576040518060400160405280600681526020016579656c6c6f7760d01b8152509150610be1565b8d60ff168c60ff16118015610b6a575080610b648f8e611e72565b60ff1610155b8015610b7b57508d60ff168d60ff16115b8015610b93575080610b8d8f8f611e72565b60ff1610155b15610bbc576040518060400160405280600481526020016331bcb0b760e11b8152509150610be1565b604051806040016040528060098152602001681cd85d1d5c985d195960ba1b81525091505b50610cc7565b60ff8a16610c19575060408051808201909152600d81526c6b616c6569646f73636f70696360981b6020820152610cc7565b60198a60ff161015610c4b57506040805180820190915260098152686368726f6d6174696360b81b6020820152610cc7565b60328a60ff161015610c7957506040805180820190915260058152641d9a5d9a5960da1b6020820152610cc7565b60558a60ff161015610ca857506040805180820190915260068152651d1a5b99d95960d21b6020820152610cc7565b506040805180820190915260068152651d1a5b9d195960d21b60208201525b6060610cd460b48b611ed1565b995060ff8916610ed35760328f60ff16118015610cfd5750610cf7605a8b611ed1565b61ffff16155b15610d3c575060408051808201909152600e81527f706572666563742073717561726500000000000000000000000000000000000060208201526116ca565b605b8f60ff16118015610d6157508961ffff16602d1480610d6157508961ffff166087145b15610da0575060408051808201909152600f81527f70657266656374206469616d6f6e64000000000000000000000000000000000060208201526116ca565b60328f60ff1611158015610db6575061ffff8a16155b15610df5575060408051808201909152601081527f766572746963616c20737472697065730000000000000000000000000000000060208201526116ca565b60328f60ff1611158015610e155750610e0f605a8b611ed1565b61ffff16155b15610e54575060408051808201909152601281527f686f72697a6f6e74616c2073747269706573000000000000000000000000000060208201526116ca565b60198f60ff1611610e99575060408051808201909152601081527f646961676f6e616c20737472697065730000000000000000000000000000000060208201526116ca565b5060408051808201909152600e81527f726f74617465642073717561726500000000000000000000000000000000000060208201526116ca565b601e8f60ff1610156110ad5760148f60ff16108015610ef5575060468860ff16115b8015610f045750603c8960ff16105b8015610f135750600a8960ff16115b15610f3c5750604080518082019091526007815266726962626f6e7360c81b60208201526116ca565b60148f60ff16108015610f525750601e8960ff16105b8015610f61575060c88860ff16115b15610f8a575060408051808201909152600781526662616e6e65727360c81b60208201526116ca565b60148f60ff16108015610fa05750604b8760ff16105b8015610faf5750603c8960ff16105b8015610fbe5750600a8960ff16115b15610fe9575060408051808201909152600981526873747265616d65727360b81b60208201526116ca565b603c8760ff16108015610fff575060828960ff16115b1561102c575060408051808201909152600b81526a6c61736572206265616d7360a81b60208201526116ca565b60788860ff16111561105c575060408051808201909152600781526673747265616b7360c81b60208201526116ca565b60788760ff16101561108a5750604080518082019091526005815264706f6c657360d81b60208201526116ca565b5060408051808201909152600681526573686166747360d01b60208201526116ca565b60328f60ff161180156110c35750603c8760ff16105b80156110d25750601e8960ff16105b15611100575060408051808201909152600c81526b6d6174636820737469636b7360a01b60208201526116ca565b60328f60ff161180156111165750606e8760ff16105b8015611125575060468860ff16115b80156111345750603c8960ff16105b15611162575060408051808201909152600c81526b6672656e636820667269657360a01b60208201526116ca565b60508f60ff161180156111785750603c8760ff16105b8015611187575060828960ff16115b156111b3575060408051808201909152600a815269189a5c991cc81b995cdd60b21b60208201526116ca565b60468f60ff161180156111c9575060468960ff16105b80156111d8575060c88860ff16115b80156111f8575060198a61ffff161115806111f85750609b8a61ffff1610155b15611221575060408051808201909152600781526670696c6c61727360c81b60208201526116ca565b60468f60ff16118015611237575060468960ff16105b8015611246575060c88860ff16115b8015611267575060738a61ffff1611158015611267575060418a61ffff1610155b1561128f5750604080518082019091526006815265627269636b7360d01b60208201526116ca565b603c8f60ff161180156112a5575060468860ff16115b80156112b55750601e8960ff1611155b80156112c5575060058960ff1610155b80156112e5575060058a61ffff161115806112e5575060af8a61ffff1610155b15611324575060408051808201909152600f81527f636c7574746572656420626f6f6b73000000000000000000000000000000000060208201526116ca565b60378f60ff1611801561133a575060468860ff16115b801561134a5750601e8960ff1611155b801561135b575060558a61ffff1610155b801561136c5750605f8a61ffff1611155b1561139b575060408051808201909152600d81526c737461636b656420626f6f6b7360981b60208201526116ca565b60378f60ff161180156113b1575060328860ff16115b80156113c0575060968760ff16105b80156113cf575060328960ff16105b80156113e0575060508a61ffff1610155b80156113f1575060648a61ffff1611155b15611420575060408051808201909152600d81526c313937b5b2b7103630b23232b960991b60208201526116ca565b60198860ff16118015611436575060c88760ff16105b80156114465750600f8960ff1611155b1561146f57506040805180820190915260078152666a69747465727360c81b60208201526116ca565b60288760ff1610156114a05750604080518082019091526008815267747769676c65747360c01b60208201526116ca565b603c8f60ff161180156114b65750603c8960ff16105b80156114c7575060328a61ffff1610155b80156114d8575060828a61ffff1611155b80156114f1575060966114eb8989611e72565b60ff1610155b15611530575060408051808201909152601381527f636f6c6c617073696e67206275696c64696e670000000000000000000000000060208201526116ca565b60328f60ff16118015611546575060c88860ff16115b1561156e5750604080518082019091526006815265626c6f636b7360d01b60208201526116ca565b605a8f60ff1611801561158e575060966115888989611e72565b60ff1610155b801561159d575060968960ff16115b156115ca575060408051808201909152600b81526a6d6173746572706965636560a81b60208201526116ca565b60648960ff161180156115e0575060968760ff16105b1561160857506040805180820190915260068152656c756e61637960d01b60208201526116ca565b603c8960ff1610801561161e575060968860ff16115b1561164b575060408051808201909152600b81526a7472616e7175696c69747960a81b60208201526116ca565b60788860ff16111561167857506040805180820190915260048152636261727360e01b60208201526116ca565b60648760ff1610156116a657506040805180820190915260058152646c696e657360d81b60208201526116ca565b5060408051808201909152600b81526a30b139ba3930b1ba34b7b760a91b60208201525b6060815160001461171d576000826040516020016116e89190611b95565b60405160208183030381529060405290508060405160200161170a9190611929565b6040516020818303038152906040529150505b83511561176e57600084604051602001611737919061194f565b6040516020818303038152906040529050818160405160200161175b929190611875565b6040516020818303038152906040529150505b8251156117bf576000836040516020016117889190611b34565b604051602081830303815290604052905081816040516020016117ac929190611875565b6040516020818303038152906040529150505b9f9e505050505050505050505050505050565b803560ff811681146117e357600080fd5b919050565b600080600080600080600060e0888a031215611802578283fd5b61180b886117d2565b9650602088013561ffff81168114611821578384fd5b955061182f604089016117d2565b945061183d606089016117d2565b935061184b608089016117d2565b925061185960a089016117d2565b915061186760c089016117d2565b905092959891949750929550565b60008351611887818460208801611ea1565b83519083019061189b818360208801611ea1565b61016160f51b9101908152600201949350505050565b600085516118c3818460208a01611ea1565b8083019050600160fd1b80825286516118e3816001850160208b01611ea1565b600192019182018190528551611900816002850160208a01611ea1565b6002920191820152835161191b816003840160208801611ea1565b016003019695505050505050565b6000825161193b818460208701611ea1565b61016160f51b920191825250600201919050565b7f7b2274726169745f74797065223a20227370656564222c202276616c7565223a815261101160f11b602082015260008251611992816022850160208701611ea1565b61227d60f01b6022939091019283015250602401919050565b7f7b2274726169745f74797065223a20227a6f6f6d222c202276616c7565223a208152601160f91b6020820152600082516119ed816021850160208701611ea1565b61227d60f01b6021939091019283015250602301919050565b7f7b2274726169745f74797065223a2022726f746174696f6e206465677265657381526c111610113b30b63ab2911d101160991b602082015260008351611a5481602d850160208801611ea1565b7f227d2c207b2274726169745f74797065223a2022726f746174696f6e2072616e602d918401918201527f6765222c202276616c7565223a20220000000000000000000000000000000000604d8201528351611ab781605c840160208801611ea1565b61227d60f01b605c9290910191820152605e01949350505050565b7f7b2274726169745f74797065223a202274696e7420636f6c6f7572222c20227681526730b63ab2911d101160c11b602082015260008251611b1b816028850160208701611ea1565b61227d60f01b6028939091019283015250602a01919050565b7f7b2274726169745f74797065223a2022636f6c6f757220776179222c20227661815266363ab2911d101160c91b602082015260008251611b7c816027850160208701611ea1565b61227d60f01b6027939091019283015250602901919050565b7f7b2274726169745f74797065223a2022666f726d222c202276616c7565223a208152601160f91b6020820152600082516119ed816021850160208701611ea1565b7f2261747472696275746573223a205b00000000000000000000000000000000008152600087516020611c1082600f8601838d01611ea1565b885191840191611c2681600f8501848d01611ea1565b80830192505061016160f51b80600f8401528851611c4a8160118601858d01611ea1565b601193019283018190528751611c668160138601858c01611ea1565b601393019283018190528651611c828160158601858b01611ea1565b60159301928301528451611c9c8160178501848901611ea1565b611cb2601782850101605d60f81b815260010190565b9b9a5050505050505050505050565b7f7b2274726169745f74797065223a20227370656564206d696e222c202276616c8152653ab2911d101160d11b602082015260008351611d08816026850160208801611ea1565b7f227d2c207b2274726169745f74797065223a20227370656564206d6178222c2060269184019182015269113b30b63ab2911d101160b11b60468201528351611d58816050840160208801611ea1565b61227d60f01b60509290910191820152605201949350505050565b7f7b2274726169745f74797065223a2022737472697065207769647468206d696e81526c111610113b30b63ab2911d101160991b602082015260008351611dc181602d850160208801611ea1565b7f227d2c207b2274726169745f74797065223a2022737472697065207769647468602d918401918201527f206d6178222c202276616c7565223a2022000000000000000000000000000000604d8201528351611e2481605e840160208801611ea1565b61227d60f01b605e9290910191820152606001949350505050565b6020815260008251806020840152611e5e816040850160208701611ea1565b601f01601f19169190910160400192915050565b600060ff821660ff841680821015611e9857634e487b7160e01b83526011600452602483fd5b90039392505050565b60005b83811015611ebc578181015183820152602001611ea4565b83811115611ecb576000848401525b50505050565b600061ffff80841680611ef257634e487b7160e01b83526012600452602483fd5b9216919091069291505056fea2646970667358221220977fd85287fceafa18e4fca7842934605e6d750f5e136fa2904f7b98e166db9664736f6c63430008040033",
  "linkReferences": {},
  "deployedLinkReferences": {}
}