{
  "_format": "hh-sol-artifact-1",
  "contractName": "TestDynaTraits",
  "sourceName": "contracts/TestDynaTraits.sol",
  "abi": [
    {
      "inputs": [
        {
          "internalType": "bool",
          "name": "descTraitsEnabled",
          "type": "bool"
        },
        {
          "internalType": "uint24",
          "name": "_randomSeed",
          "type": "uint24"
        },
        {
          "internalType": "uint8",
          "name": "_zoom",
          "type": "uint8"
        },
        {
          "internalType": "uint8",
          "name": "_rotationMin",
          "type": "uint8"
        },
        {
          "internalType": "uint8",
          "name": "_rotationMax",
          "type": "uint8"
        },
        {
          "internalType": "uint8",
          "name": "_stripeWidthMin",
          "type": "uint8"
        },
        {
          "internalType": "uint8",
          "name": "_stripeWidthMax",
          "type": "uint8"
        },
        {
          "internalType": "uint8",
          "name": "_speedMin",
          "type": "uint8"
        },
        {
          "internalType": "uint8",
          "name": "_speedMax",
          "type": "uint8"
        }
      ],
      "name": "getTraits",
      "outputs": [
        {
          "internalType": "string",
          "name": "",
          "type": "string"
        }
      ],
      "stateMutability": "pure",
      "type": "function"
    }
  ],
  "bytecode": "0x608060405234801561001057600080fd5b50611fdd806100206000396000f3fe608060405234801561001057600080fd5b506004361061002b5760003560e01c806354701ec614610030575b600080fd5b61004361003e3660046117d8565b610059565b6040516100509190611ee7565b60405180910390f35b604080516101808101825262ffffff8a16815260ff808a16602083015260c892820192909252606460608281018290526080830191909152607f60a083015288831660c083015287831660e08301528683166101008301528583166101208301528483166101408301529183166101608201526100d68b826100e5565b9b9a5050505050505050505050565b606060006100f9836020015160ff166102f6565b6040516020016101099190611a7c565b6040516020818303038152906040529050600061012c846040015160ff166102f6565b61013c856060015160ff166102f6565b61014c866080015160ff166102f6565b61015c8760a0015160ff166102f6565b60405160200161016f94939291906118ca565b60405160208183030381529060405290506000816040516020016101939190611ad7565b604051602081830303815290604052905060006101b68660c0015160ff166102f6565b6101c68760e0015160ff166102f6565b6040516020016101d79291906119c4565b604051602081830303815290604052905060006101fb87610100015160ff166102f6565b61020c88610120015160ff166102f6565b60405160200161021d929190611e1b565b6040516020818303038152906040529050600061024188610140015160ff166102f6565b61025289610160015160ff166102f6565b604051602001610263929190611d69565b604051602081830303815290604052905088156102bf57600061028589610534565b90508087868686866040516020016102a296959493929190611bdc565b6040516020818303038152906040529750505050505050506102f0565b85848484846040516020016102d8959493929190611ca9565b60405160208183030381529060405296505050505050505b92915050565b6060610100821061033c5760405162461bcd60e51b815260206004820152600c60248201526b696e70757420746f2062696760a01b604482015260640160405180910390fd5b8161035e5750506040805180820190915260018152600360fc1b602082015290565b6060600a8310156103d05760408051600180825281830190925290602082018180368337019050509050600a835b0660300160f81b816000815181106103b457634e487b7160e01b600052603260045260246000fd5b60200101906001600160f81b031916908160001a9053506102f0565b60648310156104445760408051600280825281830190925290602082018180368337019050509050600a830660300160f81b8160018151811061042357634e487b7160e01b600052603260045260246000fd5b60200101906001600160f81b031916908160001a905350600a80840461038c565b60408051600380825281830190925290602082018180368337019050509050600a830660300160f81b8160028151811061048e57634e487b7160e01b600052603260045260246000fd5b60200101906001600160f81b031916908160001a905350600a8084040660300160f81b816001815181106104d257634e487b7160e01b600052603260045260246000fd5b60200101906001600160f81b031916908160001a905350600a606484040660300160f81b8160008151811061051757634e487b7160e01b600052603260045260246000fd5b60200101906001600160f81b031916908160001a90535092915050565b6060808260e0015160ff168360c0015160ff16141561076c576032836020015160ff161180156105755750605a8360e001516105709190611f79565b60ff16155b156105b4575060408051808201909152600e81527f70657266656374207371756172650000000000000000000000000000000000006020820152610f29565b8260e0015160ff16602d14806105d157508260e0015160ff166087145b80156105e45750605b836020015160ff16115b15610623575060408051808201909152600f81527f70657266656374206469616d6f6e6400000000000000000000000000000000006020820152610f29565b6032836020015160ff161115801561064257508260e0015160ff16605a145b15610681575060408051808201909152601281527f686f72697a6f6e74616c207374726970657300000000000000000000000000006020820152610f29565b6032836020015160ff16111580156106aa575060b48360e001516106a59190611f79565b60ff16155b156106e9575060408051808201909152601081527f766572746963616c2073747269706573000000000000000000000000000000006020820152610f29565b6019836020015160ff1611610732575060408051808201909152601081527f646961676f6e616c2073747269706573000000000000000000000000000000006020820152610f29565b5060408051808201909152600e81527f726f7461746564207371756172650000000000000000000000000000000000006020820152610f29565b601e8360c001518460e001516107829190611f1a565b60ff1610801561079a575060c883610100015160ff16115b80156107ad57506014836020015160ff16105b156107ec575060408051808201909152600f81527f62696720666174207374726970657300000000000000000000000000000000006020820152610f29565b603c83610120015160ff1610801561081a5750601e8360c001518460e001516108159190611f1a565b60ff16105b15610848575060408051808201909152600c81526b6d6174636820737469636b7360a01b6020820152610f29565b603c83610120015160ff16108015610876575060828360c001518460e001516108719190611f1a565b60ff16115b80156108895750601e836020015160ff16115b156108b5575060408051808201909152600a815269189a5c991cc81b995cdd60b21b6020820152610f29565b603c83610120015160ff161080156108e3575060828360c001518460e001516108de9190611f1a565b60ff16115b80156108f65750601e836020015160ff16105b15610923575060408051808201909152600b81526a6c61736572206265616d7360a81b6020820152610f29565b603c836020015160ff16118015610942575060b483610100015160ff16115b80156109645750601e8360c001518460e0015161095f9190611f1a565b60ff16105b8015610986575060058360c001518460e001516109819190611f1a565b60ff16115b80156109aa575060a08360c0015160ff1611806109aa5750601e8360e0015160ff16105b156109e9575060408051808201909152600f81527f636c7574746572656420626f6f6b7300000000000000000000000000000000006020820152610f29565b60b483610100015160ff16118015610a185750601e8360c001518460e00151610a129190611f1a565b60ff1611155b8015610a2b5750604b8360c0015160ff16115b8015610a3e575060698360e0015160ff16105b15610a6d575060408051808201909152600d81526c737461636b656420626f6f6b7360981b6020820152610f29565b603283610100015160ff16118015610a8d5750609683610120015160ff16105b8015610aaf575060328360c001518460e00151610aaa9190611f1a565b60ff16105b8015610ac2575060238360c0015160ff16115b8015610ad5575060918360e0015160ff16105b8015610ae857506037836020015160ff16115b15610b17575060408051808201909152600d81526c313937b5b2b7103630b23232b960991b6020820152610f29565b60c883610100015160ff16118015610b3657506046836020015160ff16115b15610b65575060408051808201909152600d81526c6769616e742070696c6c61727360981b6020820152610f29565b604683610100015160ff16118015610b8457506014836020015160ff16105b8015610ba65750602d8360c001518460e00151610ba19190611f1a565b60ff16105b8015610bc85750600f8360c001518460e00151610bc39190611f1a565b60ff16115b15610bf15750604080518082019091526007815266726962626f6e7360c81b6020820152610f29565b604b83610120015160ff16108015610c1057506014836020015160ff16105b8015610c325750602d8360c001518460e00151610c2d9190611f1a565b60ff16105b8015610c545750600f8360c001518460e00151610c4f9190611f1a565b60ff16115b15610c7f575060408051808201909152600981526873747265616d65727360b81b6020820152610f29565b601983610100015160ff16118015610c9f575060c883610120015160ff16105b8015610cc15750600f8360c001518460e00151610cbc9190611f1a565b60ff16105b15610cea57506040805180820190915260078152666a69747465727960c81b6020820152610f29565b602883610120015160ff161015610d205750604080518082019091526008815267747769676c65747360c01b6020820152610f29565b603c8360c001518460e00151610d369190611f1a565b60ff16108015610d4e575060328360c0015160ff1610155b8015610d62575060828360e0015160ff1611155b8015610d8757506096836101000151846101200151610d819190611f1a565b60ff1610155b15610db3575060408051808201909152600a815269636f6c6c617073696e6760b01b6020820152610f29565b60c883610100015160ff16118015610dd257506032836020015160ff16115b15610dfa5750604080518082019091526006815265626c6f636b7960d01b6020820152610f29565b60648360c001518460e00151610e109190611f1a565b60ff16118015610e285750609683610120015160ff16105b15610e4e57506040805180820190915260048152631dda5b1960e21b6020820152610f29565b60648360c001518460e00151610e649190611f1a565b60ff16108015610e7c5750609683610100015160ff16115b15610ea2575060408051808201909152600481526374616d6560e01b6020820152610f29565b609683610100015160ff161115610ed55750604080518082019091526005815264746869636b60d81b6020820152610f29565b606483610120015160ff161015610f0757506040805180820190915260048152633a3434b760e11b6020820152610f29565b506040805180820190915260098152680e4c2dcc8dedad2e6d60bb1b60208201525b6060607f8460a0015160ff1611156113fc5760006096905060c88560a0015160ff16118015610f5f57506032856040015160ff16105b8015610f7257506032856060015160ff16105b8015610f8557506032856080015160ff16105b15610fc7576040518060400160405280600e81526020017f646f6f6d20616e6420676c6f6f6d00000000000000000000000000000000000081525091506113f6565b60c88560a0015160ff16118015610fe5575060c8856040015160ff16115b8015610ff8575060c8856060015160ff16115b801561100b575060c8856080015160ff16115b1561103c576040518060400160405280600c81526020016b1cd9595b88184819da1bdcdd60a21b81525091506113f6565b846060015160ff16856040015160ff1611801561106f575080856060015186604001516110699190611f1a565b60ff1610155b80156110885750846080015160ff16856040015160ff16115b80156110aa575080856080015186604001516110a49190611f1a565b60ff1610155b156110d357604051806040016040528060048152602001637265647360e01b81525091506113f6565b846040015160ff16856060015160ff16118015611106575080856040015186606001516111009190611f1a565b60ff1610155b801561111f5750846080015160ff16856060015160ff16115b80156111415750808560800151866060015161113b9190611f1a565b60ff1610155b1561116c5760405180604001604052806006815260200165677265656e7360d01b81525091506113f6565b846040015160ff16856080015160ff1611801561119f575080856040015186608001516111999190611f1a565b60ff1610155b80156111b85750846060015160ff16856080015160ff16115b80156111da575080856060015186608001516111d49190611f1a565b60ff1610155b156112045760405180604001604052806005815260200164626c75657360d81b81525091506113f6565b846060015160ff16856040015160ff16118015611237575080856060015186604001516112319190611f1a565b60ff1610155b80156112505750846060015160ff16856080015160ff16115b80156112725750808560600151866080015161126c9190611f1a565b60ff1610155b1561129e576040518060400160405280600781526020016676696f6c65747360c81b81525091506113f6565b846080015160ff16856040015160ff161180156112d1575080856080015186604001516112cb9190611f1a565b60ff1610155b80156112ea5750846080015160ff16856060015160ff16115b801561130c575080856080015186606001516113069190611f1a565b60ff1610155b15611338576040518060400160405280600781526020016679656c6c6f777360c81b81525091506113f6565b846040015160ff16856080015160ff1611801561136b575080856040015186608001516113659190611f1a565b60ff1610155b80156113845750846040015160ff16856060015160ff16115b80156113a6575080856040015186606001516113a09190611f1a565b60ff1610155b156113d057604051806040016040528060058152602001646379616e7360d81b81525091506113f6565b6040518060400160405280600a8152602001691a19585d9e481d1a5b9d60b21b81525091505b5061148d565b60a084015160ff16611432575060408051808201909152600d81526c73757065722064796e616d696360981b602082015261148d565b603c8460a0015160ff161015611469575060408051808201909152600a8152691b1a59da1d081d1a5b9d60b21b602082015261148d565b5060408051808201909152600b81526a1b59591a5d5b481d1a5b9d60aa1b60208201525b6060601985610160015160ff16111580156114af575060b48560a0015160ff16105b156114ee575060408051808201909152600f81527f63616c6c2074686520706f6c696365000000000000000000000000000000000060208201526116c4565b84610160015160ff1685610140015160ff161480156115155750601e85610160015160ff16105b1561153f5750604080518082019091526008815267626c696e6b696e6760c01b60208201526116c4565b84610160015160ff1685610140015160ff16148015611566575060c885610160015160ff16115b15611592575060408051808201909152600a815269736c6f772070756c736560b01b60208201526116c4565b84610160015160ff1685610140015160ff1614156115cc575060408051808201909152600581526470756c736560d81b60208201526116c4565b603285610160015160ff161015611604575060408051808201909152600a815269666c69636b6572696e6760b01b60208201526116c4565b606485610160015160ff16101561163757506040805180820190915260058152647a6970707960d81b60208201526116c4565b60c885610140015160ff16111561166f575060408051808201909152600a8152693832b232b9ba3934b0b760b11b60208201526116c4565b609685610140015160ff1611156116a35750604080518082019091526006815265736c6565707960d01b60208201526116c4565b506040805180820190915260088152677368696674696e6760c01b60208201525b60608351600014611717576000846040516020016116e29190611b9a565b6040516020818303038152906040529050806040516020016117049190611942565b6040516020818303038152906040529150505b815115611768576000826040516020016117319190611968565b6040516020818303038152906040529050818160405160200161175592919061188e565b6040516020818303038152906040529150505b8251156117b9576000836040516020016117829190611b39565b604051602081830303815290604052905081816040516020016117a692919061188e565b6040516020818303038152906040529150505b95945050505050565b803560ff811681146117d357600080fd5b919050565b60008060008060008060008060006101208a8c0312156117f6578485fd5b89358015158114611805578586fd5b985060208a013562ffffff8116811461181c578586fd5b975061182a60408b016117c2565b965061183860608b016117c2565b955061184660808b016117c2565b945061185460a08b016117c2565b935061186260c08b016117c2565b925061187060e08b016117c2565b915061187f6101008b016117c2565b90509295985092959850929598565b600083516118a0818460208801611f49565b8351908301906118b4818360208801611f49565b61016160f51b9101908152600201949350505050565b600085516118dc818460208a01611f49565b8083019050600160fd1b80825286516118fc816001850160208b01611f49565b600192019182018190528551611919816002850160208a01611f49565b60029201918201528351611934816003840160208801611f49565b016003019695505050505050565b60008251611954818460208701611f49565b61016160f51b920191825250600201919050565b7f7b2274726169745f74797065223a20227370656564222c202276616c7565223a815261101160f11b6020820152600082516119ab816022850160208701611f49565b61227d60f01b6022939091019283015250602401919050565b7f7b2274726169745f74797065223a2022726f746174696f6e206d696e222c20228152683b30b63ab2911d101160b91b602082015260008351611a0e816029850160208801611f49565b7f227d2c207b2274726169745f74797065223a2022726f746174696f6e206d61786029918401918201526c111610113b30b63ab2911d101160991b60498201528351611a61816056840160208801611f49565b61227d60f01b60569290910191820152605801949350505050565b7f7b2274726169745f74797065223a20227a6f6f6d222c202276616c7565223a208152601160f91b602082015260008251611abe816021850160208701611f49565b61227d60f01b6021939091019283015250602301919050565b7f7b2274726169745f74797065223a202274696e7420636f6c6f7572222c20227681526730b63ab2911d101160c11b602082015260008251611b20816028850160208701611f49565b61227d60f01b6028939091019283015250602a01919050565b7f7b2274726169745f74797065223a2022636f6c6f757220776179222c20227661815266363ab2911d101160c91b602082015260008251611b81816027850160208701611f49565b61227d60f01b6027939091019283015250602901919050565b7f7b2274726169745f74797065223a2022666f726d222c202276616c7565223a208152601160f91b602082015260008251611abe816021850160208701611f49565b6e2261747472696275746573223a205b60881b8152600087516020611c0782600f8601838d01611f49565b885191840191611c1d81600f8501848d01611f49565b80830192505061016160f51b80600f8401528851611c418160118601858d01611f49565b601193019283018190528751611c5d8160138601858c01611f49565b601393019283018190528651611c798160158601858b01611f49565b60159301928301528451611c938160178501848901611f49565b6100d6601782850101605d60f81b815260010190565b6e2261747472696275746573223a205b60881b815260008651611cd381600f850160208b01611f49565b808301905061016160f51b80600f8301528751611cf7816011850160208c01611f49565b601192019182018190528651611d14816013850160208b01611f49565b601392019182018190528551611d31816015850160208a01611f49565b60159201918201528351611d4c816017840160208801611f49565b605d60f81b60179290910191820152601801979650505050505050565b7f7b2274726169745f74797065223a20227370656564206d696e222c202276616c8152653ab2911d101160d11b602082015260008351611db0816026850160208801611f49565b7f227d2c207b2274726169745f74797065223a20227370656564206d6178222c2060269184019182015269113b30b63ab2911d101160b11b60468201528351611e00816050840160208801611f49565b61227d60f01b60509290910191820152605201949350505050565b7f7b2274726169745f74797065223a2022737472697065207769647468206d696e81526c111610113b30b63ab2911d101160991b602082015260008351611e6981602d850160208801611f49565b7f227d2c207b2274726169745f74797065223a2022737472697065207769647468602d918401918201527f206d6178222c202276616c7565223a2022000000000000000000000000000000604d8201528351611ecc81605e840160208801611f49565b61227d60f01b605e9290910191820152606001949350505050565b6020815260008251806020840152611f06816040850160208701611f49565b601f01601f19169190910160400192915050565b600060ff821660ff841680821015611f4057634e487b7160e01b83526011600452602483fd5b90039392505050565b60005b83811015611f64578181015183820152602001611f4c565b83811115611f73576000848401525b50505050565b600060ff831680611f9857634e487b7160e01b82526012600452602482fd5b8060ff8416069150509291505056fea264697066735822122015545e3286f0660e1776ab758ee1f3b8fa81c5361ec61d14637a4f3a7bdd19d664736f6c63430008040033",
  "linkReferences": {},
  "deployedLinkReferences": {}
}