{
  "_format": "hh-sol-artifact-1",
  "contractName": "TestDynaTraits",
  "sourceName": "contracts/TestDynaTraits.sol",
  "abi": [
    {
      "inputs": [
        {
          "internalType": "uint8",
          "name": "_zoom",
          "type": "uint8"
        },
        {
          "internalType": "uint16",
          "name": "_rotationDegrees",
          "type": "uint16"
        },
        {
          "internalType": "uint8",
          "name": "_rotationRange",
          "type": "uint8"
        },
        {
          "internalType": "uint8",
          "name": "_stripeWidthMin",
          "type": "uint8"
        },
        {
          "internalType": "uint8",
          "name": "_stripeWidthMax",
          "type": "uint8"
        },
        {
          "internalType": "uint8",
          "name": "_speedMin",
          "type": "uint8"
        },
        {
          "internalType": "uint8",
          "name": "_speedMax",
          "type": "uint8"
        }
      ],
      "name": "getTraits",
      "outputs": [
        {
          "internalType": "string",
          "name": "",
          "type": "string"
        }
      ],
      "stateMutability": "pure",
      "type": "function"
    }
  ],
  "bytecode": "0x608060405234801561001057600080fd5b50612324806100206000396000f3fe608060405234801561001057600080fd5b506004361061002b5760003560e01c806389ee246314610030575b600080fd5b61004361003e366004611b2b565b610059565b604051610050919061222f565b60405180910390f35b6040805161018081018252600180825260ff808b16602084015260c893830193909352606460608381018290526080840191909152607f60a084015261ffff8a1660c084015288841660e0840152878416610100840152868416610120840152858416610140840152928416610160830152906100d5816100e3565b9a9950505050505050505050565b606060006100f7836020015160ff166102b8565b6040516020016101079190611d24565b6040516020818303038152906040529050600061012a846040015160ff166102b8565b61013a856060015160ff166102b8565b61014a866080015160ff166102b8565b61015a8760a0015160ff166102b8565b60405160200161016d9493929190611bf4565b60405160208183030381529060405290506000816040516020016101919190611e3d565b604051602081830303815290604052905060006101b58660c0015161ffff166104f8565b6101c58760e0015160ff166102b8565b6040516020016101d6929190611d7f565b604051602081830303815290604052905060006101fa87610100015160ff166102b8565b61020b88610120015160ff166102b8565b60405160200161021c929190612163565b6040516020818303038152906040529050600061024088610140015160ff166102b8565b61025189610160015160ff166102b8565b60405160200161026292919061201f565b6040516020818303038152906040529050600061027e896105f1565b905080878686868660405160200161029b96959493929190611f42565b604051602081830303815290604052975050505050505050919050565b606061010082106102ff5760405162461bcd60e51b815260206004820152600d60248201526c696e70757420746f6f2062696760981b604482015260640160405180910390fd5b816103215750506040805180820190915260018152600360fc1b602082015290565b6060600a8310156103935760408051600180825281830190925290602082018180368337019050509050600a835b0660300160f81b8160008151811061037757634e487b7160e01b600052603260045260246000fd5b60200101906001600160f81b031916908160001a9053506104f2565b60648310156104075760408051600280825281830190925290602082018180368337019050509050600a830660300160f81b816001815181106103e657634e487b7160e01b600052603260045260246000fd5b60200101906001600160f81b031916908160001a905350600a80840461034f565b60408051600380825281830190925290602082018180368337019050509050600a830660300160f81b8160028151811061045157634e487b7160e01b600052603260045260246000fd5b60200101906001600160f81b031916908160001a905350600a8084040660300160f81b8160018151811061049557634e487b7160e01b600052603260045260246000fd5b60200101906001600160f81b031916908160001a905350600a606484040660300160f81b816000815181106104da57634e487b7160e01b600052603260045260246000fd5b60200101906001600160f81b031916908160001a9053505b92915050565b60608161051c5750506040805180820190915260018152600360fc1b602082015290565b8160005b811561053457600101600a82049150610520565b60008167ffffffffffffffff81111561055d57634e487b7160e01b600052604160045260246000fd5b6040519080825280601f01601f191660200182016040528015610587576020820181803683370190505b508593509050815b83156105e857600a840660300160f81b828260019003925082815181106105c657634e487b7160e01b600052603260045260246000fd5b60200101906001600160f81b031916908160001a905350600a8404935061058f565b50949350505050565b60606104f282602001518360400151846060015185608001518660a001518760c001518860e001518961010001518a61012001518b61014001518c610160015160608060828960ff1611801561064a575060dc8460ff16115b1561067357506040805180820190915260078152661b185b99dd5a5960ca1b602082015261094f565b60828960ff16118015610689575060c88460ff16115b156106b5575060408051808201909152600a8152693832b232b9ba3934b0b760b11b602082015261094f565b60198360ff16111580156106cc575060b48960ff16105b156106f357506040805180820190915260058152646d616e696360d81b60208201526108b3565b8260ff168460ff16141561078857601e8360ff1610156107325750604080518082019091526008815267626c696e6b696e6760c01b60208201526108b3565b60c88360ff16111561076457506040805180820190915260098152687468726f6262696e6760b81b60208201526108b3565b5060408051808201909152600781526670756c73696e6760c81b60208201526108b3565b60238360ff1610156107b95750604080518082019091526008815267666c617368696e6760c01b60208201526108b3565b60468360ff1610156107ec575060408051808201909152600a815269666c69636b6572696e6760b01b60208201526108b3565b60698360ff16101561081e5750604080518082019091526009815268717569766572696e6760b81b60208201526108b3565b60968360ff1610156108505750604080518082019091526009815268766962726174696e6760b81b60208201526108b3565b609661085c8585612262565b60ff16111561088f575060408051808201909152600d81526c7363696e74696c6c6174696e6760981b60208201526108b3565b5060408051808201909152600b81526a6f7363696c6c6174696e6760a81b60208201525b60d58960ff1611156108e657806040516020016108d09190612104565b604051602081830303815290604052905061094f565b60c88960ff16111561090357806040516020016108d09190612133565b60148960ff16101561092057806040516020016108d09190611cee565b60328960ff16101561094f578060405160200161093d91906120d1565b60405160208183030381529060405290505b6060607f8a60ff161115610d0457609660c860ff8c16118015610975575060328e60ff16105b8015610984575060328d60ff16105b8015610993575060328c60ff16105b156109be5760405180604001604052806006815260200165676c6f6f6d7960d01b8152509150610cfe565b60c88b60ff161180156109d4575060c88e60ff16115b80156109e3575060c88d60ff16115b80156109f2575060c88c60ff16115b15610a1b576040518060400160405280600481526020016370616c6560e01b8152509150610cfe565b8c60ff168e60ff16118015610a3e5750808d8f610a389190612262565b60ff1610155b8015610a4f57508b60ff168e60ff16115b8015610a695750808c8f610a639190612262565b60ff1610155b15610a9157604051806040016040528060038152602001621c995960ea1b8152509150610cfe565b8d60ff168d60ff16118015610ab2575080610aac8f8f612262565b60ff1610155b8015610ac357508b60ff168d60ff16115b8015610adb575080610ad58d8f612262565b60ff1610155b15610b05576040518060400160405280600581526020016433b932b2b760d91b8152509150610cfe565b8d60ff168c60ff16118015610b26575080610b208f8e612262565b60ff1610155b8015610b3757508c60ff168c60ff16115b8015610b4f575080610b498e8e612262565b60ff1610155b15610b785760405180604001604052806004815260200163626c756560e01b8152509150610cfe565b8c60ff168e60ff16118015610b9b5750808d8f610b959190612262565b60ff1610155b8015610bac57508c60ff168c60ff16115b8015610bc4575080610bbe8e8e612262565b60ff1610155b15610bef57604051806040016040528060068152602001651d9a5bdb195d60d21b8152509150610cfe565b8b60ff168e60ff16118015610c125750808c8f610c0c9190612262565b60ff1610155b8015610c2357508b60ff168d60ff16115b8015610c3b575080610c358d8f612262565b60ff1610155b15610c66576040518060400160405280600681526020016579656c6c6f7760d01b8152509150610cfe565b8d60ff168c60ff16118015610c87575080610c818f8e612262565b60ff1610155b8015610c9857508d60ff168d60ff16115b8015610cb0575080610caa8f8f612262565b60ff1610155b15610cd9576040518060400160405280600481526020016331bcb0b760e11b8152509150610cfe565b604051806040016040528060098152602001681cd85d1d5c985d195960ba1b81525091505b50610de4565b60ff8a16610d36575060408051808201909152600d81526c6b616c6569646f73636f70696360981b6020820152610de4565b60198a60ff161015610d6857506040805180820190915260098152686368726f6d6174696360b81b6020820152610de4565b60328a60ff161015610d9657506040805180820190915260058152641d9a5d9a5960da1b6020820152610de4565b60558a60ff161015610dc557506040805180820190915260068152651d1a5b99d95960d21b6020820152610de4565b506040805180820190915260068152651d1a5b9d195960d21b60208201525b6060610df160b48b6122c1565b995060ff8916610faa5760328f60ff16118015610e1a5750610e14605a8b6122c1565b61ffff16155b15610e4a575060408051808201909152600e81526d706572666563742073717561726560901b6020820152611a0d565b605b8f60ff16118015610e6f57508961ffff16602d1480610e6f57508961ffff166087145b15610ea0575060408051808201909152600f81526e1c195c999958dd08191a585b5bdb99608a1b6020820152611a0d565b60328f60ff1611158015610eb6575061ffff8a16155b15610ee8575060408051808201909152601081526f766572746963616c207374726970657360801b6020820152611a0d565b60328f60ff1611158015610f085750610f02605a8b6122c1565b61ffff16155b15610f47575060408051808201909152601281527f686f72697a6f6e74616c207374726970657300000000000000000000000000006020820152611a0d565b60198f60ff1611610f7f575060408051808201909152601081526f646961676f6e616c207374726970657360801b6020820152611a0d565b5060408051808201909152600e81526d726f74617465642073717561726560901b6020820152611a0d565b601e8f60ff1610156111f45760148f60ff16108015610fcc575060468860ff16115b8015610fdb5750603c8960ff16105b8015610fea5750600a8960ff16115b156110135750604080518082019091526007815266726962626f6e7360c81b6020820152611a0d565b60148f60ff161080156110295750601e8960ff16105b8015611038575060c88860ff16115b15611061575060408051808201909152600781526662616e6e65727360c81b6020820152611a0d565b60148f60ff161080156110775750604b8760ff16105b80156110865750603c8960ff16105b80156110955750600a8960ff16115b156110c0575060408051808201909152600981526873747265616d65727360b81b6020820152611a0d565b603c8760ff161080156110d6575060828960ff16115b15611103575060408051808201909152600b81526a6c61736572206265616d7360a81b6020820152611a0d565b60788760ff1610801561111b5750602d8a61ffff1610155b801561112b575060878a61ffff16105b1561115257506040805180820190915260058152646265616d7360d81b6020820152611a0d565b60788760ff161080156111685750605a8960ff16105b1561118f5750604080518082019091526005815264706f6c657360d81b6020820152611a0d565b602d8a61ffff16101580156111a8575060878a61ffff16105b156111d1575060408051808201909152600781526673747265616b7360c81b6020820152611a0d565b5060408051808201909152600681526573686166747360d01b6020820152611a0d565b60328f60ff1611801561120a5750603c8760ff16105b80156112195750601e8960ff16105b15611247575060408051808201909152600c81526b6d6174636820737469636b7360a01b6020820152611a0d565b60328f60ff1611801561125d5750603c8760ff16105b801561126c5750603c8960ff16105b156112ab575060408051808201909152601681527f736361747465726564206d6174636820737469636b73000000000000000000006020820152611a0d565b60328f60ff161180156112c1575060468860ff16115b80156112d05750606e8760ff16105b80156112df5750600a8960ff16115b80156112ee575060288960ff16105b156113155750604080518082019091526005815264747769677360d81b6020820152611a0d565b60328f60ff1611801561132b575060468860ff16115b801561133a5750606e8760ff16105b80156113495750600a8960ff16115b80156113585750603c8960ff16105b15611389575060408051808201909152600f81526e73636174746572656420747769677360881b6020820152611a0d565b60508f60ff1611801561139f5750603c8760ff16105b80156113ae575060828960ff16115b156113da575060408051808201909152600a815269189a5c991cc81b995cdd60b21b6020820152611a0d565b60468f60ff161180156113f0575060468960ff16105b80156113ff575060c88860ff16115b801561141f575060198a61ffff1611158061141f5750609b8a61ffff1610155b15611448575060408051808201909152600781526670696c6c61727360c81b6020820152611a0d565b60468f60ff1611801561145e575060468960ff16105b801561146d575060c88860ff16115b801561148e575060738a61ffff161115801561148e575060418a61ffff1610155b156114b65750604080518082019091526006815265627269636b7360d01b6020820152611a0d565b60378f60ff161180156114cc575060468860ff16115b80156114dc575060058960ff1610155b80156114ec5750601e8960ff1611155b801561150c5750600a8a61ffff1611158061150c575060aa8a61ffff1610155b1561153d575060408051808201909152600f81526e636c7574746572656420626f6f6b7360881b6020820152611a0d565b60378f60ff16118015611553575060468860ff16115b80156115635750601e8960ff1611155b8015611574575060508a61ffff1610155b8015611585575060648a61ffff1611155b156115b4575060408051808201909152600d81526c737461636b656420626f6f6b7360981b6020820152611a0d565b60378f60ff161180156115ca575060468860ff16115b80156115d95750603c8960ff16105b80156115ea575060328a61ffff1610155b80156115fb575060828a61ffff1611155b1561162b575060408051808201909152600e81526d74756d626c696e6720626f6f6b7360901b6020820152611a0d565b60378f60ff16118015611641575060328860ff16115b8015611650575060968760ff16105b801561165f575060328960ff16105b8015611670575060508a61ffff1610155b8015611681575060648a61ffff1611155b156116b0575060408051808201909152600d81526c313937b5b2b7103630b23232b960991b6020820152611a0d565b60378f60ff161180156116c65750600a8960ff16115b80156116d55750603c8960ff16105b80156116e6575060328a61ffff1610155b80156116f7575060828a61ffff1611155b80156117105750609661170a8989612262565b60ff1610155b1561174f575060408051808201909152601381527f636f6c6c617073696e67206275696c64696e67000000000000000000000000006020820152611a0d565b60198860ff16118015611765575060c88760ff16105b80156117755750600f8960ff1611155b1561179e57506040805180820190915260078152666a69747465727360c81b6020820152611a0d565b60198860ff161180156117b4575060c88760ff16105b80156117c45750602d8960ff1611155b156117ed5750604080518082019091526007815266776f62626c657360c81b6020820152611a0d565b60328f60ff16118015611803575060c88860ff16115b1561182b5750604080518082019091526006815265626c6f636b7360d01b6020820152611a0d565b605a8f60ff1611801561184b575060966118458989612262565b60ff1610155b801561185a575060968960ff16115b15611887575060408051808201909152600b81526a6d6173746572706965636560a81b6020820152611a0d565b60648960ff1611801561189d575060968760ff16105b156118c557506040805180820190915260068152656c756e61637960d01b6020820152611a0d565b603c8960ff161080156118db575060968860ff16115b15611908575060408051808201909152600b81526a7472616e7175696c69747960a81b6020820152611a0d565b60788860ff16111561193557506040805180820190915260048152636261727360e01b6020820152611a0d565b60648760ff1610801561194b5750603c8960ff16115b1561197c575060408051808201909152600f81526e736361747465726564206c696e657360881b6020820152611a0d565b60648760ff1610156119aa57506040805180820190915260058152646c696e657360d81b6020820152611a0d565b60288f60ff161180156119c05750605a8960ff16115b156119e957506040805180820190915260078152667265766572696560c81b6020820152611a0d565b5060408051808201909152600b81526a30b139ba3930b1ba34b7b760a91b60208201525b60608151600014611a6057600082604051602001611a2b9190611f00565b604051602081830303815290604052905080604051602001611a4d9190611c6c565b6040516020818303038152906040529150505b835115611ab157600084604051602001611a7a9190611c92565b60405160208183030381529060405290508181604051602001611a9e929190611bb8565b6040516020818303038152906040529150505b825115611b0257600083604051602001611acb9190611e9f565b60405160208183030381529060405290508181604051602001611aef929190611bb8565b6040516020818303038152906040529150505b9f9e505050505050505050505050505050565b803560ff81168114611b2657600080fd5b919050565b600080600080600080600060e0888a031215611b45578283fd5b611b4e88611b15565b9650602088013561ffff81168114611b64578384fd5b9550611b7260408901611b15565b9450611b8060608901611b15565b9350611b8e60808901611b15565b9250611b9c60a08901611b15565b9150611baa60c08901611b15565b905092959891949750929550565b60008351611bca818460208801612291565b835190830190611bde818360208801612291565b61016160f51b9101908152600201949350505050565b60008551611c06818460208a01612291565b8083019050600160fd1b8082528651611c26816001850160208b01612291565b600192019182018190528551611c43816002850160208a01612291565b60029201918201528351611c5e816003840160208801612291565b016003019695505050505050565b60008251611c7e818460208701612291565b61016160f51b920191825250600201919050565b7f7b2274726169745f74797065223a20227370656564222c202276616c7565223a815261101160f11b602082015260008251611cd5816022850160208701612291565b61227d60f01b6022939091019283015250602401919050565b6d036b0b3b734b334b1b2b73a363c960951b815260008251611d1781600e850160208701612291565b91909101600e0192915050565b7f7b2274726169745f74797065223a20227a6f6f6d222c202276616c7565223a208152601160f91b602082015260008251611d66816021850160208701612291565b61227d60f01b6021939091019283015250602301919050565b7f7b2274726169745f74797065223a2022726f746174696f6e206465677265657381526c111610113b30b63ab2911d101160991b602082015260008351611dcd81602d850160208801612291565b7f227d2c207b2274726169745f74797065223a2022726f746174696f6e2072616e602d918401918201526e33b2911610113b30b63ab2911d101160891b604d8201528351611e2281605c840160208801612291565b61227d60f01b605c9290910191820152605e01949350505050565b7f7b2274726169745f74797065223a202274696e7420636f6c6f7572222c20227681526730b63ab2911d101160c11b602082015260008251611e86816028850160208701612291565b61227d60f01b6028939091019283015250602a01919050565b7f7b2274726169745f74797065223a2022636f6c6f757220776179222c20227661815266363ab2911d101160c91b602082015260008251611ee7816027850160208701612291565b61227d60f01b6027939091019283015250602901919050565b7f7b2274726169745f74797065223a2022666f726d222c202276616c7565223a208152601160f91b602082015260008251611d66816021850160208701612291565b6e2261747472696275746573223a205b60881b815286516000906020611f6e82600f8601838d01612291565b885191840191611f8481600f8501848d01612291565b80830192505061016160f51b80600f8401528851611fa88160118601858d01612291565b601193019283018190528751611fc48160138601858c01612291565b601393019283018190528651611fe08160158601858b01612291565b60159301928301528451611ffa8160178501848901612291565b612010601782850101605d60f81b815260010190565b9b9a5050505050505050505050565b7f7b2274726169745f74797065223a20227370656564206d696e222c202276616c8152653ab2911d101160d11b602082015260008351612066816026850160208801612291565b7f227d2c207b2274726169745f74797065223a20227370656564206d6178222c2060269184019182015269113b30b63ab2911d101160b11b604682015283516120b6816050840160208801612291565b61227d60f01b60509290910191820152605201949350505050565b6a03837bbb2b9333ab6363c960ad1b8152600082516120f781600b850160208701612291565b91909101600b0192915050565b66033b2b73a363c960cd1b815260008251612126816007850160208701612291565b9190910160070192915050565b6703a32b834b2363c960c51b815260008251612156816008850160208701612291565b9190910160080192915050565b7f7b2274726169745f74797065223a2022737472697065207769647468206d696e81526c111610113b30b63ab2911d101160991b6020820152600083516121b181602d850160208801612291565b7f227d2c207b2274726169745f74797065223a2022737472697065207769647468602d918401918201527f206d6178222c202276616c7565223a2022000000000000000000000000000000604d820152835161221481605e840160208801612291565b61227d60f01b605e9290910191820152606001949350505050565b602081526000825180602084015261224e816040850160208701612291565b601f01601f19169190910160400192915050565b600060ff821660ff84168082101561228857634e487b7160e01b83526011600452602483fd5b90039392505050565b60005b838110156122ac578181015183820152602001612294565b838111156122bb576000848401525b50505050565b600061ffff808416806122e257634e487b7160e01b83526012600452602483fd5b9216919091069291505056fea2646970667358221220ebe68c2f793d8d9e4273b1612e82bc4e389abc054908d035f9c1a33337ff03cb64736f6c63430008040033",
  "linkReferences": {},
  "deployedLinkReferences": {}
}