{
  "_format": "hh-sol-artifact-1",
  "contractName": "TestDynaTraits",
  "sourceName": "contracts/TestDynaTraits.sol",
  "abi": [
    {
      "inputs": [
        {
          "internalType": "uint8",
          "name": "_zoom",
          "type": "uint8"
        },
        {
          "internalType": "uint16",
          "name": "_rotationDegrees",
          "type": "uint16"
        },
        {
          "internalType": "uint8",
          "name": "_rotationRange",
          "type": "uint8"
        },
        {
          "internalType": "uint8",
          "name": "_stripeWidthMin",
          "type": "uint8"
        },
        {
          "internalType": "uint8",
          "name": "_stripeWidthMax",
          "type": "uint8"
        },
        {
          "internalType": "uint8",
          "name": "_speedMin",
          "type": "uint8"
        },
        {
          "internalType": "uint8",
          "name": "_speedMax",
          "type": "uint8"
        }
      ],
      "name": "getName",
      "outputs": [
        {
          "internalType": "string",
          "name": "",
          "type": "string"
        }
      ],
      "stateMutability": "pure",
      "type": "function"
    },
    {
      "inputs": [
        {
          "internalType": "uint8",
          "name": "_zoom",
          "type": "uint8"
        },
        {
          "internalType": "uint16",
          "name": "_rotationDegrees",
          "type": "uint16"
        },
        {
          "internalType": "uint8",
          "name": "_rotationRange",
          "type": "uint8"
        },
        {
          "internalType": "uint8",
          "name": "_stripeWidthMin",
          "type": "uint8"
        },
        {
          "internalType": "uint8",
          "name": "_stripeWidthMax",
          "type": "uint8"
        },
        {
          "internalType": "uint8",
          "name": "_speedMin",
          "type": "uint8"
        },
        {
          "internalType": "uint8",
          "name": "_speedMax",
          "type": "uint8"
        }
      ],
      "name": "getTraits",
      "outputs": [
        {
          "internalType": "string",
          "name": "",
          "type": "string"
        }
      ],
      "stateMutability": "pure",
      "type": "function"
    }
  ],
  "bytecode": "0x608060405234801561001057600080fd5b50611a91806100206000396000f3fe608060405234801561001057600080fd5b50600436106100365760003560e01c8063735059ae1461003b57806389ee246314610064575b600080fd5b61004e6100493660046117ed565b610077565b60405161005b919061199c565b60405180910390f35b61004e6100723660046117ed565b610101565b6040805161018081018252600180825260ff808b16602084015260c893830193909352606460608381018290526080840191909152607f60a084015261ffff8a1660c084015288841660e0840152878416610100840152868416610120840152858416610140840152928416610160830152906100f3816101a0565b9a9950505050505050505050565b6040805161018081018252600180825260ff808b16602084015260c893830193909352606460608381018290526080840191909152607f60a084015261ffff8a1660c084015288841660e0840152878416610100840152868416610120840152858416610140840152928416610160830152906100f360408051808201909152600f81526e2261747472696275746573223a5b5d60881b602082015290565b60606101bb8260a00151836101400151846101600151610222565b6101d78360400151846060015185608001518660a0015161060d565b6101fa84602001518560c001518660e00151876101000151886101200151610ba3565b60405160200161020c9392919061187a565b6040516020818303038152906040529050919050565b60608060828560ff1611801561023b575060dc8460ff16115b1561026457506040805180820190915260078152661b185b99dd5a5960ca1b6020820152610605565b60828560ff1611801561027a575060c88460ff16115b156102a6575060408051808201909152600a8152693832b232b9ba3934b0b760b11b6020820152610605565b60198360ff16111580156102bd575060b48560ff16105b156102e457506040805180820190915260058152646d616e696360d81b6020820152610569565b8260ff168460ff16141561037957601e8360ff1610156103235750604080518082019091526008815267626c696e6b696e6760c01b6020820152610569565b60c88360ff16111561035557506040805180820190915260098152687468726f6262696e6760b81b6020820152610569565b5060408051808201909152600781526670756c73696e6760c81b6020820152610569565b60238360ff1610156103aa5750604080518082019091526008815267666c617368696e6760c01b6020820152610569565b60468360ff1610156103dd575060408051808201909152600a815269666c69636b6572696e6760b01b6020820152610569565b60698360ff16101561040f5750604080518082019091526009815268717569766572696e6760b81b6020820152610569565b60968360ff1610156104415750604080518082019091526009815268766962726174696e6760b81b6020820152610569565b60c88460ff161115610474575060408051808201909152600a8152696d65616e646572696e6760b01b6020820152610569565b60968460ff1611156104a557506040805180820190915260088152676472696674696e6760c01b6020820152610569565b60788460ff1611156104d55750604080518082019091526007815266666c6f77696e6760c81b6020820152610569565b60648460ff16111561050657506040805180820190915260088152677368696674696e6760c01b6020820152610569565b609661051285856119cf565b60ff161115610545575060408051808201909152600d81526c7363696e74696c6c6174696e6760981b6020820152610569565b5060408051808201909152600b81526a6f7363696c6c6174696e6760a81b60208201525b60d58560ff16111561059c5780604051602001610586919061193d565b6040516020818303038152906040529050610605565b60c88560ff1611156105b95780604051602001610586919061196c565b60148560ff1610156105d6578060405160200161058691906118d4565b60328560ff16101561060557806040516020016105f3919061190a565b60405160208183030381529060405290505b949350505050565b606080607f8360ff161115610aba57609660c860ff8516118015610634575060328760ff16105b8015610643575060328660ff16105b8015610652575060328560ff16105b1561067d5760405180604001604052806006815260200165676c6f6f6d7960d01b8152509150610ab4565b60c88460ff16118015610693575060c88760ff16115b80156106a2575060c88660ff16115b80156106b1575060c88560ff16115b156106da576040518060400160405280600481526020016370616c6560e01b8152509150610ab4565b8560ff168760ff161180156106fb5750806106f587896119cf565b60ff1610155b801561070c57508460ff168760ff16115b801561072457508061071e86896119cf565b60ff1610155b1561074c57604051806040016040528060038152602001621c995960ea1b8152509150610ab4565b8660ff168660ff16118015610762575060ff8516155b1561078c576040518060400160405280600581526020016433b932b2b760d91b8152509150610ab4565b8660ff168660ff161180156107ad5750806107a788886119cf565b60ff1610155b80156107be57508460ff168660ff16115b80156107d65750806107d086886119cf565b60ff1610155b15610800576040518060400160405280600581526020016433b932b2b760d91b8152509150610ab4565b8660ff168560ff1611801561082157508061081b88876119cf565b60ff1610155b801561083257508560ff168560ff16115b801561084a57508061084487876119cf565b60ff1610155b156108735760405180604001604052806004815260200163626c756560e01b8152509150610ab4565b8660ff1660ff148015610887575060ff8616155b8015610896575060648560ff16115b156108bf576040518060400160405280600481526020016370696e6b60e01b8152509150610ab4565b8560ff168760ff161180156108e05750806108da87896119cf565b60ff1610155b80156108f157508560ff168560ff16115b801561090957508061090387876119cf565b60ff1610155b8015610918575060c88760ff16115b156109435760405180604001604052806006815260200165707572706c6560d01b8152509150610ab4565b8660ff1660ff148015610957575060ff8516155b8015610966575060c88660ff16115b15610991576040518060400160405280600681526020016579656c6c6f7760d01b8152509150610ab4565b8660ff1660ff1480156109a5575060ff8516155b156109d057604051806040016040528060068152602001656f72616e676560d01b8152509150610ab4565b60ff87161580156109e4575060c88660ff16105b80156109f357508460ff1660ff145b15610a1c5760405180604001604052806004815260200163626c756560e01b8152509150610ab4565b8660ff168560ff16118015610a3d575080610a3788876119cf565b60ff1610155b8015610a4e57508660ff168660ff16115b8015610a66575080610a6088886119cf565b60ff1610155b15610a8f576040518060400160405280600481526020016331bcb0b760e11b8152509150610ab4565b604051806040016040528060098152602001681cd85d1d5c985d195960ba1b81525091505b50610b9a565b60ff8316610aec575060408051808201909152600d81526c6b616c6569646f73636f70696360981b6020820152610b9a565b60198360ff161015610b1e57506040805180820190915260098152686368726f6d6174696360b81b6020820152610b9a565b60328360ff161015610b4c57506040805180820190915260058152641d9a5d9a5960da1b6020820152610b9a565b60558360ff161015610b7b57506040805180820190915260068152651d1a5b99d95960d21b6020820152610b9a565b506040805180820190915260068152651d1a5b9d195960d21b60208201525b95945050505050565b606080610bb160b487611a2e565b955060ff8516610d6a5760328760ff16118015610bda5750610bd4605a87611a2e565b61ffff16155b15610c0a575060408051808201909152600e81526d706572666563742073717561726560901b60208201526117cd565b605b8760ff16118015610c2f57508561ffff16602d1480610c2f57508561ffff166087145b15610c60575060408051808201909152600f81526e1c195c999958dd08191a585b5bdb99608a1b60208201526117cd565b60328760ff1611158015610c76575061ffff8616155b15610ca8575060408051808201909152601081526f766572746963616c207374726970657360801b60208201526117cd565b60328760ff1611158015610cc85750610cc2605a87611a2e565b61ffff16155b15610d07575060408051808201909152601281527f686f72697a6f6e74616c2073747269706573000000000000000000000000000060208201526117cd565b60198760ff1611610d3f575060408051808201909152601081526f646961676f6e616c207374726970657360801b60208201526117cd565b5060408051808201909152600e81526d726f74617465642073717561726560901b60208201526117cd565b601e8760ff161015610fb45760148760ff16108015610d8c575060468460ff16115b8015610d9b5750603c8560ff16105b8015610daa5750600a8560ff16115b15610dd35750604080518082019091526007815266726962626f6e7360c81b60208201526117cd565b60148760ff16108015610de95750601e8560ff16105b8015610df8575060c88460ff16115b15610e21575060408051808201909152600781526662616e6e65727360c81b60208201526117cd565b60148760ff16108015610e375750604b8360ff16105b8015610e465750603c8560ff16105b8015610e555750600a8560ff16115b15610e80575060408051808201909152600981526873747265616d65727360b81b60208201526117cd565b603c8360ff16108015610e96575060828560ff16115b15610ec3575060408051808201909152600b81526a6c61736572206265616d7360a81b60208201526117cd565b60788360ff16108015610edb5750602d8661ffff1610155b8015610eeb575060878661ffff16105b15610f1257506040805180820190915260058152646265616d7360d81b60208201526117cd565b60788360ff16108015610f285750605a8560ff16105b15610f4f5750604080518082019091526005815264706f6c657360d81b60208201526117cd565b602d8661ffff1610158015610f68575060878661ffff16105b15610f91575060408051808201909152600781526673747265616b7360c81b60208201526117cd565b5060408051808201909152600681526573686166747360d01b60208201526117cd565b60328760ff16118015610fca5750603c8360ff16105b8015610fd95750601e8560ff16105b15611007575060408051808201909152600c81526b6d6174636820737469636b7360a01b60208201526117cd565b60328760ff1611801561101d5750603c8360ff16105b801561102c5750603c8560ff16105b1561106b575060408051808201909152601681527f736361747465726564206d6174636820737469636b730000000000000000000060208201526117cd565b60328760ff16118015611081575060468460ff16115b80156110905750606e8360ff16105b801561109f5750600a8560ff16115b80156110ae575060288560ff16105b156110d55750604080518082019091526005815264747769677360d81b60208201526117cd565b60328760ff161180156110eb575060468460ff16115b80156110fa5750606e8360ff16105b80156111095750600a8560ff16115b80156111185750603c8560ff16105b15611149575060408051808201909152600f81526e73636174746572656420747769677360881b60208201526117cd565b60508760ff1611801561115f5750603c8360ff16105b801561116e575060828560ff16115b1561119a575060408051808201909152600a815269189a5c991cc81b995cdd60b21b60208201526117cd565b60468760ff161180156111b0575060468560ff16105b80156111bf575060c88460ff16115b80156111df575060198661ffff161115806111df5750609b8661ffff1610155b15611208575060408051808201909152600781526670696c6c61727360c81b60208201526117cd565b60468760ff1611801561121e575060468560ff16105b801561122d575060c88460ff16115b801561124e575060738661ffff161115801561124e575060418661ffff1610155b156112765750604080518082019091526006815265627269636b7360d01b60208201526117cd565b60378760ff1611801561128c575060468460ff16115b801561129c575060058560ff1610155b80156112ac5750601e8560ff1611155b80156112cc5750600a8661ffff161115806112cc575060aa8661ffff1610155b156112fd575060408051808201909152600f81526e636c7574746572656420626f6f6b7360881b60208201526117cd565b60378760ff16118015611313575060468460ff16115b80156113235750601e8560ff1611155b8015611334575060508661ffff1610155b8015611345575060648661ffff1611155b15611374575060408051808201909152600d81526c737461636b656420626f6f6b7360981b60208201526117cd565b60378760ff1611801561138a575060468460ff16115b80156113995750603c8560ff16105b80156113aa575060328661ffff1610155b80156113bb575060828661ffff1611155b156113eb575060408051808201909152600e81526d74756d626c696e6720626f6f6b7360901b60208201526117cd565b60378760ff16118015611401575060328460ff16115b8015611410575060968360ff16105b801561141f575060328560ff16105b8015611430575060508661ffff1610155b8015611441575060648661ffff1611155b15611470575060408051808201909152600d81526c313937b5b2b7103630b23232b960991b60208201526117cd565b60378760ff161180156114865750600a8560ff16115b80156114955750603c8560ff16105b80156114a6575060328661ffff1610155b80156114b7575060828661ffff1611155b80156114d0575060966114ca85856119cf565b60ff1610155b1561150f575060408051808201909152601381527f636f6c6c617073696e67206275696c64696e670000000000000000000000000060208201526117cd565b60198460ff16118015611525575060c88360ff16105b80156115355750600f8560ff1611155b1561155e57506040805180820190915260078152666a69747465727360c81b60208201526117cd565b60198460ff16118015611574575060c88360ff16105b80156115845750602d8560ff1611155b156115ad5750604080518082019091526007815266776f62626c657360c81b60208201526117cd565b60328760ff161180156115c3575060c88460ff16115b156115eb5750604080518082019091526006815265626c6f636b7360d01b60208201526117cd565b605a8760ff1611801561160b5750609661160585856119cf565b60ff1610155b801561161a575060968560ff16115b15611647575060408051808201909152600b81526a6d6173746572706965636560a81b60208201526117cd565b60648560ff1611801561165d575060968360ff16105b1561168557506040805180820190915260068152656c756e61637960d01b60208201526117cd565b603c8560ff1610801561169b575060968460ff16115b156116c8575060408051808201909152600b81526a7472616e7175696c69747960a81b60208201526117cd565b60788460ff1611156116f557506040805180820190915260048152636261727360e01b60208201526117cd565b60648360ff1610801561170b5750603c8560ff16115b1561173c575060408051808201909152600f81526e736361747465726564206c696e657360881b60208201526117cd565b60648360ff16101561176a57506040805180820190915260058152646c696e657360d81b60208201526117cd565b60288760ff161180156117805750605a8560ff16115b156117a957506040805180820190915260078152667265766572696560c81b60208201526117cd565b5060408051808201909152600b81526a30b139ba3930b1ba34b7b760a91b60208201525b9695505050505050565b803560ff811681146117e857600080fd5b919050565b600080600080600080600060e0888a031215611807578283fd5b611810886117d7565b9650602088013561ffff81168114611826578384fd5b9550611834604089016117d7565b9450611842606089016117d7565b9350611850608089016117d7565b925061185e60a089016117d7565b915061186c60c089016117d7565b905092959891949750929550565b6000845161188c8184602089016119fe565b8083019050600160fd1b80825285516118ac816001850160208a016119fe565b600192019182015283516118c78160028401602088016119fe565b0160020195945050505050565b6d036b0b3b734b334b1b2b73a363c960951b8152600082516118fd81600e8501602087016119fe565b91909101600e0192915050565b6a03837bbb2b9333ab6363c960ad1b81526000825161193081600b8501602087016119fe565b91909101600b0192915050565b66033b2b73a363c960cd1b81526000825161195f8160078501602087016119fe565b9190910160070192915050565b6703a32b834b2363c960c51b81526000825161198f8160088501602087016119fe565b9190910160080192915050565b60208152600082518060208401526119bb8160408501602087016119fe565b601f01601f19169190910160400192915050565b600060ff821660ff8416808210156119f557634e487b7160e01b83526011600452602483fd5b90039392505050565b60005b83811015611a19578181015183820152602001611a01565b83811115611a28576000848401525b50505050565b600061ffff80841680611a4f57634e487b7160e01b83526012600452602483fd5b9216919091069291505056fea26469706673582212203018870907b92655c82d48a8932d5f27c0e375d25cccc7c463c1efeb0c56281764736f6c63430008040033",
  "linkReferences": {},
  "deployedLinkReferences": {}
}