{
  "_format": "hh-sol-artifact-1",
  "contractName": "TestDynaTraits",
  "sourceName": "contracts/TestDynaTraits.sol",
  "abi": [
    {
      "inputs": [
        {
          "internalType": "bool",
          "name": "descTraitsEnabled",
          "type": "bool"
        },
        {
          "internalType": "uint24",
          "name": "_randomSeed",
          "type": "uint24"
        },
        {
          "internalType": "uint8",
          "name": "_zoom",
          "type": "uint8"
        },
        {
          "internalType": "uint8",
          "name": "_rotationMin",
          "type": "uint8"
        },
        {
          "internalType": "uint8",
          "name": "_rotationMax",
          "type": "uint8"
        },
        {
          "internalType": "uint8",
          "name": "_stripeWidthMin",
          "type": "uint8"
        },
        {
          "internalType": "uint8",
          "name": "_stripeWidthMax",
          "type": "uint8"
        },
        {
          "internalType": "uint8",
          "name": "_speedMin",
          "type": "uint8"
        },
        {
          "internalType": "uint8",
          "name": "_speedMax",
          "type": "uint8"
        }
      ],
      "name": "getTraits",
      "outputs": [
        {
          "internalType": "string",
          "name": "",
          "type": "string"
        }
      ],
      "stateMutability": "pure",
      "type": "function"
    }
  ],
  "bytecode": "0x608060405234801561001057600080fd5b50611f89806100206000396000f3fe608060405234801561001057600080fd5b506004361061002b5760003560e01c806354701ec614610030575b600080fd5b61004361003e366004611784565b610059565b6040516100509190611e93565b60405180910390f35b604080516101808101825262ffffff8a16815260ff808a16602083015260c892820192909252606460608281018290526080830191909152607f60a083015288831660c083015287831660e08301528683166101008301528583166101208301528483166101408301529183166101608201526100d68b826100e5565b9b9a5050505050505050505050565b606060006100f9836020015160ff166102f6565b6040516020016101099190611a28565b6040516020818303038152906040529050600061012c846040015160ff166102f6565b61013c856060015160ff166102f6565b61014c866080015160ff166102f6565b61015c8760a0015160ff166102f6565b60405160200161016f9493929190611876565b60405160208183030381529060405290506000816040516020016101939190611a83565b604051602081830303815290604052905060006101b68660c0015160ff166102f6565b6101c68760e0015160ff166102f6565b6040516020016101d7929190611970565b604051602081830303815290604052905060006101fb87610100015160ff166102f6565b61020c88610120015160ff166102f6565b60405160200161021d929190611dc7565b6040516020818303038152906040529050600061024188610140015160ff166102f6565b61025289610160015160ff166102f6565b604051602001610263929190611d15565b604051602081830303815290604052905088156102bf57600061028589610534565b90508087868686866040516020016102a296959493929190611b88565b6040516020818303038152906040529750505050505050506102f0565b85848484846040516020016102d8959493929190611c55565b60405160208183030381529060405296505050505050505b92915050565b6060610100821061033c5760405162461bcd60e51b815260206004820152600c60248201526b696e70757420746f2062696760a01b604482015260640160405180910390fd5b8161035e5750506040805180820190915260018152600360fc1b602082015290565b6060600a8310156103d05760408051600180825281830190925290602082018180368337019050509050600a835b0660300160f81b816000815181106103b457634e487b7160e01b600052603260045260246000fd5b60200101906001600160f81b031916908160001a9053506102f0565b60648310156104445760408051600280825281830190925290602082018180368337019050509050600a830660300160f81b8160018151811061042357634e487b7160e01b600052603260045260246000fd5b60200101906001600160f81b031916908160001a905350600a80840461038c565b60408051600380825281830190925290602082018180368337019050509050600a830660300160f81b8160028151811061048e57634e487b7160e01b600052603260045260246000fd5b60200101906001600160f81b031916908160001a905350600a8084040660300160f81b816001815181106104d257634e487b7160e01b600052603260045260246000fd5b60200101906001600160f81b031916908160001a905350600a606484040660300160f81b8160008151811061051757634e487b7160e01b600052603260045260246000fd5b60200101906001600160f81b031916908160001a90535092915050565b6060808260e0015160ff168360c0015160ff1614801561055b57506032836020015160ff16115b80156105785750605a8360e001516105739190611f25565b60ff16155b156105b7575060408051808201909152600e81527f70657266656374207371756172650000000000000000000000000000000000006020820152610ed5565b8260e0015160ff168360c0015160ff161480156105ec57508260e0015160ff16602d14806105ec57508260e0015160ff166087145b80156105ff5750605b836020015160ff16115b1561063e575060408051808201909152600f81527f70657266656374206469616d6f6e6400000000000000000000000000000000006020820152610ed5565b8260e0015160ff168360c0015160ff1614801561066357506032836020015160ff1611155b801561067657508260e0015160ff16605a145b156106b5575060408051808201909152601281527f686f72697a6f6e74616c207374726970657300000000000000000000000000006020820152610ed5565b8260e0015160ff168360c0015160ff161480156106da57506032836020015160ff1611155b80156106f7575060b48360e001516106f29190611f25565b60ff16155b15610736575060408051808201909152601081527f766572746963616c2073747269706573000000000000000000000000000000006020820152610ed5565b8260e0015160ff168360c0015160ff1614801561075b57506019836020015160ff1611155b1561079a575060408051808201909152601081527f646961676f6e616c2073747269706573000000000000000000000000000000006020820152610ed5565b8260e0015160ff168360c0015160ff1614156107ea575060408051808201909152600e81527f726f7461746564207371756172650000000000000000000000000000000000006020820152610ed5565b601e8360c001518460e001516108009190611ec6565b60ff16108015610818575060c883610100015160ff16115b801561082b57506014836020015160ff16105b1561086a575060408051808201909152600f81527f62696720666174207374726970657300000000000000000000000000000000006020820152610ed5565b603c83610120015160ff161080156108985750601e8360c001518460e001516108939190611ec6565b60ff16105b156108c6575060408051808201909152600c81526b6d6174636820737469636b7360a01b6020820152610ed5565b603c83610120015160ff161080156108f4575060828360c001518460e001516108ef9190611ec6565b60ff16115b80156109075750601e836020015160ff16115b15610933575060408051808201909152600a815269189a5c991cc81b995cdd60b21b6020820152610ed5565b603c83610120015160ff16108015610961575060828360c001518460e0015161095c9190611ec6565b60ff16115b80156109745750601e836020015160ff16105b156109a1575060408051808201909152600b81526a6c61736572206265616d7360a81b6020820152610ed5565b603c836020015160ff161180156109c0575060b483610100015160ff16115b80156109e25750601e8360c001518460e001516109dd9190611ec6565b60ff16105b8015610a04575060058360c001518460e001516109ff9190611ec6565b60ff16115b8015610a28575060a08360c0015160ff161180610a285750601e8360e0015160ff16105b15610a67575060408051808201909152600f81527f636c7574746572656420626f6f6b7300000000000000000000000000000000006020820152610ed5565b60b483610100015160ff16118015610a965750601e8360c001518460e00151610a909190611ec6565b60ff1611155b8015610aa95750604b8360c0015160ff16115b8015610abc575060698360e0015160ff16105b15610aeb575060408051808201909152600d81526c737461636b656420626f6f6b7360981b6020820152610ed5565b603283610100015160ff16118015610b0b5750609683610120015160ff16105b8015610b2d575060328360c001518460e00151610b289190611ec6565b60ff16105b8015610b40575060238360c0015160ff16115b8015610b53575060918360e0015160ff16105b8015610b6657506037836020015160ff16115b15610b95575060408051808201909152600d81526c313937b5b2b7103630b23232b960991b6020820152610ed5565b60c883610100015160ff16118015610bb457506046836020015160ff16115b15610be3575060408051808201909152600d81526c6769616e742070696c6c61727360981b6020820152610ed5565b606483610100015160ff16118015610c0257506014836020015160ff16105b15610c2b5750604080518082019091526007815266726962626f6e7360c81b6020820152610ed5565b601e83610100015160ff16118015610c4b575060c883610120015160ff16105b8015610c6d5750600f8360c001518460e00151610c689190611ec6565b60ff16105b15610c9657506040805180820190915260078152666a69747465727960c81b6020820152610ed5565b602883610120015160ff161015610ccc5750604080518082019091526008815267747769676c65747360c01b6020820152610ed5565b603c8360c001518460e00151610ce29190611ec6565b60ff16108015610cfa575060328360c0015160ff1610155b8015610d0e575060828360e0015160ff1611155b8015610d3357506096836101000151846101200151610d2d9190611ec6565b60ff1610155b15610d5f575060408051808201909152600a815269636f6c6c617073696e6760b01b6020820152610ed5565b60c883610100015160ff16118015610d7e57506032836020015160ff16115b15610da65750604080518082019091526006815265626c6f636b7960d01b6020820152610ed5565b60648360c001518460e00151610dbc9190611ec6565b60ff16118015610dd45750609683610120015160ff16105b15610dfa57506040805180820190915260048152631dda5b1960e21b6020820152610ed5565b60648360c001518460e00151610e109190611ec6565b60ff16108015610e285750609683610100015160ff16115b15610e4e575060408051808201909152600481526374616d6560e01b6020820152610ed5565b609683610100015160ff161115610e815750604080518082019091526005815264746869636b60d81b6020820152610ed5565b606483610120015160ff161015610eb357506040805180820190915260048152633a3434b760e11b6020820152610ed5565b506040805180820190915260098152680e4c2dcc8dedad2e6d60bb1b60208201525b6060607f8460a0015160ff1611156113a85760006096905060c88560a0015160ff16118015610f0b57506032856040015160ff16105b8015610f1e57506032856060015160ff16105b8015610f3157506032856080015160ff16105b15610f73576040518060400160405280600e81526020017f646f6f6d20616e6420676c6f6f6d00000000000000000000000000000000000081525091506113a2565b60c88560a0015160ff16118015610f91575060c8856040015160ff16115b8015610fa4575060c8856060015160ff16115b8015610fb7575060c8856080015160ff16115b15610fe8576040518060400160405280600c81526020016b1cd9595b88184819da1bdcdd60a21b81525091506113a2565b846060015160ff16856040015160ff1611801561101b575080856060015186604001516110159190611ec6565b60ff1610155b80156110345750846080015160ff16856040015160ff16115b8015611056575080856080015186604001516110509190611ec6565b60ff1610155b1561107f57604051806040016040528060048152602001637265647360e01b81525091506113a2565b846040015160ff16856060015160ff161180156110b2575080856040015186606001516110ac9190611ec6565b60ff1610155b80156110cb5750846080015160ff16856060015160ff16115b80156110ed575080856080015186606001516110e79190611ec6565b60ff1610155b156111185760405180604001604052806006815260200165677265656e7360d01b81525091506113a2565b846040015160ff16856080015160ff1611801561114b575080856040015186608001516111459190611ec6565b60ff1610155b80156111645750846060015160ff16856080015160ff16115b8015611186575080856060015186608001516111809190611ec6565b60ff1610155b156111b05760405180604001604052806005815260200164626c75657360d81b81525091506113a2565b846060015160ff16856040015160ff161180156111e3575080856060015186604001516111dd9190611ec6565b60ff1610155b80156111fc5750846060015160ff16856080015160ff16115b801561121e575080856060015186608001516112189190611ec6565b60ff1610155b1561124a576040518060400160405280600781526020016676696f6c65747360c81b81525091506113a2565b846080015160ff16856040015160ff1611801561127d575080856080015186604001516112779190611ec6565b60ff1610155b80156112965750846080015160ff16856060015160ff16115b80156112b8575080856080015186606001516112b29190611ec6565b60ff1610155b156112e4576040518060400160405280600781526020016679656c6c6f777360c81b81525091506113a2565b846040015160ff16856080015160ff16118015611317575080856040015186608001516113119190611ec6565b60ff1610155b80156113305750846040015160ff16856060015160ff16115b80156113525750808560400151866060015161134c9190611ec6565b60ff1610155b1561137c57604051806040016040528060058152602001646379616e7360d81b81525091506113a2565b6040518060400160405280600a8152602001691a19585d9e481d1a5b9d60b21b81525091505b50611439565b60a084015160ff166113de575060408051808201909152600d81526c73757065722064796e616d696360981b6020820152611439565b603c8460a0015160ff161015611415575060408051808201909152600a8152691b1a59da1d081d1a5b9d60b21b6020820152611439565b5060408051808201909152600b81526a1b59591a5d5b481d1a5b9d60aa1b60208201525b6060601985610160015160ff161115801561145b575060b48560a0015160ff16105b1561149a575060408051808201909152600f81527f63616c6c2074686520706f6c69636500000000000000000000000000000000006020820152611670565b84610160015160ff1685610140015160ff161480156114c15750601e85610160015160ff16105b156114eb5750604080518082019091526008815267626c696e6b696e6760c01b6020820152611670565b84610160015160ff1685610140015160ff16148015611512575060c885610160015160ff16115b1561153e575060408051808201909152600a815269736c6f772070756c736560b01b6020820152611670565b84610160015160ff1685610140015160ff161415611578575060408051808201909152600581526470756c736560d81b6020820152611670565b603285610160015160ff1610156115b0575060408051808201909152600a815269666c69636b6572696e6760b01b6020820152611670565b606485610160015160ff1610156115e357506040805180820190915260058152647a6970707960d81b6020820152611670565b60c885610140015160ff16111561161b575060408051808201909152600a8152693832b232b9ba3934b0b760b11b6020820152611670565b609685610140015160ff16111561164f5750604080518082019091526006815265736c6565707960d01b6020820152611670565b506040805180820190915260088152677368696674696e6760c01b60208201525b606083516000146116c35760008460405160200161168e9190611b46565b6040516020818303038152906040529050806040516020016116b091906118ee565b6040516020818303038152906040529150505b815115611714576000826040516020016116dd9190611914565b6040516020818303038152906040529050818160405160200161170192919061183a565b6040516020818303038152906040529150505b8251156117655760008360405160200161172e9190611ae5565b6040516020818303038152906040529050818160405160200161175292919061183a565b6040516020818303038152906040529150505b95945050505050565b803560ff8116811461177f57600080fd5b919050565b60008060008060008060008060006101208a8c0312156117a2578485fd5b893580151581146117b1578586fd5b985060208a013562ffffff811681146117c8578586fd5b97506117d660408b0161176e565b96506117e460608b0161176e565b95506117f260808b0161176e565b945061180060a08b0161176e565b935061180e60c08b0161176e565b925061181c60e08b0161176e565b915061182b6101008b0161176e565b90509295985092959850929598565b6000835161184c818460208801611ef5565b835190830190611860818360208801611ef5565b61016160f51b9101908152600201949350505050565b60008551611888818460208a01611ef5565b8083019050600160fd1b80825286516118a8816001850160208b01611ef5565b6001920191820181905285516118c5816002850160208a01611ef5565b600292019182015283516118e0816003840160208801611ef5565b016003019695505050505050565b60008251611900818460208701611ef5565b61016160f51b920191825250600201919050565b7f7b2274726169745f74797065223a20227370656564222c202276616c7565223a815261101160f11b602082015260008251611957816022850160208701611ef5565b61227d60f01b6022939091019283015250602401919050565b7f7b2274726169745f74797065223a2022726f746174696f6e206d696e222c20228152683b30b63ab2911d101160b91b6020820152600083516119ba816029850160208801611ef5565b7f227d2c207b2274726169745f74797065223a2022726f746174696f6e206d61786029918401918201526c111610113b30b63ab2911d101160991b60498201528351611a0d816056840160208801611ef5565b61227d60f01b60569290910191820152605801949350505050565b7f7b2274726169745f74797065223a20227a6f6f6d222c202276616c7565223a208152601160f91b602082015260008251611a6a816021850160208701611ef5565b61227d60f01b6021939091019283015250602301919050565b7f7b2274726169745f74797065223a202274696e7420636f6c6f7572222c20227681526730b63ab2911d101160c11b602082015260008251611acc816028850160208701611ef5565b61227d60f01b6028939091019283015250602a01919050565b7f7b2274726169745f74797065223a2022636f6c6f757220776179222c20227661815266363ab2911d101160c91b602082015260008251611b2d816027850160208701611ef5565b61227d60f01b6027939091019283015250602901919050565b7f7b2274726169745f74797065223a2022666f726d222c202276616c7565223a208152601160f91b602082015260008251611a6a816021850160208701611ef5565b6e2261747472696275746573223a205b60881b8152600087516020611bb382600f8601838d01611ef5565b885191840191611bc981600f8501848d01611ef5565b80830192505061016160f51b80600f8401528851611bed8160118601858d01611ef5565b601193019283018190528751611c098160138601858c01611ef5565b601393019283018190528651611c258160158601858b01611ef5565b60159301928301528451611c3f8160178501848901611ef5565b6100d6601782850101605d60f81b815260010190565b6e2261747472696275746573223a205b60881b815260008651611c7f81600f850160208b01611ef5565b808301905061016160f51b80600f8301528751611ca3816011850160208c01611ef5565b601192019182018190528651611cc0816013850160208b01611ef5565b601392019182018190528551611cdd816015850160208a01611ef5565b60159201918201528351611cf8816017840160208801611ef5565b605d60f81b60179290910191820152601801979650505050505050565b7f7b2274726169745f74797065223a20227370656564206d696e222c202276616c8152653ab2911d101160d11b602082015260008351611d5c816026850160208801611ef5565b7f227d2c207b2274726169745f74797065223a20227370656564206d6178222c2060269184019182015269113b30b63ab2911d101160b11b60468201528351611dac816050840160208801611ef5565b61227d60f01b60509290910191820152605201949350505050565b7f7b2274726169745f74797065223a2022737472697065207769647468206d696e81526c111610113b30b63ab2911d101160991b602082015260008351611e1581602d850160208801611ef5565b7f227d2c207b2274726169745f74797065223a2022737472697065207769647468602d918401918201527f206d6178222c202276616c7565223a2022000000000000000000000000000000604d8201528351611e7881605e840160208801611ef5565b61227d60f01b605e9290910191820152606001949350505050565b6020815260008251806020840152611eb2816040850160208701611ef5565b601f01601f19169190910160400192915050565b600060ff821660ff841680821015611eec57634e487b7160e01b83526011600452602483fd5b90039392505050565b60005b83811015611f10578181015183820152602001611ef8565b83811115611f1f576000848401525b50505050565b600060ff831680611f4457634e487b7160e01b82526012600452602482fd5b8060ff8416069150509291505056fea2646970667358221220c72bc8f2663f3fd647b12a7a19e3ec7cefcbd17eeac17228a309e3a28b4cd36664736f6c63430008040033",
  "linkReferences": {},
  "deployedLinkReferences": {}
}