{
  "_format": "hh-sol-artifact-1",
  "contractName": "TestStringUtils",
  "sourceName": "contracts/TestStringUtils.sol",
  "abi": [
    {
      "inputs": [
        {
          "internalType": "uint256",
          "name": "_i",
          "type": "uint256"
        }
      ],
      "name": "smallUintToString",
      "outputs": [
        {
          "internalType": "string",
          "name": "",
          "type": "string"
        }
      ],
      "stateMutability": "pure",
      "type": "function"
    }
  ],
  "bytecode": "0x608060405234801561001057600080fd5b50610349806100206000396000f3fe608060405234801561001057600080fd5b506004361061002b5760003560e01c8063ed04112514610030575b600080fd5b61004361003e3660046102a8565b610059565b60405161005091906102c0565b60405180910390f35b60606100648261006a565b92915050565b606061010082106100b05760405162461bcd60e51b815260206004820152600c60248201526b696e70757420746f2062696760a01b604482015260640160405180910390fd5b816100d25750506040805180820190915260018152600360fc1b602082015290565b6060600a8310156101445760408051600180825281830190925290602082018180368337019050509050600a835b0660300160f81b8160008151811061012857634e487b7160e01b600052603260045260246000fd5b60200101906001600160f81b031916908160001a905350610064565b60648310156101b85760408051600280825281830190925290602082018180368337019050509050600a830660300160f81b8160018151811061019757634e487b7160e01b600052603260045260246000fd5b60200101906001600160f81b031916908160001a905350600a808404610100565b60408051600380825281830190925290602082018180368337019050509050600a830660300160f81b8160028151811061020257634e487b7160e01b600052603260045260246000fd5b60200101906001600160f81b031916908160001a905350600a8084040660300160f81b8160018151811061024657634e487b7160e01b600052603260045260246000fd5b60200101906001600160f81b031916908160001a905350600a606484040660300160f81b8160008151811061028b57634e487b7160e01b600052603260045260246000fd5b60200101906001600160f81b031916908160001a90535092915050565b6000602082840312156102b9578081fd5b5035919050565b6000602080835283518082850152825b818110156102ec578581018301518582016040015282016102d0565b818111156102fd5783604083870101525b50601f01601f191692909201604001939250505056fea2646970667358221220eae57286a8de78e852fd994a4e1045dd153e2e5597f796de0682abac4b947b3164736f6c63430008040033",
  "linkReferences": {},
  "deployedLinkReferences": {}
}