{
  "_format": "hh-sol-artifact-1",
  "contractName": "TestColourWork",
  "sourceName": "contracts/TestColourWork.sol",
  "abi": [
    {
      "inputs": [
        {
          "internalType": "uint256",
          "name": "colourComponent",
          "type": "uint256"
        },
        {
          "internalType": "uint256",
          "name": "tintComponent",
          "type": "uint256"
        },
        {
          "internalType": "uint256",
          "name": "alpha",
          "type": "uint256"
        }
      ],
      "name": "_safeTint",
      "outputs": [
        {
          "internalType": "uint256",
          "name": "",
          "type": "uint256"
        }
      ],
      "stateMutability": "pure",
      "type": "function"
    }
  ],
  "bytecode": "0x608060405234801561001057600080fd5b50610100806100206000396000f3fe6080604052348015600f57600080fd5b506004361060285760003560e01c8063287870b914602d575b600080fd5b603c603836600460a0565b604e565b60405190815260200160405180910390f35b600060598484846063565b90505b9392505050565b6000816072575060ff8316605c565b60008385116089575060ff84840383020484016095565b5060ff83850383020484035b60ff16949350505050565b60008060006060848603121560b3578283fd5b50508135936020830135935060409092013591905056fea2646970667358221220d2f6689287abc3ba5bd7f10f351ae3df44e7861405affecf27ab96413f92ec3d64736f6c63430008040033",
  "linkReferences": {},
  "deployedLinkReferences": {}
}