{
  "_format": "hh-sol-artifact-1",
  "contractName": "TestColourWork",
  "sourceName": "contracts/TestColourWork.sol",
  "abi": [
    {
      "inputs": [
        {
          "internalType": "uint16",
          "name": "colourComponent",
          "type": "uint16"
        },
        {
          "internalType": "uint16",
          "name": "tintComponent",
          "type": "uint16"
        },
        {
          "internalType": "uint16",
          "name": "alpha",
          "type": "uint16"
        }
      ],
      "name": "_safeTint",
      "outputs": [
        {
          "internalType": "uint16",
          "name": "",
          "type": "uint16"
        }
      ],
      "stateMutability": "pure",
      "type": "function"
    }
  ],
  "bytecode": "0x608060405234801561001057600080fd5b50610249806100206000396000f3fe608060405234801561001057600080fd5b506004361061002b5760003560e01c80638a1da34414610030575b600080fd5b61004361003e36600461011b565b61005a565b60405161ffff909116815260200160405180910390f35b6000610067848484610071565b90505b9392505050565b600061ffff821661008357508261006a565b60008361ffff168561ffff16116100cb57600060ff846100a388886101da565b6100ad91906101b0565b6100b79190610183565b90506100c3818761015d565b915050610067565b600060ff846100da87896101da565b6100e491906101b0565b6100ee9190610183565b90506100fa81876101da565b9695505050505050565b803561ffff8116811461011657600080fd5b919050565b60008060006060848603121561012f578283fd5b61013884610104565b925061014660208501610104565b915061015460408501610104565b90509250925092565b600061ffff80831681851680830382111561017a5761017a6101fd565b01949350505050565b600061ffff808416806101a457634e487b7160e01b83526012600452602483fd5b92169190910492915050565b600061ffff808316818516818304811182151516156101d1576101d16101fd565b02949350505050565b600061ffff838116908316818110156101f5576101f56101fd565b039392505050565b634e487b7160e01b600052601160045260246000fdfea2646970667358221220eeaada076e5e72e807730bff66b4f136eba51bfcbb99fbdf4c381788f8a097c864736f6c63430008040033",
  "linkReferences": {},
  "deployedLinkReferences": {}
}