{
  "_format": "hh-sol-artifact-1",
  "contractName": "TestColourWork",
  "sourceName": "contracts/TestColourWork.sol",
  "abi": [
    {
      "inputs": [
        {
          "internalType": "uint16",
          "name": "colourComponent",
          "type": "uint16"
        },
        {
          "internalType": "uint16",
          "name": "tintComponent",
          "type": "uint16"
        },
        {
          "internalType": "uint16",
          "name": "alpha",
          "type": "uint16"
        }
      ],
      "name": "_safeTint",
      "outputs": [
        {
          "internalType": "uint16",
          "name": "",
          "type": "uint16"
        }
      ],
      "stateMutability": "pure",
      "type": "function"
    }
  ],
  "bytecode": "0x608060405234801561001057600080fd5b5061024a806100206000396000f3fe608060405234801561001057600080fd5b506004361061002b5760003560e01c80638a1da34414610030575b600080fd5b61004361003e36600461011c565b61005a565b60405161ffff909116815260200160405180910390f35b6000610067848484610071565b90505b9392505050565b600061ffff82166100845750600061006a565b60008361ffff168561ffff16116100cc57600060ff846100a488886101db565b6100ae91906101b1565b6100b89190610184565b90506100c4818761015e565b915050610067565b600060ff846100db87896101db565b6100e591906101b1565b6100ef9190610184565b90506100fb81876101db565b9695505050505050565b803561ffff8116811461011757600080fd5b919050565b600080600060608486031215610130578283fd5b61013984610105565b925061014760208501610105565b915061015560408501610105565b90509250925092565b600061ffff80831681851680830382111561017b5761017b6101fe565b01949350505050565b600061ffff808416806101a557634e487b7160e01b83526012600452602483fd5b92169190910492915050565b600061ffff808316818516818304811182151516156101d2576101d26101fe565b02949350505050565b600061ffff838116908316818110156101f6576101f66101fe565b039392505050565b634e487b7160e01b600052601160045260246000fdfea26469706673582212206906c2fca3c13f0688d14096ef44570357988355831c6a37c9b72b1f084d74c564736f6c63430008040033",
  "linkReferences": {},
  "deployedLinkReferences": {}
}