{
  "_format": "hh-sol-artifact-1",
  "contractName": "TestColourWork",
  "sourceName": "contracts/TestColourWork.sol",
  "abi": [
    {
      "inputs": [
        {
          "internalType": "uint256",
          "name": "red",
          "type": "uint256"
        },
        {
          "internalType": "uint256",
          "name": "green",
          "type": "uint256"
        },
        {
          "internalType": "uint256",
          "name": "blue",
          "type": "uint256"
        }
      ],
      "name": "_rgbString",
      "outputs": [
        {
          "internalType": "string",
          "name": "",
          "type": "string"
        }
      ],
      "stateMutability": "pure",
      "type": "function"
    },
    {
      "inputs": [
        {
          "internalType": "uint256",
          "name": "colourComponent",
          "type": "uint256"
        },
        {
          "internalType": "uint256",
          "name": "tintComponent",
          "type": "uint256"
        },
        {
          "internalType": "uint256",
          "name": "alpha",
          "type": "uint256"
        }
      ],
      "name": "_safeTint",
      "outputs": [
        {
          "internalType": "uint256",
          "name": "",
          "type": "uint256"
        }
      ],
      "stateMutability": "pure",
      "type": "function"
    }
  ],
  "bytecode": "0x608060405234801561001057600080fd5b506104ae806100206000396000f3fe608060405234801561001057600080fd5b50600436106100365760003560e01c8063076de0f71461003b578063287870b914610064575b600080fd5b61004e610049366004610371565b610085565b60405161005b9190610415565b60405180910390f35b610077610072366004610371565b61009c565b60405190815260200161005b565b60606100928484846100a9565b90505b9392505050565b60006100928484846100f0565b60606100b484610131565b6100bd84610131565b6100c684610131565b6040516020016100d89392919061039c565b60405160208183030381529060405290509392505050565b600081610101575060ff8316610095565b600083851161011a575060ff8484038302048401610126565b5060ff83850383020484035b60ff16949350505050565b606061010082106101785760405162461bcd60e51b815260206004820152600d60248201526c696e70757420746f6f2062696760981b604482015260640160405180910390fd5b8161019a5750506040805180820190915260018152600360fc1b602082015290565b6060600a83101561020c5760408051600180825281830190925290602082018180368337019050509050600a835b0660300160f81b816000815181106101f057634e487b7160e01b600052603260045260246000fd5b60200101906001600160f81b031916908160001a90535061036b565b60648310156102805760408051600280825281830190925290602082018180368337019050509050600a830660300160f81b8160018151811061025f57634e487b7160e01b600052603260045260246000fd5b60200101906001600160f81b031916908160001a905350600a8084046101c8565b60408051600380825281830190925290602082018180368337019050509050600a830660300160f81b816002815181106102ca57634e487b7160e01b600052603260045260246000fd5b60200101906001600160f81b031916908160001a905350600a8084040660300160f81b8160018151811061030e57634e487b7160e01b600052603260045260246000fd5b60200101906001600160f81b031916908160001a905350600a606484040660300160f81b8160008151811061035357634e487b7160e01b600052603260045260246000fd5b60200101906001600160f81b031916908160001a9053505b92915050565b600080600060608486031215610385578283fd5b505081359360208301359350604090920135919050565b630e4cec4560e31b8152600084516103bb816004850160208901610448565b808301905061016160f51b80600483015285516103df816006850160208a01610448565b600692019182015283516103fa816008840160208801610448565b602960f81b6008929091019182015260090195945050505050565b6020815260008251806020840152610434816040850160208701610448565b601f01601f19169190910160400192915050565b60005b8381101561046357818101518382015260200161044b565b83811115610472576000848401525b5050505056fea2646970667358221220bba79c911941ff30dac6760e0bf108cebf2546ba0ffd101dbdf4cd65e7adf20764736f6c63430008040033",
  "linkReferences": {},
  "deployedLinkReferences": {}
}