{
  "_format": "hh-sol-artifact-1",
  "contractName": "DynaTraits",
  "sourceName": "contracts/DynaTraits.sol",
  "abi": [
    {
      "inputs": [
        {
          "internalType": "uint8",
          "name": "_zoom",
          "type": "uint8"
        },
        {
          "internalType": "uint8",
          "name": "_tintRed",
          "type": "uint8"
        },
        {
          "internalType": "uint8",
          "name": "_tintGreen",
          "type": "uint8"
        },
        {
          "internalType": "uint8",
          "name": "_tintBlue",
          "type": "uint8"
        },
        {
          "internalType": "uint8",
          "name": "_tintAlpha",
          "type": "uint8"
        },
        {
          "internalType": "uint16",
          "name": "_rotationDegrees",
          "type": "uint16"
        },
        {
          "internalType": "uint8",
          "name": "_rotationRange",
          "type": "uint8"
        },
        {
          "internalType": "uint8",
          "name": "_stripeWidthMin",
          "type": "uint8"
        },
        {
          "internalType": "uint8",
          "name": "_stripeWidthMax",
          "type": "uint8"
        },
        {
          "internalType": "uint8",
          "name": "_speedMin",
          "type": "uint8"
        },
        {
          "internalType": "uint8",
          "name": "_speedMax",
          "type": "uint8"
        }
      ],
      "name": "getTextTraitsExpanded",
      "outputs": [
        {
          "internalType": "string",
          "name": "",
          "type": "string"
        }
      ],
      "stateMutability": "pure",
      "type": "function"
    }
  ],
  "bytecode": "0x61196761003a600b82828239805160001a60731461002d57634e487b7160e01b600052600060045260246000fd5b30600052607381538281f3fe73000000000000000000000000000000000000000030146080604052600436106100355760003560e01c806331fde3851461003a575b600080fd5b61004d61004836600461155d565b610063565b60405161005a9190611872565b60405180910390f35b60608060828960ff1611801561007c575060dc8460ff16115b156100a557506040805180820190915260078152661b185b99dd5a5960ca1b6020820152610381565b60828960ff161180156100bb575060c88460ff16115b156100e7575060408051808201909152600a8152693832b232b9ba3934b0b760b11b6020820152610381565b60198360ff16111580156100fe575060b48960ff16105b1561012557506040805180820190915260058152646d616e696360d81b60208201526102e5565b8260ff168460ff1614156101ba57601e8360ff1610156101645750604080518082019091526008815267626c696e6b696e6760c01b60208201526102e5565b60c88360ff16111561019657506040805180820190915260098152687468726f6262696e6760b81b60208201526102e5565b5060408051808201909152600781526670756c73696e6760c81b60208201526102e5565b60238360ff1610156101eb5750604080518082019091526008815267666c617368696e6760c01b60208201526102e5565b60468360ff16101561021e575060408051808201909152600a815269666c69636b6572696e6760b01b60208201526102e5565b60698360ff1610156102505750604080518082019091526009815268717569766572696e6760b81b60208201526102e5565b60968360ff1610156102825750604080518082019091526009815268766962726174696e6760b81b60208201526102e5565b609661028e85856118a5565b60ff1611156102c1575060408051808201909152600d81526c7363696e74696c6c6174696e6760981b60208201526102e5565b5060408051808201909152600b81526a6f7363696c6c6174696e6760a81b60208201525b60d58960ff16111561031857806040516020016103029190611813565b6040516020818303038152906040529050610381565b60c88960ff16111561033557806040516020016103029190611842565b60148960ff161015610352578060405160200161030291906116ee565b60328960ff161015610381578060405160200161036f91906117e0565b60405160208183030381529060405290505b6060607f8a60ff16111561073657609660c860ff8c161180156103a7575060328e60ff16105b80156103b6575060328d60ff16105b80156103c5575060328c60ff16105b156103f05760405180604001604052806006815260200165676c6f6f6d7960d01b8152509150610730565b60c88b60ff16118015610406575060c88e60ff16115b8015610415575060c88d60ff16115b8015610424575060c88c60ff16115b1561044d576040518060400160405280600481526020016370616c6560e01b8152509150610730565b8c60ff168e60ff161180156104705750808d8f61046a91906118a5565b60ff1610155b801561048157508b60ff168e60ff16115b801561049b5750808c8f61049591906118a5565b60ff1610155b156104c357604051806040016040528060038152602001621c995960ea1b8152509150610730565b8d60ff168d60ff161180156104e45750806104de8f8f6118a5565b60ff1610155b80156104f557508b60ff168d60ff16115b801561050d5750806105078d8f6118a5565b60ff1610155b15610537576040518060400160405280600581526020016433b932b2b760d91b8152509150610730565b8d60ff168c60ff161180156105585750806105528f8e6118a5565b60ff1610155b801561056957508c60ff168c60ff16115b801561058157508061057b8e8e6118a5565b60ff1610155b156105aa5760405180604001604052806004815260200163626c756560e01b8152509150610730565b8c60ff168e60ff161180156105cd5750808d8f6105c791906118a5565b60ff1610155b80156105de57508c60ff168c60ff16115b80156105f65750806105f08e8e6118a5565b60ff1610155b1561062157604051806040016040528060068152602001651d9a5bdb195d60d21b8152509150610730565b8b60ff168e60ff161180156106445750808c8f61063e91906118a5565b60ff1610155b801561065557508b60ff168d60ff16115b801561066d5750806106678d8f6118a5565b60ff1610155b15610698576040518060400160405280600681526020016579656c6c6f7760d01b8152509150610730565b8d60ff168c60ff161180156106b95750806106b38f8e6118a5565b60ff1610155b80156106ca57508d60ff168d60ff16115b80156106e25750806106dc8f8f6118a5565b60ff1610155b1561070b576040518060400160405280600481526020016331bcb0b760e11b8152509150610730565b604051806040016040528060098152602001681cd85d1d5c985d195960ba1b81525091505b50610816565b60ff8a16610768575060408051808201909152600d81526c6b616c6569646f73636f70696360981b6020820152610816565b60198a60ff16101561079a57506040805180820190915260098152686368726f6d6174696360b81b6020820152610816565b60328a60ff1610156107c857506040805180820190915260058152641d9a5d9a5960da1b6020820152610816565b60558a60ff1610156107f757506040805180820190915260068152651d1a5b99d95960d21b6020820152610816565b506040805180820190915260068152651d1a5b9d195960d21b60208201525b606061082360b48b611904565b995060ff89166109dc5760328f60ff1611801561084c5750610846605a8b611904565b61ffff16155b1561087c575060408051808201909152600e81526d706572666563742073717561726560901b602082015261143f565b605b8f60ff161180156108a157508961ffff16602d14806108a157508961ffff166087145b156108d2575060408051808201909152600f81526e1c195c999958dd08191a585b5bdb99608a1b602082015261143f565b60328f60ff16111580156108e8575061ffff8a16155b1561091a575060408051808201909152601081526f766572746963616c207374726970657360801b602082015261143f565b60328f60ff161115801561093a5750610934605a8b611904565b61ffff16155b15610979575060408051808201909152601281527f686f72697a6f6e74616c20737472697065730000000000000000000000000000602082015261143f565b60198f60ff16116109b1575060408051808201909152601081526f646961676f6e616c207374726970657360801b602082015261143f565b5060408051808201909152600e81526d726f74617465642073717561726560901b602082015261143f565b601e8f60ff161015610c265760148f60ff161080156109fe575060468860ff16115b8015610a0d5750603c8960ff16105b8015610a1c5750600a8960ff16115b15610a455750604080518082019091526007815266726962626f6e7360c81b602082015261143f565b60148f60ff16108015610a5b5750601e8960ff16105b8015610a6a575060c88860ff16115b15610a93575060408051808201909152600781526662616e6e65727360c81b602082015261143f565b60148f60ff16108015610aa95750604b8760ff16105b8015610ab85750603c8960ff16105b8015610ac75750600a8960ff16115b15610af2575060408051808201909152600981526873747265616d65727360b81b602082015261143f565b603c8760ff16108015610b08575060828960ff16115b15610b35575060408051808201909152600b81526a6c61736572206265616d7360a81b602082015261143f565b60788760ff16108015610b4d5750602d8a61ffff1610155b8015610b5d575060878a61ffff16105b15610b8457506040805180820190915260058152646265616d7360d81b602082015261143f565b60788760ff16108015610b9a5750605a8960ff16105b15610bc15750604080518082019091526005815264706f6c657360d81b602082015261143f565b602d8a61ffff1610158015610bda575060878a61ffff16105b15610c03575060408051808201909152600781526673747265616b7360c81b602082015261143f565b5060408051808201909152600681526573686166747360d01b602082015261143f565b60328f60ff16118015610c3c5750603c8760ff16105b8015610c4b5750601e8960ff16105b15610c79575060408051808201909152600c81526b6d6174636820737469636b7360a01b602082015261143f565b60328f60ff16118015610c8f5750603c8760ff16105b8015610c9e5750603c8960ff16105b15610cdd575060408051808201909152601681527f736361747465726564206d6174636820737469636b7300000000000000000000602082015261143f565b60328f60ff16118015610cf3575060468860ff16115b8015610d025750606e8760ff16105b8015610d115750600a8960ff16115b8015610d20575060288960ff16105b15610d475750604080518082019091526005815264747769677360d81b602082015261143f565b60328f60ff16118015610d5d575060468860ff16115b8015610d6c5750606e8760ff16105b8015610d7b5750600a8960ff16115b8015610d8a5750603c8960ff16105b15610dbb575060408051808201909152600f81526e73636174746572656420747769677360881b602082015261143f565b60508f60ff16118015610dd15750603c8760ff16105b8015610de0575060828960ff16115b15610e0c575060408051808201909152600a815269189a5c991cc81b995cdd60b21b602082015261143f565b60468f60ff16118015610e22575060468960ff16105b8015610e31575060c88860ff16115b8015610e51575060198a61ffff16111580610e515750609b8a61ffff1610155b15610e7a575060408051808201909152600781526670696c6c61727360c81b602082015261143f565b60468f60ff16118015610e90575060468960ff16105b8015610e9f575060c88860ff16115b8015610ec0575060738a61ffff1611158015610ec0575060418a61ffff1610155b15610ee85750604080518082019091526006815265627269636b7360d01b602082015261143f565b60378f60ff16118015610efe575060468860ff16115b8015610f0e575060058960ff1610155b8015610f1e5750601e8960ff1611155b8015610f3e5750600a8a61ffff16111580610f3e575060aa8a61ffff1610155b15610f6f575060408051808201909152600f81526e636c7574746572656420626f6f6b7360881b602082015261143f565b60378f60ff16118015610f85575060468860ff16115b8015610f955750601e8960ff1611155b8015610fa6575060508a61ffff1610155b8015610fb7575060648a61ffff1611155b15610fe6575060408051808201909152600d81526c737461636b656420626f6f6b7360981b602082015261143f565b60378f60ff16118015610ffc575060468860ff16115b801561100b5750603c8960ff16105b801561101c575060328a61ffff1610155b801561102d575060828a61ffff1611155b1561105d575060408051808201909152600e81526d74756d626c696e6720626f6f6b7360901b602082015261143f565b60378f60ff16118015611073575060328860ff16115b8015611082575060968760ff16105b8015611091575060328960ff16105b80156110a2575060508a61ffff1610155b80156110b3575060648a61ffff1611155b156110e2575060408051808201909152600d81526c313937b5b2b7103630b23232b960991b602082015261143f565b60378f60ff161180156110f85750600a8960ff16115b80156111075750603c8960ff16105b8015611118575060328a61ffff1610155b8015611129575060828a61ffff1611155b80156111425750609661113c89896118a5565b60ff1610155b15611181575060408051808201909152601381527f636f6c6c617073696e67206275696c64696e6700000000000000000000000000602082015261143f565b60198860ff16118015611197575060c88760ff16105b80156111a75750600f8960ff1611155b156111d057506040805180820190915260078152666a69747465727360c81b602082015261143f565b60198860ff161180156111e6575060c88760ff16105b80156111f65750602d8960ff1611155b1561121f5750604080518082019091526007815266776f62626c657360c81b602082015261143f565b60328f60ff16118015611235575060c88860ff16115b1561125d5750604080518082019091526006815265626c6f636b7360d01b602082015261143f565b605a8f60ff1611801561127d5750609661127789896118a5565b60ff1610155b801561128c575060968960ff16115b156112b9575060408051808201909152600b81526a6d6173746572706965636560a81b602082015261143f565b60648960ff161180156112cf575060968760ff16105b156112f757506040805180820190915260068152656c756e61637960d01b602082015261143f565b603c8960ff1610801561130d575060968860ff16115b1561133a575060408051808201909152600b81526a7472616e7175696c69747960a81b602082015261143f565b60788860ff16111561136757506040805180820190915260048152636261727360e01b602082015261143f565b60648760ff1610801561137d5750603c8960ff16115b156113ae575060408051808201909152600f81526e736361747465726564206c696e657360881b602082015261143f565b60648760ff1610156113dc57506040805180820190915260058152646c696e657360d81b602082015261143f565b60288f60ff161180156113f25750605a8960ff16115b1561141b57506040805180820190915260078152667265766572696560c81b602082015261143f565b5060408051808201909152600b81526a30b139ba3930b1ba34b7b760a91b60208201525b606081516000146114925760008260405160200161145d9190611785565b60405160208183030381529060405290508060405160200161147f919061166c565b6040516020818303038152906040529150505b8351156114e3576000846040516020016114ac9190611692565b604051602081830303815290604052905081816040516020016114d0929190611630565b6040516020818303038152906040529150505b825115611534576000836040516020016114fd9190611724565b60405160208183030381529060405290508181604051602001611521929190611630565b6040516020818303038152906040529150505b9f9e505050505050505050505050505050565b803560ff8116811461155857600080fd5b919050565b60008060008060008060008060008060006101608c8e03121561157e578687fd5b6115878c611547565b9a5061159560208d01611547565b99506115a360408d01611547565b98506115b160608d01611547565b97506115bf60808d01611547565b965060a08c013561ffff811681146115d5578687fd5b95506115e360c08d01611547565b94506115f160e08d01611547565b93506116006101008d01611547565b925061160f6101208d01611547565b915061161e6101408d01611547565b90509295989b509295989b9093969950565b600083516116428184602088016118d4565b8351908301906116568183602088016118d4565b61016160f51b9101908152600201949350505050565b6000825161167e8184602087016118d4565b61016160f51b920191825250600201919050565b7f7b2274726169745f74797065223a20227370656564222c202276616c7565223a815261101160f11b6020820152600082516116d58160228501602087016118d4565b61227d60f01b6022939091019283015250602401919050565b6d036b0b3b734b334b1b2b73a363c960951b81526000825161171781600e8501602087016118d4565b91909101600e0192915050565b7f7b2274726169745f74797065223a2022636f6c6f757220776179222c20227661815266363ab2911d101160c91b60208201526000825161176c8160278501602087016118d4565b61227d60f01b6027939091019283015250602901919050565b7f7b2274726169745f74797065223a2022666f726d222c202276616c7565223a208152601160f91b6020820152600082516117c78160218501602087016118d4565b61227d60f01b6021939091019283015250602301919050565b6a03837bbb2b9333ab6363c960ad1b81526000825161180681600b8501602087016118d4565b91909101600b0192915050565b66033b2b73a363c960cd1b8152600082516118358160078501602087016118d4565b9190910160070192915050565b6703a32b834b2363c960c51b8152600082516118658160088501602087016118d4565b9190910160080192915050565b60208152600082518060208401526118918160408501602087016118d4565b601f01601f19169190910160400192915050565b600060ff821660ff8416808210156118cb57634e487b7160e01b83526011600452602483fd5b90039392505050565b60005b838110156118ef5781810151838201526020016118d7565b838111156118fe576000848401525b50505050565b600061ffff8084168061192557634e487b7160e01b83526012600452602483fd5b9216919091069291505056fea2646970667358221220df6a57330343c84cfe2fe93e839f2f7f2520213604a3b5110b3082939899bf6b64736f6c63430008040033",
  "linkReferences": {},
  "deployedLinkReferences": {}
}