{
  "_format": "hh-sol-artifact-1",
  "contractName": "DynaTraits",
  "sourceName": "contracts/DynaTraits.sol",
  "abi": [
    {
      "inputs": [
        {
          "internalType": "uint8",
          "name": "_zoom",
          "type": "uint8"
        },
        {
          "internalType": "uint8",
          "name": "_tintRed",
          "type": "uint8"
        },
        {
          "internalType": "uint8",
          "name": "_tintGreen",
          "type": "uint8"
        },
        {
          "internalType": "uint8",
          "name": "_tintBlue",
          "type": "uint8"
        },
        {
          "internalType": "uint8",
          "name": "_tintAlpha",
          "type": "uint8"
        },
        {
          "internalType": "uint16",
          "name": "_rotationDegrees",
          "type": "uint16"
        },
        {
          "internalType": "uint8",
          "name": "_rotationRange",
          "type": "uint8"
        },
        {
          "internalType": "uint8",
          "name": "_stripeWidthMin",
          "type": "uint8"
        },
        {
          "internalType": "uint8",
          "name": "_stripeWidthMax",
          "type": "uint8"
        },
        {
          "internalType": "uint8",
          "name": "_speedMin",
          "type": "uint8"
        },
        {
          "internalType": "uint8",
          "name": "_speedMax",
          "type": "uint8"
        }
      ],
      "name": "getTextTraitsExpanded",
      "outputs": [
        {
          "internalType": "string",
          "name": "",
          "type": "string"
        }
      ],
      "stateMutability": "pure",
      "type": "function"
    }
  ],
  "bytecode": "0x61155c61003a600b82828239805160001a60731461002d57634e487b7160e01b600052600060045260246000fd5b30600052607381538281f3fe73000000000000000000000000000000000000000030146080604052600436106100355760003560e01c806331fde3851461003a575b600080fd5b61004d61004836600461121a565b610063565b60405161005a9190611467565b60405180910390f35b60608060198360ff161115801561007d575060b48960ff16105b156100a457506040805180820190915260058152646d616e696360d81b6020820152610264565b8260ff168460ff16141561013957601e8360ff1610156100e35750604080518082019091526008815267626c696e6b696e6760c01b6020820152610264565b60c88360ff16111561011557506040805180820190915260098152687468726f6262696e6760b81b6020820152610264565b5060408051808201909152600781526670756c73696e6760c81b6020820152610264565b60328360ff16101561016c575060408051808201909152600a815269666c69636b6572696e6760b01b6020820152610264565b60648360ff16101561019e5750604080518082019091526009815268766962726174696e6760b81b6020820152610264565b60c88460ff1611156101d1575060408051808201909152600a8152693832b232b9ba3934b0b760b11b6020820152610264565b60968460ff16111561020157506040805180820190915260078152661b185b99dd5a5960ca1b6020820152610264565b609661020d858561149a565b60ff161115610240575060408051808201909152600d81526c7363696e74696c6c6174696e6760981b6020820152610264565b5060408051808201909152600b81526a6f7363696c6c6174696e6760a81b60208201525b6060607f8a60ff16111561061957609660c860ff8c1611801561028a575060328e60ff16105b8015610299575060328d60ff16105b80156102a8575060328c60ff16105b156102d35760405180604001604052806006815260200165676c6f6f6d7960d01b8152509150610613565b60c88b60ff161180156102e9575060c88e60ff16115b80156102f8575060c88d60ff16115b8015610307575060c88c60ff16115b15610330576040518060400160405280600481526020016370616c6560e01b8152509150610613565b8c60ff168e60ff161180156103535750808d8f61034d919061149a565b60ff1610155b801561036457508b60ff168e60ff16115b801561037e5750808c8f610378919061149a565b60ff1610155b156103a657604051806040016040528060038152602001621c995960ea1b8152509150610613565b8d60ff168d60ff161180156103c75750806103c18f8f61149a565b60ff1610155b80156103d857508b60ff168d60ff16115b80156103f05750806103ea8d8f61149a565b60ff1610155b1561041a576040518060400160405280600581526020016433b932b2b760d91b8152509150610613565b8d60ff168c60ff1611801561043b5750806104358f8e61149a565b60ff1610155b801561044c57508c60ff168c60ff16115b801561046457508061045e8e8e61149a565b60ff1610155b1561048d5760405180604001604052806004815260200163626c756560e01b8152509150610613565b8c60ff168e60ff161180156104b05750808d8f6104aa919061149a565b60ff1610155b80156104c157508c60ff168c60ff16115b80156104d95750806104d38e8e61149a565b60ff1610155b1561050457604051806040016040528060068152602001651d9a5bdb195d60d21b8152509150610613565b8b60ff168e60ff161180156105275750808c8f610521919061149a565b60ff1610155b801561053857508b60ff168d60ff16115b801561055057508061054a8d8f61149a565b60ff1610155b1561057b576040518060400160405280600681526020016579656c6c6f7760d01b8152509150610613565b8d60ff168c60ff1611801561059c5750806105968f8e61149a565b60ff1610155b80156105ad57508d60ff168d60ff16115b80156105c55750806105bf8f8f61149a565b60ff1610155b156105ee576040518060400160405280600481526020016331bcb0b760e11b8152509150610613565b604051806040016040528060098152602001681cd85d1d5c985d195960ba1b81525091505b506106f9565b60ff8a1661064b575060408051808201909152600d81526c6b616c6569646f73636f70696360981b60208201526106f9565b60198a60ff16101561067d57506040805180820190915260098152686368726f6d6174696360b81b60208201526106f9565b60328a60ff1610156106ab57506040805180820190915260058152641d9a5d9a5960da1b60208201526106f9565b60558a60ff1610156106da57506040805180820190915260068152651d1a5b99d95960d21b60208201526106f9565b506040805180820190915260068152651d1a5b9d195960d21b60208201525b606061070660b48b6114f9565b995060ff89166109055760328f60ff1611801561072f5750610729605a8b6114f9565b61ffff16155b1561076e575060408051808201909152600e81527f706572666563742073717561726500000000000000000000000000000000000060208201526110fc565b605b8f60ff1611801561079357508961ffff16602d148061079357508961ffff166087145b156107d2575060408051808201909152600f81527f70657266656374206469616d6f6e64000000000000000000000000000000000060208201526110fc565b60328f60ff16111580156107e8575061ffff8a16155b15610827575060408051808201909152601081527f766572746963616c20737472697065730000000000000000000000000000000060208201526110fc565b60328f60ff16111580156108475750610841605a8b6114f9565b61ffff16155b15610886575060408051808201909152601281527f686f72697a6f6e74616c2073747269706573000000000000000000000000000060208201526110fc565b60198f60ff16116108cb575060408051808201909152601081527f646961676f6e616c20737472697065730000000000000000000000000000000060208201526110fc565b5060408051808201909152600e81527f726f74617465642073717561726500000000000000000000000000000000000060208201526110fc565b601e8f60ff161015610adf5760148f60ff16108015610927575060468860ff16115b80156109365750603c8960ff16105b80156109455750600a8960ff16115b1561096e5750604080518082019091526007815266726962626f6e7360c81b60208201526110fc565b60148f60ff161080156109845750601e8960ff16105b8015610993575060c88860ff16115b156109bc575060408051808201909152600781526662616e6e65727360c81b60208201526110fc565b60148f60ff161080156109d25750604b8760ff16105b80156109e15750603c8960ff16105b80156109f05750600a8960ff16115b15610a1b575060408051808201909152600981526873747265616d65727360b81b60208201526110fc565b603c8760ff16108015610a31575060828960ff16115b15610a5e575060408051808201909152600b81526a6c61736572206265616d7360a81b60208201526110fc565b60788860ff161115610a8e575060408051808201909152600781526673747265616b7360c81b60208201526110fc565b60788760ff161015610abc5750604080518082019091526005815264706f6c657360d81b60208201526110fc565b5060408051808201909152600681526573686166747360d01b60208201526110fc565b60328f60ff16118015610af55750603c8760ff16105b8015610b045750601e8960ff16105b15610b32575060408051808201909152600c81526b6d6174636820737469636b7360a01b60208201526110fc565b60328f60ff16118015610b485750606e8760ff16105b8015610b57575060468860ff16115b8015610b665750603c8960ff16105b15610b94575060408051808201909152600c81526b6672656e636820667269657360a01b60208201526110fc565b60508f60ff16118015610baa5750603c8760ff16105b8015610bb9575060828960ff16115b15610be5575060408051808201909152600a815269189a5c991cc81b995cdd60b21b60208201526110fc565b60468f60ff16118015610bfb575060468960ff16105b8015610c0a575060c88860ff16115b8015610c2a575060198a61ffff16111580610c2a5750609b8a61ffff1610155b15610c53575060408051808201909152600781526670696c6c61727360c81b60208201526110fc565b60468f60ff16118015610c69575060468960ff16105b8015610c78575060c88860ff16115b8015610c99575060738a61ffff1611158015610c99575060418a61ffff1610155b15610cc15750604080518082019091526006815265627269636b7360d01b60208201526110fc565b603c8f60ff16118015610cd7575060468860ff16115b8015610ce75750601e8960ff1611155b8015610cf7575060058960ff1610155b8015610d17575060058a61ffff16111580610d17575060af8a61ffff1610155b15610d56575060408051808201909152600f81527f636c7574746572656420626f6f6b73000000000000000000000000000000000060208201526110fc565b60378f60ff16118015610d6c575060468860ff16115b8015610d7c5750601e8960ff1611155b8015610d8d575060558a61ffff1610155b8015610d9e5750605f8a61ffff1611155b15610dcd575060408051808201909152600d81526c737461636b656420626f6f6b7360981b60208201526110fc565b60378f60ff16118015610de3575060328860ff16115b8015610df2575060968760ff16105b8015610e01575060328960ff16105b8015610e12575060508a61ffff1610155b8015610e23575060648a61ffff1611155b15610e52575060408051808201909152600d81526c313937b5b2b7103630b23232b960991b60208201526110fc565b60198860ff16118015610e68575060c88760ff16105b8015610e785750600f8960ff1611155b15610ea157506040805180820190915260078152666a69747465727360c81b60208201526110fc565b60288760ff161015610ed25750604080518082019091526008815267747769676c65747360c01b60208201526110fc565b603c8f60ff16118015610ee85750603c8960ff16105b8015610ef9575060328a61ffff1610155b8015610f0a575060828a61ffff1611155b8015610f2357506096610f1d898961149a565b60ff1610155b15610f62575060408051808201909152601381527f636f6c6c617073696e67206275696c64696e670000000000000000000000000060208201526110fc565b60328f60ff16118015610f78575060c88860ff16115b15610fa05750604080518082019091526006815265626c6f636b7360d01b60208201526110fc565b605a8f60ff16118015610fc057506096610fba898961149a565b60ff1610155b8015610fcf575060968960ff16115b15610ffc575060408051808201909152600b81526a6d6173746572706965636560a81b60208201526110fc565b60648960ff16118015611012575060968760ff16105b1561103a57506040805180820190915260068152656c756e61637960d01b60208201526110fc565b603c8960ff16108015611050575060968860ff16115b1561107d575060408051808201909152600b81526a7472616e7175696c69747960a81b60208201526110fc565b60788860ff1611156110aa57506040805180820190915260048152636261727360e01b60208201526110fc565b60648760ff1610156110d857506040805180820190915260058152646c696e657360d81b60208201526110fc565b5060408051808201909152600b81526a30b139ba3930b1ba34b7b760a91b60208201525b6060815160001461114f5760008260405160200161111a919061140c565b60405160208183030381529060405290508060405160200161113c9190611329565b6040516020818303038152906040529150505b8351156111a057600084604051602001611169919061134f565b6040516020818303038152906040529050818160405160200161118d9291906112ed565b6040516020818303038152906040529150505b8251156111f1576000836040516020016111ba91906113ab565b604051602081830303815290604052905081816040516020016111de9291906112ed565b6040516020818303038152906040529150505b9f9e505050505050505050505050505050565b803560ff8116811461121557600080fd5b919050565b60008060008060008060008060008060006101608c8e03121561123b578687fd5b6112448c611204565b9a5061125260208d01611204565b995061126060408d01611204565b985061126e60608d01611204565b975061127c60808d01611204565b965060a08c013561ffff81168114611292578687fd5b95506112a060c08d01611204565b94506112ae60e08d01611204565b93506112bd6101008d01611204565b92506112cc6101208d01611204565b91506112db6101408d01611204565b90509295989b509295989b9093969950565b600083516112ff8184602088016114c9565b8351908301906113138183602088016114c9565b61016160f51b9101908152600201949350505050565b6000825161133b8184602087016114c9565b61016160f51b920191825250600201919050565b7f7b2274726169745f74797065223a20227370656564222c202276616c7565223a815261101160f11b6020820152600082516113928160228501602087016114c9565b61227d60f01b6022939091019283015250602401919050565b7f7b2274726169745f74797065223a2022636f6c6f757220776179222c20227661815266363ab2911d101160c91b6020820152600082516113f38160278501602087016114c9565b61227d60f01b6027939091019283015250602901919050565b7f7b2274726169745f74797065223a2022666f726d222c202276616c7565223a208152601160f91b60208201526000825161144e8160218501602087016114c9565b61227d60f01b6021939091019283015250602301919050565b60208152600082518060208401526114868160408501602087016114c9565b601f01601f19169190910160400192915050565b600060ff821660ff8416808210156114c057634e487b7160e01b83526011600452602483fd5b90039392505050565b60005b838110156114e45781810151838201526020016114cc565b838111156114f3576000848401525b50505050565b600061ffff8084168061151a57634e487b7160e01b83526012600452602483fd5b9216919091069291505056fea26469706673582212205f3a290c0986785ffec0157e26d5513afd5dec77426dbf2896128ae6174a0b1564736f6c63430008040033",
  "linkReferences": {},
  "deployedLinkReferences": {}
}